:100000000C946A000C9492000C9492000C94E600FC
:100010000C9413010C9440010C9492000C949200E7
:100020000C9492000C94210F0C9492000C94640B8D
:100030000C9492000C9492000C9492000C949200F8
:100040000C94F1140C9492000C94A0170C94D217F9
:100050000C9492000C9492000C9492000C949200D8
:100060000C9424130C949200000000090003020079
:10007000000405080000000000000000000000016E
:10008000020408102040800102040810200102042C
:100090000810204080400404040404040404020204
:1000A000020202020303030303030202030000002F
:1000B0000023002600290000000000250028002B56
:1000C0000000000000240027002A0000EB0A470F70
:1000D0001112021811241FBECFEFD8E0DEBFCDBF32
:1000E00012E0A0E0B1E0E0EFF8E302C005900D926D
:1000F000A836B107D9F724E0A8E6B2E001C01D9206
:10010000A33DB207E1F710E0CAE6D0E004C02197B2
:10011000FE010E944B1CC636D107C9F70E943B194D
:100120000C94761C0C940000FF920F931F93CF93B6
:10013000DF938C01D80117968C9117972091560365
:1001400015969C9115973091560316964C911697DB
:10015000C0915603C095C4239323C92B8227FC2E3C
:10016000F8228091560317968C9317971896CD9185
:10017000DC912097B1F08B81982F9F2171F09091A5
:100180005603892391E009F490E0909354038C8105
:1001900080935503E881F98109950D80DE81C02D9A
:1001A000E8CF9BB3F8018481982351F09BB3892B4E
:1001B0008BBB0190F081E02D808180935603BACFF4
:1001C000DF91CF911F910F91FF9008951F920F9291
:1001D0000FB60F9211242F933F934F935F936F931A
:1001E0007F938F939F93AF93BF93EF93FF93E09190
:1001F0004A03F0914B038081809356038AE493E095
:100200000E949400FF91EF91BF91AF919F918F91C8
:100210007F916F915F914F913F912F910F900FBE02
:100220000F901F9018951F920F920FB60F921124E6
:100230002F933F934F935F936F937F938F939F93EE
:10024000AF93BF93EF93FF93E0914003F09141038D
:1002500080818093560380E493E00E949400FF9194
:10026000EF91BF91AF919F918F917F916F915F912E
:100270004F913F912F910F900FBE0F901F901895A7
:100280001F920F920FB60F9211242F933F934F930B
:100290005F936F937F938F939F93AF93BF93EF93EE
:1002A000FF93E0913603F0913703808180935603EA
:1002B00086E393E00E949400FF91EF91BF91AF918C
:1002C0009F918F917F916F915F914F913F912F916E
:1002D0000F900FBE0F901F901895AF92BF92CF92C4
:1002E000DF92EF92FF920F931F938DE793E00E94AE
:1002F000CB0E26E040E052EC61E070E086E394E053
:100300000E94481788E391E00E94601C8D3E61F0D6
:1003100080E593ECA0E0B0E08093000190930101B0
:10032000A0930201B093030161E171E086E394E0E0
:100330000E946B18409100015091010160910201EF
:10034000709103012AE030E086E394E00E94E71810
:1003500086E394E00E9473186CE371E086E394E016
:100360000E946B1862E571E086E394E00E947718C2
:100370006BE571E086E394E00E946B1862E571E042
:1003800086E394E00E94771864E771E086E394E0E6
:100390000E946B1862E571E086E394E00E94771892
:1003A00063E971E086E394E00E946B1862E571E016
:1003B00086E394E00E9477186FEA71E086E394E0A8
:1003C0000E946B1881E090E00E94601C63EE71E077
:1003D000813011F060EF71E086E394E00E947718BD
:1003E00086E394E00E94731868EF71E086E394E07E
:1003F0000E94771886E394E00E94731862E08CE014
:100400000E94DB1560E080E10E94DB1560E081E185
:100410000E94DB1560E082E10E94DB1560E087E06E
:100420000E94DB1581E090E00E94601C813009F0A1
:1004300006C18093DB028CE00E944516892B61F493
:100440008091DB02882309F4FDC060E081E090E048
:100450000E94681C1092DB0287E893E00E947511ED
:1004600040E85AE166E070E087E893E00E94871177
:100470008DE793E00E94E80E9695879577956795AE
:100480006093E0027093E1028093E2029093E302B2
:100490008BEC92E00E94DD148EE00E949415909304
:1004A0001F0380931E03BC01990F880B990B1F92A9
:1004B0001F921F921F9238E2A32EB12CC12CD12C77
:1004C000E12CF12C87012FEF33E040E050E00E9457
:1004D000F9180E94661A20E030E040E251E40E94E0
:1004E000BC196093040170930501809306019093F9
:1004F00007018FE00E9494159093210380932003BD
:10050000BC01990F880B990B1F921F921F922CE828
:100510002F93A12CB12C65012FEF33E040E050E088
:100520000E94F9180E94661A20E030E040E251E48F
:100530000E94BC19609308017093090180930A011D
:1005400090930B0126E636E646E65FE30E941B1B0E
:100550009B01AC01E12CF12C870161E070E085E8A2
:1005600092E00E94840D4091040150910501609138
:1005700006017091070185E892E00E94F00C20913D
:1005800008013091090140910A0150910B0161E08D
:1005900070E088E692E00E94840D40910401509141
:1005A0000501609106017091070188E692E00E94C2
:1005B000F00C24EC39E040E951E069E070E088ECAF
:1005C00092E00E943A0C24EC39E040E951E066E008
:1005D00070E085EC92E00E943A0C24EC39E040E9AE
:1005E00051E065E070E082EC92E00E943A0C24EC6D
:1005F00039E040E951E063E070E08FEB92E00E9467
:100600003A0C65E372E086E394E00E94771861E0BB
:100610008DE00E94DB158DB79EB708960FB6F89453
:100620009EBF0FBE8DBF61E08DE01F910F91FF90C7
:10063000EF90DF90CF90BF90AF900C941716109270
:10064000DB02F9CE61E081E090E00E94681C81E06D
:100650008093DB0201CFCF92DF92EF92FF920F9354
:100660001F930E9447150091DC021091DD0220913A
:10067000DE023091DF026B017C01C01AD10AE20A6E
:10068000F30A0091000110910101209102013091C3
:100690000301C016D106E206F306B8F06093DC024F
:1006A0007093DD028093DE029093DF026091DA02A4
:1006B00081E068276093DA028DE01F910F91FF902F
:1006C000EF90DF90CF900C9417161F910F91FF9031
:1006D000EF90DF90CF9008952F923F924F925F92CC
:1006E0006F927F928F929F92AF92BF92CF92DF9242
:1006F000EF92FF920F931F93CF93DF93CDB7DEB7A7
:1007000060970FB6F894DEBF0FBECDBF0E942B03DB
:100710008CE00E94451690931503809314038FE09C
:100720000E9494159093210380932003BC01990F9C
:10073000880B990B1F921F921F922CE82F93A12CCC
:10074000B12C6501E12CF12C87012FEF33E040E063
:1007500050E00E94F9180E94661A6B017C010F900C
:100760000F900F900F9020E030E040E251E40E94A3
:10077000B71987FDC4C620E030E040E752E4C70166
:10078000B6010E94161B181634F4C12CD12C70E748
:10079000E72E72E4F72E20E030E040E251E4C7019A
:1007A000B6010E94BC1960930801709309018093FF
:1007B0000A0190930B018EE00E94941590931F0301
:1007C00080931E03BC01990F880B990B1F921F92F7
:1007D0001F921F9258E2A52EB12CC12CD12CE12CD6
:1007E000F12C87012FEF33E040E050E00E94F91830
:1007F0000E94661A6B017C010F900F900F900F9072
:1008000020E030E040E050E40E94B71987FD7EC64A
:1008100020E030E040E252E4C701B6010E94161B1E
:10082000181634F4C12CD12C40E2E42E42E4F42E0C
:1008300020E030E040E251E4C701B6010E94BC195B
:100840006093040170930501809306019093070162
:1008500086E00E949415893E23E0920714F088EE0A
:1008600093E08431910514F484E190E090931D03AA
:1008700080931C03BC01990F880B990B1F921F9248
:100880001F921F9218E7A12EB12CC12CD12C18EE6B
:10089000E12E13E0F12E00E010E024E130E040E032
:1008A00050E00E94F9180E94661A20E030E040E211
:1008B00051E40E94BC196093E8027093E9028093AE
:1008C000EA029093EB0287E00E9494150F900F903C
:1008D0000F900F90893E33E0930714F088EE93E079
:1008E0008431910514F484E190E090931B0380938C
:1008F0001A03BC01990F880B990B2FEF2F932F939D
:100900002F932CE92F93A4E6AA2EB12CC12CD12C25
:1009100018EEE12E13E0F12E00E010E024E130E0CB
:1009200040E050E00E94F9182AE0269FA001279F8E
:10093000500D1124509327034093260380E10E9419
:1009400094150F900F900F900F90893EA3E09A0797
:1009500014F088EE93E08431910514F484E190E082
:100960009093190380931803BC01990F880B990B7E
:100970001F921F921F9224E62F93A12CB12C650188
:1009800014E1E12EF12C00E010E028EE33E040E02D
:1009900050E00E94F9180F900F900F900F9065365D
:1009A000710514F064E670E06A30710514F46AE0D1
:1009B00070E02AE0269FC001279F900D112490939C
:1009C00023038093220381E10E949415893EB3E0C2
:1009D0009B0714F088EE93E08431910514F484E1D0
:1009E00090E09093170380931603BC01990F880B36
:1009F000990B1F921F921F9224E62F93A12CB12CCA
:100A0000650114E1E12EF12C00E010E028EE33E066
:100A100040E050E00E94F9180F900F900F900F9057
:100A20006135710514F060E570E06431710514F40E
:100A300064E170E070930D0160930C0164E0C62ED8
:100A400063E0D62E76E0E72E73E0F72E08E013E0A1
:100A50002AE033E04CE053E06EE073E08BEC92E090
:100A60000E946914409104015091050160910601B2
:100A70007091070185E892E00E94F00C26E636E6C8
:100A800046E65FE3609108017091090180910A01D7
:100A900090910B010E941B1BAB01BC0185E892E009
:100AA0000E94270D409104015091050160910601BB
:100AB0007091070188E692E00E94F00C40910801D5
:100AC0005091090160910A0170910B0188E692E052
:100AD0000E94270D8091DB0281111EC560910803E1
:100AE00070910903072E000C880B990B0E94661A5F
:100AF000AB01BC0185E892E00E94BB0D85E892E065
:100B00000E94C50E0E942E1A709329036093280339
:100B10006091060370910703072E000C880B990B58
:100B20000E94661AAB01BC0188E692E00E94BB0DF0
:100B300088E692E00E94C50E0E942E1A70932B0345
:100B400060932A0360912A0370912B03072E000CF7
:100B5000880B990B1F921F9227E02F9330ED3F9344
:100B6000A12CB12C650110EDE12E1AE8F12E0FEF4A
:100B70001FEF20E335E740E050E00E94F9180E94A3
:100B8000661A6093F0027093F1028093F2029093E0
:100B9000F3026091280370912903072E000C880B43
:100BA000990B1F921F92A7E0AF93B0EDBF9310EA8D
:100BB000E12E15E1F12E0FEF1FEF20E63AEE40E0B7
:100BC00050E00E94F9180E94661A6093EC0270933C
:100BD000ED028093EE029093EF020E943B150FB658
:100BE000F894DEBF0FBECDBF683873418105910513
:100BF000A8F160912C0370912D03613D87E0780787
:100C000014F060ED77E0643893E0790714F464E859
:100C100073E070932D0360932C03072E000C880B58
:100C2000990B1F921F9223E02F9324E82F932CE718
:100C3000A22E2CEFB22ECC24CA94DC2C10EDE12E87
:100C400017E0F12E00E010E024E833E040E050E04F
:100C50000E94F9180F900F900F900F90109225039B
:100C6000109224038090EC029090ED02A090EE028E
:100C7000B090EF02A5019401C501B4010E941B1BB5
:100C80006D877E878F87988B8091F0029091F1021B
:100C9000A091F202B091F3028D839E83AF83B88757
:100CA0009C01AD0160E070E08AEF94E40E944A1973
:100CB0009B01AC010E941B1B6B017C012D853E85B5
:100CC0004F8558890E944B190E948E1B2B013C01B5
:100CD0008091E8029091E902A091EA02B091EB02C2
:100CE00089839A83AB83BC83609126037091270329
:100CF000072E000C880B990B0E94661A69877A8769
:100D00008B879C8728EB36EC40EB54E4C301B2019F
:100D10000E944A1929813A814B815C810E941B1BE8
:100D200028EB36EC40EB54E40E944B1929853A85B8
:100D30004B855C850E944B1920E030E0A9010E94A0
:100D40004B192B013C0120E030E0A9010E94B719AA
:100D500087FD04C420E030EC40E355E4C301B20158
:100D60000E94161B18163CF4412C90EC592E90E36F
:100D7000692E95E4792E409200035092010360920F
:100D8000020370920303A501940160E070E08AEF12
:100D900094E40E944A199B01AC010E941B1B4B0169
:100DA0005C01A70196010E944B190E948E1B28EB43
:100DB00036EC40EB54E40E944A1929813A814B8178
:100DC0005C810E941B1B28EB36EC40EB54E40E9434
:100DD0004B1929853A854B855C850E944B1920E08B
:100DE00030E0A9010E944B196B017C0120E030E04A
:100DF000A9010E94B71987FDB5C320E030EC40E39C
:100E000055E4C701B6010E94161B18163CF4C12C0C
:100E100080ECD82E80E3E82E85E4F82EC092FC0208
:100E2000D092FD02E092FE02F092FF022D813E81FF
:100E30004F815885CA01B9010E941B1B6D837E83B7
:100E40008F8398879B01AC016D857E858F859889FE
:100E50000E944B190E948E1B28EB36EC40EB54E4A9
:100E60000E944A1929813A814B815C810E941B1B97
:100E700028EB36EC40EB54E40E944B1929853A8567
:100E80004B855C850E944B1920E030E0A9010E944F
:100E90004B196B017C0120E030E0A9010E94B719D9
:100EA00087FD64C320E030EC40E355E4C701B601A0
:100EB0000E94161B18163CF4C12C00ECD02E00E347
:100EC000E02E05E4F02EC092F802D092F902E092F2
:100ED000FA02F092FB022D813E814F815885C501B7
:100EE000B4010E944B190E948E1B28EB36EC40EB9C
:100EF00054E40E944A1929813A814B815C810E9405
:100F00001B1B28EB36EC40EB54E40E944B1929855F
:100F10003A854B855C850E944B1920E030E0A901A1
:100F20000E944B196B017C0120E030E0A9010E9476
:100F3000B71987FD1FC320E030EC40E355E4C7013B
:100F4000B6010E94161B18163CF4C12C10ECD12ED1
:100F500010E3E12E15E4F12EC092F402D092F502D6
:100F6000E092F602F092F70280910C0190910D014F
:100F700064E670E0681B790B072E000C880B990B58
:100F80000E94661A20E030E048EC52E40E94BC194E
:100F900069837A838B839C836091220370912303FE
:100FA000660F771F072E000C880B990B0E94661A9C
:100FB0004B015C0129813A814B815C810E941B1BA2
:100FC0006B017C0120E030E0A9010E94B71987FD88
:100FD000D5C220E030E04AE754E4C701B6010E94E0
:100FE000161B181634F4C12CD12CAAE7EA2EA4E45F
:100FF000FA2EC701B6010E942E1A70931303609354
:10100000120329813A814B815C8160E070E080E8C5
:101010009FE30E944A19A50194010E941B1B6B01CA
:101020007C0120E030E0A9010E94B71987FDAAC227
:1010300020E030E04AE754E4C701B6010E94161BE5
:10104000181634F4C12CD12CFAE7EF2EF4E4FF2E5D
:10105000C701B6010E942E1A70931103609310030A
:1010600024EF31E0309335032093340384EC99E08E
:1010700090933303809332033093310320933003F2
:1010800090932F0380932E03C301B2010E942E1A66
:101090001F921F9229E02F9324EC2F9324EFA22E6E
:1010A000BB24B394C12CD12C1CE0E12E1BE0F12E0B
:1010B00000E010E020E030E0A9010E94F9180E9451
:1010C000661A609300037093010380930203909368
:1010D0000303A0903203B09033030B2C000CCC0818
:1010E000DD086091FC027091FD028091FE029091FA
:1010F000FF020E942E1A209134033091350389019A
:10110000330F220B330B3F932F931F930F931CE04E
:10111000E12E1BE0F12E00E010E020E030E0A9011C
:101120000E94F9180E94661A6093FC027093FD02F7
:101130008093FE029093FF02A0903003B0903103A1
:101140000B2C000CCC08DD086091F8027091F902BC
:101150008091FA029091FB020E942E1A20912E0398
:1011600030912F038901330F220B330B3F932F93C1
:101170001F930F931CE0E12E1BE0F12E00E010E026
:1011800020E030E0A9010E94F9180E94661A6093DD
:10119000F8027093F9028093FA029093FB02A090F8
:1011A0002E03B0902F030B2C000CCC08DD086091AF
:1011B000F4027091F5028091F6029091F7020E947C
:1011C0002E1A20913003309131038901330F220B05
:1011D000330B3F932F931F930F931CE0E12E1BE0E3
:1011E000F12E00E010E020E030E0A9010E94F918A3
:1011F0000E94661A3B014C018091120390911303E7
:101200007C01A4E2EA1AAAEFFA0A00910003109105
:101210000103B0910203BD832091030329836CED88
:1012200075E0681B790B072E000C880B990B0E9448
:10123000661A5B016C010FB6F894DEBF0FBECDBF1E
:101240009B01AC01B8018D8199810E94B71987FD7E
:101250009DC1B7010F2C000C880B990B0E94661AD8
:101260001B012C019B01AC01B8018D8199810E9469
:10127000161B18161CF481014D825982C801AD81DC
:10128000B9818093000390930103A0930203B0936C
:1012900003030091FC021091FD029091FE029D83D8
:1012A000A091FF02A9839501A601B801892F9A2F69
:1012B0000E94B71987FD6EC1B701FF0C880B990B0F
:1012C0000E94661A6B017C019B01AC01B8018D8103
:1012D00099810E94161B18161CF48601ED82F98272
:1012E000C801AD81B9818093FC029093FD02A09367
:1012F000FE02B093FF0280911003909111035C01F4
:10130000B4E2AB1ABAEFBB0A2091F8022D833091F8
:10131000F90239834090FA025090FB026CED75E0BF
:10132000681B790B072E000C880B990B0E94661A1C
:101330006B017C019B01AC016D817981C2010E942E
:10134000B71987FD2BC1B5010B2C000C880B990B2D
:101350000E94661A1B018C019B01AC016D81798191
:10136000C2010E94161B18161CF42D823982280116
:101370008D819981D2018093F8029093F902A09314
:10138000FA02B093FB029601A701B301C4010E94C7
:10139000B71987FD12C0B501BB0C880B990B0E94D1
:1013A000661A6B017C019B01AC01B301C4010E9470
:1013B000161B181614F063017401C601D70180933F
:1013C000F4029093F502A093F602B093F70288E33B
:1013D00091E00E94601C8D3E09F05BC00E943B15AD
:1013E0000E94641A2091E4023091E5024091E602E5
:1013F0005091E7020E944A1920E030E040EA51E4AF
:101400000E94161B18160CF044C0609100037091E6
:10141000010380910203909103030E942E1A88EC2D
:1014200092E00E94B90C6091FC027091FD028091E3
:10143000FE029091FF020E942E1A85EC92E00E941B
:10144000B90C6091F8027091F9028091FA029091C2
:10145000FB020E942E1A82EC92E00E94B90C60916D
:10146000F4027091F5028091F6029091F7020E94C9
:101470002E1A8FEB92E00E94B90C0E943B150E943D
:10148000641A6093E4027093E5028093E6029093FD
:10149000E7028CE00E944516892B09F083C064EABC
:1014A00076E088EC92E00E94B90C64EA76E085EC84
:1014B00092E00E94B90C64EA76E082EC92E00E942D
:1014C000B90C64EA76E08FEB92E060960FB6F89480
:1014D000DEBF0FBECDBFDF91CF911F910F91FF9067
:1014E000EF90DF90CF90BF90AF909F908F907F90C4
:1014F0006F905F904F903F902F900C94B90CC12C3F
:10150000D12C60E2E62E61E4F62E45C9C12CD12C27
:10151000E12C30E4F32E8CC960910603709107032F
:10152000072E000C880B990B0E94661AAB01BC01B8
:1015300085E892E00E94BB0D85E892E00E94C50E0E
:101540000E942E1A70932903609328036091080368
:1015500070910903719561957109DECA412C512C76
:10156000320109CCC12CD12C760158CCC12CD12C04
:101570007601A9CCC12CD12C7601EECCC12CD12C7A
:10158000760137CDC12CD12C760162CD8501CD827B
:10159000D98274CE8501CD82D982A2CECD82D98264
:1015A0002701E6CE60960FB6F894DEBF0FBECDBF22
:1015B000DF91CF911F910F91FF90EF90DF90CF902F
:1015C000BF90AF909F908F907F906F905F904F9063
:1015D0003F902F900895CF92DF92EF92FF920F935A
:1015E0001F93E1EBF0E085919491EAE4F3E09183BD
:1015F00080838BE690E09383828381E084831582ED
:10160000168211861086E3EBF0E085919491E0E478
:10161000F3E0918380838CE690E09383828382E081
:1016200084831582168211861086E5EBF0E08591A1
:101630009491E6E3F3E0918380838DE690E09383D9
:10164000828384E08483158216821186108668E680
:101650008BEC92E00E94501488EC92E00E941F0CE8
:1016600085EC92E00E941F0C82EC92E00E941F0C1D
:101670008FEB92E00E941F0CC12CD12C760100E070
:1016800010E020E83FE3B901A80182EA92E00E945D
:10169000500D00E010E020E83FE3B901A80185E823
:1016A00092E00E94500D00E010E020E83FE3B90115
:1016B000A80188E692E00E94500D1F910F91FF90C3
:1016C000EF90DF90CF9008951F920F920FB60F9278
:1016D00011242F933F934F935F936F937F938F9337
:1016E0009F93AF93BF93EF93FF938091580387FF2E
:1016F00027C01092850010928400809158038F5F5C
:101700008093580380915803082E000C990B209168
:1017100057032817190629F024F0809158038C30BC
:10172000DCF18091840090918500049680349C497E
:1017300008F47BC08091840090918500049677C066
:1017400080915803082E000C990B209157032817FD
:10175000190699F294F2E09158038E2FEE0F990B2F
:10176000FC01EE0FFF1FE80FF91FE75AFC4F8081C5
:1017700086FFC3CFE09158038E2FEE0F990BFC012B
:10178000EE0FFF1FE80FF91FE75AFC4F808160E062
:101790008F730E941716B1CF20918400309185007D
:1017A000E09158038E2FEE0F990BFC01EE0FFF1FF7
:1017B000E80FF91FE75AFC4F81819281820F931F36
:1017C0009093890080938800E09158038E2FEE0F4C
:1017D000990BFC01EE0FFF1FE80FF91FE75AFC4FB2
:1017E000808186FF11C0E09158038E2FEE0F990B78
:1017F000FC01EE0FFF1FE80FF91FE75AFC4F808135
:1018000061E08F730E941716FF91EF91BF91AF9126
:101810009F918F917F916F915F914F913F912F9108
:101820000F900FBE0F901F90189580E49CE9909345
:101830008900809388008FEF80935803E5CFFC01E7
:10184000909157039C3098F481E0890F809357035F
:101850009083892F90E0FC01EE0FFF1FE80FF91F26
:10186000E75AFC4F88EB9BE09283818308958FEFCA
:1018700080830895DF92EF92FF920F931F93CF938F
:10188000DF93EC01D62E7A01890188818C3008F033
:1018900067C061E08D2D0E94DB158881282F30E024
:1018A000F901EE0FFF1FE20FF31FE75AFC4F9D2DCA
:1018B0009F736081607C692B608320E232E02E1987
:1018C0003F0937FF02C02D5F3F4F3595279535956E
:1018D0002795298320E639E0201B310B37FF02C012
:1018E0002D5F3F4F35952795359527952A832CE019
:1018F000622F0E94F31B829FB001112430E020E090
:10190000AB01420F531FFA01EE0FFF1FE40FF51F4B
:10191000E75AFC4F908196FD16C02F5F3F4F2C3049
:10192000310571F781110FC01092800082E0809321
:1019300081001092850010928400B19A80916F000E
:10194000826080936F00E8818E2F90E0FC01EE0FA3
:10195000FF1FE80FF91FE75AFC4F808180648083E6
:101960008881DF91CF911F910F91FF90EF90DF90D1
:101970000895DC01EC91EC3090F511968C91119763
:1019800028E830E0281B310987FD3395220F331FEB
:10199000220F331F6217730784F012968C9128E58B
:1019A00032E0281B310987FD3395220F331F220FA8
:1019B000331F621773070CF49B0122503109220F69
:1019C000331F4FB7F8948E2F90E0FC01EE0FFF1FEE
:1019D000E80FF91FE75AFC4F328321834FBF089568
:1019E000CF92DF92EF92FF92CF93DF93EC016A01E7
:1019F0007B012FE632E143E85AE3CB01B6010E94B6
:101A0000B71987FD11C020E030E04AE754E4C70170
:101A1000B6010E94161B18167CF4C12CD12C8AE743
:101A2000E82E84E4F82E08C09FE6C92E92E1D92E54
:101A300093E8E92E9AE3F92EC88AD98AEA8AFB8AC2
:101A4000DF91CF91FF90EF90DF90CF900895CF92EC
:101A5000DF92EF92FF92CF93DF93EC016A017B015B
:101A600020E030E0A901CB01B6010E94161B181638
:101A700024F0F7FAF094F7F8F0942BED3FE049ECFE
:101A800050E4C701B6010E941B1B6C8B7D8B8E8BB3
:101A90009F8BDF91CF91FF90EF90DF90CF900895D3
:101AA0008F929F92AF92BF92CF92DF92EF92FF926E
:101AB0000F931F93CF93DF93EC014A015B01B901B0
:101AC000A801C882D982EA82FB821C821D821E8202
:101AD0001F82188E0E94F00CB501A401CE010E9455
:101AE000270D0E944715698F7A8F8B8F9C8FDF910E
:101AF000CF911F910F91FF90EF90DF90CF90BF900B
:101B0000AF909F908F900895EF92FF920F931F9345
:101B1000CF93DF93EC01FB01CA01B901188EE88273
:101B2000F9820A831B833097D1F42AE037ED43EA28
:101B30005FE30E941B1BAB01BC01CE010E94270D7D
:101B40008DE790EDA3E1BFE3888B998BAA8BBB8BCC
:101B5000DF91CF911F910F91FF90EF9008953197F2
:101B6000B9F7A901BC01CE010E94270D81E894E0DC
:101B7000A5E3BFE3E9CF2F923F924F925F926F921E
:101B80007F928F929F92AF92BF92CF92DF92EF920D
:101B9000FF920F931F93CF93DF93CDB7DEB72A97B2
:101BA0000FB6F894DEBF0FBECDBF9A8789872A0192
:101BB0003B01DC011C964D925D926D927C921F97C9
:101BC0000E9447156B017C01E985FA85818D928D14
:101BD000A38DB48DA7019601281B390B4A0B5B0B13
:101BE000CA01B9010E94661A2DEB37E346E855E3B6
:101BF0000E941B1B4B015C01A985BA855996CD92A9
:101C0000DD92ED92FC925C975496CD90DD90ED9034
:101C1000FC90579720E030E0A9010E94B71987FD9A
:101C2000AFC0A701960160E070E080E89FE30E94EA
:101C3000BC19162F072F382E292E262F372F482F65
:101C4000592FB401C5010E94161B181624F0182D37
:101C5000092D3A2C2B2CA7019601C701B6010E9431
:101C60001B1B6D837E838F839887E985FA8584802B
:101C70009580A680B780208131814281538129835C
:101C80003A834B835C839B01AC01C301B2010E9488
:101C90001B1B2B013C01E985FA852089318942898A
:101CA0005389C701B6010E94BC19A50194010E9485
:101CB0001B1B9B01AC01C301B2010E944A196B01BD
:101CC0007C012D813E814F81588569817A818B818C
:101CD0009C810E941B1B9B01AC01C701B6010E94A5
:101CE0004A19212F302F432D522D0E941B1BA50175
:101CF00094010E944B196B017C01AC019B01C50151
:101D0000B4010E944B1920E030E040E05FE30E9404
:101D10001B1BA985BA8518966D937D938D939C9313
:101D20001B97212F302F432D522D0E941B1B2981E1
:101D30003A814B815C810E944B19E985FA85608369
:101D4000718382839383C482D582E682F7822A9646
:101D50000FB6F894DEBF0FBECDBFDF91CF911F91BC
:101D60000F91FF90EF90DF90CF90BF90AF909F903A
:101D70008F907F906F905F904F903F902F9008953D
:101D800010E000E0312C212C66CFFC0160817181D4
:101D9000828193810895CF93DF93A0EBB0E02C91E3
:101DA000EC012887E1EBF0E0208129878081887FA2
:101DB00082608083C0E7D0E08881816088838C91D5
:101DC0008C7F8C938081877F8083DF91CF91089572
:101DD000FC013FB7F8942091B200B89B0EC020914F
:101DE000B20080819181A281B3810196A11DB11DB4
:101DF00080839183A283B383B89A80819181A281E9
:101E0000B381BA2FA92F982F8827820F911DA11D6A
:101E1000B11D84839583A683B7833FBF6481758199
:101E2000868197810895FC0140815181628173818F
:101E30004F5F5F4F6F4F7F4F408351836283738348
:101E400008951F920F920FB60F9211242F933F9374
:101E50004F935F936F937F938F939F93AF93BF93B2
:101E6000EF93FF938DE793E00E94130FFF91EF91A3
:101E7000BF91AF919F918F917F916F915F914F91A2
:101E80003F912F910F900FBE0F901F901895EDE787
:101E9000F3E010821182128213821482158216825C
:101EA00017820895FF920F931F93CF93DF93C62F4E
:101EB000042FF22E132F682F87E893E00E948B11D6
:101EC0006C2F87E893E00E941911CF2DD12F0C0FB2
:101ED0001D2F111DC017D10731F0699187E893E0DC
:101EE0000E941911F7CF87E893E00E940E1291E04B
:101EF000811190E0892FDF91CF911F910F91FF9079
:101F00000895CF93DF931F92CDB7DEB749839E012B
:101F10002F5F3F4F41E00E94520F0F90DF91CF9112
:101F200008953F924F925F926F927F928F929F920D
:101F3000AF92BF92CF92DF92EF92FF920F931F93D7
:101F4000CF93DF9300D000D0CDB7DEB78C83D62EF1
:101F50004B833A8329830E943B154B015C01312C52
:101F6000C12C2B81E22EF12C2801712C612C8B814C
:101F7000381608F049C06C8187E893E00E948B1105
:101F80006D2D87E893E00E94191187E893E00E9485
:101F90000E126C8187E893E00E948B11A701431910
:101FA00051094132510514F040E250E06C8187E85C
:101FB00093E00E940B1287E893E00E94B910892BEE
:101FC000D9F00115110569F487E893E00E94C0106B
:101FD000E981FA81EC0DF11DC7FCFA958083C39469
:101FE000EACF0E943B15681979098A099B09641593
:101FF00075058605970540F38E2D91E2E916F104EB
:102000000CF080E2380EB3CF01151105C1F00E942B
:102010003B15681979098A099B0930E020E06017AF
:1020200071078207930758F08C2D0C2C000C990B2C
:102030002B812817190619F014F0CC24CA948C2D82
:102040000F900F900F900F90DF91CF911F910F91F4
:10205000FF90EF90DF90CF90BF90AF909F908F90C8
:102060007F906F905F904F903F9008950F931F93D4
:1020700089019A0141E00E94910F1F910F910895EB
:10208000EF92FF920F931F93CF93DF931F92CDB7E1
:10209000DEB7182F062FE42EF22E20910E0130917C
:1020A0000F01AE014F5F5F4F0E94361081E090E05C
:1020B00001C0880FEA94EAF74981FF2071F0482BAC
:1020C0004983602F812F0E94810F0F90DF91CF9164
:1020D0001F910F91FF90EF90089580954823F0CFC6
:1020E000DF92EF92FF920F931F93CF93DF931F9294
:1020F000CDB7DEB7F82EE62E142FD22E20910E018A
:1021000030910F01AE014F5F5F4F0E943610882360
:1021100059F1812F8D19990BAC014F5F5F4F81E011
:1021200090E002C0880F991FDA94E2F70197042E1D
:1021300001C0880F0A94EAF701C0000F4A95EAF738
:10214000482F4095998149238023482B49836E2D40
:102150008F2D0E94810F0F90DF91CF911F910F91D2
:10216000FF90EF90DF90089580E0F5CF90E080E061
:1021700008958091BB039091BC03891B990B08952E
:102180009091BC038091BB032FEF3FEF981748F469
:10219000E92FF0E0E354FC4F208130E09F5F909303
:1021A000BC03C9010895E091BC038091BB03E8170B
:1021B00030F4F0E0E354FC4F808190E008958FEF1D
:1021C0009FEF08950895CF93DF93EC01E09193037F
:1021D000F09194033097F1F09091BC038091BB0390
:1021E0009817C0F090E0292F30E02617370754F4F5
:1021F000DE01A20FB31F4C9123543C4FD9014C93E5
:102200009F5FF1CF1092BC036093BB03CB01DF91C2
:10221000CF910994DF91CF910895E0919503F091CA
:102220009603309729F0109299031092980309941D
:102230000895CF93DF931F92CDB7DEB769832091C6
:1022400097032223F9F020919803203258F021E0DF
:1022500030E0FC013383228390E080E00F90DF9137
:10226000CF91089580919903E82FF0E0E656FC4F56
:10227000998190838F5F809399038093980381E085
:1022800090E0ECCF61E0CE0101960E94E312F7CF1F
:10229000CF92DF92EF92FF920F931F93CF93DF9332
:1022A0007C01CB018A0120919703222389F0EB0165
:1022B0006B01C40ED51ECC15DD0569F06991D701FF
:1022C000ED91FC910190F081E02DC7010995F3CFCC
:1022D000642F0E94E312C801DF91CF911F910F91EB
:1022E000FF90EF90DF90CF9008951092BC03109272
:1022F000BB0310929903109298030E9422128DE062
:1023000091E10E940F1383EE90E10C940A13CB012C
:10231000BA010C94401281E0809397036093BA0352
:10232000109299031092980308950F93062F21E0BD
:10233000409198036AE973E08091BA030E94931276
:102340001092990310929803109297030F91089599
:102350004F925F926F927F92AF92BF92CF92EF9225
:10236000FF920F931F93CF93DF935C01F62ED42F30
:1023700028013901EE2019F10E948B11CE2DC430B5
:1023800008F0C3E0C150B8F028E0C29FC00111249A
:10239000A301920104C056954795379527958A95D4
:1023A000D2F7B901D501ED91FC910190F081E02DBA
:1023B000C5010995E7CF60E0C5010E9495114D2F39
:1023C000D13208F040E22C2D6DEB73E08F2D0E948E
:1023D00053121092BC038093BB03DF91CF911F91E6
:1023E0000F91FF90EF90CF90BF90AF907F906F9044
:1023F0005F904F900895CF92EF920F931F93C22E4C
:10240000E12C00E010E098010E94A8111F910F91AB
:10241000EF90CF90089521E00C94FB1161E00C94B3
:102420009511E7E8F3E01382128288EE93E0A0E0D2
:10243000B0E084839583A683B78384E492E091839C
:102440008083089510922C0481E080932A041092D6
:10245000290461E082E10E94171661E083E10E9495
:102460001716E9EBF0E080818E7F808380818D7F7D
:10247000808388E48093B80085E48093BC0008954D
:102480009B01AC0160E074E284EF90E00E94FF1BCE
:10249000205131094109510956954795379527959E
:1024A0002093B80008954132E0F590912C049111E9
:1024B000FCCF91E090932C0420932A042FEF2093DB
:1024C000DD03709324046093230410922204240FEC
:1024D0002093210490932B0490912B04880F892B37
:1024E00080932B04809129048130C9F4109229042F
:1024F00080912B048093BB008091BC0083FDF8CFBA
:1025000085EC8093BC0080912C048130E1F38091B4
:102510002204841710F440912204842F089585EE3C
:10252000F0CF40E0FACF0F93413208F044C09091D1
:102530002C049111FCCF92E090932C0400932A0478
:102540009FEF9093DD037093240460932304109213
:1025500022044093210410922B0490912B04880FA5
:10256000892B80932B0480912904813011F51092DE
:10257000290480912B048093BB008091BC0083FDD3
:10258000F8CF85EC8093BC00222321F080912C04AD
:102590008230D1F38091DD038F3F79F08091DD03AC
:1025A000803269F08091DD03803359F084E00F912F
:1025B000089585EEE7CF81E0FACF80E0F8CF82E0A2
:1025C000F6CF83E0F4CF2091FF03260F3327331F8C
:1025D00021323105ECF420912C04FC0190E080E0E4
:1025E000243069F082E00895A091FF032191AC01AD
:1025F0004F5F5B4FA40FB52FB11D2C93019686172B
:1026000098F38091FF03680F6093FF0380E00895C3
:1026100081E0089590932604809325040895909373
:10262000280480932704089585ED8093BC00809151
:10263000BC0084FDFCCF10922C04089585EC80939F
:10264000BC0010922C0408951F920F920FB60F92A7
:1026500011242F933F934F935F936F937F938F93A7
:102660009F93AF93BF93EF93FF938091B900887FBF
:10267000803609F44CC008F03FC0883209F4A8C085
:1026800018F5803109F49CC0B8F4882309F405C119
:10269000883009F495C0FF91EF91BF91AF919F9160
:1026A0008F917F916F915F914F913F912F910F90FB
:1026B0000FBE0F901F901895883109F489C08032A1
:1026C00051F78093DD0315C0803409F4A6C048F4A7
:1026D0008033B9F38833F9F68093DD030E941E132B
:1026E000DACF803509F489C0883509F49EC0883472
:1026F00091F60E941413CFCF883909F494C038F5AD
:10270000883729F050F4883611F0803721F683E0BD
:1027100080932C041092DE0357C0883809F483C0DC
:10272000803919F0803809F0B6CF8091DE0380320D
:1027300008F079C0E091DE0381E08E0F8093DE0324
:102740008091BB00F0E0E152FC4F80833DC0803BB4
:1027500039F0E0F4803A09F485C0883A09F09BCF5B
:1027600084E080932C04109200041092FF03E09107
:102770002704F091280409958091FF0381110FC06F
:1027800081E08093FF031092010409C0803C09F4AA
:1027900082C0883C09F47FC0883B09F07CCFE0917F
:1027A000000481E08E0F80930004F0E0EF5FFB4FA8
:1027B00080818093BB00909100048091FF0331C021
:1027C00080912B048093BB0085EC8093BC0063CF89
:1027D00090912204809121049817B8F580912304E8
:1027E00090912404E091220421E02E0F20932204F2
:1027F000E80FF92FF11D8081E5CF2091230430915E
:102800002404E091220481E08E0F809322048091C1
:10281000BB00E20FF32FF11D808390912204809181
:102820002104981788F285E8D0CF209123043091B5
:102830002404E091220481E08E0F80932204809191
:10284000BB00E20FF32FF11D808380912A048111D8
:1028500050CF81E08093290484EA8093BC001092D9
:102860002C0419CF0E941E138091DE03803230F4B5
:10287000E091DE03F0E0E152FC4F10826091DE0354
:1028800070E0E0912504F09126048FED93E0099526
:102890001092DE0300CF85ECE0CF1092DD0329CF4C
:1028A000FC01608308950F93062F22E044E06BE162
:1028B000FC0180810E9470100F9108950F93062FE4
:1028C00022E044E06CE1FC0180810E9470100F91D5
:1028D00008954F925F926F927F928F929F92AF92E4
:1028E000BF92CF92DF92EF92FF920F931F93CF93FD
:1028F000DF93EC013B014A015901280100910E01CF
:1029000010910F019C012F5F3F4F4EE06BE38881D8
:102910000E94910F89819A81982789279827F3012E
:10292000918380838B819C81982789279827F40144
:10293000918380838D819E81982789279827F5012F
:102940009183808389859A85982789279827F20122
:10295000918380838B859C85982789279827F70109
:10296000918380838D859E85982789279827F601F6
:1029700091838083DF91CF911F910F91FF90EF9012
:10298000DF90CF90BF90AF909F908F907F906F908F
:102990005F904F900895262F46E06BE6FC01808102
:1029A0000C9440100F93062F23E042E06BE6FC01ED
:1029B00080810E9470100F910895CF93DF93EC01F6
:1029C00061E00E94D21460E0CE010E94531460E0E6
:1029D000CE010E945E1460E0CE01DF91CF910C9495
:1029E000CB141F920F920FB60F9211242F933F9387
:1029F0008F939F93AF93BF93809132049091330450
:102A0000A0913404B09135043091310423E0230FB8
:102A10002D3768F126E8230F0296A11DB11D2093E2
:102A200031048093320490933304A0933404B09320
:102A3000350480912D0490912E04A0912F04B09123
:102A400030040196A11DB11D80932D0490932E0496
:102A5000A0932F04B0933004BF91AF919F918F91B9
:102A60003F912F910F900FBE0F901F9018950196D8
:102A7000A11DB11DD4CF2FB7F8946091320470918D
:102A8000330480913404909135042FBF08953FB7EB
:102A9000F89480912D0490912E04A0912F04B09170
:102AA000300426B5A89B05C02F3F19F00196A11D43
:102AB000B11D3FBFBA2FA92F982F8827BC01CD0188
:102AC000620F711D811D911D42E0660F771F881FE7
:102AD000991F4A95D1F70895789484B5836084BD91
:102AE00085B5836085BDEEE6F0E0808181608083FE
:102AF000E1E8F0E082E08083808181608083E0E82B
:102B0000F0E0808181608083E1EBF0E0808184608F
:102B10008083E0EBF0E080818160808387E88093B0
:102B20007A001092C1000895883020F08D3008F4AA
:102B30008DE08E502091100190E4299F9001112486
:102B40008770822B80937C0080917A0080648093D0
:102B50007A0080917A0086FDFCCF80917800909178
:102B600079000895843081F028F48230E9F08330D0
:102B7000F9F00895883071F0893091F08530B9F41A
:102B8000809180008F7D03C0809180008F7780933B
:102B9000800008958091B0008F778093B0000895F1
:102BA0008091B0008F7DF9CF84B58F7784BD089573
:102BB00084B58F7DFBCFCF93DF9390E0FC01E1588C
:102BC000FF4F24918A569F4FFC0184918823C9F0BE
:102BD00090E0880F991FFC01EF53FF4FA591B4912E
:102BE000FC01E954FF4FC591D49161110DC09FB70D
:102BF000F8948C91209582238C93888128232883B4
:102C00009FBFDF91CF910895623051F49FB7F89440
:102C10003C91822F809583238C93E8812E2BEFCFDC
:102C20008FB7F894EC912E2B2C938FBFEACF1F9384
:102C3000CF93DF93282F30E0F901E859FF4F8491BB
:102C4000F901E158FF4FD491F901EA56FF4FC491C1
:102C5000CC23A9F0162F81110E94B215EC2FF0E0C1
:102C6000EE0FFF1FE954FF4FA591B4918FB7F89471
:102C7000EC91111108C0D095DE23DC938FBFDF915A
:102C8000CF911F910895DE2BF8CFCF93DF93282F9C
:102C900030E0F901E859FF4F8491F901E158FF4F05
:102CA000D491F901EA56FF4FC491CC23A1F08111D0
:102CB0000E94B215EC2FF0E0EE0FFF1FE355FF4F1F
:102CC000A591B491EC91ED2381E090E009F480E0CE
:102CD000DF91CF91089580E090E0FACFFC01918DD3
:102CE000228D892F90E0805C9F4F821B91098F730A
:102CF00099270895FC01918D828D981731F0828D6E
:102D0000E80FF11D858D90E008958FEF9FEF0895F6
:102D1000FC01918D828D981761F0A28DAE0FBF2FAF
:102D2000B11D5D968C91928D9F5F9F73928F90E005
:102D300008958FEF9FEF0895FC01538D448D252F4B
:102D400030E0842F90E0821B930B541710F0CF9645
:102D500008950197089588EF97E1892B49F080E065
:102D600090E0892B29F00E94F81781110C94000043
:102D70000895FC01A48DA80FB92FB11DA35ABF4F10
:102D80002C91848D90E001968F739927848FA6896A
:102D9000B7892C93A089B1898C91837080648C93BE
:102DA000938D848D981306C00288F389E02D80816D
:102DB0008F7D80830895CF93DF93EC01888D8823E6
:102DC000B9F0AA89BB89E889F9898C9185FD03C08E
:102DD000808186FD0DC00FB607FCF7CF8C9185FF73
:102DE000F2CF808185FFEDCFCE010E94B916E9CFE9
:102DF000DF91CF910895EF92FF920F931F93CF939E
:102E0000DF93EC0181E0888F9B8D8C8D98131AC025
:102E1000E889F989808185FF15C09FB7F894EE890C
:102E2000FF896083E889F989808183708064808369
:102E30009FBF81E090E0DF91CF911F910F91FF90B4
:102E4000EF900895F62E0B8D10E00F5F1F4F0F735C
:102E50001127E02E8C8D8E110CC00FB607FCFACF17
:102E6000E889F989808185FFF5CFCE010E94B916E6
:102E7000F1CFEB8DEC0FFD2FF11DE35AFF4FF082E8
:102E80009FB7F8940B8FEA89FB8980818062CFCF4E
:102E9000CF92DF92EF92FF921F93CF93DF93EC01DB
:102EA0006A017B01122FE889F98982E08083C114CD
:102EB00081EED806E104F104A1F060E079E08DE351
:102EC00090E0A70196010E94FF1B215031094109A2
:102ED00051095695479537952795211580E1380773
:102EE00098F0E889F989108260E874E88EE190E052
:102EF000A70196010E94FF1B215031094109510988
:102F00005695479537952795EC85FD853083EE8559
:102F1000FF852083188EEC89FD891083EA89FB895F
:102F2000808188698083EA89FB8980818F7D8083A5
:102F3000DF91CF911F91FF90EF90DF90CF90089598
:102F40001F920F920FB60F9211242F938F939F937E
:102F5000EF93FF93E0914604F09147048081E09164
:102F60004C04F0914D0482FD1BC0908180914F0470
:102F70008F5F8F7320915004821741F0E0914F04CE
:102F8000F0E0EA5CFB4F958F80934F04FF91EF9147
:102F90009F918F912F910F900FBE0F901F901895BA
:102FA0008081F4CF1F920F920FB60F9211242F93AE
:102FB0003F934F935F936F937F938F939F93AF93C1
:102FC000BF93EF93FF9386E394E00E94B916FF91BD
:102FD000EF91BF91AF919F918F917F916F915F9191
:102FE0004F913F912F910F900FBE0F901F9018950A
:102FF00086E394E00E946E1621E0892B09F420E01C
:10300000822F0895E6E3F4E01382128288EE93E0C3
:10301000A0E0B0E084839583A683B78386E592E041
:103020009183808385EC90E09587848784EC90E0A1
:103030009787868780EC90E0918B808B81EC90E085
:10304000938B828B82EC90E0958B848B86EC90E066
:10305000978B868B118E128E138E148E0895AF92DD
:10306000BF92CF92DF92EF92FF920F931F93CF9375
:10307000DF936C017B018B01040F151FEB015E01D7
:10308000AE18BF08C017D10759F06991D601ED916C
:10309000FC910190F081E02DC6010995892B79F70B
:1030A000C501DF91CF911F910F91FF90EF90DF90BD
:1030B000CF90BF90AF900895FB0101900020E9F7F9
:1030C0003197AF01461B570BDC01ED91FC9102805B
:1030D000F381E02D09946115710511F00C945C18D1
:1030E00090E080E0089564E672E00C945C180F9321
:1030F0001F93CF93DF938C01D0E0C0E06115710581
:1031000019F00E945C18EC01C8010E9473188C0F22
:103110009D1FDF91CF911F910F9108958F929F92E4
:10312000AF92BF92EF92FF920F931F93CF93DF93D3
:10313000CDB7DEB7A1970FB6F894DEBF0FBECDBFF7
:103140007C01FA01CB0119A2223008F42AE08E0199
:103150000F5D1F4F822E912CB12CA12CBF01A50118
:1031600094010E94FF1BF901CA016A300CF5605DF1
:10317000D8016E938D01232B242B252B79F790E01A
:1031800080E0109721F0BD01C7010E945C18A19654
:103190000FB6F894DEBF0FBECDBFDF91CF911F9168
:1031A0000F91FF90EF90BF90AF909F908F900895F8
:1031B000695CDECF2115310541F4DC01ED91FC9114
:1031C0000190F081E02D642F09940C948E180F93D8
:1031D0001F93CF93DF93EC010E94DA188C01CE018C
:1031E0000E947318800F911FDF91CF911F910F9153
:1031F00008954F925F926F927F92AF92BF92CF925B
:10320000DF92EF92FF920F931F93CF93DF93CDB78F
:10321000DEB729013A019B01AC01241935094609A1
:10322000570989899A89AB89BC89BC01CD016A1982
:103230007B098C099D090E94E31BA80197012419B1
:103240003509460957090E94211CCA01B9016A0DB6
:103250007B1D8C1D9D1DDF91CF911F910F91FF90C4
:10326000EF90DF90CF90BF90AF907F906F905F9086
:103270004F90089508950E946C150E943A190E947B
:103280006D01CBEAD6E10E946C032097E1F30E9426
:10329000AB16F9CF5058BB27AA270E9462190C948D
:1032A000DC1A0E94CE1A38F00E94D51A20F039F4A8
:1032B0009F3F19F426F40C94CB1A0EF4E095E7FB2B
:1032C0000C94C51AE92F0E94ED1A58F3BA17620739
:1032D00073078407950720F079F4A6F50C940F1B6B
:1032E0000EF4E0950B2EBA2FA02D0B01B901900121
:1032F0000C01CA01A0011124FF27591B99F0593F65
:1033000050F4503E68F11A16F040A22F232F342FAC
:103310004427585FF3CF469537952795A795F040FA
:103320005395C9F77EF41F16BA0B620B730B840B0F
:10333000BAF09150A1F0FF0FBB1F661F771F881FC7
:10334000C2F70EC0BA0F621F731F841F48F487951F
:1033500077956795B795F7959E3F08F0B0CF939511
:10336000880F08F09927EE0F9795879508950E948A
:10337000A11A08F481E008950E94D0190C94DC1A77
:103380000E94D51A58F00E94CE1A40F029F45F3FEF
:1033900029F00C94C51A51110C94101B0C94CB1AE3
:1033A0000E94ED1A68F39923B1F3552391F3951B0D
:1033B000550BBB27AA2762177307840738F09F5F56
:1033C0005F4F220F331F441FAA1FA9F335D00E2EC3
:1033D0003AF0E0E832D091505040E695001CCAF730
:1033E0002BD0FE2F29D0660F771F881FBB1F2617F3
:1033F00037074807AB07B0E809F0BB0B802DBF01CA
:10340000FF2793585F4F3AF09E3F510578F00C9498
:10341000C51A0C94101B5F3FE4F3983ED4F38695D5
:1034200077956795B795F7959F5FC9F7880F911DB9
:103430009695879597F90895E1E0660F771F881FA5
:10344000BB1F621773078407BA0720F0621B730B58
:10345000840BBA0BEE1F88F7E09508950E94351A89
:103460006894B1110C94101B08950E94F51A88F00D
:103470009F5798F0B92F9927B751B0F0E1F0660F38
:10348000771F881F991F1AF0BA95C9F714C0B13079
:1034900091F00E940F1BB1E008950C940F1B672F51
:1034A000782F8827B85F39F0B93FCCF386957795A8
:1034B0006795B395D9F73EF4909580957095619591
:1034C0007F4F8F4F9F4F0895E89409C097FB3EF4BC
:1034D00090958095709561957F4F8F4F9F4F992361
:1034E000A9F0F92F96E9BB279395F69587957795DF
:1034F0006795B795F111F8CFFAF4BB0F11F460FF9F
:103500001BC06F5F7F4F8F4F9F4F16C0882311F0F6
:1035100096E911C0772321F09EE8872F762F05C00A
:10352000662371F096E8862F70E060E02AF09A95A5
:10353000660F771F881FDAF7880F9695879597F99A
:103540000895990F0008550FAA0BE0E8FEEF161634
:103550001706E807F907C0F012161306E407F50787
:1035600098F0621B730B840B950B39F40A2661F0FB
:10357000232B242B252B21F408950A2609F4A1409E
:10358000A6958FEF811D811D089597F99F6780E8AB
:1035900070E060E008959FEF80EC089500240A94A5
:1035A0001616170618060906089500240A9412161E
:1035B0001306140605060895092E0394000C11F451
:1035C000882352F0BB0F40F4BF2B11F460FF04C0FE
:1035D0006F5F7F4F8F4F9F4F089557FD9058440F57
:1035E000551F59F05F3F71F04795880F97FB991F62
:1035F00061F09F3F79F0879508951216130614061F
:10360000551FF2CF4695F1DF08C0161617061806AB
:10361000991FF1CF86957105610508940895E89486
:10362000BB2766277727CB0197F908950E94A11A37
:1036300008F48FEF08950E942E1B0C94DC1A0E9450
:10364000CE1A38F00E94D51A20F0952311F00C9470
:10365000C51A0C94CB1A11240C94101B0E94ED1A5D
:1036600070F3959FC1F3950F50E0551F629FF001D5
:10367000729FBB27F00DB11D639FAA27F00DB11DEE
:10368000AA1F649F6627B00DA11D661F829F222777
:10369000B00DA11D621F739FB00DA11D621F839FFE
:1036A000A00D611D221F749F3327A00D611D231FD4
:1036B000849F600D211D822F762F6A2F11249F5722
:1036C00050409AF0F1F088234AF0EE0FFF1FBB1F25
:1036D000661F771F881F91505040A9F79E3F5105E4
:1036E00080F00C94C51A0C94101B5F3FE4F3983ED5
:1036F000D4F3869577956795B795F795E7959F5F8E
:10370000C1F7FE2B880F911D9695879597F908951F
:1037100019F416F40C94CB1A0C94CE1B0E94F51AD3
:10372000B8F39923C9F3B6F39F57550B87FF0E944F
:10373000DC1B0024A0E640EA90018058569597953E
:1037400028F4805C660F771F881F20F02617370744
:10375000480730F4621B730B840B202931294A2B54
:10376000A69517940794202531254A2758F7660F08
:10377000771F881F20F026173707480730F4620BA1
:10378000730B840B200D311D411DA09581F7B901EC
:10379000842F9158880F9695879508959F3F31F013
:1037A000915020F4879577956795B795880F911D6F
:1037B0009695879597F9089591505040660F771F19
:1037C000881FD2F70895DB018F939F930E94401CBE
:1037D000BF91AF91A29F800D911DA39F900DB29FAD
:1037E000900D11240895991B79E004C0991F961734
:1037F00008F0961B881F7A95C9F780950895A1E275
:103800001A2EAA1BBB1BFD010DC0AA1FBB1FEE1F5A
:10381000FF1FA217B307E407F50720F0A21BB30BA5
:10382000E40BF50B661F771F881F991F1A9469F721
:1038300060957095809590959B01AC01BD01CF017D
:103840000895052E97FB1EF400940E94381C57FD26
:1038500007D00E94FF1B07FC03D04EF40C94381CC9
:1038600050954095309521953F4F4F4F5F4F0895AC
:1038700090958095709561957F4F8F4F9F4F0895DC
:103880000E94511CA59F900DB49F900DA49F800D88
:10389000911D11240895EE0FFF1F0590F491E02D66
:1038A0000994A29FB001B39FC001A39F700D811D19
:1038B0001124911DB29F700D811D1124911D089539
:1038C000F999FECF92BD81BDF89A992780B50895E8
:1038D000262FF999FECF1FBA92BD81BD20BD0FB62C
:1038E000F894FA9AF99A0FBE01960895F894FFCFCA
:1038F00040420F00CDCC4C3E000000403200E803B7
:103900000153555045525343414C453230323020DB
:10391000435241574C4552204649524D574152451A
:1039200020312E323620202020202000536572695D
:10393000616C206F7574707574206973202020206D
:10394000200064697361626C65640048656967683A
:103950007420636F6E74726F6C2069732020202056
:103960002020200046726F6E7420736572766F732C
:10397000207265766572736520697320202020208F
:103980002020005265617220736572766F73207219
:1039900065766572736520697320202020200053AE
:1039A000797374656D2069732073657420746F205A
:1039B000626520706C61636564207769746820615A
:1039C00072726F7720706F696E74696E6720202045
:1039D000202000746F207468652072696768740025
:1039E000666F7277617264005072657373207468D9
:1039F00065205320627574746F6E20746F20746537
:103A000073742074686520736572766F7320616EBD
:103A100064206272616B65206C69676874206F75E1
:103A20007470757400534554555020444F4E4500F2
:103A30000000000019114811B610E210B910C010B2
:103A4000D31000000000FB162F189C16DB166E1614
:083A500088167A160D0A000029
:00000001FF
