:100000000C94B8050C94EF260C9416270C948D09CB
:100010000C94BA090C94E7090C94E0050C94E005E3
:100020000C94E0050C94E0050C94E0050C94681524
:100030000C94E0050C94E0050C94E0050C94E005AC
:100040000C943D270C94E0050C94CD290C94FF29C9
:100050000C94E0050C94E0050C94E0050C94E0058C
:100060000C94C7230C94E005084AD73B3BCE016EA5
:1000700084BCBFFDC12F3D6C74319ABD56833DDAFF
:100080003D00C77F11BED9E4BB4C3E916BAAAABE0E
:10009000000000803F0000407A10F35A00A0724E2A
:1000A00018090010A5D4E80000E87648170000E41D
:1000B0000B54020000CA9A3B000000E1F505000065
:1000C00080969800000040420F000000A0860100CA
:1000D0000000102700000000E8030000000064009A
:1000E000000000000A000000000001000000000005
:1000F0002C76D888DC674F0823DFC1DFAE59E1B129
:10010000B796E5E3E453C63AE651997696E8E6C237
:100110008426EB898C9B62ED407C6FFCEFBC9C9F3E
:1001200040F2BAA56FA5F490055A2AF75C936B6C60
:10013000F9676DC11BFCE0E40D47FEF520E6B50054
:10014000D0ED902E0300943577050080841E0800C2
:1001500000204E0A000000C80C333333330F986E72
:1001600012831141EF8D2114893BE65516CFFEE62F
:10017000DB18D1844B381BF77C1D901DA4BBE424F5
:10018000203284725E228100C9F124ECA1E53D2772
:100190004649464F206F766572666C6F772100295D
:1001A00000444D5020496E697469616C697A6174CC
:1001B000696F6E206661696C65642028636F646591
:1001C0002000444D50207265616479212057616997
:1001D00074696E6720666F72206669727374206935
:1001E0006E746572727570742E2E2E00292E2E2E4E
:1001F00000456E61626C696E6720696E746572722B
:1002000075707420646574656374696F6E2028412D
:10021000726475696E6F2065787465726E616C20AA
:10022000696E746572727570742000456E61626CDF
:10023000696E6720444D502E2E2E00496E697469F8
:10024000616C697A696E6720444D502E2E2E004DE8
:1002500050553630353020636F6E6E656374696F4C
:100260006E206661696C6564004D505536303530DE
:1002700020636F6E6E656374696F6E207375636360
:1002800065737366756C0054657374696E6720647A
:10029000657669636520636F6E6E656374696F6E02
:1002A000732E2E2E00526573657474696E67206D0F
:1002B000656D6F72792062616E6B2073656C65632A
:1002C00074696F6E20746F20302E2E2E005265766A
:1002D0006973696F6E204020757365725B31365D9E
:1002E0005B365D203D2000436865636B696E672067
:1002F0006861726477617265207265766973696F8F
:100300006E2E2E2E00FB00003E000B00360001007A
:10031000020003000000650054FFEF0000FA8000B7
:100320000B1282000100020000000000000000002B
:10033000000000000000280000FFFF4581FFFFFAD9
:100340007200000000000003E80000000100017FCF
:10035000FFFFFE8001001B00000000000000000005
:100360000000000000004000004000000002CB47F9
:10037000A22000000020000000000000004000005B
:10038000006000000041FF000000000B2A00001682
:100390005500002182FD872650FD800000001F00CF
:1003A00000000580000000000000010000000200C5
:1003B0000000030000400000000000046F00026520
:1003C0003200005EC040000000000000000000009D
:1003D0000000000000FB8C6F5DFD5D08D9007C73A0
:1003E0003B006C12CC3200139D3200D0D632000894
:1003F00000400001F4FFE68079020000000000D018
:10040000D600002710FB00000040000000000000A4
:1004100000000000000000000100000000000001DA
:1004200000010000000000FA36FFBC308E0005FB22
:10043000F0FFD95BC8FFD09ABE000010A9FFF41EE0
:10044000B200CEBBF7000000010000000400020073
:10045000020200000CFFC280000001800000CF807B
:100460000040000000000000000000000000000646
:100470000000000014000000000000000000000068
:10048000000000000000000000000000000000006C
:1004900000000000000923A135000000000000005A
:1004A000000000000000000000033F68B679352816
:1004B000BCC67ED16C8000FFFF400000000000B28F
:1004C0006A00000000000000000000000000003F83
:1004D000F0000000300000000000000000000000FC
:1004E000000000000000000000000000000000000C
:1004F00000000040000000254D002F706D00000539
:10050000AE000C02D00000000000650054FFEF00B8
:100510000000000000000001000044000100058B05
:10052000C100000100000000000065000000540050
:1005300000FFEF00000000000000000000000000CD
:1005400000000000000000000000000000000000AB
:10055000000000000000000000000000000000009B
:100560000000000000000000010000000200000088
:10057000000000000000000000000000000000007B
:10058000000000000000000000000000000000006B
:100590000000000000001B00000000000000000040
:1005A000000000000000000000000000000000004B
:1005B000000000000000000000000000000000003B
:1005C0000000000000001B00000000000000000010
:1005D000000000000000000000000000000000001B
:1005E000000000000000000000000000000000000B
:1005F00000000000000000000000000000000000FB
:100600000000000000D8DCBAA2F1DEB2B8B4A881C4
:1006100091F74A907F916AF3F9DBA8F9B0BAA0800C
:10062000F2CE81F3C2F1C1F2C3F3CCA2B280F1C623
:10063000D880BAA7DFDFDFF2A7C3CBC5B6F087A2A9
:10064000942448703C95406834589B78A2F183927A
:100650002D557DD8B1B4B8A1D09180F270F370F26D
:100660007C80A8F101B09887D943D886C988BAA1FF
:10067000F20EB89780F1A9DFDFDFAADFDFDFF2AA91
:100680004CCD6CA90CC92C97979797F1A989264650
:1006900066B0B4BA80ACDEF2CAF1B28C02A9B698E8
:1006A00000890E161EB8A9B4992C547CB08AA8965D
:1006B000365676F1B9AFB4B083C0B8A89711B18FF0
:1006C00098B9AFF0240844106418F1A329557DAF00
:1006D00083B593AFF0002850F1A3869F61A6DADEC0
:1006E000DFD9FAA38696DB31A6D9F8DFBAA68FC286
:1006F000C5C7B28CC1B8A2DFDFDFA3DFDFDFD8D888
:10070000F1B8A8B286B4980D355DB8AA98B0872D17
:10071000353DB2B6BAAF8C96198F9FA70E161EB490
:100720009AB8AA872C547CB9A3DEDFDFA3B180F28C
:10073000C4CDC9F1B8A9B499830D355D89B9A32D8C
:10074000557DB593A30E161EA92C547CB8B4B0F1F8
:100750009783A81184A50998A383F0DA240844108C
:100760006418D8F1A529557DA58595021A2E3A560B
:100770005A4048F9F3A3D9F8F09883240844106448
:10078000189782A8F111F098A2240844106418DA8E
:10079000F3DED883A59401D9A302F1A2C3C5C7D8BB
:1007A000F18492A24DDA2AD84869D92AD86855DA54
:1007B00032D85071D932D8705DDA3AD85879D93AEE
:1007C000D87893A34DDA2AD84869D92AD86855DA57
:1007D00032D85071D932D8705DDA3AD85879D93ACE
:1007E000D878A88A9AF02850789EF38818F19F1D2F
:1007F00098A8D908D8C89F129EF315A8DA1210D865
:10080000F1AFC8978734B5B994A421F3D922D8F2AF
:100810002DF3D92AD8F235F3D932D881A46060619A
:10082000D961D86C6869D969D8747071D971D8B137
:10083000A384193D5DA3831A3E5E9310308110118D
:10084000B8B0AF8F94F2DA3ED8B49AA88729DAF814
:10085000D8879A35DAF8D8879A3DDAF8D8B1B9A4AA
:100860009885022E56A581000C14A397B08AF12D0D
:10087000D928D84DD948D86DD968D8B1840DDA0EA9
:10088000D8A32983DA2C0ED8A3844983DA2C4C0E02
:10089000D8B8B0A88A9AF520AADADFD8A840AAD09A
:1008A000DADED8A860AADAD0DFD8F19786A8319B23
:1008B000069907AB9728889BF00C201440B8B0B479
:1008C000A88C9CF0042851791D301438B282ABD02A
:1008D000982C505078789BF11AB0F08A9CA8295136
:1008E000798B2951798A2470598B2058718A4469EF
:1008F000388B3940688A6448318B304960A588203C
:100900000971584468113964493019F1AC002C540C
:100910007CF08CA804285078F1889726A85998ACC8
:100920008C02264666F0899CA82951792470594486
:100930006938644831A98809205970AB1138406979
:10094000A8193148608CA83C415C207C00F1879854
:100950001986A86E767EA999882D557D9EB9A38AA1
:10096000228A6E8A568A5E9FB183062646660E2EBE
:100970004E6E9DB8AD002C547CF2B18CB499B9A3E5
:100980002D557D8191AC38AD3AB58391AC2DD928E8
:10099000D84DD948D86DD968D88C9DAE29D904AE28
:1009A000D851D904AED879D904D881F39DAD008D42
:1009B000AE1981ADD901D8F2AEDA26D88E9129834D
:1009C000A7D9ADADADADF32AD8D8F1B0AC89913E81
:1009D0005E76F3AC2E2EF1B18C5A9CAC2C282828D4
:1009E0009CAC3018A8988128343C9724A728343C24
:1009F0009C24F2B089AC912C4C6C8A9B2DD9D8D810
:100A000051D9D8D879D9D8D8F19E88A331DAD8D895
:100A1000912DD928D84DD948D86DD968D8B18393AC
:100A2000353D8025DAD8D88569DAD8D8B49381A342
:100A300028343CF3AB8BF8A391B609B4D9ABDEFAFA
:100A4000B0879CB9A3DDF1202830389AF1283038DE
:100A50009DF1A3A3A3A3F2A3B49080F2A3A3A3A3A5
:100A6000A3A3A3A3A3A3B2A3A3A3A3A3A3B087B544
:100A700099F128303898F1A3A3A3A397A3A3A3A324
:100A8000F39BA330DCB9A7F1262626FED8FF0A0087
:100A90002000002C2020002000002C20200020001E
:100AA000002C2020002000002C2020002000002C02
:100AB0002020002000000A2F2F202020202020208E
:100AC000202020205820416363656C20205920415C
:100AD0006363656C20205A20416363656C2020208D
:100AE00058204779726F20202059204779726F2053
:100AF00020205A204779726F0A2F2F4F46465345C0
:100B000054532020200000000009000302000004CC
:100B100005080000000000000000000000010204C1
:100B2000081020408001020408102001020408106F
:100B3000204080400404040404040404020202026D
:100B40000202030303030303020203000000002365
:100B5000002600290000000000250028002B0000CE
:100B6000000000240027002A0000C914B4222F2A04
:100B700011241FBECFEFD8E0DEBFCDBF11E0A0E053
:100B8000B1E0E4E2F9E602C005900D92AA36B107A1
:100B9000D9F724E0AAE6B1E001C01D92A132B20764
:100BA000E1F715E0C8EBD5E004C02197FE010E94F3
:100BB0000A30C53BD107C9F70E94452C0C949034EC
:100BC0000C94000081E0809301020895AF92BF92DF
:100BD000CF92EF920F93CF93DF9300D0CDB7DEB7D4
:100BE0005C010E94DB176EE170E080E090E00E9403
:100BF000B82760E0C5010E94E21721E041E060E112
:100C0000C5010E94BE1866E0C5010E94C91867EEC2
:100C100072E080E893E00E94CF2A6DEC72E080E8F9
:100C200093E00E94982AC5010E94CF1840E150E04D
:100C3000682F80E893E00E94B92B65EA72E080E8B3
:100C400093E00E94CF2A20E040E060E0C5010E94CE
:100C5000BE184FE760E0C5010E949C1760E0C50127
:100C60000E94C61748E660E0C5010E949C17C501B6
:100C70000E94D41764E170E080E090E00E94B82701
:100C800063E0C5010E94E91762E1C5010E94A71750
:100C900064E0C5010E94521761E0C5010E94581727
:100CA00063E0C5010E94631763E0C5010E946E17EF
:100CB000EE24E39400E020E049E857E065E073E0CB
:100CC000C5010E94C519882309F44BC0198284E02C
:100CD0008A83C12C06E122E042E050E0BE016F5F52
:100CE0007F4FC5010E94E11863E0C5010E94D01941
:100CF00060E0C5010E94D61960E0C5010E945B1842
:100D000062E0C5010E9484176CE9C5010E9490173A
:100D100060E5C5010E948A1760E0C5010E94961730
:100D200061E0C5010E94BF17C5010E94B71860E0CD
:100D3000C5010E94B0188AE290E0F501928B818B88
:100D4000C5010E94CD17C5010E94AD1780E00F902C
:100D50000F90DF91CF910F91EF90CF90BF90AF9018
:100D6000089581E0F4CFCF93DF93DB01FA01309750
:100D700019F4EC01EF85F889848D958D98278927E2
:100D8000982711969C938E9380A191A198278927EB
:100D9000982713969C938E93129784A195A19827D8
:100DA0008927982715969C938E93149780E0DF915E
:100DB000CF910895CF93DF93DB01FA01309719F4B7
:100DC000EC01EF85F8898081918198278927982700
:100DD00011969C938E9384819581982789279827D3
:100DE00013969C938E9312978085918598278927D7
:100DF000982715969C938E931497848595859827AC
:100E00008927982717969C938E93169780E0DF91F9
:100E1000CF910895FF920F931F93CF93DF93CDB798
:100E2000DEB728970FB6F894DEBF0FBECDBF8B019B
:100E3000BE016F5F7F4F0E94DA06F82E81114CC011
:100E400069817A81072E000C880B990B0E94E32D93
:100E500020E030E040E858E30E94C72EF8016083AC
:100E60007183828393836B817C81072E000C880BB6
:100E7000990B0E94E32D20E030E040E858E30E9407
:100E8000C72EF80164837583868397836D817E8185
:100E9000072E000C880B990B0E94E32D20E030E018
:100EA00040E858E30E94C72EF80160877187828767
:100EB00093876F817885072E000C880B990B0E9411
:100EC000E32D20E030E040E858E30E94C72EF8010F
:100ED00064877587868797878F2D28960FB6F89435
:100EE000DEBF0FBECDBFDF91CF911F910F91FF905D
:100EF00008954F925F926F927F928F929F92AF92DE
:100F0000BF92CF92DF92EF92FF92CF93DF93CDB754
:100F1000DEB72A970FB6F894DEBF0FBECDBF7A8733
:100F20006987FA01C480D580E680F78044845584BF
:100F30006684778480809180A280B380808591854B
:100F4000A285B38589839A83AB83BC83A301920175
:100F5000C701B6010E94C72E6D837E838F83988759
:100F600029813A814B815C81C501B4010E94C72E61
:100F70009B01AC016D817E818F8198850E94552CEB
:100F80009B01AC010E94562CA985BA856D937D9377
:100F90008D939C931397A5019401C701B6010E94FC
:100FA000C72E6D837E838F83988729813A814B81F9
:100FB0005C81C301B2010E94C72E9B01AC016D810F
:100FC0007E818F8198850E94562C9B01AC010E94E6
:100FD000562CE985FA856483758386839783A501FA
:100FE0009401C501B4010E94C72E4B015C01A70109
:100FF0009601C701B6010E94C72E9B01AC01C50135
:10100000B4010E94552C6B017C0129813A814B81EE
:101010005C81CA01B9010E94C72E9B01AC01C701C6
:10102000B6010E94552C6B017C01A3019201C30102
:10103000B2010E94C72E9B01AC01C701B6010E94FC
:10104000562CA985BA8518966D937D938D939C93A4
:101050001B9780E02A960FB6F894DEBF0FBECDBF77
:10106000DF91CF91FF90EF90DF90CF90BF90AF9046
:101070009F908F907F906F905F904F9008952F92E8
:101080003F924F925F926F927F928F929F92AF9218
:10109000BF92CF92DF92EF92FF920F931F93CF9365
:1010A000DF9300D000D000D0CDB7DEB78B011A019E
:1010B0003E832D83FA01C080D180E280F380A701B6
:1010C0009601C701B6010E94562C69837A838B83EF
:1010D0009C83F10184809580A680B780A50194014E
:1010E000C501B4010E94562C2B013C0129813A8193
:1010F0004B815C81C701B6010E94C72E6B017C0148
:10110000A3019201C501B4010E94C72E9B01AC014D
:10111000C701B6010E94562C20E030E040E85FE3B2
:101120000E94552C6B017C01F1012085318542859F
:101130005385C301B2010E94C72E2B013C01F1016E
:10114000248535854685578569817A818B819C8187
:101150000E94C72E9B01AC01C301B2010E94552C15
:10116000A70196010E94D52CF801608371838283C8
:101170009383ED81FE816481758186819781C0842E
:10118000D184E284F3849B01AC010E94C72E4B0101
:101190005C01A7019601C701B6010E94C72E9B0101
:1011A000AC01C501B4010E94562C0E943A2F9B014C
:1011B000AC01ED81FE8160817181828193810E9409
:1011C000D52C6B017C01F801C482D582E682F782BE
:1011D000ED81FE812085318542855385648175814D
:1011E000868197810E94D52CF8016087718782875C
:1011F000938720E030E0A901ED81FE816085718553
:10120000828593850E94342D87FF16C020E030E050
:10121000A901C701B6010E94BA2EA70196011816AE
:101220002CF56BED7FE089E490E40E94552CF801E9
:10123000648375838683978380E026960FB6F8943F
:10124000DEBF0FBECDBFDF91CF911F910F91FF90F9
:10125000EF90DF90CF90BF90AF909F908F907F9056
:101260006F905F904F903F902F9008956BED7FE0CF
:1012700089E490ECDACFFF920F931F93CF93DF9323
:101280008C01D80117968C9117972091AA02159678
:101290009C9115973091AA0216964C911697C09181
:1012A000AA02C095C4239323C92B8227FC2EF822BF
:1012B0008091AA0217968C9317971896CD91DC917E
:1012C0002097B1F08B81982F9F2171F09091AA0205
:1012D000892391E009F490E09093A8028C81809397
:1012E000A902E881F98109950D80DE81C02DE8CF42
:1012F0009BB3F8018481982351F09BB3892B8BBB5E
:101300000190F081E02D80818093AA02BACFDF9115
:10131000CF911F910F91FF9008951F920F920FB6DA
:101320000F9211242F933F934F935F936F937F936B
:101330008F939F93AF93BF93EF93FF93E0919E02A0
:10134000F0919F0280818093AA028EE992E00E9430
:101350003B09FF91EF91BF91AF919F918F917F9149
:101360006F915F914F913F912F910F900FBE0F9012
:101370001F9018951F920F920FB60F9211242F9362
:101380003F934F935F936F937F938F939F93AF930D
:10139000BF93EF93FF93E0919402F09195028081C7
:1013A0008093AA0284E992E00E943B09FF91EF91A9
:1013B000BF91AF919F918F917F916F915F914F916D
:1013C0003F912F910F900FBE0F901F9018951F9275
:1013D0000F920FB60F9211242F933F934F935F9369
:1013E0006F937F938F939F93AF93BF93EF93FF93ED
:1013F000E0918A02F0918B0280818093AA028AE8B0
:1014000092E00E943B09FF91EF91BF91AF919F91B4
:101410008F917F916F915F914F913F912F910F909D
:101420000FBE0F901F901895AF92BF92CF92DF9290
:10143000EF92FF920F931F9361E08DE00E9460286E
:101440006FE171E080E893E00E94E12A62E08CE0C5
:101450000E94602860E080E10E94602860E081E1F5
:101460000E94602860E082E10E94602860E087E0DE
:101470000E94602861E084E00E94602861E088E0CA
:101480000E94602861E087E00E94602881E090E08F
:101490000E943B34813009F09FC180936E018CE043
:1014A0000E94CA28892B61F480916E01882309F477
:1014B00096C160E081E090E00E94433410926E019A
:1014C0008FE00E94192890938101809380018EE023
:1014D0000E94192890937F0180937E016091800182
:1014E00070918101072E000C880B990B1F921F929F
:1014F0001F9228E22F9328E0A22EB12CC12CD12CD0
:10150000E12CF12C87012FEF33E040E050E00E9406
:10151000032C0E94E32D20E030E040E251E40E94E1
:10152000392D6093140170931501809316019093E7
:10153000170160917E0170917F01072E000C880BCE
:10154000990B1F921F921F922EE12F9332E0A32E30
:10155000B12CC12CD12C2FEF33E040E050E00E94A1
:10156000032C0E94E32D20E030E040E251E40E9491
:10157000392D6093100170931101809312019093A3
:10158000130181ED92E00E94182240E85AE166E0E2
:1015900070E081ED92E00E942A220E9493276093DE
:1015A000ED017093EE018093EF019093F00187E7D6
:1015B00092E00E94F41760E082E00E94602867E8F1
:1015C00072E080E893E00E94CF2A87E792E00E94D1
:1015D00053182DB73EB7285F3F4F0FB6F8943EBF64
:1015E0000FBE2DBF6FE472E0882311F069E672E050
:1015F00080E893E00E94CF2A6BE372E080E893E0FA
:101600000E94CF2A87E792E00E94E6058093740249
:101610006AEB7FEF87E792E00E949E186DE970E029
:1016200087E792E00E94A4186CE170E087E792E0FF
:101630000E94AA1864E77CEF87E792E00E94621894
:1016400068E97FEF87E792E00E94761862E175E033
:1016500087E792E00E948A18809174028111C8C0C5
:1016600066E087E792E00E942C1E66E087E792E042
:101670000E94C01D87E792E00E94DC196BE272E0D5
:1016800080E893E00E94CF2A61E087E792E00E9421
:10169000B01861EF71E080E893E00E94982A4AE078
:1016A00050E070E060E080E893E00E948C2B6CEEEC
:1016B00071E080E893E00E94CF2A43E050E062EEC0
:1016C00075E080E00E94CF2687E792E00E94AD1788
:1016D0008093750262EC71E080E893E00E94CF2A6B
:1016E00081E08093760280918802909189029093A4
:1016F0007302809372022091140130911501409180
:10170000160150911701E12CF12C870161E070E086
:101710008FE991E00E9487254091100150911101BD
:1017200060911201709113018FE991E00E94F324FE
:10173000209114013091150140911601509117012B
:1017400061E070E082E891E00E94872540911001FD
:1017500050911101609112017091130182E891E0A2
:101760000E94F32424EC39E040E951E069E070E0A4
:101770008EEC91E00E943E1624EC39E040E951E005
:1017800066E070E08BEC91E00E943E1624EC39E0BC
:1017900040E951E065E070E088EC91E00E943E167F
:1017A00024EC39E040E951E063E070E085EC91E041
:1017B0000E943E162CED35E044EF51E06BE070E006
:1017C00082EC91E01F910F91FF90EF90DF90CF900E
:1017D000BF90AF900C943E1610926E0160CE61E007
:1017E00081E090E00E94433481E080936E0168CEF6
:1017F00061EA71E080E893E00E94982A4AE050E0B4
:101800006091740280E893E00E94B22B6FE971E06E
:1018100080E893E00E94CF2A6ECF2F923F924F92A2
:101820005F926F927F928F929F92AF92BF92CF9270
:10183000DF92EF92FF920F931F93CF93DF93CDB779
:10184000DEB76C970FB6F894DEBF0FBECDBF0E9417
:1018500093270091ED011091EE012091EF0130915D
:10186000F001601B710B820B930B6093F10170937D
:10187000F2018093F3019093F4010E949327609307
:10188000ED017093EE018093EF019093F001809150
:101890007602882311F40C94B01418E2612E0EE144
:1018A000702E8CE9882E94E6992E80910102811188
:1018B00049C1209170023091710280917202909121
:1018C00073022817390708F03DC18091010288236F
:1018D00041F087E792E00E9408189093710280938C
:1018E00070028CE00E94CA28909375018093740165
:1018F0008FE00E94192890938101809380018EE0EF
:101900000E94192890937F0180937E0186E00E94B7
:101910001928893E23E0920714F088EE93E0843181
:10192000910514F484E190E090937D0180937C0113
:1019300087E00E941928893E33E0930714F088EE6F
:1019400093E08431910514F484E190E090937B015D
:1019500080937A0180E10E941928893E43E0940730
:1019600014F088EE93E08431910514F484E190E062
:10197000909379018093780181E10E941928893E32
:10198000A3E09A0714F088EE93E08431910514F4F3
:1019900084E190E0909377018093760160918001DB
:1019A00070918101072E000C880B990B1F921F92DA
:1019B0001F926F9248E0A42EB12CC12CD12CE12CA7
:1019C000F12C87012FEF33E040E050E00E94032C20
:1019D0000E94E32D20E030E040E251E40E94392DE6
:1019E0006093140170931501809316019093170171
:1019F00060917E0170917F01072E000C880B990B7E
:101A00001F921F921F927F9252E0A52EB12CC12CE3
:101A1000D12C2FEF33E040E050E00E94032C0E94D5
:101A2000E32D20E030E040E251E40E94392D609344
:101A30001001709311018093120190931301609132
:101A40007C0170917D01072E000C880B990B1F9271
:101A50001F921F921F92EEE1AE2EB12CC12CD12C01
:101A600018EEE12E13E0F12E00E010E024E130E06A
:101A700040E050E00E94032C7093C1016093C001CC
:101A800060917A0170917B01072E000C880B990BF5
:101A9000BFEFBF93BF93BF938F92A4E6AA2EB12C42
:101AA000C12CD12C24E130E040E050E00E94032C16
:101AB0004AE0469F9001479F300D11243093BF01AB
:101AC0002093BE016091760170917701072E000C82
:101AD000880B990B1F921F921F929F92A12CB12CE1
:101AE000650114E1E12EF12C00E010E028EE33E076
:101AF00040E050E00E94032C70930F0160930E01B0
:101B00006091780170917901072E000C880B990B78
:101B10001F921F921F929F9228EE33E040E050E008
:101B20000E94032CAAE0A69F9001A79F300D1124CC
:101B30003093BD012093BC010FB6F894DEBF0FBEF9
:101B4000CDBFB3CE1092010287E792E00E94AD179D
:101B50008093750287E792E00E94081890937102C3
:101B60008093700220917202309173028217930762
:101B700090F02091750224FD04C08115944008F472
:101B80008BC587E792E00E94CD1760E971E080E89D
:101B900093E00E94CF2A4091100150911101609171
:101BA0001201709113018FE991E00E94F32440919A
:101BB00014015091150160911601709117018FE980
:101BC00091E00E942A2540911001509111016091ED
:101BD00012017091130182E891E00E94F324409178
:101BE000140150911501609116017091170182E85E
:101BF00091E00E942A2560911C0270911D02072E1F
:101C0000000C880B990B0E94E32DAB01BC014093A3
:101C1000FD015093FE016093FF01709300028FE974
:101C200091E00E94BE258FE991E00E94C8260E94A3
:101C3000AB2D70931D0260931C0260911A0270918B
:101C40001B02072E000C880B990B0E94E32DAB01A1
:101C5000BC0182E891E00E94BE2582E891E00E94EA
:101C6000C8264B015C0160911C0270911D02072E79
:101C7000000C880B990B0E94E32D6B017C0120E086
:101C800030E044E353E460910A0270910B028091CA
:101C90000C0290910D020E94C72E2BED3FE049E40B
:101CA00050E40E94392D20E030E04CE053E40E94E3
:101CB000C72E9B01AC01C701B6010E94552C0E94A2
:101CC000AB2D6B0170931D0260931C02C501B40122
:101CD0000E94AB2D072E000C880B990B0E94E32D60
:101CE0004B015C0120E030E044E353E460910602E4
:101CF0007091070280910802909109020E94C72EFC
:101D00002BED3FE049E450E40E94392D20E030E023
:101D10004CE053E40E94C72E9B01AC01C501B40105
:101D20000E94552C0E94AB2D70931B0260931A02E7
:101D300020916E012111F5C4072E000C880B990B20
:101D40001F921F9247E04F93A0EDAF93A12CB12CAF
:101D50006501E12C10E4F12E00E010E020E030EC11
:101D60004FEF5FEF0E94032C0E94E32D6093D5019B
:101D70007093D6018093D7019093D80160911C0293
:101D800070911D02072E000C880B990B1F921F9259
:101D9000B7E0BF9320ED2F9320E030EC4FEF5FEFE3
:101DA0000E94032C0E94E32D6093D1017093D20115
:101DB0008093D3019093D4010FB6F894DEBF0FBE89
:101DC000CDBF2091D1013091D2014091D3015091EA
:101DD000D40160E070E08AEF94E40E94552C6B011E
:101DE0007C0120E030E04AE754E40E94552CA70132
:101DF00096010E94562C69837A838B839C8360931F
:101E0000D1017093D2018093D3019093D40180913A
:101E10000E0190910F0164E670E0681B790B072EAC
:101E2000000C880B990B0E94E32D20E030E048EC79
:101E300052E40E94392D4B015C016091BC0170910C
:101E4000BD01660F771F072E000C880B990B0E94AF
:101E5000E32D2B013C01A50194010E94C72E6B01CB
:101E60007C0120E030E0A9010E94342D87FD8AC466
:101E700020E030E04AE754E4C701B6010E94BA2EE0
:101E8000181634F4C12CD12C8AE7E82E84E4F82EFD
:101E9000C701B6010E94AB2D70937301609372016C
:101EA000A501940160E070E080E89FE30E94552C5A
:101EB0006D8B7E8B8F8B988F9B01AC01C301B20120
:101EC0000E94C72E6B017C0120E030E0A9010E9436
:101ED000342D87FD5BC420E030E04AE754E4C701BD
:101EE000B6010E94BA2E181634F4C12CD12C0AE780
:101EF000E02E04E4F02EC701B6010E94AB2D7093D2
:101F000071016093700129813A814B815C81CA0122
:101F1000B9010E94C72E6D877E878F87988B80912D
:101F2000D5019091D601A091D701B091D8018987B0
:101F30009A87AB87BC879C01AD0160E070E08AEFB7
:101F400094E40E94552C9B01AC010E94C72E6B01AA
:101F50007C012D853E854F8558890E94562C0E9414
:101F60003A2F2B013C016091C0017091C101072EF5
:101F7000000C880B990B0E94E32D698B7A8B8B8B5D
:101F80009C8BA50194010E94C72E4B015C016091BE
:101F9000BE017091BF01072E000C880B990B0E94A7
:101FA000E32D6D837E838F83988728EB36EC40EB9F
:101FB00054E4C301B2010E94552CA50194010E9472
:101FC000C72E28EB36EC40EB54E40E94562C2D81B2
:101FD0003E814F8158850E94562C2B013C0120E008
:101FE00030E0A9010E94342D87FDD4C320E030ECFD
:101FF00040E355E4C301B2010E94BA2E18163CF426
:10200000412C10EC512E10E3612E15E4712E4092FC
:10201000E5015092E6016092E7017092E8012981A2
:102020003A814B815C8160E070E08AEF94E40E9429
:10203000552C9B01AC010E94C72E698F7A8F8B8F24
:102040009C8F9B01AC01C701B6010E94562C0E94D7
:102050003A2F28EB36EC40EB54E40E94552CA501B6
:1020600094010E94C72E28EB36EC40EB54E40E940A
:10207000562C2D813E814F8158850E94562C6B0134
:102080007C0120E030E0A9010E94342D87FD86C349
:1020900020E030EC40E355E4C701B6010E94BA2EBF
:1020A00018163CF4C12CB0ECDB2EB0E3EB2EB5E4FB
:1020B000FB2EC092E101D092E201E092E301F092A6
:1020C000E40129853A854B855C85CA01B9010E94E6
:1020D000C72E69837A838B839C839B01AC016D85BA
:1020E0007E858F8598890E94562C0E943A2F6B011D
:1020F0007C012D893E894F89588D69897A898B8920
:102100009C890E94C72E4B015C0128EB36EC40EB0A
:1021100054E4C701B6010E94552CA50194010E9408
:10212000C72E28EB36EC40EB54E40E94562C2D8150
:102130003E814F8158850E94562C6B017C0120E026
:1021400030E0A9010E94342D87FD2CC320E030EC43
:1021500040E355E4C701B6010E94BA2E18163CF4BC
:10216000C12CA0ECDA2EA0E3EA2EA5E4FA2EC09250
:10217000DD01D092DE01E092DF01F092E001298DD5
:102180003A8D4B8D5C8D69817A818B819C810E9417
:10219000562C0E943A2F28EB36EC40EB54E40E9478
:1021A000552CA50194010E94C72E28EB36EC40EB7C
:1021B00054E40E94562C2D813E814F8158850E9407
:1021C000562C6B017C0120E030E0A9010E94342DE7
:1021D00087FDECC220E030EC40E355E4C701B601D6
:1021E0000E94BA2E18163CF4C12CF0ECDF2EF0E35E
:1021F000EF2EF5E4FF2EC092D901D092DA01E092E1
:10220000DB01F092DC0184EF91E09093FC0180937C
:10221000FB0124EC39E03093FA012093F90130936B
:10222000F8012093F7019093F6018093F501C30123
:10223000B2010E94AB2D1F921F9221E02F9324EF39
:102240002F9324ECA22E29E0B22EC12CD12C1CE01D
:10225000E12E1BE0F12E00E010E020E030E0A901CB
:102260000E94032C0E94E32D6093E5017093E60128
:102270008093E7019093E801A090FB01B090FC01EE
:102280000B2C000CCC08DD086091E1017091E2019B
:102290008091E3019091E4010E94AB2D2091F9011E
:1022A0003091FA018901330F220B330B3F932F93A7
:1022B0001F930F931CE0E12E1BE0F12E00E010E0D5
:1022C00020E030E0A9010E94032C0E94E32D6093DE
:1022D000E1017093E2018093E3019093E401A09007
:1022E000F701B090F8010B2C000CCC08DD086091D0
:1022F000DD017091DE018091DF019091E0010E948B
:10230000AB2D2091F5013091F6018901330F220B9D
:10231000330B3F932F931F930F931CE0E12E1BE091
:10232000F12E00E010E020E030E0A9010E94032C33
:102330000E94E32D6093DD017093DE018093DF0145
:102340009093E001A090F501B090F6010B2C000CE9
:10235000CC08DD086091D9017091DA018091DB0130
:102360009091DC010E94AB2D2091F7013091F80192
:102370008901330F220B330B3F932F931F930F933E
:102380001CE0E12E1BE0F12E00E010E020E030E048
:10239000A9010E94032C0E94E32D762E872E982EF1
:1023A000C92E80917201909173017C01A4E2EA1A16
:1023B000AAEFFA0A0091E5011091E601B091E70158
:1023C000BD8B2091E801298B6CED75E0681B790BC2
:1023D000072E000C880B990B0E94E32D1B012C018A
:1023E0000FB6F894DEBF0FBECDBF9B01AC01B801A4
:1023F0008D8999890E94342D87FDDCC1B7010F2C8E
:10240000000C880B990B0E94E32D662EA72EB82E88
:10241000D92E262F372F482F592FB8018D8999890A
:102420000E94BA2E181624F4062D1A2DBD8AD98AB8
:10243000C801AD89B9898093E5019093E601A09325
:10244000E701B093E8016090E101A090E201B09053
:10245000E301D090E4019101A201662D7A2D8B2D2C
:102460009D2D0E94342D87FDA9C1B701FF0C880B5B
:10247000990B0E94E32D2B017C019B01AC01662D81
:102480007A2D8B2D9D2D0E94BA2E181624F4642CC3
:10249000A52CBE2CDF2C862D9A2DAB2DBD2D809327
:1024A000E1019093E201A093E301B093E4018091F4
:1024B0007001909171015C01A4E2AA1AAAEFBA0A14
:1024C0006090DD01D090DE01E090DF01F090E0014E
:1024D0006CED75E0681B790B072E000C880B990BCF
:1024E0000E94E32D1B012C01262D3D2DA7010E94EA
:1024F000BA2E18160CF467C1B5010B2C000C880B12
:10250000990B0E94E32D69837D8389879D87262D02
:102510003D2DA7010E94342D87FF04C06980DD8016
:10252000E984FD84862D9D2DD7018093DD01909354
:10253000DE01A093DF01B093E0019101A201672DBC
:10254000782D892D9C2D0E94342D87FD16C0B50154
:10255000BB0C880B990B0E94E32D1B012C019B01E6
:10256000AC01672D782D892D9C2D0E94BA2E18164E
:1025700024F0272C382C492C5C2CC101D2018093EB
:10258000D9019093DA01A093DB01B093DC0188E3D9
:1025900091E00E943B348D3E99F5B8018D8999896F
:1025A0000E94AB2D8EEC91E00E94BD166091E1017E
:1025B0007091E2018091E3019091E4010E94AB2DC2
:1025C0008BEC91E00E94BD166091DD017091DE01FF
:1025D0008091DF019091E0010E94AB2D88EC91E0A9
:1025E0000E94BD166091D9017091DA018091DB01E2
:1025F0009091DC010E94AB2D85EC91E00E94BD160C
:1026000080916E018111E3C080911A0290911B02AA
:10261000893E93400CF4E3C061E084E00E949C2872
:102620008091E9019091EA01A091EB01B091EC0158
:10263000833736E09307A105B1050CF4D2C0C090F2
:102640006A01D0906B01E0906C01F0906D0120E088
:1026500030E048EC52E4C701B6010E94342D87FFF8
:1026600010C020E030E040E85FE3C701B6010E94FF
:10267000562C60936A0170936B0180936C01909368
:102680006D0160E088E00E949C2870E060E082ECD0
:1026900091E00E94F416EEC021FF7DCA40917202C3
:1026A0005091730280917002909171028417950786
:1026B00008F471CA60E372E087E792E00E94231891
:1026C0008091700290917102209172023091730298
:1026D000821B930B909371028093700240E352E04F
:1026E0006AE172E087E792E00E94B30640E352E0BD
:1026F00060E272E087E792E00E940A0740E252E05F
:102700006EE072E087E792E00E9479072EE032E007
:1027100040E252E062E072E087E792E00E943F0808
:10272000BDCFB601DD0C880B990B1F921F92A7E05D
:10273000AF93B0EDBF93A12CB12C6501E12C10E457
:10274000F12E00E010E020E030EC4FEF5FEF0E9450
:10275000032C0E94E32D6093D5017093D6018093E2
:10276000D7019093D80160911A0270911B02072E35
:10277000000C880B990B1F921F9227E02F9330EDCE
:102780003F930ACBC12CD12C760182CBC12CD12C0A
:102790007601B1CB412C512C320139CCC12CD12C3A
:1027A000760187CCC12CD12C7601E1CCC12CD12C67
:1027B000760121CD81014D8A598A3ACE622CA32C13
:1027C000B42CD52C68CE622CD32C7201ABCE809168
:1027D0001C0290911D02893E93400CF01DCF60E0D9
:1027E0001CCF8E309640A105B1050CF04ACFC090A9
:1027F0006A01D0906B01E0906C01F0906D0120E0D7
:1028000030E040E85FE3C701B6010E94BA2E181617
:102810000CF037CF20E030E040E050E4C701B601D3
:102820000E94552C60936A0170936B0180936C0138
:1028300090936D0120E030E040EA51E40E94BA2E0E
:10284000181634F46AE570E082EC91E00E94F41608
:1028500080916F01882309F460C080910A019091F2
:102860000B01181619060CF043C0019790930B0149
:1028700080930A0161E087E00E949C2880917401A6
:1028800090917501892B71F461E088E00E949C2889
:1028900061E084E00E949C286AE570E082EC91E0AF
:1028A0000E94F4164091F1015091F2016091F30100
:1028B0007091F4012AE030E080E893E06C960FB666
:1028C000F894DEBF0FBECDBFDF91CF911F910F9166
:1028D000FF90EF90DF90CF90BF90AF909F908F9040
:1028E0007F906F905F904F903F902F900C94932B20
:1028F00010926F0160E088E00E949C2825E030E0A3
:1029000040E050E062E070E080E090E00E94E52B63
:1029100070930B0160930A01ADCF80910C019091EF
:102920000D011816190634F4019790930D01809348
:102930000C01A0CF81E080936F0161E088E00E94EC
:102940009C282FE030E040E050E066E070E080E05E
:1029500090E00E94E52B70930D0160930C018ACFEB
:102960006C960FB6F894DEBF0FBECDBFDF91CF914E
:102970001F910F91FF90EF90DF90CF90BF90AF909D
:102980009F908F907F906F905F904F903F902F908F
:102990000895CF92DF92EF92FF920F931F93EFE48F
:1029A000FBE085919491EEE9F2E0918380838BE6E0
:1029B00090E09383828381E084831582168211865E
:1029C0001086E1E5FBE085919491E4E9F2E09183E2
:1029D00080838CE690E09383828382E084831582F7
:1029E000168211861086E3E5FBE085919491EAE872
:1029F000F2E0918380838DE690E09383828384E08C
:102A00008483158216821186108668E687E792E035
:102A10000E944F17E0E2F2E080E090E0A0E8BFE320
:102A200080839183A283B3831482158216821782D6
:102A300010861186128613861486158616861786CA
:102A4000EAE1F2E01182108213821282158214826E
:102A5000EEE0F2E01082118212821382148215825B
:102A60001682178210861186128613868EEC91E0EC
:102A70000E9423168BEC91E00E94231688EC91E0D3
:102A80000E94231685EC91E00E94231682EC91E0CF
:102A90000E942316C12CD12C760100E010E020E822
:102AA0003FE3B901A8018FE991E00E94532500E0BE
:102AB00010E020E83FE3B901A80182E891E00E941C
:102AC00053251F910F91FF90EF90DF90CF900895C5
:102AD0001F920F920FB60F9211242F933F934F9393
:102AE0005F936F937F938F939F93AF93BF93EF9376
:102AF000FF938091AC0287FF27C01092850010924F
:102B000084008091AC028F5F8093AC028091AC0214
:102B1000082E000C990B2091AB022817190629F0FA
:102B200024F08091AC028C30DCF180918400909193
:102B30008500049680349C4908F47BC08091840011
:102B400090918500049677C08091AC02082E000C0D
:102B5000990B2091AB022817190699F294F2E09193
:102B6000AC028E2FEE0F990BFC01EE0FFF1FE80F4A
:102B7000F91FE355FD4F808186FFC3CFE091AC0282
:102B80008E2FEE0F990BFC01EE0FFF1FE80FF91FC0
:102B9000E355FD4F808160E08F730E949C28B1CF88
:102BA0002091840030918500E091AC028E2FEE0FD1
:102BB000990BFC01EE0FFF1FE80FF91FE355FD4FC6
:102BC00081819281820F931F909389008093880066
:102BD000E091AC028E2FEE0F990BFC01EE0FFF1F60
:102BE000E80FF91FE355FD4F808186FF11C0E0918A
:102BF000AC028E2FEE0F990BFC01EE0FFF1FE80FBA
:102C0000F91FE355FD4F808161E08F730E949C287E
:102C1000FF91EF91BF91AF919F918F917F916F91B4
:102C20005F914F913F912F910F900FBE0F901F908A
:102C3000189580E49CE990938900809388008FEF39
:102C40008093AC02E5CFFC019091AB029C3098F4EC
:102C500081E0890F8093AB029083892F90E0FC0183
:102C6000EE0FFF1FE80FF91FE355FD4F88EB9BE0C8
:102C70009283818308958FEF80830895DF92EF928E
:102C8000FF920F931F93CF93DF93EC01D62E7A011F
:102C9000890188818C3008F067C061E08D2D0E9429
:102CA00060288881282F30E0F901EE0FFF1FE20F26
:102CB000F31FE355FD4F9D2D9F736081607C692B51
:102CC000608320E232E02E193F0937FF02C02D5FFA
:102CD0003F4F3595279535952795298320E639E08F
:102CE000201B310B37FF02C02D5F3F4F35952795D5
:102CF000359527952A832CE0622F0E94A32F829F6F
:102D0000B001112430E020E0AB01420F531FFA0163
:102D1000EE0FFF1FE40FF51FE355FD4F908196FD69
:102D200016C02F5F3F4F2C30310571F781110FC056
:102D30001092800082E080938100109285001092B2
:102D40008400B19A80916F00826080936F00E88167
:102D50008E2F90E0FC01EE0FFF1FE80FF91FE355E7
:102D6000FD4F8081806480838881DF91CF911F91A6
:102D70000F91FF90EF90DF900895DC01EC91EC3023
:102D800090F511968C91119728E830E0281B3109B5
:102D900087FD3395220F331F220F331F62177307EE
:102DA00084F012968C9128E532E0281B310987FDCA
:102DB0003395220F331F220F331F621773070CF452
:102DC0009B0122503109220F331F4FB7F8948E2FE9
:102DD00090E0FC01EE0FFF1FE80FF91FE355FD4FD8
:102DE000328321834FBF0895AF92BF92CF92DF927B
:102DF000EF92FF920F931F93CF93DF93EC0160321A
:102E000082E078070CF03EC0653B710514F064EB7E
:102E100070E0898148E8A42EB12CA81AB10887FD7A
:102E2000B394AA0CBB1CAA0CBB1C0B2C000CCC082A
:102E3000DD0877FF02C070E060E0072E000C880B11
:102E4000990B2A8108E512E0021B110927FD139551
:102E5000000F111F000F111F012E000C220B330B4E
:102E60003F932F931F930F9314EBE12EF12C00E06F
:102E700010E020E030E0A9010E94032C0F900F9099
:102E80000F900F90CE01DF91CF911F910F91FF9086
:102E9000EF90DF90CF90BF90AF900C94BD16FC01E7
:102EA00060830895462F69E1FC0180810C94C71E60
:102EB0000F93062F23E045E06AE1FC0180810E9428
:102EC0003B200F9108950F93062F23E042E06AE123
:102ED000FC0180810E943B200F9108950F93062FE3
:102EE00022E044E06BE1FC0180810E943B200F91D5
:102EF00008950F93062F22E044E06CE1FC018081ED
:102F00000E943B200F910895462F6FE1FC018081C4
:102F10000C94C71E462F60E2FC0180810C94C71EF2
:102F2000462F61E2FC0180810C94C71E462F62E2AD
:102F3000FC0180810C94C71EFC01962F643030F494
:102F4000660F690F6B5D80810C94C71E0895462F34
:102F500068E3FC0180810C94C71ECF93DF93EC01E2
:102F60002091180130911901AC014F5F5F4F6AE366
:102F700088810E94C31F8981DF91CF910895262FF8
:102F800046E06AE6FC0180810C940B20262F45E088
:102F90006AE6FC0180810C940B2021E042E06AE6A5
:102FA000FC0180810C940B2021E041E06AE6FC01E9
:102FB00080810C940B2021E047E06BE6FC018081CE
:102FC0000C940B20262F46E06BE6FC0180810C94CC
:102FD0000B200F93062F23E042E06BE6FC0180817B
:102FE0000E943B200F910895CF93DF93EC0161E0A5
:102FF0000E94E91760E0CE010E946E1760E0CE01EA
:103000000E94791760E0CE01DF91CF910C94E21716
:103010000F931F93CF93DF93EC0100911801109150
:1030200019019C012F5F3F4F42E062E788810E94B7
:103030001E1F89819A81982789279827DF91CF9130
:103040001F910F9108950F931F93442369F09B01E3
:10305000FC01009118011091190164E780810E9420
:103060001E1F1F910F910895FB011082FACFEF925E
:10307000FF920F931F93CF93DF93EC01E090180121
:10308000F09019018C010F5F1F4F26E046E065E7C5
:1030900088810E94CD1F8981DF91CF911F910F916F
:1030A000FF90EF9008950E94371891E0843309F063
:1030B00090E0892F0895262F40E060E0FC01808198
:1030C0000C940B200F931F93CF93DF93EC018B0194
:1030D0000E94371867E7883308F466E0A801888102
:1030E000DF91CF911F910F910C940C1F0F931F93A1
:1030F000CF93DF93EC018B010E9437186AE7883386
:1031000008F468E0A8018881DF91CF911F910F91A9
:103110000C940C1F0F931F93CF93DF93EC018B0143
:103120000E9437186DE7883308F46AE0A8018881A7
:10313000DF91CF911F910F910C940C1FAB0163E1B4
:10314000FC0180810C940C1FAB0165E1FC018081C6
:103150000C940C1FAB0167E1FC0180810C940C1FE7
:10316000262F47E06AE6FC0180810C940B2021E0C9
:1031700043E06AE6FC0180810C940B206F71211101
:10318000606241116064462F6DE6FC0180810C9401
:10319000C71E462F6EE6FC0180810C94C71ECF939C
:1031A000DF93EC012091180130911901AC014F5FC0
:1031B0005F4F6FE688810E94C31F8981DF91CF91A5
:1031C00008952F923F924F925F926F927F928F92CB
:1031D0009F92AF92BF92CF92DF92EF92FF920F93A6
:1031E0001F93CF93DF9300D000D01F92CDB7DEB7EF
:1031F0009D838C837B836A832A01222ED02EE982D1
:1032000020E040E0622D0E94BE18602F8C819D81DD
:103210000E94C918E980912C812CEE2029F080E1D0
:1032200090E00E942E304C01B12CA12CCC2029F032
:1032300080E190E00E942E305C01F12CE12CE4143E
:10324000F50408F093C0C7014096342C3E18481688
:10325000590610F080E1382E80E091E08D19910937
:103260003816190619F014F03D2C3194CC2081F059
:10327000D50190E080E02A813B812E0D3F1D831512
:1032800058F4F901E80FF91FE491ED930196F7CF97
:10329000AA80BB80AE0CBF1C9501432D6FE6EC816C
:1032A000FD8180810E94981E632C712CF981FF237F
:1032B00009F445C08114910409F441C020E040E0C4
:1032C000622D8C819D810E94BE186D2D8C819D8107
:1032D0000E94C91800911801109119019401432D01
:1032E0006FE6EC81FD8180810E941E1FA301B40165
:1032F000C5010E94F731892B11F1C4010E94CA3027
:10330000CC2021F0C5010E94CA30C12C8C2D0F9019
:103310000F900F900F900F90DF91CF911F910F9111
:10332000FF90EF90DF90CF90BF90AF909F908F90E5
:103330007F906F905F904F903F902F900895E60C94
:10334000F71CD30CE414F50408F079CFD11001C0B8
:10335000239420E040E0622D8C819D810E94BE1864
:103360006D2D8C819D810E94C91869CFF981FF2341
:1033700019F0C4010E94CA30CC2021F0C5010E947E
:10338000CA30C4CFCC24C394C1CFCF92EF920F9355
:10339000CC24C3940E94E1180F91EF90CF90089530
:1033A000462F60E7FC0180810C94C71E462F61E721
:1033B000FC0180810C94C71ECF92DF92FF920F9385
:1033C0001F93CF93DF93CDB7DEB72E970FB6F89448
:1033D000DEBF0FBECDBF6C010E94371897E7F92EF4
:1033E000883310F486E0F82E66EB7AE080E893E00C
:1033F0000E94982A009118011091190186E09E01FF
:10340000275F3F4F43E066E0F816F1F041E06F2D93
:10341000F60180810E94812000911801109119010C
:1034200063E06F0D9E01255F3F4F41E0F601808113
:103430000E948120009118011091190166E06F0D22
:103440009E01235F3F4F41E0F60180810E94812071
:1034500065EB7AE080E893E00E94982A63EB7AE0DB
:1034600080E893E00E94982A69857A85072E000CEF
:10347000880B990B0E94E32D8E010F5F1F4F20E0F8
:1034800045E00E941030BC0180E893E00E94BC2A15
:103490006FEA7AE080E893E00E94982A6EEA7AE088
:1034A00080E893E00E94982A6CEA7AE080E893E052
:1034B0000E94982A6B857C85072E000C880B990B3F
:1034C0000E94E32D20E045E00E941030BC0180E81E
:1034D00093E00E94BC2A68EA7AE080E893E00E94C8
:1034E000982A67EA7AE080E893E00E94982A65EAE1
:1034F0007AE080E893E00E94982A6D857E85072E09
:10350000000C880B990B0E94E32D20E045E00E94FF
:103510001030BC0180E893E00E94BC2A61EA7AE0A6
:1035200080E893E00E94982A0091180110911901F7
:103530009E01275F3F4F43E063E1F60180810E94D7
:10354000812060EA7AE080E893E00E94982A6EE9A0
:103550007AE080E893E00E94982A69857A85072EB0
:10356000000C880B990B0E94E32D8E010F5F1F4FFB
:1035700020E045E00E941030BC0180E893E00E940A
:10358000BC2A6AE97AE080E893E00E94982A69E917
:103590007AE080E893E00E94982A67E97AE080E880
:1035A00093E00E94982A6B857C85072E000C880B7F
:1035B000990B0E94E32D20E045E00E941030BC01F1
:1035C00080E893E00E94BC2A63E97AE080E893E017
:1035D0000E94982A62E97AE080E893E00E94982AA3
:1035E00060E97AE080E893E00E94982A6D857E8504
:1035F000072E000C880B990B0E94E32D20E045E07C
:103600000E941030BC0180E893E00E94BC2A6EE862
:103610007AE080E893E00E94982A2E960FB6F894FC
:10362000DEBF0FBECDBFDF91CF911F910F91FF90F5
:10363000DF90CF9008952F923F924F925F926F92BA
:103640007F928F929F92AF92BF92CF92DF92EF9232
:10365000FF920F931F93CF93DF93CDB7DEB7E7971A
:103660000FB6F894DEBF0FBECDBF998F888F69A3C8
:103670002AA73BA74CA75DA7EEA6FFA608AB19ABF0
:103680006B3309F0E8C10E943718883308F4E8C1A9
:1036900027E72F8B33E03C8F6EE380E893E00E94B6
:1036A0008029FE013D96FE8BED8B9E012F5F3F4FE3
:1036B0003B8F2A8F7F01DF8800911801109119013B
:1036C0009E012D5E3F4F41E06D2DA88DB98D8C91EF
:1036D0000E948120AB88BC88B5010B2C000C880BA4
:1036E000990B0E94E32DBF89B33109F4BEC1E1E01B
:1036F000AE22BB24D701AD92BC9220E030E040E086
:1037000051E40E94C72EEA8DFB8D60837183828312
:103710009383BC8DDB0EE2E0EE0EF11C2A8D3B8D17
:103720002C5F3F4F3B8F2A8F8D899E89821793078D
:1037300019F699A19B3309F0A6C18DEC9CECACE481
:10374000BDE38AAB9BABACABBDAB1DA21CA2AC2D49
:10375000B0E0BFABAEABEEA9FFA92CA13DA12E17E7
:103760003F070CF0ECC1312C212C1BA21AA2CE0178
:1037700001969E8F8D8FDE011D96BFA3AEA3BF89DC
:10378000B8A7E9A1E9A718A21F8E812C912C54019A
:1037900000911801109119019E012D5E3F4F41E0EB
:1037A00069A5A88DB98D8C910E9481206B897C8937
:1037B000072E000C880B990B0E94E32D6B017C01F6
:1037C000B9A1BB3361F4EF8DF8A1329741F420E049
:1037D00030E040E856E40E94552C6B017C01260144
:1037E000370177FA709477F8709420E030E0A901FF
:1037F000C701B6010E94BA2E181614F073016201B7
:10380000C501B4010E94E12DA70196010E94562C2A
:103810000E94B22D4B015C012FE632E143E85AE3EE
:10382000C301B2010E94C72E2EA53FA548A959A9E0
:103830000E94C72EAD8DBE8D2D913D914D915C9115
:103840000E94562C6B017C01ED8DFE8DC082D182D1
:10385000E282F382A30192016AA57BA58CA59DA5B6
:103860000E94C72EA70196010E94562CFF89F331B2
:1038700009F413C120E030E040E05EE30E94C72E6F
:103880006B017C0120E030E0A9010E94BA2E20E00B
:1038900030E040E05FE387FDFBC0C701B6010E9456
:1038A000562C0E94AB2D6E7FAEA1BFA18D919C9135
:1038B000682B792B7C8B6B8B9E012D5E3F4F41E0FB
:1038C00068A5E88DF98D80810E94D71E2F8D38A1C3
:1038D0002F5F3F4F38A32F8F39A53E5F39A788A5AB
:1038E0009C8D890F88A7AEA1BFA11296BFA3AEA3DE
:1038F000ED8DFE8D3496FE8FED8F2F8D38A1233008
:10390000310509F045CF33E62316310471F489EE11
:10391000881683E09806A104B10438F06AE280E8D2
:1039200093E00E948029312C212CC501B4010E9412
:10393000E12D2AA93BA94CA95DA90E94C72E20E030
:1039400030E040EA50E40E94342D87FF05C0AAA170
:10395000BBA11196BBA3AAA3B4E68B169104A10444
:10396000B10408F0B9C0EBE02E1631040CF4B4C079
:103970002AA13BA12A3031050CF4AEC06EE280E8EA
:1039800093E00E94802920E030E040E45FE36AA5F4
:103990007BA58CA59DA50E94C72E6AA77BA78CA797
:1039A0009DA720E030E040E45FE36EA57FA588A9F5
:1039B00099A90E94C72E6EA77FA788AB99ABCE01AD
:1039C0000D966C01FF88DE0111963D01D3016D91CA
:1039D0007D918D919D913D01BF89B33109F490C0D6
:1039E00020E030E040E05EE30E94C72E4B015C0126
:1039F00020E030E0A9010E94BA2E20E030E040E053
:103A00005FE387FD78C0C501B4010E94562C0E9477
:103A1000AB2D6E7FF60180819181682B792B7C8B99
:103A20006B8B9E012D5E3F4F41E06F2DA88DB98DB0
:103A30008C910E94D71EBC8DFB0EE2E0CE0ED11CF5
:103A40002A8D3B8D2615370509F68CA19DA101967F
:103A50009DA38CA380CE83E18F8B92E09C8F1CCEA4
:103A6000A6E0AF8BB2E0BC8F17CE20E030E040E89C
:103A700050E40E94C72EAA8DBB8D6D937D938D93CC
:103A80009C93139746CE80E090E0A0E8BFE359CE28
:103A9000C701B6010E94552C04CF20E030E040E879
:103AA0005EE30E94C72E6B017C0120E030E0A9019B
:103AB0000E94BA2E20E030E040E05FE387FD07C0BF
:103AC000C701B6010E94562C0E94AB2DF3CEC70150
:103AD000B6010E94552CF8CF61E070E080E090E0E4
:103AE0000E94B827BFEF2B1A3B0AE4E62E163104DA
:103AF00009F03DCE43CFC501B4010E94552C87CFBC
:103B000020E030E040E85EE30E94C72E4B015C01FC
:103B100020E030E0A9010E94BA2E20E030E040E031
:103B20005FE387FD07C0C501B4010E94562C0E94C7
:103B3000AB2D75CFC501B4010E94552CF8CF888DEF
:103B4000998D0E94CD17888D998D0E94B718E796A0
:103B50000FB6F894DEBF0FBECDBFDF91CF911F919E
:103B60000F91FF90EF90DF90CF90BF90AF909F901C
:103B70008F907F906F905F904F903F902F9008951F
:103B80004F925F926F927F929F92AF92BF92CF922D
:103B9000DF92EF92FF920F931F93CF93DF93EC018D
:103BA000962E70E090E080E01F921F921F921F926D
:103BB00024E1A22EB12CC12CD12C15E0E12EF12C48
:103BC00000E010E021E030E040E050E00E94032CF3
:103BD00044E6C42ED12CE12CF12CA7019601261B22
:103BE000370B480B590BCA01B9010E94E32D2AE09B
:103BF00037ED43E25CE30E94C72E6B017C0120E0BD
:103C000030E044EB52E40E94C72E2B013C012AE92C
:103C100039E949E95EE3C701B6010E94C72E9B015D
:103C2000AC01C92C8301720163E4CE010E941B1B0D
:103C30000F900F900F900F90DF91CF911F910F91E8
:103C4000FF90EF90DF90CF90BF90AF909F907F90CC
:103C50006F905F904F9008954F925F926F927F9216
:103C60009F92AF92BF92CF92DF92EF92FF920F930B
:103C70001F93CF93DF93EC01962E70E090E080E0ED
:103C80001F921F921F921F9224E1A22EB12CC12CD1
:103C9000D12C15E0E12EF12C00E010E021E030E025
:103CA00040E050E00E94032C44E6C42ED12CE12CCD
:103CB000F12CA7019601261B370B480B590BCA01A3
:103CC000B9010E94E32D2AE037ED43E25CE30E9454
:103CD000C72E6B017C0120E030E040EA51E40E94F5
:103CE000C72E2B013C012AE939E949E95EE3C70106
:103CF000B6010E94C72E9B01AC01C92C8301720141
:103D00006BE3CE010E941B1B0F900F900F900F9042
:103D1000DF91CF911F910F91FF90EF90DF90CF90A7
:103D2000BF90AF909F907F906F905F904F9008955D
:103D3000FF920F931F93CF93DF93C62F042FF22E82
:103D4000132F682F81ED92E00E942E226C2F81EDBF
:103D500092E00E94BC21CF2DD12F0C0F1D2F111DE1
:103D6000C017D10731F0699181ED92E00E94BC212A
:103D7000F7CF81ED92E00E94B12291E0811190E0B5
:103D8000892FDF91CF911F910F91FF900895CF93CD
:103D9000DF931F92CDB7DEB749839E012F5F3F4F60
:103DA00041E00E94981E0F90DF91CF910895FF92FD
:103DB0000F931F93CF93DF93C62F042FF22E132F51
:103DC000682F81ED92E00E942E226C2F81ED92E00F
:103DD0000E94BC21CF2DD12F10E0101779F06981FE
:103DE000229681ED92E00E94BC21FE013297608113
:103DF00081ED92E00E94BC211F5FEFCF81ED92E048
:103E00000E94B12291E0811190E0892FDF91CF9142
:103E10001F910F91FF900895CF93DF9300D0CDB7FE
:103E2000DEB75A8349839E012F5F3F4F41E00E94D6
:103E3000D71E0F900F90DF91CF9108953F924F9230
:103E40005F926F927F928F929F92AF92BF92CF922A
:103E5000DF92EF92FF920F931F93CF93DF9300D0E7
:103E600000D0CDB7DEB78C83D62E4B833A8329831F
:103E70000E9487274B015C01312CC12C2B81E22E43
:103E8000F12C2801712C612C8B81381608F049C067
:103E90006C8181ED92E00E942E226D2D81ED92E0E9
:103EA0000E94BC2181ED92E00E94B1226C8181EDE3
:103EB00092E00E942E22A701431951094132510577
:103EC00014F040E250E06C8181ED92E00E94AE225D
:103ED00081ED92E00E945C21892BD9F0011511053A
:103EE00069F481ED92E00E946321E981FA81EC0D91
:103EF000F11DC7FCFA958083C394EACF0E948727FF
:103F0000681979098A099B0964157505860597055D
:103F100040F38E2D91E2E916F1040CF080E2380EA8
:103F2000B3CF01151105C1F00E94872768197909DF
:103F30008A099B0930E020E0601771078207930728
:103F400058F08C2D0C2C000C990B2B81281719067E
:103F500019F014F0CC24CA948C2D0F900F900F9070
:103F60000F90DF91CF911F910F91FF90EF90DF9015
:103F7000CF90BF90AF909F908F907F906F905F9009
:103F80004F903F9008950F931F9389019A0141E04C
:103F90000E941E1F1F910F910895CF92DF92EF9202
:103FA000FF920F931F93CF93DF931F92CDB7DEB78E
:103FB000D42EC22E9701AE014F5F5F4F0E94C31FE8
:103FC0008823F9F02D2D2C19330BA9014F5F5F4F7A
:103FD00021E030E002C0220F331FCA94E2F72150E3
:103FE0003109B901042E01C0660F0A94EAF729814C
:103FF000262330E002C0359527954A95E2F7F8016F
:1040000020830F90DF91CF911F910F91FF90EF9040
:10401000DF90CF900895EF92FF920F931F93CF936D
:10402000DF931F92CDB7DEB7182F062FE42EF22EA6
:104030002091180130911901AE014F5F5F4F0E942E
:10404000C31F81E090E001C0880FEA94EAF749813C
:10405000FF2071F0482B4983602F812F0E94C71EDB
:104060000F90DF91CF911F910F91FF90EF900895E6
:1040700080954823F0CFDF92EF92FF920F931F932A
:10408000CF93DF931F92CDB7DEB7F82EE62E142F15
:10409000D22E2091180130911901AE014F5F5F4F70
:1040A0000E94C31F882359F1812F8D19990BAC01F0
:1040B0004F5F5F4F81E090E002C0880F991FDA9454
:1040C000E2F70197042E01C0880F0A94EAF701C0B5
:1040D000000F4A95EAF7482F40959981492380239C
:1040E000482B49836E2D8F2D0E94C71E0F90DF91A4
:1040F000CF911F910F91FF90EF90DF90089580E096
:10410000F5CF2F923F924F925F926F927F928F9254
:104110009F92AF92BF92CF92DF92EF92FF920F9356
:104120001F93CF93DF93CDB7DEB729970FB6F894DF
:10413000DEBF0FBECDBFC82E6D8349833F832E8364
:104140000E9487274B015C012981E22EF12C170187
:10415000220C331C220F2B83822D31E223163104D3
:104160000CF080E28C831982D12C2801712C612CF7
:104170008981821513040CF069C06C2D81ED92E0E9
:104180000E942E226D8181ED92E00E94BC2181ED82
:1041900092E00E94B1226C2D81ED92E00E942E22CD
:1041A0004B816C2D81ED92E00E94AE2291E09A83CA
:1041B00081ED92E00E945C21892B91F1ED2D0D2C77
:1041C000000CFF0BF987E887EE15FF054CF501158C
:1041D0001105D9F428853985220F331F8E819F81DF
:1041E000280F391F398728879A81911122C081EDC4
:1041F00092E00E946321E885F98520813181822B3C
:10420000932B91838083D3941CC00E9487276819C5
:1042100079098A099B096415750586059705D0F209
:1042200081ED92E00E94B122E981FC81EF0FE983E8
:104230009FCF81ED92E00E946321E885F98510828D
:104240008183FA8121E0F227FA83B2CF01151105AB
:10425000B1F00E948727681979098A099B0930E023
:1042600020E0601771078207930748F08D2D0D2C11
:10427000000C990B8E159F0514F4DD24DA948D2D16
:1042800029960FB6F894DEBF0FBECDBFDF91CF9158
:104290001F910F91FF90EF90DF90CF90BF90AF9064
:1042A0009F908F907F906F905F904F903F902F9056
:1042B000089590E080E008958091050390910603B1
:1042C000891B990B089590910603809105032FEFA8
:1042D0003FEF981748F4E92FF0E0E95FFC4F2081A9
:1042E00030E09F5F90930603C9010895E0910603B3
:1042F00080910503E81730F4F0E0E95FFC4F80811E
:1043000090E008958FEF9FEF08950895CF93DF9386
:10431000EC01E091DD02F091DE023097F1F0909136
:104320000603809105039817C0F090E0292F30E034
:104330002617370754F4DE01A20FB31F4C91295FF3
:104340003C4FD9014C939F5FF1CF109206036093CD
:104350000503CB01DF91CF910994DF91CF910895AF
:10436000E091DF02F091E002309729F01092E30231
:104370001092E20209940895CF93DF931F92CDB774
:10438000DEB769832091E1022223F9F02091E20255
:10439000203258F021E030E0FC013383228390E0AA
:1043A00080E00F90DF91CF9108958091E302E82F94
:1043B000F0E0EC51FD4F998190838F5F8093E30291
:1043C0008093E20281E090E0ECCF61E0CE010196C3
:1043D0000E948623F7CFCF92DF92EF92FF920F9346
:1043E0001F93CF93DF937C01CB018A012091E102DF
:1043F000222389F0EB016B01C40ED51ECC15DD051F
:1044000069F06991D701ED91FC910190F081E02D67
:10441000C7010995F3CF642F0E948623C801DF915D
:10442000CF911F910F91FF90EF90DF90CF90089563
:1044300010920603109205031092E3021092E2021A
:104440000E94C52280EB91E20E94B22386E891E2AD
:104450000C94AD23CB01BA010C94E32281E080934C
:10446000E102609304031092E3021092E2020895C5
:104470000F93062F21E04091E20264EE72E08091FA
:1044800004030E9436231092E3021092E20210927B
:10449000E1020F9108954F925F926F927F92AF92D7
:1044A000BF92CF92EF92FF920F931F93CF93DF9320
:1044B0005C01F62ED42F28013901EE2019F10E945B
:1044C0002E22CE2DC43008F0C3E0C150B8F028E051
:1044D000C29FC0011124A301920104C056954795C3
:1044E000379527958A95D2F7B901D501ED91FC91C1
:1044F0000190F081E02DC5010995E7CF60E0C5018D
:104500000E9438224D2FD13208F040E22C2D67E076
:1045100073E08F2D0E94F62210920603809305030C
:10452000DF91CF911F910F91FF90EF90CF90BF90AF
:10453000AF907F906F905F904F900895CF92EF92E1
:104540000F931F93C22EE12C00E010E098010E940F
:104550004B221F910F91EF90CF90089521E00C9482
:104560009E2261E00C943822E1EDF2E01382128287
:1045700088EE93E0A0E0B0E084839583A683B783C0
:1045800087E491E09183808308951092760381E01F
:10459000809374031092730361E082E10E949C286F
:1045A00061E083E10E949C28E9EBF0E080818E7F4E
:1045B000808380818D7F808388E48093B80085E448
:1045C0008093BC0008959B01AC0160E074E284EF2D
:1045D00090E00E94AF2F20513109410951095695B1
:1045E0004795379527952093B80008954132E0F517
:1045F000909176039111FCCF91E0909376032093F4
:1046000074032FEF2093270370936E0360936D0361
:1046100010926C03240F20936B0390937503909179
:104620007503880F892B8093750380917303813004
:10463000C9F410927303809175038093BB0080913D
:10464000BC0083FDF8CF85EC8093BC00809176039D
:104650008130E1F380916C03841710F440916C0376
:10466000842F089585EEF0CF40E0FACF0F934132CA
:1046700008F044C0909176039111FCCF92E09093A2
:104680007603009374039FEF9093270370936E0358
:1046900060936D0310926C0340936B03109275034B
:1046A00090917503880F892B809375038091730314
:1046B000813011F510927303809175038093BB00D4
:1046C0008091BC0083FDF8CF85EC8093BC00222351
:1046D00021F0809176038230D1F3809127038F3FC0
:1046E00079F080912703803269F08091270380332D
:1046F00059F084E00F91089585EEE7CF81E0FACF7D
:1047000080E0F8CF82E0F6CF83E0F4CF2091490338
:10471000260F3327331F21323105ECF42091760325
:10472000FC0190E080E0243069F082E00895A091DF
:1047300049032191AC01455B5C4FA40FB52FB11D1E
:104740002C930196861798F380914903680F609324
:10475000490380E0089581E0089590937003809369
:104760006F0308959093720380937103089585ED0C
:104770008093BC008091BC0084FDFCCF1092760336
:10478000089585EC8093BC001092760308951F92E3
:104790000F920FB60F9211242F933F934F935F9375
:1047A0006F937F938F939F93AF93BF93EF93FF93F9
:1047B0008091B900887F803609F44CC008F03FC072
:1047C000883209F4A8C018F5803109F49CC0B8F407
:1047D000882309F405C1883009F495C0FF91EF9151
:1047E000BF91AF919F918F917F916F915F914F9109
:1047F0003F912F910F900FBE0F901F901895883109
:1048000009F489C0803251F78093270315C08034A2
:1048100009F4A6C048F48033B9F38833F9F68093DD
:1048200027030E94C123DACF803509F489C0883577
:1048300009F49EC0883491F60E94B723CFCF8839FF
:1048400009F494C038F5883729F050F4883611F00F
:10485000803721F683E0809376031092280357C0B7
:10486000883809F483C0803919F0803809F0B6CF50
:1048700080912803803208F079C0E091280381E01C
:104880008E0F809328038091BB00F0E0E75DFC4F22
:1048900080833DC0803B39F0E0F4803A09F485C064
:1048A000883A09F09BCF84E08093760310924A0304
:1048B00010924903E0917103F09172030995809180
:1048C000490381110FC081E08093490310924B038B
:1048D00009C0803C09F482C0883C09F47FC0883B51
:1048E00009F07CCFE0914A0381E08E0F80934A0368
:1048F000F0E0E55BFC4F80818093BB0090914A0320
:104900008091490331C0809175038093BB0085EC91
:104910008093BC0063CF90916C0380916B039817D8
:10492000B8F580916D0390916E03E0916C0321E0E6
:104930002E0F20936C03E80FF92FF11D8081E5CF36
:1049400020916D0330916E03E0916C0381E08E0F36
:1049500080936C038091BB00E20FF32FF11D8083E5
:1049600090916C0380916B03981788F285E8D0CF03
:1049700020916D0330916E03E0916C0381E08E0F06
:1049800080936C038091BB00E20FF32FF11D8083B5
:1049900080917403811150CF81E08093730384EA86
:1049A0008093BC001092760319CF0E94C12380919E
:1049B0002803803230F4E0912803F0E0E75DFC4FFB
:1049C00010826091280370E0E0916F03F091700312
:1049D00089E293E009951092280300CF85ECE0CF9F
:1049E0001092270329CFCF92DF92EF92FF92CF93BD
:1049F000DF93EC016A017B012FE632E143E85AE3E1
:104A0000CB01B6010E94342D87FD11C020E030E0BB
:104A10004AE754E4C701B6010E94BA2E18167CF486
:104A2000C12CD12C8AE7E82E84E4F82E08C09FE63A
:104A3000C92E92E1D92E93E8E92E9AE3F92EC88A7D
:104A4000D98AEA8AFB8ADF91CF91FF90EF90DF90BD
:104A5000CF900895CF92DF92EF92FF92CF93DF93A2
:104A6000EC016A017B0120E030E0A901CB01B60135
:104A70000E94BA2E181624F0F7FAF094F7F8F09482
:104A80002BED3FE049EC50E4C701B6010E94C72E70
:104A90006C8B7D8B8E8B9F8BDF91CF91FF90EF90F6
:104AA000DF90CF9008958F929F92AF92BF92CF9256
:104AB000DF92EF92FF920F931F93CF93DF93EC015E
:104AC0004A015B01B901A801C882D982EA82FB824E
:104AD0001C821D821E821F82188E0E94F324B50143
:104AE000A401CE010E942A250E949327698F7A8F04
:104AF0008B8F9C8FDF91CF911F910F91FF90EF9043
:104B0000DF90CF90BF90AF909F908F900895EF92DD
:104B1000FF920F931F93CF93DF93EC01FB01CA0128
:104B2000B901188EE882F9820A831B833097D1F489
:104B30002AE037ED43EA5FE30E94C72EAB01BC01D8
:104B4000CE010E942A258DE790EDA3E1BFE3888B7B
:104B5000998BAA8BBB8BDF91CF911F910F91FF9007
:104B6000EF9008953197B9F7A901BC01CE010E94D9
:104B70002A2581E894E0A5E3BFE3E9CF2F923F9295
:104B80004F925F926F927F928F929F92AF92BF925D
:104B9000CF92DF92EF92FF920F931F93CF93DF9309
:104BA000CDB7DEB72A970FB6F894DEBF0FBECDBFE4
:104BB0009A8789872A013B01DC011C964D925D9200
:104BC0006D927C921F970E9493276B017C01E9856F
:104BD000FA85818D928DA38DB48DA7019601281B36
:104BE000390B4A0B5B0BCA01B9010E94E32D2DEB77
:104BF00037E346E855E30E94C72E4B015C01A985C7
:104C0000BA855996CD92DD92ED92FC925C975496BE
:104C1000CD90DD90ED90FC90579720E030E0A90119
:104C20000E94342D87FDAFC0A701960160E070E0BF
:104C300080E89FE30E94392D162F072F382E292E4A
:104C4000262F372F482F592FB401C5010E94BA2EA5
:104C5000181624F0182D092D3A2C2B2CA70196019B
:104C6000C701B6010E94C72E6D837E838F8398870C
:104C7000E985FA8584809580A680B780208131817E
:104C80004281538129833A834B835C839B01AC012E
:104C9000C301B2010E94C72E2B013C01E985FA85B0
:104CA0002089318942895389C701B6010E94392D73
:104CB000A50194010E94C72E9B01AC01C301B20162
:104CC0000E94552C6B017C012D813E814F815885BE
:104CD00069817A818B819C810E94C72E9B01AC01E6
:104CE000C701B6010E94552C212F302F432D522D84
:104CF0000E94C72EA50194010E94562C6B017C01D5
:104D0000AC019B01C501B4010E94562C20E030E0AB
:104D100040E05FE30E94C72EA985BA8518966D937F
:104D20007D938D939C931B97212F302F432D522DD4
:104D30000E94C72E29813A814B815C810E94562CAA
:104D4000E985FA856083718382839383C482D582E7
:104D5000E682F7822A960FB6F894DEBF0FBECDBF6B
:104D6000DF91CF911F910F91FF90EF90DF90CF9047
:104D7000BF90AF909F908F907F906F905F904F907B
:104D80003F902F90089510E000E0312C212C66CF49
:104D9000FC01608171818281938108950895823040
:104DA000E8F4E82FF0E0EE0FFF1FE65EFE4F7183A0
:104DB0006083813041F0809169008C7F482B409363
:104DC0006900E89A089580916900837F440F551F18
:104DD000440F551F482B40936900E99A08951F928C
:104DE0000F920FB60F9211242F933F934F935F931F
:104DF0006F937F938F939F93AF93BF93EF93FF93A3
:104E0000E0911A01F0911B010995FF91EF91BF917B
:104E1000AF919F918F917F916F915F914F913F9152
:104E20002F910F900FBE0F901F9018951F920F9209
:104E30000FB60F9211242F933F934F935F936F936D
:104E40007F938F939F93AF93BF93EF93FF93E091E3
:104E50001C01F0911D010995FF91EF91BF91AF9158
:104E60009F918F917F916F915F914F913F912F9182
:104E70000F900FBE0F901F9018951F920F920FB6B4
:104E80000F9211242F933F938F939F93AF93BF93D0
:104E900080917C0390917D03A0917E03B0917F036C
:104EA00030917B0323E0230F2D3768F126E8230F91
:104EB0000296A11DB11D20937B0380937C039093E8
:104EC0007D03A0937E03B0937F038091770390913D
:104ED0007803A0917903B0917A030196A11DB11DC9
:104EE0008093770390937803A0937903B0937A0328
:104EF000BF91AF919F918F913F912F910F900FBED6
:104F00000F901F9018950196A11DB11DD4CF2FB7FA
:104F1000F89460917C0370917D0380917E03909161
:104F20007F032FBF08953FB7F89480917703909146
:104F30007803A0917903B0917A0326B5A89B05C0A8
:104F40002F3F19F00196A11DB11D3FBFBA2FA92F08
:104F5000982F8827BC01CD01620F711D811D911D05
:104F600042E0660F771F881F991F4A95D1F7089571
:104F70008F929F92AF92BF92CF92DF92EF92FF9269
:104F80006B017C010E9493274B015C01C114D10489
:104F9000E104F104E9F00E94542C0E94932768195F
:104FA00079098A099B09683E73408105910570F370
:104FB00021E0C21AD108E108F10888EE880E83E0EA
:104FC000981EA11CB11CC114D104E104F10429F7FD
:104FD000FF90EF90DF90CF90BF90AF909F908F9019
:104FE0000895789484B5836084BD85B5836085BD5C
:104FF000EEE6F0E0808181608083E1E8F0E082E02D
:105000008083808181608083E0E8F0E0808181603E
:105010008083E1EBF0E0808184608083E0EBF0E06E
:1050200080818160808387E880937A001092C1003C
:105030000895883020F08D3008F48DE08E50209156
:105040001E0190E4299F900111248770822B809388
:105050007C0080917A00806480937A0080917A004D
:1050600086FDFCCF8091780090917900089584307E
:1050700081F028F48230E9F08330F9F00895883027
:1050800071F0893091F08530B9F4809180008F7D86
:1050900003C0809180008F77809380000895809175
:1050A000B0008F778093B00008958091B0008F7D1D
:1050B000F9CF84B58F7784BD089584B58F7DFBCFFC
:1050C000CF93DF9390E0FC01E35EF44F24918C5C7E
:1050D000944FFC0184918823C9F090E0880F991FB8
:1050E000FC01E15AF44FA591B491FC01EB5AF44F45
:1050F000C591D49161110DC09FB7F8948C91209502
:1051000082238C938881282328839FBFDF91CF91AE
:105110000895623051F49FB7F8943C91822F8095A6
:1051200083238C93E8812E2BEFCF8FB7F894EC91EB
:105130002E2B2C938FBFEACF1F93CF93DF93282F73
:1051400030E0F901EA5FF44F8491F901E35EF44F36
:10515000D491F901EC5CF44FC491CC23A9F0162F43
:1051600081110E943728EC2FF0E0EE0FFF1FEB5A61
:10517000F44FA591B4918FB7F894EC91111108C038
:10518000D095DE23DC938FBFDF91CF911F910895DF
:10519000DE2BF8CFCF93DF93282F30E0F901EA5FC1
:1051A000F44F8491F901E35EF44FD491F901EC5C82
:1051B000F44FC491CC23A1F081110E943728EC2F29
:1051C000F0E0EE0FFF1FE55BF44FA591B491EC9179
:1051D000ED2381E090E009F480E0DF91CF91089524
:1051E00080E090E0FACFFC01918D228D892F90E034
:1051F000805C9F4F821B91098F7399270895FC0152
:10520000918D828D981731F0828DE80FF11D858D7B
:1052100090E008958FEF9FEF0895FC01918D828DAE
:10522000981761F0A28DAE0FBF2FB11D5D968C91C6
:10523000928D9F5F9F73928F90E008958FEF9FEF05
:105240000895FC01538D448D252F30E0842F90E08C
:10525000821B930B541710F0CF9608950197089571
:1052600085E29AE2892B49F080E090E0892B29F0D1
:105270000E94252A81110C9400000895FC01A48D40
:10528000A80FB92FB11DA35ABF4F2C91848D90E068
:1052900001968F739927848FA689B7892C93A0894B
:1052A000B1898C91837080648C93938D848D9813D5
:1052B00006C00288F389E02D80818F7D8083089568
:1052C000CF93DF93EC01888D8823B9F0AA89BB893D
:1052D000E889F9898C9185FD03C0808186FD0DC028
:1052E0000FB607FCF7CF8C9185FFF2CF808185FF49
:1052F000EDCFCE010E943E29E9CFDF91CF910895F5
:10530000EF92FF920F931F93CF93DF93EC0181E015
:10531000888F9B8D8C8D98131AC0E889F9898081BC
:1053200085FF15C09FB7F894EE89FF896083E889EF
:10533000F98980818370806480839FBF81E090E0E1
:10534000DF91CF911F910F91FF90EF900895F62E6E
:105350000B8D10E00F5F1F4F0F731127E02E8C8D08
:105360008E110CC00FB607FCFACFE889F98980814D
:1053700085FFF5CFCE010E943E29F1CFEB8DEC0FDA
:10538000FD2FF11DE35AFF4FF0829FB7F8940B8F6A
:10539000EA89FB8980818062CFCF1F920F920FB67E
:1053A0000F9211242F938F939F93EF93FF93E0918C
:1053B0009003F09191038081E0919603F09197031F
:1053C00082FD1BC09081809199038F5F8F73209124
:1053D0009A03821741F0E0919903F0E0E058FC4F06
:1053E000958F80939903FF91EF919F918F912F91CA
:1053F0000F900FBE0F901F9018958081F4CF1F92D1
:105400000F920FB60F9211242F933F934F935F93F8
:105410006F937F938F939F93AF93BF93EF93FF937C
:1054200080E893E00E943E29FF91EF91BF91AF91F8
:105430009F918F917F916F915F914F913F912F91AC
:105440000F900FBE0F901F90189580E893E00E9478
:10545000F32821E0892B09F420E0822F0895E0E869
:10546000F3E01382128288EE93E0A0E0B0E0848340
:105470009583A683B78389E591E09183808385EC4A
:1054800090E09587848784EC90E09787868780EC0E
:1054900090E0918B808B81EC90E0938B828B82ECFF
:1054A00090E0958B848B86EC90E0978B868B118EA9
:1054B000128E138E148E0895AF92BF92CF92DF9208
:1054C000EF92FF920F931F93CF93DF936C017B01B9
:1054D0008B01040F151FEB015E01AE18BF08C0174A
:1054E000D10759F06991D601ED91FC910190F081BD
:1054F000E02DC6010995892B79F7C501DF91CF9180
:105500001F910F91FF90EF90DF90CF90BF90AF90E1
:105510000895FB0101900020E9F73197AF01461B88
:10552000570BDC01ED91FC910280F381E02D099491
:10553000EF92FF920F931F93CF93DF938C017B0128
:10554000D0E0C0E0F701EC0FFD1F6491662361F02D
:10555000D801ED91FC910190F081E02DC8010995F1
:10556000892B11F02196EECFCE01DF91CF911F91C3
:105570000F91FF90EF9008956115710511F00C9453
:10558000892A90E080E00895DC01ED91FC91019082
:10559000F081E02D099467E671E00C94892A0F935D
:1055A0001F93CF93DF93EC010E94982A8C01CE01C8
:1055B0000E94CB2A800F911FDF91CF911F910F91F5
:1055C00008950F931F93CF93DF938C01D0E0C0E039
:1055D0006115710519F00E94892AEC01C8010E9429
:1055E000CB2A8C0F9D1FDF91CF911F910F910895B2
:1055F0008F929F92AF92BF92EF92FF920F931F9361
:10560000CF93DF93CDB7DEB7A1970FB6F894DEBF87
:105610000FBECDBF7C01FA01CB0119A2223008F4E4
:105620002AE08E010F5D1F4F822E912CB12CA12CF0
:10563000BF01A50194010E94AF2FF901CA016A3090
:105640000CF5605DD8016E938D01232B242B252B47
:1056500079F790E080E0109721F0BD01C7010E942A
:10566000892AA1960FB6F894DEBF0FBECDBFDF9199
:10567000CF911F910F91FF90EF90BF90AF909F90AF
:105680008F900895695CDECFCF92DF92EF92FF9208
:105690000F931F93CF93DF932115310581F4DC0124
:1056A000ED91FC910190F081E02D642FDF91CF917D
:1056B0001F910F91FF90EF90DF90CF9009942A30C7
:1056C000310501F52AE077FF1DC06A017B01EC017D
:1056D0006DE20E94C42A8C0144275527BA014C1957
:1056E0005D096E097F092AE0CE010E94F82A800F29
:1056F000911FDF91CF911F910F91FF90EF90DF905D
:10570000CF900895DF91CF911F910F91FF90EF906F
:10571000DF90CF900C94F82A9A01AB01770F660BBB
:10572000770B0C94442B0F931F93CF93DF93EC01D3
:105730000E94442B8C01CE010E94CB2A800F911F26
:10574000DF91CF911F910F9108952115310541F4FB
:10575000DC01ED91FC910190F081E02D642F099422
:105760000C94F82A9A01462F50E070E060E00C9407
:10577000A52B0F931F93CF93DF93EC010E94B22BC5
:105780008C01CE010E94CB2A800F911FDF91CF9117
:105790001F910F910895CF92DF92EF92FF926B01CC
:1057A0007C01C114D104E104F10441F00E949F3155
:1057B000A70196010E94D12F6B017C01C701B601A0
:1057C000FF90EF90DF90CF900895CF92DF92EF920D
:1057D000FF926B017C01C216D306E406F50664F461
:1057E000CA01B9016C197D098E099F090E94CB2B52
:1057F000C60ED71EE81EF91EC701B601FF90EF9036
:10580000DF90CF9008954F925F926F927F92AF9208
:10581000BF92CF92DF92EF92FF920F931F93CF939D
:10582000DF93CDB7DEB729013A019B01AC01241902
:1058300035094609570989899A89AB89BC89BC0110
:10584000CD016A197B098C099D090E94932FA8013B
:10585000970124193509460957090E94D12FCA0119
:10586000B9016A0D7B1D8C1D9D1DDF91CF911F918C
:105870000F91FF90EF90DF90CF90BF90AF907F900F
:105880006F905F904F90089508950E94F1270E94B5
:10589000442C0E94140AC0E3D9E20E940D0C209708
:1058A000E1F30E943029F9CF08955058BB27AA2769
:1058B0000E946D2C0C94802E0E94722E38F00E9453
:1058C000792E20F039F49F3F19F426F40C94482ED9
:1058D0000EF4E095E7FB0C94422EE92F0E94912EE6
:1058E00058F3BA17620773078407950720F079F415
:1058F000A6F50C94B32E0EF4E0950B2EBA2FA02D26
:105900000B01B90190010C01CA01A0011124FF276C
:10591000591B99F0593F50F4503E68F11A16F04067
:10592000A22F232F342F4427585FF3CF4695379566
:105930002795A795F0405395C9F77EF41F16BA0B2B
:10594000620B730B840BBAF09150A1F0FF0FBB1FD9
:10595000661F771F881FC2F70EC0BA0F621F731F22
:10596000841F48F4879577956795B795F7959E3F7F
:1059700008F0B0CF9395880F08F09927EE0F979510
:10598000879508950E94722E60F080E891E009F4F6
:105990009EEF0E94792E28F040E851E071F45EEF0E
:1059A0000CC00C94482E0C94B32EE92FE0780E9482
:1059B000912E40F3092E052AB1F326173707480721
:1059C000590738F00E2E07F8E02569F0E025E0646D
:1059D0000AC0EF6307F8009407FADB01B9019D01E3
:1059E000DC01CA01AD01EF930E94502D0E94802E70
:1059F0000E94052D5F91552339F02BED3FE049E4DE
:105A000050FD49EC0C94562C0895DF93DD27B92FF7
:105A1000BF7740E85FE31616170648075B0718F4E0
:105A2000D92F0E94BF2E9F938F937F936F930E94D5
:105A30007A2FE8E6F0E00E944B2E0E94802E2F91F4
:105A40003F914F915F910E94DA2EDD2351F09058E3
:105A5000A2EA2AED3FE049EC5FE3D0785D270E949F
:105A60006D2CDF910C94802E0E941E2E08F481E094
:105A700008950E944D2D0C94802E0E94792E58F08E
:105A80000E94722E40F029F45F3F29F00C94422EC0
:105A900051110C94B42E0C94482E0E94912E68F350
:105AA0009923B1F3552391F3951B550BBB27AA27D7
:105AB00062177307840738F09F5F5F4F220F331F11
:105AC000441FAA1FA9F335D00E2E3AF0E0E832D0D9
:105AD00091505040E695001CCAF72BD0FE2F29D0DC
