:100000000C9467000C948F000C948F000C94F80CE7
:100010000C94CB0C0C949E0C0C948F000C948F00C1
:100020000C948F000C94BF0B0C948F000C94E20B7B
:100030000C948F000C948F000C948F000C948F0004
:100040000C94F2090C948F000C94620A0C943C0AF4
:100050000C948F000C948F000C948F000C948F00E4
:100060000C94940A0C948F000000000024002700D8
:100070002A0000000000250028002B0004040404CE
:100080000404040402020202020203030303030342
:10009000020203010204081020408001020408103B
:1000A00020010204081020408040000000090003E5
:1000B000020000040508000000000000000000002D
:1000C000000000000023002600290000400D11243C
:1000D0001FBECFEFD8E0DEBFCDBF12E0A0E0B1E0A1
:1000E000E0E6FAE302C005900D92AA30B107D9F715
:1000F00024E0AAE0B2E001C01D92A538B207E1F702
:1001000010E0C7E6D0E004C02197FE010E94031C66
:10011000C636D107C9F70E943D0E0C942E1D0C94D3
:1001200000003FB7F8942091B200B89B16C0209110
:10013000B2008091E4039091E503A091E603B091B1
:10014000E7030196A11DB11D8093E4039093E5039D
:10015000A093E603B093E703B89A6091E40370912B
:10016000E5038091E6039091E703982F872F762F80
:100170006627620F711D811D911D6093E8037093C6
:10018000E9038093EA039093EB033FBF0895282F80
:100190009091160381E0913208F042C08091F20202
:1001A0008111FCCF8091150332E03093F20220934D
:1001B000F1022FEF2093F00225EF32E03093EF02AF
:1001C0002093EE021092ED029093EC021092EB025B
:1001D0009091EB02880F892B8093EB028091EA02C9
:1001E000813029F51092EA028091EB028093BB00E6
:1001F0008091BC0083FDF8CF85EC8093BC0080919A
:10020000F2028230E1F38091F0028F3F91F0809111
:10021000F002803281F08091F002803371F084E04E
:100220001092F402109216031092F302089585EED4
:10023000E4CF80E0F5CF82E0F3CF83E0F1CF8430EC
:1002400081F028F48230E9F08330F9F008958830A5
:1002500071F0893091F08530B9F4809180008F7D04
:1002600003C0809180008F778093800008958091F3
:10027000B0008F778093B00008958091B0008F7D9B
:10028000F9CF84B58F7784BD089584B58F7DFBCF7A
:10029000CF93DF93E6EBF0E08491EFE9F0E0D491C7
:1002A000E8E8F0E0C491CC23A1F081110E941F0185
:1002B000EC2FF0E0EE0FFF1FEF53FF4FA591B4912D
:1002C000EC91ED2381E090E009F480E0DF91CF91A3
:1002D000089580E090E0FACF1F93CF93DF93282F0B
:1002E00030E0F901E655FF4F8491F901ED56FF4FDB
:1002F000D491F901E458FF4FC491CC23A9F0162FF3
:1003000081110E941F01EC2FF0E0EE0FFF1FEE584D
:10031000FF4FA591B4918FB7F894EC91111108C0DB
:10032000D095DE23DC938FBFDF91CF911F9108958D
:10033000DE2BF8CFCF93DF9390E0FC01ED56FF4F1B
:10034000249184589F4FFC0184918823C9F090E048
:10035000880F991FFC01E859FF4FA591B491FC014A
:10036000EE58FF4FC591D49161110DC09FB7F8941D
:100370008C91209582238C938881282328839FBF8A
:10038000DF91CF910895623051F49FB7F8943C917A
:10039000822F809583238C93E8812E2BEFCF8FB70C
:1003A000F894EC912E2B2C938FBFEACF1F93CF9311
:1003B000DF93EC01162F88818C3008F050C061E08B
:1003C000812F0E949A018881282F30E0F901EE0FD9
:1003D000FF1FE20FF31FE95EFC4F1F736081607C1B
:1003E000612B608394E2998397EE9A832CE0622FCD
:1003F0000E94F71B829FB001112430E020E0AB0186
:10040000420F531FFA01EE0FFF1FE40FF51FE95EC5
:10041000FC4F908196FD16C02F5F3F4F2C30310569
:1004200071F781110FC01092800082E080938100EB
:100430001092850010928400B19A80916F008260C2
:1004400080936F00E8818E2F90E0FC01EE0FFF1F7C
:10045000E80FF91FE95EFC4F80818064808388810A
:10046000DF91CF911F910895883020F08D3008F4EE
:100470008DE08E508770806480937C0080917A003C
:10048000806480937A0080917A0086FDFCCF809111
:1004900078009091790008953FB7F8948091E60232
:1004A0009091E702A091E802B091E90226B5A89BDD
:1004B00005C02F3F19F00196A11DB11D3FBFBA2FF6
:1004C000A92F982F8827BC01CD01620F711D811DB6
:1004D000911D42E0660F771F881F991F4A95D1F73B
:1004E00008952FB7F8946091E2027091E302809131
:1004F000E4029091E5022FBF089508950895AF9208
:10050000BF92CF92DF92EF92FF920F931F93CF9300
:10051000DF936C017B018B01040F151FEB015E0162
:10052000AE18BF08C017D10759F06991D601ED91F7
:10053000FC910190F081E02DC6010995892B79F796
:10054000C501DF91CF911F910F91FF90EF90DF9048
:10055000CF90BF90AF900895FC01538D448D252F0F
:1005600030E0842F90E0821B930B541710F0CF964D
:10057000089501970895FC01918D828D981761F07F
:10058000A28DAE0FBF2FB11D5D968C91928D9F5F96
:100590009F73928F90E008958FEF9FEF0895FC0175
:1005A000918D828D981731F0828DE80FF11D858D28
:1005B00090E008958FEF9FEF0895FC01918D228DBB
:1005C000892F90E0805C9F4F821B91098F73992740
:1005D00008958BE393E00E94DD0221E0892B09F46A
:1005E00020E0822F089580E090E0892B29F00E947E
:1005F000E90281110C9400000895FC01A48DA80F5C
:10060000B92FB11DA35ABF4F2C91848D90E0019654
:100610008F739927848FA689B7892C93A089B18974
:100620008C91837080648C93938D848D981306C015
:100630000288F389E02D80818F7D80830895EF9279
:10064000FF920F931F93CF93DF93EC0181E0888F8C
:100650009B8D8C8D98131AC0E889F989808185FF5C
:1006600015C09FB7F894EE89FF896083E889F989FE
:1006700080818370806480839FBF81E090E0DF9100
:10068000CF911F910F91FF90EF900895F62E0B8D53
:1006900010E00F5F1F4F0F731127E02E8C8D8E110E
:1006A0000CC00FB607FCFACFE889F989808185FF75
:1006B000F5CFCE010E94FD02F1CFEB8DEC0FFD2FA7
:1006C000F11DE35AFF4FF0829FB7F8940B8FEA8930
:1006D000FB8980818062CFCFCF93DF93EC01888D3F
:1006E0008823B9F0AA89BB89E889F9898C9185FDAD
:1006F00003C0808186FD0DC00FB607FCF7CF8C913B
:1007000085FFF2CF808185FFEDCFCE010E94FD02F3
:10071000E9CFDF91CF91089585ED8093BC00809162
:10072000BC0084FDFCCF1092F20208952091630278
:10073000260F3327331F21323105ECF42091F202CA
:10074000FC0190E080E0243069F082E00895A091FF
:1007500063022191AC014D5B5D4FA40FB52FB11D1C
:100760002C930196861798F380916302680F60932B
:10077000630280E0089581E008950895E0918B027E
:1007800080918A02E81730F4F0E0ED5DFD4F808142
:1007900090E008958FEF9FEF089590918B028091E4
:1007A0008A022FEF3FEF981748F4E92FF0E0ED5D54
:1007B000FD4F208130E09F5F90938B02C901089527
:1007C00080918A0290918B02891B990B0895CF9298
:1007D000DF92EF92FF920F931F93CF93DF937C01F1
:1007E000CB018A012091F302222389F0EB016B01F6
:1007F000C40ED51ECC15DD0569F06991D701ED91C8
:10080000FC910190F081E02DC7010995F3CF642F91
:100810000E949603C801DF91CF911F910F91FF9025
:10082000EF90DF90CF900895CF93DF931F92CDB7D5
:10083000DEB769832091F3022223F9F02091160399
:10084000203258F021E030E0FC013383228390E035
:1008500080E00F90DF91CF9108958091F402E82F0E
:10086000F0E0EB50FD4F998190838F5F8093F4020D
:100870008093160381E090E0ECCF61E0CE01019619
:100880000E949603F7CFCF93DF93EA0191E0909314
:10089000F302809315031092F4021092160388ED70
:1008A00093E00E941404688188ED93E00E94140490
:1008B00081E00E94C70091E0811190E0892FDF91D3
:1008C000CF91089590E080E008952F923F924F924B
:1008D0005F926F927F928F929F92AF92BF92CF92D0
:1008E000DF92EF92FF920F931F93CF93DF93CDB7D9
:1008F000DEB72A970FB6F894DEBF0FBECDBF9A873A
:1009000089872A013B01DC011C964D925D926D9214
:100910007C921F970E944C026B017C01E985FA854D
:10092000818D928DA38DB48DA7019601281B390B63
:100930004A0B5B0BCA01B9010E94751A2DEB37E314
:1009400046E855E30E942A1B4B015C01A985BA8544
:100950005996CD92DD92ED92FC925C975496CD9093
:10096000DD90ED90FC90579720E030E0A9010E94C7
:10097000C61987FDAFC0A701960160E070E080E86E
:100980009FE30E94CB19162F072F382E292E262FD2
:10099000372F482F592FB401C5010E94251B181667
:1009A00024F0182D092D3A2C2B2CA7019601C701F4
:1009B000B6010E942A1B6D837E838F839887E98509
:1009C000FA8584809580A680B7802081318142811C
:1009D000538129833A834B835C839B01AC01C30120
:1009E000B2010E942A1B2B013C01E985FA8520896E
:1009F000318942895389C701B6010E94CB19A501EB
:100A000094010E942A1B9B01AC01C301B2010E9408
:100A100059196B017C012D813E814F815885698177
:100A20007A818B819C810E942A1B9B01AC01C701AA
:100A3000B6010E945919212F302F432D522D0E94AB
:100A40002A1BA50194010E945A196B017C01AC017B
:100A50009B01C501B4010E945A1920E030E040E03A
:100A60005FE30E942A1BA985BA8518966D937D9332
:100A70008D939C931B97212F302F432D522D0E9435
:100A80002A1B29813A814B815C810E945A19E98590
:100A9000FA856083718382839383C482D582E682E0
:100AA000F7822A960FB6F894DEBF0FBECDBFDF9156
:100AB000CF911F910F91FF90EF90DF90CF90BF905B
:100AC000AF909F908F907F906F905F904F903F90EE
:100AD0002F90089510E000E0312C212C66CFDC012E
:100AE000EC91EC3090F511968C91119728E830E05C
:100AF000281B310987FD3395220F331F220F331F27
:100B00006217730784F012968C9128E532E0281B57
:100B1000310987FD3395220F331F220F331F6217D0
:100B200073070CF49B0122503109220F331F4FB77A
:100B3000F8948E2F90E0FC01EE0FFF1FE80FF91FD5
:100B4000E95EFC4F328321834FBF0895FF920F93DC
:100B50001F93CF93DF938C01D80117968C91179731
:100B60002091190215969C911597309119021696AD
:100B70004C911697C0911902C095C4239323C92B99
:100B80008227FC2EF8228091190217968C931797D2
:100B90001896CD91DC912097B1F08B81982F9F21F1
:100BA00071F090911902892391E009F490E09093FB
:100BB00018028C8180932002E881F98109950D80CB
:100BC000DE81C02DE8CF9BB3F8018481982351F0DA
:100BD0009BB3892B8BBB0190F081E02D80818093AA
:100BE0001902BACFDF91CF911F910F91FF90089515
:100BF000CF93DF9390E0FC01E458FF4FE491EE23A4
:100C000009F444C0E250FF0BB0E0A0E0E330F1058E
:100C100030F4EE0FFF1FE05FFE4FA081B1818D56D3
:100C20009F4FFC0184911896CD91DC9119972097E4
:100C300069F19B8198132DC02FB7F8941296ED910E
:100C4000FC91139790818095892380831296ED9172
:100C5000FC9113978081811109C0909168001496CE
:100C60008C911497809589238093680015969C91A8
:100C700015978B818095982315969C9315971696BA
:100C80009C911697892316968C932FBFDF91CF9155
:100C900008950D80DE81C02DCACFCF93DF93FC0174
:100CA000DB0112962C93129711965C934E93C2819E
:100CB000D381888113969C911397892B88831296F0
:100CC0008C911297982F9D7F913031F495811396D6
:100CD0002C911397922B95838150823028F4868132
:100CE00013969C91892B8683809168009481892B2F
:100CF00080936800DF91CF910895FC01019000205E
:100D0000E9F73197AF01481B590BBC018BE393E026
:100D10000C947F028F929F92AF92BF920F931F937A
:100D2000CF93DF93CDB7DEB7A1970FB6F894DEBFB0
:100D30000FBECDBF19A2423008F44AE08E010F5D0C
:100D40001F4F842E912CB12CA12CA50194010E943F
:100D50002819E62FB901CA01EA30F4F4E05DD801A0
:100D6000EE938D01232B242B252B79F790E080E047
:100D7000109719F0CD010E947D06A1960FB6F89448
:100D8000DEBF0FBECDBFDF91CF911F910F91BF90FE
:100D9000AF909F908F900895E95CE1CFCF93DF9360
:100DA0000E947D06EC018AE391E00E947D068C0F93
:100DB0009D1FDF91CF9108950C947D06CF92DF9215
:100DC000EF92FF92CF93DF936C01990FEE08FF082B
:100DD000F7FE19C06DE28BE393E00E941F03EC0164
:100DE00066277727CB016C197D098E099F094AE098
:100DF0000E948A068C0F9D1FDF91CF91FF90EF908C
:100E0000DF90CF9008954AE0C701B601DF91CF91FE
:100E1000FF90EF90DF90CF900C948A064F925F92F4
:100E20006F927F928F929F92AF92BF92CF92DF92FA
:100E3000EF92FF926B017C01AC019B010E94DD1BD4
:100E4000882381F08DE391E0FF90EF90DF90CF90C9
:100E5000BF90AF909F908F907F906F905F904F90DA
:100E60000C947D0646015701E894B7F82FEF3FEF49
:100E70004FE75FE7C501B4010E94DD1B81110DC082
:100E80002FEF3FEF4FE75FE7C501B4010E94C6199E
:100E900018161CF481E491E0D7CF2FEF3FEF4FE716
:100EA0005FE4C701B6010E94251B18161CF485E4F7
:100EB00091E0CACF2FEF3FEF4FE75FECC701B601DC
:100EC0000E94C61987FDF3CF20E030E0A901C701D9
:100ED000B6010E94C619B12CA12C87FF0AC06DE291
:100EE0008BE393E00E941F035C01F7FAF094F7F89C
:100EF000F0942AE037ED43EA5BE3C701B6010E94B4
:100F00005A192B013C010E94441A6B017C010E947A
:100F1000731A9B01AC01C301B2010E9459192B0144
:100F20003C014AE0C701B6010E948A067C01EA0C36
:100F3000FB1C6EE28BE393E00E941F03E80EF91E98
:100F400020E030E040E251E4C301B2010E942A1BDC
:100F50002B013C010E94441A4B01B12CA12C4AE008
:100F6000C501B4010E948A06E80EF91EC501B4014C
:100F70000E94731A9B01AC01C301B2010E9459196E
:100F800020E030E040E251E40E942A1B0E94441A13
:100F900090E080E04AE00E948A068E0D9F1DFF903F
:100FA000EF90DF90CF90BF90AF909F908F907F9009
:100FB0006F905F904F9008952F923F924F925F9263
:100FC0006F927F928F929F92AF92BF92CF92DF9259
:100FD000EF92FF920F931F93CF93DF9300D000D037
:100FE00000D01F92CDB7DEB7782E662EF42E3D834B
:100FF0002C830E9471024B015C01272D220F2B8351
:10100000DF2CC12C1E82EE24E3948F2D90E09A8376
:1010100089831801512C412CE092F3027092150340
:101020001092F40210921603662D88ED93E00E9450
:10103000140481E00E94C700E092F3021092F402CF
:10104000109216038091F2028111FCCFDF8290E2B0
:101050009D1510F420E22F83E092F202E092F1025B
:101060003FEF3093F00283E292E09093EF0280939F
:10107000EE021092ED028F8181508093EC02E0929B
:10108000EB028091EB029B81892B8093EB02809194
:10109000EA028130A9F51092EA028091EB02809376
:1010A000BB008091BC0083FDF8CF25EC2093BC00F1
:1010B0008091F2028130E1F38091ED029F818917E6
:1010C00018F42091ED022F8310928B023F81309310
:1010D0008A0280918B029F81981709F101151105F1
:1010E00099F488ED93E00E94CD03EC81FD812E817F
:1010F000E20FF11D27FDFA9580832F5F2E83E9CF44
:1011000035EE3093BC00D4CF0E9471026819790982
:101110008A099B09621573058405950510F3CF0CA8
:10112000DF18CF1408F478CF01151105C1F00E9423
:101130007102681979098A099B0930E020E060177B
:1011400071078207930758F03E81832F330F990B65
:1011500029813A818217930714F43FEF3E838E81F1
:1011600027960FB6F894DEBF0FBECDBFDF91CF91AB
:101170001F910F91FF90EF90DF90CF90BF90AF90B5
:101180009F908F907F906F905F904F903F902F90A7
:101190000895BF92CF92DF92EF92FF920F931F9329
:1011A000CF93DF9300D0CDB7DEB7F82EE62EC42E56
:1011B000B22ED02E08EE13E09E012E5F3F4F41E08D
:1011C0000E94DC07882399F18C2D8B19990BAC01B7
:1011D0004F5F5F4F81E090E002C0880F991FBA9483
:1011E000E2F70197042E01C0880F0A94EAF70D2D4B
:1011F00001C0000F4A95EAF7982F90952A81922313
:101200008023892B8A838983AE014F5F5F4F6E2DC8
:101210008F2D0E9443040F900F90DF91CF911F916B
:101220000F91FF90EF90DF90CF90BF90089580E0F6
:10123000F2CF8F929F92AF92BF92CF92DF92EF92B6
:10124000FF920F931F93CF93DF93C82FD0E0FE013F
:10125000E458FF4FA491A1110EC08FEFDF91CF9101
:101260001F910F91FF90EF90DF90CF90BF90AF90C4
:101270009F908F900895A250BB0B10E000E0A33028
:10128000B10530F4AA0FBB1FA05FBE4F0D911C919A
:10129000942E6B01882ED801ED91FC9111978081DD
:1012A00017968C9317971896AD90BC907501A11462
:1012B000B10421F4F12CE12C11C07C01F7018481EF
:1012C000881208C0292DA601B701C8010E944D0649
:1012D00080E0C4CF85819681009779F787E090E020
:1012E0000E94091CDC0111961C921E9212961C92FF
:1012F0001297009709F4B1CF14968C921497129616
:101300009C92129716961C921E921597FE01ED560E
:10131000FF4FE4911396EC931397AB2859F4F8011F
:1013200091878087292DA601BD01C8010E944D0625
:1013300081E094CFF70196838583F4CFCF93C0915A
:1013400020028C2F90E090931F0280931E020E9437
:101350009100969587957795679560931A0270939B
:101360001B0280931C0290931D028C2F0E94F80593
:1013700042E050E060EC79E08C2FCF910C94190999
:101380000F931F93CF93C09120028C2F90E09093E6
:101390001F0280931E020E94910096958795779573
:1013A000679500911A0210911B0220911C02309146
:1013B0001D02601B710B820B930B6093BD02709337
:1013C000BE028093BF029093C0028C2F0E94F8054A
:1013D00043E050E06EE979E08C2FCF911F910F919F
:1013E0000C9419091F920F920FB60F9211242F938C
:1013F0003F938F939F93AF93BF938091E20290911D
:10140000E302A091E402B091E5023091E10223E011
:10141000230F2D3768F126E8230F0296A11DB11D79
:101420002093E1028093E2029093E302A093E4020E
:10143000B093E5028091E6029091E702A091E80264
:10144000B091E9020196A11DB11D8093E60290932F
:10145000E702A093E802B093E902BF91AF919F9198
:101460008F913F912F910F900FBE0F901F90189565
:101470000196A11DB11DD4CF1F920F920FB60F92EE
:1014800011242F933F934F935F936F937F938F9389
:101490009F93AF93BF93EF93FF938BE393E00E94EF
:1014A000FD02FF91EF91BF91AF919F918F917F913D
:1014B0006F915F914F913F912F910F900FBE0F90C1
:1014C0001F9018951F920F920FB60F9211242F9311
:1014D0008F939F93EF93FF93E0914B03F0914C0315
:1014E0008081E0915103F091520382FD1BC09081F5
:1014F000809154038F5F8F7320915503821741F0C1
:10150000E0915403F0E0E55CFC4F958F8093540329
:10151000FF91EF919F918F912F910F900FBE0F90A0
:101520001F9018958081F4CF1F920F920FB60F92E3
:1015300011242F933F934F935F936F937F938F93D8
:101540009F93AF93BF93EF93FF938091B900887FF0
:10155000803609F44AC0F0F5883209F4A7C018F5BE
:10156000803109F49BC0B8F4882309F405C18830A0
:1015700009F494C0FF91EF91BF91AF919F918F912A
:101580007F916F915F914F913F912F910F900FBE7F
:101590000F901F901895883109F488C0803251F758
:1015A0008093F00214C0803409F4A5C040F4803365
:1015B000B9F38833F9F68093F00285ECBCC080352E
:1015C00009F489C0883509F49EC0883499F60E94D0
:1015D0008C03D0CF883909F494C038F5883729F0C6
:1015E00050F4883611F0803729F683E08093F202B8
:1015F0001092850257C0883809F483C0803919F0E9
:10160000803809F0B7CF80918502803208F079C028
:10161000E091850281E08E0F809385028091BB006E
:10162000F0E0EB59FD4F80833DC0803B39F0E0F4A2
:10163000803A09F485C0883A09F09CCF84E0809311
:10164000F2021092640210926302E0918802F0911B
:10165000890209958091630281110FC081E0809316
:1016600063021092430209C0803C09F4A6CF883C73
:1016700009F4A3CF883B09F07DCFE091640281E0BB
:101680008E0F80936402F0E0ED5BFD4F80818093CC
:10169000BB00909164028091630231C08091EB02A3
:1016A0008093BB0085EC8093BC0064CF9091ED02E9
:1016B0008091EC029817B8F58091EE029091EF02BC
:1016C000E091ED0221E02E0F2093ED02E80FF92FBB
:1016D000F11D8081E5CF2091EE023091EF02E09183
:1016E000ED0281E08E0F8093ED028091BB00E20F4E
:1016F000F32FF11D80839091ED028091EC029817F9
:1017000088F285E8D0CF2091EE023091EF02E0918F
:10171000ED0281E08E0F8093ED028091BB00E20F1D
:10172000F32FF11D80838091F102811150CF81E070
:101730008093EA0284EA8093BC001092F2021ACFEE
:1017400085EC8093BC001092F20280918502803279
:1017500030F4E0918502F0E0EB59FD4F108260918A
:10176000850270E0E0918602F091870285E692E0C2
:10177000099510928502FECE1092F00228CF1F929A
:101780000F920FB60F9211248F939F93AF93BF9335
:10179000EF93FF93E4EEF3E080819181A281B38126
:1017A0000196A11DB11D80839183A283B383FF9114
:1017B000EF91BF91AF919F918F910F900FBE0F90BE
:1017C0001F9018951F920F920FB60F9211242F930E
:1017D0003F934F935F936F937F938F939F93AF93B9
:1017E000BF93CF93DF93EF93FF9380912102C0913A
:1017F0002202D0E087FF24C010928500109284005E
:10180000809121028F5F8093210280912102082E16
:10181000000C990B8C179D0724F4809121028C30C9
:10182000C4F18091840090918500049680349C4995
:1018300008F47AC08091840090918500049676C067
:1018400080912102082E000C990B8C179D07C4F67D
:10185000E09121028E2FEE0F990BFC01EE0FFF1F7E
:10186000E80FF91FE95EFC4F808186FFC9CFE09148
:1018700021028E2FEE0F990BFC01EE0FFF1FE80FD8
:10188000F91FE95EFC4F808160E08F730E946C015C
:10189000B7CF2091840030918500E09121028E2FF6
:1018A000EE0F990BFC01EE0FFF1FE80FF91FE95E29
:1018B000FC4F81819281820F931F909389008093C6
:1018C0008800E09121028E2FEE0F990BFC01EE0FA4
:1018D000FF1FE80FF91FE95EFC4F808186FF11C0F2
:1018E000E09121028E2FEE0F990BFC01EE0FFF1FEE
:1018F000E80FF91FE95EFC4F808161E08F730E9461
:101900006C01FF91EF91DF91CF91BF91AF919F91CA
:101910008F917F916F915F914F913F912F910F9098
:101920000FBE0F901F90189580E49CE9909389005A
:10193000809388008FEF80932102E3CF1F920F9254
:101940000FB60F9211242F933F934F935F936F9392
:101950007F938F939F93AF93BF93EF93FF93E09108
:101960006304F091640480818093190283E694E01B
:101970000E94A605FF91EF91BF91AF919F918F912A
:101980007F916F915F914F913F912F910F900FBE7B
:101990000F901F9018951F920F920FB60F9211245F
:1019A0002F933F934F935F936F937F938F939F9367
:1019B000AF93BF93EF93FF93E0916D04F0916E04AA
:1019C0008081809319028DE694E00E94A605FF9124
:1019D000EF91BF91AF919F918F917F916F915F91A7
:1019E0004F913F912F910F900FBE0F901F90189520
:1019F0001F920F920FB60F9211242F933F934F9384
:101A00005F936F937F938F939F93AF93BF93EF9366
:101A1000FF93E0917704F09178048081809319021C
:101A200087E794E00E94A605FF91EF91BF91AF91E7
:101A30009F918F917F916F915F914F913F912F91E6
:101A40000F900FBE0F901F901895FC0190912202ED
:101A50009C3098F481E0890F809322029083892F33
:101A600090E0FC01EE0FFF1FE80FF91FE95EFC4F4D
:101A700088EB9BE09283818308958FEF80830895A4
:101A80008F929F92AF92BF92CF92DF92EF92FF928E
:101A9000CF93DF93EBE3F3E01382128288EE93E0BF
:101AA000A0E0B0E084839583A683B7832AE131E088
:101AB0003183208325EC30E03587248724EC30E027
:101AC0003787268720EC30E0318B208B21EC30E00B
:101AD000338B228B22EC30E0358B248B26EC30E0EC
:101AE000378B268B118E128E138E148EE8EDF3E059
:101AF0001382128284839583A683B7838CE291E05C
:101B000091838083E4EEF3E01082118212821382CB
:101B10001482158216821782E5ECF0E0859194918B
:101B2000E7E7F4E0918380838BE690E09383828300
:101B300081E084831582168211861086E7ECF0E03E
:101B400085919491EDE6F4E0918380838CE690E0BA
:101B50009383828382E084831582168211861086A5
:101B6000E9ECF0E085919491E3E6F4E091838083E1
:101B70008DE690E09383828384E0848315821682CD
:101B80001186108688E68093540481E594E00E94D3
:101B9000250D8EE494E00E94250D8BE494E00E94D4
:101BA000250D88E494E00E94250D85E494E00E94D0
:101BB000250DC8E2D4E0188219821A821B821C8289
:101BC0001D821E821F82188E812C912C80E8A82EE7
:101BD0008FE3B82E888A998AAA8ABB8A9BEDC92E80
:101BE0009FE0D92E99ECE92E90E4F92ECC8ADD8A7B
:101BF000EE8AFF8A0E944C02698F7A8F8B8F9C8FAE
:101C0000CBE0D4E0188219821A821B821C821D82CA
:101C10001E821F82188E888A998AAA8ABB8ACC8AD9
:101C2000DD8AEE8AFF8A0E944C02698F7A8F8B8F41
:101C30009C8FCEEED3E0188219821A821B821C82FE
:101C40001D821E821F82188E888A998AAA8ABB8A60
:101C5000CC8ADD8AEE8AFF8A0E944C02698F7A8FD5
:101C60008B8F9C8FDF91CF91FF90EF90DF90CF9083
:101C7000BF90AF909F908F900895CF93DF93CDB793
:101C8000DEB7A5970FB6F894DEBF0FBECDBF789430
:101C900084B5836084BD85B5836085BD80916E0009
:101CA000816080936E0092E090938100809181002A
:101CB00081608093810080918000816080938000AA
:101CC0008091B10084608093B1008091B000816008
:101CD0008093B00087E880937A001092C1008091D1
:101CE000B0008093EC038091B1008093ED0380916C
:101CF000B100887F82608093B10080917000816024
:101D0000809370008091B0008C7F8093B0008091B0
:101D1000B100877F8093B100E0914B03F0914C03B9
:101D20009083E0914703F09148031082E0914903CA
:101D3000F0914A0380E1808310925303E0914F03B6
:101D4000F091500386E08083E0914D03F0914E03C3
:101D5000808188698083E0914D03F0914E038081FA
:101D60008F7D808389E491E00E94CE068DE691E02C
:101D70000E94CE0662E08CE00E949A0160E080E161
:101D80000E949A0160E081E10E949A0160E082E194
:101D90000E949A0160E087E00E949A0181E090E051
:101DA0000E94E018813011F00C9426188093BA023A
:101DB0000E944801892B69F48091BA02882311F4AA
:101DC0000C942A1860E081E090E00E94E8181092DC
:101DD000BA0210928B0210928A021092F4021092B0
:101DE00016031092F20281E08093F1021092EA024F
:101DF00061E082E10E946C0161E083E10E946C017C
:101E00008091B9008E7F8093B9008091B9008D7F59
:101E10008093B90088E48093B80085E48093BC0087
:101E20008DE792E090938902809388028EE792E09A
:101E300090938702809386028CE08093B80062E0E2
:101E400087E00E949A0143E050E06EE979E087E084
:101E50000E9419090E94910001E023E042E06BE634
:101E6000809154040E94C90800E022E044E06BE144
:101E7000809154040E94C90822E044E06CE1809102
:101E800054040E94C908F090540408EE13E09E0127
:101E90002E5F3F4F41E06BE68F2D0E94DC078A8169
:101EA0008F7B8A838983AE014F5F5F4F6BE68F2DF7
:101EB0000E9443048EE00E9434029093DE028093DD
:101EC000DD029C01990F440B550B2F5F33404109F4
:101ED0005109A8EDBFEF0E94231988248394ECEFE9
:101EE0009E2EAA24AA94BA2CA50194010E94F61849
:101EF000CA01B901685D7F4F8F4F9F4F0E94751ACD
:101F000020E030E040E251E40E94CB197B018C01DB
:101F1000CB01D8018093020190930301A0930401A7
:101F2000B09305018FE00E9434029093E002809309
:101F3000DF029C01990F440B550B2F5F3340410981
:101F40005109ACE8B0E00E941519A50194010E9466
:101F5000F618CA01B9010E94751A20E030E040E28B
:101F600051E40E94CB194B015C01809206019092D2
:101F70000701A0920801B09209011092400410924A
:101F800028041092290410922A0410922B048BED3D
:101F90009FE0A9E4B1E480933C0490933D04A093B6
:101FA0003E04B0933F048DEC9CECACE4BEE3809324
:101FB000380490933904A0933A04B0933B0426E686
:101FC00036E646E65FE3C501B4010E942A1B2B01F9
:101FD0003C011092230410920B0410920C041092F6
:101FE0000D0410920E0420E030E0A9010E94251B90
:101FF000181624F077FA709477F870942BED3FE080
:1020000049EC50E4C301B2010E942A1B60931F04F3
:102010007093200480932104909322042FE632E1F0
:1020200043E85AE3B701C8010E94C61987FF02C0FE
:102030000C94341820E030E04AE754E4B701C801BA
:102040000E94251B181614F00C943A1850E040E03A
:102050003AE724E4852F942FA32FB22F80931B04FB
:1020600090931C04A0931D04B0931E0410920604C8
:102070001092EE031092EF031092F0031092F1030E
:1020800020E030E0A901C501B4010E94251B18160B
:1020900024F0B7FAB094B7F8B0942BED3FE049ECD8
:1020A00050E4C501B4010E942A1B6093020470939E
:1020B000030480930404909305042FE632E143E87F
:1020C0005AE3B701C8010E94C61987FDD9C720E0AD
:1020D00030E04AE754E4B701C8010E94251B1816F6
:1020E00024F4E12CF12C0AE714E4C701D801809311
:1020F000FE039093FF03A0930004B093010469E0F2
:1021000070E081E594E00E94D60166E070E08EE424
:1021100094E00E94D60165E070E08BE494E00E94B8
:10212000D60163E070E088E494E00E94D60183EC7D
:1021300091E00E94CE060E9448018FE00E94340286
:102140006C019093E0028093DF028EE00E943402E3
:102150007C019093DE028093DD0286E00E943402CF
:10216000893E23E0920714F088EE93E084319105D4
:1021700014F484E190E09093DC028093DB0287E02A
:102180000E943402893E33E0930714F088EE93E016
:102190008431910514F484E190E09093DA02809305
:1021A000D90280E10E943402893E43E0940714F092
:1021B00088EE93E08431910514F484E190E09093EB
:1021C000D8028093D70281E10E9434028C01893EBB
:1021D000934014F008EE13E00431110514F404E107
:1021E00010E01093D6020093D5029601DD0C440B4B
:1021F000550B2F5F334041095109ACE8B0E00E9414
:10220000151921E03CEF4FEF5FEF0E94F618CA016D
:10221000B9010E94751A4B015C0120E030E040E2F8
:1022200051E40E94C61987FD32C720E030E040E744
:1022300052E4C501B4010E94251B181634F4812C08
:10224000912C50E7A52E52E4B52E20E030E040E27C
:1022500051E4C501B4010E94CB194B015C0180928D
:10226000060190920701A0920801B092090197011E
:10227000FF0C440B550B2F5F334041095109A8ED6A
:10228000BFEF0E94231921E03CEF4FEF5FEF0E9468
:10229000F618CA01B901685D7F4F8F4F9F4F0E94AA
:1022A000751A6B017C0120E030E040E050E40E94B0
:1022B000C61987FDF3C620E030E040E252E4C701D2
:1022C000B6010E94251B181634F4C12CD12C30E223
:1022D000E32E32E4F32E20E030E040E251E4C70187
:1022E000B6010E94CB196B017C01CB01D701809311
:1022F000020190930301A0930401B0930501209182
:10230000DB023091DC02032E000C440B550B2451F0
:10231000310941095109A8E8BFEF0E94231924EDB2
:1023200033E040E050E00E94F618CA01B901685855
:102330007F4F8F4F9F4F0E94751A20E030E040E2A0
:1023400051E40E94CB196093D1027093D202809322
:10235000D3029093D4022091D9023091DA02032E55
:10236000000C440B550B2451310941095109A8E3D4
:10237000BFEF0E94231924ED33E040E050E00E94BB
:10238000F6182C593F4F4F4F5F4FAAE0A29FC00154
:10239000A39F900D11249093D0028093CF02012E21
:1023A000000C220B330BA9019801285E3340410930
:1023B0005109A4E6B0E00E9415192CE23CEF4FEF62
:1023C0005FEF0E94F6182135310514F020E530E06A
:1023D0002431310514F424E130E0309301012093DD
:1023E00000012091D7023091D802032E000C440B3B
:1023F000550B285E334041095109A4E6B0E00E9424
:1024000015192CE23CEF4FEF5FEF0E94F6182536CE
:10241000310514F024E630E02A30310514F42AE0C6
:1024200030E0BAE0B29FC001B39F900D11249093A9
:10243000CE028093CD0208EE13E025E534E04EE0B5
:102440006BE3809154040E94DC07809155049091C5
:1024500056049827892798279093CC028093CB0223
:102460008091570490915804982789279827909332
:10247000CA028093C9028091590490915A04982706
:10248000892798279093C8028093C70280915D04A2
:1024900090915E049827892798279093C60280938D
:1024A000C50280915F04909160049827892798273E
:1024B0009093C4028093C30280916104909162045E
:1024C0009827892798279093C2028093C1022FE60C
:1024D00032E143E85AE3B601C7010E94C61987FDFD
:1024E000E3C520E030E04AE754E4B601C7010E94AA
:1024F000251B18160CF0DDC550E040E03AE724E457
:10250000852F942FA32FB22F80931B0490931C042C
:10251000A0931D04B0931E0426E636E646E65FE36C
:10252000C501B4010E942A1B2B013C0120E030E0D0
:10253000A9010E94251B181624F077FA709477F8E9
:1025400070942BED3FE049EC50E4C301B2010E94CE
:102550002A1B60931F04709320048093210490939E
:1025600022042FE632E143E85AE3B601C7010E9494
:10257000C61987FDA3C520E030E04AE754E4B60160
:10258000C7010E94251B181634F4C12CD12C8AE7F0
:10259000E82E94E4F92EC601D7018093FE039093B0
:1025A000FF03A0930004B093010420E030E0A901F0
:1025B000C501B4010E94251B181624F0B7FAB09487
:1025C000B7F8B0942BED3FE049EC50E4C501B401FD
:1025D0000E942A1B609302047093030480930404F6
:1025E000909305046091BD027091BE028091BF027C
:1025F0009091C0020E94751AAB01BC0188E294E080
:102600000E946504609128047091290480912A0435
:1026100090912B040E943D1A7093BC026093BB0200
:102620008091BA02811153C56091C5027091C602B2
:10263000072E000C880B990B0E94751AAB01BC0188
:102640008BE094E00E94650460910B0470910C048F
:1026500080910D0490910E040E943D1A7093B9026E
:102660006093B8026091C3027091C402072E000CFF
:10267000880B990B0E94751AAB01BC018EEE93E09A
:102680000E9465046091EE037091EF038091F00366
:102690009091F1030E943D1A7093B7026093B602C5
:1026A0002091B6023091B702032E000C440B550B5B
:1026B0002053354741095109A0EDB7E00E94151993
:1026C00020EA35E14FEF5FEF0E94F618CA01B90129
:1026D0000E94751A6B877C878D879E876093B202F4
:1026E0007093B3028093B4029093B5022091B80224
:1026F0003091B902032E000C440B550B205838437F
:1027000041405109A0EDB7E00E94151920E03FE8D3
:102710004DEF5FEF0E94F618CA01B9010E94751AC9
:102720006B017C01C092AE02D092AF02E092B00287
:10273000F092B1020E9471026838734181059105DF
:1027400008F0EBC41092AD021092AC02A701960102
:10275000C701B6010E942A1B6F83788789879A87F1
:102760002B853C854D855E8560E070E08AEF94E4C2
:102770000E9459199B01AC010E942A1B6B837C8328
:102780008D839E832F81388549855A850E945A19E9
:102790000E949D1B4B015C018091D1029091D2025D
:1027A000A091D302B091D4028B8B9C8BAD8BBE8B4E
:1027B0006091CF027091D002072E000C880B990B0C
:1027C0000E94751A6F8B788F898F9A8F6091AC02F7
:1027D0007091AD02072E000C880B990B0E94751AA0
:1027E0002B013C0128EB36EC40EB54E4C501B4016D
:1027F0000E9459192B893C894D895E890E942A1BA8
:1028000028EB36EC40EB54E40E945A192F89388D9E
:10281000498D5A8D0E945A19A30192010E945A199A
:1028200020E030E0A9010E945A1920E030E0A9011F
:102830000E945A196F87788B898B9A8B20E030E041
:10284000A9010E94C61987FD97C420E030EC40E33F
:1028500055E46F85788989899A890E94251B181605
:1028600044F480E090ECA0E3B5E48F87988BA98BCB
:10287000BA8BA701960160E070E08AEF94E40E94B1
:1028800059199B01AC010E942A1B4B015C01AC0150
:102890009B016B817C818D819E810E945A190E94CF
:1028A0009D1B28EB36EC40EB54E40E9459192B8910
:1028B0003C894D895E890E942A1B28EB36EC40EB4F
:1028C00054E40E945A192F89388D498D5A8D0E94DF
:1028D0005A19A30192010E945A1920E030E0A9017F
:1028E0000E945A196B837C838D839E8320E030E0A5
:1028F000A9010E94C61987FD44C420E030EC40E3E2
:1029000055E46B817C818D819E810E94251B181668
:1029100044F480E090ECA0E3B5E48B839C83AD832A
:10292000BE832B853C854D855E85CA01B9010E9419
:102930002A1B6B017C012F81388549855A850E94AD
:102940005A190E949D1B28EB36EC40EB54E40E9480
:1029500059192B893C894D895E890E942A1B28EBD5
:1029600036EC40EB54E40E945A192F89388D498D7A
:102970005A8D0E945A19A30192010E945A1920E00F
:1029800030E0A9010E945A196F83788789879A8756
:1029900020E030E0A9010E94C61987FDF7C320E0BE
:1029A00030EC40E355E46F81788589859A850E94F3
:1029B000251B181644F480E090ECA0E3B5E48F8367
:1029C0009887A987BA87A5019401C701B6010E941B
:1029D0005A190E949D1B28EB36EC40EB54E40E94F0
:1029E00059192B893C894D895E890E942A1B28EB45
:1029F00036EC40EB54E40E945A192F89388D498DEA
:102A00005A8D0E945A19A30192010E945A192B0152
:102A10003C0120E030E0A9010E94C61987FDBBC33C
:102A200020E030EC40E355E4C301B2010E94251BD5
:102A300018163CF4412CF0EC5F2EF0E36F2EF5E419
:102A40007F2E809100019091010164E670E0681B87
:102A5000790B072E000C880B990B0E94751A20E049
:102A600030E048EC52E40E94CB196B877C878D875D
:102A70009E876091CD027091CE02660F771F072E60
:102A8000000C880B990B0E94751A4B015C01AC017C
:102A90009B016B857C858D859E850E942A1B6B0121
:102AA0007C0120E030E0A9010E94C61987FD77C3B0
:102AB00020E030E04AE754E4C701B6010E94251B3C
:102AC000181634F4C12CD12C6AE7E62E64E4F62EF5
:102AD000C701B6010E943D1A6B8F7C8F8D8F9E8F30
:102AE000AB8DBC8DB0939B02A0939A022B853C8545
:102AF0004D855E8560E070E080E89FE30E94591993
:102B0000A50194010E942A1B6B017C0120E030E0AA
:102B1000A9010E94C61987FD46C320E030E04AE7BC
:102B200054E4C701B6010E94251B181634F4C12CC9
:102B3000D12C5AE7E52E54E4F52EC701B6010E94C8
:102B40003D1A6B01709399026093980224EF31E073
:102B5000309397022093960284EC99E0909395022B
:102B60008093940230939302209392029093910267
:102B7000809390026F85788989899A890E943D1A8D
:102B80009B01AC01A0EDB7E00E9415192CE03BE0E1
:102B900040E050E00E94F618CA01B9016C507E4F27
:102BA0008F4F9F4F0E94751A6F877B878B8B9F8BF0
:102BB0006B817C818D819E810E943D1A9B01AC01BD
:102BC000A0E3B8EF0E9423192CE03BE040E050E086
:102BD0000E94F618CA01B9016C53764F8F4F9F4F70
:102BE0000E94751AB62EA72E982E892E6F81788591
:102BF00089859A850E943D1A9B01AC01A0EDB7E042
:102C00000E9415192CE03BE040E050E00E94F618CD
:102C1000CA01B9016C507E4F8F4F9F4F0E94751AA9
:102C20006B837F831C01C301B2010E943D1A9B018B
:102C3000AC01A0E3B8EF0E9423192CE03BE040E098
:102C400050E00E94F618CA01B9016C53764F8F4FBD
:102C50009F4F0E94751A6F8F78A389A39AA32B8D1B
:102C60003C8D24523A4F3CA32BA36CED75E08B8D29
:102C70009C8D681B790B072E000C880B990B0E940A
:102C8000751A2B013C019B01AC016F857B858B89FB
:102C90009F890E94C61987FD8AC2ABA1BCA1BD0154
:102CA000BB0F880B990B0E94751A6B8F7DA38C014B
:102CB0009B01AC016F857B858B899F890E94251BB9
:102CC000181634F4BB8DBF872DA12B870B8B1F8B60
:102CD0008F859B85AB89BF898093A8029093A902B9
:102CE000A093AA02B093AB029201A3016B2D7A2D9F
:102CF000892D982D0E94C61987FD18C0ABA1BCA1D3
:102D0000BD01BB0F880B990B0E94751A2B013C016A
:102D10009B01AC016B2D7A2D892D982D0E94251BCE
:102D2000181624F04B2C5A2C692C782CC201D30194
:102D30008093A4029093A502A093A602B093A70249
:102D40004601B4E28B1ABAEF9B0A6CED75E06C1980
:102D50007D09072E000C880B990B0E94751A7B01C8
:102D60008C019B01AC016B817F81C1010E94C6195E
:102D700087FD22C2B401092C000C880B990B0E941C
:102D8000751A5B016C019B01AC016B817F81C101F4
:102D90000E94251B18161CF4AB82BF8216018B8182
:102DA0009F81D1018093A0029093A102A093A202DF
:102DB000B093A3029701A8016F8D78A189A19AA170
:102DC0000E94C61987FD16C0B401990C880B990B97
:102DD0000E94751A7B018C019B01AC016F8D78A15B
:102DE00089A19AA10E94251B181624F0EF8CF8A047
:102DF00009A11AA1C701D80180939C0290939D025A
:102E0000A0939E02B0939F0288E391E00E94E01895
:102E10008D3E09F040C00E94710280908C0290901B
:102E20008D02A0908E02B0908F02681979098A09EC
:102E30009B09653171058105910568F16F857B8579
:102E40008B899F890E943D1A81E594E00E946F055D
:102E5000B201C3010E943D1A8EE494E00E946F0506
:102E60006B817F81C1010E943D1A8BE494E00E9436
:102E70006F05B701C8010E943D1A88E494E00E94E2
:102E80006F050E94710260938C0270938D02809393
:102E90008E0290938F020E944801892BC1F46CED41
:102EA00075E081E594E00E946F056CED75E08EE4BD
:102EB00094E00E946F056CED75E08BE494E00E9455
:102EC0006F056CED75E088E494E00E946F058EEC70
:102ED00091E00E94DC068091CF029091D0020E9486
:102EE000DE0686EE91E00E94DC0686ED91E00E940F
:102EF000DC066091D1027091D2028091D302909150
:102F0000D4020E940E0786EE91E00E94DC068CED52
:102F100091E00E94DC0680910001909101010E94E5
:102F2000DE0686EE91E00E94DC068FEE91E00E94C4
:102F3000DC068091CD029091CE02880F991F880FF8
:102F4000991F0E94DE0686EE91E00E94DC0681EE6B
:102F500091E00E94DC06609106017091070180916A
:102F60000801909109010E940E0786EE91E00E94EF
:102F7000DC0688EE91E00E94DC066091020170910F
:102F8000030180910401909105010E940E0786EED5
:102F900091E00E94DC068EEE91E00E94DC068091BA
:102FA0009A0290919B02880F991F0E94DE0686EE7E
:102FB00091E00E94DC0686EF91E00E94DC068091A1
:102FC000980290919902880F991F0E94DE0686EE62
:102FD00091E00E94DC068EEF91E00E94DC06609199
:102FE000A8027091A9028091AA029091AB020E945E
:102FF0000E0786EE91E00E94DC0685E092E00E94DA
:10300000DC066091A0027091A1028091A2029091D1
:10301000A3020E940E0786EE91E00E94DC068091DA
:10302000AC029091AD020E94DE068AE391E00E941C
:103030007D0680E090E0892B09F47DC80E94E902BA
:10304000882309F478C80E94000075C81092BA025B
:103050000C94D80E61E081E090E00E94E81881E0D5
:103060008093BA020C94E90E5FE642E133E82AE36A
:103070000C942A105E2D4F2D302F212F0C942A10E6
:103080006FE6E62E72E1F72E03E81AE32EC8812CD4
:10309000912C40E2A42E41E4B42ED7C8C12CD12CEF
:1030A000E12C20E4F22E17C95FE642E133E82AE37F
:1030B00027CA5C2D4D2D3E2D2F2D22CAAFE6CA2EDC
:1030C000B2E1DB2E13E8E12E0AE3F02E64CA609130
:1030D000C3027091C402072E000C880B990B0E944A
:1030E000751AAB01BC018BE094E00E94650460910D
:1030F0000B0470910C0480910D0490910E040E94B9
:103100003D1A7093B9026093B8026091C502709144
:10311000C602719561957109A9CA2091BB023091CF
:10312000BC02213D47E0340714F020ED37E024389D
:1031300063E0360714F424E833E03093BC022093B4
:10314000BB02032E000C440B550B2458334041099D
:103150005109A8E0B7E00E9415192CE434E040E0E2
:1031600050E00E94F6182458334041095109309329
:10317000AD022093AC02EACA1F86188A198A1A8AFD
:1031800078CB1B821C821D821E82CBCB1F821886AD
:1031900019861A8618CC412C512C320152CCC12CE4
:1031A000D12C760195CCC12CD12C7601C6CC4F8682
:1031B0005B866B8A7F8A8CCDEB82FF821801EFCD14
:1031C000F999FECF92BD81BDF89A992780B50895EF
:1031D000262FF999FECF1FBA92BD81BD20BD0FB633
:1031E000F894FA9AF99A0FBE01960895052E97FB66
:1031F0001EF400940E940D1957FD07D00E94281953
:1032000007FC03D04EF40C940D1950954095309561
:1032100021953F4F4F4F5F4F089590958095709542
:1032200061957F4F8F4F9F4F08950E944A19A59F28
:10323000900DB49F900DA49F800D911D11240895B1
:10324000B7FF0C9415190E941519821B930B089552
:10325000A1E21A2EAA1BBB1BFD010DC0AA1FBB1F9A
:10326000EE1FFF1FA217B307E407F50720F0A21B0C
:10327000B30BE40BF50B661F771F881F991F1A9479
:1032800069F760957095809590959B01AC01BD01A3
:10329000CF010895A29FB001B39FC001A39F700DFD
:1032A000811D1124911DB29F700D811D1124911D4E
:1032B00008955058BB27AA270E9471190C94EB1A45
:1032C0000E94DD1A38F00E94E41A20F039F49F3F82
:1032D00019F426F40C94DA1A0EF4E095E7FB0C943A
:1032E000D41AE92F0E94FC1A58F3BA176207730721
:1032F0008407950720F079F4A6F50C941E1B0EF4B4
:10330000E0950B2EBA2FA02D0B01B90190010C01F5
:10331000CA01A0011124FF27591B99F0593F50F40D
:10332000503E68F11A16F040A22F232F342F442765
:10333000585FF3CF469537952795A795F04053955D
:10334000C9F77EF41F16BA0B620B730B840BBAF02D
:103350009150A1F0FF0FBB1F661F771F881FC2F798
:103360000EC0BA0F621F731F841F48F487957795AC
:103370006795B795F7959E3F08F0B0CF9395880F66
:1033800008F09927EE0F9795879508950E94B01A37
:1033900008F481E008950E94DF190C94EB1A0E9452
:1033A000E41A58F00E94DD1A40F029F45F3F29F03A
:1033B0000C94D41A51110C941F1B0C94DA1A0E940D
:1033C000FC1A68F39923B1F3552391F3951B550B20
:1033D000BB27AA2762177307840738F09F5F5F4FE8
:1033E000220F331F441FAA1FA9F335D00E2E3AF027
:1033F000E0E832D091505040E695001CCAF72BD03F
:10340000FE2F29D0660F771F881FBB1F261737078F
:103410004807AB07B0E809F0BB0B802DBF01FF27C1
:1034200093585F4F3AF09E3F510578F00C94D41AB0
:103430000C941F1B5F3FE4F3983ED4F38695779579
:103440006795B795F7959F5FC9F7880F911D96957A
:10345000879597F90895E1E0660F771F881FBB1FD6
:10346000621773078407BA0720F0621B730B840B83
:10347000BA0BEE1F88F7E09508950E94441A6894ED
:10348000B1110C941F1B08950E94041B88F09F57D4
:1034900098F0B92F9927B751B0F0E1F0660F771F78
:1034A000881F991F1AF0BA95C9F714C0B13091F06E
:1034B0000E941E1BB1E008950C941E1B672F782FED
:1034C0008827B85F39F0B93FCCF386957795679533
:1034D000B395D9F73EF490958095709561957F4F9F
:1034E0008F4F9F4F0895E89409C097FB3EF4909545
:1034F0008095709561957F4F8F4F9F4F9923A9F0CD
:10350000F92F96E9BB279395F6958795779567955B
:10351000B795F111F8CFFAF4BB0F11F460FF1BC09F
:103520006F5F7F4F8F4F9F4F16C0882311F096E932
:1035300011C0772321F09EE8872F762F05C06623E0
:1035400071F096E8862F70E060E02AF09A95660F99
:10355000771F881FDAF7880F9695879597F9089552
:10356000990F0008550FAA0BE0E8FEEF1616170694
:10357000E807F907C0F012161306E407F50798F0FC
:10358000621B730B840B950B39F40A2661F0232B15
:10359000242B252B21F408950A2609F4A140A69591
:1035A0008FEF811D811D089597F99F6780E870E076
:1035B00060E008959FEF80EC089500240A941616A9
:1035C000170618060906089500240A941216130611
:1035D000140605060895092E0394000C11F488239F
:1035E00052F0BB0F40F4BF2B11F460FF04C06F5FBB
:1035F0007F4F8F4F9F4F089557FD9058440F551F91
:1036000059F05F3F71F04795880F97FB991F61F064
:103610009F3F79F087950895121613061406551FDB
:10362000F2CF4695F1DF08C0161617061806991F47
:10363000F1CF86957105610508940895E894BB273C
:1036400066277727CB0197F908950E94B01A08F4EE
:103650008FEF08950E943D1B0C94EB1A0E94DD1A17
:1036600038F00E94E41A20F0952311F00C94D41A3B
:103670000C94DA1A11240C941F1B0E94FC1A70F38C
:10368000959FC1F3950F50E0551F629FF001729F07
:10369000BB27F00DB11D639FAA27F00DB11DAA1F16
:1036A000649F6627B00DA11D661F829F2227B00D63
:1036B000A11D621F739FB00DA11D621F839FA00DEE
:1036C000611D221F749F3327A00D611D231F849F3E
:1036D000600D211D822F762F6A2F11249F57504095
:1036E0009AF0F1F088234AF0EE0FFF1FBB1F661F10
:1036F000771F881F91505040A9F79E3F510580F0D9
:103700000C94D41A0C941F1B5F3FE4F3983ED4F33F
:10371000869577956795B795F795E7959F5FC1F77C
:10372000FE2B880F911D9695879597F9089519F4AA
:1037300016F40C94DA1A0C94E21B0E94041BB8F3E2
:103740009923C9F3B6F39F57550B87FF0E94F01BCF
:103750000024A0E640EA900180585695979528F4F9
:10376000805C660F771F881F20F0261737074807F1
:1037700030F4621B730B840B202931294A2BA69548
:1037800017940794202531254A2758F7660F771F8D
:10379000881F20F026173707480730F4620B730B99
:1037A000840B200D311D411DA09581F7B901842F97
:1037B0009158880F9695879508950E94B01A880BA6
:1037C000990B08959F3F31F0915020F4879577959C
:1037D0006795B795880F911D9695879597F90895E8
:1037E00091505040660F771F881FD2F70895991B9C
:1037F00079E004C0991F961708F0961B881F7A95E8
:10380000C9F780950895EE0FFF1F0590F491E02D04
:1038100009940F931F93CF93DF938230910510F497
:1038200082E090E0E0918304F091840430E020E0B5
:10383000B0E0A0E0309799F42115310509F44AC0B1
:10384000281B390B24303105D8F58A819B816115FD
:10385000710589F1FB0193838283FE0111C04081D0
:1038600051810281138148175907E0F04817590721
:1038700099F4109761F012960C93129713961C937B
:103880003296CF01DF91CF911F910F910895009350
:10389000830410938404F4CF2115310551F04217AD
:1038A000530738F0A901DB019A01BD01DF01F801DE
:1038B000C1CFEF01F9CF9093840480938304CDCFDF
:1038C000FE01E20FF31F8193919322503109398356
:1038D0002883D7CF2091810430918204232B41F497
:1038E00020910C0130910D013093820420938104CA
:1038F00020910A0130910B012115310541F42DB7BA
:103900003EB740910E0150910F01241B350BE09101
:103910008104F0918204E217F307A0F42E1B3F0B01
:103920002817390778F0AC014E5F5F4F2417350731
:1039300048F04E0F5F1F509382044093810481939F
:1039400091939FCFF0E0E0E09CCFCF93DF9300977F
:10395000E9F0FC01329713821282A0918304B091A6
:103960008404ED0130E020E01097A1F42081318142
:10397000820F931F20918104309182042817390708
:1039800009F061C0F0938204E0938104DF91CF914C
:103990000895EA01CE17DF07E8F54A815B819E01B1
:1039A00041155105B1F7E901FB83EA83499159912A
:1039B000C40FD51FEC17FD0761F480819181029639
:1039C000840F951FE90199838883828193819B836A
:1039D0008A83F0E0E0E012968D919C911397009716
:1039E000B9F52D913C911197CD010296820F931F4D
:1039F00020918104309182042817390739F63097D5
:103A000051F51092840410928304B0938204A09321
:103A10008104BCCFD383C28340815181840F951F21
:103A2000C817D90761F44E5F5F4F88819981480FAD
:103A3000591F518340838A819B81938382832115FF
:103A4000310509F0B0CFF0938404E09383049ECF56
:103A5000FD01DC01C0CF13821282D7CFF894FFCFD3
:103A60003200CDCC4C3E00000040000085048000B8
:103A700077046D046304000000001F037F02AC02A2
:103A80006C03DD02BB02CF02000000001404E70358
:103A90006204BD03E003CD03BE030D0A006E616E38
:103AA00000696E66006F766600435241574C45527E
:103AB000204649524D5741524520312E3236205230
:103AC0004144494F2056455253494F4E00434F4EB3
:103AD0004E4543542050494E203720544F2041201A
:103AE000524144494F205245434549564552204191
:103AF0004E44204B45455020495420504F57455285
:103B0000454420414E4420434F4E4E454354454486
:103B100020544F2041205452414E534D4954544556
:103B2000522100534554555020444F4E45006F6676
:103B30006673657420006D756C74200062616C2082
:103B4000007370656564200064616D7020004672CA
:103B5000616E676520005272616E67652000464C99
:0A3B6000706F732000524C682000C3
:00000001FF
