:100000000C9467000C948F000C948F000C94640B7C
:100010000C94370B0C940A0B0C948F000C948F00EB
:100020000C948F000C942B0A0C948F000C944E0AA5
:100030000C948F000C948F000C948F000C948F0004
:100040000C945E080C948F000C94CE080C94A808B5
:100050000C948F000C948F000C948F000C948F00E4
:100060000C9400090C948F0000000000240027006D
:100070002A0000000000250028002B0004040404CE
:100080000404040402020202020203030303030342
:10009000020203010204081020408001020408103B
:1000A00020010204081020408040000000090003E5
:1000B000020000040508000000000000000000002D
:1000C000000000000023002600290000AC0B1124D2
:1000D0001FBECFEFD8E0DEBFCDBF11E0A0E0B1E0A2
:1000E000E2ECF4E302C005900D92AE3FB107D9F700
:1000F00024E0AEEFB1E001C01D92AB36B207E1F7EC
:1001000010E0C7E6D0E004C02197FE010E94591A12
:10011000C636D107C9F70E94A90C0C945F1A0C943B
:100120000000282F9091000381E0913208F042C036
:100130008091DC028111FCCF8091FF0232E030938C
:10014000DC022093DB022FEF2093DA022FED32E066
:100150003093D9022093D8021092D7029093D602FE
:100160001092D5029091D502880F892B8093D502E9
:100170008091D402813029F51092D4028091D50269
:100180008093BB008091BC0083FDF8CF85EC809309
:10019000BC008091DC028230E1F38091DA028F3F73
:1001A00091F08091DA02803281F08091DA0280331E
:1001B00071F084E01092DE02109200031092DD02D2
:1001C000089585EEE4CF80E0F5CF82E0F3CF83E0C1
:1001D000F1CF843081F028F48230E9F08330F9F0F7
:1001E0000895883071F0893091F08530B9F48091AC
:1001F00080008F7D03C0809180008F778093800086
:1002000008958091B0008F778093B0000895809119
:10021000B0008F7DF9CF84B58F7784BD089584B504
:100220008F7DFBCFCF93DF93E6EBF0E08491EFE996
:10023000F0E0D491E8E8F0E0C491CC23A1F0811182
:100240000E94E900EC2FF0E0EE0FFF1FEF53FF4F8D
:10025000A591B491EC91ED2381E090E009F480E068
:10026000DF91CF91089580E090E0FACF1F93CF9374
:10027000DF93282F30E0F901E655FF4F8491F90113
:10028000ED56FF4FD491F901E458FF4FC491CC23B0
:10029000A9F0162F81110E94E900EC2FF0E0EE0F7B
:1002A000FF1FEE58FF4FA591B4918FB7F894EC91D2
:1002B000111108C0D095DE23DC938FBFDF91CF9161
:1002C0001F910895DE2BF8CFCF93DF9390E0FC01D0
:1002D000ED56FF4F249184589F4FFC018491882351
:1002E000C9F090E0880F991FFC01E859FF4FA591D4
:1002F000B491FC01EE58FF4FC591D49161110DC02E
:100300009FB7F8948C91209582238C938881282321
:1003100028839FBFDF91CF910895623051F49FB73A
:10032000F8943C91822F809583238C93E8812E2B27
:10033000EFCF8FB7F894EC912E2B2C938FBFEACF91
:100340001F93CF93DF93EC01162F88818C3008F038
:1003500050C061E0812F0E9464018881282F30E025
:10036000F901EE0FFF1FE20FF31FEF5FFC4F1F734A
:100370006081607C612B608394E2998397EE9A831D
:100380002CE0622F0E944D1A829FB001112430E0B0
:1003900020E0AB01420F531FFA01EE0FFF1FE40FE5
:1003A000F51FEF5FFC4F908196FD16C02F5F3F4F0A
:1003B0002C30310571F781110FC01092800082E05E
:1003C000809381001092850010928400B19A8091F0
:1003D0006F00826080936F00E8818E2F90E0FC01B7
:1003E000EE0FFF1FE80FF91FEF5FFC4F8081806465
:1003F00080838881DF91CF911F910895883020F00C
:100400008D3008F48DE08E508770806480937C007E
:1004100080917A00806480937A0080917A0086FDD2
:10042000FCCF809178009091790008953FB7F894BF
:100430008091D0029091D102A091D202B091D302CA
:1004400026B5A89B05C02F3F19F00196A11DB11D2F
:100450003FBFBA2FA92F982F8827BC01CD01620F6B
:10046000711D811D911D42E0660F771F881F991F26
:100470004A95D1F708952FB7F8946091CC02709106
:10048000CD028091CE029091CF022FBF08950895A2
:100490000895AF92BF92CF92DF92EF92FF920F93A7
:1004A0001F93CF93DF936C017B018B01040F151F0A
:1004B000EB015E01AE18BF08C017D10759F0699172
:1004C000D601ED91FC910190F081E02DC6010995D6
:1004D000892B79F7C501DF91CF911F910F91FF9083
:1004E000EF90DF90CF90BF90AF900895FC01538DB7
:1004F000448D252F30E0842F90E0821B930B5417FE
:1005000010F0CF96089501970895FC01918D828D8A
:10051000981761F0A28DAE0FBF2FB11D5D968C9123
:10052000928D9F5F9F73928F90E008958FEF9FEF62
:100530000895FC01918D828D981731F0828DE80F1E
:10054000F11D858D90E008958FEF9FEF0895FC01D8
:10055000918D228D892F90E0805C9F4F821B9109A5
:100560008F739927089585E293E00E94A70221E006
:10057000892B09F420E0822F089580E090E0892BF8
:1005800029F00E94B30281110C9400000895FC012F
:10059000A48DA80FB92FB11DA35ABF4F2C91848DE4
:1005A00090E001968F739927848FA689B7892C9341
:1005B000A089B1898C91837080648C93938D848D94
:1005C000981306C00288F389E02D80818F7D808397
:1005D0000895EF92FF920F931F93CF93DF93EC0157
:1005E00081E0888F9B8D8C8D98131AC0E889F989DA
:1005F000808185FF15C09FB7F894EE89FF896083DD
:10060000E889F98980818370806480839FBF81E05D
:1006100090E0DF91CF911F910F91FF90EF9008959F
:10062000F62E0B8D10E00F5F1F4F0F731127E02E7A
:100630008C8D8E110CC00FB607FCFACFE889F989B2
:10064000808185FFF5CFCE010E94C702F1CFEB8DEF
:10065000EC0FFD2FF11DE35AFF4FF0829FB7F89486
:100660000B8FEA89FB8980818062CFCFCF93DF93A4
:10067000EC01888D8823B9F0AA89BB89E889F989BA
:100680008C9185FD03C0808186FD0DC00FB607FCEF
:10069000F7CF8C9185FFF2CF808185FFEDCFCE0122
:1006A0000E94C702E9CFDF91CF91089585ED809335
:1006B000BC008091BC0084FDFCCF1092DC02089548
:1006C00020915102260F3327331F21323105ECF4DC
:1006D0002091DC02FC0190E080E0243069F082E0AF
:1006E0000895A09151022191AC014F5C5D4FA40F80
:1006F000B52FB11D2C930196861798F38091510266
:10070000680F6093510280E0089581E00895089594
:10071000E091790280917802E81730F4F0E0EF5E22
:10072000FD4F808190E008958FEF9FEF08959091A5
:100730007902809178022FEF3FEF981748F4E92F64
:10074000F0E0EF5EFD4F208130E09F5F90937902F3
:10075000C90108958091780290917902891B990BC3
:100760000895CF92DF92EF92FF920F931F93CF9352
:10077000DF937C01CB018A012091DD02222389F0E5
:10078000EB016B01C40ED51ECC15DD0569F0699136
:10079000D701ED91FC910190F081E02DC701099501
:1007A000F3CF642F0E946003C801DF91CF911F91A6
:1007B0000F91FF90EF90DF90CF900895CF93DF934C
:1007C0001F92CDB7DEB769832091DD022223F9F0B5
:1007D00020910003203258F021E030E0FC01338307
:1007E000228390E080E00F90DF91CF910895809177
:1007F000DE02E82FF0E0E152FD4F998190838F5F98
:100800008093DE028093000381E090E0ECCF61E012
:10081000CE0101960E946003F7CFCF93DF93EA01E8
:1008200091E09093DD028093FF021092DE0210921D
:10083000000382EC93E00E94DE03688182EC93E087
:100840000E94DE0381E00E94910091E0811190E01E
:10085000892FDF91CF91089590E080E008952F9245
:100860003F924F925F926F927F928F929F92AF9240
:10087000BF92CF92DF92EF92FF920F931F93CF938D
:10088000DF93CDB7DEB72A970FB6F894DEBF0FBE61
:10089000CDBF9A8789872A013B01DC011C964D92C6
:1008A0005D926D927C921F970E9416026B017C01F3
:1008B000E985FA85818D928DA38DB48DA70196016E
:1008C000281B390B4A0B5B0BCA01B9010E94CB18DC
:1008D0002DEB37E346E855E30E9480194B015C019C
:1008E000A985BA855996CD92DD92ED92FC925C97DE
:1008F0005496CD90DD90ED90FC90579720E030E03D
:10090000A9010E941C1887FDAFC0A701960160E0F5
:1009100070E080E89FE30E942118162F072F382EE1
:10092000292E262F372F482F592FB401C5010E9499
:100930007B19181624F0182D092D3A2C2B2CA70101
:100940009601C701B6010E9480196D837E838F8353
:100950009887E985FA8584809580A680B780208174
:1009600031814281538129833A834B835C839B018C
:10097000AC01C301B2010E9480192B013C01E98541
:10098000FA852089318942895389C701B6010E94BD
:100990002118A50194010E9480199B01AC01C3019B
:1009A000B2010E94AF176B017C012D813E814F8106
:1009B000588569817A818B819C810E9480199B0175
:1009C000AC01C701B6010E94AF17212F302F432D74
:1009D000522D0E948019A50194010E94B0176B014D
:1009E0007C01AC019B01C501B4010E94B01720E05D
:1009F00030E040E05FE30E948019A985BA8518962F
:100A00006D937D938D939C931B97212F302F432DB6
:100A1000522D0E94801929813A814B815C810E946C
:100A2000B017E985FA856083718382839383C482DA
:100A3000D582E682F7822A960FB6F894DEBF0FBE03
:100A4000CDBFDF91CF911F910F91FF90EF90DF907D
:100A5000CF90BF90AF909F908F907F906F905F905E
:100A60004F903F902F90089510E000E0312C212C02
:100A700066CFDC01EC91EC3090F511968C911197DA
:100A800028E830E0281B310987FD3395220F331FFA
:100A9000220F331F6217730784F012968C9128E59A
:100AA00032E0281B310987FD3395220F331F220FB7
:100AB000331F621773070CF49B0122503109220F78
:100AC000331F4FB7F8948E2F90E0FC01EE0FFF1FFD
:100AD000E80FF91FEF5FFC4F328321834FBF08956A
:100AE000FF920F931F93CF93DF938C01D80117963A
:100AF0008C91179720910E0215969C911597309125
:100B00000E0216964C911697C0910E02C095C42302
:100B10009323C92B8227FC2EF82280910E02179670
:100B20008C9317971896CD91DC912097B1F08B811B
:100B3000982F9F2171F090910E02892391E009F482
:100B400090E090930D028C8180930C02E881F981F2
:100B500009950D80DE81C02DE8CF9BB3F80184811B
:100B6000982351F09BB3892B8BBB0190F081E02D32
:100B7000808180930E02BACFDF91CF911F910F91A8
:100B8000FF900895FC0101900020E9F73197AF0133
:100B9000481B590BBC0185E293E00C9449028F92EB
:100BA0009F92AF92BF920F931F93CF93DF93CDB7D6
:100BB000DEB7A1970FB6F894DEBF0FBECDBF19A266
:100BC000423008F44AE08E010F5D1F4F842E912CB5
:100BD000B12CA12CA50194010E947E17E62FB9012A
:100BE000CA01EA30F4F4E05DD801EE938D01232BC5
:100BF000242B252B79F790E080E0109719F0CD0198
:100C00000E94C205A1960FB6F894DEBF0FBECDBFFD
:100C1000DF91CF911F910F91BF90AF909F908F90D8
:100C20000895E95CE1CFCF93DF930E94C205EC0108
:100C30008EE291E00E94C2058C0F9D1FDF91CF9143
:100C400008950C94C205CF92DF92EF92FF92CF935A
:100C5000DF936C01990FEE08FF08F7FE19C06DE2F3
:100C600085E293E00E94E902EC0166277727CB0139
:100C70006C197D098E099F094AE00E94CF058C0FEF
:100C80009D1FDF91CF91FF90EF90DF90CF9008955F
:100C90004AE0C701B601DF91CF91FF90EF90DF905E
:100CA000CF900C94CF054F925F926F927F928F926C
:100CB0009F92AF92BF92CF92DF92EF92FF926B0121
:100CC0007C01AC019B010E94331A882381F081E3EF
:100CD00091E0FF90EF90DF90CF90BF90AF909F900A
:100CE0008F907F906F905F904F900C94C20546015B
:100CF0005701E894B7F82FEF3FEF4FE75FE7C501E3
:100D0000B4010E94331A81110DC02FEF3FEF4FE75E
:100D10005FE7C501B4010E941C1818161CF485E396
:100D200091E0D7CF2FEF3FEF4FE75FE4C701B60168
:100D30000E947B1918161CF489E391E0CACF2FEFAB
:100D40003FEF4FE75FECC701B6010E941C1887FD1B
:100D5000F3CF20E030E0A901C701B6010E941C18C2
:100D6000B12CA12C87FF0AC06DE285E293E00E94BE
:100D7000E9025C01F7FAF094F7F8F0942AE037ED15
:100D800043EA5BE3C701B6010E94B0172B013C01A7
:100D90000E949A186B017C010E94C9189B01AC014A
:100DA000C301B2010E94AF172B013C014AE0C70109
:100DB000B6010E94CF057C01EA0CFB1C6EE285E2C5
:100DC00093E00E94E902E80EF91E20E030E040E2E4
:100DD00051E4C301B2010E9480192B013C010E9421
:100DE0009A184B01B12CA12C4AE0C501B4010E9414
:100DF000CF05E80EF91EC501B4010E94C9189B0178
:100E0000AC01C301B2010E94AF1720E030E040E224
:100E100051E40E9480190E949A1890E080E04AE014
:100E20000E94CF058E0D9F1DFF90EF90DF90CF9019
:100E3000BF90AF909F908F907F906F905F904F90FA
:100E400008952F923F924F925F926F927F928F926E
:100E50009F92AF92BF92CF92DF92EF92FF920F9349
:100E60001F93CF93DF9300D000D000D01F92CDB757
:100E7000DEB7782E662EF42E3D832C830E943B0233
:100E80004B015C01272D220F2B83DF2CC12C1E82EE
:100E9000EE24E3948F2D90E09A8389831801512CDE
:100EA000412CE092DD027092FF021092DE0210925D
:100EB0000003662D82EC93E00E94DE0381E00E9435
:100EC0009100E092DD021092DE0210920003809108
:100ED000DC028111FCCFDF8290E29D1510F420E24C
:100EE0002F83E092DC02E092DB023FEF3093DA02E4
:100EF00081E192E09093D9028093D8021092D702B8
:100F00008F8181508093D602E092D5028091D502E4
:100F10009B81892B8093D5028091D4028130A9F5E1
:100F20001092D4028091D5028093BB008091BC00C6
:100F300083FDF8CF25EC2093BC008091DC0281304A
:100F4000E1F38091D7029F81891718F42091D7028D
:100F50002F83109279023F81309378028091790239
:100F60009F81981709F10115110599F482EC93E01E
:100F70000E949703EC81FD812E81E20FF11D27FD78
:100F8000FA9580832F5F2E83E9CF35EE3093BC0036
:100F9000D4CF0E943B02681979098A099B0962151E
:100FA00073058405950510F3CF0CDF18CF1408F4F2
:100FB00078CF01151105C1F00E943B02681979092B
:100FC0008A099B0930E020E06017710782079307C8
:100FD00058F03E81832F330F990B29813A81821774
:100FE000930714F43FEF3E838E8127960FB6F89453
:100FF000DEBF0FBECDBFDF91CF911F910F91FF904C
:10100000EF90DF90CF90BF90AF909F908F907F90A8
:101010006F905F904F903F902F900895BF92CF9226
:10102000DF92EF92FF920F931F93CF93DF9300D045
:10103000CDB7DEB7F82EE62EC42EB22ED02E08EE97
:1010400013E09E012E5F3F4F41E00E94210788235D
:1010500099F18C2D8B19990BAC014F5F5F4F81E09B
:1010600090E002C0880F991FBA94E2F70197042E0E
:1010700001C0880F0A94EAF70D2D01C0000F4A95B0
:10108000EAF7982F90952A8192238023892B8A83CF
:101090008983AE014F5F5F4F6E2D8F2D0E940D042F
:1010A0000F900F90DF91CF911F910F91FF90EF90D4
:1010B000DF90CF90BF90089580E0F2CF1F920F9203
:1010C0000FB60F9211242F933F938F939F93AF935B
:1010D000BF938091CC029091CD02A091CE02B091AD
:1010E000CF023091CB0223E0230F2D3768F126E8A1
:1010F000230F0296A11DB11D2093CB028093CC0239
:101100009093CD02A093CE02B093CF028091D002F3
:101110009091D102A091D202B091D3020196A11D6B
:10112000B11D8093D0029093D102A093D202B093CC
:10113000D302BF91AF919F918F913F912F910F90CB
:101140000FBE0F901F9018950196A11DB11DD4CF11
:101150001F920F920FB60F9211242F933F934F932C
:101160005F936F937F938F939F93AF93BF93EF930F
:10117000FF9385E293E00E94C702FF91EF91BF9138
:10118000AF919F918F917F916F915F914F913F911F
:101190002F910F900FBE0F901F9018951F920F92D6
:1011A0000FB60F9211242F938F939F93EF93FF937A
:1011B000E0913503F09136038081E0913B03F0919B
:1011C0003C0382FD1BC0908180913E038F5F8F7333
:1011D00020913F03821741F0E0913E03F0E0EB5D88
:1011E000FC4F958F80933E03FF91EF919F918F91DC
:1011F0002F910F900FBE0F901F9018958081F4CF04
:101200001F920F920FB60F9211242F933F934F937B
:101210005F936F937F938F939F93AF93BF93EF935E
:10122000FF938091B900887F803609F44AC0F0F5B9
:10123000883209F4A7C018F5803109F49BC0B8F4CE
:10124000882309F405C1883009F494C0FF91EF9117
:10125000BF91AF919F918F917F916F915F914F91CE
:101260003F912F910F900FBE0F901F9018958831CE
:1012700009F488C0803251F78093DA0214C08034B8
:1012800009F4A5C040F48033B9F38833F9F68093AC
:10129000DA0285ECBCC0803509F489C0883509F4D0
:1012A0009EC0883499F60E945603D0CF883909F43D
:1012B00094C038F5883729F050F4883611F080371B
:1012C00029F683E08093DC021092730257C08838BD
:1012D00009F483C0803919F0803809F0B7CF8091C4
:1012E0007302803208F079C0E091730281E08E0FC2
:1012F000809373028091BB00F0E0ED5AFD4F808334
:101300003DC0803B39F0E0F4803A09F485C0883A6A
:1013100009F09CCF84E08093DC021092520210927C
:101320005102E0917602F091770209958091510285
:1013300081110FC081E0809351021092310209C0E7
:10134000803C09F4A6CF883C09F4A3CF883B09F080
:101350007DCFE091520281E08E0F80935202F0E047
:10136000EF5CFD4F80818093BB0090915202809191
:10137000510231C08091D5028093BB0085EC8093EF
:10138000BC0064CF9091D7028091D6029817B8F52F
:101390008091D8029091D902E091D70221E02E0FDE
:1013A0002093D702E80FF92FF11D8081E5CF20911E
:1013B000D8023091D902E091D70281E08E0F80935C
:1013C000D7028091BB00E20FF32FF11D8083909133
:1013D000D7028091D602981788F285E8D0CF209165
:1013E000D8023091D902E091D70281E08E0F80932C
:1013F000D7028091BB00E20FF32FF11D8083809113
:10140000DB02811150CF81E08093D40284EA809383
:10141000BC001092DC021ACF85EC8093BC001092C5
:10142000DC0280917302803230F4E0917302F0E0CC
:10143000ED5AFD4F10826091730270E0E0917402EA
:10144000F091750283E592E0099510927302FECE49
:101450001092DA0228CF1F920F920FB60F9211242A
:101460008F939F93AF93BF93EF93FF93EEECF3E0D3
:1014700080819181A281B3810196A11DB11D8083DC
:101480009183A283B383FF91EF91BF91AF919F911D
:101490008F910F900FBE0F901F9018951F920F9273
:1014A0000FB60F9211242F933F934F935F936F9337
:1014B0007F938F939F93AF93BF93CF93DF93EF93DC
:1014C000FF9380910F02C0911002D0E087FF24C0EB
:1014D000109285001092840080910F028F5F80939C
:1014E0000F0280910F02082E000C990B8C179D079C
:1014F00024F480910F028C30C4F18091840090918B
:101500008500049680349C4908F47AC08091840058
:1015100090918500049676C080910F02082E000CF1
:10152000990B8C179D07C4F6E0910F028E2FEE0FDA
:10153000990BFC01EE0FFF1FE80FF91FEF5FFC4F47
:10154000808186FFC9CFE0910F028E2FEE0F990B9D
:10155000FC01EE0FFF1FE80FF91FEF5FFC4F8081CA
:1015600060E08F730E943601B7CF209184003091E4
:101570008500E0910F028E2FEE0F990BFC01EE0F0C
:10158000FF1FE80FF91FEF5FFC4F81819281820FEF
:10159000931F9093890080938800E0910F028E2F13
:1015A000EE0F990BFC01EE0FFF1FE80FF91FEF5F25
:1015B000FC4F808186FF11C0E0910F028E2FEE0F4D
:1015C000990BFC01EE0FFF1FE80FF91FEF5FFC4FB7
:1015D000808161E08F730E943601FF91EF91DF916E
:1015E000CF91BF91AF919F918F917F916F915F91BB
:1015F0004F913F912F910F900FBE0F901F90189514
:1016000080E49CE990938900809388008FEF809319
:101610000F02E3CF1F920F920FB60F9211242F9358
:101620003F934F935F936F937F938F939F93AF936A
:10163000BF93EF93FF93E0914D04F0914E048081AE
:1016400080930E028DE494E00E947005FF91EF916B
:10165000BF91AF919F918F917F916F915F914F91CA
:101660003F912F910F900FBE0F901F9018951F92D2
:101670000F920FB60F9211242F933F934F935F93C6
:101680006F937F938F939F93AF93BF93EF93FF934A
:10169000E0915704F0915804808180930E0287E511
:1016A00094E00E947005FF91EF91BF91AF919F91DF
:1016B0008F917F916F915F914F913F912F910F90FB
:1016C0000FBE0F901F9018951F920F920FB60F929A
:1016D00011242F933F934F935F936F937F938F9337
:1016E0009F93AF93BF93EF93FF93E0916104F091C9
:1016F0006204808180930E0281E694E00E9470056E
:10170000FF91EF91BF91AF919F918F917F916F91D9
:101710005F914F913F912F910F900FBE0F901F90AF
:101720001895FC01909110029C3098F481E0890F8B
:10173000809310029083892F90E0FC01EE0FFF1F31
:10174000E80FF91FEF5FFC4F88EB9BE092838183EA
:1017500008958FEF808308958F929F92AF92BF92EA
:10176000CF92DF92EF92FF92CF93DF93E5E2F3E027
:101770001382128288EE93E0A0E0B0E08483958328
:10178000A683B7832EE031E03183208325EC30E05F
:101790003587248724EC30E03787268720EC30E03B
:1017A000318B208B21EC30E0338B228B22EC30E02C
:1017B000358B248B26EC30E0378B268B118E128EE6
:1017C000138E148EE2ECF3E01382128284839583ED
:1017D000A683B78380E291E091838083EEECF3E00F
:1017E000108211821282138214821582168217824D
:1017F000E5ECF0E085919491E1E6F4E0918380835B
:101800008BE690E09383828381E084831582168245
:1018100011861086E7ECF0E085919491E7E5F4E01D
:10182000918380838CE690E09383828382E084833B
:101830001582168211861086E9ECF0E0859194916C
:10184000EDE4F4E0918380838DE690E093838283DE
:1018500084E08483158216821186108688E6809340
:101860003E048BE394E00E94910B88E394E00E9495
:10187000910B85E394E00E94910B82E394E00E9437
:10188000910B8FE294E00E94910BC2E1D4E01882A8
:1018900019821A821B821C821D821E821F82188E50
:1018A000812C912C80E8A82E8FE3B82E888A998A03
:1018B000AA8ABB8A9BEDC92E9FE0D92E99ECE92E0E
:1018C00090E4F92ECC8ADD8AEE8AFF8A0E94160205
:1018D000698F7A8F8B8F9C8FC5EFD3E01882198226
:1018E0001A821B821C821D821E821F82188E888A89
:1018F000998AAA8ABB8ACC8ADD8AEE8AFF8A0E94EC
:101900001602698F7A8F8B8F9C8FC8EDD3E0188277
:1019100019821A821B821C821D821E821F82188ECF
:10192000888A998AAA8ABB8ACC8ADD8AEE8AFF8A4B
:101930000E941602698F7A8F8B8F9C8FDF91CF91D7
:10194000FF90EF90DF90CF90BF90AF909F908F90DF
:101950000895CF93DF93CDB7DEB7A5970FB6F89470
:10196000DEBF0FBECDBF789484B5836084BD85B5DE
:10197000836085BD80916E00816080936E0092E0EF
:10198000909381008091810081608093810080919B
:1019900080008160809380008091B100846080939A
:1019A000B1008091B00081608093B00087E880939F
:1019B0007A001092C1008091B0008093D60380918C
:1019C000B1008093D7038091B100887F82608093BB
:1019D000B100809170008160809370008091B000B0
:1019E0008C7F8093B0008091B100877F8093B1009D
:1019F000E0913503F09136039083E0913103F0914B
:101A000032031082E0913303F091340380E180834C
:101A100010923D03E0913903F0913A0386E0808310
:101A2000E0913703F0913803808188698083E091E9
:101A30003703F091380380818F7D80838DE391E0BF
:101A40000E94130681E691E00E94130662E08CE09A
:101A50000E94640160E080E10E94640160E081E135
:101A60000E94640160E082E10E94640160E087E01E
:101A70000E94640181E090E00E943617813011F0ED
:101A80000C94AB168093A8020E941201892B69F472
:101A90008091A802882311F40C94AF1660E081E0D5
:101AA00090E00E943E171092A802109279021092C4
:101AB00078021092DE02109200031092DC0281E0A4
:101AC0008093DB021092D40261E082E10E94360131
:101AD00061E083E10E9436018091B9008E7F80939E
:101AE000B9008091B9008D7F8093B90088E480931C
:101AF000B80085E48093BC0087E492E0909377027D
:101B00008093760288E492E0909375028093740249
:101B10008CE08093B80062E087E00E9464013FB7E8
:101B2000F8942091B200B89B16C02091B200809129
:101B3000CE039091CF03A091D003B091D103019631
:101B4000A11DB11D8093CE039093CF03A093D0032A
:101B5000B093D103B89A8091CE039091CF03A09116
:101B6000D003B091D103BA2FA92F982F8827820FC5
:101B7000911DA11DB11D8093D2039093D303A09317
:101B8000D403B093D5033FBF01E023E042E06BE60E
:101B900080913E040E940E0800E022E044E06BE1E8
:101BA00080913E040E940E0822E044E06CE18091A6
:101BB0003E040E940E08F0903E0408EE13E09E01E1
:101BC0002E5F3F4F41E06BE68F2D0E9421078A81F7
:101BD0008F7B8A838983AE014F5F5F4F6BE68F2DCA
:101BE0000E940D048EE00E94FE019093C802809333
:101BF000C7029C01990F440B550B2F5F33404109DD
:101C00005109A8EDBFEF0E94791788248394FCEF57
:101C10009F2EAA24AA94BA2CA50194010E944C17C5
:101C2000CA01B901685D7F4F8F4F9F4F0E94CB184B
:101C300020E030E040E251E40E9421187B018C0159
:101C4000CB01D8018093020190930301A09304017A
:101C5000B09305018FE00E94FE019093CA02809329
:101C6000C9029C01990F440B550B2F5F334041096A
:101C70005109ACE8B0E00E946B17A50194010E94E5
:101C80004C17CA01B9010E94CB1820E030E040E2B5
:101C900051E40E9421184B015C0180920601909250
:101CA0000701A0920801B092090110922A04109233
:101CB00012041092130410921404109215048BED68
:101CC0009FE0A9E4B1E48093260490932704A093B5
:101CD0002804B09329048DEC9CECACE4BEE3809323
:101CE000220490932304A0932404B093250426E6B1
:101CF00036E646E65FE3C501B4010E9480192B0178
:101D00003C0110920D041092F5031092F60310920C
:101D1000F7031092F80320E030E0A9010E947B193C
:101D2000181624F077FA709477F870942BED3FE052
:101D300049EC50E4C301B2010E9480196093090488
:101D400070930A0480930B0490930C042FE632E105
:101D500043E85AE3B701C8010E941C1887FF02C07C
:101D60000C94B91620E030E04AE754E4B701C8010A
:101D70000E947B19181614F00C94BF1650E040E036
:101D80003AE724E4852F942FA32FB22F80930504E4
:101D900090930604A0930704B09308041092F003F4
:101DA0001092D8031092D9031092DA031092DB0339
:101DB00020E030E0A901C501B4010E947B1918168A
:101DC00024F0B7FAB094B7F8B0942BED3FE049ECAB
:101DD00050E4C501B4010E9480196093EC03709334
:101DE000ED038093EE039093EF032FE632E143E897
:101DF0005AE3B701C8010E941C1887FDC6C720E03E
:101E000030E04AE754E4B701C8010E947B19181674
:101E100024F4E12CF12C0AE714E4C701D8018093E3
:101E2000E8039093E903A093EA03B093EB0369E01E
:101E300070E08BE394E00E94A00166E070E088E32C
:101E400094E00E94A00165E070E085E394E00E94C8
:101E5000A00163E070E082E394E00E94A00187EBC0
:101E600091E00E9413060E9412018FE00E94FE0181
:101E70006C019093CA028093C9028EE00E94FE0119
:101E80007C019093C8028093C70286E00E94FE0105
:101E9000893E23E0920714F088EE93E084319105A7
:101EA00014F484E190E09093C6028093C50287E029
:101EB0000E94FE01893E33E0930714F088EE93E020
:101EC0008431910514F484E190E09093C4028093EE
:101ED000C30280E10E94FE01893E43E0940714F0B2
:101EE00088EE93E08431910514F484E190E09093BE
:101EF000C2028093C10281E10E94FE018C01093E71
:101F000083E0180714F008EE13E00431110514F40F
:101F100004E110E01093C0020093BF029601DD0CB3
:101F2000440B550B2F5F334041095109ACE8B0E039
:101F30000E946B1721E03CEF4FEF5FEF0E944C17C0
:101F4000CA01B9010E94CB184B015C0120E030E0CE
:101F500040E251E40E941C1887FD1EC720E030E0DB
:101F600040E752E4C501B4010E947B19181634F40D
:101F7000812C912C50E7A52E52E4B52E20E030E0C4
:101F800040E251E4C501B4010E9421184B015C01FB
:101F90008092060190920701A0920801B092090177
:101FA0009701FF0C440B550B2F5F3340410951093A
:101FB000A8EDBFEF0E94791721E03CEF4FEF5FEFF4
:101FC0000E944C17CA01B901685D7F4F8F4F9F4F28
:101FD0000E94CB186B017C0120E030E040E050E42F
:101FE0000E941C1887FDDFC620E030E040E252E48A
:101FF000C701B6010E947B19181634F4C12CD12CEC
:1020000030E2E32E32E4F32E20E030E040E251E40F
:10201000C701B6010E9421186B017C01CB01D701D9
:102020008093020190930301A0930401B0930501F2
:102030002091C5023091C602032E000C440B550BB3
:102040002451310941095109A8E8BFEF0E947917CD
:1020500024ED33E040E050E00E944C17CA01B90182
:1020600068587F4F8F4F9F4F0E94CB1820E030E081
:1020700040E251E40E9421186B837C838D839E8310
:102080006093BB027093BC028093BD029093BE022A
:102090002091C3023091C402032E000C440B550B57
:1020A0002451310941095109A8E3BFEF0E94791772
:1020B00024ED33E040E050E00E944C172C593F4F94
:1020C0004F4F5F4F9AE0929F1001939F300C112465
:1020D0003092BA022092B902012E000C220B330B6F
:1020E000A9019801285E334041095109A4E6B0E0F6
:1020F0000E946B172CE23CEF4FEF5FEF0E944C17F2
:102100002135310514F020E530E02431310514F497
:1021100024E130E030930101209300012091C102BD
:102120003091C202032E000C440B550B285E334045
:1021300041095109A4E6B0E00E946B172CE23CEF84
:102140004FEF5FEF0E944C172536310514F024E65F
:1021500030E02A30310514F42AE030E0AAE0A29FF2
:10216000C001A39F900D11249093B8028093B702F1
:1021700008EE13E02FE334E04EE06BE380913E0481
:102180000E94210780913F0490914004982789275D
:1021900098279093B6028093B50280914104909164
:1021A00042049827892798279093B4028093B3021A
:1021B000809143049091440498278927982790930D
:1021C000B2028093B102809147049091480498270D
:1021D000892798279093B0028093AF028091490499
:1021E00090914A049827892798279093AE0280936C
:1021F000AD0280914B0490914C0498278927982731
:102200009093AC028093AB022FE632E143E85AE3AD
:10221000B601C7010E941C1887FDCBC520E030E045
:102220004AE754E4B601C7010E947B1918160CF066
:10223000C5C550E040E03AE724E4852F942FA32F52
:10224000B22F8093050490930604A0930704B093E3
:10225000080426E636E646E65FE3C501B4010E94BF
:1022600080192B013C0120E030E0A9010E947B197C
:10227000181624F077FA709477F870942BED3FE0FD
:1022800049EC50E4C301B2010E9480196093090433
:1022900070930A0480930B0490930C042FE632E1B0
:1022A00043E85AE3B601C7010E941C1887FD8BC59D
:1022B00020E030E04AE754E4B601C7010E947B19F0
:1022C000181634F4C12CD12C8AE7E82E94E4F92EA8
:1022D000C601D7018093E8039093E903A093EA0332
:1022E000B093EB0320E030E0A901C501B4010E94E6
:1022F0007B19181624F0B7FAB094B7F8B0942BED08
:102300003FE049EC50E4C501B4010E94801960939C
:10231000EC037093ED038093EE039093EF0340E0A2
:1023200050E0BA0182E194E00E942F04609112040F
:102330007091130480911404909115040E949318D5
:102340007093AA026093A9028091A802811144C5EA
:102350006091AF027091B002072E000C880B990BB0
:102360000E94CB18AB01BC0185EF93E00E942F04C3
:102370006091F5037091F6038091F7039091F80353
:102380000E9493187093A7026093A6026091AD0219
:102390007091AE02072E000C880B990B0E94CB188F
:1023A000AB01BC0188ED93E00E942F046091D8033B
:1023B0007091D9038091DA039091DB030E94931806
:1023C0007093A5026093A4022091A4023091A5020B
:1023D000032E000C440B550B20533547410951097E
:1023E000A0EDB7E00E946B1720EA35E14FEF5FEFF9
:1023F0000E944C17CA01B9010E94CB186B8B7C8BD1
:102400008D8B9E8B6093A0027093A1028093A20299
:102410009093A3022091A6023091A702032E000CF4
:10242000440B550B2058384341405109A0EDB7E00B
:102430000E946B1720E03FE84DEF5FEF0E944C17C2
:10244000CA01B9010E94CB186B017C01C0929C02A9
:10245000D0929D02E0929E02F0929F020E943B0267
:102460006838734181059105A0F08091A90290918F
:10247000AA02813D27E0920714F080ED97E08438AE
:1024800033E0930714F484E893E09093AA028093D6
:10249000A90210929B0210929A02A7019601C7010D
:1024A000B6010E9480196F83788789879A872B8964
:1024B0003C894D895E8960E070E08AEF94E40E9477
:1024C000AF179B01AC010E9480196F8B788F898FA9
:1024D0009A8F2F81388549855A850E94B0170E94AE
:1024E000F3194B015C01B101330C880B990B0E946D
:1024F000CB182B013C0128EB36EC40EB54E4C50132
:10250000B4010E94AF172B813C814D815E810E94F6
:10251000801928EB36EC40EB54E40E94B017A3017D
:1025200092010E94B01720E030E0A9010E94B0178C
:1025300020E030E0A9010E94B01720E030E0A901BE
:102540000E94B0176B877C878D879E8720E030E0E4
:10255000A9010E941C1887FD65C420E030EC40E30F
:1025600055E46B857C858D859E850E947B191816A8
:1025700044F480E090ECA0E3B5E48B879C87AD87C2
:10258000BE87A701960160E070E08AEF94E40E94A4
:10259000AF179B01AC010E9480194B015C01AC019B
:1025A0009B016F89788D898D9A8D0E94B0170E944A
:1025B000F31928EB36EC40EB54E40E94AF172B8163
:1025C0003C814D815E810E94801928EB36EC40EB06
:1025D00054E40E94B017A30192010E94B01720E0BA
:1025E00030E0A9010E94B01720E030E0A9010E946C
:1025F000B0176F87788B898B9A8B20E030E0A90128
:102600000E941C1887FD13C420E030EC40E355E421
:102610006F85788989899A890E947B19181644F4F4
:1026200080E090ECA0E3B5E48F87988BA98BBA8B00
:102630002B893C894D895E89CA01B9010E948019A4
:102640006B017C012F81388549855A850E94B0171E
:102650000E94F31928EB36EC40EB54E40E94AF17CC
:102660002B813C814D815E810E94801928EB36ECE4
:1026700040EB54E40E94B017A30192010E94B017EE
:1026800020E030E0A9010E94B01720E030E0A9016D
:102690000E94B0176F83788789879A8720E030E09F
:1026A000A9010E941C1887FDC7C320E030EC40E35D
:1026B00055E46F81788589859A850E947B19181663
:1026C00044F480E090ECA0E3B5E48F839887A98779
:1026D000BA87A5019401C701B6010E94B0170E94F4
:1026E000F31928EB36EC40EB54E40E94AF172B8132
:1026F0003C814D815E810E94801928EB36EC40EBD5
:1027000054E40E94B017A30192010E94B01720E088
:1027100030E0A9010E94B0172B013C0120E030E01D
:10272000A9010E941C1887FD8CC320E030EC40E317
:1027300055E4C301B2010E947B1918163CF4412CE8
:10274000F0EC5F2EF0E36F2EF5E47F2E8091000118
:102750009091010164E670E0681B790B072E000C74
:10276000880B990B0E94CB1820E030E048EC52E433
:102770000E9421186B837C838D839E836091B702B6
:102780007091B802660F771F072E000C880B990B0B
:102790000E94CB184B015C01AC019B016B817C81D9
:1027A0008D819E810E9480196B017C0120E030E0C8
:1027B000A9010E941C1887FD48C320E030E04AE7C9
:1027C00054E4C701B6010E947B19181634F4C12CD9
:1027D000D12C6AE7E62E64E4F62EC701B6010E940A
:1027E00093186B8F7C8F8D8F9E8FAB8DBC8DB0932C
:1027F0008902A09388022B813C814D815E8160E03B
:1028000070E080E89FE30E94AF17A50194010E9449
:1028100080196B017C0120E030E0A9010E941C18A6
:1028200087FD17C320E030E04AE754E4C701B60152
:102830000E947B19181634F4C12CD12C5AE7E52ECE
:1028400054E4F52EC701B6010E9493186B017093F2
:1028500087026093860284EF91E0909385028093D3
:10286000840224EC39E03093830220938202309377
:1028700081022093800290937F0280937E026B8579
:102880007C858D859E850E9493189B01AC01A0EDEF
:10289000B7E00E946B172CE03BE040E050E00E9464
:1028A0004C17CA01B9016C507E4F8F4F9F4F0E9449
:1028B000CB186B837B878B8B9F8B6F8578898989FE
:1028C0009A890E9493189B01AC01A0E3B8EF0E9483
:1028D00079172CE03BE040E050E00E944C17CA0121
:1028E000B9016C53764F8F4F9F4F0E94CB18B62E75
:1028F000A72E982E892E6F81788589859A850E94CA
:1029000093189B01AC01A0E3B8EF0E9479172CE06B
:102910003BE040E050E00E944C17CA01B9016C5303
:10292000764F8F4F9F4F0E94CB186F877F831C017C
:10293000C301B2010E9493189B01AC01A0EDB7E066
:102940000E946B172CE03BE040E050E00E944C17E7
:10295000CA01B9016C507E4F8F4F9F4F0E94CB1818
:102960006F8F78A389A39AA32B8D3C8D24523A4F65
:102970003CA32BA36CED75E08B8D9C8D681B790BB4
:10298000072E000C880B990B0E94CB182B013C01E1
:102990009B01AC016B817B858B899F890E941C18F0
:1029A00087FD5BC2ABA1BCA1BD01BB0F880B990B1E
:1029B0000E94CB186B8F7DA38C019B01AC016B81B6
:1029C0007B858B899F890E947B19181634F4BB8DF7
:1029D000BB832DA12B870B8B1F8B8B819B85AB8999
:1029E000BF898093960290939702A0939802B09328
:1029F00099029201A3016B2D7A2D892D982D0E94A9
:102A00001C1887FD18C0ABA1BCA1BD01BB0F880B72
:102A1000990B0E94CB182B013C019B01AC016B2D43
:102A20007A2D892D982D0E947B19181624F04B2C95
:102A30005A2C692C782CC201D30180939202909376
:102A40009302A0939402B09395024601B4E28B1ACC
:102A5000BAEF9B0A6CED75E06C197D09072E000C2E
:102A6000880B990B0E94CB187B018C019B01AC0158
:102A70006F857F81C1010E941C1887FDF3C1B401DD
:102A8000092C000C880B990B0E94CB185B016C0180
:102A90009B01AC016F857F81C1010E947B191816D3
:102AA0001CF4AF86BF8216018F859F81D101809370
:102AB0008E0290938F02A0939002B093910297019F
:102AC000A8016F8D78A189A19AA10E941C1887FD89
:102AD00016C0B401990C880B990B0E94CB187B018E
:102AE0008C019B01AC016F8D78A189A19AA10E94F4
:102AF0007B19181624F0EF8CF8A009A11AA1C701C0
:102B0000D80180938A0290938B02A0938C02B09399
:102B10008D0288E391E00E9436178D3E09F040C097
:102B20000E943B0280907A0290907B02A0907C02EF
:102B3000B0907D02681979098A099B096531710590
:102B40008105910568F16B817B858B899F890E9446
:102B500093188BE394E00E943905B201C3010E94EF
:102B6000931888E394E00E9439056F857F81C10145
:102B70000E94931885E394E00E943905B701C801CB
:102B80000E94931882E394E00E9439050E943B0260
:102B900060937A0270937B0280937C0290937D0213
:102BA0000E941201892BC1F46CED75E08BE394E077
:102BB0000E9439056CED75E088E394E00E943905C8
:102BC0006CED75E085E394E00E9439056CED75E0ED
:102BD00082E394E00E94390582EC91E00E94210694
:102BE0008091B9029091BA020E9423068AED91E089
:102BF0000E9421068AEC91E00E9421066091BB02AE
:102C00007091BC028091BD029091BE020E94530659
:102C10008AED91E00E94210680ED91E00E9421065C
:102C200080910001909101010E9423068AED91E0BC
:102C30000E94210683EE91E00E9421068091B70256
:102C40009091B802880F991F880F991F0E94230640
:102C50008AED91E00E94210685ED91E00E94210617
:102C6000609106017091070180910801909109011E
:102C70000E9453068AED91E00E9421068CED91E0BE
:102C80000E9421066091020170910301809104016C
:102C9000909105010E9453068AED91E00E94210661
:102CA00082EE91E00E942106809188029091890233
:102CB000880F991F0E9423068AED91E00E94210649
:102CC0008AEE91E00E94210680918602909187020F
:102CD000880F991F0E9423068AED91E00E94210629
:102CE00082EF91E00E942106609196027091970216
:102CF00080919802909199020E9453068AED91E08A
:102D00000E94210689EF91E00E94210660918E02C7
:102D100070918F0280919002909191020E945306CF
:102D20008AED91E00E94210680919A0290919B0287
:102D30000E9423068EE291E00E94C20580E090E0AE
:102D4000892B09F490C80E94B302882309F48BC828
:102D50000E94000088C81092A8020C94440D61E003
:102D600081E090E00E943E1781E08093A8020C94DD
:102D7000550D5FE642E133E82AE30C94C20E5E2D66
:102D80004F2D302F212F0C94C20E6FE6E62E72E1EC
:102D9000F72E03E81AE341C8812C912C40E2A42EBF
:102DA00041E4B42EEBC8C12CD12CE12C20E4F22E4E
:102DB0002BC95FE642E133E82AE33FCA5C2D4D2D83
:102DC0003E2D2F2D3ACAAFE6CA2EB2E1DB2E13E814
:102DD000E12E0AE3F02E7CCA6091AD027091AE0242
:102DE000072E000C880B990B0E94CB18AB01BC017D
:102DF00085EF93E00E942F046091F5037091F60334
:102E00008091F7039091F8030E9493187093A702A2
:102E10006093A6026091AF027091B00271956195C6
:102E20007109B8CA1B861C861D861E86AACB1F8602
:102E3000188A198A1A8AFCCB1F82188619861A8664
:102E400048CC412C512C320181CCC12CD12C7601A3
:102E5000C4CCC12CD12C7601F5CC4B825B866B8A1D
:102E60007F8ABBCDEF86FF8218011ECEF999FECF77
:102E700092BD81BDF89A992780B50895262FF999BA
:102E8000FECF1FBA92BD81BD20BD0FB6F894FA9A4D
:102E9000F99A0FBE01960895052E97FB1EF4009433
:102EA0000E94631757FD07D00E947E1707FC03D0CE
:102EB0004EF40C94631750954095309521953F4FF3
:102EC0004F4F5F4F089590958095709561957F4F16
:102ED0008F4F9F4F08950E94A017A59F900DB49FFC
:102EE000900DA49F800D911D11240895B7FF0C949F
:102EF0006B170E946B17821B930B0895A1E21A2E89
:102F0000AA1BBB1BFD010DC0AA1FBB1FEE1FFF1F8D
:102F1000A217B307E407F50720F0A21BB30BE40BDD
:102F2000F50B661F771F881F991F1A9469F7609524
:102F30007095809590959B01AC01BD01CF010895DE
:102F4000A29FB001B39FC001A39F700D811D1124EA
:102F5000911DB29F700D811D1124911D089550582F
:102F6000BB27AA270E94C7170C9441190E94331946
:102F700038F00E943A1920F039F49F3F19F426F4F2
:102F80000C9430190EF4E095E7FB0C942A19E92F04
:102F90000E94521958F3BA176207730784079507FE
:102FA00020F079F4A6F50C9474190EF4E0950B2E2C
:102FB000BA2FA02D0B01B90190010C01CA01A0018B
:102FC0001124FF27591B99F0593F50F4503E68F1E6
:102FD0001A16F040A22F232F342F4427585FF3CF27
:102FE000469537952795A795F0405395C9F77EF4F8
:102FF0001F16BA0B620B730B840BBAF09150A1F041
:10300000FF0FBB1F661F771F881FC2F70EC0BA0FC6
:10301000621F731F841F48F4879577956795B7954E
:10302000F7959E3F08F0B0CF9395880F08F0992749
:10303000EE0F9795879508950E94061908F481E090
:1030400008950E9435180C9441190E943A1958F0BD
:103050000E94331940F029F45F3F29F00C942A199B
:1030600051110C9475190C9430190E94521968F37F
:103070009923B1F3552391F3951B550BBB27AA2731
:1030800062177307840738F09F5F5F4F220F331F6B
:10309000441FAA1FA9F335D00E2E3AF0E0E832D033
:1030A00091505040E695001CCAF72BD0FE2F29D036
:1030B000660F771F881FBB1F261737074807AB0708
:1030C000B0E809F0BB0B802DBF01FF2793585F4F7D
:1030D0003AF09E3F510578F00C942A190C9475191A
:1030E0005F3FE4F3983ED4F3869577956795B7955F
:1030F000F7959F5FC9F7880F911D9695879597F96A
:103100000895E1E0660F771F881FBB1F62177307E2
:103110008407BA0720F0621B730B840BBA0BEE1FF7
:1031200088F7E09508950E949A186894B1110C945C
:10313000751908950E945A1988F09F5798F0B92F71
:103140009927B751B0F0E1F0660F771F881F991FDC
:103150001AF0BA95C9F714C0B13091F00E947419F1
:10316000B1E008950C947419672F782F8827B85F01
:1031700039F0B93FCCF3869577956795B395D9F734
:103180003EF490958095709561957F4F8F4F9F4F3E
:103190000895E89409C097FB3EF49095809570954A
:1031A00061957F4F8F4F9F4F9923A9F0F92F96E993
:1031B000BB279395F695879577956795B795F11108
:1031C000F8CFFAF4BB0F11F460FF1BC06F5F7F4FA5
:1031D0008F4F9F4F16C0882311F096E911C07723B7
:1031E00021F09EE8872F762F05C0662371F096E8C0
:1031F000862F70E060E02AF09A95660F771F881F8F
:10320000DAF7880F9695879597F90895990F000832
:10321000550FAA0BE0E8FEEF16161706E807F907A8
:10322000C0F012161306E407F50798F0621B730B43
:10323000840B950B39F40A2661F0232B242B252BC4
:1032400021F408950A2609F4A140A6958FEF811D67
:10325000811D089597F99F6780E870E060E0089508
:103260009FEF80EC089500240A941616170618069E
:103270000906089500240A9412161306140605067A
:103280000895092E0394000C11F4882352F0BB0F0B
:1032900040F4BF2B11F460FF04C06F5F7F4F8F4F6E
:1032A0009F4F089557FD9058440F551F59F05F3FA9
:1032B00071F04795880F97FB991F61F09F3F79F058
:1032C00087950895121613061406551FF2CF4695DA
:1032D000F1DF08C0161617061806991FF1CF86955C
:1032E0007105610508940895E894BB276627772740
:1032F000CB0197F908950E94061908F48FEF0895FD
:103300000E9493190C9441190E94331938F00E94BD
:103310003A1920F0952311F00C942A190C943019C5
:1033200011240C9475190E94521970F3959FC1F3E2
:10333000950F50E0551F629FF001729FBB27F00D63
:10334000B11D639FAA27F00DB11DAA1F649F6627B8
:10335000B00DA11D661F829F2227B00DA11D621F07
:10336000739FB00DA11D621F839FA00D611D221FC1
:10337000749F3327A00D611D231F849F600D211DA5
:10338000822F762F6A2F11249F5750409AF0F1F028
:1033900088234AF0EE0FFF1FBB1F661F771F881F91
:1033A00091505040A9F79E3F510580F00C942A1986
:1033B0000C9475195F3FE4F3983ED4F386957795A6
:1033C0006795B795F795E7959F5FC1F7FE2B880F37
:1033D000911D9695879597F9089519F416F40C9414
:1033E00030190C94381A0E945A19B8F39923C9F36A
:1033F000B6F39F57550B87FF0E94461A0024A0E69C
:1034000040EA900180585695979528F4805C660FA5
:10341000771F881F20F026173707480730F4621BF4
:10342000730B840B202931294A2BA69517940794F6
:10343000202531254A2758F7660F771F881F20F06F
:1034400026173707480730F4620B730B840B200DE7
:10345000311D411DA09581F7B901842F9158880F26
:103460009695879508950E940619880B990B0895E3
:103470009F3F31F0915020F4879577956795B795E8
:10348000880F911D9695879597F908959150504012
:10349000660F771F881FD2F70895991B79E004C043
:1034A000991F961708F0961B881F7A95C9F7809583
:1034B0000895EE0FFF1F0590F491E02D0994F89404
:0234C000FFCF3C
:1034C2003200CDCC4C3E0000004000000000E9027A
:1034D200490276023603A702850299020000000023
:1034E200DE03B1032C048703AA03970388030D0AA2
:1034F200006E616E00696E66006F7666004352412F
:10350200574C4552204649524D5741524520312E83
:10351200323620524144494F2056455253494F4E6C
:1035220000434F4E4E4543542050494E20372054BD
:103532004F204120524144494F205245434549566C
:10354200455220414E44204B45455020495420507D
:103552004F574552454420414E4420434F4E4E451D
:103562004354454420544F2041205452414E534D20
:1035720049545445522100534554555020444F4E0E
:1035820045006F666673657420006D756C7420006B
:1035920062616C20007370656564200064616D7007
:1035A20020004672616E676520005272616E676527
:0E35B2002000464C706F732000524C682000C1
:00000001FF
