:100000000C9462000C948A000C948A000C945F0B90
:100010000C94320B0C94050B0C948A000C948A00FF
:100020000C948A000C94260A0C948A000C94490AB9
:100030000C948A000C948A000C948A000C948A0018
:100040000C9465080C948A000C94D5080C94AF08A5
:100050000C948A000C948A000C948A000C948A00F8
:100060000C9407090C948A0000000000240027006B
:100070002A0000000000250028002B0004040404CE
:100080000404040402020202020203030303030342
:10009000010204081020408001020408102001021F
:1000A00004081020000000080002010000030407FB
:1000B00000000000000000000000000023002600F7
:1000C0002900A70B11241FBECFEFD8E0DEBFCDBFA4
:1000D00012E0A0E0B1E0EEE2F5E302C005900D927F
:1000E000A030B107D9F724E0A0E0B2E001C01D9232
:1000F000AC37B207E1F710E0C2E6D0E004C02197C8
:10010000FE010E948F1AC136D107C9F70E94A00CC8
:100110000C94951A0C940000982F2091140381E000
:10012000213208F043C08091F0028111FCCF809110
:10013000130332E03093F0029093EF029FEF90931D
:10014000EE021092ED022093EC02A3EFB2E0ECEC91
:10015000F2E090E0291331C01092CB029091CB02D3
:10016000880F892B8093CB028091CA02813049F598
:100170001092CA028091CB028093BB008091BC0098
:1001800083FDF8CF85EC8093BC008091F002823033
:10019000E1F38091EE028F3FB1F08091EE02803268
:1001A000A1F08091EE02803391F084E01092F2028F
:1001B000109214031092F10208953D9131939F5FC4
:1001C000C9CF85EEE0CF80E0F1CF82E0EFCF83E0D2
:1001D000EDCF833081F028F4813099F08230A9F09E
:1001E00008958730A9F08830C9F08430B1F4809147
:1001F00080008F7D03C0809180008F778093800086
:10020000089584B58F7784BD089584B58F7DFBCF25
:100210008091B0008F778093B00008958091B000F6
:100220008F7DF9CFCF93DF93E0EBF0E08491ECE9A1
:10023000F0E0D491E8E8F0E0C491CC23A1F0811182
:100240000E94E900EC2FF0E0EE0FFF1FE854FF4F93
:10025000A591B491EC91ED2381E090E009F480E068
:10026000DF91CF91089580E090E0FACF1F93CF9374
:10027000DF93282F30E0F901EC55FF4F8491F9010D
:10028000E057FF4FD491F901E458FF4FC491CC23BC
:10029000A9F0162F81110E94E900EC2FF0E0EE0F7B
:1002A000FF1FEE58FF4FA591B4918FB7F894EC91D2
:1002B000111108C0D095DE23DC938FBFDF91CF9161
:1002C0001F910895DE2BF8CFCF93DF9390E0FC01D0
:1002D000E057FF4F249184589F4FFC01849188235D
:1002E000C9F090E0880F991FFC01E859FF4FA591D4
:1002F000B491FC01EE58FF4FC591D49161110DC02E
:100300009FB7F8948C91209582238C938881282321
:1003100028839FBFDF91CF910895623051F49FB73A
:10032000F8943C91822F809583238C93E8812E2B27
:10033000EFCF8FB7F894EC912E2B2C938FBFEACF91
:100340001F93CF93DF93EC01162F88818C3008F038
:1003500050C061E0812F0E9464018881282F30E025
:10036000F901EE0FFF1FE20FF31FEB5EFC4F1F734F
:100370006081607C612B608394E2998397EE9A831D
:100380002CE0622F0E94831A829FB001112430E07A
:1003900020E0AB01420F531FFA01EE0FFF1FE40FE5
:1003A000F51FEB5EFC4F908196FD16C02F5F3F4F0F
:1003B0002C30310571F781110FC01092800082E05E
:1003C000809381001092850010928400B19A8091F0
:1003D0006F00826080936F00E8818E2F90E0FC01B7
:1003E000EE0FFF1FE80FF91FEB5EFC4F808180646A
:1003F00080838881DF91CF911F9108958E50806412
:1004000080937C0080917A00806480937A00809150
:100410007A0086FDFCCF8091780090917900089554
:100420003FB7F8948091C6029091C702A091C8028C
:10043000B091C90226B5A89B05C02F3F19F00196BF
:10044000A11DB11D3FBFBA2FA92F982F8827BC012E
:10045000CD01620F711D811D911D42E0660F771F56
:10046000881F991F4A95D1F7089508950895AF926E
:10047000BF92CF92DF92EF92FF920F931F93CF9391
:10048000DF936C017B018B01040F151FEB015E01F3
:10049000AE18BF08C017D10759F06991D601ED9188
:1004A000FC910190F081E02DC6010995892B79F727
:1004B000C501DF91CF911F910F91FF90EF90DF90D9
:1004C000CF90BF90AF900895FC01538D448D252FA0
:1004D00030E0842F90E0821B930B541710F0CF96DE
:1004E000089501970895FC01918D828D981761F010
:1004F000A28DAE0FBF2FB11D5D968C91928D9F5F27
:100500009F73928F90E008958FEF9FEF0895FC0105
:10051000918D828D981731F0828DE80FF11D858DB8
:1005200090E008958FEF9FEF0895FC01918D228D4B
:10053000892F90E0805C9F4F821B91098F739927D0
:10054000089589E393E00E94950221E0892B09F444
:1005500020E0822F089580E090E0892B29F00E940E
:10056000A10281110C9400000895FC01A48DA80F34
:10057000B92FB11DA35ABF4F2C91848D90E00196E5
:100580008F739927848FA689B7892C93A089B18905
:100590008C91837080648C93938D848D981306C0A6
:1005A0000288F389E02D80818F7D80830895EF920A
:1005B000FF920F931F93CF93DF93EC0181E0888F1D
:1005C0009B8D8C8D98131AC0E889F989808185FFED
:1005D00015C09FB7F894EE89FF896083E889F9898F
:1005E00080818370806480839FBF81E090E0DF9191
:1005F000CF911F910F91FF90EF900895F62E0B8DE4
:1006000010E00F5F1F4F0F731127E02E8C8D8E119E
:100610000CC00FB607FCFACFE889F989808185FF05
:10062000F5CFCE010E94B502F1CFEB8DEC0FFD2F7F
:10063000F11DE35AFF4FF0829FB7F8940B8FEA89C0
:10064000FB8980818062CFCFCF93DF93EC01888DCF
:100650008823B9F0AA89BB89E889F9898C9185FD3D
:1006600003C0808186FD0DC00FB607FCF7CF8C91CB
:1006700085FFF2CF808185FFEDCFCE010E94B502CC
:10068000E9CFDF91CF91089585ED8093BC008091F3
:10069000BC0084FDFCCF1092F002089520914D0221
:1006A000260F3327331F21323105ECF42091F0025D
:1006B000FC0190E080E0243069F082E00895A09190
:1006C0004D022191AC01435D5D4FA40FB52FB11DCB
:1006D0002C930196861798F380914D02680F6093D2
:1006E0004D0280E0089581E008950895E09175023B
:1006F00080917402E81730F4F0E0E35FFD4F8081F1
:1007000090E008958FEF9FEF08959091750280918A
:1007100074022FEF3FEF981748F4E92FF0E0E35F02
:10072000FD4F208130E09F5F90937502C9010895CD
:100730008091740290917502891B990B0895CF9254
:10074000DF92EF92FF920F931F93CF93DF937C0181
:10075000CB018A012091F102222389F0EB016B0188
:10076000C40ED51ECC15DD0569F06991D701ED9158
:10077000FC910190F081E02DC7010995F3CF642F22
:100780000E944E03C801DF91CF911F910F91FF90FE
:10079000EF90DF90CF900895CF93DF931F92CDB766
:1007A000DEB769832091F1022223F9F0209114032E
:1007B000203258F021E030E0FC013383228390E0C6
:1007C00080E00F90DF91CF9108958091F202E82FA1
:1007D000F0E0ED50FD4F998190838F5F8093F2029E
:1007E0008093140381E090E0ECCF61E0CE010196AC
:1007F0000E944E03F7CFCF93DF93EA0191E09093ED
:10080000F102809313031092F2021092140386ED0A
:1008100093E00E94CC03688186ED93E00E94CC03B4
:1008200081E00E948C0091E0811190E0892FDF919E
:10083000CF91089590E080E008952F923F924F92DB
:100840005F926F927F928F929F92AF92BF92CF9260
:10085000DF92EF92FF920F931F93CF93DF93CDB769
:10086000DEB72A970FB6F894DEBF0FBECDBF9A87CA
:1008700089872A013B01DC011C964D925D926D92A5
:100880007C921F970E9410026B017C01E985FA851A
:10089000818D928DA38DB48DA7019601281B390BF4
:1008A0004A0B5B0BCA01B9010E9401192DEB37E31A
:1008B00046E855E30E94B619162F072F382E292E29
:1008C000A985BA855996CD92DD92ED92FC925C97FE
:1008D00020E030E0A9010E94521887FDB5C0E985EB
:1008E000FA85248935894689578960E070E080E877
:1008F0009FE30E9457186B017C01212F302F432D5D
:10090000522D0E94521887FF04C01C2D0D2D3E2C25
:100910002F2CA985BA855496CD90DD90ED90FC9052
:100920005797A7019601C701B6010E94B6196D83BA
:100930007E838F839887E985FA8584809580A68059
:10094000B780208131814281538129833A834B834F
:100950005C83A30192010E94B6192B013C01E98539
:10096000FA852089318942895389C701B6010E94DD
:100970005718A50194010E94B6199B01AC01C3014F
:10098000B2010E94E5176B017C0129813A814B81FC
:100990005C816D817E818F8198850E94B6199B0153
:1009A000AC01C701B6010E94E517212F302F432D5E
:1009B000522D0E94B619A50194010E94E6176B0101
:1009C0007C01AC019B01C501B4010E94E61720E047
:1009D00030E040E05FE30E94B619A985BA85189619
:1009E0006D937D938D939C931B97212F302F432DD7
:1009F000522D0E94B61929813A814B815C810E9457
:100A0000E617E985FA856083718382839383C482C4
:100A1000D582E682F7822A960FB6F894DEBF0FBE23
:100A2000CDBFDF91CF911F910F91FF90EF90DF909D
:100A3000CF90BF90AF909F908F907F906F905F907E
:100A40004F903F902F90089510E000E0312C212C22
:100A500060CFDC01EC91EC3090F511968C91119700
:100A600028E830E0281B310987FD3395220F331F1A
:100A7000220F331F6217730784F012968C9128E5BA
:100A800032E0281B310987FD3395220F331F220FD7
:100A9000331F621773070CF49B0122503109220F98
:100AA000331F4FB7F8948E2F90E0FC01EE0FFF1F1D
:100AB000E80FF91FEB5EFC4F328321834FBF08958F
:100AC000FF920F931F93CF93DF938C01D80117965A
:100AD0008C91179720910A0215969C911597309149
:100AE0000A0216964C911697C0910A02C095C4232B
:100AF0009323C92B8227FC2EF82280910A02179695
:100B00008C9317971896CD91DC912097B1F08B813B
:100B1000982F9F2171F090910A02892391E009F4A6
:100B200090E0909309028C8180930802E881F9811A
:100B300009950D80DE81C02DE8CF9BB3F80184813B
:100B4000982351F09BB3892B8BBB0190F081E02D52
:100B5000808180930A02BACFDF91CF911F910F91CC
:100B6000FF900895FC0101900020E9F73197AF0153
:100B7000481B590BBC0189E393E00C9437028F9218
:100B80009F92AF92BF920F931F93CF93DF93CDB7F6
:100B9000DEB7A1970FB6F894DEBF0FBECDBF19A286
:100BA000423008F44AE08E010F5D1F4F842E912CD5
:100BB000B12CA12CA50194010E94B417E62FB90114
:100BC000CA01EA30F4F4E05DD801EE938D01232BE5
:100BD000242B252B79F790E080E0109719F0CD01B8
:100BE0000E94B205A1960FB6F894DEBF0FBECDBF2E
:100BF000DF91CF911F910F91BF90AF909F908F90F9
:100C00000895E95CE1CFCF93DF930E94B205EC0138
:100C10008EE291E00E94B2058C0F9D1FDF91CF9173
:100C200008950C94B205CF92DF92EF92FF92CF938A
:100C3000DF936C01990FEE08FF08F7FE19C06DE213
:100C400089E393E00E94D702EC0166277727CB0166
:100C50006C197D098E099F094AE00E94BF058C0F1F
:100C60009D1FDF91CF91FF90EF90DF90CF9008957F
:100C70004AE0C701B601DF91CF91FF90EF90DF907E
:100C8000CF900C94BF054F925F926F927F928F929C
:100C90009F92AF92BF92CF92DF92EF92FF926B0141
:100CA0007C01AC019B010E94691A882381F081E3D9
:100CB00091E0FF90EF90DF90CF90BF90AF909F902A
:100CC0008F907F906F905F904F900C94B20546018B
:100CD0005701E894B7F82FEF3FEF4FE75FE7C50103
:100CE000B4010E94691A81110DC02FEF3FEF4FE749
:100CF0005FE7C501B4010E94521818161CF485E381
:100D000091E0D7CF2FEF3FEF4FE75FE4C701B60188
:100D10000E94B11918161CF489E391E0CACF2FEF95
:100D20003FEF4FE75FECC701B6010E94521887FD05
:100D3000F3CF20E030E0A901C701B6010E945218AC
:100D4000B12CA12C87FF0AC06DE289E393E00E94D9
:100D5000D7025C01F7FAF094F7F8F0942AE037ED47
:100D600043EA5BE3C701B6010E94E6172B013C0191
:100D70000E94D0186B017C010E94FF189B01AC01FE
:100D8000C301B2010E94E5172B013C014AE0C701F3
:100D9000B6010E94BF057C01EA0CFB1C6EE289E3F0
:100DA00093E00E94D702E80EF91E20E030E040E216
:100DB00051E4C301B2010E94B6192B013C010E940B
:100DC000D0184B01B12CA12C4AE0C501B4010E94FE
:100DD000BF05E80EF91EC501B4010E94FF189B0172
:100DE000AC01C301B2010E94E51720E030E040E20F
:100DF00051E40E94B6190E94D01890E080E04AE0C9
:100E00000E94BF058E0D9F1DFF90EF90DF90CF9049
:100E1000BF90AF909F908F907F906F905F904F901A
:100E200008952F923F924F925F926F927F928F928E
:100E30009F92AF92BF92CF92DF92EF92FF920F9369
:100E40001F93CF93DF9300D000D000D0CDB7DEB793
:100E5000C82E6A834E833C832B838FB7F89480908F
:100E6000C2029090C302A090C402B090C5028FBF8E
:100E70002C2D220F2983EE80D12C1D82FF24F39488
:100E80006E2C712C1801512C412CF092F102C09261
:100E900013031092F202109214036A8186ED93E01C
:100EA0000E94CC0381E00E948C00F092F10210922B
:100EB000F202109214038091F0028111FCCF8E2D6A
:100EC00090E29E1508F480E2F092F002F092EF02B8
:100ED0002FEF2093EE021092ED029FEF980F909368
:100EE000EC02F092CB029091CB022981922B90934D
:100EF000CB029091CA029130D1F51092CA02909122
:100F0000CB029093BB009091BC0093FDF8CF95EC81
:100F10009093BC009091F0029130E1F39091ED023A
:100F2000981710F48091ED02ACECB2E0EDE0F2E045
:100F300090E0981320C010927502909374029091E3
:100F4000740280917502981771F101151105B9F4B9
:100F500086ED93E00E948503EB81FC819D81E90F82
:100F6000F11D97FDFA9580839F5F9D83E8CF25EE65
:100F70002093BC00CFCF2D9121939F5FDACF2FB765
:100F8000F8948091C2029091C302A091C402B091E2
:100F9000C5022FBF88199909AA09BB0982159305B3
:100FA000A405B505A8F22E81D20EE21AD21608F4D5
:100FB0006CCF01151105F9F02FB7F8948091C2029A
:100FC0009091C302A091C402B091C5022FBF8819AD
:100FD0009909AA09BB0930E020E080179107A20710
:100FE000B30748F02D81822F220F990B86159705A4
:100FF00014F48FEF8D838D8126960FB6F894DEBFA3
:101000000FBECDBFDF91CF911F910F91FF90EF9059
:10101000DF90CF90BF90AF909F908F907F906F9018
:101020005F904F903F902F900895BF92CF92DF92A4
:10103000EF92FF920F931F93CF93DF9300D0CDB722
:10104000DEB7F82EE62EC42EB22ED02E08EE13E018
:101050009E012E5F3F4F41E00E941107882399F1C6
:101060008C2D8B19990BAC014F5F5F4F81E090E0A5
:1010700002C0880F991FBA94E2F70197042E01C0AD
:10108000880F0A94EAF70D2D01C0000F4A95EAF780
:10109000982F90952A8192238023892B8A83898394
:1010A000AE014F5F5F4F6E2D8F2D0E94FB030F909F
:1010B0000F90DF91CF911F910F91FF90EF90DF90F4
:1010C000CF90BF90089580E0F2CF1F920F920FB69D
:1010D0000F9211242F933F938F939F93AF93BF93BE
:1010E0008091C2029091C302A091C402B091C50246
:1010F0003091C10223E0230F2D3758F50196A11D31
:10110000B11D2093C1028093C2029093C302A093A9
:10111000C402B093C5028091C6029091C702A0910B
:10112000C802B091C9020196A11DB11D8093C602EB
:101130009093C702A093C802B093C902BF91AF9128
:101140009F918F913F912F910F900FBE0F901F9005
:10115000189526E8230F0296A11DB11DD2CF1F922C
:101160000F920FB60F9211242F933F934F935F93DB
:101170006F937F938F939F93AF93BF93EF93FF935F
:1011800089E393E00E94B502FF91EF91BF91AF9187
:101190009F918F917F916F915F914F913F912F918F
:1011A0000F900FBE0F901F9018951F920F920FB6C1
:1011B0000F9211242F938F939F93EF93FF93E091BE
:1011C0004903F0914A038081E0914F03F09150036D
:1011D00082FD1BC09081809152038F5F8F7320919D
:1011E0005303821741F0E0915203F0E0E75CFC4FBB
:1011F000958F80935203FF91EF919F918F912F9143
:101200000F900FBE0F901F9018958081F4CF1F9202
:101210000F920FB60F9211242F933F934F935F932A
:101220006F937F938F939F93AF93BF93EF93FF93AE
:101230008091B900887F803609F44AC0F0F5883281
:1012400009F4A7C018F5803109F49BC0B8F48823CD
:1012500009F4F9C0883009F494C0FF91EF91BF916F
:10126000AF919F918F917F916F915F914F913F913E
:101270002F910F900FBE0F901F901895883109F491
:1012800088C0803251F78093EE0214C0803409F494
:101290009DC040F48033B9F38833F9F68093EE02B1
:1012A00085ECB0C0803509F485C0883509F496C056
:1012B000883499F60E944403D0CF883909F48CC051
:1012C00038F5883729F050F4883611F0803729F640
:1012D00083E08093F00210926F0257C0883809F4BF
:1012E0007BC0803919F0803809F0B7CF80916F0248
:1012F000803208F071C0E0916F0281E08E0F809320
:101300006F028091BB00F0E0E15BFD4F80833DC048
:10131000803B39F0E0F4803A09F479C0883A09F06A
:101320009CCF84E08093F00210924E0210924D0206
:10133000E0917202F0917302099580914D02811142
:101340000FC081E080934D0210922D0209C0803CB5
:1013500009F4A6CF883C09F4A3CF883B09F07DCFE0
:10136000E0914E0281E08E0F80934E02F0E0E35D4B
:10137000FD4F80818093BB0090914E0280914D0281
:1013800029C08091CB028093BB0085EC8093BC0088
:1013900064CF9091ED028091EC02981758F5E0919E
:1013A000ED0281E08E0F8093ED02F0E0E453FD4FFB
:1013B0008081E9CFE091ED0281E08E0F8093ED0214
:1013C0008091BB00F0E0E453FD4F80839091ED02EB
:1013D0008091EC029817C8F285E8D8CFE091ED0231
:1013E00081E08E0F8093ED028091BB00F0E0E4532A
:1013F000FD4F80838091EF0281115CCF81E080936B
:10140000CA0284EA8093BC001092F00226CF85ECD9
:101410008093BC001092F00280916F02803230F411
:10142000E0916F02F0E0E15BFD4F108260916F028E
:1014300070E0E0917002F09171028FE492E0099502
:1014400010926F020ACF1092EE0234CF1F920F92C9
:101450000FB60F9211248F939F93AF93BF93EF9387
:10146000FF93E2EEF3E080819181A281B381019646
:10147000A11DB11D80839183A283B383FF91EF915E
:10148000BF91AF919F918F910F900FBE0F901F90C2
:1014900018951F920F920FB60F9211242F933F931E
:1014A0004F935F936F937F938F939F93AF93BF936C
:1014B000CF93DF93EF93FF9380910B02C0910C02C7
:1014C000D0E087FF24C010928500109284008091A4
:1014D0000B028F5F80930B0280910B02082E000C91
:1014E000990B8C179D0724F480910B028C30C4F16A
:1014F0008091840090918500049680349C4908F482
:101500007AC08091840090918500049676C0809185
:101510000B02082E000C990B8C179D07C4F6E09166
:101520000B028E2FEE0F990BFC01EE0FFF1FE80F41
:10153000F91FEB5EFC4F808186FFC9CFE0910B0263
:101540008E2FEE0F990BFC01EE0FFF1FE80FF91F16
:10155000EB5EFC4F808160E08F730E943601B7CF55
:101560002091840030918500E0910B028E2FEE0FC8
:10157000990BFC01EE0FFF1FE80FF91FEB5EFC4F0C
:1015800081819281820F931F9093890080938800BC
:10159000E0910B028E2FEE0F990BFC01EE0FFF1F57
:1015A000E80FF91FEB5EFC4F808186FF11C0E091D0
:1015B0000B028E2FEE0F990BFC01EE0FFF1FE80FB1
:1015C000F91FEB5EFC4F808161E08F730E94360152
:1015D000FF91EF91DF91CF91BF91AF919F918F914B
:1015E0007F916F915F914F913F912F910F900FBE1F
:1015F0000F901F90189580E49CE990938900809348
:1016000088008FEF80930B02E3CF1F920F920FB6EB
:101610000F9211242F933F934F935F936F937F9378
:101620008F939F93AF93BF93EF93FF93E0915E04EB
:10163000F0915F04808180930A028EE594E00E941D
:101640006005FF91EF91BF91AF919F918F917F9135
:101650006F915F914F913F912F910F900FBE0F901F
:101660001F9018951F920F920FB60F9211242F936F
:101670003F934F935F936F937F938F939F93AF931A
:10168000BF93EF93FF93E0916804F0916904808128
:1016900080930A0288E694E00E946005FF91EF9132
:1016A000BF91AF919F918F917F916F915F914F917A
:1016B0003F912F910F900FBE0F901F9018951F9282
:1016C0000F920FB60F9211242F933F934F935F9376
:1016D0006F937F938F939F93AF93BF93EF93FF93FA
:1016E000E0917204F0917304808180930A0282E792
:1016F00094E00E946005FF91EF91BF91AF919F919F
:101700008F917F916F915F914F913F912F910F90AA
:101710000FBE0F901F901895FC0190910C029C3009
:1017200098F481E0890F80930C029083892F90E0D8
:10173000FC01EE0FFF1FE80FF91FEB5EFC4F88EB7B
:101740009BE09283818308958FEF808308958F9229
:101750009F92AF92BF92CF92DF92EF92FF92CF9380
:10176000DF93E9E3F3E01382128288EE93E0A0E0D6
:10177000B0E084839583A683B7832EE031E0318384
:10178000208325EC30E03587248724EC30E0378750
:10179000268720EC30E0318B208B21EC30E0338B3E
:1017A000228B22EC30E0358B248B26EC30E0378B1B
:1017B000268B118E128E138E148EE6EDF3E01382BB
:1017C000128284839583A683B78380E291E091831C
:1017D0008083E2EEF3E0108211821282138214827F
:1017E000158216821782ECEBF0E085919491E2E786
:1017F000F4E0918380838BE690E09383828381E0A1
:1018000084831582168211861086EEEBF0E08591B6
:101810009491E8E6F4E0918380838CE690E09383F2
:10182000828382E084831582168211861086E0EC22
:10183000F0E085919491EEE5F4E0918380838DE66C
:1018400090E09383828384E08483158216821186DC
:10185000108688E680934F048CE494E00E948C0B01
:1018600089E494E00E948C0B86E494E00E948C0B47
:1018700083E494E00E948C0BC6E2D4E018821982C3
:101880001A821B821C821D821E821F82188E812C4E
:10189000912C80E8A82E8FE3B82E888A998AAA8A8C
:1018A000BB8A9BEDC92E9FE0D92E99ECE92E90E4DE
:1018B000F92ECC8ADD8AEE8AFF8A0E941002698F97
:1018C0007A8F8B8F9C8FC9E0D4E0188219821A829C
:1018D0001B821C821D821E821F82188E888A998A12
:1018E000AA8ABB8ACC8ADD8AEE8AFF8A0E9410020D
:1018F000698F7A8F8B8F9C8FCCEED3E01882198200
:101900001A821B821C821D821E821F82188E888A68
:10191000998AAA8ABB8ACC8ADD8AEE8AFF8A0E94CB
:101920001002698F7A8F8B8F9C8FDF91CF91FF9000
:10193000EF90DF90CF90BF90AF909F908F900895E1
:10194000CF93DF93CDB7DEB76B970FB6F894DEBFBA
:101950000FBECDBF789484B5826084BD84B58160AC
:1019600084BD85B5826085BD85B5816085BD80916A
:101970006E00816080936E001092810080918100E2
:1019800082608093810080918100816080938100DA
:10199000809180008160809380008091B10084609C
:1019A0008093B1008091B00081608093B0008091FD
:1019B0007A00846080937A0080917A0082608093BC
:1019C0007A0080917A00816080937A0080917A0019
:1019D000806880937A001092C1008091B00080935B
:1019E000EA038091B1008093EB038091B100887F7E
:1019F00082608093B100809170008160809370005C
:101A00008091B0008C7F8093B0008091B100877F7F
:101A10008093B100E0914903F0914A0382E0808312
:101A2000E0914503F09146031082E0914703F09165
:101A3000480380E1808310925103E0914D03F091BF
:101A40004E0386E08083E0914B03F0914C0380814C
:101A500080618083E0914B03F0914C03808188602A
:101A60008083E0914B03F0914C03808180688083F8
:101A7000E0914B03F0914C0380818F7D80838DE357
:101A800091E00E94030681E691E00E94030662E075
:101A90008CE00E94640160E080E10E94640160E0EB
:101AA00081E10E94640160E082E10E94640160E0E3
:101AB00085E10E94640181E090E00E946C17813012
:101AC00011F00C94B91680939E020E941201892B8A
:101AD00069F480919E02882311F40C94BD1660E095
:101AE00081E090E00E94741710929E02109275029D
:101AF000109274021092F202109214031092F002EB
:101B000081E08093EF021092CA0261E082E10E94BC
:101B1000360161E083E10E9436018091B9008E7F39
:101B20008093B9008091B9008D7F8093B90088E4DB
:101B30008093B80085E48093BC0085E392E09093A5
:101B400073028093720286E392E090937102809315
:101B500070028CE08093B80062E087E00E9464012C
:101B60003FB7F8942091B200B89B16C02091B20004
:101B70008091E2039091E303A091E403B091E50327
:101B80000196A11DB11D8093E2039093E303A093FE
:101B9000E403B093E503B89A8091E2039091E303E4
:101BA000A091E403B091E503BA2FA92F982F8827BD
:101BB000820F911DA11DB11D8093E6039093E70351
:101BC000A093E803B093E9033FBF01E023E042E0C4
:101BD0006BE680914F040E94150800E022E044E08B
:101BE0006BE180914F040E94150822E044E06CE113
:101BF00080914F040E941508F0904F0408EE13E006
:101C00009E012E5F3F4F41E06BE68F2D0E94110732
:101C10008A818F7B8A838983AE014F5F5F4F6BE63A
:101C20008F2D0E94FB038EE00E94FE019093BE0266
:101C30008093BD029C01990F440B550B2F5F3340DD
:101C400041095109A8EDBFEF0E94AF178824839482
:101C50000CEF902EAA24AA94BA2CA50194010E94FC
:101C60008217CA01B901685D7F4F8F4F9F4F0E9455
:101C7000011920E030E040E251E40E9457187B0156
:101C80008C01CB01D8018093020190930301A093B2
:101C90000401B09305018FE00E94FE019093C00201
:101CA0008093BF029C01990F440B550B2F5F33406B
:101CB00041095109ACE8B0E00E94A117A5019401C7
:101CC0000E948217CA01B9010E94011920E030E088
:101CD00040E251E40E9457184B015C0180920601DA
:101CE00090920701A0920801B092090110923E045F
:101CF00010922604109227041092280410922904AE
:101D00008BED9FE0A9E4B1E480933A0490933B0407
:101D1000A0933C04B0933D048DEC9CECACE4BEE39A
:101D20008093360490933704A0933804B093390419
:101D300026E636E646E65FE3C501B4010E94B61921
:101D40002B013C01109221041092090410920A0404
:101D500010920B0410920C0420E030E0A9010E94C4
:101D6000B119181614F00C94C7162BED3FE049EC8E
:101D700050E4C301B2010E94B61960931D04709330
:101D80001E0480931F04909320042FE632E143E861
:101D90005AE3B701C8010E94521887FF02C00C9491
:101DA000D01620E030E04AE754E4B701C8010E94B1
:101DB000B119181614F00C94D61650E040E03AE72A
:101DC00024E4852F942FA32FB22F8093190490938E
:101DD0001A04A0931B04B0931C04109204041092E4
:101DE000EC031092ED031092EE031092EF0320E04B
:101DF00030E0A901C501B4010E94B11918160CF018
:101E0000DBC72BED3FE049EC50E4C501B4010E9473
:101E1000B6196093000470930104809302049093B8
:101E200003042FE632E143E85AE3B701C8010E94F8
:101E3000521887FDC9C720E030E04AE754E4B701F3
:101E4000C8010E94B119181624F4E12CF12C0AE7FC
:101E500014E4C701D8018093FC039093FD03A09381
:101E6000FE03B093FF0369E070E08CE494E00E940D
:101E7000A00166E070E089E494E00E94A00165E0C2
:101E800070E086E494E00E94A00163E070E083E4E7
:101E900094E00E94A00187EB91E00E9403060E945B
:101EA00012018FE00E94FE015C019093C0028093BA
:101EB000BF028EE00E94FE014C019093BE0280930F
:101EC000BD0284E10E94FE016C01893E934024F032
:101ED000F8EECF2EF3E0DF2E44E1C416D1041CF45B
:101EE000E4E1CE2ED12CD092BC02C092BB0285E19F
:101EF0000E94FE017C01893E934024F078EEE72E9B
:101F000073E0F72E84E1E816F1041CF464E1E62E98
:101F1000F12CF092BA02E092B90280E10E94FE0137
:101F20001C0199EE291693E0390624F058EE252E6F
:101F300053E0352EA4E12A1631041CF444E1242E8A
:101F4000312C3092B8022092B70281E10E94FE014A
:101F50008C01893E934014F008EE13E00431110522
:101F600014F404E110E01093B6020093B502950159
:101F7000BB0C440B550B2F5F334041095109ACE8B2
:101F8000B0E00E94A11721E03CEF4FEF5FEF0E940D
:101F90008217CA01B9010E9401192B013C0120E0FE
:101FA00030E040E251E40E94521887FD14C720E05F
:101FB00030E040E752E4C301B2010E94B1191816A3
:101FC00034F4412C512C30E7632E32E4732E20E0A0
:101FD00030E040E251E4C301B2010E9457182B01E6
:101FE0003C014092060150920701609208017092F4
:101FF0000901092C000CAA08BB08A50194012F5F58
:10200000334041095109A8EDBFEF0E94AF1721E00D
:102010003CEF4FEF5FEF0E948217CA01B901685D84
:102020007F4F8F4F9F4F0E9401194B015C0120E0B1
:1020300030E040E050E40E94521887FDD3C620E013
:1020400030E040E252E4C501B4010E94B119181613
:1020500034F4812C912C90E2A92E92E4B92E20E048
:1020600030E040E251E4C501B4010E9457184B0131
:102070005C01CB01D5018093020190930301A093F1
:102080000401B09305019601DD0C440B550B24515E
:10209000310941095109A0EBBFEF0E94AF1724EDB0
:1020A00033E040E050E00E948217CA01B901605B52
:1020B0007F4F8F4F9F4F0E94011920E030E040E298
:1020C00051E40E9457186093B1027093B20280935A
:1020D000B3029093B4029701FF0C440B550B2451AB
:1020E000310941095109A8E3BFEF0E94AF1724ED60
:1020F00033E040E050E00E9482172C593F4F4F4F91
:102100005F4F6AE0629FC001639F900D112490931E
:10211000B0028093AF02012E000C220B330BA901F9
:102120009801285E334041095109A4E6B0E00E94BD
:10213000A1172CE23CEF4FEF5FEF0E948217213591
:10214000310514F020E530E02431310514F424E1A8
:1021500030E030930101209300019101330C440BD6
:10216000550B285E334041095109A4E6B0E00E94B6
:10217000A1172CE23CEF4FEF5FEF0E9482172A304D
:10218000310514F42AE030E0AAE0A29FC001A39F29
:10219000900D11249093AE028093AD0208EE13E0EF
:1021A00020E534E04EE06BE380914F040E9411077C
:1021B00080915004909151049827892798279093F3
:1021C000AC028093AB028091520490915304982703
:1021D000892798279093AA028093A902809154049A
:1021E000909155049827892798279093A802809367
:1021F000A70280915804909159049827892798271D
:102200009093A6028093A50280915A0490915B045A
:102210009827892798279093A4028093A3028091FE
:102220005C0490915D049827892798279093A202D7
:102230008093A1022FE632E143E85AE3B401C501DD
:102240000E94521887FDD4C520E030E04AE754E4EC
:10225000B401C5010E94B11918160CF0CEC550E0AA
:1022600040E03AE724E4852F942FA32FB22F8093E8
:10227000190490931A04A0931B04B0931C0426E63F
:1022800036E646E65FE3C301B2010E94B6196B0170
:102290007C0120E030E0A9010E94B11918160CF071
:1022A000B1C52BED3FE049EC50E4C701B6010E94F7
:1022B000B61960931D0470931E0480931F049093BD
:1022C00020042FE632E143E85AE3B401C5010E943D
:1022D000521887FD9FC520E030E04AE754E4B4017E
:1022E000C5010E94B119181634F4812C912C1AE7FB
:1022F000A12E04E4B02EC401D5018093FC03909379
:10230000FD03A093FE03B093FF0320E030E0A9019A
:10231000C301B2010E94B11918160CF084C52BED4F
:102320003FE049EC50E4C301B2010E94B61960934A
:10233000000470930104809302049093030440E02E
:1023400050E0BA0186E294E00E941D0460912604E8
:102350007091270480912804909129040E94C91843
:102360007093A00260939F0280919E02811163C5C9
:102370006091A5027091A602072E000C880B990BA4
:102380000E940119AB01BC0189E094E00E941D0488
:102390006091090470910A0480910B0490910C04DF
:1023A0000E94C91870939D0260939C026091A302E1
:1023B0007091A402072E000C880B990B0E94011942
:1023C000AB01BC018CEE93E00E941D046091EC0314
:1023D0007091ED038091EE039091EF030E94C91874
:1023E00070939B0260939A0220919A0230919B0213
:1023F000032E000C440B550B20533547410951095E
:10240000A0EDB7E00E94A11720EA35E14FEF5FEFA2
:102410000E948217CA01B9010E94011960939602B5
:1024200070939702809398029093990220919C0256
:1024300030919D02032E000C440B550B205C344D53
:1024400041405109A0EDB7E00E94A11720E836E510
:102450004CEF5FEF0E948217CA01B9010E94011977
:1024600060939202709393028093940290939502EA
:102470002FB7F8948091C2029091C302A091C40238
:10248000B091C5022FBF88389341A105B105A0F0D6
:1024900080919F029091A002873648E0940714F043
:1024A00086E698E08B3663E0960714F48BE693E0BB
:1024B0009093A00280939F024090920250909302CA
:1024C0006090940270909502A3019201C301B20141
:1024D0000E94B6196B8B7C8B8D8B9E8BC090960265
:1024E000D0909702E0909802F0909902A70196018F
:1024F00060E070E08AEF94E40E94E5179B01AC0174
:102500000E94B6194B015C01AC019B016B897C896F
:102510008D899E890E94E6170E94291A6F83788709
:1025200089879A878091B1029091B202A091B302FB
:10253000B091B4028B879C87AD87BE8720E030E0E6
:1025400040EC5FE3BC01CD010E94B6196F87788B28
:10255000898B9A8B6091AF027091B002072E000CAC
:10256000880B990B0E9401196B837C838D839E835A
:1025700028EB36EC40EB54E46F81788589859A85A9
:102580000E94E5172F85388949895A890E94B61912
:1025900028EB36EC40EB54E40E94E6172B813C819B
:1025A0004D815E810E94E61720E030E0A9010E9483
:1025B000E6176F83788789879A8720E030E0A90142
:1025C0000E94521887FD5DC420E030EC40E355E4E2
:1025D0006F81788589859A850E94B119181644F40F
:1025E00080E090ECA0E3B5E48F839887A987BA8751
:1025F000A301920160E070E08AEF94E40E94E51785
:102600009B01AC010E94B6192B013C01A50194016C
:102610000E94E6170E94291A28EB36EC40EB54E49E
:102620000E94E5172F85388949895A890E94B61971
:1026300028EB36EC40EB54E40E94E6172B813C81FA
:102640004D815E810E94E61720E030E0A9010E94E2
:10265000E6176F87788B898B9A8B20E030E0A90191
:102660000E94521887FD12C420E030EC40E355E48C
:102670006F85788989899A890E94B119181644F45E
:1026800080E090ECA0E3B5E48F87988BA98BBA8BA0
:10269000A7019601C701B6010E94B6196B017C0122
:1026A000AC019B016B897C898D899E890E94E6170C
:1026B0000E94291A28EB36EC40EB54E40E94E517FF
:1026C0002B853C854D855E850E94B61920E030E063
:1026D00040E45FE30E94B61928EB36EC40EB54E48B
:1026E0000E94E6172B813C814D815E810E94E61796
:1026F0004B015C0120E030E0A9010E94521887FDE7
:10270000CAC320E030EC40E355E4C501B4010E94A7
:10271000B11918163CF4812C70EC972E70E3A72E9B
:1027200075E4B72EA7019601C301B2010E94E61716
:102730000E94291A28EB36EC40EB54E40E94E5177E
:102740002B853C854D855E850E94B61920E030E0E2
:1027500040E45FE30E94B61928EB36EC40EB54E40A
:102760000E94E6172B813C814D815E810E94E61715
:102770002B013C0120E030E0A9010E94521887FDA6
:102780008EC320E030EC40E355E4C301B2010E9467
:10279000B11918163CF4412C60EC562E60E3662EFD
:1027A00065E4762E809100019091010164E670E06D
:1027B000681B790B072E000C880B990B0E940119DE
:1027C00020E030E048EC52E40E9457186B877C8789
:1027D0008D879E876091AD027091AE02660F771F64
:1027E000072E000C880B990B0E9401196B8B7C8BB8
:1027F0008D8B9E8B9B01AC016B857C858D859E8529
:102800000E94B6196B017C0120E030E0A9010E9412
:10281000521887FD48C320E030E04AE754E4C7017E
:10282000B6010E94B11918160CF440C3C701B601D5
:102830000E94C9187C836B838B819C819093810259
:10284000809380022B853C854D855E8560E070E03D
:1028500080E89FE30E94E5172B893C894D895E89BA
:102860000E94B6196B017C0120E030E0A9010E94B2
:10287000521887FD20C320E030E04AE754E4C70146
:10288000B6010E94B11918160CF418C3C701B6019D
:102890000E94C9187C876B878B859C8590937F02EB
:1028A00080937E0284EF91E090937D0280937C027E
:1028B00024EC39E030937B0220937A023093790242
:1028C0002093780290937702809376026F817885C7
:1028D00089859A850E94C9189B01AC01A0EDB7E0DB
:1028E0000E94A1172CE03BE040E050E00E948217DC
:1028F000CA01B9016C507E4F8F4F9F4F0E94011942
:102900001B01082FC92E6F85788989899A890E94B1
:10291000C9189B01AC01A0E3B8EF0E94AF172CE0EF
:102920003BE040E050E00E948217CA01B9016C53BD
:10293000764F8F4F9F4F0E9401196F83D72E7C01D6
:10294000C501B4010E94C9189B01AC01A0E3B8EF16
:102950000E94AF172CE03BE040E050E00E9482175D
:10296000CA01B9016C53764F8F4F9F4F0E940119D6
:10297000162F872E982EA92EC301B2010E94C918C6
:102980009B01AC01A0EDB7E00E94A1172CE03BE059
:1029900040E050E00E948217CA01B9016C507E4F9E
:1029A0008F4F9F4F0E9401196F877B8B898F9A8F62
:1029B0006CED75E0AB81BC816A1B7B0B072E000CB4
:1029C000880B990B0E9401192B013C019B01AC0162
:1029D000B101802F9C2D0E94521887FD74C26B811B
:1029E0007C8164527A4F072E000C880B990B0E9451
:1029F00001196F8B788F8B8FB92E9B01482F592F20
:102A0000B101802F9C2D0E94B119181624F42F8833
:102A1000388C0B8DCB2CC101A02FBC2D80938E0246
:102A200090938F02A0939002B09391029201A30120
:102A30006F817D2DC7010E94521887FD18C06B81E0
:102A40007C8164527A4F072E000C880B990B0E94F0
:102A500001192B013C019B01AC016F817D2DC70148
:102A60000E94B11918161CF04F805D2C3701C2016D
:102A7000D30180938A0290938B02A0938C02B0932F
:102A80008D026CED75E08B859C85681B790B072E9C
:102A9000000C880B990B0E940119B62ED72E7C01D1
:102AA000262F372FAC01612F782D892D9A2D0E946A
:102AB000521887FD0CC26B857C8564527A4F072EB5
:102AC000000C880B990B0E9401196B837F838F8BFD
:102AD000988F9B01AC01612F782D892D9A2D0E9432
:102AE000B119181624F41B818F809F88A88C812F20
:102AF000982DA92DBA2D8093860290938702A093DA
:102B00008802B09389022B2D3D2DA7016F857B890B
:102B1000898D9A8D0E94521887FD1CC06B857C851B
:102B200064527A4F072E000C880B990B0E940119F2
:102B3000B62ED72E7C01262F372FAC016F857B89CF
:102B4000898D9A8D0E94B119181624F0BF84DB88F4
:102B5000E98CFA8C8B2D9D2DD70180938202909366
:102B60008302A0938402B093850288E391E00E94DF
:102B70006C178D3E21F5B101802F9C2D0E94C91844
:102B80008CE494E00E942905B201C3010E94C91897
:102B900089E494E00E942905612F782D892D9A2DD2
:102BA0000E94C91886E494E00E9429056B2D7D2DB2
:102BB000C7010E94C91883E494E00E9429050E947D
:102BC0001201892BC1F46CED75E08CE494E00E9455
:102BD00029056CED75E089E494E00E9429056CED0F
:102BE00075E086E494E00E9429056CED75E083E4CD
:102BF00094E00E94290582EC91E00E9411068091E8
:102C0000AF029091B0020E9413068AED91E00E94FB
:102C100011068AEC91E00E9411066091B102709158
:102C2000B2028091B3029091B4020E9443068AEDF1
:102C300091E00E94110680ED91E00E9411068091C2
:102C40000001909101010E9413068AED91E00E941B
:102C5000110683EE91E00E9411068091AD029091E1
:102C6000AE02880F991F880F991F0E9413068AEDE4
:102C700091E00E94110685ED91E00E94110660919D
:102C800006017091070180910801909109010E944D
:102C900043068AED91E00E9411068CED91E00E94BE
:102CA00011066091020170910301809104019091DD
:102CB00005010E9443068AED91E00E94110682EE12
:102CC00091E00E9411068091800290918102880F0C
:102CD000991F0E9413068AED91E00E9411068AEE68
:102CE00091E00E94110680917E0290917F02880FF0
:102CF000991F0E9413068AED91E00E94110682EF4F
:102D000091E00E94110660918E0270918F02809175
:102D10009002909191020E9443068AED91E00E94F8
:102D2000110689EF91E00E94110660918602709170
:102D3000870280918802909189020E9443068AED61
:102D400091E00E94110680919E0290E00E9413067D
:102D50008EE291E00E94B20580E090E0892B09F4B8
:102D60009EC80E94A102882309F499C80E9400000D
:102D700096C810929E020C94650D61E081E090E08F
:102D80000E94741781E080939E020C94760DC3011B
:102D9000B20190582BED3FE049EC50E40C94BB0E8F
:102DA0005FE642E133E82AE30C94E10E5E2D4F2DFD
:102DB000302F212F0C94E10EC501B40190582BED5A
:102DC0003FE049EC50E423C8AFE6EA2EB2E1FB2E27
:102DD00003E81AE33EC8412C512C20E2622E21E484
:102DE000722EF5C8812C912CA12C80E4B82E37C905
:102DF0005FE642E133E82AE336CA582D492D3A2DE1
:102E00002B2D31CAC701B60190582BED3FE049EC9C
:102E100050E44DCAEFE68E2EF2E19F2EA3E8AA2ED3
:102E2000BAE3BB2E68CAC301B20190582BED3FE054
:102E300049EC50E47ACA6091A3027091A402072E73
:102E4000000C880B990B0E940119AB01BC0189E0B1
:102E500094E00E941D046091090470910A0480911D
:102E60000B0490910C040E94C91870939D0260930A
:102E70009C026091A5027091A602719561957109FD
:102E800099CA1F82188619861A86B2CB1F86188A9D
:102E9000198A1A8AFDCB812C912C540143CC412CE8
:102EA000512C32017FCC1C821B82C6CCA8EEB3E031
:102EB000BC83AB83C1CC1C861B86EECCA8EEB3E0F2
:102EC000BC87AB87E9CC1201062DC72CA4CD1B2DE6
:102ED0008D2C9E2CAF2C0BCEF999FECF92BD81BDCF
:102EE000F89A992780B50895262FF999FECF1FBA31
:102EF00092BD81BD20BD0FB6F894FA9AF99A0FBE23
:102F000001960895052E97FB1EF400940E949917D0
:102F100057FD07D00E94B41707FC03D04EF40C9461
:102F2000991750954095309521953F4F4F4F5F4FE2
:102F3000089590958095709561957F4F8F4F9F4F25
:102F400008950E94D617A59F900DB49F900DA49F41
:102F5000800D911D11240895B7FF0C94A1170E94B4
:102F6000A117821B930B0895A1E21A2EAA1BBB1B6B
:102F7000FD010DC0AA1FBB1FEE1FFF1FA217B30745
:102F8000E407F50720F0A21BB30BE40BF50B661F5B
:102F9000771F881F991F1A9469F76095709580951F
:102FA00090959B01AC01BD01CF010895A29FB00196
:102FB000B39FC001A39F700D811D1124911DB29F6D
:102FC000700D811D1124911D08955058BB27AA270B
:102FD0000E94FD170C9477190E94691938F00E941D
:102FE000701920F039F49F3F19F426F40C946619F7
:102FF0000EF4E095E7FB0C946019E92F0E94881904
:1030000058F3BA17620773078407950720F079F41D
:10301000A6F50C94AA190EF4E0950B2EBA2FA02D4C
:103020000B01B90190010C01CA01A0011124FF2775
:10303000591B99F0593F50F4503E68F11A16F04070
:10304000A22F232F342F4427585FF3CF469537956F
:103050002795A795F0405395C9F77EF41F16BA0B34
:10306000620B730B840BBAF09150A1F0FF0FBB1FE2
:10307000661F771F881FC2F70EC0BA0F621F731F2B
:10308000841F48F4879577956795B795F7959E3F88
:1030900008F0B0CF9395880F08F09927EE0F979519
:1030A000879508950E943C1908F481E008950E94D4
:1030B0006B180C9477190E94701958F00E946919C6
:1030C00040F029F45F3F29F00C94601951110C94E1
:1030D000AB190C9466190E94881968F39923B1F30F
:1030E000552391F3951B550BBB27AA27621773072E
:1030F000840738F09F5F5F4F220F331F441FAA1FC2
:10310000A9F335D00E2E3AF0E0E832D0915050407D
:10311000E695001CCAF72BD0FE2F29D0660F771F2B
:10312000881FBB1F261737074807AB07B0E809F011
:10313000BB0B802DBF01FF2793585F4F3AF09E3F96
:10314000510578F00C9460190C94AB195F3FE4F3CF
:10315000983ED4F3869577956795B795F7959F5FD9
:10316000C9F7880F911D9695879597F90895E1E025
:10317000660F771F881FBB1F621773078407BA0784
:1031800020F0621B730B840BBA0BEE1F88F7E095DF
:1031900008950E94D0186894B1110C94AB19089549
:1031A0000E94901988F09F5798F0B92F9927B7512E
:1031B000B0F0E1F0660F771F881F991F1AF0BA95DB
:1031C000C9F714C0B13091F00E94AA19B1E0089576
:1031D0000C94AA19672F782F8827B85F39F0B93F68
:1031E000CCF3869577956795B395D9F73EF490958E
:1031F0008095709561957F4F8F4F9F4F0895E8940C
:1032000009C097FB3EF490958095709561957F4F2E
:103210008F4F9F4F9923A9F0F92F96E9BB279395DC
:10322000F695879577956795B795F111F8CFFAF4EC
:10323000BB0F11F460FF1BC06F5F7F4F8F4F9F4F1D
:1032400016C0882311F096E911C0772321F09EE87B
:10325000872F762F05C0662371F096E8862F70E0E1
:1032600060E02AF09A95660F771F881FDAF7880FBB
:103270009695879597F90895990F0008550FAA0B11
:10328000E0E8FEEF16161706E807F907C0F0121679
:103290001306E407F50798F0621B730B840B950B7C
:1032A00039F40A2661F0232B242B252B21F40895D1
:1032B0000A2609F4A140A6958FEF811D811D08956E
:1032C00097F99F6780E870E060E008959FEF80ECD9
:1032D000089500240A94161617061806090608957C
:1032E00000240A9412161306140605060895092EE2
:1032F0000394000C11F4882352F0BB0F40F4BF2B51
:1033000011F460FF04C06F5F7F4F8F4F9F4F089590
:1033100057FD9058440F551F59F05F3F71F0479586
:10332000880F97FB991F61F09F3F79F0879508956B
:10333000121613061406551FF2CF4695F1DF08C08A
:10334000161617061806991FF1CF869571056105A7
:1033500008940895E894BB2766277727CB0197F94F
:1033600008950E943C1908F48FEF08950E94C9192E
:103370000C9477190E94691938F00E94701920F096
:10338000952311F00C9460190C94661911240C9477
:10339000AB190E94881970F3959FC1F3950F50E007
:1033A000551F629FF001729FBB27F00DB11D639FF7
:1033B000AA27F00DB11DAA1F649F6627B00DA11D9D
:1033C000661F829F2227B00DA11D621F739FB00D43
:1033D000A11D621F839FA00D611D221F749F3327B3
:1033E000A00D611D231F849F600D211D822F762F4C
:1033F0006A2F11249F5750409AF0F1F088234AF029
:10340000EE0FFF1FBB1F661F771F881F9150504094
:10341000A9F79E3F510580F00C9460190C94AB19EC
:103420005F3FE4F3983ED4F3869577956795B7951B
:10343000F795E7959F5FC1F7FE2B880F911D969535
:10344000879597F9089519F416F40C9466190C945D
:103450006E1A0E949019B8F39923C9F3B6F39F57D7
:10346000550B87FF0E947C1A0024A0E640EA9001D9
:1034700080585695979528F4805C660F771F881FB3
:1034800020F026173707480730F4621B730B840BB4
:10349000202931294A2BA6951794079420253125F8
:1034A0004A2758F7660F771F881F20F0261737071F
:1034B000480730F4620B730B840B200D311D411D46
:1034C000A09581F7B901842F9158880F969587951B
:1034D00008950E943C19880B990B08959F3F31F085
:1034E000915020F4879577956795B795880F911D32
:1034F0009695879597F9089591505040660F771FDC
:10350000881FD2F70895991B79E004C0991F961778
:1035100008F0961B881F7A95C9F780950895EE0FDD
:0E352000FF1F0590F491E02D0994F894FFCF61
:10352E003200CDCC4C3E0000004000000000D7021F
:10353E003702640224039502730287020000000022
:10354E00CC039F031A0475039803850376030D0AB3
:10355E00006E616E00696E66006F766600435241C2
:10356E00574C4552204649524D5741524520312E17
:10357E00323520524144494F2056455253494F4E01
:10358E0000434F4E4E4543542050494E2037205451
:10359E004F204120524144494F2052454345495600
:1035AE00455220414E44204B454550204954205011
:1035BE004F574552454420414E4420434F4E4E45B1
:1035CE004354454420544F2041205452414E534DB4
:1035DE0049545445522100534554555020444F4EA2
:1035EE0045006F666673657420006D756C742000FF
:1035FE0062616C20007370656564200064616D709B
:10360E0020004672616E676520005272616E6765BA
:10361E002000464C706F732000524C706F73200068
:00000001FF
