:100000000C9445040C94E6250C940D260C946B0975
:100010000C9498090C94C5090C946D040C946D040F
:100020000C946D040C9494250C946D040C947A1526
:100030000C946D040C946D040C946D040C946D047C
:100040000C9434260C946D040C941C290C944E29A9
:100050000C946D040C946D040C946D040C946D045C
:100060000C9437220C946D04084AD73B3BCE016EAA
:1000700084BCBFFDC12F3D6C74319ABD56833DDAFF
:100080003D00C77F11BED9E4BB4C3E916BAAAABE0E
:10009000000000803F00FB00003E000B0036000126
:1000A00000020003000000650054FFEF0000FA802A
:1000B000000B12820001000200000000000000009E
:1000C00000000000000000280000FFFF4581FFFF46
:1000D000FA7200000000000003E8000000010001C7
:1000E0007FFFFFFE8001001B0000000000000000F9
:1000F000000000000000004000004000000002CBB3
:1001000047A2200000002000000000000000400086
:1001100000006000000041FF000000000B2A00000A
:10012000165500002182FD872650FD800000001F2B
:100130000000000580000000000000010000000237
:10014000000000030000400000000000046F0002F7
:10015000653200005EC040000000000000000000AA
:10016000000000000000FB8C6F5DFD5D08D9007C85
:10017000733B006C12CC3200139D3200D0D632009B
:100180000800400001F4FFE6807902000000000052
:10019000D0D600002710FB00000040000000000047
:1001A000000000000000000000010000000000004E
:1001B0000100010000000000FA36FFBC308E00058F
:1001C000FBF0FFD95BC8FFD09ABE000010A9FFF476
:1001D0001EB200CEBBF700000001000000040002C8
:1001E00000020200000CFFC280000001800000CF6E
:1001F000800040000000000000000000000000003F
:1002000006000000001400000000000000000000D4
:1002100000000000000000000000000000000000DE
:100220000000000000000923A135000000000000CC
:1002300000000000000000000000033F68B67935B0
:1002400028BCC67ED16C8000FFFF4000000000008B
:10025000B26A000000000000000000000000000082
:100260003FF000000030000000000000000000002F
:10027000000000000000000000000000000000007E
:100280000000000040000000254D002F706D0000B0
:1002900005AE000C02D00000000000650054FFEF26
:1002A0000000000000000000010000440001000503
:1002B0008BC1000001000000000000650000005438
:1002C0000000FFEF00000000000000000000000040
:1002D000000000000000000000000000000000001E
:1002E000000000000000000000000000000000000E
:1002F00000000000000000000001000000020000FB
:1003000000000000000000000000000000000000ED
:1003100000000000000000000000000000000000DD
:10032000000000000000001B0000000000000000B2
:1003300000000000000000000000000000000000BD
:1003400000000000000000000000000000000000AD
:10035000000000000000001B000000000000000082
:10036000000000000000000000000000000000008D
:10037000000000000000000000000000000000007D
:10038000000000000000000000000000000000006D
:10039000000000000000D8DCBAA2F1DEB2B8B4A8B8
:1003A0008191F74A907F916AF3F9DBA8F9B0BAA07E
:1003B00080F2CE81F3C2F1C1F2C3F3CCA2B280F1DC
:1003C000C6D880BAA7DFDFDFF2A7C3CBC5B6F087F8
:1003D000A2942448703C95406834589B78A2F183DD
:1003E000922D557DD8B1B4B8A1D09180F270F37040
:1003F000F27C80A8F101B09887D943D886C988BA21
:10040000A1F20EB89780F1A9DFDFDFAADFDFDFF20C
:10041000AA4CCD6CA90CC92C97979797F1A989265E
:100420004666B0B4BA80ACDEF2CAF1B28C02A9B6AC
:100430009800890E161EB8A9B4992C547CB08AA8CD
:1004400096365676F1B9AFB4B083C0B8A89711B15B
:100450008F98B9AFF0240844106418F1A329557D92
:10046000AF83B593AFF0002850F1A3869F61A6DA61
:10047000DEDFD9FAA38696DB31A6D9F8DFBAA68FDC
:10048000C2C5C7B28CC1B8A2DFDFDFA3DFDFDFD810
:10049000D8F1B8A8B286B4980D355DB8AA98B087DF
:1004A0002D353DB2B6BAAF8C96198F9FA70E161E8A
:1004B000B49AB8AA872C547CB9A3DEDFDFA3B1803D
:1004C000F2C4CDC9F1B8A9B499830D355D89B9A33A
:1004D0002D557DB593A30E161EA92C547CB8B4B02F
:1004E000F19783A81184A50998A383F0DA2408441E
:1004F000106418D8F1A529557DA58595021A2E3AC4
:10050000565A4048F9F3A3D9F8F0988324084410C8
:1005100064189782A8F111F098A224084410641876
:10052000DAF3DED883A59401D9A302F1A2C3C5C72B
:10053000D8F18492A24DDA2AD84869D92AD86855C8
:10054000DA32D85071D932D8705DDA3AD85879D9C0
:100550003AD87893A34DDA2AD84869D92AD8685569
:10056000DA32D85071D932D8705DDA3AD85879D9A0
:100570003AD878A88A9AF02850789EF38818F19F84
:100580001D98A8D908D8C89F129EF315A8DA121092
:10059000D8F1AFC8978734B5B994A421F3D922D83C
:1005A000F22DF3D92AD8F235F3D932D881A460607C
:1005B00061D961D86C6869D969D8747071D971D8FA
:1005C000B1A384193D5DA3831A3E5E931030811060
:1005D00011B8B0AF8F94F2DA3ED8B49AA88729DA6E
:1005E000F8D8879A35DAF8D8879A3DDAF8D8B1B9C9
:1005F000A49885022E56A581000C14A397B08AF109
:100600002DD928D84DD948D86DD968D8B1840DDAFC
:100610000ED8A32983DA2C0ED8A3844983DA2C4C74
:100620000ED8B8B0A88A9AF520AADADFD8A840AACE
:10063000D0DADED8A860AADAD0DFD8F19786A83160
:100640009B069907AB9728889BF00C201440B8B004
:10065000B4A88C9CF0042851791D301438B282ABB8
:10066000D0982C505078789BF11AB0F08A9CA82929
:1006700051798B2951798A2470598B2058718A4479
:1006800069388B3940688A6448318B304960A58865
:10069000200971584468113964493019F1AC002CB3
:1006A000547CF08CA804285078F1889726A8599893
:1006B000AC8C02264666F0899CA829517924705991
:1006C000446938644831A98809205970AB11384011
:1006D00069A8193148608CA83C415C207C00F187F6
:1006E000981986A86E767EA999882D557D9EB9A306
:1006F0008A228A6E8A568A5E9FB183062646660ED5
:100700002E4E6E9DB8AD002C547CF2B18CB499B9CC
:10071000A32D557D8191AC38AD3AB58391AC2DD9DF
:1007200028D84DD948D86DD968D88C9DAE29D90420
:10073000AED851D904AED879D904D881F39DAD0093
:100740008DAE1981ADD901D8F2AEDA26D88E9129B5
:1007500083A7D9ADADADADF32AD8D8F1B0AC8991AE
:100760003E5E76F3AC2E2EF1B18C5A9CAC2C282830
:10077000289CAC3018A8988128343C9724A72834AA
:100780003C9C24F2B089AC912C4C6C8A9B2DD9D81E
:10079000D851D9D8D879D9D8D8F19E88A331DAD808
:1007A000D8912DD928D84DD948D86DD968D8B183DA
:1007B00093353D8025DAD8D88569DAD8D8B49381C5
:1007C000A328343CF3AB8BF8A391B609B4D9ABDEC4
:1007D000FAB0879CB9A3DDF1202830389AF128308F
:1007E000389DF1A3A3A3A3F2A3B49080F2A3A3A383
:1007F000A3A3A3A3A3A3A3B2A3A3A3A3A3A3B087C9
:10080000B599F128303898F1A3A3A3A397A3A3A384
:10081000A3F39BA330DCB9A7F1262626FED8FF0060
:1008200000000900030200000405080000000000A9
:1008300000000000000001020408102040800102B6
:100840000408102001020408102040804004040421
:100850000404040404020202020202030303030369
:10086000030202030000000023002600290000000C
:100870000000250028002B000000000024002700B5
:100880002A00D5142421BA257E2911241FBECFEFBA
:10089000D8E0DEBFCDBF13E0A0E0B1E0E6EDFFE5BC
:1008A00002C005900D92A630B107D9F725E0A6E069
:1008B000B3E001C01D92AF3DB207E1F714E0C5E41B
:1008C000D4E004C02197FE010E949B2EC134D107C1
:1008D000C9F70E94D02A0C94E92F0C94000081E003
:1008E00080934C030895AF92BF92CF92EF920F93F3
:1008F000CF93DF9300D0CDB7DEB75C010E94921793
:100900006EE170E080E090E00E94AF2660E0C501FB
:100910000E94991721E041E060E1C5010E946D1835
:1009200066E0C5010E947818C5010E947E1840E16A
:1009300050E0682F8EE395E00E946A2A20E040E0B4
:1009400060E0C5010E946D184FE760E0C5010E949C
:10095000531760E0C5010E947D1748E660E0C501BD
:100960000E945317C5010E948B1764E170E080E07C
:1009700090E00E94AF2663E0C5010E94A01762E1EB
:10098000C5010E945E1764E0C5010E94091761E07D
:10099000C5010E940F1763E0C5010E941A1763E0AA
:1009A000C5010E942517EE24E39400E020E049E809
:1009B00057E066E970E0C5010E947419882309F4C4
:1009C0004BC0198284E08A83C12C06E122E042E018
:1009D00050E0BE016F5F7F4FC5010E94901863E039
:1009E000C5010E947F1960E0C5010E94851960E081
:1009F000C5010E940A1862E0C5010E943B176CE91C
:100A0000C5010E94471760E5C5010E94411760E0DB
:100A1000C5010E944D1761E0C5010E947617C5010E
:100A20000E94661860E0C5010E945F188AE290E0AB
:100A3000F501928B818BC5010E948417C5010E942C
:100A4000641780E00F900F90DF91CF910F91EF909E
:100A5000CF90BF90AF90089581E0F4CFCF93DF9314
:100A6000DB01FA01309719F4EC01EF85F889848DE8
:100A7000958D98278927982711969C938E9380A10E
:100A800091A198278927982713969C938E93129764
:100A900084A195A198278927982715969C938E93D2
:100AA000149780E0DF91CF910895CF93DF93DB011E
:100AB000FA01309719F4EC01EF85F8898081918172
:100AC00098278927982711969C938E9384819581E6
:100AD00098278927982713969C938E931297808541
:100AE000918598278927982715969C938E9314971C
:100AF0008485958598278927982717969C938E93A8
:100B0000169780E0DF91CF910895FF920F931F9386
:100B1000CF93DF93CDB7DEB728970FB6F894DEBF3B
:100B20000FBECDBF8B01BE016F5F7F4F0E94550589
:100B3000F82E81114CC069817A81072E000C880B38
:100B4000990B0E94742C20E030E040E858E30E94AA
:100B5000582DF80160837183828393836B817C813C
:100B6000072E000C880B990B0E94742C20E030E0BB
:100B700040E858E30E94582DF8016483758386830A
:100B800097836D817E81072E000C880B990B0E9444
:100B9000742C20E030E040E858E30E94582DF80122
:100BA00060877187828793876F817885072E000C15
:100BB000880B990B0E94742C20E030E040E858E349
:100BC0000E94582DF80164877587868797878F2D37
:100BD00028960FB6F894DEBF0FBECDBFDF91CF9140
:100BE0001F910F91FF9008954F925F926F927F92A5
:100BF0008F929F92AF92BF92CF92DF92EF92FF922D
:100C0000CF93DF93CDB7DEB72A970FB6F894DEBF48
:100C10000FBECDBF7A876987FA01C480D580E68090
:100C2000F780448455846684778480809180A28094
:100C3000B38080859185A285B38589839A83AB83B0
:100C4000BC83A3019201C701B6010E94582D6D8398
:100C50007E838F83988729813A814B815C81C5018E
:100C6000B4010E94582D9B01AC016D817E818F8162
:100C700098850E94E62A9B01AC010E94E72AA9857B
:100C8000BA856D937D938D939C931397A5019401E1
:100C9000C701B6010E94582D6D837E838F8398878C
:100CA00029813A814B815C81C301B2010E94582D98
:100CB0009B01AC016D817E818F8198850E94E72A1E
:100CC0009B01AC010E94E72AE985FA85648375835C
:100CD00086839783A5019401C501B4010E94582D14
:100CE0004B015C01A7019601C701B6010E94582D76
:100CF0009B01AC01C501B4010E94E62A6B017C0195
:100D000029813A814B815C81CA01B9010E94582D29
:100D10009B01AC01C701B6010E94E62A6B017C0170
:100D2000A3019201C301B2010E94582D9B01AC01A5
:100D3000C701B6010E94E72AA985BA8518966D9366
:100D40007D938D939C931B9780E02A960FB6F89421
:100D5000DEBF0FBECDBFDF91CF91FF90EF90DF9050
:100D6000CF90BF90AF909F908F907F906F905F904B
:100D70004F9008952F923F924F925F926F927F9281
:100D80008F929F92AF92BF92CF92DF92EF92FF929B
:100D90000F931F93CF93DF9300D000D000D0CDB737
:100DA000DEB78B011A013E832D83FA01C080D1800A
:100DB000E280F380A7019601C701B6010E94E72AED
:100DC00069837A838B839C83F10184809580A680DC
:100DD000B780A5019401C501B4010E94E72A2B0147
:100DE0003C0129813A814B815C81C701B6010E9497
:100DF000582D6B017C01A3019201C501B4010E9431
:100E0000582D9B01AC01C701B6010E94E72A20E0E2
:100E100030E040E85FE30E94E62A6B017C01F101CB
:100E20002085318542855385C301B2010E94582D2A
:100E30002B013C01F1012485358546855785698163
:100E40007A818B819C810E94582D9B01AC01C3014A
:100E5000B2010E94E62AA70196010E94662BF801C2
:100E60006083718382839383ED81FE8164817581C8
:100E700086819781C084D184E284F3849B01AC0194
:100E80000E94582D4B015C01A7019601C701B601D4
:100E90000E94582D9B01AC01C501B4010E94E72AB4
:100EA0000E94CB2D9B01AC01ED81FE81608171819F
:100EB000828193810E94662B6B017C01F801C482C0
:100EC000D582E682F782ED81FE81208531854285DB
:100ED000538564817581868197810E94662BF80114
:100EE000608771878287938720E030E0A901ED81D8
:100EF000FE8160857185828593850E94C52B87FF61
:100F000016C020E030E0A901C701B6010E944B2DB8
:100F1000A701960118162CF56BED7FE089E490E4AB
:100F20000E94E62AF801648375838683978380E0B4
:100F300026960FB6F894DEBF0FBECDBFDF91CF91DE
:100F40001F910F91FF90EF90DF90CF90BF90AF90E7
:100F50009F908F907F906F905F904F903F902F90D9
:100F600008956BED7FE089E490ECDACFCF93DF93C7
:100F7000FC01DB0112962C93129711965C934E9311
:100F8000C281D381888113969C911397892B888382
:100F900012968C911297982F9D7F913031F4958104
:100FA00013962C911397922B95838150823028F4BD
:100FB000868113969C91892B868380916800948109
:100FC000892B80936800DF91CF910895CF92DF92B3
:100FD000EF92FF920F931F93CF93DF938C01D62E46
:100FE0007A01C22EFC01C085D1852097A1F587E04A
:100FF00090E00E94DF2ADC0111961C921E9212964C
:101000001C9212978FEF109781F11496DC9214972F
:101010001296CC92129716961C921E921597ED2D51
:10102000F0E0EA5CF74FE4911396EC931397F80124
:1010300080859185892B11F5B187A0872C2DA7017B
:10104000BD01C8010E94B60781E00FC08D819E815D
:10105000009769F2EC018C818D11F8CF2C2DA7013E
:10106000BE01C8010E94B60780E0DF91CF911F91B9
:101070000F91FF90EF90DF90CF900895BE83AD83E6
:10108000DDCF242FE82FF0E0E35BF74FE491EE2370
:10109000D9F061157105C1F0E250FF0BE330F105A5
:1010A00080F4EE0FFF1FE852FD4F0190F081E02D1C
:1010B000A081B1819C919783AB01682FCF010C94E3
:1010C000E607F0E0E0E0F4CF8FEF0895CF93DF93F1
:1010D00090E0FC01E35BF74FE491EE2309F444C098
:1010E000E250FF0BB0E0A0E0E330F10530F4EE0F8A
:1010F000FF1FE852FD4FA081B1818A5C974FFC0130
:1011000084911896CD91DC911997209769F19B8174
:1011100098132DC02FB7F8941296ED91FC91139768
:1011200090818095892380831296ED91FC9113978D
:101130008081811109C09091680014968C91149758
:10114000809589238093680015969C9115978B81D3
:101150008095982315969C93159716969C911697B3
:10116000892316968C932FBFDF91CF9108950D8020
:10117000DE81C02DCACFCF93DF9380915D0490E0D4
:101180009093EF038093EE038BE295E00E945B2542
:1011900096958795779567956093C2037093C3037F
:1011A0008093C4039093C503CEEED3E088810E9460
:1011B000660842E050E062EE78E08881DF91CF91EE
:1011C0000C9441080F931F93CF93DF9380915D049C
:1011D00090E09093EF038093EE038BE295E00E9402
:1011E0005B2596958795779567950091C203109139
:1011F000C3032091C4033091C503601B710B820BA4
:10120000930B6093C6037093C7038093C8039093B6
:10121000C903CEEED3E088810E94660843E050E027
:101220006BEB78E08881DF91CF911F910F910C9447
:101230004108FF920F931F93CF93DF938C01D80146
:1012400017968C91179720915E0415969C9115978F
:1012500030915E0416964C911697C0915E04C0952D
:10126000C4239323C92B8227FC2EF82280915E048D
:1012700017968C9317971896CD91DC912097B1F023
:101280008B81982F9F2171F090915E04892391E0CA
:1012900009F490E090935C048C8180935D04E88174
:1012A000F98109950D80DE81C02DE8CF9BB3F8014F
:1012B0008481982351F09BB3892B8BBB0190F081E3
:1012C000E02D808180935E04BACFDF91CF911F9192
:1012D0000F91FF9008951F920F920FB60F92112455
:1012E0002F933F934F935F936F937F938F939F932E
:1012F000AF93BF93EF93FF93E0915204F0915304A7
:10130000808180935E0482E594E00E941909FF9138
:10131000EF91BF91AF919F918F917F916F915F916D
:101320004F913F912F910F900FBE0F901F901895E6
:101330001F920F920FB60F9211242F933F934F934A
:101340005F936F937F938F939F93AF93BF93EF932D
:10135000FF93E0914804F0914904808180935E04FA
:1013600088E494E00E941909FF91EF91BF91AF9139
:101370009F918F917F916F915F914F913F912F91AD
:101380000F900FBE0F901F9018951F920F920FB6DF
:101390000F9211242F933F934F935F936F937F93FB
:1013A0008F939F93AF93BF93EF93FF93E0913E048E
:1013B000F0913F04808180935E048EE394E00E946C
:1013C0001909FF91EF91BF91AF919F918F917F91FB
:1013D0006F915F914F913F912F910F900FBE0F90A2
:1013E0001F901895AF92BF92CF92DF92EF92FF922B
:1013F0000F931F938BE295E00E943E2562E08CE004
:101400000E94572760E080E10E94572760E081E159
:101410000E94572760E082E10E94572760E087E042
:101420000E94572761E084E00E94572760E082E035
:101430000E94572726E040E052EC61E070E08EE326
:1014400095E00E94C4288091C1008F778093C100ED
:1014500088E391E00E94D32F8D3E61F080E593EC0C
:10146000A0E0B0E08093100190931101A0931201CD
:10147000B09313016BE171E08EE395E00E94E729E0
:10148000409110015091110160911201709113016E
:101490002AE030E08EE395E00E947C2A8EE395E01E
:1014A0000E94EF2965E471E08EE395E00E94E72950
:1014B0006BE571E08EE395E00E94F32964E671E04C
:1014C0008EE395E00E94E7296DE771E08EE395E0F9
:1014D0000E94F32965E871E08EE395E00E94E72918
:1014E0006BE571E08EE395E00E94F32964EA71E018
:1014F0008EE395E00E94E7296BE571E08EE395E0CD
:101500000E94F32960EC71E08EE395E00E94E729E8
:101510006BE571E08EE395E00E94F3298EE395E0A0
:101520000E94EF296BEE71E08EE395E00E94F329B3
:1015300065E472E08EE395E00E94F3298EE395E086
:101540000E94EF2964E872E08EE395E00E94F3299F
:101550008EE395E00E94EF2961EC72E08EE395E066
:101560000E94F3298EE395E00E94EF298BE294E03C
:101570000E94AB178BE294E00E9473048093BF0338
:101580006AEB7FEF8BE294E00E944D186DE970E00A
:101590008BE294E00E9453186CE170E08BE294E0DF
:1015A0000E94591864E77CEF8BE294E00E941118C6
:1015B00068E97FEF8BE294E00E94251862E175E014
:1015C0008BE294E00E9439188091BF03811127C0FB
:1015D00066E08BE294E00E949C1C66E08BE294E063
:1015E0000E94301C61E08BE294E00E945F1843E0AF
:1015F00050E06FE674E080E00E94C6258BE294E044
:101600000E9464178093C00381E08093C10380919E
:101610003C0490913D049093BE038093BD0385E804
:1016200094E00E94882040E85AE166E070E085E896
:1016300094E00E949A2081E090E00E94D32F8130B4
:1016400009F012C1809308048CE00E94C127892B05
:1016500061F480910804882309F409C160E081E005
:1016600090E00E94DB2F109208048FE00E94102768
:101670009093DF038093DE038EE00E941027909307
:10168000DD038093DC036091DE037091DF03072E9E
:10169000000C880B990B1F921F921F9228E22F9328
:1016A00028E0A22EB12CC12CD12CE12CF12C8701E9
:1016B0002FEF33E040E050E00E948E2A0E94742C0D
:1016C00020E030E040E251E40E94CA2B60930C011C
:1016D00070930D0180930E0190930F016091DC03D4
:1016E0007091DD03072E000C880B990B1F921F923F
:1016F0001F922EE12F9332E0A32EB12CC12CD12CBE
:101700002FEF33E040E050E00E948E2A0E94742CBC
:1017100020E030E040E251E40E94CA2B60930801CF
:101720007093090180930A0190930B0162E08AE0B3
:101730000E94572743E050E06BEB78E08AE00E947C
:10174000410820910C0130910D0140910E01509102
:101750000F01E12CF12C870161E070E083E293E05E
:101760000E94F723409108015091090160910A01FC
:1017700070910B0183E293E00E94632320910C019E
:1017800030910D0140910E0150910F0161E070E028
:1017900086E093E00E94F7234091080150910901EF
:1017A00060910A0170910B0186E093E00E9463232F
:1017B00020E030E040E050E461E070E08EE094E052
:1017C0000E94F7234DEC5CEC6CE47EE38EE094E049
:1017D0000E94632324EC39E040E951E069E070E0C5
:1017E00089E493E00E94501624EC39E040E951E08E
:1017F00066E070E086E493E00E94501624EC39E045
:1018000040E951E065E070E083E493E00E94501607
:1018100024EC39E040E951E063E070E080E493E0DB
:101820000E9450168EE395E00E94EF296CEC72E066
:101830008EE395E00E94F32961E08DE00E94572736
:101840008DB79EB708960FB6F8949EBF0FBE8DBF9A
:1018500061E08DE01F910F91FF90EF90DF90CF90AE
:10186000BF90AF900C94932710920804EDCE61E0E6
:1018700081E090E00E94DB2F81E080930804F5CEA8
:10188000CF92DF92EF92FF920F931F930E948A26CE
:1018900000910A0410910B0420910C0430910D0466
:1018A0006B017C01C01AD10AE20AF30A009110010F
:1018B000109111012091120130911301C016D1062F
:1018C000E206F306B8F060930A0470930B04809369
:1018D0000C0490930D046091090481E068276093E3
:1018E00009048DE01F910F91FF90EF90DF90CF9052
:1018F0000C9493271F910F91FF90EF90DF90CF9062
:1019000008952F923F924F925F926F927F928F92A3
:101910009F92AF92BF92CF92DF92EF92FF920F937E
:101920001F93CF93DF93CDB7DEB7A0970FB6F89490
:10193000DEBF0FBECDBF0E94400C8091C103882343
:1019400011F40C94BC14F8E28F2EAEE17A2EBCE9AF
:101950006B2E1AE0912E80914C0381114FC1209182
:10196000BB033091BC038091BD039091BE03281747
:10197000390708F043C180914C03882341F08BE282
:1019800094E00E94BF179093BC038093BB038CE04C
:101990000E94C1279093D3038093D2038FE00E94CB
:1019A00010279093DF038093DE03BC01990F880B0F
:1019B000990B1F921F921F928F9258E0A52EB12C67
:1019C000C12CD12CE12CF12C87012FEF33E040E02A
:1019D00050E00E948E2A0E94742C20E030E040E209
:1019E00051E40E94CA2B60930C0170930D01809307
:1019F0000E0190930F018EE00E9410279093DD035B
:101A00008093DC03BC01990F880B990B1F921F92E6
:101A10001F927F92E2E0AE2EB12CC12CD12C2FEF81
:101A200033E040E050E00E948E2A0E94742C20E0B7
:101A300030E040E251E40E94CA2B609308017093A9
:101A4000090180930A0190930B0186E00E94102700
:101A50000FB6F894DEBF0FBECDBF893E33E09307CB
:101A600014F088EE93E08431910514F484E190E061
:101A70009093DB038093DA03BC01990F880B990BD9
:101A80001F921F921F921F923EE1A32EB12CC12CD8
:101A9000D12C18EEE12E13E0F12E00E010E024E14D
:101AA00030E040E050E00E948E2A7093E50360939E
:101AB000E40387E00E9410270F900F900F900F9083
:101AC000893EA3E09A0714F088EE93E084319105F3
:101AD00014F484E190E09093D9038093D803BC017F
:101AE000990F880B990BBFEFBF93BF93BF936F9272
:101AF00014E6A12EB12CC12CD12C18EEE12E13E04E
:101B0000F12E00E010E024E130E040E050E00E94DF
:101B10008E2A969E9001979E300D11243093E303F8
:101B20002093E20380E10E9410270F900F900F9006
:101B30000F90893E23E0920714F088EE93E0843101
:101B4000910514F484E190E09093D7038093D60339
:101B5000BC01990F880B990B1F921F921F9234E6BC
:101B60003F93A12CB12C650114E1E12EF12C00E092
:101B700010E028EE33E040E050E00E948E2A969E6E
:101B80009001979E300D11243093E1032093E003E0
:101B900081E10E9410270F900F900F900F90893EC7
:101BA000A3E09A0714F088EE93E08431910514F4D1
:101BB00084E190E09093D5038093D403BC01990F06
:101BC000880B990B1F921F921F92B4E6BF93A12C12
:101BD000B12C650114E1E12EF12C00E010E028EEBB
:101BE00033E040E050E00E948E2A7093070160933A
:101BF00006010F900F900F900F90ADCE10924C03F6
:101C00008BE294E00E9464178093C0038BE294E01F
:101C10000E94BF179093BC038093BB032091BD0328
:101C20003091BE038217930760F02091C00324FD1A
:101C300004C08115944008F4FBC58BE294E00E9437
:101C40008417409108015091090160910A01709137
:101C50000B0183E293E00E94632340910C015091B9
:101C60000D0160910E0170910F0183E293E00E94DB
:101C70009A23409108015091090160910A017091E5
:101C80000B0186E093E00E94632340910C01509188
:101C90000D0160910E0170910F0186E093E00E94AA
:101CA0009A236091670370916803072E000C880BDC
:101CB000990B0E94742CAB01BC0183E293E00E945B
:101CC0002E2483E293E00E9438250E943C2C072EAC
:101CD000000C880B990B0E94742C6B017C0120E096
:101CE00030E044E353E460915503709156038091D2
:101CF0005703909158030E94582D2BED3FE049E483
:101D000050E40E94CA2B20E030E04CE053E40E94F3
:101D1000582D9B01AC01C701B6010E94E62A0E9422
:101D20003C2C709368036093670360916503709126
:101D30006603072E000C880B990B0E94742CAB01D4
:101D4000BC0186E093E00E942E2486E093E00E948E
:101D500038250E943C2C072E000C880B990B0E9402
:101D6000742C6B017C0120E030E044E353E460918B
:101D700051037091520380915303909154030E9438
:101D8000582D2BED3FE049E450E40E94CA2B20E09F
:101D900030E04CE053E40E94582D9B01AC01C70198
:101DA000B6010E94E62A0E943C2C70936603609361
:101DB00065036091C6037091C7038091C803909139
:101DC000C9030E94742CAB01BC018EE094E00E9418
:101DD0002E248EE094E00E9438250E943C2C7093C3
:101DE000CB036093CA0380910804811166C560919A
:101DF000650370916603072E000C880B990B1F92E8
:101E00001F92A7E0AF93B0EDBF93A12CB12C650159
:101E1000E12C10E4F12E00E010E020E030EC4FEF78
:101E20005FEF0E948E2A0E94742C6093F4037093DB
:101E3000F5038093F6039093F70360916703709125
:101E40006803072E000C880B990B1F921F9227E046
:101E50002F9330ED3F9320E030EC4FEF5FEF0E9487
:101E60008E2A0E94742C6093F0037093F103809388
:101E7000F2039093F3030FB6F894DEBF0FBECDBF0D
:101E80006091F0037091F1038091F2039091F3035C
:101E90009B01AC010E94E72A9B01AC0160E070E865
:101EA0008BE395E40E94E62A6093F0037093F103BC
:101EB0008093F2039093F3038091060190910701C0
:101EC00064E670E0681B790B072E000C880B990BF9
:101ED0000E94742C20E030E048EC52E40E94CA2BAF
:101EE0002B013C016091E0037091E103660F771FC5
:101EF000072E000C880B990B0E94742C6B017C013F
:101F0000A30192010E94582D4B015C0120E030E0BA
:101F1000A9010E94C52B87FDFBC420E030E04AE701
:101F200054E4C501B4010E944B2D181634F4812CE1
:101F3000912C4AE7A42E44E4B42EC501B4010E94BA
:101F40003C2C7093D1036093D003A301920160E015
:101F500070E080E89FE30E94E62A6D8F7E8F8F8F6E
:101F600098A39B01AC01C701B6010E94582D6B01DB
:101F70007C0120E030E0A9010E94C52B87FDCCC484
:101F800020E030E04AE754E4C701B6010E944B2D3F
:101F9000181634F4C12CD12C3AE7E32E34E4F32E96
:101FA000C701B6010E943C2C7093CF036093CE030F
:101FB0000E947E26683873418105910508F4B0C4FB
:101FC0006091CA037091CB03613DB7E07B0714F0C9
:101FD00060ED77E0643823E0720714F464E873E09E
:101FE0007093CB036093CA03072E000C880B990BE8
:101FF0001F921F9223E02F9324E82F930CE7A02E2B
:102000000CEFB02ECC24CA94DC2C10EDE12E17E09E
:10201000F12E00E010E024E833E040E050E00E94C0
:102020008E2A7093CD036093CC030F900F900F9086
:102030000F90C090F003D090F103E090F203F09085
:10204000F303A7019601C701B6010E94582D6D8BBD
:102050007E8B8F8B988F8091F4039091F503A091E4
:10206000F603B091F70389839A83AB83BC839C0109
:10207000AD0160E070E08AEF94E40E94E62A9B01E3
:10208000AC010E94582D698B7A8B8B8B9C8B2D8990
:102090003E894F89588D0E94E72A0E94CB2D4B0123
:1020A0005C016091E4037091E503072E000C880B3E
:1020B000990B0E94742C698F7A8F8B8F9C8FA30150
:1020C00092010E94582D2B013C016091E203709116
:1020D000E303072E000C880B990B0E94742C6D8370
:1020E0007E838F8398876091CC037091CD03072EF8
:1020F000000C880B990B0E94742C69877A878B8758
:102100009C8728EB36EC40EB54E4C501B4010E94F7
:10211000E62AA30192010E94582D28EB36EC40EBF1
:1021200054E40E94E72A2D813E814F8158850E9408
:10213000E72A29853A854B855C850E94E72A4B0171
:102140005C0120E030E0A9010E94C52B87FDEDC3B2
:1021500020E030EC40E355E4C501B4010E944B2D72
:1021600018163CF4812C10EC912E10E3A12E15E4EE
:10217000B12E8092040490920504A0920604B092BD
:102180000704A701960160E070E08AEF94E40E94E2
:10219000E62A9B01AC010E94582D6D877E878F87B0
:1021A000988B29893A894B895C890E94E72A0E9489
:1021B000CB2D28EB36EC40EB54E40E94E62AA30139
:1021C00092010E94582D28EB36EC40EB54E40E941B
:1021D000E72A2D813E814F8158850E94E72A298573
:1021E0003A854B855C850E94E72A6B017C0120E0E3
:1021F00030E0A9010E94C52B87FD9BC320E030EC95
:1022000040E355E4C701B6010E944B2D18163CF47B
:10221000C12CB0ECDB2EB0E3EB2EB5E4FB2EC0926C
:102220000004D0920104E0920204F0920304298198
:102230003A814B815C81CA01B9010E94582D2B0162
:102240003C01AC019B016D897E898F89988D0E942C
:10225000E72A0E94CB2D6B017C0126E636E646EA92
:102260005FE36D8D7E8D8F8D98A10E94582D298DF5
:102270003A8D4B8D5C8D0E94582D69837A838B83B8
:102280009C8328EB36EC40EB54E4C701B6010E9476
:10229000E62A29813A814B815C810E94582D28EBE6
:1022A00036EC40EB54E40E94E72A2D813E814F81B9
:1022B00058850E94E72A29853A854B855C850E94CE
:1022C000E72A6B017C0120E030E0A9010E94C52BC8
:1022D00087FD33C320E030EC40E355E4C701B6018D
:1022E0000E944B2D18163CF4C12CA0ECDA2EA0E372
:1022F000EA2EA5E4FA2EC092FC03D092FD03E092F0
:10230000FE03F092FF03A30192016D857E858F8508
:1023100098890E94E72A0E94CB2D28EB36EC40EBEF
:1023200054E40E94E62A29813A814B815C810E9413
:10233000582D28EB36EC40EB54E40E94E72A2D811F
:102340003E814F8158850E94E72A29853A854B8531
:102350005C850E94E72A6B017C0120E030E0A90146
:102360000E94C52B87FDEDC220E030EC40E355E430
:10237000C701B6010E944B2D18163CF4C12CF0EC9D
:10238000DF2EF0E3EF2EF5E4FF2EC092F803D0929B
:10239000F903E092FA03F092FB0324EF31E030936B
:1023A000ED032093EC0384EC99E09093EB0380938E
:1023B000EA033093E9032093E8039093E7038093C3
:1023C000E603C501B4010E943C2C1F921F9221E03C
:1023D0002F9324EF2F9324ECA22E29E0B22EC12CB0
:1023E000D12C1CE0E12E1BE0F12E00E010E020E0FB
:1023F00030E0A9010E948E2A0E94742C609304048C
:10240000709305048093060490930704A090EC0356
:10241000B090ED030B2C000CCC08DD08609100049B
:102420007091010480910204909103040E943C2C5D
:102430002091EA033091EB038901330F220B330B18
:102440003F932F931F930F931CE0E12E1BE0F12E7F
:1024500000E010E020E030E0A9010E948E2A0E94F6
:10246000742C609300047093010480930204909391
:102470000304A090E803B090E9030B2C000CCC08F7
:10248000DD086091FC037091FD038091FE03909143
:10249000FF030E943C2C2091E6033091E703890161
:1024A000330F220B330B3F932F931F930F931CE09B
:1024B000E12E1BE0F12E00E010E020E030E0A90169
:1024C0000E948E2A0E94742C6093FC037093FD037B
:1024D0008093FE039093FF03A090E603B090E70380
:1024E0000B2C000CCC08DD086091F8037091F90307
:1024F0008091FA039091FB030E943C2C2091E80309
:102500003091E9038901330F220B330B3F932F9353
:102510001F930F931CE0E12E1BE0F12E00E010E072
:1025200020E030E0A9010E948E2A0E94742C762EB1
:10253000872E982EC92E8091D0039091D1037C01D3
:10254000A4E2EA1AAAEFFA0A009104041091050421
:10255000B0910604BD8B20910704298B6CED75E0CA
:10256000681B790B072E000C880B990B0E94742CAA
:102570001B012C010FB6F894DEBF0FBECDBF9B012F
:10258000AC01B8018D8999890E94C52B87FDDDC1F9
:10259000B7010F2C000C880B990B0E94742C662E2F
:1025A000A72EB82ED92E262F372F482F592FB801F6
:1025B0008D8999890E944B2D181624F4062D1A2D09
:1025C000BD8AD98AC801AD89B989809304049093E2
:1025D0000504A0930604B093070460900004A09043
:1025E0000104B0900204D09003049101A201662D71
:1025F0007A2D8B2D9D2D0E94C52B87FDAAC1B70179
:10260000FF0C880B990B0E94742C2B017C019B0101
:10261000AC01662D7A2D8B2D9D2D0E944B2D181609
:1026200024F4642CA52CBE2CDF2C862D9A2DAB2DEA
:10263000BD2D8093000490930104A0930204B093F5
:1026400003048091CE039091CF035C01A4E2AA1A07
:10265000AAEFBA0A6090FC03D090FD03E090FE035D
:10266000F090FF036CED75E0681B790B072E000CF2
:10267000880B990B0E94742C1B012C019B01AC014F
:10268000662D7D2DC7010E94C52B87FD67C1B50151
:102690000B2C000C880B990B0E94742C6D8379878E
:1026A00089839D879B01AC01662D7D2DC7010E940A
:1026B0004B2D181624F46D80D984E980FD84862D75
:1026C0009D2DD7018093FC039093FD03A093FE03FF
:1026D000B093FF039101A201672D782D892D9C2DC8
:1026E0000E94C52B87FD16C0B501BB0C880B990B4A
:1026F0000E94742C1B012C019B01AC01672D782DCD
:10270000892D9C2D0E944B2D181624F0272C382C37
:10271000492C5C2CC101D2018093F8039093F903FA
:10272000A093FA03B093FB0388E391E00E94D32FB8
:102730008D3E99F5B8018D8999890E943C2C89E4D8
:1027400093E00E94CF166091000470910104809183
:102750000204909103040E943C2C86E493E00E94C2
:10276000CF166091FC037091FD038091FE03909160
:10277000FF030E943C2C83E493E00E94CF166091FB
:10278000F8037091F9038091FA039091FB030E9482
:102790003C2C80E493E00E94CF16809108048111C4
:1027A000E1C08091650390916603893E93400CF4EB
:1027B000E1C061E084E00E9493278091D203909170
:1027C000D303892B09F0D8C061E084E00E949327ED
:1027D00064EA76E089E493E00E94CF1664EA76E04A
:1027E00086E493E00E94CF1664EA76E083E493E007
:1027F0000E94CF1664EA76E080E493E0A0960FB6DC
:10280000F894DEBF0FBECDBFDF91CF911F910F9126
:10281000FF90EF90DF90CF90BF90AF909F908F9000
:102820007F906F905F904F903F902F900C94CF16B9
:1028300021FF07CA4091BD035091BE038091BB03A5
:102840009091BC038417950708F4FBC96BE773E00C
:102850008BE294E00E94DA178091BB039091BC0355
:102860002091BD033091BE03821B930B9093BC0358
:102870008093BB034BE753E065E673E08BE294E0A3
:102880000E942E054BE753E06BE673E08BE294E089
:102890000E9485054BE653E069E573E08BE294E026
:1028A0000E94F40529E533E04BE653E06DE473E064
:1028B0008BE294E00E94BA06BDCF609167037091ED
:1028C0006803072E000C880B990B1F921F92A7E03C
:1028D000AF93B0EDBF93A12CB12C6501E12C10E4B6
:1028E000F12E00E010E020E030EC4FEF5FEF0E94AF
:1028F0008E2A0E94742C6093F4037093F5038093E6
:10290000F6039093F703609165037091660399CA8B
:10291000812C912C540111CBC12CD12C760140CBB0
:102920001092CD031092CC0384CB812C912C5401B6
:1029300020CCC12CD12C760172CCC12CD12C7601AB
:10294000DACCC12CD12C760120CD81014D8A598A57
:1029500039CE622CA32CB42CD52C67CE622CD32C70
:102960007201ADCE8091670390916803893E9340D8
:102970000CF01FCF60E01ECFA0960FB6F894DEBF1C
:102980000FBECDBFDF91CF911F910F91FF90EF90C0
:10299000DF90CF90BF90AF909F908F907F906F907F
:1029A0005F904F903F902F900895CF92DF92EF92DB
:1029B000FF920F931F93E8E6F8E085919491E2E58A
:1029C000F4E0918380838BE690E09383828381E0BF
:1029D00084831582168211861086EAE6F8E08591D6
:1029E0009491E8E4F4E0918380838CE690E0938313
:1029F000828382E084831582168211861086ECE63B
:102A0000F8E085919491EEE3F4E0918380838DE684
:102A100090E09383828384E08483158216821186FA
:102A2000108668E68BE294E00E940617C12CD12C38
:102A3000760100E010E020E83FE3B901A8018EE054
:102A400094E00E94C323EBE6F3E080E090E0A0E88E
:102A5000BFE380839183A283B383C482D582E6825D
:102A6000F782C086D186E286F386C486D586E6865E
:102A7000F786E5E6F3E01182108213821282158256
:102A80001482E9E5F3E0C082D182E282F382C4825B
:102A9000D582E682F782C086D186E286F38689E413
:102AA00093E00E94351686E493E00E94351683E495
:102AB00093E00E94351680E493E00E94351600E012
:102AC00010E020E83FE3B901A80183E293E00E940F
:102AD000C32300E010E020E83FE3B901A80186E04D
:102AE00093E00E94C3231F910F91FF90EF90DF901E
:102AF000CF9008951F920F920FB60F9211242F932B
:102B00003F934F935F936F937F938F939F93AF9375
:102B1000BF93EF93FF938091600487FF27C01092CB
:102B2000850010928400809160048F5F8093600420
:102B300080916004082E000C990B20915F042817E7
:102B4000190629F024F0809160048C30DCF180912A
:102B5000840090918500049680349C4908F47BC0E1
:102B60008091840090918500049677C080916004E4
:102B7000082E000C990B20915F042817190699F272
:102B800094F2E09160048E2FEE0F990BFC01EE0F92
:102B9000FF1FE80FF91FEF59FB4F808186FFC3CF5E
:102BA000E09160048E2FEE0F990BFC01EE0FFF1FDA
:102BB000E80FF91FEF59FB4F808160E08F730E948F
:102BC0009327B1CF2091840030918500E09160047B
:102BD0008E2FEE0F990BFC01EE0FFF1FE80FF91F70
:102BE000EF59FB4F81819281820F931F909389004F
:102BF00080938800E09160048E2FEE0F990BFC010A
:102C0000EE0FFF1FE80FF91FEF59FB4F808186FF82
:102C100011C0E09160048E2FEE0F990BFC01EE0FB6
:102C2000FF1FE80FF91FEF59FB4F808161E08F73A1
:102C30000E949327FF91EF91BF91AF919F918F9148
:102C40007F916F915F914F913F912F910F900FBEA8
:102C50000F901F90189580E49CE9909389008093D1
:102C600088008FEF80936004E5CFFC0190915F04B2
:102C70009C3098F481E0890F80935F049083892FC2
:102C800090E0FC01EE0FFF1FE80FF91FEF59FB4F1B
:102C900088EB9BE09283818308958FEF8083089572
:102CA000DF92EF92FF920F931F93CF93DF93EC018C
:102CB000D62E7A01890188818C3008F067C061E0E6
:102CC0008D2D0E9457278881282F30E0F901EE0FC3
:102CD000FF1FE20FF31FEF59FB4F9D2D9F73608184
:102CE000607C692B608320E232E02E193F0937FFB8
:102CF00002C02D5F3F4F3595279535952795298340
:102D000020E639E0201B310B37FF02C02D5F3F4F1B
:102D100035952795359527952A832CE0622F0E94BB
:102D2000342E829FB001112430E020E0AB01420F2D
:102D3000531FFA01EE0FFF1FE40FF51FEF59FB4F72
:102D4000908196FD16C02F5F3F4F2C30310571F7F3
:102D500081110FC01092800082E080938100109258
:102D6000850010928400B19A80916F0082608093F8
:102D70006F00E8818E2F90E0FC01EE0FFF1FE80F3F
:102D8000F91FEF59FB4F8081806480838881DF9138
:102D9000CF911F910F91FF90EF90DF900895DC018C
:102DA000EC91EC3090F511968C91119728E830E079
:102DB000281B310987FD3395220F331F220F331F44
:102DC0006217730784F012968C9128E532E0281B75
:102DD000310987FD3395220F331F220F331F6217EE
:102DE00073070CF49B0122503109220F331F4FB798
:102DF000F8948E2F90E0FC01EE0FFF1FE80FF91FF3
:102E0000EF59FB4F328321834FBF0895FC0160834C
:102E10000895462F69E1FC0180810C94371D0F93C2
:102E2000062F23E045E06AE1FC0180810E94AB1E91
:102E30000F9108950F93062F23E042E06AE1FC0111
:102E400080810E94AB1E0F9108950F93062F22E000
:102E500044E06BE1FC0180810E94AB1E0F9108955C
:102E60000F93062F22E044E06CE1FC0180810E9478
:102E7000AB1E0F910895462F6FE1FC0180810C94E9
:102E8000371D462F60E2FC0180810C94371D462FD0
:102E900061E2FC0180810C94371D462F62E2FC0147
:102EA00080810C94371DFC01962F643030F4660F3E
:102EB000690F6B5D80810C94371D0895462F68E380
:102EC000FC0180810C94371DCF93DF93EC0120919E
:102ED000140130911501AC014F5F5F4F6AE38881A7
:102EE0000E94331E8981DF91CF910895262F46E0FD
:102EF0006AE6FC0180810C947B1E262F45E06AE681
:102F0000FC0180810C947B1E21E042E06AE6FC011A
:102F100080810C947B1E21E041E06AE6FC01808107
:102F20000C947B1E21E047E06BE6FC0180810C9451
:102F30007B1E262F46E06BE6FC0180810C947B1EF5
:102F40000F93062F23E042E06BE6FC0180810E9494
:102F5000AB1E0F910895CF93DF93EC0161E00E94C7
:102F6000A01760E0CE010E94251760E0CE010E940C
:102F7000301760E0CE01DF91CF910C9499170F9339
:102F80001F93CF93DF93EC01009114011091150171
:102F90009C012F5F3F4F42E062E788810E948E1DB7
:102FA00089819A81982789279827DF91CF911F914E
:102FB0000F9108950F931F93442369F09B01FC0127
:102FC000009114011091150164E780810E948E1D0B
:102FD0001F910F910895FB011082FACFEF92FF929B
:102FE0000F931F93CF93DF93EC01E0901401F090C7
:102FF00015018C010F5F1F4F26E046E065E78881D1
:103000000E943D1E8981DF91CF911F910F91FF900A
:10301000EF900895262F40E060E0FC0180810C9441
:103020007B1E0F931F93CF93DF93EC018B010E94C4
:10303000EE1767E7883308F466E0A8018881DF911E
:10304000CF911F910F910C947C1D0F931F93CF93E1
:10305000DF93EC018B010E94EE176AE7883308F4D6
:1030600068E0A8018881DF91CF911F910F910C94A6
:103070007C1D0F931F93CF93DF93EC018B010E9474
:10308000EE176DE7883308F46AE0A8018881DF91C4
:10309000CF911F910F910C947C1DAB0163E1FC015A
:1030A00080810C947C1DAB0165E1FC0180810C9456
:1030B0007C1DAB0167E1FC0180810C947C1D262FF7
:1030C00047E06AE6FC0180810C947B1E21E043E02E
:1030D0006AE6FC0180810C947B1E6F712111606295
:1030E00041116064462F6DE6FC0180810C94371D10
:1030F000462F6EE6FC0180810C94371DCF93DF9341
:10310000EC012091140130911501AC014F5F5F4F2C
:103110006FE688810E94331E8981DF91CF910895E7
:103120002F923F924F925F926F927F928F929F92D7
:10313000AF92BF92CF92DF92EF92FF920F931F93C5
:10314000CF93DF9300D000D01F92CDB7DEB79D8321
:103150008C837B836A832A01222ED02EE98220E091
:1031600040E0622D0E946D18602F8C819D810E942D
:103170007818E980912C812CEE2029F080E190E0F4
:103180000E94A12E4C01B12CA12CCC2029F080E171
:1031900090E00E94A12E5C01F12CE12CE414F504D6
:1031A00008F093C0C7014096342C3E1848165906C3
:1031B00010F080E1382E80E091E08D1991093816E9
:1031C000190619F014F03D2C3194CC2081F0D50172
:1031D00090E080E02A813B812E0D3F1D831558F43D
:1031E000F901E80FF91FE491ED930196F7CFAA805A
:1031F000BB80AE0CBF1C9501432D6FE6EC81FD81B9
:1032000080810E94081D632C712CF981FF2309F431
:1032100045C08114910409F441C020E040E0622DD2
:103220008C819D810E946D186D2D8C819D810E94E5
:10323000781800911401109115019401432D6FE647
:10324000EC81FD8180810E948E1DA301B401C50126
:103250000E94C62F892B11F1C4010E943D2FCC2062
:1032600021F0C5010E943D2FC12C8C2D0F900F9095
:103270000F900F900F90DF91CF911F910F91FF90C2
:10328000EF90DF90CF90BF90AF909F908F907F9006
:103290006F905F904F903F902F900895E60CF71C31
:1032A000D30CE414F50408F079CFD11001C02394B5
:1032B00020E040E0622D8C819D810E946D186D2D73
:1032C0008C819D810E94781869CFF981FF2319F0C4
:1032D000C4010E943D2FCC2021F0C5010E943D2F4A
:1032E000C4CFCC24C394C1CFCF92EF920F93CC2400
:1032F000C3940E9490180F91EF90CF900895462F9D
:1033000060E7FC0180810C94371D462F61E7FC01CA
:1033100080810C94371D2F923F924F925F926F9253
:103320007F928F929F92AF92BF92CF92DF92EF9255
:10333000FF920F931F93CF93DF93CDB7DEB7E7973D
:103340000FB6F894DEBF0FBECDBF998F888F69A3EB
:103350002AA73BA74CA75DA7EEA6FFA608AB19AB13
:103360006B3309F0E8C10E94EE17883308F4E8C116
:1033700027E72F8B33E03C8F6EE38EE395E00E94CE
:103380007728FE013D96FE8BED8B9E012F5F3F4F10
:103390003B8F2A8F7F01DF88009114011091150166
:1033A0009E012D5E3F4F41E06D2DA88DB98D8C9112
:1033B0000E94F11EAB88BC88B5010B2C000C880B59
:1033C000990B0E94742CBF89B33109F4BEC1E1E0AE
:1033D000AE22BB24D701AD92BC9220E030E040E0A9
:1033E00051E40E94582DEA8DFB8D608371838283A6
:1033F0009383BC8DDB0EE2E0EE0EF11C2A8D3B8D3B
:103400002C5F3F4F3B8F2A8F8D899E8982179307B0
:1034100019F699A19B3309F0A6C18DEC9CECACE4A4
:10342000BDE38AAB9BABACABBDAB1DA21CA2AC2D6C
:10343000B0E0BFABAEABEEA9FFA92CA13DA12E170A
:103440003F070CF0ECC1312C212C1BA21AA2CE019B
:1034500001969E8F8D8FDE011D96BFA3AEA3BF89FF
:10346000B8A7E9A1E9A718A21F8E812C912C5401BD
:1034700000911401109115019E012D5E3F4F41E016
:1034800069A5A88DB98D8C910E94F11E6B897C89EC
:10349000072E000C880B990B0E94742C6B017C0189
:1034A000B9A1BB3361F4EF8DF8A1329741F420E06C
:1034B00030E040E856E40E94E62A6B017C012601D8
:1034C000370177FA709477F8709420E030E0A90122
:1034D000C701B6010E944B2D181614F0730162014A
:1034E000C501B4010E94722CA70196010E94E72A2F
:1034F0000E94432C4B015C012FE632E143E85AE382
:10350000C301B2010E94582D2EA53FA548A959A973
:103510000E94582DAD8DBE8D2D913D914D915C91A8
:103520000E94E72A6B017C01ED8DFE8DC082D18265
:10353000E282F382A30192016AA57BA58CA59DA5D9
:103540000E94582DA70196010E94E72AFF89F331B6
:1035500009F413C120E030E040E05EE30E94582D02
:103560006B017C0120E030E0A9010E944B2D20E09E
:1035700030E040E05FE387FDFBC0C701B6010E9479
:10358000E72A0E943C2C6E7FAEA1BFA18D919C9139
:10359000682B792B7C8B6B8B9E012D5E3F4F41E01E
:1035A00068A5E88DF98D80810E94471D2F8D38A177
:1035B0002F5F3F4F38A32F8F39A53E5F39A788A5CE
:1035C0009C8D890F88A7AEA1BFA11296BFA3AEA301
:1035D000ED8DFE8D3496FE8FED8F2F8D38A123302B
:1035E000310509F045CF33E62316310471F489EE35
:1035F000881683E09806A104B10438F06AE28EE3ED
:1036000095E00E947728312C212CC501B4010E943D
:10361000722C2AA93BA94CA95DA90E94582D20E033
:1036200030E040EA50E40E94C52B87FF05C0AAA104
:10363000BBA11196BBA3AAA3B4E68B169104A10467
:10364000B10408F0B9C0EBE02E1631040CF4B4C09C
:103650002AA13BA12A3031050CF4AEC06EE28EE304
:1036600095E00E94772820E030E040E45FE36AA51F
:103670007BA58CA59DA50E94582D6AA77BA78CA72A
:103680009DA720E030E040E45FE36EA57FA588A918
:1036900099A90E94582D6EA77FA788AB99ABCE0140
:1036A0000D966C01FF88DE0111963D01D3016D91ED
:1036B0007D918D919D913D01BF89B33109F490C0F9
:1036C00020E030E040E05EE30E94582D4B015C01B9
:1036D00020E030E0A9010E944B2D20E030E040E0E6
:1036E0005FE387FD78C0C501B4010E94E72A0E940C
:1036F0003C2C6E7FF60180819181682B792B7C8B2D
:103700006B8B9E012D5E3F4F41E06F2DA88DB98DD3
:103710008C910E94471DBC8DFB0EE2E0CE0ED11CA9
:103720002A8D3B8D2615370509F68CA19DA10196A2
:103730009DA38CA380CE83E18F8B92E09C8F1CCEC7
:10374000A6E0AF8BB2E0BC8F17CE20E030E040E8BF
:1037500050E40E94582DAA8DBB8D6D937D938D935F
:103760009C93139746CE80E090E0A0E8BFE359CE4B
:10377000C701B6010E94E62A04CF20E030E040E80D
:103780005EE30E94582D6B017C0120E030E0A9012E
:103790000E944B2D20E030E040E05FE387FD07C052
:1037A000C701B6010E94E72A0E943C2CF3CEC70154
:1037B000B6010E94E62AF8CF61E070E080E090E078
:1037C0000E94AF26BFEF2B1A3B0AE4E62E16310407
:1037D00009F03DCE43CFC501B4010E94E62A87CF50
:1037E00020E030E040E85EE30E94582D4B015C0190
:1037F00020E030E0A9010E944B2D20E030E040E0C5
:103800005FE387FD07C0C501B4010E94E72A0E945B
:103810003C2C75CFC501B4010E94E62AF8CF888DF3
:10382000998D0E948417888D998D0E946618E7965D
:103830000FB6F894DEBF0FBECDBFDF91CF911F91C1
:103840000F91FF90EF90DF90CF90BF90AF909F903F
:103850008F907F906F905F904F903F902F90089542
:103860004F925F926F927F929F92AF92BF92CF9250
:10387000DF92EF92FF920F931F93CF93DF93EC01B0
:10388000962E70E090E080E01F921F921F921F9290
:1038900024E1A22EB12CC12CD12C15E0E12EF12C6B
:1038A00000E010E021E030E040E050E00E948E2A8D
:1038B00044E6C42ED12CE12CF12CA7019601261B45
:1038C000370B480B590BCA01B9010E94742C2AE02E
:1038D00037ED43E25CE30E94582D6B017C0120E050
:1038E00030E044EB52E40E94582D2B013C012AE9C0
:1038F00039E949E95EE3C701B6010E94582D9B01F1
:10390000AC01C92C8301720163E4CE010E948B19C2
:103910000F900F900F900F90DF91CF911F910F910B
:10392000FF90EF90DF90CF90BF90AF909F907F90EF
:103930006F905F904F9008954F925F926F927F9239
:103940009F92AF92BF92CF92DF92EF92FF920F932E
:103950001F93CF93DF93EC01962E70E090E080E010
:103960001F921F921F921F9224E1A22EB12CC12CF4
:10397000D12C15E0E12EF12C00E010E021E030E048
:1039800040E050E00E948E2A44E6C42ED12CE12C67
:10399000F12CA7019601261B370B480B590BCA01C6
:1039A000B9010E94742C2AE037ED43E25CE30E94E7
:1039B000582D6B017C0120E030E040EA51E40E9488
:1039C000582D2B013C012AE939E949E95EE3C70199
:1039D000B6010E94582D9B01AC01C92C83017201D4
:1039E0006BE3CE010E948B190F900F900F900F90F8
:1039F000DF91CF911F910F91FF90EF90DF90CF90CB
:103A0000BF90AF909F907F906F905F904F90089580
:103A1000FF920F931F93CF93DF93C62F042FF22EA5
:103A2000132F682F85E894E00E949E206C2F85E874
:103A300094E00E942C20CF2DD12F0C0F1D2F111D93
:103A4000C017D10731F0699185E894E00E942C20DD
:103A5000F7CF85E894E00E94212191E0811190E068
:103A6000892FDF91CF911F910F91FF900895CF93F0
:103A7000DF931F92CDB7DEB749839E012F5F3F4F83
:103A800041E00E94081D0F90DF91CF910895FF92B1
:103A90000F931F93CF93DF93C62F042FF22E132F74
:103AA000682F85E894E00E949E206C2F85E894E0C2
:103AB0000E942C20CF2DD12F10E0101779F06981B2
:103AC000229685E894E00E942C20FE0132976081C6
:103AD00085E894E00E942C201F5FEFCF85E894E0FA
:103AE0000E94212191E0811190E0892FDF91CF91F7
:103AF0001F910F91FF900895CF93DF9300D0CDB722
:103B0000DEB75A8349839E012F5F3F4F41E00E94F9
:103B1000471D0F900F90DF91CF9108953F924F92E4
:103B20005F926F927F928F929F92AF92BF92CF924D
:103B3000DF92EF92FF920F931F93CF93DF9300D00A
:103B400000D0CDB7DEB78C83D62E4B833A83298342
:103B50000E947E264B015C01312CC12C2B81E22E70
:103B6000F12C2801712C612C8B81381608F049C08A
:103B70006C8185E894E00E949E206D2D85E894E09C
:103B80000E942C2085E894E00E9421216C8185E828
:103B900094E00E949E20A70143195109413251052A
:103BA00014F040E250E06C8185E894E00E941E2110
:103BB00085E894E00E94CC1F892BD9F001151105EE
:103BC00069F485E894E00E94D31FE981FA81EC0D45
:103BD000F11DC7FCFA958083C394EACF0E947E262C
:103BE000681979098A099B09641575058605970581
:103BF00040F38E2D91E2E916F1040CF080E2380ECC
:103C0000B3CF01151105C1F00E947E26681979090C
:103C10008A099B0930E020E060177107820793074B
:103C200058F08C2D0C2C000C990B2B8128171906A1
:103C300019F014F0CC24CA948C2D0F900F900F9093
:103C40000F90DF91CF911F910F91FF90EF90DF9038
:103C5000CF90BF90AF909F908F907F906F905F902C
:103C60004F903F9008950F931F9389019A0141E06F
:103C70000E948E1D1F910F910895CF92DF92EF92B7
:103C8000FF920F931F93CF93DF931F92CDB7DEB7B1
:103C9000D42EC22E9701AE014F5F5F4F0E94331E9C
:103CA0008823F9F02D2D2C19330BA9014F5F5F4F9D
:103CB00021E030E002C0220F331FCA94E2F7215006
:103CC0003109B901042E01C0660F0A94EAF729816F
:103CD000262330E002C0359527954A95E2F7F80192
:103CE00020830F90DF91CF911F910F91FF90EF9064
:103CF000DF90CF900895EF92FF920F931F93CF9391
:103D0000DF931F92CDB7DEB7182F062FE42EF22EC9
:103D10002091140130911501AE014F5F5F4F0E9459
:103D2000331E81E090E001C0880FEA94EAF74981F0
:103D3000FF2071F0482B4983602F812F0E94371D8F
:103D40000F90DF91CF911F910F91FF90EF90089509
:103D500080954823F0CFDF92EF92FF920F931F934D
:103D6000CF93DF931F92CDB7DEB7F82EE62E142F38
:103D7000D22E2091140130911501AE014F5F5F4F9B
:103D80000E94331E882359F1812F8D19990BAC01A4
:103D90004F5F5F4F81E090E002C0880F991FDA9477
:103DA000E2F70197042E01C0880F0A94EAF701C0D8
:103DB000000F4A95EAF7482F4095998149238023BF
:103DC000482B49836E2D8F2D0E94371D0F90DF9158
:103DD000CF911F910F91FF90EF90DF90089580E0B9
:103DE000F5CF2F923F924F925F926F927F928F9278
:103DF0009F92AF92BF92CF92DF92EF92FF920F937A
:103E00001F93CF93DF93CDB7DEB729970FB6F89402
:103E1000DEBF0FBECDBFC82E6D8349833F832E8387
:103E20000E947E264B015C012981E22EF12C1701B4
:103E3000220C331C220F2B83822D31E223163104F6
:103E40000CF080E28C831982D12C2801712C612C1A
:103E50008981821513040CF069C06C2D85E894E00B
:103E60000E949E206D8185E894E00E942C2085E8C8
:103E700094E00E9421216C2D85E894E00E949E2010
:103E80004B816C2D85E894E00E941E2191E09A837D
:103E900085E894E00E94CC1F892B91F1ED2D0D2C2B
:103EA000000CFF0BF987E887EE15FF054CF50115AF
:103EB0001105D9F428853985220F331F8E819F8102
:103EC000280F391F398728879A81911122C085E8E8
:103ED00094E00E94D31FE885F98520813181822BEF
:103EE000932B91838083D3941CC00E947E266819F3
:103EF00079098A099B096415750586059705D0F22D
:103F000085E894E00E942121E981FC81EF0FE9839B
:103F10009FCF85E894E00E94D31FE885F985108241
:103F20008183FA8121E0F227FA83B2CF01151105CE
:103F3000B1F00E947E26681979098A099B0930E050
:103F400020E0601771078207930748F08D2D0D2C34
:103F5000000C990B8E159F0514F4DD24DA948D2D39
:103F600029960FB6F894DEBF0FBECDBFDF91CF917B
:103F70001F910F91FF90EF90DF90CF90BF90AF9087
:103F80009F908F907F906F905F904F903F902F9079
:103F9000089590E080E008958091B9049091BA046A
:103FA000891B990B08959091BA048091B9042FEF61
:103FB0003FEF981748F4E92FF0E0E554FB4F2081DC
:103FC00030E09F5F9093BA04C9010895E091BA046C
:103FD0008091B904E81730F4F0E0E554FB4F80819C
:103FE00090E008958FEF9FEF08950895CF93DF93AA
:103FF000EC01E0919104F09192043097F1F09091EE
:10400000BA048091B9049817C0F090E0292F30E0ED
:104010002617370754F4DE01A20FB31F4C91255425
:104020003B4FD9014C939F5FF1CF1092BA0460933C
:10403000B904CB01DF91CF910994DF91CF9108951D
:10404000E0919304F0919404309729F01092970432
:104050001092960409940895CF93DF931F92CDB7E1
:10406000DEB76983209195042223F9F0209196040C
:10407000203258F021E030E0FC013383228390E0CD
:1040800080E00F90DF91CF91089580919704E82F01
:10409000F0E0E856FB4F998190838F5F80939704FF
:1040A0008093960481E090E0ECCF61E0CE01019630
:1040B0000E94F621F7CFCF92DF92EF92FF920F93FB
:1040C0001F93CF93DF937C01CB018A01209195044C
:1040D000222389F0EB016B01C40ED51ECC15DD0542
:1040E00069F06991D701ED91FC910190F081E02D8B
:1040F000C7010995F3CF642F0E94F621C801DF9113
:10410000CF911F910F91FF90EF90DF90CF90089586
:104110001092BA041092B904109297041092960467
:104120000E94352180E290E20E94222286EF9FE1E8
:104130000C941D22CB01BA010C94532181E0809391
:1041400095046093B8041092970410929604089511
:104150000F93062F21E04091960468E974E0809166
:10416000B8040E94A621109297041092960410920F
:1041700095040F9108954F925F926F927F92AF9244
:10418000BF92CF92EF92FF920F931F93CF93DF9343
:104190005C01F62ED42F28013901EE2019F10E947E
:1041A0009E20CE2DC43008F0C3E0C150B8F028E006
:1041B000C29FC0011124A301920104C056954795E6
:1041C000379527958A95D2F7B901D501ED91FC91E4
:1041D0000190F081E02DC5010995E7CF60E0C501B0
:1041E0000E94A8204D2FD13208F040E22C2D6BEB1D
:1041F00074E08F2D0E9466211092BA048093B90456
:10420000DF91CF911F910F91FF90EF90CF90BF90D2
:10421000AF907F906F905F904F900895CF92EF9204
:104220000F931F93C22EE12C00E010E098010E9432
:10423000BB201F910F91EF90CF90089521E00C9437
:104240000E2161E00C94A820E5E8F4E013821282CC
:1042500088EE93E0A0E0B0E084839583A683B783E3
:1042600082EE92E091838083089510922A0581E086
:10427000809328051092270561E082E10E94932730
:1042800061E083E10E949327E9EBF0E080818E7F7B
:10429000808380818D7F808388E48093B80085E46B
:1042A0008093BC0008959B01AC0160E074E284EF50
:1042B00090E00E94402E2051310941095109569544
:1042C0004795379527952093B80008954132E0F53A
:1042D00090912A059111FCCF91E090932A052093AB
:1042E00028052FEF2093DB047093220560932105AE
:1042F00010922005240F20931F059093290590917B
:104300002905880F892B8093290580912705813005
:10431000C9F410922705809129058093BB008091F4
:10432000BC0083FDF8CF85EC8093BC0080912A050A
:104330008130E1F380912005841710F4409120052D
:10434000842F089585EEF0CF40E0FACF0F934132ED
:1043500008F044C090912A059111FCCF92E090930F
:104360002A05009328059FEF9093DB0470932205A4
:10437000609321051092200540931F051092290596
:1043800090912905880F892B809329058091270515
:10439000813011F510922705809129058093BB008B
:1043A0008091BC0083FDF8CF85EC8093BC00222374
:1043B00021F080912A058230D1F38091DB048F3F78
:1043C00079F08091DB04803269F08091DB048033E6
:1043D00059F084E00F91089585EEE7CF81E0FACFA0
:1043E00080E0F8CF82E0F6CF83E0F4CF2091FD04A7
:1043F000260F3327331F21323105ECF420912A0593
:10440000FC0190E080E0243069F082E00895A09102
:10441000FD042191AC0141505B4FA40FB52FB11D9C
:104420002C930196861798F38091FD04680F609392
:10443000FD0480E0089581E0089590932405809321
:10444000230508959093260580932505089585ED0D
:104450008093BC008091BC0084FDFCCF10922A05A3
:10446000089585EC8093BC0010922A0508951F9250
:104470000F920FB60F9211242F933F934F935F9398
:104480006F937F938F939F93AF93BF93EF93FF931C
:104490008091B900887F803609F44CC008F03FC095
:1044A000883209F4A8C018F5803109F49CC0B8F42A
:1044B000882309F405C1883009F495C0FF91EF9174
:1044C000BF91AF919F918F917F916F915F914F912C
:1044D0003F912F910F900FBE0F901F90189588312C
:1044E00009F489C0803251F78093DB0415C0803411
:1044F00009F4A6C048F48033B9F38833F9F6809301
:10450000DB040E943122DACF803509F489C0883576
:1045100009F49EC0883491F60E942722CFCF8839B3
:1045200009F494C038F5883729F050F4883611F032
:10453000803721F683E080932A051092DC0457C06F
:10454000883809F483C0803919F0803809F0B6CF73
:104550008091DC04803208F079C0E091DC0481E0D5
:104560008E0F8093DC048091BB00F0E0E352FB4FA0
:1045700080833DC0803B39F0E0F4803A09F485C087
:10458000883A09F09BCF84E080932A051092FE04BC
:104590001092FD04E0912505F09126050995809182
:1045A000FD0481110FC081E08093FD041092FF048F
:1045B00009C0803C09F482C0883C09F47FC0883B74
:1045C00009F07CCFE091FE0481E08E0F8093FE0421
:1045D000F0E0E150FB4F80818093BB009091FE049E
:1045E0008091FD0431C0809129058093BB0085EC4A
:1045F0008093BC0063CF9091200580911F05981790
:10460000B8F58091210590912205E091200521E0E7
:104610002E0F20932005E80FF92FF11D8081E5CFA3
:104620002091210530912205E091200581E08E0F37
:10463000809320058091BB00E20FF32FF11D808352
:104640009091200580911F05981788F285E8D0CFBA
:104650002091210530912205E091200581E08E0F07
:10466000809320058091BB00E20FF32FF11D808322
:1046700080912805811150CF81E08093270584EA3D
:104680008093BC0010922A0519CF0E94312280919C
:10469000DC04803230F4E091DC04F0E0E352FB4FC4
:1046A00010826091DC0470E0E0912305F091240514
:1046B0008DED94E009951092DC0400CF85ECE0CFFD
:1046C0001092DB0429CFCF92DF92EF92FF92CF932B
:1046D000DF93EC016A017B012FE632E143E85AE304
:1046E000CB01B6010E94C52B87FD11C020E030E050
:1046F0004AE754E4C701B6010E944B2D18167CF41A
:10470000C12CD12C8AE7E82E84E4F82E08C09FE65D
:10471000C92E92E1D92E93E8E92E9AE3F92EC88AA0
:10472000D98AEA8AFB8ADF91CF91FF90EF90DF90E0
:10473000CF900895CF92DF92EF92FF92CF93DF93C5
:10474000EC016A017B0120E030E0A901CB01B60158
:104750000E944B2D181624F0F7FAF094F7F8F09415
:104760002BED3FE049EC50E4C701B6010E94582D03
:104770006C8B7D8B8E8B9F8BDF91CF91FF90EF9019
:10478000DF90CF9008958F929F92AF92BF92CF9279
:10479000DF92EF92FF920F931F93CF93DF93EC0181
:1047A0004A015B01B901A801C882D982EA82FB8271
:1047B0001C821D821E821F82188E0E946323B501F7
:1047C000A401CE010E949A230E948A26698F7A8FC3
:1047D0008B8F9C8FDF91CF911F910F91FF90EF9066
:1047E000DF90CF90BF90AF909F908F900895EF9201
:1047F000FF920F931F93CF93DF93EC01FB01CA014C
:10480000B901188EE882F9820A831B833097D1F4AC
:104810002AE037ED43EA5FE30E94582DAB01BC016B
:10482000CE010E949A238DE790EDA3E1BFE3888B30
:10483000998BAA8BBB8BDF91CF911F910F91FF902A
:10484000EF9008953197B9F7A901BC01CE010E94FC
:104850009A2381E894E0A5E3BFE3E9CF2F923F924A
:104860004F925F926F927F928F929F92AF92BF9280
:10487000CF92DF92EF92FF920F931F93CF93DF932C
:10488000CDB7DEB72A970FB6F894DEBF0FBECDBF07
:104890009A8789872A013B01DC011C964D925D9223
:1048A0006D927C921F970E948A266B017C01E9859C
:1048B000FA85818D928DA38DB48DA7019601281B59
:1048C000390B4A0B5B0BCA01B9010E94742C2DEB0A
:1048D00037E346E855E30E94582D4B015C01A9855A
:1048E000BA855996CD92DD92ED92FC925C975496E2
:1048F000CD90DD90ED90FC90579720E030E0A9013D
:104900000E94C52B87FDAFC0A701960160E070E053
:1049100080E89FE30E94CA2B162F072F382E292EDE
:10492000262F372F482F592FB401C5010E944B2D38
:10493000181624F0182D092D3A2C2B2CA7019601BE
:10494000C701B6010E94582D6D837E838F8398879F
:10495000E985FA8584809580A680B78020813181A1
:104960004281538129833A834B835C839B01AC0151
:10497000C301B2010E94582D2B013C01E985FA8543
:104980002089318942895389C701B6010E94CA2B07
:10499000A50194010E94582D9B01AC01C301B201F5
:1049A0000E94E62A6B017C012D813E814F81588552
:1049B00069817A818B819C810E94582D9B01AC0179
:1049C000C701B6010E94E62A212F302F432D522D18
:1049D0000E94582DA50194010E94E72A6B017C01D9
:1049E000AC019B01C501B4010E94E72A20E030E040
:1049F00040E05FE30E94582DA985BA8518966D9313
:104A00007D938D939C931B97212F302F432D522DF7
:104A10000E94582D29813A814B815C810E94E72AAE
:104A2000E985FA856083718382839383C482D5820A
:104A3000E682F7822A960FB6F894DEBF0FBECDBF8E
:104A4000DF91CF911F910F91FF90EF90DF90CF906A
:104A5000BF90AF909F908F907F906F905F904F909E
:104A60003F902F90089510E000E0312C212C66CF6C
:104A7000FC0160817181828193810895CF93DF93DE
:104A8000A0EBB0E02C91EC012887E1EBF0E0208175
:104A900029878081887F82608083C0E7D0E0888119
:104AA000816088838C918C7F8C938081877F8083C9
:104AB000DF91CF910895FC013FB7F8942091B200A7
:104AC000B89B0EC02091B20080819181A281B381F8
:104AD0000196A11DB11D80839183A283B383B89AEF
:104AE00080819181A281B381BA2FA92F982F882725
:104AF000820F911DA11DB11D84839583A683B78369
:104B00003FBF64817581868197810895FC01408152
:104B10005181628173814F5F5F4F6F4F7F4F408341
:104B200051836283738308951F920F920FB60F9281
:104B300011242F933F934F935F936F937F938F93A2
:104B40009F93AF93BF93EF93FF938BE295E00E9407
:104B50008625FF91EF91BF91AF919F918F917F91AA
:104B60006F915F914F913F912F910F900FBE0F90DA
:104B70001F901895EBE2F5E01082118212821382E9
:104B80001482158216821782089508958230E8F4FF
:104B9000E82FF0E0EE0FFF1FEA5EFE4F71836083A7
:104BA000813041F0809169008C7F482B40936900EF
:104BB000E89A089580916900837F440F551F440F40
:104BC000551F482B40936900E99A08951F920F9250
:104BD0000FB60F9211242F933F934F935F936F93D0
:104BE0007F938F939F93AF93BF93EF93FF93E09146
:104BF0001601F09117010995FF91EF91BF91AF91C7
:104C00009F918F917F916F915F914F913F912F91E4
:104C10000F900FBE0F901F9018951F920F920FB616
:104C20000F9211242F933F934F935F936F937F9332
:104C30008F939F93AF93BF93EF93FF93E0911801EE
:104C4000F09119010995FF91EF91BF91AF919F915B
:104C50008F917F916F915F914F913F912F910F9025
:104C60000FBE0F901F9018951F920F920FB60F92C4
:104C700011242F933F938F939F93AF93BF93809172
:104C80003A0590913B05A0913C05B0913D053091CE
:104C9000390523E0230F2D3768F126E8230F02960C
:104CA000A11DB11D2093390580933A0590933B05D2
:104CB000A0933C05B0933D05809135059091360554
:104CC000A0913705B09138050196A11DB11D8093C3
:104CD000350590933605A0933705B0933805BF91FD
:104CE000AF919F918F913F912F910F900FBE0F9099
:104CF0001F9018950196A11DB11DD4CF2FB7F89420
:104D000060913A0570913B0580913C0590913D057D
:104D10002FBF08953FB7F8948091350590913605DF
:104D2000A0913705B091380526B5A89B05C02F3F47
:104D300019F00196A11DB11D3FBFBA2FA92F982FC1
:104D40008827BC01CD01620F711D811D911D42E0BC
:104D5000660F771F881F991F4A95D1F708958F9284
:104D60009F92AF92BF92CF92DF92EF92FF926B0130
:104D70007C010E948A264B015C01C114D104E1042C
:104D8000F104E9F00E94E52A0E948A26681979094F
:104D90008A099B09683E73408105910570F321E003
:104DA000C21AD108E108F10888EE880E83E0981E47
:104DB000A11CB11CC114D104E104F10429F7FF9036
:104DC000EF90DF90CF90BF90AF909F908F9008951D
:104DD000789484B5836084BD85B5836085BDEEE637
:104DE000F0E0808181608083E1E8F0E082E0808310
:104DF000808181608083E0E8F0E080818160808351
:104E0000E1EBF0E0808184608083E0EBF0E0808182
:104E10008160808387E880937A001092C1000895B2
:104E2000883020F08D3008F48DE08E5020911A01EA
:104E300090E4299F900111248770822B80937C003D
:104E400080917A00806480937A0080917A0086FD58
:104E5000FCCF80917800909179000895843081F0A2
:104E600028F48230E9F08330F9F00895883071F049
:104E7000893091F08530B9F4809180008F7D03C036
:104E8000809180008F778093800008958091B0009A
:104E90008F778093B00008958091B0008F7DF9CF17
:104EA00084B58F7784BD089584B58F7DFBCFCF9374
:104EB000DF9390E0FC01EA5CF74F2491835B974F0E
:104EC000FC0184918823C9F090E0880F991FFC01B0
:104ED000E858F74FA591B491FC01E259F74FC591FD
:104EE000D49161110DC09FB7F8948C9120958223C5
:104EF0008C938881282328839FBFDF91CF910895C9
:104F0000623051F49FB7F8943C91822F80958323AF
:104F10008C93E8812E2BEFCF8FB7F894EC912E2B4A
:104F20002C938FBFEACF1F93CF93DF93282F30E0CE
:104F3000F901E15EF74F8491F901EA5CF74FD491F2
:104F4000F901E35BF74FC491CC23A9F0162F81112F
:104F50000E942E27EC2FF0E0EE0FFF1FE259F74FD3
:104F6000A591B4918FB7F894EC91111108C0D09528
:104F7000DE23DC938FBFDF91CF911F910895DE2B4D
:104F8000F8CFCF93DF93282F30E0F901E15EF74FA0
:104F90008491F901EA5CF74FD491F901E35BF74F93
:104FA000C491CC23A1F081110E942E27EC2FF0E0B8
:104FB000EE0FFF1FEC59F74FA591B491EC91ED2343
:104FC00081E090E009F480E0DF91CF91089580E0E6
:104FD00090E0FACFFC01918D228D892F90E0805CCA
:104FE0009F4F821B91098F7399270895FC01918D22
:104FF000828D981731F0828DE80FF11D858D90E03C
:1050000008958FEF9FEF0895FC01918D828D981781
:1050100061F0A28DAE0FBF2FB11D5D968C91928D68
:105020009F5F9F73928F90E008958FEF9FEF089599
:10503000FC01538D448D252F30E0842F90E0821B9E
:10504000930B541710F0CF9608950197089584E7B5
:1050500099E2892B49F080E090E0892B29F00E94A9
:10506000742981110C9400000895FC01A48DA80FEF
:10507000B92FB11DA35ABF4F2C91848D90E001969A
:105080008F739927848FA689B7892C93A089B189BA
:105090008C91837080648C93938D848D981306C05B
:1050A0000288F389E02D80818F7D80830895CF93DE
:1050B000DF93EC01888D8823B9F0AA89BB89E88940
:1050C000F9898C9185FD03C0808186FD0DC00FB6E6
:1050D00007FCF7CF8C9185FFF2CF808185FFEDCF64
:1050E000CE010E943528E9CFDF91CF910895EF924C
:1050F000FF920F931F93CF93DF93EC0181E0888F92
:105100009B8D8C8D98131AC0E889F989808185FF61
:1051100015C09FB7F894EE89FF896083E889F98903
:1051200080818370806480839FBF81E090E0DF9105
:10513000CF911F910F91FF90EF900895F62E0B8D58
:1051400010E00F5F1F4F0F731127E02E8C8D8E1113
:105150000CC00FB607FCFACFE889F989808185FF7A
:10516000F5CFCE010E943528F1CFEB8DEC0FFD2F4E
:10517000F11DE35AFF4FF0829FB7F8940B8FEA8935
:10518000FB8980818062CFCFCF92DF92EF92FF9236
:105190001F93CF93DF93EC016A017B01122FE88903
:1051A000F98982E08083C11481EED806E104F1041C
:1051B000A1F060E079E08DE390E0A70196010E9404
:1051C000402E21503109410951095695479537958F
:1051D0002795211580E1380798F0E889F989108230
:1051E00060E874E88EE190E0A70196010E94402EED
:1051F0002150310941095109569547953795279511
:10520000EC85FD853083EE85FF852083188EEC8943
:10521000FD891083EA89FB89808188698083EA8916
:10522000FB8980818F7D8083DF91CF911F91FF90DB
:10523000EF90DF90CF9008951F920F920FB60F92CC
:1052400011242F938F939F93EF93FF93E0914E053B
:10525000F0914F058081E0915405F091550582FD54
:105260001BC09081809157058F5F8F7320915805E7
:10527000821741F0E0915705F0E0E25CFA4F958F1C
:1052800080935705FF91EF919F918F912F910F90F0
:105290000FBE0F901F9018958081F4CF1F920F9230
:1052A0000FB60F9211242F933F934F935F936F93F9
:1052B0007F938F939F93AF93BF93EF93FF938EE36F
:1052C00095E00E943528FF91EF91BF91AF919F919A
:1052D0008F917F916F915F914F913F912F910F909F
:1052E0000FBE0F901F9018958EE395E00E94EA275D
:1052F00021E0892B09F420E0822F0895EEE3F5E008
:105300001382128288EE93E0A0E0B0E0848395835C
:10531000A683B78384EF92E09183808385EC90E04D
:105320009587848784EC90E09787868780EC90E06F
:10533000918B808B81EC90E0938B828B82EC90E060
:10534000958B848B86EC90E0978B868B118E128EDA
:10535000138E148E0895AF92BF92CF92DF92EF9288
:10536000FF920F931F93CF93DF936C017B018B010F
:10537000040F151FEB015E01AE18BF08C017D1075F
:1053800059F06991D601ED91FC910190F081E02DE9
:10539000C6010995892B79F7C501DF91CF911F913E
:1053A0000F91FF90EF90DF90CF90BF90AF90089556
:1053B000FB0101900020E9F73197AF01461B570B25
:1053C000DC01ED91FC910280F381E02D09946115DF
:1053D000710511F00C94D82990E080E0089562E006
:1053E00073E00C94D8290F931F93CF93DF938C0114
:1053F000D0E0C0E06115710519F00E94D829EC01D8
:10540000C8010E94EF298C0F9D1FDF91CF911F9142
:105410000F9108958F929F92AF92BF92EF92FF9259
:105420000F931F93CF93DF93CDB7DEB7A1970FB63E
:10543000F894DEBF0FBECDBF7C01FA01CB0119A2EB
:10544000223008F42AE08E010F5D1F4F822E912C2E
:10545000B12CA12CBF01A50194010E94402EF9019D
:10546000CA016A300CF5605DD8016E938D01232B63
:10547000242B252B79F790E080E0109721F0BD01D7
:10548000C7010E94D829A1960FB6F894DEBF0FBEBF
:10549000CDBFDF91CF911F910F91FF90EF90BF9003
:1054A000AF909F908F900895695CDECF21153105F4
:1054B00041F4DC01ED91FC910190F081E02D642F2D
:1054C00009940C940A2A9A01462F50E070E060E09B
:1054D0000C94562A0F931F93CF93DF93EC010E94F5
:1054E000632A8C01CE010E94EF29800F911FDF916A
:1054F000CF911F910F9108950F931F93CF93DF9337
:10550000EC010E94562A8C01CE010E94EF29800FE7
:10551000911FDF91CF911F910F9108954F925F924C
:105520006F927F92AF92BF92CF92DF92EF92FF92F3
:105530000F931F93CF93DF93CDB7DEB729013A01C5
:105540009B01AC01241935094609570989899A89B3
:10555000AB89BC89BC01CD016A197B098C099D0905
:105560000E94242EA80197012419350946095709DC
:105570000E94622ECA01B9016A0D7B1D8C1D9D1D02
:10558000DF91CF911F910F91FF90EF90DF90CF901F
:10559000BF90AF907F906F905F904F900895089567
:1055A0000E94E8260E94CF2A0E94F209C7E2D8E2B0
:1055B0000E94810C2097E1F30E942728F9CF0097E1
:1055C00011F481E090E00C94A12E08955058BB276F
:1055D000AA270E94FE2A0C94112D0E94032D38F058
:1055E0000E940A2D20F039F49F3F19F426F40C9400
:1055F000D92C0EF4E095E7FB0C94D32CE92F0E94F4
:10560000222D58F3BA17620773078407950720F015
:1056100079F4A6F50C94442D0EF4E0950B2EBA2FD8
:10562000A02D0B01B90190010C01CA01A0011124A8
:10563000FF27591B99F0593F50F4503E68F11A1654
:10564000F040A22F232F342F4427585FF3CF4695E5
:1056500037952795A795F0405395C9F77EF41F1607
:10566000BA0B620B730B840BBAF09150A1F0FF0FD1
:10567000BB1F661F771F881FC2F70EC0BA0F621FBD
:10568000731F841F48F4879577956795B795F795AD
:105690009E3F08F0B0CF9395880F08F09927EE0F42
:1056A0009795879508950E94032D60F080E891E01A
:1056B00009F49EEF0E940A2D28F040E851E071F4B1
:1056C0005EEF0CC00C94D92C0C94442DE92FE0789B
:1056D0000E94222D40F3092E052AB1F32617370721
:1056E0004807590738F00E2E07F8E02569F0E02545
:1056F000E0640AC0EF6307F8009407FADB01B90120
:105700009D01DC01CA01AD01EF930E94E12B0E94D3
:10571000112D0E94962B5F91552339F02BED3FE020
:1057200049E450FD49EC0C94E72A0895DF93DD2706
:10573000B92FBF7740E85FE31616170648075B07E7
:1057400018F4D92F0E94502D9F938F937F936F93BE
:105750000E940B2EE8E6F0E00E94DC2C0E94112D46
:105760002F913F914F915F910E946B2DDD2351F05E
:105770009058A2EA2AED3FE049EC5FE3D0785D273C
:105780000E94FE2ADF910C94112D0E94AF2C08F488
:1057900081E008950E94DE2B0C94112D0E940A2DA9
:1057A00058F00E94032D40F029F45F3F29F00C943B
:1057B000D32C51110C94452D0C94D92C0E94222DE0
:1057C00068F39923B1F3552391F3951B550BBB2730
:1057D000AA2762177307840738F09F5F5F4F220F75
:1057E000331F441FAA1FA9F335D00E2E3AF0E0E86C
:1057F00032D091505040E695001CCAF72BD0FE2FB6
:1058000029D0660F771F881FBB1F26173707480749
:10581000AB07B0E809F0BB0B802DBF01FF27935801
:105820005F4F3AF09E3F510578F00C94D32C0C94C6
:10583000452D5F3FE4F3983ED4F3869577956795C1
:10584000B795F7959F5FC9F7880F911D9695879536
:1058500097F90895E1E0660F771F881FBB1F621755
:1058600073078407BA0720F0621B730B840BBA0B13
:10587000EE1F88F7E09508950E94432C6894B111BB
:105880000C94452D08950E942A2D88F09F5798F07A
:10589000B92F9927B751B0F0E1F0660F771F881F35
:1058A000991F1AF0BA95C9F714C0B13091F00E944F
:1058B000442DB1E008950C94442D672F782F88274C
:1058C000B85F39F0B93FCCF3869577956795B39576
:1058D000D9F73EF490958095709561957F4F8F4FE5
:1058E0009F4F0895E89409C097FB3EF490958095EA
:1058F000709561957F4F8F4F9F4F9923A9F0F92F96
:1059000096E9BB279395F695879577956795B79513
:10591000F111F8CFFAF4BB0F11F460FF1BC06F5FF9
:105920007F4F8F4F9F4F16C0882311F096E911C00B
:10593000772321F09EE8872F762F05C0662371F02C
:1059400096E8862F70E060E02AF09A95660F771F40
:10595000881FDAF7880F9695879597F90895990F1C
:105960000008550FAA0BE0E8FEEF16161706E80729
:10597000F907C0F012161306E407F50798F0621B4A
:10598000730B840B950B39F40A2661F0232B242B1F
:10599000252B21F408950A2609F4A140A6958FEF3E
:1059A000811D811D089597F99F6780E870E060E090
:1059B00008959FEF80EC0895DF93CF931F930F938B
:1059C000FF92EF92DF927B018C01689406C0DA2E81
:1059D000EF010E946B2DFE01E894A5912591359170
:1059E00045915591A6F3EF010E94FE2AFE01970111
:1059F000A801DA9469F7DF90EF90FF900F911F9163
:105A0000CF91DF91089500240A9416161706180600
:105A10000906089500240A941216130614060506B2
:105A20000895092E0394000C11F4882352F0BB0F43
:105A300040F4BF2B11F460FF04C06F5F7F4F8F4FA6
:105A40009F4F089557FD9058440F551F59F05F3FE1
:105A500071F04795880F97FB991F61F09F3F79F090
:105A600087950895121613061406551FF2CF469512
:105A7000F1DF08C0161617061806991FF1CF869594
:105A80007105610508940895E894BB276627772778
:105A9000CB0197F908950E94AF2C08F48FEF089579
:105AA0009B01AC0160E070E080E89FE30C94CA2B9E
:105AB0000E946B2D0C94112D0E94032D38F00E9432
:105AC0000A2D20F0952311F00C94D32C0C94D92C92
:105AD00011240C94452D0E94222D70F3959FC1F343
