:100000000C94B1050C940D170C94E6160C94691918
:100010000C943C190C940F190C94D9050C94D90527
:100020000C94D9050C94D9050C94D9050C9453184B
:100030000C94D9050C94D9050C94D9050C94D905C8
:100040000C949C160C94D9050C946A160C944416C6
:100050000C94D9050C94D9050C94D9050C94D905A8
:100060000C9434170C94D905084AD73B3BCE016E4B
:1000700084BCBFFDC12F3D6C74319ABD56833DDAFF
:100080003D00C77F11BED9E4BB4C3E916BAAAABE0E
:10009000000000803F0000407A10F35A00A0724E2A
:1000A00018090010A5D4E80000E87648170000E41D
:1000B0000B54020000CA9A3B000000E1F505000065
:1000C00080969800000040420F000000A0860100CA
:1000D0000000102700000000E8030000000064009A
:1000E000000000000A000000000001000000000005
:1000F0002C76D888DC674F0823DFC1DFAE59E1B129
:10010000B796E5E3E453C63AE651997696E8E6C237
:100110008426EB898C9B62ED407C6FFCEFBC9C9F3E
:1001200040F2BAA56FA5F490055A2AF75C936B6C60
:10013000F9676DC11BFCE0E40D47FEF520E6B50054
:10014000D0ED902E0300943577050080841E0800C2
:1001500000204E0A000000C80C333333330F986E72
:1001600012831141EF8D2114893BE65516CFFEE62F
:10017000DB18D1844B381BF77C1D901DA4BBE424F5
:10018000203284725E228100C9F124ECA1E53D2772
:1001900000000000240027002A00000000002500C5
:1001A00028002B00FB00003E000B0036000100027F
:1001B0000003000000650054FFEF0000FA80000B10
:1001C0001282000100020000000000000000000098
:1001D0000000000000280000FFFF4581FFFFFA72C9
:1001E00000000000000003E80000000100017FFFA4
:1001F000FFFE8001001B0000000000000000000066
:1002000000000000004000004000000002CB47A2B8
:10021000200000002000000000000000400000005E
:100220006000000041FF000000000B2A000016558E
:1002300000002182FD872650FD800000001F000085
:100240000005800000000000000100000002000026
:1002500000030000400000000000046F000265324F
:1002600000005EC040000000000000000000000030
:1002700000000000FB8C6F5DFD5D08D9007C733BC6
:10028000006C12CC3200139D3200D0D63200080030
:10029000400001F4FFE68079020000000000D0D6A3
:1002A00000002710FB0000004000000000000000DC
:1002B000000000000000000100000000000001003C
:1002C000010000000000FA36FFBC308E0005FBF094
:1002D000FFD95BC8FFD09ABE000010A9FFF41EB280
:1002E00000CEBBF700000001000000040002000285
:1002F0000200000CFFC280000001800000CF8000DF
:1003000040000000000000000000000000000600A7
:1003100000000014000000000000000000000000C9
:1003200000000000000000000000000000000000CD
:10033000000000000923A1350000000000000000BB
:100340000000000000000000033F68B6793528BCBB
:10035000C67ED16C8000FFFF400000000000B26A42
:1003600000000000000000000000000000003FF05E
:10037000000000300000000000000000000000004D
:10038000000000000000000000000000000000006D
:10039000000040000000254D002F706D000005AEEC
:1003A000000C02D00000000000650054FFEF0000C8
:1003B00000000000000001000044000100058BC1A6
:1003C0000000010000000000006500000054000073
:1003D000FFEF00000000000000000000000000002F
:1003E000000000000000000000000000000000000D
:1003F00000000000000000000000000000000000FD
:1004000000000000000000010000000200000000E9
:1004100000000000000000000000000000000000DC
:1004200000000000000000000000000000000000CC
:1004300000000000001B00000000000000000000A1
:1004400000000000000000000000000000000000AC
:10045000000000000000000000000000000000009C
:1004600000000000001B0000000000000000000071
:10047000000000000000000000000000000000007C
:10048000000000000000000000000000000000006C
:10049000000000000000000000000000000000005C
:1004A00000000000D8DCBAA2F1DEB2B8B4A8819195
:1004B000F74A907F916AF3F9DBA8F9B0BAA080F20D
:1004C000CE81F3C2F1C1F2C3F3CCA2B280F1C6D89F
:1004D00080BAA7DFDFDFF2A7C3CBC5B6F087A2944F
:1004E0002448703C95406834589B78A2F183922D43
:1004F000557DD8B1B4B8A1D09180F270F370F27C80
:1005000080A8F101B09887D943D886C988BAA1F2EA
:100510000EB89780F1A9DFDFDFAADFDFDFF2AA4C98
:10052000CD6CA90CC92C97979797F1A98926466697
:10053000B0B4BA80ACDEF2CAF1B28C02A9B69800AF
:10054000890E161EB8A9B4992C547CB08AA8963688
:100550005676F1B9AFB4B083C0B8A89711B18F98EF
:10056000B9AFF0240844106418F1A329557DAF8376
:10057000B593AFF0002850F1A3869F61A6DADEDFC5
:10058000D9FAA38696DB31A6D9F8DFBAA68FC2C501
:10059000C7B28CC1B8A2DFDFDFA3DFDFDFD8D8F1BD
:1005A000B8A8B286B4980D355DB8AA98B0872D3535
:1005B0003DB2B6BAAF8C96198F9FA70E161EB49A8D
:1005C000B8AA872C547CB9A3DEDFDFA3B180F2C4C4
:1005D000CDC9F1B8A9B499830D355D89B9A32D555D
:1005E0007DB593A30E161EA92C547CB8B4B0F19718
:1005F00083A81184A50998A383F0DA240844106421
:1006000018D8F1A529557DA58595021A2E3A565A76
:100610004048F9F3A3D9F8F09883240844106418EB
:100620009782A8F111F098A2240844106418DAF314
:10063000DED883A59401D9A302F1A2C3C5C7D8F11E
:100640008492A24DDA2AD84869D92AD86855DA3274
:10065000D85071D932D8705DDA3AD85879D93AD8A9
:100660007893A34DDA2AD84869D92AD86855DA325E
:10067000D85071D932D8705DDA3AD85879D93AD889
:1006800078A88A9AF02850789EF38818F19F1D98D0
:10069000A8D908D8C89F129EF315A8DA1210D8F16D
:1006A000AFC8978734B5B994A421F3D922D8F22DD5
:1006B000F3D92AD8F235F3D932D881A4606061D950
:1006C00061D86C6869D969D8747071D971D8B1A3CF
:1006D00084193D5DA3831A3E5E931030811011B8DA
:1006E000B0AF8F94F2DA3ED8B49AA88729DAF8D856
:1006F000879A35DAF8D8879A3DDAF8D8B1B9A4984C
:1007000085022E56A581000C14A397B08AF12DD92D
:1007100028D84DD948D86DD968D8B1840DDA0ED80B
:10072000A32983DA2C0ED8A3844983DA2C4C0ED863
:10073000B8B0A88A9AF520AADADFD8A840AAD0DAF9
:10074000DED8A860AADAD0DFD8F19786A8319B0658
:100750009907AB9728889BF00C201440B8B0B4A838
:100760008C9CF0042851791D301438B282ABD0989B
:100770002C505078789BF11AB0F08A9CA8295179B6
:100780008B2951798A2470598B2058718A44693891
:100790008B3940688A6448318B304960A5882009CC
:1007A00071584468113964493019F1AC002C547CFB
:1007B000F08CA804285078F1889726A85998AC8C1A
:1007C00002264666F0899CA829517924705944690B
:1007D00038644831A98809205970AB11384069A89C
:1007E000193148608CA83C415C207C00F187981945
:1007F00086A86E767EA999882D557D9EB9A38A22FA
:100800008A6E8A568A5E9FB183062646660E2E4EF3
:100810006E9DB8AD002C547CF2B18CB499B9A32D67
:10082000557D8191AC38AD3AB58391AC2DD928D89E
:100830004DD948D86DD968D88C9DAE29D904AED889
:1008400051D904AED879D904D881F39DAD008DAECD
:100850001981ADD901D8F2AEDA26D88E912983A7B5
:10086000D9ADADADADF32AD8D8F1B0AC89913E5E2B
:1008700076F3AC2E2EF1B18C5A9CAC2C2828289CF7
:10088000AC3018A8988128343C9724A728343C9C85
:1008900024F2B089AC912C4C6C8A9B2DD9D8D851BC
:1008A000D9D8D879D9D8D8F19E88A331DAD8D891B7
:1008B0002DD928D84DD948D86DD968D8B18393356A
:1008C0003D8025DAD8D88569DAD8D8B49381A328B1
:1008D000343CF3AB8BF8A391B609B4D9ABDEFAB0D4
:1008E000879CB9A3DDF1202830389AF12830389D53
:1008F000F1A3A3A3A3F2A3B49080F2A3A3A3A3A301
:10090000A3A3A3A3A3B2A3A3A3A3A3A3B087B599AF
:10091000F128303898F1A3A3A3A397A3A3A3A3F32B
:100920009BA330DCB9A7F1262626FED8FF526573BB
:10093000657474696E67206D656D6F727920626190
:100940006E6B2073656C656374696F6E20746F20C5
:10095000302E2E2E005265766973696F6E2040200E
:10096000757365725B31365D5B365D203D200043FB
:100970006865636B696E6720686172647761726530
:10098000207265766973696F6E2E2E2E000A002024
:1009900000002C2020002000002C2020002000003F
:1009A0002C2020002000002C2020002000002C20E3
:1009B00020002000000A2F2F20202020202020208F
:1009C0002020205820416363656C2020592041631A
:1009D00063656C20205A20416363656C2020205899
:1009E000204779726F20202059204779726F20208C
:1009F000205A204779726F0A2F2F4F46465345548D
:100A000053202020002900444D5020496E6974690C
:100A1000616C697A6174696F6E206661696C656486
:100A20002028636F64652000444D50207265616426
:100A300079212057616974696E6720666F7220663C
:100A40006972737420696E746572727570742E2E7B
:100A50002E00292E2E2E00456E61626C696E672075
:100A6000696E746572727570742064657465637400
:100A7000696F6E202841726475696E6F20657874A5
:100A800065726E616C20696E746572727570742027
:100A900000456E61626C696E6720444D502E2E2EAB
:100AA000004D50553630353020636F6E6E6563747F
:100AB000696F6E206661696C6564004D5055363013
:100AC000353020636F6E6E656374696F6E20737569
:100AD000636365737366756C00496E697469616CF4
:100AE000697A696E6720444D502E2E2E005465732E
:100AF00074696E672064657669636520636F6E6EE6
:100B0000656374696F6E732E2E2E004649464F2022
:100B10006F766572666C6F77210004040404040428
:100B2000040402020202020203030303030301029C
:100B3000040810204080010204081020010204086B
:100B4000102000000008000201000003040700005C
:100B50000000000000000000000023002600290023
:100B6000B11911241FBECFEFD8E0DEBFCDBF12E018
:100B7000A0E0B1E0E0E0F3E602C005900D92A03203
:100B8000B107D9F724E0A0E2B2E001C01D92A53F71
:100B9000B207E1F715E0C1EBD5E004C02197FE01F3
:100BA0000E944630C03BD107C9F70E94B31A0C948B
:100BB0007E310C94000081E08093360308950895FF
:100BC0000895AF92BF92CF92DF92EF92FF920F9370
:100BD0001F93CF93DF936C017B018B01040F151FD3
:100BE000EB015E01AE18BF08C017D10759F069913B
:100BF000D601ED91FC910190F081E02DC60109959F
:100C0000892B79F7C501DF91CF911F910F91FF904B
:100C1000EF90DF90CF90BF90AF900895FC01538D7F
:100C2000448D252F30E0842F90E0821B930B5417C6
:100C300010F0CF96089501970895FC01918D828D53
:100C4000981761F0A28DAE0FBF2FB11D5D968C91EC
:100C5000928D9F5F9F73928F90E008958FEF9FEF2B
:100C60000895FC01918D828D981731F0828DE80FE7
:100C7000F11D858D90E008958FEF9FEF0895FC01A1
:100C8000918D228D892F90E0805C9F4F821B91096E
:100C90008F73992708958CEA93E00E943F0621E024
:100CA000892B09F420E0822F089580E090E0892BC1
:100CB00029F00E944B0681110C9400000895FC015C
:100CC000A48DA80FB92FB11DA35ABF4F2C91848DAD
:100CD00090E001968F739927848FA689B7892C930A
:100CE000A089B1898C91837080648C93938D848D5D
:100CF000981306C00288F389E02D80818F7D808360
:100D00000895EF92FF920F931F93CF93DF93EC011F
:100D100081E0888F9B8D8C8D98131AC0E889F989A2
:100D2000808185FF15C09FB7F894EE89FF896083A5
:100D3000E889F98980818370806480839FBF81E026
:100D400090E0DF91CF911F910F91FF90EF90089568
:100D5000F62E0B8D10E00F5F1F4F0F731127E02E43
:100D60008C8D8E110CC00FB607FCFACFE889F9897B
:100D7000808185FFF5CFCE010E945F06F1CFEB8D1C
:100D8000EC0FFD2FF11DE35AFF4FF0829FB7F8944F
:100D90000B8FEA89FB8980818062CFCF0F931F93ED
:100DA000CF93DF938C01D0E0C0E0F801EC0FFD1F82
:100DB0006491662341F08CEA93E00E948106892BBE
:100DC00011F02196F2CFCE01DF91CF911F910F91BB
:100DD0000895CF93DF93EC01888D8823B9F0AA8919
:100DE000BB89E889F9898C9185FD03C0808186FDE6
:100DF0000DC00FB607FCF7CF8C9185FFF2CF808135
:100E000085FFEDCFCE010E945F06E9CFDF91CF9144
:100E10000895833081F028F4813099F08230A9F070
:100E200008958730A9F08830C9F08430B1F48091FA
:100E300080008F7D03C0809180008F778093800039
:100E4000089584B58F7784BD089584B58F7DFBCFD9
:100E50008091B0008F778093B00008958091B000AA
:100E60008F7DF9CFCF93DF93EEE4FBE08491EAE34B
:100E7000FBE0D491E6E2FBE0C491CC23A1F0811128
:100E80000E940907EC2FF0E0EE0FFF1FEA5AF44F23
:100E9000A591B491EC91ED2381E090E009F480E01C
:100EA000DF91CF91089580E090E0FACF1F93CF9328
:100EB000DF93282F30E0F901EE5BF44F8491F901C4
:100EC000E25DF44FD491F901E65EF44FC491CC2376
:100ED000A9F0162F81110E940907EC2FF0E0EE0F08
:100EE000FF1FE656FE4FA591B4918FB7F894EC9191
:100EF000111108C0D095DE23DC938FBFDF91CF9115
:100F00001F910895DE2BF8CFCF93DF9390E0FC0183
:100F1000E25DF44F2491865E944FFC018491882316
:100F2000C9F090E0880F991FFC01E057FE4FA59192
:100F3000B491FC01E656FE4FC591D49161110DC0EC
:100F40009FB7F8948C91209582238C9388812823D5
:100F500028839FBFDF91CF910895623051F49FB7EE
:100F6000F8943C91822F809583238C93E8812E2BDB
:100F7000EFCF8FB7F894EC912E2B2C938FBFEACF45
:100F80008E50806480937C0080917A00806480938E
:100F90007A0080917A0086FDFCCF80917800909154
:100FA000790008953FB7F8948091A0029091A10232
:100FB000A091A202B091A30226B5A89B05C02F3F25
:100FC00019F00196A11DB11D3FBFBA2FA92F982F6F
:100FD0008827BC01CD01620F711D811D911D42E06A
:100FE000660F771F881F991F4A95D1F708958F9232
:100FF0009F92AF92BF92CF92DF92EF92FF924B01FE
:101000005C010E94D2076B017C010E94D2076C191F
:101010007D098E099F09683E734081059105A8F3FB
:1010200021E0821A9108A108B10888EEC80E83E079
:10103000D81EE11CF11C81149104A104B10429F70C
:10104000FF90EF90DF90CF90BF90AF909F908F90E8
:1010500008952FB7F89460919C0270919D02809141
:101060009E0290919F022FBF089508952F923F9264
:101070004F925F926F927F928F929F92AF92BF92A8
:10108000CF92DF92EF92FF920F931F93CF93DF9354
:10109000CDB7DEB72A970FB6F894DEBF0FBECDBF2F
:1010A0009A8789872A013B01DC011C964D925D924B
:1010B0006D927C921F970E94D2076B017C01E9859B
:1010C000FA85818D928DA38DB48DA7019601281B81
:1010D000390B4A0B5B0BCA01B9010E94852E2DEB1F
:1010E00037E346E855E30E94692F162F072F382E65
:1010F000292EA985BA855996CD92DD92ED92FC9262
:101100005C9720E030E0A9010E94D62D87FDB5C094
:10111000E985FA85248935894689578960E070E038
:1011200080E89FE30E94DB2D6B017C01212F302F93
:10113000432D522D0E94D62D87FF04C01C2D0D2D4E
:101140003E2C2F2CA985BA855496CD90DD90ED903C
:10115000FC905797A7019601C701B6010E94692F1D
:101160006D837E838F839887E985FA858480958057
:10117000A680B780208131814281538129833A83BF
:101180004B835C83A30192010E94692F2B013C01D8
:10119000E985FA852089318942895389C701B601D9
:1011A0000E94DB2DA50194010E94692F9B01AC01D7
:1011B000C301B2010E94F72C6B017C0129813A81A5
:1011C0004B815C816D817E818F8198850E94692F22
:1011D0009B01AC01C701B6010E94F72C212F302FD3
:1011E000432D522D0E94692FA50194010E94F82CD5
:1011F0006B017C01AC019B01C501B4010E94F82C7C
:1012000020E030E040E05FE30E94692FA985BA85C5
:1012100018966D937D938D939C931B97212F302F60
:10122000432D522D0E94692F29813A814B815C8187
:101230000E94F82CE985FA85608371838283938309
:10124000C482D582E682F7822A960FB6F894DEBF72
:101250000FBECDBFDF91CF911F910F91FF90EF9007
:10126000DF90CF90BF90AF909F908F907F906F90C6
:101270005F904F903F902F90089510E000E0312C48
:10128000212C60CF20917802260F3327331F213283
:101290003105ECF42091A603FC0190E080E02430BD
:1012A00069F082E00895A09178022191AC01485A3A
:1012B0005D4FA40FB52FB11D2C930196861798F39F
:1012C00080917802680F6093780280E0089581E051
:1012D00008951092A60381E0809385031092800305
:1012E00061E082E10E94560761E083E10E945607B7
:1012F000E9EBF0E080818E7F808380818D7F808329
:1013000088E48093B80085E48093BC000895CF936F
:10131000DF9391E0909357028823B9F0C091B80011
:10132000D091BA008091BC008A7B8093BC0060E0C1
:1013300082E10E94560760E083E10E9456070E9406
:101340006909D093BA00C093B800DF91CF91089596
:10135000CF92DF92EF92FF920F931F93CF93DF9381
:10136000D82FC62F613208F098C00E94D2076B01B7
:101370007C018091A60381116BC081E08093A6035C
:10138000809385039FEF90938403109283039C0FB7
:10139000909382038093810380918103DD0FD82B8A
:1013A000D093810380918003813009F078C010923E
:1013B00080030E94D2076B017C018091810380939E
:1013C000BB008091A8039091A903A091AA03B091BA
:1013D000AB03892B8A2B8B2BA1F00E94D2070091A3
:1013E000A8031091A9032091AA033091AB036C19B3
:1013F0007D098E099F09061717072807390708F482
:1014000048C08091BC0083FDD8CF85EC8093BC00A0
:101410000E94D2076B017C018091A603813009F400
:1014200040C0809183038C1710F4C0918303E0E6E1
:10143000F3E0A6E8B3E080E08C1355C08C2FDF9179
:10144000CF911F910F91FF90EF90DF90CF90089573
:101450008091A8039091A903A091AA03B091AB0336
:10146000892B8A2B8B2B09F484CF0E94D207009101
:10147000A8031091A9032091AA033091AB036C1922
:101480007D098E099F09061717072807390708F0F5
:1014900070CF8091A7030E948709C0E0CFCF85EE6F
:1014A000B5CF8091A8039091A903A091AA03B09110
:1014B000AB03892B8A2B8B2B09F4AECF0E94D2076A
:1014C0000091A8031091A9032091AA033091AB03C6
:1014D0006C197D098E099F09061717072807390718
:1014E00008F09ACFD6CF91919D938F5FA5CFCF92E1
:1014F000DF92EF92FF920F931F93CF93DF93D091E0
:101500005F0381E0D13208F09CC0C0915E030E946D
:10151000D2076B017C018091A60381116CC082E02F
:101520008093A60381E0809385038FEF80938403EB
:1015300010928303D0938203AEE3B3E0E0E6F3E0DE
:1015400080E0D8138DC01092810380918103CC0F6D
:10155000C82BC093810380918003813009F084C03F
:10156000109280030E94D2076B017C01809181035D
:101570008093BB008091A8039091A903A091AA0336
:10158000B091AB03892B8A2B8B2BA1F00E94D20741
:101590000091A8031091A9032091AA033091AB03F5
:1015A0006C197D098E099F09061717072807390747
:1015B00008F442C08091BC0083FDD8CF85EC8093B5
:1015C000BC000E94D2076B017C018091A60382308F
:1015D00009F44CC0809184038F3F09F469C0809165
:1015E0008403803209F466C080918403803309F457
:1015F00063C084E026C08091A8039091A903A091C4
:10160000AA03B091AB03892B8A2B8B2B09F483CFD0
:101610000E94D2070091A8031091A9032091AA0368
:101620003091AB036C197D098E099F0906171707C6
:101630002807390708F06FCF8091A7030E94870918
:1016400085E010923D0310925F0310923C03DF91FE
:10165000CF911F910F91FF90EF90DF90CF90089561
:101660009D9191938F5F6DCF85EEA9CF8091A80357
:101670009091A903A091AA03B091AB03892B8A2B67
:101680008B2B09F4A2CF0E94D2070091A8031091DE
:10169000A9032091AA033091AB036C197D098E092F
:1016A0009F09061717072807390708F08ECFC4CF00
:1016B00080E0C7CF82E0C5CF83E0C3CF0895E0913B
:1016C000A9028091A802E81730F4F0E0EA57FC4F35
:1016D000808190E008958FEF9FEF08959091A90287
:1016E0008091A8022FEF3FEF981748F4E92FF0E020
:1016F000EA57FC4F208130E09F5F9093A902C90117
:1017000008958091A8029091A902891B990B0895D0
:10171000CF92DF92EF92FF920F931F93CF93DF93BD
:101720007C01CB018A0120913C03222389F0EB014B
:101730006B01C40ED51ECC15DD0569F06991D7018A
:10174000ED91FC910190F081E02DC7010995F3CF57
:10175000642F0E944209C801DF91CF911F910F9120
:10176000FF90EF90DF90CF900895CF93DF931F927B
:10177000CDB7DEB7698320913C032223F9F0209195
:101780005F03203258F021E030E0FC0133832283F4
:1017900090E080E00F90DF91CF91089580913D031C
:1017A000E82FF0E0E25CFC4F998190838F5F80939B
:1017B0003D0380935F0381E090E0ECCF61E0CE01D8
:1017C00001960E944209F7CFCF93DF93EA0191E09F
:1017D00090933C0380935E0310923D0310925F034D
:1017E00089E494E00E94B50B698189E494E00E9449
:1017F000B50B688189E494E00E94B50B0E94770ADA
:1018000091E0811190E0892FDF91CF91089590E0D0
:1018100080E00895FF920F931F93CF93DF93042FDF
:10182000F22E132F91E090933C0380935E0310926D
:101830003D0310925F0389E494E00E94B50BCF2D25
:10184000D12F0C0F1D2F111DC017D10731F0699139
:1018500089E494E00E94B50BF7CF0E94770A91E0EB
:10186000811190E0892FDF91CF911F910F91FF900F
:101870000895CF93DF9300D0CDB7DEB75A83498365
:10188000AE014F5F5F4F0E94E40B0F900F90DF910E
:10189000CF910895CF93DF931F92CDB7DEB74983E1
:1018A0009E012F5F3F4F41E00E940A0C0F90DF9195
:1018B000CF910895DC01EC91EC3090F511968C916C
:1018C000119728E830E0281B310987FD3395220F56
:1018D000331F220F331F6217730784F012968C9107
:1018E00028E532E0281B310987FD3395220F331F8D
:1018F000220F331F621773070CF49B01225031092A
:10190000220F331F4FB7F8948E2F90E0FC01EE0F9B
:10191000FF1FE80FF91FED5CFD4F328321834FBF9E
:101920000895CF92DF92EF92FF92EFE8F4E02181E9
:1019300038E8C32ED12CC21AD10827FDD394CC0C81
:10194000DD1CCC0CDD1C0D2C000CEE08FF084281C8
:1019500028E532E0241B310947FD3395220F331F60
:10196000220F331F032E000C440B550B2C193D097D
:101970004E095F09DC010E94872C24EB30E040E037
:1019800050E00E945D2CCA01B9016C0D7D1D8E1DB9
:101990009F1D8FE894E0FF90EF90DF90CF900C9424
:1019A0005A0CDF92EF92FF920F931F93CF93DF9326
:1019B000EC01D62E7A01890188818C3008F063C051
:1019C00061E08D2D0E9484078881282F30E0F90185
:1019D000EE0FFF1FE20FF31FED5CFD4F9D2D9F7378
:1019E0006081607C692B608320E232E02E193F0920
:1019F0003595279535952795298320E639E0201BD5
:101A0000310B37FF02C02D5F3F4F35952795359538
:101A100027952A832CE0622F0E943A30829FB001E2
:101A2000112430E020E0AB01420F531FFA01EE0F0A
:101A3000FF1FE40FF51FED5CFD4F908196FD16C072
:101A40002F5F3F4F2C30310571F781110FC010927D
:101A5000800082E0809381001092850010928400C3
:101A6000B19A80916F00826080936F00E8818E2F21
:101A700090E0FC01EE0FFF1FE80FF91FED5CFD4F3A
:101A80008081806480838881DF91CF911F910F9145
:101A9000FF90EF90DF900895FF920F931F93CF93E5
:101AA000DF938C01D80117968C911797209129020A
:101AB00015969C9115973091290216964C91169780
:101AC000C0912902C095C4239323C92B8227FC2EE1
:101AD000F8228091290217968C9317971896CD912A
:101AE000DC912097B1F08B81982F9F2171F090911C
:101AF0002902892391E009F490E0909328028C81D7
:101B000080933002E881F98109950D80DE81C02D36
:101B1000E8CF9BB3F8018481982351F09BB3892BC4
:101B20008BBB0190F081E02D808180932902BACF98
:101B3000DF91CF911F910F91FF900895CF93DF9385
:101B400090E0FC01E65EF44FE491EE2309F444C01A
:101B5000E250FF0BB0E0A0E0E330F10530F4EE0F0F
:101B6000FF1FE45EFE4FA081B181825D944FFC01B6
:101B700084911896CD91DC911997209769F19B81FA
:101B800098132DC02FB7F8941296ED91FC911397EE
:101B900090818095892380831296ED91FC91139713
:101BA0008081811109C09091680014968C911497DE
:101BB000809589238093680015969C9115978B8159
:101BC0008095982315969C93159716969C91169739
:101BD000892316968C932FBFDF91CF9108950D80A6
:101BE000DE81C02DCACFCF93DF93FC01DB011296BB
:101BF0002C93129711965C934E93C281D381888166
:101C000013969C911397892B888312968C91129727
:101C1000982F9D7F913031F4958113962C911397D5
:101C2000922B95838150823028F4868113969C9163
:101C3000892B8683809168009481892B809368002A
:101C4000DF91CF9108958F929F92AF92BF92CF92E2
:101C5000DF92EF92FF920F931F93CF93DF93C82FE2
:101C6000D0E0FE01E65EF44FA491A1110EC08FEF0B
:101C7000DF91CF911F910F91FF90EF90DF90CF9068
:101C8000BF90AF909F908F900895A250BB0B10E033
:101C900000E0A330B10530F4AA0FBB1FA45EBE4F15
:101CA0000D911C91942E6B01882ED801ED91FC9121
:101CB0001197808117968C9317971896AD90BC90CA
:101CC0007501A114B10421F4F12CE12C11C07C01A7
:101CD000F7018481881208C0292DA601B701C80127
:101CE0000E94F30D80E0C4CF85819681009779F73B
:101CF00087E090E00E944C30DC0111961C921E920D
:101D000012961C921297009709F4B1CF14968C92F8
:101D1000149712969C92129716961C921E921597E3
:101D2000FE01E25DF44FE4911396EC931397AB2818
:101D300059F4F80191878087292DA601BD01C801BA
:101D40000E94F30D81E094CFF70196838583F4CF51
:101D5000CF93C09130028C2F90E090932F0280930C
:101D60002E020E94D20760932A0270932B02809366
:101D70002C0290932D028C2F0E949E0D42E050E089
:101D800066EC7EE08C2FCF910C94230E0F931F9363
:101D9000CF93C09130028C2F90E090932F028093CC
:101DA0002E020E94D20700912A0210912B0220914C
:101DB0002C0230912D02601B710B820B930B6093F0
:101DC000B0027093B1028093B2029093B3028C2F51
:101DD0000E949E0D43E050E068EA7EE08C2FCF9198
:101DE0001F910F910C94230EFC0101900020E9F744
:101DF0003197AF01481B590BBC018CEA93E00C945E
:101E0000E105CF93DF930E94CE06EC0186E491E0DA
:101E10000E94F40E8C0F9D1FDF91CF9108958F9239
:101E20009F92AF92BF920F931F93CF93DF93CDB743
:101E3000DEB7A1970FB6F894DEBF0FBECDBF19A2D3
:101E4000423008F44AE08E010F5D1F4F842E912C22
:101E5000B12CA12CA50194010E94C62CE62FB9013A
:101E6000CA01EA30F4F4E05DD801EE938D01232B32
:101E7000242B252B79F790E080E0109719F0CD0105
:101E80000E94F40EA1960FB6F894DEBF0FBECDBF30
:101E9000DF91CF911F910F91BF90AF909F908F9046
:101EA0000895E95CE1CF009711F00C94F40E90E0F6
:101EB00080E00895CF92DF92EF92FF92CF93DF936D
:101EC0006C01990FEE08FF08F7FE19C06DE28CEA6D
:101ED00093E00E948106EC0166277727CB016C19FD
:101EE0007D098E099F094AE00E940F0F8C0F9D1FEC
:101EF000DF91CF91FF90EF90DF90CF9008954AE06F
:101F0000C701B601DF91CF91FF90EF90DF90CF90A6
:101F10000C940F0F4F925F926F927F928F929F92CD
:101F2000AF92BF92CF92DF92EF92FF926B017C0152
:101F3000AC019B010E942030882381F089E491E06C
:101F4000FF90EF90DF90CF90BF90AF909F908F90D9
:101F50007F906F905F904F900C94F40E4601570164
:101F6000E894B7F82FEF3FEF4FE75FE7C501B40103
:101F70000E94203081110DC02FEF3FEF4FE75FE748
:101F8000C501B4010E94D62D18161CF48DE491E011
:101F9000D7CF2FEF3FEF4FE75FE4C701B6010E94B5
:101FA0005C2F18161CF481E591E0CACF2FEF3FEFAC
:101FB0004FE75FECC701B6010E94D62D87FDF3CF36
:101FC00020E030E0A901C701B6010E94D62DB12C56
:101FD000A12C87FF0AC06DE28CEA93E00E94810683
:101FE0005C01F7FAF094F7F8F0942AE037ED43EA51
:101FF0005BE3C701B6010E94F82C2B013C010E9453
:10200000542E6B017C010E94832E9B01AC01C30105
:10201000B2010E94F72C2B013C014AE0C701B60136
:102020000E940F0F7C01EA0CFB1C6EE28CEA93E02D
:102030000E948106E80EF91E20E030E040E251E403
:10204000C301B2010E94692F2B013C010E94542E52
:102050004B01B12CA12C4AE0C501B4010E940F0F25
:10206000E80EF91EC501B4010E94832E9B01AC014C
:10207000C301B2010E94F72C20E030E040E251E4BD
:102080000E94692F0E94542E90E080E04AE00E9456
:102090000F0F8E0D9F1DFF90EF90DF90CF90BF90A0
:1020A000AF909F908F907F906F905F904F9008952A
:1020B0002F923F924F925F926F927F928F929F9258
:1020C000AF92BF92CF92DF92EF92FF920F931F9346
:1020D000CF93DF93CDB7DEB729970FB6F894DEBF65
:1020E0000FBECDBF582E6D834B833F832E830E943E
:1020F00029086B017C012B81622E712CC301880F92
:10210000991F9A838983220F2B8399819C83212C89
:10211000412C4801B12CA12CE981FA812E161F0611
:102120000CF068C0F1E0F0933C0350925E03109213
:102130003D0310925F036D8189E494E00E94B50B2A
:102140000E94770A21E020933C0310923D031092F5
:102150005F036B81852D0E94A8091092A9028093CC
:10216000A802332433949091A8028091A902981771
:1021700089F1842D042C000C990B9987888786158A
:10218000970544F501151105D1F4E885F985EE0FA1
:10219000FF1F2E813F81E20FF31FF987E88731107F
:1021A0001EC089E494E00E946E0BE885F9852081C9
:1021B0003181822B932B91838083439418C00E949A
:1021C00029086C197D098E099F09681579058A050A
:1021D0009B05D8F20E94770A3C81230E9DCF89E4AB
:1021E00094E00E946E0BE885F98510828183F1E00E
:1021F0003F26B9CF01151105B1F00E9429086C19CD
:102200007D098E099F0930E020E060177107820781
:10221000930748F0842D042C000C990B8615970524
:1022200014F444244A94842D29960FB6F894DEBF02
:102230000FBECDBFDF91CF911F910F91FF90EF9017
:10224000DF90CF90BF90AF909F908F907F906F90D6
:102250005F904F903F902F9008952F923F924F9212
:102260005F926F927F928F929F92AF92BF92CF9226
:10227000DF92EF92FF920F931F93CF93DF9300D0E3
:1022800000D0CDB7DEB7782E662E4C833A832983F3
:102290000E9429086B017C01512C1B822C81222E6B
:1022A000312C4801B12CA12C8C81581608F051C05A
:1022B00091E090933C0370925E0310923D03109264
:1022C0005F03662D89E494E00E94B50B0E94770AB3
:1022D00021E020933C0310923D0310925F03B10173
:1022E000651971096132710514F060E270E06132C4
:1022F00008F060E2872D0E94A809482E1092A902DA
:102300008093A8028091A9024816E9F001151105F1
:1023100079F489E494E00E946E0BE981FA819B8153
:10232000E90FF11D97FDFA9580839F5F9B83EACFAC
:102330000E9429086C197D098E099F096815790585
:102340008A059B0530F38C81813208F080E2580EBB
:10235000ABCF01151105C1F00E9429086C197D0948
:102360008E099F0930E020E060177107820793070C
:1023700058F02B81822F220F990B2C8128171906D8
:1023800019F014F08FEF8B838B810F900F900F90CB
:102390000F90DF91CF911F910F91FF90EF90DF9001
:1023A000CF90BF90AF909F908F907F906F905F90F5
:1023B0004F903F902F9008950F931F93CF93DF93EB
:1023C000C0ECD4E008EE13E021EC34E041E06AE335
:1023D00088810E942D118981DF91CF911F910F91EA
:1023E00008952F923F924F925F926F927F928F92B9
:1023F0009F92AF92BF92CF92DF92EF92FF920F9394
:102400001F93CF93DF933C015B01242E522E302E7D
:102410006DE68091C0040E944A0C452D6EE68091C5
:10242000C0040E944A0C80E190E00E944C306C0194
:10243000D0E0C0E0002329F080E190E00E944C3021
:10244000EC01F12CE12CC70140964A2C4E18A8163D
:10245000B90610F080E1482E80E091E085199109DD
:102460004816190619F014F0452C4194332079F0E0
:10247000DE0190E080E093012E0D3F1D841550F4A5
:10248000F901E80FF91FE491ED930196F7CFE3010D
:10249000CE0DDF1D9E01442D6FE68091C0040E9489
:1024A0000A0C842C912CC114D104D1F1422D4F710E
:1024B0006DE68091C0040E944A0C452D6EE6809125
:1024C000C0040E944A0C08EE13E09601442D6FE60A
:1024D0008091C0040E942D11A401B601CE010E947A
:1024E0007131892BE9F0C6010E94E830332021F0D8
:1024F000CE010E94E830312C832DDF91CF911F91C6
:102500000F91FF90EF90DF90CF90BF90AF909F9092
:102510008F907F906F905F904F903F902F90089595
:10252000E80CF91CEA14FB04A8F4540C09F42394F5
:10253000422D4F716DE68091C0040E944A0C452DDA
:102540006EE68091C0040E944A0C7DCFCE010E94AD
:10255000E830D2CFC6010E94E8303110F7CF3324E3
:102560003394CACF0F931F93CF93DF93C0ECD4E083
:1025700008EE13E021EC34E042E062E788810E943B
:102580002D1189819A81982789279827DF91CF91EA
:102590001F910F9108950F931F93CF93DF931F9275
:1025A000CDB7DEB708EE13E09E012F5F3F4F41E04D
:1025B00065E78091C0040E942D11882339F089813C
:1025C0008E7790E0959587958093C1048091C104A2
:1025D0000F90DF91CF911F910F910895BF92CF92ED
:1025E000DF92EF92FF920F931F93CF93DF931F928F
:1025F000CDB7DEB7F82EE62EC42EB22ED02E08EEC2
:1026000013E09E012F5F3F4F41E00E942D11882370
:1026100071F18C2D8B19990BAC014F5F5F4F81E0ED
:1026200090E002C0880F991FBA94E2F70197042E38
:1026300001C0880F0A94EAF70D2D01C0000F4A95DA
:10264000EAF7482F4095998149238023482B4983F5
:102650006E2D8F2D0E944A0C0F90DF91CF911F910C
:102660000F91FF90EF90DF90CF90BF90089580E0A2
:10267000F3CFCF92DF92EF92FF920F931F93CF93FE
:10268000DF931F92CDB7DEB7F82EE62EC42ED22EE2
:1026900008EE13E09E012F5F3F4F41E00E942D1195
:1026A00081E090E001C0880FCA94EAF74981DD20FB
:1026B00081F0482B49836E2D8F2D0E944A0C0F907C
:1026C000DF91CF911F910F91FF90EF90DF90CF900E
:1026D000089580954823EECF21E042E06AE680919C
:1026E000C0040C9439132F923F924F925F926F92D5
:1026F0007F928F929F92AF92BF92CF92DF92EF9292
:10270000FF920F931F93CF93DF93CDB7DEB7E3977D
:102710000FB6F894DEBF0FBECDBF8F8F48A759A765
:102720006AA77BA70CA71DA72EA73FA78B3309F08D
:1027300000C20E94CB12883308F400C227E72F8B17
:1027400033E03A8F6EE38CEA93E00E948106FE014B
:102750003D96FE8BED8B9E012F5F3F4F398F288F6B
:102760007F01DF8808EE13E09E012D5E3F4F41E0C0
:102770006D2D8091C0040E945810AB88BC88B501B3
:102780000B2C000C880B990B0E94852EAF89A3316E
:1027900009F4D9C1B1E0AB22BB24F701B182A08218
:1027A00020E030E040E051E40E94692FA88DB98D0F
:1027B0006D937D938D939C931397FA8DDF0E22E09A
:1027C000E20EF11C888D998D0496998F888FAD89C2
:1027D000BE898A179B0731F6BF8DBB3309F0C0C194
:1027E0008DEC9CECACE4BDE388AB99ABAAABBBAB86
:1027F000A6E0B0E0BFA3AEA31CA21BA2312C212CEB
:10280000FE013196FC8FEB8F9E01235F3F4F39A372
:1028100028A33F893AA38F8D8DA3812C912C54013D
:102820001E8E1D8E08EE13E09E012D5E3F4F41E08F
:102830006DA18091C0040E9458106B897C89072E7D
:10284000000C880B990B0E94852E6B017C019F8DDB
:102850009B3371F4AD8DBE8D129751F420E030E0C2
:1028600040E856E4C701B6010E94F72C6B017C01D9
:102870002601370177FA709477F87094C501B40196
:102880000E94832E4B015C0120E030E0A901C701CA
:10289000B6010E945C2F181614F073016201A701A3
:1028A0009601C501B4010E94F82C0E94542E4B01E0
:1028B0005C012FE632E143E85AE3C301B2010E9412
:1028C000692F2CA53DA54EA55FA50E94692FEB8D14
:1028D000FC8D20813181428153810E94F82C6B0153
:1028E0007C01AB8DBC8DCD92DD92ED92FC92139765
:1028F00028A539A54AA55BA5C301B2010E94692F8D
:10290000A70196010E94F82CBF89B33109F432C1A6
:1029100020E030E040E05EE30E94692F6B017C0123
:1029200020E030E0A9010E945C2F20E030E040E090
:102930005FE387FD1AC1C701B6010E94F82C0E940F
:102940004D2E6E7FE8A1F9A180819181682B792BB2
:102950007C8B6B8BAE014D5E5F4F6AA18091C00492
:102960000E94E40B2D8D3E8D2F5F3F4F3E8F2D8FAC
:102970003DA13E5F3DA38AA19A8D890F8AA3A8A19C
:10298000B9A11296B9A3A8A3EB8DFC8D3496FC8F48
:10299000EB8F2D8D3E8D2330310509F043CF33E68B
:1029A0002316310471F489EE881683E09806A10499
:1029B000B10438F06AE28CEA93E00E948106312C7F
:1029C000212CC501B4010E94832E28A939A94AA946
:1029D0005BA90E94692F20E030E040EA50E40E94A9
:1029E000D62D87FF05C0ABA1BCA11196BCA3ABA39C
:1029F000B4E68B169104A104B10408F0DAC0EBE050
:102A00002E1631040CF4D5C02BA13CA12A3031057F
:102A10000CF4CFC06EE28CEA93E00E94810620E0C5
:102A200030E040E45FE368A579A58AA59BA50E94F4
:102A3000692F68A779A78AA79BA720E030E040E428
:102A40005FE36CA57DA58EA59FA50E94692F6CA74D
:102A50007DA78EA79FA7CE010D967C01DF88DE01A2
:102A600011963D01D3016D917D918D919D913D0117
:102A7000BF89B33109F4B1C020E030E040E05EE34B
:102A80000E94692F4B015C0120E030E0A9010E9407
:102A90005C2F20E030E040E05FE387FD99C0C50196
:102AA000B4010E94F82C0E944D2E6E7FF7018081A8
:102AB0009181682B792B7C8B6B8BAE014D5E5F4FC8
:102AC0006D2D8091C0040E94E40BFA8DDF0E22E090
:102AD000E20EF11C888D998D8615970519F6AEA129
:102AE000BFA11197BFA3AEA3AB2B09F085CE0E9467
:102AF0006C1321E043E06AE68091C0040E94391320
:102B0000E3960FB6F894DEBF0FBECDBFDF91CF9135
:102B10001F910F91FF90EF90DF90CF90BF90AF90FB
:102B20009F908F907F906F905F904F903F902F90ED
:102B3000089583E18F8B92E09A8F04CEA6E0AF8B4D
:102B4000B2E0BA8FFFCD20E030E040E850E40E94D0
:102B5000692FE88DF98D60837183828393832DCEF5
:102B600080E090E0A0E8BFE33FCEC701B6010E943D
:102B7000F72CE5CE20E030E040E85EE30E94692FCC
:102B80006B017C0120E030E0A9010E945C2F20E075
:102B900030E040E05FE387FD07C0C701B6010E9457
:102BA000F82C0E944D2ED4CEC701B6010E94F72CFE
:102BB000F8CF61E070E080E090E00E94F707BFEF9F
:102BC0002B1A3B0AE4E62E16310409F019CE22CF67
:102BD000C501B4010E94F72C66CF20E030E040E848
:102BE0005EE30E94692F4B015C0120E030E0A90107
:102BF0000E945C2F20E030E040E05FE387FD07C0EB
:102C0000C501B4010E94F82C0E944D2E54CFC5017D
:102C1000B4010E94F72CF8CF85ED8093BC00809121
:102C2000A8039091A903A091AA03B091AB030796C2
:102C3000A11DB11D23E0B695A795979587952A9577
:102C4000D1F72091BC0024FD03C01092A603089583
:102C50004091A8035091A9036091AA037091AB031E
:102C6000452B462B472B69F30097A105B10541F091
:102C700025E32A95F1F700000197A109B109E1CFF9
:102C80008091A7030C9487091F920F920FB60F92A1
:102C900011242F933F934F935F936F937F938F9361
:102CA0009F93AF93BF93EF93FF938CEA93E00E94BF
:102CB0005F06FF91EF91BF91AF919F918F917F91AF
:102CC0006F915F914F913F912F910F900FBE0F9099
:102CD0001F9018951F920F920FB60F9211242F93E9
:102CE0008F939F93EF93FF93E091BC03F091BD030B
:102CF0008081E091C203F091C30382FD1BC09081EB
:102D00008091C5038F5F8F732091C603821741F0B6
:102D1000E091C503F0E0E455FC4F958F8093C50327
:102D2000FF91EF919F918F912F910F900FBE0F9078
:102D30001F9018958081F4CF1F920F920FB60F92BB
:102D400011242F933F938F939F93AF93BF938091C1
:102D50009C0290919D02A0919E02B0919F023091A1
:102D60009B0223E0230F2D3758F50196A11DB11DBD
:102D700020939B0280939C0290939D02A0939E02BD
:102D8000B0939F028091A0029091A102A091A20213
:102D9000B091A3020196A11DB11D8093A002909352
:102DA000A102A093A202B093A302BF91AF919F9101
:102DB0008F913F912F910F900FBE0F901F901895FC
:102DC00026E8230F0296A11DB11DD2CF1F920F92AC
:102DD0000FB60F9211242F933F934F935F936F93EE
:102DE0007F938F939F93AF93BF93EF93FF93E09164
:102DF0000201F09103010995FF91EF91BF91AF910D
:102E00009F918F917F916F915F914F913F912F9102
:102E10000F900FBE0F901F9018951F920F920FB634
:102E20000F9211242F933F934F935F936F937F9350
:102E30008F939F93AF93BF93EF93FF93E091000124
:102E4000F09101010995FF91EF91BF91AF919F9191
:102E50008F917F916F915F914F913F912F910F9043
:102E60000FBE0F901F9018951F920F920FB60F92E2
:102E700011242F933F934F935F936F937F938F937F
:102E80009F93AF93BF93EF93FF938091B900887F97
:102E9000803609F44AC0F0F5883209F4A7C018F565
:102EA000803109F49BC0B8F4882309F4F9C0883054
:102EB00009F494C0FF91EF91BF91AF919F918F91D1
:102EC0007F916F915F914F913F912F910F900FBE26
:102ED0000F901F901895883109F488C0803251F7FF
:102EE0008093840314C0803409F49DC040F480337F
:102EF000B9F38833F9F68093840385ECB0C080354C
:102F000009F485C0883509F496C0883499F60E9482
:102F10000C16D0CF883909F48CC038F5883729F0E1
:102F200050F4883611F0803729F683E08093A603A9
:102F300010929A0257C0883809F47BC0803919F082
:102F4000803809F0B7CF80919A02803208F071C0C2
:102F5000E0919A0281E08E0F80939A028091BB00EB
:102F6000F0E0E658FD4F80833DC0803B39F0E0F44F
:102F7000803A09F479C0883A09F09CCF84E08093C4
:102F8000A6031092790210927802E091A602F091C5
:102F9000A70209958091780281110FC081E080938A
:102FA00078021092580209C0803C09F4A6CF883CF0
:102FB00009F4A3CF883B09F07DCFE091790281E04D
:102FC0008E0F80937902F0E0E85AFD4F8081809364
:102FD000BB00909179028091780229C08091810391
:102FE0008093BB0085EC8093BC0064CF90918303F9
:102FF00080918203981758F5E091830381E08E0F4A
:1030000080938303F0E0E05AFC4F8081E9CFE091A8
:10301000830381E08E0F809383038091BB00F0E0F7
:10302000E05AFC4F8083909183038091820398172C
:10303000C8F285E8D8CFE091830381E08E0F8093BA
:1030400083038091BB00F0E0E05AFC4F80838091C5
:10305000850381115CCF81E08093800384EA8093B3
:10306000BC001092A60326CF85EC8093BC00109282
:10307000A60380919A02803230F4E0919A02F0E047
:10308000E658FD4F108260919A0270E0E091A40230
:10309000F091A5028AE792E0099510929A020ACF70
:1030A0001092840334CF1F920F920FB60F92112407
:1030B0002F933F934F935F936F937F938F939F9340
:1030C000AF93BF93CF93DF93EF93FF938091310240
:1030D000C0913202D0E087FF24C010928500109288
:1030E0008400809131028F5F8093310280913102A0
:1030F000082E000C990B8C179D0724F48091310247
:103100008C30C4F1809184009091850004968034C5
:103110009C4908F47AC080918400909185000496BF
:1031200076C080913102082E000C990B8C179D07F8
:10313000C4F6E09131028E2FEE0F990BFC01EE0FD9
:10314000FF1FE80FF91FED5CFD4F808186FFC9CF9F
:10315000E09131028E2FEE0F990BFC01EE0FFF1F55
:10316000E80FF91FED5CFD4F808160E08F730E94D6
:103170005607B7CF2091840030918500E09131024D
:103180008E2FEE0F990BFC01EE0FFF1FE80FF91FBA
:10319000ED5CFD4F81819281820F931F9093890096
:1031A00080938800E09131028E2FEE0F990BFC0185
:1031B000EE0FFF1FE80FF91FED5CFD4F808186FFCA
:1031C00011C0E09131028E2FEE0F990BFC01EE0F32
:1031D000FF1FE80FF91FED5CFD4F808161E08F73E9
:1031E0000E945607FF91EF91DF91CF91BF91AF9170
:1031F0009F918F917F916F915F914F913F912F910F
:103200000F900FBE0F901F90189580E49CE990934B
:103210008900809388008FEF80933102E3CF1F9263
:103220000F920FB60F9211242F933F934F935F93FA
:103230006F937F938F939F93AF93BF93EF93FF937E
:10324000E091D304F091D40480818093290283ED2E
:1032500094E00E944C0DFF91EF91BF91AF919F912F
:103260008F917F916F915F914F913F912F910F902F
:103270000FBE0F901F9018951F920F920FB60F92CE
:1032800011242F933F934F935F936F937F938F936B
:103290009F93AF93BF93EF93FF93E091DD04F09181
:1032A000DE048081809329028DED94E00E944C0D14
:1032B000FF91EF91BF91AF919F918F917F916F910E
:1032C0005F914F913F912F910F900FBE0F901F90E4
:1032D00018951F920F920FB60F9211242F933F93C0
:1032E0004F935F936F937F938F939F93AF93BF930E
:1032F000EF93FF93E091E704F091E80480818093DD
:10330000290287EE94E00E944C0DFF91EF91BF914E
:10331000AF919F918F917F916F915F914F913F916D
:103320002F910F900FBE0F901F901895FC01909158
:1033300032029C3098F481E0890F809332029083AE
:10334000892F90E0FC01EE0FFF1FE80FF91FED5CE5
:10335000FD4F88EB9BE09283818308958FEF8083FC
:1033600008958F929F92AF92BF92CF92DF92EF9289
:10337000FF92CF93DF93ECEAF3E01382128288EEA0
:1033800093E0A0E0B0E084839583A683B78326E230
:1033900031E03183208325EC30E03587248724EC2D
:1033A00030E03787268720EC30E0318B208B21EC12
:1033B00030E0338B228B22EC30E0358B248B26ECF3
:1033C00030E0378B268B118E128E138E148EE9E42B
:1033D000F4E01382128284839583A683B78388E303
:1033E00091E091838083EAE5FBE085919491E7EE9B
:1033F000F4E0918380838BE690E09383828381E085
:1034000084831582168211861086ECE5FBE0859197
:103410009491EDEDF4E0918380838CE690E09383CA
:10342000828382E084831582168211861086EEE5FF
:10343000FBE085919491E3EDF4E0918380838DE648
:1034400090E09383828384E08483158216821186C0
:10345000108688E68093C004E0EBF4E0C12CD12C08
:1034600080E8E82E8FE3F82EC082D182E282F382D8
:103470001482158216821782108611861286138690
:103480001486158616861786EAEAF4E01182108201
:103490001382128215821482EEE9F4E01082118206
:1034A0001282138214821582168217821086118668
:1034B000128613868BE994E00E94961988E994E0BD
:1034C0000E94961985E994E00E94961982E994E099
:1034D0000E9496198FE894E00E949619C2E7D4E002
:1034E000188219821A821B821C821D821E821F82F0
:1034F000188EC88AD98AEA8AFB8A9BED892E9FE0BA
:10350000992E99ECA92E90E4B92E8C8A9D8AAE8AC8
:10351000BF8A0E94D207698F7A8F8B8F9C8FC5E5F7
:10352000D4E0188219821A821B821C821D821E829C
:103530001F82188EC88AD98AEA8AFB8A8C8A9D8A59
:10354000AE8ABF8A0E94D207698F7A8F8B8F9C8F39
:10355000DF91CF91FF90EF90DF90CF90BF90AF9031
:103560009F908F900895CF93DF93CDB7DEB7E2970A
:103570000FB6F894DEBF0FBECDBF789484B58260DD
:1035800084BD84B5816084BD85B5826085BD85B507
:10359000816085BD80916E00816080936E00109285
:1035A0008100809181008260809381008091810000
:1035B0008160809381008091800081608093800091
:1035C0008091B10084608093B1008091B0008160EF
:1035D0008093B00080917A00846080937A0080911B
:1035E0007A00826080937A0080917A008160809373
:1035F0007A0080917A00806880937A001092C100EE
:10360000E091BC03F091BD0382E08083E091B803B8
:10361000F091B9031082E091BA03F091BB0380E10D
:1036200080831092C403E091C003F091C10386E04F
:103630008083E091BE03F091BF038081806180832D
:10364000E091BE03F091BF03808188608083E091A8
:10365000BE03F091BF03808180688083E091BE0348
:10366000F091BF0380818F7D808385E591E00E948A
:10367000F40E86E491E00E94F40E86E891E00E9448
:10368000F40E86E491E00E94F40E62E08CE00E9469
:10369000840760E080E10E94840760E081E10E948D
:1036A000840760E082E10E94840760E085E10E9477
:1036B000840761E084E00E94840761E088E00E9462
:1036C000840761E087E00E94840781E090E00E9427
:1036D000472C813009F03FC58093D0020E94320709
:1036E000892B61F48091D002882309F437C560E00A
:1036F00081E090E00E944F2C1092D0028FE00E9457
:10370000C0077C0190932E0380932D038EE00E94CE
:10371000C0078C0190932C0380932B03B701FF0CFF
:10372000880B990B6F5F734081099109E5E0660F83
:10373000771F881F991FEA95D1F7CC24C394FCEF1B
:10374000DF2EEE24EA94FE2CA70196010E945D2C48
:10375000CA01B901685F7F4F8F4F9F4F0E94852E2E
:1037600020E030E040E251E40E94DB2D60930E0146
:1037700070930F018093100190931101012E000CA2
:10378000220B330BA90198012F5F334041095109E6
:10379000ACE1B0E00E947C2CA70196010E945D2C58
:1037A000CA01B9016E5F7F4F8F4F9F4F0E94852ED8
:1037B00020E030E040E251E40E94DB2D60930A01FA
:1037C00070930B0180930C0190930D011092A9024C
:1037D0001092A80210923D0310925F030E946909A3
:1037E0008FED95E09093A7028093A60280EE95E07E
:1037F0009093A5028093A4028CE08093B80062E0CD
:103800008AE00E94840743E050E068EA7EE08AE0B4
:103810000E94230E0E94D2076093380370933903ED
:1038200080933A0390933B0301E023E042E06BE690
:103830008091C0040E94EE1200E022E044E06BE1BF
:103840008091C0040E94EE1222E044E06CE180917D
:10385000C0040E94EE1220E046E06BE68091C004B6
:103860000E94391360E082E00E9484078DEE9AE0A6
:103870000E94010F0E94CB12843309F078C48BEBB5
:103880009AE00E94010F89ED9AE00E94010F21E069
:1038900047E06BE68091C0040E9439136EE170E04E
:1038A00080E090E00E94F70720E046E06BE6809120
:1038B000C0040E94391340E76DE68091C0040E9465
:1038C0004A0C46E06EE68091C0040E944A0C8FE6E6
:1038D00099E00E94010F85E599E00E94CE0608EE6E
:1038E00013E021EC34E041E06FE68091C0040E94D7
:1038F0002D116091C10470E090E080E040E10E94F1
:103900000F0F86E491E00E94F40E8DE299E00E9490
:10391000010F40E06DE68091C0040E944A0C4FE721
:1039200065E28091C0040E944A0C20E045E06AE60E
:103930008091C0040E94391348E665E28091C0047A
:103940000E944A0C21E041E06AE68091C0040E9496
:10395000391364E170E080E090E00E94F70703E033
:1039600023E042E06BE68091C0040E94EE1242E147
:1039700068E38091C0040E944A0C44E069E18091B0
:10398000C0040E944A0C01E023E045E06AE1809116
:10399000C0040E94EE1203E023E042E06AE180915D
:1039A000C0040E94EE1222E044E06BE18091C0046A
:1039B0000E94EE1201E020E040E069E877E084EA4E
:1039C00091E00E94F11111E0882309F457C0198297
:1039D00084E08A8300E026E142E062E070E0CE010C
:1039E00001960E94F11143E060E78091C0040E94BB
:1039F0004A0C40E061E78091C0040E944A0C20E03C
:103A000040E060E08091C0040E94391342E06FE121
:103A10008091C0040E944A0C4CE961E28091C0048C
:103A20000E944A0C40E560E28091C0040E944A0C6A
:103A300040E062E28091C0040E944A0C21E046E02E
:103A40006AE68091C0040E94391321E043E06AE6EF
:103A50008091C0040E94391320E047E06AE680911B
:103A6000C0040E9439138AE290E09093D2048093BC
:103A7000D1040E946C130E94DC1110E01093AA0282
:103A80004AEB5FEF63E18091C0040E94390C4DE97D
:103A900050E065E18091C0040E94390C4CE150E097
:103AA00067E18091C0040E94390C0E94CB1266E04D
:103AB000883308F067E744E75CEF8091C0040E9418
:103AC000390C0E94CB1268E0883308F06AE748E9B5
:103AD0005FEF8091C0040E94390C0E94CB126AE013
:103AE000883308F06DE742E155E08091C0040E9400
:103AF000390C111159C300E010E028EA31E44EEA14
:103B000057E461EA7EE38BE30E9473130FEF1FEF2C
:103B10002CEB32E44EEA57E461EA7EE383E40E9450
:103B200073130E94CB1266E0F62E883310F057E72D
:103B3000F52E85EB99E00E94CE0626E008EE13E014
:103B4000F21218C39E01275F3F4F43E066E0809169
:103B5000C0040E94581084EB99E00E94CE0682EBCC
:103B600099E00E94CE0669857A85072E000C880BA5
:103B7000990B0E94852E8E010F5F1F4F20E045E0BC
:103B80000E944E290E94530F8EEA99E00E94CE06B1
:103B90008DEA99E00E94CE068BEA99E00E94CE065B
:103BA0006B857C85072E000C880B990B0E94852E57
:103BB00020E045E00E944E290E94530F87EA99E0D9
:103BC0000E94CE0686EA99E00E94CE0684EA99E039
:103BD0000E94CE066D857E85072E000C880B990B02
:103BE0000E94852E20E045E00E944E290E94530F3E
:103BF00080EA99E00E94CE0608EE13E09E01275F5E
:103C00003F4F43E063E18091C0040E9458108FE968
:103C100099E00E94CE068DE999E00E94CE06698562
:103C20007A85072E000C880B990B0E94852E8E0139
:103C30000F5F1F4F20E045E00E944E290E94530F66
:103C400089E999E00E94CE0688E999E00E94CE06B3
:103C500086E999E00E94CE066B857C85072E000CD4
:103C6000880B990B0E94852E20E045E00E944E298A
:103C70000E94530F82E999E00E94CE0681E999E003
:103C80000E94CE068FE899E00E94CE066D857E8563
:103C9000072E000C880B990B0E94852E20E045E032
:103CA0000E944E290E94530F8DE899E00E94CE0693
:103CB00081E99AE00E94010F21E047E06AE68091E5
:103CC000C0040E94391387E59AE00E94CE0690E076
:103CD00080E00E945A0F82E59AE00E94010F8BED6E
:103CE00095E09093010180930001809169008360C9
:103CF00080936900E89A0E94DC118093310388E286
:103D00009AE00E94010F81E0809337038091D104F3
:103D10009091D2049093330380933203C0900E01AC
:103D2000D0900F01E0901001F090110110928A04E0
:103D3000109272041092730410927404109275041D
:103D400020E030E0A901C701B6010E945C2F1816DF
:103D50000CF03AC22BED3FE049EC50E4C701B6014C
:103D60000E94692F4B015C01809286049092870427
:103D7000A0928804B0928904E0900A01F0900B01AF
:103D800000910C0110910D012FE632E143E85AE356
:103D9000B701C8010E94D62D87FD1EC220E030E089
:103DA0004AE754E4B701C8010E945C2F18160CF0D2
:103DB00018C250E040E03AE724E4852F942FA32F67
:103DC000B22F8093820490938304A0938404B093D1
:103DD000850410926D0410925504109256041092AE
:103DE0005704109258048092690490926A04A09239
:103DF0006B04B0926C042FE632E143E85AE3B7015A
:103E0000C8010E94D62D87FDF1C120E030E04AE7CD
:103E100054E4B701C8010E945C2F181624F4E12C69
:103E2000F12C0AE714E4C701D8018093650490934C
:103E30006604A0936704B093680424EC39E040E979
:103E400051E069E070E08BE994E00E94D10C24EC31
:103E500039E040E951E066E070E088E994E00E94D2
:103E6000D10C24EC39E040E951E065E070E085E9EF
:103E700094E00E94D10C24EC39E040E951E063E089
:103E800070E082E994E00E94D10C2CED35E044EF23
:103E900051E06BE070E08FE894E00E94D10C0E944A
:103EA000D2070E94D207609338037093390380933E
:103EB0003A0390933B0380913703882311F40C94C9
:103EC00002292AE0522E809136032090320330904E
:103ED0003303811192C1809134039091350382158F
:103EE000930508F08AC180913603882331F00E943F
:103EF000B21290933503809334030E94320790935B
:103F0000300380932F038FE00E94C0074C019093F1
:103F10002E0380932D038EE00E94C0073C019093F6
:103F20002C0380932B0384E10E94C0075C0189EE7F
:103F3000A81683E0B80624F098EEA92E93E0B92ED7
:103F400094E1A916B1041CF484E1A82EB12CB0921E
:103F50002A03A092290385E10E94C0076C01893ED3
:103F6000934024F008EEC02E03E0D02EB4E1CB162F
:103F7000D1041CF414E1C12ED12CD0922803C0929C
:103F8000270380E10E94C0078C01893E934014F012
:103F900008EE13E00431110514F404E110E010936D
:103FA00026030093250381E10E94C0077C0189EE6E
:103FB000E81683E0F80624F0B8EEEB2EB3E0FB2E13
:103FC00094E1E916F1041CF4A4E1EA2EF12CF0923C
:103FD0002403E0922303B401990C880B990B6F5FC3
:103FE000734081099109F5E0660F771F881F991FBB
:103FF000FA95D1F721E03CEF4FEF5FEF0E945D2C87
:10400000CA01B901685F7F4F8F4F9F4F0E94852E75
:1040100020E030E040E251E40E94DB2D60930E018D
:1040200070930F0180931001909311019301770C0D
:10403000440B550B2F5F334041095109ACE1B0E00F
:104040000E947C2C21E03CEF4FEF5FEF0E945D2C43
:10405000CA01B9016E5F7F4F8F4F9F4F0E94852E1F
:1040600020E030E040E251E40E94DB2D60930A0141
:1040700070930B0180930C0190930D019501BB0C83
:10408000440B550B2451310941095109A2EEBFEFF0
:104090000E948A2C24ED33E040E050E00E945D2C29
:1040A000225E3F4F4F4F5F4F3093220320932103F7
:1040B0009601DD0C440B550B24513109410951097E
:1040C000A8E3BFEF0E948A2C24ED33E040E050E0EB
:1040D0000E945D2C2C593F4F4F4F5F4F529EC001A5
:1040E000539E900D11249093200380931F039701FA
:1040F000FF0C440B550B285E334041095109A4E6DF
:10410000B0E00E947C2C2CE23CEF4FEF5FEF0E946E
:104110005D2C3093090120930801012E000C220B25
:10412000330BA9019801285E334041095109A4E6E7
:10413000B0E00E947C2C2CE23CEF4FEF5FEF0E943E
:104140005D2C529EC001539E900D112490931E032E
:1041500080931D03B8CE1092D002C0CA61E081E006
:1041600090E00E944F2C81E08093D002C7CA81EA80
:104170009AE087CB9E01275F3F4F41E06F2D8091F2
:10418000C0040E94581063E06F0D9E01255F3F4FF1
:1041900041E08091C0040E94581066E06F0D9E01BE
:1041A000235F3F4F41E0D3CC87E09AE00E94CE06E8
:1041B0004AE061E070E080E090E00E940F0F85E04F
:1041C0009AE00E94010FAACDC701B60190582BEDCD
:1041D0003FE049EC50E4C4CD5FE642E133E82AE336
:1041E000ECCD5E2D4F2D302F212FE7CD3FE6E32E76
:1041F00042E1F42E03E81AE316CE109236030E9431
:10420000DC11182F809331030E94B2129093350372
:10421000809334038215930560F014FD04C081156A
:10422000944008F495C40E946C138BE09BE00E94BC
:10423000010F6091AC047091AD04072E000C880B47
:10424000990B0E94852EAB01BC0182E794E00E948D
:104250003608609172047091730480917404909197
:1042600075040E944D2E7093AD046093AC04609170
:10427000AA047091AB04072E000C880B990B0E94C6
:10428000852EAB01BC0185E594E00E943608609163
:1042900055047091560480915704909158040E94DF
:1042A0004D2E6B016091AC047091AD04072E000C93
:1042B000880B990B0E94852E4B015C0120E030E0B9
:1042C00044E353E46091D9027091DA028091DB02F9
:1042D0009091DC020E94692F2BED3FE049E450E40D
:1042E0000E94DB2D20E030E04CE053E40E94692F77
:1042F0009B01AC01C501B4010E94F72C0E944D2E18
:104300004B017093AD046093AC04B601DD0C880BD7
:10431000990B0E94852E6B017C0120E030E044E384
:1043200053E46091D5027091D6028091D7029091AA
:10433000D8020E94692F2BED3FE049E450E40E942F
:10434000DB2D20E030E04CE053E40E94692F9B011C
:10435000AC01C701B6010E94F72C0E944D2E70934C
:10436000AB046093AA042091D0022AAB6B01770FB3
:10437000EE08FF08092C000CAA08BB082111EFC5A4
:10438000A7019601305C4F4F5F4FA0EDB7E00E9450
:104390007C2C20E030E840E050E00E945D2CCA0117
:1043A000B9010E94852E6093CC027093CD02809358
:1043B000CE029093CF02A5019401305C4F4F5F4F26
:1043C000A0EDB7E00E947C2C20E030E840E050E017
:1043D0000E945D2CCA01B9010E94852E6093C8021B
:1043E0007093C9028093CA029093CB022091C802B5
:1043F0003091C9024091CA025091CB0260E070E056
:104400008AEF94E40E94F72C6B017C0120E030E0FD
:104410004AE754E40E94F72CA70196010E94F82C69
:104420006B8B7C8B8D8B9E8B6093C8027093C902C3
:104430008093CA029093CB02809108019091090168
:1044400064E670E0681B790B072E000C880B990B53
:104450000E94852E20E030E048EC52E40E94DB2DE3
:104460006B017C0160911D0370911E03660F771F25
:10447000072E000C880B990B0E94852E4B015C01C6
:10448000AC019B01C701B6010E94692F2B013C01C1
:1044900020E030E0A9010E94D62D10E000E087FD69
:1044A00011C020E030E04AE754E4C301B2010E94A9
:1044B0005C2F08EE13E018162CF0C301B2010E9425
:1044C0004D2E8B011093C7020093C602A7019601DF
:1044D00060E070E080E89FE30E94F72C6F8F78A384
:1044E00089A39AA39B01AC01C501B4010E94692F65
:1044F0004B015C0120E030E0A9010E94D62D87FD30
:104500004CC520E030E04AE754E4C501B4010E9404
:104510005C2F18160CF444C5C501B4010E944D2E41
:104520007C8F6B8FAB8DBC8DB093C502A093C40202
:104530002B893C894D895E89CA01B9010E94692F86
:104540006FA378A789A79AA78090CC029090CD02FC
:10455000A090CE02B090CF02A501940160E070E07F
:104560008AEF94E40E94F72C9B01AC010E94692F12
:104570002B013C01AC019B016FA178A589A59AA5EF
:104580000E94F82C0E94DC2F6F87788B898B9A8B86
:104590006091210370912203072E000C880B990B68
:1045A0000E94852E6BA37CA38DA39EA39B01AC01CF
:1045B000C701B6010E94692F6B017C0160911F0346
:1045C00070912003072E000C880B990B0E94852EFA
:1045D0006F8B788F898F9A8F28EB36EC40EB54E401
:1045E0006F85788989899A890E94F72CA70196019D
:1045F0000E94692F28EB36EC40EB54E40E94F82C23
:104600002F89388D498D5A8D0E94F82C6F87788BB1
:10461000898B9A8B20E030E0A9010E94D62D87FD7E
:10462000C4C420E030EC40E355E46F857889898983
:104630009A890E945C2F181644F480E090ECA0E365
:10464000B5E48F87988BA98BBA8B2B893C894D89D0
:104650005E8960E070E08AEF94E40E94F72C9B0191
:10466000AC010E94692F6B8B7C8B8D8B9E8B9B0189
:10467000AC01C301B2010E94F82C0E94DC2F28EB90
:1046800036EC40EB54E40E94F72CA70196010E94FF
:10469000692F28EB36EC40EB54E40E94F82C2F896C
:1046A000388D498D5A8D0E94F82C2B013C0120E059
:1046B00030E0A9010E94D62D87FD7CC420E030ECBB
:1046C00040E355E4C301B2010E945C2F18163CF48C
:1046D000412C70EC572E70E3672E75E4772EA50100
:1046E0009401C501B4010E94692F6BA77CA78DA717
:1046F0009EA79B01AC016FA178A589A59AA50E94F0
:10470000F82C0E94DC2F6B017C012BA13CA14DA158
:104710005EA16F8D78A189A19AA10E94692F4B019A
:104720005C0128EB36EC40EB54E4C701B6010E9473
:10473000F72CA50194010E94692F28EB36EC40EB81
:1047400054E40E94F82C2F89388D498D5A8D0E948F
:10475000F82C6B017C0120E030E0A9010E94D62DED
:1047600087FD2CC420E030EC40E355E4C701B601DE
:104770000E945C2F18163CF4C12C60ECD62E60E32E
:10478000E62E65E4F62E2BA53CA54DA55EA56B890E
:104790007C898D899E890E94F82C0E94DC2F28EB51
:1047A00036EC40EB54E40E94F72CA50194010E94E2
:1047B000692F28EB36EC40EB54E40E94F82C2F894B
:1047C000388D498D5A8D0E94F82C4B015C0120E0F8
:1047D00030E0A9010E94D62D87FDF4C320E030EC23
:1047E00040E355E4C501B4010E945C2F18163CF467
:1047F000812C50EC952E50E3A52E55E4B52E6F85F7
:10480000788989899A890E944D2E9B01AC01A0E389
:10481000B8EF0E948A2C2CE03BE040E050E00E9480
:104820005D2CCA01B9016C53764F8F4F9F4F0E9488
:10483000852E6F877B8B8F8B9F8FC301B2010E9468
:104840004D2E9B01AC01A0EDB7E00E947C2C2CE02A
:104850003BE040E050E00E945D2CCA01B9016C5081
:104860007E4F8F4F9F4F0E94852E1B018BA39FA3CE
:10487000C701B6010E944D2E9B01AC01A0EDB7E02F
:104880000E947C2C2CE03BE040E050E00E945D2C3C
:10489000CA01B9016C507E4F8F4F9F4F0E94852EE9
:1048A0002B013C01C501B4010E944D2E9B01AC01BE
:1048B000A0E3B8EF0E948A2C2CE03BE040E050E0FF
:1048C0000E945D2CCA01B9016C53764F8F4F9F4FE8
:1048D0000E94852E6BA77FA788AB99AB6CED75E026
:1048E000601B710B072E000C880B990B0E94852E04
:1048F0004B015C019B01AC016F857B898F899F8D8A
:104900000E94D62D87FD62C3B80164527A4F072EEC
:10491000000C880B990B0E94852E6B017C019B017A
:10492000AC016F857B898F899F8D0E945C2F181643
:1049300024F4CF86DB8AEF8AFF8E8F859B89AF892F
:10494000BF8D8093C0029093C102A093C202B09326
:10495000C3029401A501B1018BA19FA10E94D62D94
:1049600087FD17C0B80164527A4F072E000C880BE0
:10497000990B0E94852E4B015C019B01AC01B1019A
:104980008BA19FA10E945C2F18161CF04101ABA0C7
:10499000BFA0C401D5018093BC029093BD02A09337
:1049A000BE02B093BF026CED75E0AB8DBC8D6A1B8F
:1049B0007B0B072E000C880B990B0E94852E6B0138
:1049C0007C019B01AC01B201C3010E94D62D87FD81
:1049D00002C36B8D7C8D64527A4F072E000C880BBE
:1049E000990B0E94852E1B018C019B01AC01B20129
:1049F000C3010E945C2F181614F421013801C20172
:104A0000D3018093B8029093B902A093BA02B093F5
:104A1000BB029601A7016BA57FA588A999A90E9451
:104A2000D62D87FD1AC06B8D7C8D64527A4F072E70
:104A3000000C880B990B0E94852E6B017C019B0159
:104A4000AC016BA57FA588A999A90E945C2F1816B7
:104A500024F0CBA4DFA4E8A8F9A8C601D70180936D
:104A6000B4029093B502A093B602B093B70288E364
:104A700091E00E94472C8D3E11F56F857B898F89CF
:104A80009F8D0E944D2E8BE994E00E945A0CB40138
:104A9000C5010E944D2E88E994E00E945A0CB20193
:104AA000C3010E944D2E85E994E00E945A0CB60184
:104AB000C7010E944D2E82E994E00E945A0CBAA9C7
:104AC000B1118CC28091AA049091AB04893E9340AD
:104AD0000CF48CC261E084E00E9456078091B00221
:104AE0009091B102A091B202B091B302833726E057
:104AF0009207A105B1050CF47BC2C090AC02D09026
:104B0000AD02E090AE02F090AF0220E030E048EC61
:104B100052E4C701B6010E94D62D87FF10C020E0E5
:104B200030E040E85FE3C701B6010E94F82C6093D3
:104B3000AC027093AD028093AE029093AF0260E03E
:104B400088E00E94560790E080E00E94910C97C296
:104B500011FF6FCB2FA2E0903403F0903503E214E5
:104B6000F30408F466CBBFA1BB2309F4F0C108EE3F
:104B700013E02DED32E04B2F64E78091C0040E94DA
:104B80002D11E218F308F0923503E092340380917E
:104B9000F9029091FA029827892798279093AB04FD
:104BA0008093AA048091FD029091FE0298278927A4
:104BB00098279093AD048093AC0480910103909169
:104BC00002039827892798279093AF048093AE0417
:104BD0000091E1021091E202102701271027E090D6
:104BE000E502F090E602FE24EF24FE24C090E902E4
:104BF000D090EA02DC24CD24DC246091DD027091A7
:104C0000DE02762767277627072E000C880B990B84
:104C10000E94852E20E030E040E858E30E94692F92
:104C20002B013C014092B0045092B1046092B20456
:104C30007092B304B801110F880B990B0E94852E56
:104C400020E030E040E858E30E94692F4B015C010E
:104C50008092B4049092B504A092B604B092B704C6
:104C6000B701FF0C880B990B0E94852E20E030E0E5
:104C700040E858E30E94692F6B8F7C8F8D8F9E8F49
:104C80006093B8047093B9048093BA049093BB0402
:104C9000B601DD0C880B990B0E94852E20E030E0D8
:104CA00040E858E30E94692F6F87788B898B9A8B35
:104CB0006093BC047093BD048093BE049093BF04C2
:104CC0009B01AC01C501B4010E94692F6B017C01FD
:104CD0002B8D3C8D4D8D5E8DC301B2010E94692FDD
:104CE0009B01AC01C701B6010E94F72C9B01AC01EE
:104CF0000E94F82C6F8F78A389A39AA360939E04D7
:104D000070939F048093A0049093A104A501940143
:104D1000C301B2010E94692F6B017C012F85388984
:104D200049895A896B8D7C8D8D8D9E8D0E94692F4E
:104D30009B01AC01C701B6010E94F82C9B01AC019C
:104D40000E94F82C6F8B788F898F9A8F6093A204C2
:104D50007093A3048093A4049093A504A3019201EB
:104D6000C301B2010E94692F6B017C01A50194016E
:104D7000C501B4010E94692F9B01AC01C701B601B6
:104D80000E94F72C6B017C012B8D3C8D4D8D5E8D2F
:104D9000CA01B9010E94692F9B01AC01C701B6018C
:104DA0000E94F72C6B017C012F85388949895A892B
:104DB000CA01B9010E94692F9B01AC01C701B6016C
:104DC0000E94F82C6B8B7C8B8D8B9E8B6093A60442
:104DD0007093A7048093A8049093A904A30192015F
:104DE000C301B2010E94F82C6B017C01A501940162
:104DF000C501B4010E94F82C6BA37CA38DA39EA3D4
:104E0000A3019201C701B6010E94692F2B013C0149
:104E1000A50194016BA17CA18DA19EA10E94692F87
:104E20009B01AC01C301B2010E94F82C20E030E0EC
:104E300040E85FE30E94F72C2B013C012B8D3C8D59
:104E40004D8D5E8D6BA17CA18DA19EA10E94692FCD
:104E50004B015C012F85388949895A89C701B60100
:104E60000E94692F9B01AC01C501B4010E94F72C7F
:104E7000A30192010E94772D6093D1027093D20218
:104E80008093D3029093D4022F89388D498D5A8D07
:104E9000CA01B9010E94692F6B017C012B893C89F1
:104EA0004D895E89CA01B9010E94692F9B01AC013D
:104EB000C701B6010E94F82C0E94DC2F9B01AC01B7
:104EC0006F8D78A189A19AA10E94772D6B017C0139
:104ED000C092D502D092D602E092D702F092D802C8
:104EE0002B893C894D895E896F89788D898D9A8D52
:104EF0000E94772D6093D9027093DA028093DB02CF
:104F00009093DC0220E030E0A9016B897C898D89D7
:104F10009E890E94D62D87FF1ECE20E030E0A90199
:104F2000C701B6010E945C2FA7019601181694F4E0
:104F30006BED7FE089E490E40E94F72C6093D5024A
:104F40007093D6028093D7029093D80204CE109229
:104F5000DD0217CE6BED7FE089E490ECEDCFA5018B
:104F60009401305C4F4F5F4FA0EDB7E00E947C2C66
:104F700020E030E840E050E00E945D2CCA01B90119
:104F80000E94852E6093CC027093CD028093CE0256
:104F90009093CF02A701960110CA1C8E1B8EC2CA25
:104FA00088EE93E09C8F8B8FBDCA1F86188A198A62
:104FB0001A8A4BCB412C512C320191CBC12CD12CD4
:104FC0007601E1CB812C912C540119CC8F869B8AE0
:104FD000AF8ABF8EB2CC2601370111CD8091AC04CF
:104FE0009091AD04893E93400CF074CD60E073CD98
:104FF0008E309640A105B1050CF0A1CDC090AC0259
:10500000D090AD02E090AE02F090AF0220E030E030
:1050100040E85FE3C701B6010E945C2F18160CF050
:105020008ECD20E030E040E050E4C701B6010E94A0
:10503000F72C6093AC027093AD028093AE02909314
:10504000AF0220E030E040EA51E40E945C2F1816E5
:1050500024F48AE590E00E94910C8091AB028823B1
:1050600009F4F7C0809106019091070118161906FE
:105070000CF0D8C00197909307018093060161E07E
:1050800087E00E94560780912F0390913003892B6F
:1050900061F461E088E00E94560761E084E00E94CC
:1050A00056078AE590E00E94910C81EE91E00E9403
:1050B000530F80911F03909120030E945A0F89EF94
:1050C00091E00E94530F89EE91E00E94530F80916E
:1050D0002103909122030E945A0F89EF91E00E94D0
:1050E000530F8FEE91E00E94530F80910801909131
:1050F00009010E945A0F89EF91E00E94530F82E04C
:1051000092E00E94530F80911D0390911E03880F1F
:10511000991F880F991F0E945A0F89EF91E00E94F2
:10512000530F84EF91E00E94530F60910E01709134
:105130000F0180911001909111010E948A0F89EF57
:1051400091E00E94530F8BEF91E00E94530F60910A
:105150000A0170910B0180910C0190910D010E9448
:105160008A0F89EF91E00E94530F81E092E00E9444
:10517000530F8091C6029091C702880F991F0E9419
:105180005A0F89EF91E00E94530F89E092E00E944C
:10519000530F8091C4029091C502880F991F0E94FD
:1051A0005A0F89EF91E00E94530F81E192E00E9433
:1051B000530F6091C0027091C1028091C202909120
:1051C000C3020E948A0F89EF91E00E94530F88E189
:1051D00092E00E94530F6091B8027091B9028091E1
:1051E000BA029091BB020E948A0F89EF91E00E945F
:1051F000530F8091D00290E00E945A0F86E491E014
:105200000E94F40E80E090E0892B11F40C944F1F63
:105210000E944B06882311F40C944F1F0E9400003B
:105220000C944F1F1092AB0260E088E00E9456077A
:105230000E94B82923E030E040E050E00E945D2C5D
:105240006E5F7F4F8F4F9F4F7093070160930601F2
:1052500016CF80910401909105011816190634F4B7
:105260000197909305018093040109CF81E0809319
:10527000AB0261E088E00E9456070E94B82929E04D
:1052800030E040E050E00E945D2C6A5F7F4F8F4F1E
:105290009F4F7093050160930401F1CEEF920F933D
:1052A0001F93CF93DF93E80134E047FD34E1042EF0
:1052B000000C550B57FF03C0519541955109E32E42
:1052C000022F242FAE010E94102ACE01DF91CF9130
:1052D0001F910F91EF9008958F929F92AF92BF927E
:1052E000CF92DF92EF92FF92CF93DF93EC01688130
:1052F00079818A819B81611571058105910521F470
:1053000064E279ED8BE597E02DE133EF41E050E089
:105310000E945D2C49015A019B01AC01A7EAB1E44E
:105320000E947C2C6B017C01ACEEB4EFA5019401D2
:105330000E948A2CC60ED71EE81EF91EF7FE06C074
:1053400081E0C81AD108E10880E8F80AC882D98249
:10535000EA82FB82C701B6019F77DF91CF91FF9070
:10536000EF90DF90CF90BF90AF909F908F90089577
:105370008F929F92AF92BF92CF92DF92EF92FF9265
:1053800060911201709113018091140190911501A7
:10539000611571058105910521F464E279ED8BE5D4
:1053A00097E02DE133EF41E050E00E945D2C490190
:1053B0005A019B01AC01A7EAB1E40E947C2C6B016D
:1053C0007C01ACEEB4EFA50194010E948A2CC60EBC
:1053D000D71EE81EF91EF7FE06C081E0C81AD108E4
:1053E000E10880E8F80AC0921201D0921301E0921D
:1053F0001401F0921501C701B6019F77FF90EF905D
:10540000DF90CF90BF90AF909F908F900895609362
:105410001201709313018093140190931501089564
:10542000A9E0B0E0E6E1FAE20C94952C6A01F22ED4
:10543000B02E102FFBE3AF2EA01608F41BE31F5F66
:10544000012F27E0AE014F5F5F4F0E946F2BBC0121
:105450008981982F9970913009F43FC09BE2E1FC5B
:1054600004C09E2D9170E0FC3AC05E2D5071E82F73
:10547000E87083FF46C084E0911101C083E0EF2D06
:10548000E81B8F1508F0E0E0D6018E2F20E25523AF
:1054900051F1992329F0D6019C93C60101966C0124
:1054A00096012D5F3F4FE2FE24C08EE4D6018C931F
:1054B00091E411969C93119712968C93D9018E2F9B
:1054C00090E281111BC0E20FF32FF11D10828EEFCD
:1054D0009FEF2996ECE00C94B12C9DE2C6CF90E2B0
:1054E000C4CF2D9381508111FCCFCE0ED11CE0E0B2
:1054F000D0CF8EE6D6018C9391E6DBCF9D93815081
:10550000E0CF482F447082FF3DC084E0911101C07C
:1055100083E08F1510F4EF2DE81BD6018E2F20E2CB
:10552000552309F1992329F0D6019C93C6010196D0
:105530006C0196012D5F3F4FE2FE1BC089E4D6014E
:105540008C938EE411968C93119786E412968C932B
:10555000D9018E2F90E2882309F4B5CF9D93815015
:10556000FACF2D9381508111FCCFCE0ED11CE0E0FB
:10557000D9CF89E6D6018C938EE611968C9311973C
:1055800086E6E4CF9B0177FF02C030E020E0A1E097
:10559000B0E0911102C0B0E0A0E0F9013196AE0F89
:1055A000BF1F8B2C912CBB2009F461C05401EFEF7D
:1055B000AE1ABE0AAA0DBB1DFA161B0619F014F08E
:1055C0004F2D4A1B511188C0E3FC59C07601A42F0E
:1055D000B0E2A1114FC0C40ED11C992309F45BC0E5
:1055E00040E0D6011196F60190836D01552309F430
:1055F00048C0012F060F9A81582F507184FF03C0B5
:10560000913309F4015010160CF047C0093008F02E
:1056100008E0EEE2FE2E5B01A01AB108850191942C
:10562000819491082F3F320729F4D601FC92F601AC
:1056300031966F016217730794F1021713077CF517
:10564000DB01A21BB30BAA24A394B12CAC0EBD1E8C
:10565000AA0DBB1D11968C9121503109D6011196CE
:1056600028153905F4F0F60180836D01DBCFB12CEC
:10567000A12CA0CFF701B1937F01A150AACF911126
:10568000B0CFD601942F50E302C05D939150911199
:10569000FCCFC40ED11C40E0ACCF01E0BACF80E318
:1056A000DBCF6217730731F4963388F4953311F426
:1056B000552369F0F6018083FD01842F90E281116A
:1056C00008C0A40FB11D1C9290E080E002CF81E3DE
:1056D000F1CF91938150F3CF911183CF8ACF2830AE
:1056E00008F027E03327DA01990F311D87FD91601B
:1056F00000966105710539F432602E5F3D9330E309
:105700002A95E1F708959F3F30F0803871056105D3
:1057100009F03C5F3C5F3D93913008F08068911D3B
:10572000DF93CF931F930F93FF92EF92192F987FE0
:105730009695E92F96959695E90FFF27E051FF4F33
:1057400099273327EE24FF24A701E7010590089449
:10575000079428F4360FE71EF81E491F511D660FE7
:10576000771F881F991F0694A1F70590079428F4C6
:10577000E70EF81E491F561FC11D770F881F991F7E
:10578000661F0694A1F70590079428F4F80E491FA8
:10579000561FC71FD11D880F991F661F771F0694BC
:1057A000A1F70590079420F4490F561FC71FD81F73
:1057B000990F661F771F881F0694A9F7849110958B
:1057C000177041F0D695C79557954795F794E7948C
:1057D0001A95C1F7E6E9F0E06894159015913591B6
:1057E0006591959105907FE27395E118F10A430B5D
:1057F000560BC90BD009C0F7E10CF11E431F561F11
:10580000C91FD01D7EF4703311F48A95E6CFE89459
:10581000015030F0080F0AF40027021708F4202F77
:105820002395022F7A3328F079E37D932A95E9F7BF
:1058300010C07D932A9589F60694979567953795BC
:1058400017951794E118F10A430B560BC90BD009B1
:1058500098F023957E9173957A3308F070E37C93EA
:105860002013B8F77E9170617D9330F0839571E3DA
:105870007D9370E32A95E1F71124EF90FF900F914B
:105880001F91CF91DF91992787FD90950895F99900
:10589000FECF92BD81BDF89A992780B50895262F35
:1058A000F999FECF1FBA92BD81BD20BD0FB6F89405
:1058B000FA9AF99A0FBE01960895052E97FB1EF4E9
:1058C00000940E94742C57FD07D00E94C62C07FC40
:1058D00003D04EF40C94742C50954095309521953E
:1058E0003F4F4F4F5F4F089590958095709561950C
:1058F0007F4F8F4F9F4F08950E94E82CA59F900DDA
:10590000B49F900DA49F800D911D11240895B7FFA1
:105910000C947C2C0E947C2C821B930B08952F925C
:105920003F924F925F926F927F928F929F92AF922F
:10593000BF92CF92DF92EF92FF920F931F93CF937C
:10594000DF93CDB7DEB7CA1BDB0B0FB6F894DEBF13
:105950000FBECDBF09942A88398848885F846E8439
:105960007D848C849B84AA84B984C884DF80EE8083
:10597000FD800C811B81AA81B981CE0FD11D0FB68C
:10598000F894DEBF0FBECDBFED010895A1E21A2E3F
:10599000AA1BBB1BFD010DC0AA1FBB1FEE1FFF1FD3
:1059A000A217B307E407F50720F0A21BB30BE40B23
:1059B000F50B661F771F881F991F1A9469F760956A
:1059C0007095809590959B01AC01BD01CF01089524
:1059D000A29FB001B39FC001A39F700D811D112430
:1059E000911DB29F700D811D1124911D0895505875
:1059F000BB27AA270E940F2D0C94222F0E94142F40
:105A000038F00E941B2F20F039F49F3F19F426F440
:105A10000C94EA2E0EF4E095E7FB0C94E42EE92FAB
:105A20000E94332F58F3BA1762077307840795074C
:105A300020F079F4A6F50C94552F0EF4E0950B2E7A
:105A4000BA2FA02D0B01B90190010C01CA01A001D0
:105A50001124FF27591B99F0593F50F4503E68F12B
:105A60001A16F040A22F232F342F4427585FF3CF6C
:105A7000469537952795A795F0405395C9F77EF43D
:105A80001F16BA0B620B730B840BBAF09150A1F086
:105A9000FF0FBB1F661F771F881FC2F70EC0BA0F0C
:105AA000621F731F841F48F4879577956795B79594
:105AB000F7959E3F08F0B0CF9395880F08F099278F
:105AC000EE0F9795879508950E94142F60F080E857
:105AD00091E009F49EEF0E941B2F28F040E851E06E
