:100000000C946A000C9492000C9492000C94E600FC
:100010000C9413010C9440010C9492000C949200E7
:100020000C9492000C94350F0C9492000C94780B65
:100030000C9492000C9492000C9492000C949200F8
:100040000C9405150C9492000C94B4170C94E617BC
:100050000C9492000C9492000C9492000C949200D8
:100060000C9438130C949200000000090003020065
:10007000000405080000000000000000000000016E
:10008000020408102040800102040810200102042C
:100090000810204080400404040404040404020204
:1000A000020202020303030303030202030000002F
:1000B0000023002600290000000000250028002B56
:1000C0000000000000240027002A0000FF0A5B0F48
:1000D0002512161811241FBECFEFD8E0DEBFCDBF0A
:1000E00012E0A0E0B1E0E8E1F9E302C005900D9272
:1000F000A03DB107D9F725E0A0EDB2E001C01D9207
:10010000AB33B207E1F710E0CAE6D0E004C02197B4
:10011000FE010E945F1CC636D107C9F70E944F1925
:100120000C948A1C0C940000FF920F931F93CF93A2
:10013000DF938C01D80117968C9117972091BE03FD
:1001400015969C9115973091BE0316964C91169773
:10015000C091BE03C095C4239323C92B8227FC2ED4
:10016000F8228091BE0317968C9317971896CD911D
:10017000DC912097B1F08B81982F9F2171F09091A5
:10018000BE03892391E009F490E09093BC038C8135
:100190008093BD03E881F98109950D80DE81C02D32
:1001A000E8CF9BB3F8018481982351F09BB3892B4E
:1001B0008BBB0190F081E02D80818093BE03BACF8C
:1001C000DF91CF911F910F91FF9008951F920F9291
:1001D0000FB60F9211242F933F934F935F936F931A
:1001E0007F938F939F93AF93BF93EF93FF93E09190
:1001F000B203F091B30380818093BE0382EB93E05E
:100200000E949400FF91EF91BF91AF919F918F91C8
:100210007F916F915F914F913F912F910F900FBE02
:100220000F901F9018951F920F920FB60F921124E6
:100230002F933F934F935F936F937F938F939F93EE
:10024000AF93BF93EF93FF93E091A803F091A903BD
:1002500080818093BE0388EA93E00E949400FF911E
:10026000EF91BF91AF919F918F917F916F915F912E
:100270004F913F912F910F900FBE0F901F901895A7
:100280001F920F920FB60F9211242F933F934F930B
:100290005F936F937F938F939F93AF93BF93EF93EE
:1002A000FF93E0919E03F0919F0380818093BE03B2
:1002B0008EE993E00E949400FF91EF91BF91AF917E
:1002C0009F918F917F916F915F914F913F912F916E
:1002D0000F900FBE0F901F901895AF92BF92CF92C4
:1002E000DF92EF92FF920F931F9385EE93E00E94AF
:1002F000DF0E26E040E052EC61E070E08EE994E031
:100300000E945C178091C1008F778093C10088E3C1
:1003100091E00E94741C8D3E61F080E593ECA0E0BA
:10032000B0E08093000190930101A0930201B0938B
:10033000030181E090E00E94741C813009F090C1BB
:10034000809343038CE00E945916892B61F48091BD
:100350004303882309F487C160E081E090E00E94B4
:100360007C1C1092430361E171E08EE994E00E94ED
:100370007F1840910001509101016091020170913C
:1003800003012AE030E08EE994E00E94FB188EE938
:1003900094E00E9487186BE371E08EE994E00E947C
:1003A0008B186EE471E08EE994E00E947F1864E699
:1003B00071E08EE994E00E948B186DE671E08EE9A1
:1003C00094E00E947F1864E671E08EE994E00E9458
:1003D0008B1866E871E08EE994E00E947F1864E66D
:1003E00071E08EE994E00E948B1865EA71E08EE975
:1003F00094E00E947F1864E671E08EE994E00E9428
:100400008B1861EC71E08EE994E00E947F1881E026
:1004100090E00E94741C65EF71E0813011F062E0A1
:1004200072E08EE994E00E948B186AE072E08EE937
:1004300094E00E948B188EE994E00E94871860E691
:1004400072E08EE994E00E948B188EE994E00E949D
:10045000871862E08CE00E94EF1560E080E10E9466
:10046000EF1560E081E10E94EF1560E082E10E94FB
:10047000EF1560E087E00E94EF158FEE93E00E9499
:10048000891140E85AE166E070E08FEE93E00E9447
:100490009B1185EE93E00E94FC0E969587957795CB
:1004A0006795609348037093490380934A03909340
:1004B0004B0383E393E00E94F1148EE00E94A815A1
:1004C0009093870380938603BC01990F880B990B47
:1004D0001F921F921F921F9238E2A32EB12CC12CA3
:1004E000D12CE12CF12C87012FEF33E040E050E0DC
:1004F0000E940D190E947A1A20E030E040E251E497
:100500000E94D01960930401709305018093060145
:10051000909307018FE00E94A81590938903809320
:100520008803BC01990F880B990B1F921F921F9291
:100530002CE82F93A12CB12C65012FEF33E040E084
:1005400050E00E940D190E947A1A20E030E040E24B
:1005500051E40E94D01960930801709309018093BF
:100560000A0190930B0126E636E646E65FE30E9419
:100570002F1B9B01AC01E12CF12C870161E070E0A5
:100580008DEE92E00E94980D40910401509105017A
:1005900060910601709107018DEE92E00E94040DBA
:1005A000209108013091090140910A0150910B01FD
:1005B00061E070E080ED92E00E94980D40910401AE
:1005C00050910501609106017091070180ED92E064
:1005D0000E94040D24EC39E040E951E069E070E04C
:1005E00080E393E00E944E0C24EC39E040E951E0B6
:1005F00066E070E08DE293E00E944E0C24EC39E05E
:1006000040E951E065E070E08AE293E00E944E0C20
:1006100024EC39E040E951E063E070E087E293E0E8
:100620000E944E0C6DE972E08EE994E00E948B18F6
:1006300061E08DE00E94EF158DB79EB708960FB66A
:10064000F8949EBF0FBE8DBF61E08DE01F910F91AA
:10065000FF90EF90DF90CF90BF90AF900C942B164F
:10066000109243036FCE61E081E090E00E947C1C19
:1006700081E08093430377CECF92DF92EF92FF9297
:100680000F931F930E945B15009144031091450343
:1006900020914603309147036B017C01C01AD10AB7
:1006A000E20AF30A00910001109101012091020178
:1006B00030910301C016D106E206F306B8F060934C
:1006C00044037093450380934603909347036091DE
:1006D000420381E06827609342038DE01F910F91F0
:1006E000FF90EF90DF90CF900C942B161F910F91FD
:1006F000FF90EF90DF90CF9008952F923F924F920E
:100700005F926F927F928F929F92AF92BF92CF92A1
:10071000DF92EF92FF920F931F93CF93DF93CDB7AA
:10072000DEB760970FB6F894DEBF0FBECDBF0E9454
:100730003C038CE00E94591690937D0380937C03C8
:100740008FE00E94A8159093890380938803BC01D1
:10075000990F880B990B1F921F921F922CE82F93D1
:10076000A12CB12C6501E12CF12C87012FEF33E096
:1007700040E050E00E940D190E947A1A6B017C0142
:100780000F900F900F900F9020E030E040E251E486
:100790000E94CB1987FDC7C620E030E040E752E455
:1007A000C701B6010E942A1B181634F4C12CD12CA3
:1007B00070E7E72E72E4F72E20E030E040E251E4EB
:1007C000C701B6010E94D019609308017093090116
:1007D00080930A0190930B018EE00E94A8159093DC
:1007E000870380938603BC01990F880B990B1F9296
:1007F0001F921F921F9258E2A52EB12CC12CD12C12
:10080000E12CF12C87012FEF33E040E050E00E9413
:100810000D190E947A1A6B017C010F900F900F90B6
:100820000F9020E030E040E050E40E94CB1987FDBB
:1008300081C620E030E040E252E4C701B6010E94E8
:100840002A1B181634F4C12CD12C40E2E42E42E4C9
:10085000F42E20E030E040E251E4C701B6010E94EE
:10086000D019609304017093050180930601909361
:10087000070186E00E94A815893E23E0920714F044
:1008800088EE93E08431910514F484E190E0909334
:10089000850380938403BC01990F880B990B1F92E9
:1008A0001F921F921F9218E7A12EB12CC12CD12CA0
:1008B00018EEE12E13E0F12E00E010E024E130E02C
:1008C00040E050E00E940D190E947A1A20E030E0CA
:1008D00040E251E40E94D019609350037093510399
:1008E000809352039093530387E00E94A8150F90C2
:1008F0000F900F900F90893E33E0930714F088EE2D
:1009000093E08431910514F484E190E090938303A3
:1009100080938203BC01990F880B990B2FEF2F93C3
:100920002F932F932CE92F93A4E6AA2EB12CC12C40
:10093000D12C18EEE12E13E0F12E00E010E024E1BE
:1009400030E040E050E00E940D192AE0269FA0010F
:10095000279F500D112450938F0340938E0380E105
:100960000E94A8150F900F900F900F90893EA3E062
:100970009A0714F088EE93E08431910514F484E131
:1009800090E09093810380938003BC01990F880BC2
:10099000990B1F921F921F9224E62F93A12CB12C2A
:1009A000650114E1E12EF12C00E010E028EE33E0C7
:1009B00040E050E00E940D190F900F900F900F90A3
:1009C0006536710514F064E670E06A30710514F460
:1009D0006AE070E02AE0269FC001279F900D112455
:1009E00090938B0380938A0381E10E94A815893E2E
:1009F000B3E09B0714F088EE93E08431910514F482
:100A000084E190E090937F0380937E03BC01990F73
:100A1000880B990B1F921F921F9224E62F93A12CF3
:100A2000B12C650114E1E12EF12C00E010E028EE7C
:100A300033E040E050E00E940D190F900F900F90AE
:100A40000F906135710514F060E570E06431710557
:100A500014F464E170E070930D0160930C016CE696
:100A6000C62E63E0D62E7EE6E72E73E0F72E00E773
:100A700013E022E733E044E753E066E773E083E303
:100A800093E00E947D144091040150910501609112
:100A90000601709107018DEE92E00E94040D26E69A
:100AA00036E646E65FE360910801709109018091A6
:100AB0000A0190910B010E942F1BAB01BC018DEE2E
:100AC00092E00E943B0D409104015091050160911C
:100AD00006017091070180ED92E00E94040D4091A3
:100AE00008015091090160910A0170910B0180ED9C
:100AF00092E00E943B0D80914303811121C56091DA
:100B0000700370917103719561957109072E000C46
:100B1000880B990B0E947A1AAB01BC018DEE92E012
:100B20000E94CF0D8DEE92E00E94D90E0E94421AD3
:100B3000709391036093900360916E0370916F03C3
:100B4000072E000C880B990B0E947A1AAB01BC018E
:100B500080ED92E00E94CF0D80ED92E00E94D90ED0
:100B60000E94421A709393036093920360919203E0
:100B700070919303072E000C880B990B1F921F9204
:100B800027E02F9330ED3F93A12CB12C650110EDA0
:100B9000E12E1AE8F12E0FEF1FEF20E335E740E0DA
:100BA00050E00E940D190E947A1A609358037093C6
:100BB000590380935A0390935B0360919003709163
:100BC0009103072E000C880B990B1F921F92A7E030
:100BD000AF93B0EDBF9310E8E12E17ECF12E0EEFBE
:100BE0001FEF20E838E341E050E00E940D190E9419
:100BF0007A1A60935403709355038093560390932D
:100C000057030E944F150FB6F894DEBF0FBECDBF3D
:100C10006838734181059105A8F160919403709142
:100C20009503613D87E0780714F060ED77E0643864
:100C300093E0790714F464E873E07093950360938C
:100C40009403072E000C880B990B1F921F9223E030
:100C50002F9324E82F932CE7A22E2CEFB22ECC2436
:100C6000CA94DC2C10EDE12E17E0F12E00E010E02C
:100C700024E833E040E050E00E940D190F900F90FF
:100C80000F900F9010928D0310928C03809054035C
:100C900090905503A0905603B0905703A50194017E
:100CA000C501B4010E942F1B6D877E878F87988BAB
:100CB0008091580390915903A0915A03B0915B031E
:100CC0008D839E83AF83B8879C01AD0160E070E0A7
:100CD0008AEF94E40E945E199B01AC010E942F1BD5
:100CE0006B017C012D853E854F8558890E945F19D7
:100CF0000E94A21B2B013C01809150039091510353
:100D0000A0915203B091530389839A83AB83BC8330
:100D100060918E0370918F03072E000C880B990B46
:100D20000E947A1A69877A878B879C8728EB36EC32
:100D300040EB54E4C301B2010E945E1929813A815B
:100D40004B815C810E942F1B28EB36EC40EB54E476
:100D50000E945F1929853A854B855C850E945F1941
:100D600020E030E0A9010E945F192B013C0120E046
:100D700030E0A9010E94CB1987FD04C420E030ECCB
:100D800040E355E4C301B2010E942A1B18163CF44B
:100D9000412C90EC592E90E3692E95E4792E4092E7
:100DA00068035092690360926A0370926B03A50115
:100DB000940160E070E08AEF94E40E945E199B0168
:100DC000AC010E942F1B4B015C01A70196010E9400
:100DD0005F190E94A21B28EB36EC40EB54E40E9402
:100DE0005E1929813A814B815C810E942F1B28EB7F
:100DF00036EC40EB54E40E945F1929853A854B8517
:100E00005C850E945F1920E030E0A9010E945F1913
:100E10006B017C0120E030E0A9010E94CB1987FD25
:100E2000B5C320E030EC40E355E4C701B6010E94B1
:100E30002A1B18163CF4C12C80ECD82E80E3E82E37
:100E400085E4F82EC0926403D0926503E0926603B5
:100E5000F09267032D813E814F815885CA01B90107
:100E60000E942F1B6D837E838F8398879B01AC012B
:100E70006D857E858F8598890E945F190E94A21BCF
:100E800028EB36EC40EB54E40E945E1929813A814C
:100E90004B815C810E942F1B28EB36EC40EB54E425
:100EA0000E945F1929853A854B855C850E945F19F0
:100EB00020E030E0A9010E945F196B017C0120E075
:100EC00030E0A9010E94CB1987FD64C320E030EC1B
:100ED00040E355E4C701B6010E942A1B18163CF4F2
:100EE000C12C00ECD02E00E3E02E05E4F02EC092E1
:100EF0006003D0926103E0926203F09263032D815C
:100F00003E814F815885C501B4010E945F190E943E
:100F1000A21B28EB36EC40EB54E40E945E192981B9
:100F20003A814B815C810E942F1B28EB36EC40EB11
:100F300054E40E945F1929853A854B855C850E949F
:100F40005F1920E030E0A9010E945F196B017C016C
:100F500020E030E0A9010E94CB1987FD1FC320E0EB
:100F600030EC40E355E4C701B6010E942A1B181675
:100F70003CF4C12C10ECD12E10E3E12E15E4F12E3F
:100F8000C0925C03D0925D03E0925E03F0925F0337
:100F900080910C0190910D0164E670E0681B790B63
:100FA000072E000C880B990B0E947A1A20E030E083
:100FB00048EC52E40E94D01969837A838B839C8326
:100FC00060918A0370918B03660F771F072E000CC8
:100FD000880B990B0E947A1A4B015C0129813A8196
:100FE0004B815C810E942F1B6B017C0120E030E073
:100FF000A9010E94CB1987FDD5C220E030E04AE765
:1010000054E4C701B6010E942A1B181634F4C12CFF
:10101000D12CAAE7EA2EA4E4FA2EC701B6010E9459
:10102000421A70937B0360937A0329813A814B8142
:101030005C8160E070E080E89FE30E945E19A5019A
:1010400094010E942F1B6B017C0120E030E0A9017C
:101050000E94CB1987FDAAC220E030E04AE754E4A1
:10106000C701B6010E942A1B181634F4C12CD12CDA
:10107000FAE7EF2EF4E4FF2EC701B6010E94421AF0
:10108000709379036093780324EF31E030939D03EC
:1010900020939C0384EC99E090939B0380939A03A4
:1010A000309399032093980390939703809396032A
:1010B000C301B2010E94421A1F921F9229E02F938E
:1010C00024EC2F9324EFA22EBB24B394C12CD12C5B
:1010D0001CE0E12E1BE0F12E00E010E020E030E00B
:1010E000A9010E940D190E947A1A609368037093F7
:1010F000690380936A0390936B03A0909A03B09066
:101100009B030B2C000CCC08DD08609164037091EC
:10111000650380916603909167030E94421A2091B3
:101120009C0330919D038901330F220B330B3F93B6
:101130002F931F930F931CE0E12E1BE0F12E00E094
:1011400010E020E030E0A9010E940D190E947A1AF7
:1011500060936403709365038093660390936703C1
:10116000A0909803B09099030B2C000CCC08DD08DC
:1011700060916003709161038091620390916303B9
:101180000E94421A20919603309197038901330FF0
:10119000220B330B3F932F931F930F931CE0E12EF1
:1011A0001BE0F12E00E010E020E030E0A9010E94F9
:1011B0000D190E947A1A6093600370936103809303
:1011C000620390936303A0909603B09097030B2C57
:1011D000000CCC08DD0860915C0370915D03809188
:1011E0005E0390915F030E94421A20919803309110
:1011F00099038901330F220B330B3F932F931F93D6
:101200000F931CE0E12E1BE0F12E00E010E020E047
:1012100030E0A9010E940D190E947A1A3B014C018D
:1012200080917A0390917B037C01A4E2EA1AAAEFF1
:10123000FA0A0091680310916903B0916A03BD83B3
:1012400020916B0329836CED75E0681B790B072EE9
:10125000000C880B990B0E947A1A5B016C010FB687
:10126000F894DEBF0FBECDBF9B01AC01B8018D81EC
:1012700099810E94CB1987FD9DC1B7010F2C000CED
:10128000880B990B0E947A1A1B012C019B01AC015F
:10129000B8018D8199810E942A1B18161CF48101C6
:1012A0004D825982C801AD81B981809368039093C2
:1012B0006903A0936A03B0936B03009164031091D8
:1012C0006503909166039D83A0916703A9839501AF
:1012D000A601B801892F9A2F0E94CB1987FD6EC1F4
:1012E000B701FF0C880B990B0E947A1A6B017C01E5
:1012F0009B01AC01B8018D8199810E942A1B1816AF
:101300001CF48601ED82F982C801AD81B981809318
:10131000640390936503A0936603B0936703809181
:101320007803909179035C01B4E2AB1ABAEFBB0A7F
:10133000209160032D8330916103398340906203D3
:10134000509063036CED75E0681B790B072E000C61
:10135000880B990B0E947A1A6B017C019B01AC01EE
:101360006D817981C2010E94CB1987FD2BC1B50126
:101370000B2C000C880B990B0E947A1A1B018C0114
:101380009B01AC016D817981C2010E942A1B181654
:101390001CF42D82398228018D819981D20180939C
:1013A000600390936103A0936203B093630396017B
:1013B000A701B301C4010E94CB1987FD12C0B5017A
:1013C000BB0C880B990B0E947A1A6B017C019B0164
:1013D000AC01B301C4010E942A1B181614F063016A
:1013E0007401C601D70180935C0390935D03A093C1
:1013F0005E03B0935F0388E391E00E94741C8D3E0E
:1014000009F05BC00E944F150E94781A20914C038E
:1014100030914D0340914E0350914F030E945E194D
:1014200020E030E040EA51E40E942A1B18160CF03C
:1014300044C0609168037091690380916A03909140
:101440006B030E94421A80E393E00E94CD0C6091EE
:1014500064037091650380916603909167030E9415
:10146000421A8DE293E00E94CD0C6091600370916E
:10147000610380916203909163030E94421A8AE2A1
:1014800093E00E94CD0C60915C0370915D038091AC
:101490005E0390915F030E94421A87E293E00E94EC
:1014A000CD0C0E944F150E94781A60934C037093E4
:1014B0004D0380934E0390934F038CE00E94591686
:1014C000892B09F083C064EA76E080E393E00E9410
:1014D000CD0C64EA76E08DE293E00E94CD0C64EAE4
:1014E00076E08AE293E00E94CD0C64EA76E087E23F
:1014F00093E060960FB6F894DEBF0FBECDBFDF91CC
:10150000CF911F910F91FF90EF90DF90CF90BF9000
:10151000AF909F908F907F906F905F904F903F9093
:101520002F900C94CD0CC12CD12C60E2E62E61E4FE
:10153000F62E42C9C12CD12CE12C30E4F32E89C9FE
:1015400060916E0370916F03072E000C880B990B4E
:101550000E947A1AAB01BC018DEE92E00E94CF0D81
:101560008DEE92E00E94D90E0E94421A7093910370
:101570006093900360917003709171037195619510
:101580007109DECA412C512C320109CCC12CD12C5D
:10159000760158CCC12CD12C7601A9CCC12CD12CF0
:1015A0007601EECCC12CD12C760137CDC12CD12CBB
:1015B000760162CD8501CD82D98274CE8501CD823E
:1015C000D982A2CECD82D9822701E6CE60960FB60F
:1015D000F894DEBF0FBECDBFDF91CF911F910F9169
:1015E000FF90EF90DF90CF90BF90AF909F908F9043
:1015F0007F906F905F904F903F902F900895CF9283
:10160000DF92EF92FF920F931F93E1EBF0E0859151
:101610009491E2EBF3E0918380838BE690E09383F7
:10162000828381E084831582168211861086E3EB23
:10163000F0E085919491E8EAF3E0918380838CE671
:1016400090E09383828382E08483158216821186E0
:101650001086E5EBF0E085919491EEE9F3E091835B
:1016600080838DE690E09383828384E08483158277
:1016700016821186108668E683E393E00E94641464
:1016800080E393E00E94330C8DE293E00E94330CE0
:101690008AE293E00E94330C87E293E00E94330CCD
:1016A000C12CD12C760100E010E020E83FE3B90125
:1016B000A8018AE093E00E94640D00E010E020E8B9
:1016C0003FE3B901A8018DEE92E00E94640D00E0B5
:1016D00010E020E83FE3B901A80180ED92E00E940C
:1016E000640D1F910F91FF90EF90DF90CF900895C0
:1016F0001F920F920FB60F9211242F933F934F9387
:101700005F936F937F938F939F93AF93BF93EF9369
:10171000FF938091C00387FF27C01092850010922D
:1017200084008091C0038F5F8093C0038091C003C9
:10173000082E000C990B2091BF032817190629F0D9
:1017400024F08091C0038C30DCF180918400909172
:101750008500049680349C4908F47BC08091840005
:1017600090918500049677C08091C003082E000CEC
:10177000990B2091BF032817190699F294F2E09172
:10178000C0038E2FEE0F990BFC01EE0FFF1FE80F29
:10179000F91FEF53FC4F808186FFC3CFE091C00358
:1017A0008E2FEE0F990BFC01EE0FFF1FE80FF91FB4
:1017B000EF53FC4F808160E08F730E942B16B1CFF6
:1017C0002091840030918500E091C0038E2FEE0FB0
:1017D000990BFC01EE0FFF1FE80FF91FEF53FC4FB1
:1017E00081819281820F931F90938900809388005A
:1017F000E091C0038E2FEE0F990BFC01EE0FFF1F3F
:10180000E80FF91FEF53FC4F808186FF11C0E09174
:10181000C0038E2FEE0F990BFC01EE0FFF1FE80F98
:10182000F91FEF53FC4F808161E08F730E942B16EC
:10183000FF91EF91BF91AF919F918F917F916F91A8
:101840005F914F913F912F910F900FBE0F901F907E
:10185000189580E49CE990938900809388008FEF2D
:101860008093C003E5CFFC019091BF039C3098F4B6
:1018700081E0890F8093BF039083892F90E0FC0162
:10188000EE0FFF1FE80FF91FEF53FC4F88EB9BE0B3
:101890009283818308958FEF80830895DF92EF9282
:1018A000FF920F931F93CF93DF93EC01D62E7A0113
:1018B000890188818C3008F067C061E08D2D0E941D
:1018C000EF158881282F30E0F901EE0FFF1FE20F9E
:1018D000F31FEF53FC4F9D2D9F736081607C692B3C
:1018E000608320E232E02E193F0937FF02C02D5FEE
:1018F0003F4F3595279535952795298320E639E083
:10190000201B310B37FF02C02D5F3F4F35952795C8
:10191000359527952A832CE0622F0E94071C829F11
:10192000B001112430E020E0AB01420F531FFA0157
:10193000EE0FFF1FE40FF51FEF53FC4F908196FD54
:1019400016C02F5F3F4F2C30310571F781110FC04A
:101950001092800082E080938100109285001092A6
:101960008400B19A80916F00826080936F00E8815B
:101970008E2F90E0FC01EE0FFF1FE80FF91FEF53D1
:10198000FC4F8081806480838881DF91CF911F919B
:101990000F91FF90EF90DF900895DC01EC91EC3017
:1019A00090F511968C91119728E830E0281B3109A9
:1019B00087FD3395220F331F220F331F62177307E2
:1019C00084F012968C9128E532E0281B310987FDBE
:1019D0003395220F331F220F331F621773070CF446
:1019E0009B0122503109220F331F4FB7F8948E2FDD
:1019F00090E0FC01EE0FFF1FE80FF91FEF53FC4FC3
:101A0000328321834FBF0895CF92DF92EF92FF92EE
:101A1000CF93DF93EC016A017B012FE632E143E8CB
:101A20005AE3CB01B6010E94CB1987FD11C020E01B
:101A300030E04AE754E4C701B6010E942A1B181699
:101A40007CF4C12CD12C8AE7E82E84E4F82E08C05F
:101A50009FE6C92E92E1D92E93E8E92E9AE3F92E5A
:101A6000C88AD98AEA8AFB8ADF91CF91FF90EF90EA
:101A7000DF90CF900895CF92DF92EF92FF92CF93B5
:101A8000DF93EC016A017B0120E030E0A901CB018A
:101A9000B6010E942A1B181624F0F7FAF094F7F802
:101AA000F0942BED3FE049EC50E4C701B6010E94F1
:101AB0002F1B6C8B7D8B8E8B9F8BDF91CF91FF903B
:101AC000EF90DF90CF9008958F929F92AF92BF9248
:101AD000CF92DF92EF92FF920F931F93CF93DF93FA
:101AE000EC014A015B01B901A801C882D982EA82EE
:101AF000FB821C821D821E821F82188E0E94040D92
:101B0000B501A401CE010E943B0D0E945B15698FB7
:101B10007A8F8B8F9C8FDF91CF911F910F91FF90C8
:101B2000EF90DF90CF90BF90AF909F908F900895EF
:101B3000EF92FF920F931F93CF93DF93EC01FB0182
:101B4000CA01B901188EE882F9820A831B83309793
:101B5000D1F42AE037ED43EA5FE30E942F1BAB018B
:101B6000BC01CE010E943B0D8DE790EDA3E1BFE3E8
:101B7000888B998BAA8BBB8BDF91CF911F910F9193
:101B8000FF90EF9008953197B9F7A901BC01CE01FC
:101B90000E943B0D81E894E0A5E3BFE3E9CF2F92DB
:101BA0003F924F925F926F927F928F929F92AF92ED
:101BB000BF92CF92DF92EF92FF920F931F93CF933A
:101BC000DF93CDB7DEB72A970FB6F894DEBF0FBE0E
:101BD000CDBF9A8789872A013B01DC011C964D9273
:101BE0005D926D927C921F970E945B156B017C0148
:101BF000E985FA85818D928DA38DB48DA70196011B
:101C0000281B390B4A0B5B0BCA01B9010E947A1AD7
:101C10002DEB37E346E855E30E942F1B4B015C0197
:101C2000A985BA855996CD92DD92ED92FC925C978A
:101C30005496CD90DD90ED90FC90579720E030E0E9
:101C4000A9010E94CB1987FDAFC0A701960160E0F2
:101C500070E080E89FE30E94D019162F072F382EDE
:101C6000292E262F372F482F592FB401C5010E9446
:101C70002A1B181624F0182D092D3A2C2B2CA701FD
:101C80009601C701B6010E942F1B6D837E838F834F
:101C90009887E985FA8584809580A680B780208121
:101CA00031814281538129833A834B835C839B0139
:101CB000AC01C301B2010E942F1B2B013C01E9853D
:101CC000FA852089318942895389C701B6010E946A
:101CD000D019A50194010E942F1B9B01AC01C301E7
:101CE000B2010E945E196B017C012D813E814F8102
:101CF000588569817A818B819C810E942F1B9B0171
:101D0000AC01C701B6010E945E19212F302F432D6F
:101D1000522D0E942F1BA50194010E945F196B0197
:101D20007C01AC019B01C501B4010E945F1920E058
:101D300030E040E05FE30E942F1BA985BA8518962A
:101D40006D937D938D939C931B97212F302F432D63
:101D5000522D0E942F1B29813A814B815C810E9468
:101D60005F19E985FA856083718382839383C482D6
:101D7000D582E682F7822A960FB6F894DEBF0FBEB0
:101D8000CDBFDF91CF911F910F91FF90EF90DF902A
:101D9000CF90BF90AF909F908F907F906F905F900B
:101DA0004F903F902F90089510E000E0312C212CAF
:101DB00066CFFC0160817181828193810895CF9308
:101DC000DF93A0EBB0E02C91EC012887E1EBF0E091
:101DD000208129878081887F82608083C0E7D0E06E
:101DE0008881816088838C918C7F8C938081877FB0
:101DF0008083DF91CF910895FC013FB7F894209143
:101E0000B200B89B0EC02091B20080819181A28166
:101E1000B3810196A11DB11D80839183A283B383F9
:101E2000B89A80819181A281B381BA2FA92F982F6E
:101E30008827820F911DA11DB11D84839583A683E0
:101E4000B7833FBF64817581868197810895FC01C6
:101E500040815181628173814F5F5F4F6F4F7F4F30
:101E6000408351836283738308951F920F920FB64C
:101E70000F9211242F933F934F935F936F937F9310
:101E80008F939F93AF93BF93EF93FF9385EE93E070
:101E90000E94270FFF91EF91BF91AF919F918F917A
:101EA0007F916F915F914F913F912F910F900FBE56
:101EB0000F901F901895E5EEF3E0108211821282C8
:101EC000138214821582168217820895FF920F934F
:101ED0001F93CF93DF93C62F042FF22E132F682F5B
:101EE0008FEE93E00E949F116C2F8FEE93E00E9483
:101EF0002D11CF2DD12F0C0F1D2F111DC017D10764
:101F000031F069918FEE93E00E942D11F7CF8FEEA3
:101F100093E00E94221291E0811190E0892FDF91DD
:101F2000CF911F910F91FF900895CF93DF931F9250
:101F3000CDB7DEB749839E012F5F3F4F41E00E943E
:101F4000660F0F90DF91CF9108953F924F925F926D
:101F50006F927F928F929F92AF92BF92CF92DF92B9
:101F6000EF92FF920F931F93CF93DF9300D000D097
:101F7000CDB7DEB78C83D62E4B833A8329830E945C
:101F80004F154B015C01312CC12C2B81E22EF12C21
:101F90002801712C612C8B81381608F049C06C81A6
:101FA0008FEE93E00E949F116D2D8FEE93E00E94C3
:101FB0002D118FEE93E00E9422126C818FEE93E040
:101FC0000E949F11A701431951094132510514F094
:101FD00040E250E06C818FEE93E00E941F128FEE82
:101FE00093E00E94CD10892BD9F00115110569F4F9
:101FF0008FEE93E00E94D410E981FA81EC0DF11D7F
:10200000C7FCFA958083C394EACF0E944F156819E4
:1020100079098A099B09641575058605970540F3BA
:102020008E2D91E2E916F1040CF080E2380EB3CF68
:1020300001151105C1F00E944F15681979098A0927
:102040009B0930E020E0601771078207930758F082
:102050008C2D0C2C000C990B2B812817190619F0CC
:1020600014F0CC24CA948C2D0F900F900F900F90E9
:10207000DF91CF911F910F91FF90EF90DF90CF9064
:10208000BF90AF909F908F907F906F905F904F9098
:102090003F9008950F931F9389019A0141E00E9498
:1020A000A50F1F910F910895EF92FF920F931F9329
:1020B000CF93DF931F92CDB7DEB7182F062FE42EF4
:1020C000F22E20910E0130910F01AE014F5F5F4F54
:1020D0000E944A1081E090E001C0880FEA94EAF77C
:1020E0004981FF2071F0482B4983602F812F0E9486
:1020F000950F0F90DF91CF911F910F91FF90EF906F
:10210000089580954823F0CFDF92EF92FF920F93CE
:102110001F93CF93DF931F92CDB7DEB7F82EE62E35
:10212000142FD22E20910E0130910F01AE014F5F7E
:102130005F4F0E944A10882359F1812F8D19990B06
:10214000AC014F5F5F4F81E090E002C0880F991FA4
:10215000DA94E2F70197042E01C0880F0A94EAF797
:1021600001C0000F4A95EAF7482F4095998149230D
:102170008023482B49836E2D8F2D0E94950F0F9041
:10218000DF91CF911F910F91FF90EF90DF90089515
:1021900080E0F5CF90E080E0089580912304909155
:1021A0002404891B990B08959091240480912304A1
:1021B0002FEF3FEF981748F4E92FF0E0EB5DFB4F6E
:1021C000208130E09F5F90932404C9010895E0913D
:1021D000240480912304E81730F4F0E0EB5DFB4F1A
:1021E000808190E008958FEF9FEF08950895CF9339
:1021F000DF93EC01E091FB03F091FC033097F1F0E9
:1022000090912404809123049817C0F090E0292F26
:1022100030E02617370754F4DE01A20FB31F4C91AC
:102220002B5D3B4FD9014C939F5FF1CF109224045B
:1022300060932304CB01DF91CF910994DF91CF917B
:102240000895E091FD03F091FE03309729F010927C
:1022500001041092000409940895CF93DF931F9214
:10226000CDB7DEB769832091FF032223F9F02091D7
:102270000004203258F021E030E0FC013383228357
:1022800090E080E00F90DF91CF910895809101045C
:10229000E82FF0E0EE5FFB4F998190838F5F809392
:1022A00001048093000481E090E0ECCF61E0CE0176
:1022B00001960E94F712F7CFCF92DF92EF92FF9232
:1022C0000F931F93CF93DF937C01CB018A01209161
:1022D000FF03222389F0EB016B01C40ED51ECC1540
:1022E000DD0569F06991D701ED91FC910190F081D4
:1022F000E02DC7010995F3CF642F0E94F712C801A2
:10230000DF91CF911F910F91FF90EF90DF90CF90D1
:102310000895109224041092230410920104109244
:1023200000040E94361281E291E10E94231387EF9C
:1023300090E10C941E13CB01BA010C94541281E06D
:102340008093FF0360932204109201041092000412
:1023500008950F93062F21E04091000462E074E09D
:10236000809122040E94A71210920104109200048E
:102370001092FF030F9108954F925F926F927F9298
:10238000AF92BF92CF92EF92FF920F931F93CF9392
:10239000DF935C01F62ED42F28013901EE2019F1CC
:1023A0000E949F11CE2DC43008F0C3E0C150B8F098
:1023B00028E0C29FC0011124A301920104C05695D8
:1023C0004795379527958A95D2F7B901D501ED91B3
:1023D000FC910190F081E02DC5010995E7CF60E007
:1023E000C5010E94A9114D2FD13208F040E22C2DD9
:1023F00065E274E08F2D0E9467121092240480938E
:102400002304DF91CF911F910F91FF90EF90CF9018
:10241000BF90AF907F906F905F904F900895CF9254
:10242000EF920F931F93C22EE12C00E010E0980171
:102430000E94BC111F910F91EF90CF90089521E061
:102440000C940F1261E00C94A911EFEEF3E01382EB
:10245000128288EE93E0A0E0B0E084839583A683A7
:10246000B7838CEA92E0918380830895109294045C
:1024700081E0809392041092910461E082E10E94D5
:102480002B1661E083E10E942B16E9EBF0E08081DE
:102490008E7F808380818D7F808388E48093B800E5
:1024A00085E48093BC0008959B01AC0160E074E278
:1024B00084EF90E00E94131C205131094109510919
:1024C00056954795379527952093B8000895413242
:1024D000E0F5909194049111FCCF91E090939404D5
:1024E000209392042FEF2093450470938C04609303
:1024F0008B0410928A04240F2093890490939304F0
:1025000090919304880F892B809393048091910478
:102510008130C9F410929104809193048093BB00A0
:102520008091BC0083FDF8CF85EC8093BC00809146
:1025300094048130E1F380918A04841710F440916F
:102540008A04842F089585EEF0CF40E0FACF0F93F0
:10255000413208F044C0909194049111FCCF92E074
:1025600090939404009392049FEF9093450470938A
:102570008C0460938B0410928A0440938904109217
:10258000930490919304880F892B809393048091F6
:102590009104813011F510929104809193048093FD
:1025A000BB008091BC0083FDF8CF85EC8093BC001C
:1025B000222321F0809194048230D1F3809145044C
:1025C0008F3F79F080914504803269F08091450415
:1025D000803359F084E00F91089585EEE7CF81E0D4
:1025E000FACF80E0F8CF82E0F6CF83E0F4CF2091FD
:1025F0006704260F3327331F21323105ECF4209175
:102600009404FC0190E080E0243069F082E00895B9
:10261000A09167042191AC0147595B4FA40FB52FDE
:10262000B11D2C930196861798F380916704680F6B
:102630006093670480E0089581E0089590938E048C
:1026400080938D0408959093900480938F0408954F
:1026500085ED8093BC008091BC0084FDFCCF10927E
:102660009404089585EC8093BC001092940408951E
:102670001F920F920FB60F9211242F933F934F93F7
:102680005F936F937F938F939F93AF93BF93EF93DA
:10269000FF938091B900887F803609F44CC008F020
:1026A0003FC0883209F4A8C018F5803109F49CC0F5
:1026B000B8F4882309F405C1883009F495C0FF9166
:1026C000EF91BF91AF919F918F917F916F915F91AA
:1026D0004F913F912F910F900FBE0F901F90189523
:1026E000883109F489C0803251F78093450415C0C0
:1026F000803409F4A6C048F48033B9F38833F9F67E
:10270000809345040E943213DACF803509F489C0E2
:10271000883509F49EC0883491F60E942813CFCFE3
:10272000883909F494C038F5883729F050F4883690
:1027300011F0803721F683E08093940410924604D0
:1027400057C0883809F483C0803919F0803809F0FF
:10275000B6CF80914604803208F079C0E0914604FB
:1027600081E08E0F809346048091BB00F0E0E95B2E
:10277000FB4F80833DC0803B39F0E0F4803A09F4A0
:1027800085C0883A09F09BCF84E08093940410922E
:10279000680410926704E0918F04F0919004099509
:1027A0008091670481110FC081E0809367041092CB
:1027B000690409C0803C09F482C0883C09F47FC0E8
:1027C000883B09F07CCFE091680481E08E0F809314
:1027D0006804F0E0E759FB4F80818093BB00909143
:1027E00068048091670431C0809193048093BB009A
:1027F00085EC8093BC0063CF90918A04809189041A
:102800009817B8F580918B0490918C04E0918A041C
:1028100021E02E0F20938A04E80FF92FF11D80810B
:10282000E5CF20918B0430918C04E0918A0481E003
:102830008E0F80938A048091BB00E20FF32FF11D6D
:10284000808390918A0480918904981788F285E8A2
:10285000D0CF20918B0430918C04E0918A0481E0E8
:102860008E0F80938A048091BB00E20FF32FF11D3D
:10287000808380919204811150CF81E080939104F4
:1028800084EA8093BC001092940419CF0E94321302
:1028900080914604803230F4E0914604F0E0E95B38
:1028A000FB4F10826091460470E0E0918D04F0913E
:1028B0008E0487E494E009951092460400CF85ECDD
:1028C000E0CF1092450429CFFC01608308950F9357
:1028D000062F22E044E06BE1FC0180810E9484101D
:1028E0000F9108950F93062F22E044E06CE1FC0164
:1028F00080810E9484100F9108954F925F926F9291
:102900007F928F929F92AF92BF92CF92DF92EF927F
:10291000FF920F931F93CF93DF93EC013B014A018A
:102920005901280100910E0110910F019C012F5FA8
:102930003F4F4EE06BE388810E94A50F89819A8109
:10294000982789279827F301918380838B819C8125
:10295000982789279827F401918380838D819E8110
:10296000982789279827F5019183808389859A85FF
:10297000982789279827F201918380838B859C85EE
:10298000982789279827F701918380838D859E85D5
:10299000982789279827F60191838083DF91CF912B
:1029A0001F910F91FF90EF90DF90CF90BF90AF906D
:1029B0009F908F907F906F905F904F900895262FFB
:1029C00046E06BE6FC0180810C9454100F93062FB7
:1029D00023E042E06BE6FC0180810E9484100F91AD
:1029E0000895CF93DF93EC0161E00E94E61460E06C
:1029F000CE010E94671460E0CE010E94721460E074
:102A0000CE01DF91CF910C94DF141F920F920FB67D
:102A10000F9211242F933F938F939F93AF93BF9364
:102A200080919A0490919B04A0919C04B0919D0484
:102A30003091990423E0230F2D3768F126E8230F06
:102A40000296A11DB11D2093990480939A0490933E
:102A50009B04A0939C04B0939D0480919504909155
:102A60009604A0919704B09198040196A11DB11D00
:102A70008093950490939604A0939704B093980440
:102A8000BF91AF919F918F913F912F910F900FBE6A
:102A90000F901F9018950196A11DB11DD4CF2FB78F
:102AA000F89460919A0470919B0480919C04909199
:102AB0009D042FBF08953FB7F8948091950490919D
:102AC0009604A0919704B091980426B5A89B05C0E0
:102AD0002F3F19F00196A11DB11D3FBFBA2FA92F9D
:102AE000982F8827BC01CD01620F711D811D911D9A
:102AF00042E0660F771F881F991F4A95D1F7089506
:102B0000789484B5836084BD85B5836085BDEEE629
:102B1000F0E0808181608083E1E8F0E082E0808302
:102B2000808181608083E0E8F0E080818160808343
:102B3000E1EBF0E0808184608083E0EBF0E0808175
:102B40008160808387E880937A001092C1000895A5
:102B5000883020F08D3008F48DE08E5020911001E7
:102B600090E4299F900111248770822B80937C0030
:102B700080917A00806480937A0080917A0086FD4B
:102B8000FCCF80917800909179000895843081F095
:102B900028F48230E9F08330F9F00895883071F03C
:102BA000893091F08530B9F4809180008F7D03C029
:102BB000809180008F778093800008958091B0008D
:102BC0008F778093B00008958091B0008F7DF9CF0A
:102BD00084B58F7784BD089584B58F7DFBCFCF9367
:102BE000DF9390E0FC01E158FF4F24918A569F4FFC
:102BF000FC0184918823C9F090E0880F991FFC01A3
:102C0000EF53FF4FA591B491FC01E954FF4FC591DB
:102C1000D49161110DC09FB7F8948C9120958223B7
:102C20008C938881282328839FBFDF91CF910895BB
:102C3000623051F49FB7F8943C91822F80958323A2
:102C40008C93E8812E2BEFCF8FB7F894EC912E2B3D
:102C50002C938FBFEACF1F93CF93DF93282F30E0C1
:102C6000F901E859FF4F8491F901E158FF4FD491E0
:102C7000F901EA56FF4FC491CC23A9F0162F811118
:102C80000E94C615EC2FF0E0EE0FFF1FE954FF4F36
:102C9000A591B4918FB7F894EC91111108C0D0951B
:102CA000DE23DC938FBFDF91CF911F910895DE2B40
:102CB000F8CFCF93DF93282F30E0F901E859FF4F89
:102CC0008491F901E158FF4FD491F901EA56FF4F81
:102CD000C491CC23A1F081110E94C615EC2FF0E025
:102CE000EE0FFF1FE355FF4FA591B491EC91ED233B
:102CF00081E090E009F480E0DF91CF91089580E0D9
:102D000090E0FACFFC01918D228D892F90E0805CBC
:102D10009F4F821B91098F7399270895FC01918D14
:102D2000828D981731F0828DE80FF11D858D90E02E
:102D300008958FEF9FEF0895FC01918D828D981774
:102D400061F0A28DAE0FBF2FB11D5D968C91928D5B
:102D50009F5F9F73928F90E008958FEF9FEF08958C
:102D6000FC01538D448D252F30E0842F90E0821B91
:102D7000930B541710F0CF960895019708958CE0A7
:102D800098E1892B49F080E090E0892B29F00E949E
:102D90000C1881110C9400000895FC01A48DA80F5B
:102DA000B92FB11DA35ABF4F2C91848D90E001968D
:102DB0008F739927848FA689B7892C93A089B189AD
:102DC0008C91837080648C93938D848D981306C04E
:102DD0000288F389E02D80818F7D80830895CF93D1
:102DE000DF93EC01888D8823B9F0AA89BB89E88933
:102DF000F9898C9185FD03C0808186FD0DC00FB6D9
:102E000007FCF7CF8C9185FFF2CF808185FFEDCF56
:102E1000CE010E94CD16E9CFDF91CF910895EF92B8
:102E2000FF920F931F93CF93DF93EC0181E0888F84
:102E30009B8D8C8D98131AC0E889F989808185FF54
:102E400015C09FB7F894EE89FF896083E889F989F6
:102E500080818370806480839FBF81E090E0DF91F8
:102E6000CF911F910F91FF90EF900895F62E0B8D4B
:102E700010E00F5F1F4F0F731127E02E8C8D8E1106
:102E80000CC00FB607FCFACFE889F989808185FF6D
:102E9000F5CFCE010E94CD16F1CFEB8DEC0FFD2FBB
:102EA000F11DE35AFF4FF0829FB7F8940B8FEA8928
:102EB000FB8980818062CFCFCF92DF92EF92FF9229
:102EC0001F93CF93DF93EC016A017B01122FE889F6
:102ED000F98982E08083C11481EED806E104F1040F
:102EE000A1F060E079E08DE390E0A70196010E94F7
:102EF000131C2150310941095109569547953795C1
:102F00002795211580E1380798F0E889F989108222
:102F100060E874E88EE190E0A70196010E94131C1E
:102F20002150310941095109569547953795279503
:102F3000EC85FD853083EE85FF852083188EEC8936
:102F4000FD891083EA89FB89808188698083EA8909
:102F5000FB8980818F7D8083DF91CF911F91FF90CE
:102F6000EF90DF90CF9008951F920F920FB60F92BF
:102F700011242F938F939F93EF93FF93E091AE04CF
:102F8000F091AF048081E091B404F091B50482FD2A
:102F90001BC090818091B7048F5F8F732091B8041C
:102FA000821741F0E091B704F0E0E256FB4F958FB5
:102FB0008093B704FF91EF919F918F912F910F9084
:102FC0000FBE0F901F9018958081F4CF1F920F9223
:102FD0000FB60F9211242F933F934F935F936F93EC
:102FE0007F938F939F93AF93BF93EF93FF938EE95C
:102FF00094E00E94CD16FF91EF91BF91AF919F9108
:103000008F917F916F915F914F913F912F910F9091
:103010000FBE0F901F9018958EE994E00E948216C3
:1030200021E0892B09F420E0822F0895EEE9F4E0F5
:103030001382128288EE93E0A0E0B0E0848395834F
:10304000A683B7838EEB92E09183808385EC90E03A
:103050009587848784EC90E09787868780EC90E062
:10306000918B808B81EC90E0938B828B82EC90E053
:10307000958B848B86EC90E0978B868B118E128ECD
:10308000138E148E0895AF92BF92CF92DF92EF927B
:10309000FF920F931F93CF93DF936C017B018B0102
:1030A000040F151FEB015E01AE18BF08C017D10752
:1030B00059F06991D601ED91FC910190F081E02DDC
:1030C000C6010995892B79F7C501DF91CF911F9131
:1030D0000F91FF90EF90DF90CF90BF90AF90089549
:1030E000FB0101900020E9F73197AF01461B570B18
:1030F000DC01ED91FC910280F381E02D09946115D2
:10310000710511F00C94701890E080E008956CEC5B
:1031100072E00C9470180F931F93CF93DF938C0180
:10312000D0E0C0E06115710519F00E947018EC0143
:10313000C8010E9487188C0F9D1FDF91CF911F91AE
:103140000F9108958F929F92AF92BF92EF92FF924C
:103150000F931F93CF93DF93CDB7DEB7A1970FB631
:10316000F894DEBF0FBECDBF7C01FA01CB0119A2DE
:10317000223008F42AE08E010F5D1F4F822E912C21
:10318000B12CA12CBF01A50194010E94131CF901CF
:10319000CA016A300CF5605DD8016E938D01232B56
:1031A000242B252B79F790E080E0109721F0BD01CA
:1031B000C7010E947018A1960FB6F894DEBF0FBE2B
:1031C000CDBFDF91CF911F910F91FF90EF90BF90F6
:1031D000AF909F908F900895695CDECF21153105E7
:1031E00041F4DC01ED91FC910190F081E02D642F20
:1031F00009940C94A2180F931F93CF93DF93EC01C3
:103200000E94EE188C01CE010E948718800F911F3A
:10321000DF91CF911F910F9108954F925F926F921E
:103220007F92AF92BF92CF92DF92EF92FF920F9375
:103230001F93CF93DF93CDB7DEB729013A019B01EE
:10324000AC01241935094609570989899A89AB893E
:10325000BC89BC01CD016A197B098C099D090E94BA
:10326000F71BA801970124193509460957090E943F
:10327000351CCA01B9016A0D7B1D8C1D9D1DDF9196
:10328000CF911F910F91FF90EF90DF90CF90BF9063
:10329000AF907F906F905F904F90089508950E9437
:1032A00080150E944E190E946D01CFEBD6E10E945D
:1032B0007D032097E1F30E94BF16F9CF5058BB273A
:1032C000AA270E9476190C94F01A0E94E21A38F08C
:1032D0000E94E91A20F039F49F3F19F426F40C9467
:1032E000DF1A0EF4E095E7FB0C94D91AE92F0E943F
:1032F000011B58F3BA17620773078407950720F07C
:1033000079F4A6F50C94231B0EF4E0950B2EBA2F3E
:10331000A02D0B01B90190010C01CA01A0011124DB
:10332000FF27591B99F0593F50F4503E68F11A1687
:10333000F040A22F232F342F4427585FF3CF469518
:1033400037952795A795F0405395C9F77EF41F163A
:10335000BA0B620B730B840BBAF09150A1F0FF0F04
:10336000BB1F661F771F881FC2F70EC0BA0F621FF0
:10337000731F841F48F4879577956795B795F795E0
:103380009E3F08F0B0CF9395880F08F09927EE0F75
:103390009795879508950E94B51A08F481E00895DD
:1033A0000E94E4190C94F01A0E94E91A58F00E9445
:1033B000E21A40F029F45F3F29F00C94D91A511118
:1033C0000C94241B0C94DF1A0E94011B68F39923B0
:1033D000B1F3552391F3951B550BBB27AA27621711
:1033E0007307840738F09F5F5F4F220F331F441F1E
:1033F000AA1FA9F335D00E2E3AF0E0E832D0915052
:103400005040E695001CCAF72BD0FE2F29D0660F3E
:10341000771F881FBB1F261737074807AB07B0E881
:1034200009F0BB0B802DBF01FF2793585F4F3AF087
:103430009E3F510578F00C94D91A0C94241B5F3FE1
:10344000E4F3983ED4F3869577956795B795F7950D
:103450009F5FC9F7880F911D9695879597F90895F5
:10346000E1E0660F771F881FBB1F62177307840791
:10347000BA0720F0621B730B840BBA0BEE1F88F7A0
:10348000E09508950E94491A6894B1110C94241B88
:1034900008950E94091B88F09F5798F0B92F99272B
:1034A000B751B0F0E1F0660F771F881F991F1AF02F
:1034B000BA95C9F714C0B13091F00E94231BB1E056
:1034C00008950C94231B672F782F8827B85F39F055
:1034D000B93FCCF3869577956795B395D9F73EF4C8
:1034E00090958095709561957F4F8F4F9F4F089570
:1034F000E89409C097FB3EF490958095709561958E
:103500007F4F8F4F9F4F9923A9F0F92F96E9BB2743
:103510009395F695879577956795B795F111F8CFBF
:10352000FAF4BB0F11F460FF1BC06F5F7F4F8F4F2A
:103530009F4F16C0882311F096E911C0772321F020
:103540009EE8872F762F05C0662371F096E8862FB8
:1035500070E060E02AF09A95660F771F881FDAF70F
:10356000880F9695879597F90895990F0008550F3C
:10357000AA0BE0E8FEEF16161706E807F907C0F0F9
:1035800012161306E407F50798F0621B730B840B01
:10359000950B39F40A2661F0232B242B252B21F4DB
:1035A00008950A2609F4A140A6958FEF811D811D7B
:1035B000089597F99F6780E870E060E008959FEFB5
:1035C00080EC089500240A941616170618060906BA
:1035D000089500240A941216130614060506089589
:1035E000092E0394000C11F4882352F0BB0F40F411
:1035F000BF2B11F460FF04C06F5F7F4F8F4F9F4F51
:10360000089557FD9058440F551F59F05F3F71F0D2
:103610004795880F97FB991F61F09F3F79F0879539
:103620000895121613061406551FF2CF4695F1DFC2
:1036300008C0161617061806991FF1CF8695710552
:10364000610508940895E894BB2766277727CB0186
:1036500097F908950E94B51A08F48FEF08950E9413
:10366000421B0C94F01A0E94E21A38F00E94E91AE8
:1036700020F0952311F00C94D91A0C94DF1A112420
:103680000C94241B0E94011B70F3959FC1F3950FAE
:1036900050E0551F629FF001729FBB27F00DB11DD6
:1036A000639FAA27F00DB11DAA1F649F6627B00D66
:1036B000A11D661F829F2227B00DA11D621F739F4F
:1036C000B00DA11D621F839FA00D611D221F749F5D
:1036D0003327A00D611D231F849F600D211D822FA4
:1036E000762F6A2F11249F5750409AF0F1F08823CB
:1036F0004AF0EE0FFF1FBB1F661F771F881F9150F8
:103700005040A9F79E3F510580F00C94D91A0C94B3
:10371000241B5F3FE4F3983ED4F386957795679535
:10372000B795F795E7959F5FC1F7FE2B880F911D21
:103730009695879597F9089519F416F40C94DF1A65
:103740000C94E21B0E94091BB8F39923C9F3B6F34A
:103750009F57550B87FF0E94F01B0024A0E640EA0C
:10376000900180585695979528F4805C660F771FD6
:10377000881F20F026173707480730F4621B730BA9
:10378000840B202931294A2BA695179407942025CC
:1037900031254A2758F7660F771F881F20F0261714
:1037A0003707480730F4620B730B840B200D311D73
:1037B000411DA09581F7B901842F9158880F9695E6
:1037C000879508959F3F31F0915020F48795779524
:1037D0006795B795880F911D9695879597F90895E8
:1037E00091505040660F771F881FD2F70895DB0174
:1037F0008F939F930E94541CBF91AF91A29F800D05
:10380000911DA39F900DB29F900D11240895991BB7
:1038100079E004C0991F961708F0961B881F7A95C7
:10382000C9F780950895A1E21A2EAA1BBB1BFD01C2
:103830000DC0AA1FBB1FEE1FFF1FA217B307E4078F
:10384000F50720F0A21BB30BE40BF50B661F771FE7
:10385000881F991F1A9469F76095709580959095C7
:103860009B01AC01BD01CF010895052E97FB1EF40D
:1038700000940E944C1C57FD07D00E94131C07FCAB
:1038800003D04EF40C944C1C5095409530952195E6
:103890003F4F4F4F5F4F089590958095709561957C
:1038A0007F4F8F4F9F4F08950E94651CA59F900DDD
:1038B000B49F900DA49F800D911D11240895EE0FCB
:1038C000FF1F0590F491E02D0994A29FB001B39FD2
:1038D000C001A39F700D811D1124911DB29F700D19
:1038E000811D1124911D0895F999FECF92BD81BDCE
:1038F000F89A992780B50895262FF999FECF1FBA17
:1039000092BD81BD20BD0FB6F894FA9AF99A0FBE08
:0839100001960895F894FFCF21
:1039180040420F00CDCC4C3E000000403200E8038E
:103928000153555045525343414C453230323020B3
:10393800435241574C4552204649524D57415245F2
:1039480020312E3237202020202000414456414E7D
:103958004345442053455454494E47533A00536510
:103968007269616C206F757470757420697320209A
:103978002020200064697361626C65640048656991
:1039880067687420636F6E74726F6C20697320208F
:1039980020202020200046726F6E74207365727696
:1039A8006F732072657665727365206973202020B5
:1039B80020202020005265617220736572766F7333
:1039C8002072657665727365206973202020202037
:1039D8000053797374656D2069732073657420745E
:1039E8006F20626520706C61636564207769746814
:1039F800206172726F7720706F696E74696E6720CC
:103A08002020202000746F20746865207269676820
:103A18007400666F727761726400506F7765722008
:103A28007570206F72207265737461727420746887
:103A3800652073797374656D207768696C65206893
:103A48006F6C64696E6720646F776E207468652098
:103A58005320627574746F6E20746F206368616E92
:103A6800676520746869732073657474696E67008C
:103A7800507265737320746865205320627574747E
:103A88006F6E20746F20746573742074686520737A
:103A98006572766F7320616E64206272616B652057
:103AA8006C69676874206F75747075740053455439
:103AB800555020444F4E4500000000002D115C1168
:103AC800CA10F610CD10D410E710000000000F1730
:103AD8004318B016EF1682169C168E160D0A0000B3
:00000001FF
