:100000000C946A000C9492000C9492000C94490297
:100010000C9476020C94A3020C9492000C9492001F
:100020000C9492000C9479110C9492000C94BC0DD9
:100030000C9492000C9492000C9492000C949200F8
:100040000C9449170C9492000C94A0190C94D2199A
:100050000C9492000C9492000C9492000C949200D8
:100060000C947C150C94920000000009000302001F
:10007000000405080000000000000000000000016E
:10008000020408102040800102040810200102042C
:100090000810204080400404040404040404020204
:1000A000020202020303030303030202030000002F
:1000B0000023002600290000000000250028002B56
:1000C0000000000000240027002A00003F0D9F11BF
:1000D0006914021A11241FBECFEFD8E0DEBFCDBFD6
:1000E00012E0A0E0B1E0E4EDF1E402C005900D9271
:1000F000A431B107D9F724E0A4E1B2E001C01D9218
:10010000A539B207E1F710E0CAE6D0E004C02197B4
:10011000FE010E94981FC636D107C9F70E947D1CB8
:100120000C94E8200C940000CF93DF93FC01DB01DA
:1001300012962C93129711965C934E93C281D381A1
:10014000888113969C911397892B888312968C91A2
:100150001297982F9D7F913031F4958113962C91B1
:100160001397922B95838150823028F486811396C1
:100170009C91892B8683809168009481892B809340
:100180006800DF91CF910895CF92DF92EF92FF92B6
:100190000F931F93CF93DF938C01D62E7A01C22E3B
:1001A000FC01C085D1852097A1F587E090E00E94F1
:1001B0008C1CDC0111961C921E9212961C921297B6
:1001C0008FEF109781F11496DC9214971296CC92CF
:1001D000129716961C921E921597ED2DF0E0E1589D
:1001E000FF4FE4911396EC931397F8018085918566
:1001F000892B11F5B187A0872C2DA701BD01C8015E
:100200000E94940081E00FC08D819E81009769F269
:10021000EC018C818D11F8CF2C2DA701BE01C801F6
:100220000E94940080E0DF91CF911F910F91FF9089
:10023000EF90DF90CF900895BE83AD83DDCF242F64
:10024000E82FF0E0EA56FF4FE491EE23D9F0611574
:100250007105C1F0E250FF0BE330F10580F4EE0FC1
:10026000FF1FE552FE4F0190F081E02DA081B1818A
:100270009C919783AB01682FCF010C94C400F0E0F0
:10028000E0E0F4CF8FEF0895CF93DF9390E0FC018F
:10029000EA56FF4FE491EE2309F444C0E250FF0B0D
:1002A000B0E0A0E0E330F10530F4EE0FFF1FE552BF
:1002B000FE4FA081B18181589F4FFC018491189617
:1002C000CD91DC911997209769F19B8198132DC0EE
:1002D0002FB7F8941296ED91FC9113979081809529
:1002E000892380831296ED91FC911397808181116F
:1002F00009C09091680014968C9114978095892379
:100300008093680015969C9115978B818095982312
:1003100015969C93159716969C9116978923169679
:100320008C932FBFDF91CF9108950D80DE81C02D7A
:10033000CACFCF93DF938091130390E09093C802CC
:100340008093C7028BE393E00E94401196958795B6
:10035000779567956093BB027093BC028093BD0252
:100360009093BE02C7ECD2E088810E94440142E033
:1003700050E060EC71E08881DF91CF910C941F0117
:100380000F931F93CF93DF938091130390E090938B
:10039000C8028093C7028BE393E00E9440119695B8
:1003A0008795779567950091BB021091BC022091CB
:1003B000BD023091BE02601B710B820B930B6093E8
:1003C000BF027093C0028093C1029093C202C7EC37
:1003D000D2E088810E94440143E050E069E971E085
:1003E0008881DF91CF911F910F910C941F01FF9293
:1003F0000F931F93CF93DF938C01D80117968C91A5
:1004000017972091140315969C911597309114031A
:1004100016964C911697C0911403C095C42393234C
:10042000C92B8227FC2EF8228091140317968C93F7
:1004300017971896CD91DC912097B1F08B81982F6A
:100440009F2171F090911403892391E009F490E0C9
:10045000909312038C8180931303E881F9810995AD
:100460000D80DE81C02DE8CF9BB3F80184819823F5
:1004700051F09BB3892B8BBB0190F081E02D8081E3
:1004800080931403BACFDF91CF911F910F91FF900A
:1004900008951F920F920FB60F9211242F933F933E
:1004A0004F935F936F937F938F939F93AF93BF937C
:1004B000EF93FF93E0910803F0910903808180930B
:1004C000140388E093E00E94F701FF91EF91BF9140
:1004D000AF919F918F917F916F915F914F913F91DC
:1004E0002F910F900FBE0F901F9018951F920F9293
:1004F0000FB60F9211242F933F934F935F936F93F7
:100500007F938F939F93AF93BF93EF93FF93E0916C
:10051000FE02F091FF028081809314038EEF92E03F
:100520000E94F701FF91EF91BF91AF919F918F9141
:100530007F916F915F914F913F912F910F900FBEDF
:100540000F901F9018951F920F920FB60F921124C3
:100550002F933F934F935F936F937F938F939F93CB
:10056000AF93BF93EF93FF93E091F402F091F50204
:1005700080818093140384EF92E00E94F701FF9141
:10058000EF91BF91AF919F918F917F916F915F910B
:100590004F913F912F910F900FBE0F901F90189584
:1005A000AF92BF92CF92DF92EF92FF920F931F9381
:1005B0008BE393E00E94231163E171E084EF93E009
:1005C0000E947E1A6CE371E084EF93E00E947E1A31
:1005D00062E08CE00E94331860E080E10E943318F2
:1005E00060E081E10E94331860E082E10E943318EC
:1005F00060E087E00E94331881E090E00E94D22002
:10060000813009F02DC1809314028CE00E949D1866
:10061000892B61F480911402882309F424C160E0DD
:1006200081E090E00E94DA201092140285E493E0C9
:100630000E94CD1340E85AE166E070E085E493E063
:100640000E94DF1362E087E00E94331843E050E02D
:1006500069E971E087E00E941F018BE393E00E944B
:10066000401196958795779567956093C30270932F
:10067000C4028093C5029093C60285ED92E00E9469
:1006800035178EE00E94EC1790932C0280932B027A
:10069000BC01990F880B990B1F921F921F921F92FA
:1006A00038E2A32EB12CC12CD12CE12CF12C8701E6
:1006B0002FEF33E040E050E00E943B1C0E94AE1D53
:1006C00020E030E040E251E40E94041D6093080104
:1006D0007093090180930A0190930B018FE00E94AF
:1006E000EC1790932E0280932D02BC01990F880B7A
:1006F000990B1F921F921F922CE82F93A12CB12CC3
:1007000065012FEF33E040E050E00E943B1C0E9467
:10071000AE1D20E030E040E251E40E94041D6093F1
:100720000C0170930D0180930E0190930F01E12C49
:10073000F12C870120E030E040E050E461E070E01F
:1007400089E692E00E94DC0F4DEC5CEC6CE47EE309
:1007500089E692E00E94480F26E636E646E65FE329
:1007600060910C0170910D0180910E0190910F012B
:100770000E94631E9B01AC0161E070E08CE492E09A
:100780000E94DC0F409108015091090160910A011B
:1007900070910B018CE492E00E94480F20910C01B3
:1007A00030910D0140910E0150910F0161E070E018
:1007B0008FE292E00E94DC0F409108015091090104
:1007C00060910A0170910B018FE292E00E94480F44
:1007D00024EC39E040E951E069E070E080EA92E021
:1007E0000E94920E24EC39E040E951E066E070E0AE
:1007F0008DE992E00E94920E24EC39E040E951E04C
:1008000065E070E08AE992E00E94920E24EC39E003
:1008100040E951E063E070E087E992E00E94920EC7
:1008200024EC39E040E951E068E070E084E992E0CE
:100830000E94920E8DB79EB708960FB6F8949EBF91
:100840000FBE8DBF62E971E084EF93E01F910F91BD
:10085000FF90EF90DF90CF90BF90AF900C947E1AF6
:1008600010921402D2CE61E081E090E00E94DA2082
:1008700081E080931402DACE2F923F924F925F92E2
:100880006F927F928F929F92AF92BF92CF92DF92A0
:10089000EF92FF920F931F93CF93DF93CDB7DEB705
:1008A0006C970FB6F894DEBF0FBECDBF8CE00E94F0
:1008B0009D1890932202809321028FE00E94EC17F2
:1008C00090932E0280932D028EE00E94EC1790935D
:1008D0002C0280932B0286E00E94EC17893E23E0D5
:1008E000920714F088EE93E08431910514F484E1CA
:1008F00090E090932A028093290287E00E94EC17EF
:10090000893E33E0930714F088EE93E0843191053B
:1009100014F484E190E0909328028093270280E110
:100920000E94EC17893EA3E09A0714F088EE93E04A
:100930008431910514F484E190E090932602809331
:10094000250281E10E94EC17893EB3E09B0714F079
:1009500088EE93E08431910514F484E190E0909363
:1009600024028093230260912D0270912E02072EA3
:10097000000C880B990B1F921F921F922CE82F934B
:10098000A12CB12C6501E12CF12C87012FEF33E074
:1009900040E050E00E943B1C0E94AE1D6B017C01B8
:1009A0000F900F900F900F9020E030E040E251E464
:1009B0000E94FF1C87FDCEC720E030E040E752E4F4
:1009C000C701B6010E945E1E181634F4C12CD12C4A
:1009D000A0E7EA2EA2E4FA2E20E030E040E251E463
:1009E000C701B6010E94041D60930C0170930D01B4
:1009F00080930E0190930F0160912B0270912C0255
:100A0000072E000C880B990B1F921F921F921F92AA
:100A1000E8E2AE2EB12CC12CD12CE12CF12C8701B7
:100A20002FEF33E040E050E00E943B1C0E94AE1DDF
:100A30006B017C010F900F900F900F9020E030E041
:100A400040E050E40E94FF1C87FD8BC720E030E0AF
:100A500040E252E4C701B6010E945E1E181634F44B
:100A6000C12CD12C60E2E62E62E4F62E20E030E0CC
:100A700040E251E4C701B6010E94041D60930801E1
:100A80007093090180930A0190930B0160912902F0
:100A900070912A02072E000C880B990B1F921F924F
:100AA0001F921F9210E5A12EB12CC12CD12C18EE53
:100AB000E12E13E0F12E00E010E024E130E040E010
:100AC00050E00E943B1C0E94AE1D20E030E040E25E
:100AD00051E40E94041D60939002709391028093F0
:100AE0009202909393026091270270912802072E40
:100AF000000C880B990B2FEF2F932F932F932CE93A
:100B00002F9334E6A32EB12CC12CD12C24E130E05C
:100B100040E050E00E943B1C2AE0269FA001279F56
:100B2000500D112450938F0240938E026091230246
:100B300070912402072E000C880B990B1F921F92B4
:100B40001F9224E62F93A12CB12C650114E1E12E14
:100B5000F12C00E010E028EE33E040E050E00E948D
:100B60003B1C0FB6F894DEBF0FBECDBF61357105DB
:100B700014F060E570E06431710514F464E170E034
:100B8000709307016093060160912502709126021F
:100B9000072E000C880B990B1F921F921F9224E6C0
:100BA0002F93A12CB12C650114E1E12EF12C00E072
:100BB00010E028EE33E040E050E00E943B1C0F9034
:100BC0000F900F900F906536710514F064E670E099
:100BD0006A30710514F46AE070E02AE0269FC001D3
:100BE000279F900D11249093870280938602F9EC41
:100BF000CF2EF2E0DF2EABECEA2EA2E0FA2E0DECC7
:100C000012E02FEC32E041ED52E063ED72E085ED51
:100C100092E00E94C1164091080150910901609133
:100C20000A0170910B018CE492E00E94480F26E6C5
:100C300036E646E65FE360910C0170910D0180910C
:100C40000E0190910F010E94631EAB01BC018CE468
:100C500092E00E947F0F409108015091090160913C
:100C60000A0170910B018FE292E00E94480F4091BF
:100C70000C0150910D0160910E0170910F018FE2F6
:100C800092E00E947F0F6091BF027091C00280913C
:100C9000C1029091C2020E94AE1DAB01BC0189E667
:100CA00092E00E94131089E692E00E941D110E94BA
:100CB000761D7093F3026093F20280911402811109
:100CC00056C66091CD027091CE02072E000C880BA3
:100CD000990B0E94AE1DAB01BC018CE492E00E9416
:100CE00013108CE492E00E941D110E94761D7093F7
:100CF000E7026093E6026091CB027091CC02072E6E
:100D0000000C880B990B0E94AE1DAB01BC018FE259
:100D100092E00E9413108FE292E00E941D110E9447
:100D2000761D7093E9026093E8026091E802709189
:100D3000E902072E000C880B990B1F921F9237E0D7
:100D40003F93A0EDAF93A12CB12C650110EDE12EE6
:100D50001AE8F12E0FEF1FEF20E335E740E050E0F7
:100D60000E943B1C0E94AE1D6093A7027093A802D4
:100D70008093A9029093AA026091E6027091E70223
:100D8000072E000C880B990B1F921F92B7E0BF93A0
:100D900020ED2F9310E4E12E1BE2F12E0EEF1FEF5A
:100DA00020EC34ED41E050E00E943B1C0E94AE1D5F
:100DB0006093A3027093A4028093A5029093A6026D
:100DC0000E9493170FB6F894DEBF0FBECDBF6838F0
:100DD00073418105910508F0ECC510928D021092C7
:100DE0008C0210928B0210928A0210928902109249
:100DF00088028090A3029090A402A090A502B090D7
:100E0000A602A5019401C501B4010E94631E698B6D
:100E10007A8B8B8B9C8B8091A7029091A802A091DA
:100E2000A902B091AA0289879A87AB87BC879C01E7
:100E3000AD0160E070E08AEF94E40E94921C9B0197
:100E4000AC010E94631E6B017C0129893A894B89A0
:100E50005C890E94931C0E94D61E2B013C0180914C
:100E6000900290919102A0919202B09193028D878D
:100E70009E87AF87B88B20E030E040EC5FE3BC0199
:100E8000CD010E94631E698F7A8F8B8F9C8F60913A
:100E90008E0270918F02072E000C880B990B0E9416
:100EA000AE1D69837A838B839C8360918C027091E1
:100EB0008D02072E000C880B990B0E94AE1D6D83CE
:100EC0007E838F83988728EB36EC40EB54E4C30194
:100ED000B2010E94921C298D3A8D4B8D5C8D0E942F
:100EE000631E28EB36EC40EB54E40E94931C2981EE
:100EF0003A814B815C810E94931C2D813E814F8100
:100F000058850E94921C20E030E0A9010E94931CA9
:100F100020E030E0A9010E94931C2B013C0120E05D
:100F200030E0A9010E94FF1C87FD85C520E030EC60
:100F300040E355E4C301B2010E945E1E18163CF462
:100F4000412C20EC522E20E3622E25E4722E40929A
:100F5000B7025092B8026092B9027092BA02A5012B
:100F6000940160E070E08AEF94E40E94921C9B017F
:100F7000AC010E94631E6D8B7E8B8F8B988F9B01C3
:100F8000AC01C701B6010E94931C0E94D61E28EB3B
:100F900036EC40EB54E40E94921C298D3A8D4B8D27
:100FA0005C8D0E94631E28EB36EC40EB54E40E94FB
:100FB000931C29813A814B815C810E94931C2D8175
:100FC0003E814F8158850E94921C20E030E0A901AB
:100FD0000E94931C6B017C0120E030E0A9010E947B
:100FE000FF1C87FD2CC520E030EC40E355E4C70131
:100FF000B6010E945E1E18163CF4C12C90ECD92E4E
:1010000090E3E92E95E4F92EC092B302D092B40297
:10101000E092B502F092B60229853A854B855C854F
:10102000CA01B9010E94631E4B015C0129893A89FA
:101030004B895C890E94931C0E94D61E28EB36ECDB
:1010400040EB54E40E94921C2D853E854F855889C3
:101050000E94631E20E030E040E45FE30E94631ED4
:1010600028EB36EC40EB54E40E94931C29813A8132
:101070004B815C810E94931C2D813E814F8158855C
:101080000E94931C20E030E0A9010E94931C6B0198
:101090007C0120E030E0A9010E94FF1C87FDD3C441
:1010A00020E030EC40E355E4C701B6010E945E1E2B
:1010B00018163CF4C12C80ECD82E80E3E82E85E491
:1010C000F82EC092AF02D092B002E092B102F0923C
:1010D000B2022D893E894F89588DC501B4010E9405
:1010E000931C0E94D61E28EB36EC40EB54E40E9481
:1010F000921C2D853E854F8558890E94631E20E0F5
:1011000030E040E45FE30E94631E28EB36EC40EBE6
:1011100054E40E94931C29813A814B815C810E9496
:10112000931C2D813E814F8158850E94931C6B0139
:101130007C0120E030E0A9010E94FF1C87FD87C4EC
:1011400020E030EC40E355E4C701B6010E945E1E8A
:1011500018163CF4C12C00ECD02E00E3E02E05E480
:10116000F02EC092AB02D092AC02E092AD02F092AF
:10117000AE02809106019091070164E670E0681B61
:10118000790B072E000C880B990B0E94AE1D20E0F6
:1011900030E048EC52E40E94041D69837A838B831B
:1011A0009C836091860270918702660F771F072EDD
:1011B000000C880B990B0E94AE1D4B015C0129812C
:1011C0003A814B815C810E94631E6B017C0120E0AF
:1011D00030E0A9010E94FF1C87FD3DC420E030E003
:1011E0004AE754E4C701B6010E945E1E181634F4A3
:1011F000C12CD12CBAE7EB2EB4E4FB2EC701B6010B
:101200000E94761D7093200260931F0229813A810B
:101210004B815C8160E070E080E89FE30E94921C5B
:10122000A50194010E94631E6B017C0120E030E067
:10123000A9010E94FF1C87FD12C420E030E04AE7AC
:1012400054E4C701B6010E945E1E181634F4C12C86
:10125000D12CAAE7EA2EA4E4FA2EC701B6010E9417
:10126000761D70931E0260931D0284EF91E09093AF
:10127000F1028093F00224EC39E03093EF022093E6
:10128000EE023093ED022093EC029093EB028093F8
:10129000EA02C301B2010E94761D1F921F9229E04B
:1012A0002F9324EC2F9334EFA32EBB24B394C12CA3
:1012B000D12C1CE0E12E1BE0F12E00E010E020E03C
:1012C00030E0A9010E943B1C0E94AE1D6093B70252
:1012D0007093B8028093B9029093BA02A090EE0284
:1012E000B090EF020B2C000CCC08DD086091B3022B
:1012F0007091B4028091B5029091B6020E94761D61
:101300002091F0023091F1028901330F220B330B4F
:101310003F932F931F930F931CE0E12E1BE0F12EC0
:1013200000E010E020E030E0A9010E943B1C0E9498
:10133000AE1D6093B3027093B4028093B502909394
:10134000B602A090EC02B090ED020B2C000CCC0881
:10135000DD086091AF027091B0028091B10290916E
:10136000B2020E94761D2091EA023091EB028901BF
:10137000330F220B330B3F932F931F930F931CE0DC
:10138000E12E1BE0F12E00E010E020E030E0A901AA
:101390000E943B1C0E94AE1D6093AF027093B0028E
:1013A0008093B1029093B202A090EA02B090EB0257
:1013B0000B2C000CCC08DD086091AB027091AC02E4
:1013C0008091AD029091AE020E94761D2091EC02B8
:1013D0003091ED028901330F220B330B3F932F9392
:1013E0001F930F931CE0E12E1BE0F12E00E010E0B4
:1013F00020E030E0A9010E943B1C0E94AE1D3B0191
:101400004C0180911F02909120027C01A4E2EA1A13
:10141000AAEFFA0A0091B7021091B802B091B9028E
:10142000BD832091BA0229836CED75E0681B790BAE
:10143000072E000C880B990B0E94AE1D5B016C01FE
:101440000FB6F894DEBF0FBECDBF9B01AC01B80153
:101450008D8199810E94FF1C87FD05C3B7010F2C68
:10146000000C880B990B0E94AE1D1B012C019B01E7
:10147000AC01B8018D8199810E945E1E18161CF482
:1014800081014D825982C801AD81B9818093B70233
:101490009093B802A093B902B093BA020091B3023C
:1014A0001091B4029091B5029D83A091B602A983D8
:1014B0009501A601B801892F9A2F0E94FF1C87FD74
:1014C000D6C2B701FF0C880B990B0E94AE1D6B01B1
:1014D0007C019B01AC01B8018D8199810E945E1E47
:1014E00018161CF48601ED82F982C801AD81B9811C
:1014F0008093B3029093B402A093B502B093B60266
:1015000080911D0290911E025C01B4E2AB1ABAEF09
:10151000BB0A2091AF022D833091B00239834090F5
:10152000B1025090B2026CED75E0681B790B072E8A
:10153000000C880B990B0E94AE1D6B017C019B0176
:10154000AC016D817981C2010E94FF1C87FD93C2AD
:10155000B5010B2C000C880B990B0E94AE1D1B01D2
:101560008C019B01AC016D817981C2010E945E1EDC
:1015700018161CF42D82398228018D819981D2019F
:101580008093AF029093B002A093B102B093B202E5
:101590009601A701B301C4010E94FF1C87FD12C080
:1015A000B501BB0C880B990B0E94AE1D6B017C0131
:1015B0009B01AC01B301C4010E945E1E181614F019
:1015C00063017401C601D7018093AB029093AC0212
:1015D000A093AD02B093AE0288E391E00E94D220C6
:1015E0008D3E09F081C00E9493170091190210915D
:1015F0001A0220911B0230911C02601B710B820B9E
:10160000930B653171058105910508F442C0609125
:10161000B7027091B8028091B9029091BA020E940B
:10162000761D80EA92E00E94110F6091B3027091E2
:10163000B4028091B5029091B6020E94761D8DE9A8
:1016400092E00E94110F6091AF027091B002809100
:10165000B1029091B2020E94761D8AE992E00E9446
:10166000110F6091AB027091AC028091AD0290912C
:10167000AE020E94761D87E992E00E94110F0E943F
:1016800093176093190270931A0280931B02909330
:101690001C020E94931700911502109116022091CE
:1016A000170230911802601B710B820B930B693C7F
:1016B000710581059105C0F06091AB027091AC029B
:1016C0008091AD029091AE020E94761D84E992E075
:1016D0000E94110F0E9493176093150270931602D7
:1016E00080931702909318028CE00E949D18892B1A
:1016F000C1F46CED75E080EA92E00E94110F6CED90
:1017000075E08DE992E00E94110F6CED75E08AE9B9
:1017100092E00E94110F6CED75E087E992E00E9463
:10172000110F6DE971E084EF93E00E946B1A6091F4
:101730008E0270918F024AE050E084EF93E00E94A5
:10174000291B65EB71E084EF93E00E946B1A65EA58
:1017500071E084EF93E00E946B1A409190025091E7
:101760009102609192027091930222E030E084EF46
:1017700093E00E94391C65EB71E084EF93E00E94D6
:101780006B1A6BEA71E084EF93E00E946B1A609130
:101790000601709107014AE050E084EF93E00E9457
:1017A000291B65EB71E084EF93E00E946B1A6EEBEE
:1017B00071E084EF93E00E946B1A60918602709151
:1017C0008702660F771F660F771F4AE050E084EFAD
:1017D00093E00E94291B65EB71E084EF93E00E9487
:1017E0006B1A60EB71E084EF93E00E946B1A4091FA
:1017F0000C0150910D0160910E0170910F0122E0DA
:1018000030E084EF93E00E94391C65EB71E084EFD7
:1018100093E00E946B1A67EB71E084EF93E00E9403
:101820006B1A409108015091090160910A01709171
:101830000B0122E030E084EF93E00E94391C65EB5D
:1018400071E084EF93E00E946B1A6DEB71E084EF1E
:1018500093E00E946B1A60911F0270912002660F44
:10186000771F4AE050E084EF93E00E94291B65EB6C
:1018700071E084EF93E00E946B1A65EC71E084EFF5
:1018800093E00E946B1A60911D0270911E02660F18
:10189000771F4AE050E084EF93E00E94291B65EB3C
:1018A00071E084EF93E00E946B1A6DEC71E084EFBD
:1018B00093E00E946B1A4091B7025091B802609178
:1018C000B9027091BA0222E030E084EF93E00E9406
:1018D000391C65EB71E084EF93E00E946B1A64EDB4
:1018E00071E084EF93E00E946B1A4091AF02509137
:1018F000B0026091B1027091B20222E030E084EF58
:1019000093E00E94391C65EB71E084EF93E00E9444
:101910006B1A6091140270E04AE050E084EF93E0AB
:101920006C960FB6F894DEBF0FBECDBFDF91CF919E
:101930001F910F91FF90EF90DF90CF90BF90AF90ED
:101940009F908F907F906F905F904F903F902F90DF
:101950000C94301BC12CD12CF0E2EF2EF1E4FF2EC1
:101960003BC8C12CD12CE12C50E4F52E7FC86091EE
:10197000CB027091CC02072E000C880B990B0E94B1
:10198000AE1DAB01BC018CE492E00E9413108CE40C
:1019900092E00E941D110E94761D7093E7026093F1
:1019A000E6026091CD027091CE0271956195710948
:1019B000A6C96091F2027091F302673628E07207BF
:1019C00014F066E678E06B3633E0730714F46BE6E8
:1019D00073E07093F3026093F202072E000C880B01
:1019E000990B1F921F9223E02F9328EE2F9338E13B
:1019F000A32E3CEFB32ECC24CA94DC2C16E6E12EA9
:101A000018E0F12E00E010E02BE633E040E050E07B
:101A10000E943B1C70938D0260938C028091BF02E8
:101A20009091C0029093E5028093E4020F900F9092
:101A30000F900F90D6C9412C512C320188CAC12C6D
:101A4000D12C7601E1CAC12CD12C76013ACBC12C24
:101A5000D12C760186CBC12CD12C7601CFCBC12CD9
:101A6000D12C7601FACB8501CD82D9820CCD8501AE
:101A7000CD82D9823ACDCD82D98227017ECDCF9237
:101A8000DF92EF92FF920F931F93E1EBF0E08591CD
:101A90009491E8E0F3E0918380838BE690E0938378
:101AA000828381E084831582168211861086E3EB9F
:101AB000F0E085919491EEEFF2E0918380838CE6E3
:101AC00090E09383828382E084831582168211865C
:101AD0001086E5EBF0E085919491E4EFF2E09183DC
:101AE00080838DE690E09383828384E084831582F3
:101AF00016821186108668E685ED92E00E94A8168F
:101B000080EA92E00E94770E8DE992E00E94770EC3
:101B10008AE992E00E94770E87E992E00E94770EB0
:101B200084E992E00E94770EC12CD12C760100E06E
:101B300010E020E83FE3B901A80189E692E00E94A5
:101B4000A80F00E010E020E83FE3B901A8018CE411
:101B500092E00E94A80F00E010E020E83FE3B90106
:101B6000A8018FE292E00E94A80F1F910F91FF90B1
:101B7000EF90DF90CF9008951F920F920FB60F92C3
:101B800011242F933F934F935F936F937F938F9382
:101B90009F93AF93BF93EF93FF938091160387FFBB
:101BA00027C01092850010928400809116038F5FE9
:101BB0008093160380911603082E000C990B209138
:101BC00015032817190629F024F0809116038C308C
:101BD000DCF18091840090918500049680349C49CA
:101BE00008F47BC08091840090918500049677C0B2
:101BF00080911603082E000C990B209115032817CD
:101C0000190699F294F2E09116038E2FEE0F990BBC
:101C1000FC01EE0FFF1FE80FF91FE95EFC4F80810A
:101C200086FFC3CFE09116038E2FEE0F990BFC01B8
:101C3000EE0FFF1FE80FF91FE95EFC4F808160E0A7
:101C40008F730E946F18B1CF20918400309185006E
:101C5000E09116038E2FEE0F990BFC01EE0FFF1F84
:101C6000E80FF91FE95EFC4F81819281820F931F7B
:101C70009093890080938800E09116038E2FEE0FD9
:101C8000990BFC01EE0FFF1FE80FF91FE95EFC4FF7
:101C9000808186FF11C0E09116038E2FEE0F990B05
:101CA000FC01EE0FFF1FE80FF91FE95EFC4F80817A
:101CB00061E08F730E946F18FF91EF91BF91AF9118
:101CC0009F918F917F916F915F914F913F912F9154
:101CD0000F900FBE0F901F90189580E49CE9909391
:101CE0008900809388008FEF80931603E5CFFC0175
:101CF000909115039C3098F481E0890F809315032F
:101D00009083892F90E0FC01EE0FFF1FE80FF91F71
:101D1000E95EFC4F88EB9BE09283818308958FEF0F
:101D200080830895DF92EF92FF920F931F93CF93DA
:101D3000DF93EC01D62E7A01890188818C3008F07E
:101D400067C061E08D2D0E9433188881282F30E014
:101D5000F901EE0FFF1FE20FF31FE95EFC4F9D2D0F
:101D60009F736081607C692B608320E232E02E19D2
:101D70003F0937FF02C02D5F3F4F359527953595B9
:101D80002795298320E639E0201B310B37FF02C05D
:101D90002D5F3F4F35952795359527952A832CE064
:101DA000622F0E94401F829FB001112430E020E08A
:101DB000AB01420F531FFA01EE0FFF1FE40FF51F97
:101DC000E95EFC4F908196FD16C02F5F3F4F2C308F
:101DD000310571F781110FC01092800082E080936D
:101DE00081001092850010928400B19A80916F005A
:101DF000826080936F00E8818E2F90E0FC01EE0FEF
:101E0000FF1FE80FF91FE95EFC4F8081806480832B
:101E10008881DF91CF911F910F91FF90EF90DF901C
:101E20000895DC01EC91EC3090F511968C911197AE
:101E300028E830E0281B310987FD3395220F331F36
:101E4000220F331F6217730784F012968C9128E5D6
:101E500032E0281B310987FD3395220F331F220FF3
:101E6000331F621773070CF49B0122503109220FB4
:101E7000331F4FB7F8948E2F90E0FC01EE0FFF1F39
:101E8000E80FF91FE95EFC4F328321834FBF0895AD
:101E9000CF92DF92EF92FF92CF93DF93EC016A0132
:101EA0007B012FE632E143E85AE3CB01B6010E9401
:101EB000FF1C87FD11C020E030E04AE754E4C70171
:101EC000B6010E945E1E18167CF4C12CD12C8AE744
:101ED000E82E84E4F82E08C09FE6C92E92E1D92EA0
:101EE00093E8E92E9AE3F92EC88AD98AEA8AFB8A0E
:101EF000DF91CF91FF90EF90DF90CF900895CF9238
:101F0000DF92EF92FF92CF93DF93EC016A017B01A6
:101F100020E030E0A901CB01B6010E945E1E181638
:101F200024F0F7FAF094F7F8F0942BED3FE049EC49
:101F300050E4C701B6010E94631E6C8B7D8B8E8BB3
:101F40009F8BDF91CF91FF90EF90DF90CF9008951E
:101F50008F929F92AF92BF92CF92DF92EF92FF92B9
:101F60000F931F93CF93DF93EC014A015B01B901FB
:101F7000A801C882D982EA82FB821C821D821E824D
:101F80001F82188E0E94480FB501A401CE010E9445
:101F90007F0F0E949F17698F7A8F8B8F9C8FDF91A5
:101FA000CF911F910F91FF90EF90DF90CF90BF9056
:101FB000AF909F908F900895EF92FF920F931F9391
:101FC000CF93DF93EC01FB01CA01B901188EE882BF
:101FD000F9820A831B833097D1F42AE037ED43EA74
:101FE0005FE30E94631EAB01BC01CE010E947F0F24
:101FF0008DE790EDA3E1BFE3888B998BAA8BBB8B18
:10200000DF91CF911F910F91FF90EF90089531973D
:10201000B9F7A901BC01CE010E947F0F81E894E0CD
:10202000A5E3BFE3E9CF2F923F924F925F926F9269
:102030007F928F929F92AF92BF92CF92DF92EF9258
:10204000FF920F931F93CF93DF93CDB7DEB72A97FD
:102050000FB6F894DEBF0FBECDBF9A8789872A01DD
:102060003B01DC011C964D925D926D927C921F9714
:102070000E949F176B017C01E985FA85818D928D05
:10208000A38DB48DA7019601281B390B4A0B5B0B5E
:10209000CA01B9010E94AE1D2DEB37E346E855E3B6
:1020A0000E94631E4B015C01A985BA855996CD92A9
:1020B000DD92ED92FC925C975496CD90DD90ED9080
:1020C000FC90579720E030E0A9010E94FF1C87FD9B
:1020D000AFC0A701960160E070E080E89FE30E9436
:1020E000041D162F072F382E292E262F372F482F65
:1020F000592FB401C5010E945E1E181624F0182D38
:10210000092D3A2C2B2CA7019601C701B6010E947C
:10211000631E6D837E838F839887E985FA8584802B
:102120009580A680B78020813181428153812983A7
:102130003A834B835C839B01AC01C301B2010E94D3
:10214000631E2B013C01E985FA852089318942898A
:102150005389C701B6010E94041DA50194010E9484
:10216000631E9B01AC01C301B2010E94921C6B0172
:102170007C012D813E814F81588569817A818B81D7
:102180009C810E94631E9B01AC01C701B6010E94A5
:10219000921C212F302F432D522D0E94631EA5012A
:1021A00094010E94931C6B017C01AC019B01C50151
:1021B000B4010E94931C20E030E040E05FE30E9405
:1021C000631EA985BA8518966D937D938D939C9314
:1021D0001B97212F302F432D522D0E94631E2981E2
:1021E0003A814B815C810E94931CE985FA8560836A
:1021F000718382839383C482D582E682F7822A9692
:102200000FB6F894DEBF0FBECDBFDF91CF911F9107
:102210000F91FF90EF90DF90CF90BF90AF909F9085
:102220008F907F906F905F904F903F902F90089588
:1022300010E000E0312C212C66CFFC01608171811F
:10224000828193810895CF93DF93A0EBB0E02C912E
:10225000EC012887E1EBF0E0208129878081887FED
:1022600082608083C0E7D0E08881816088838C9120
:102270008C7F8C938081877F8083DF91CF910895BD
:10228000FC013FB7F8942091B200B89B0EC020919A
:10229000B20080819181A281B3810196A11DB11DFF
:1022A00080839183A283B383B89A80819181A28134
:1022B000B381BA2FA92F982F8827820F911DA11DB6
:1022C000B11D84839583A683B7833FBF64817581E5
:1022D000868197810895FC014081518162817381DB
:1022E0004F5F5F4F6F4F7F4F408351836283738394
:1022F00008951F920F920FB60F9211242F933F93C0
:102300004F935F936F937F938F939F93AF93BF93FD
:10231000EF93FF938BE393E00E946B11FF91EF919A
:10232000BF91AF919F918F917F916F915F914F91ED
:102330003F912F910F900FBE0F901F901895EBE3D8
:10234000F3E01082118212821382148215821682A7
:1023500017820895FF920F931F93CF93DF93C62F99
:10236000042FF22E132F682F85E493E00E94E313CD
:102370006C2F85E493E00E947113CF2DD12F0C0FA9
:102380001D2F111DC017D10731F0699185E493E02D
:102390000E947113F7CF85E493E00E94661491E0E8
:1023A000811190E0892FDF91CF911F910F91FF90C4
:1023B0000895CF93DF931F92CDB7DEB749839E0177
:1023C0002F5F3F4F41E00E94AA110F90DF91CF9104
:1023D00008953F924F925F926F927F928F929F9259
:1023E000AF92BF92CF92DF92EF92FF920F931F9323
:1023F000CF93DF9300D000D0CDB7DEB78C83D62E3D
:102400004B833A8329830E9493174B015C01312C43
:10241000C12C2B81E22EF12C2801712C612C8B8197
:10242000381608F049C06C8185E493E00E94E313FC
:102430006D2D85E493E00E94711385E493E00E9482
:1024400066146C8185E493E00E94E313A7014319AD
:1024500051094132510514F040E250E06C8185E4AD
:1024600093E00E94631485E493E00E941113892B8A
:10247000D9F00115110569F485E493E00E94181361
:10248000E981FA81EC0DF11DC7FCFA958083C394B4
:10249000EACF0E949317681979098A099B09641584
:1024A00075058605970540F38E2D91E2E916F10436
:1024B0000CF080E2380EB3CF01151105C1F00E9477
:1024C0009317681979098A099B0930E020E06017A1
:1024D00071078207930758F08C2D0C2C000C990B78
:1024E0002B812817190619F014F0CC24CA948C2DCE
:1024F0000F900F900F900F90DF91CF911F910F9140
:10250000FF90EF90DF90CF90BF90AF909F908F9013
:102510007F906F905F904F903F9008950F931F931F
:1025200089019A0141E00E94E9111F910F910895DC
:10253000EF92FF920F931F93CF93DF931F92CDB72C
:10254000DEB7182F062FE42EF22E209110013091C5
:102550001101AE014F5F5F4F0E948E1281E090E04B
:1025600001C0880FEA94EAF74981FF2071F0482BF7
:102570004983602F812F0E94D9110F90DF91CF9155
:102580001F910F91FF90EF90089580954823F0CF11
:10259000DF92EF92FF920F931F93CF93DF931F92DF
:1025A000CDB7DEB7F82EE62E142FD22E20911001D3
:1025B00030911101AE014F5F5F4F0E948E12882350
:1025C00059F1812F8D19990BAC014F5F5F4F81E05D
:1025D00090E002C0880F991FDA94E2F70197042E69
:1025E00001C0880F0A94EAF701C0000F4A95EAF784
:1025F000482F4095998149238023482B49836E2D8C
:102600008F2D0E94D9110F90DF91CF911F910F91C3
:10261000FF90EF90DF90089580E0F5CF90E080E0AC
:1026200008958091790390917A03891B990B0895FD
:1026300090917A03809179032FEF3FEF981748F438
:10264000E92FF0E0E558FC4F208130E09F5F909348
:102650007A03C9010895E0917A0380917903E8171C
:1026600030F4F0E0E558FC4F808190E008958FEF62
:102670009FEF08950895CF93DF93EC01E09151030C
:10268000F09152033097F1F090917A0380917903A1
:102690009817C0F090E0292F30E02617370754F440
:1026A000DE01A20FB31F4C9125583C4FD9014C932A
:1026B0009F5FF1CF10927A0360937903CB01DF9192
:1026C000CF910994DF91CF910895E0915303F09158
:1026D0005403309729F0109257031092560309942F
:1026E0000895CF93DF931F92CDB7DEB76983209112
:1026F00055032223F9F020915603203258F021E0AF
:1027000030E0FC013383228390E080E00F90DF9182
:10271000CF91089580915703E82FF0E0E85AFC4FDD
:10272000998190838F5F809357038093560381E054
:1027300090E0ECCF61E0CE0101960E943B15F7CF0F
:10274000CF92DF92EF92FF920F931F93CF93DF937D
:102750007C01CB018A0120915503222389F0EB01F2
:102760006B01C40ED51ECC15DD0569F06991D7014A
:10277000ED91FC910190F081E02DC7010995F3CF17
:10278000642F0E943B15C801DF91CF911F910F91DB
:10279000FF90EF90DF90CF90089510927A031092FF
:1027A000790310925703109256030E947A1485E61B
:1027B00093E10E9467158BE393E10C946215CB01C2
:1027C000BA010C94981481E08093550360937803C8
:1027D000109257031092560308950F93062F21E08D
:1027E0004091560368E573E0809178030E94EB14F2
:1027F0001092570310925603109255030F910895AB
:102800004F925F926F927F92AF92BF92CF92EF9270
:10281000FF920F931F93CF93DF935C01F62ED42F7B
:1028200028013901EE2019F10E94E313CE2DC430A6
:1028300008F0C3E0C150B8F028E0C29FC0011124E5
:10284000A301920104C056954795379527958A951F
:10285000D2F7B901D501ED91FC910190F081E02D05
:10286000C5010995E7CF60E0C5010E94ED134D2F2A
:10287000D13208F040E22C2D6BE773E08F2D0E94DF
:10288000AB1410927A0380937903DF91CF911F915B
:102890000F91FF90EF90CF90BF90AF907F906F908F
:1028A0005F904F900895CF92EF920F931F93C22E97
:1028B000E12C00E010E098010E9400141F910F919C
:1028C000EF90CF90089521E00C94531461E00C94A4
:1028D000ED13E5E4F3E01382128288EE93E0A0E0CA
:1028E000B0E084839583A683B78385EE91E09183DE
:1028F000808308951092EA0381E08093E8031092A8
:10290000E70361E082E10E946F1861E083E10E94C9
:102910006F18E9EBF0E080818E7F808380818D7F6E
:10292000808388E48093B80085E48093BC00089598
:102930009B01AC0160E074E284EF90E00E944C1FC8
:1029400020513109410951095695479537952795E9
:102950002093B80008954132E0F59091EA03911177
:10296000FCCF91E09093EA032093E8032FEF2093AC
:102970009B037093E2036093E1031092E003240F42
:102980002093DF039093E9039091E903880F892B4B
:102990008093E9038091E7038130C9F41092E70343
:1029A0008091E9038093BB008091BC0083FDF8CF48
:1029B00085EC8093BC008091EA038130E1F3809143
:1029C000E003841710F44091E003842F089585EE0E
:1029D000F0CF40E0FACF0F93413208F044C090911D
:1029E000EA039111FCCF92E09093EA030093E8038D
:1029F0009FEF90939B037093E2036093E103109227
:102A0000E0034093DF031092E9039091E903880FFC
:102A1000892B8093E9038091E703813011F51092AF
:102A2000E7038091E9038093BB008091BC0083FDA4
:102A3000F8CF85EC8093BC00222321F08091EA033B
:102A40008230D1F380919B038F3F79F080919B037B
:102A5000803269F080919B03803359F084E00F91BC
:102A6000089585EEE7CF81E0FACF80E0F8CF82E0ED
:102A7000F6CF83E0F4CF2091BD03260F3327331F19
:102A800021323105ECF42091EA03FC0190E080E072
:102A9000243069F082E00895A091BD032191AC013A
:102AA00041545C4FA40FB52FB11D2C93019686178E
:102AB00098F38091BD03680F6093BD0380E0089593
:102AC00081E008959093E4038093E3030895909345
:102AD000E6038093E503089585ED8093BC00809123
:102AE000BC0084FDFCCF1092EA03089585EC80932E
:102AF000BC001092EA0308951F920F920FB60F9236
:102B000011242F933F934F935F936F937F938F93F2
:102B10009F93AF93BF93EF93FF938091B900887F0A
:102B2000803609F44CC008F03FC0883209F4A8C0D0
:102B300018F5803109F49CC0B8F4882309F405C164
:102B4000883009F495C0FF91EF91BF91AF919F91AB
:102B50008F917F916F915F914F913F912F910F9046
:102B60000FBE0F901F901895883109F489C08032EC
:102B700051F780939B0315C0803409F4A6C048F434
:102B80008033B9F38833F9F680939B030E9476155E
:102B9000DACF803509F489C0883509F49EC08834BD
:102BA00091F60E946C15CFCF883909F494C038F59E
:102BB000883729F050F4883611F0803721F683E009
:102BC0008093EA0310929C0357C0883809F483C0AD
:102BD000803919F0803809F0B6CF80919C0380329B
:102BE00008F079C0E0919C0381E08E0F80939C03F4
:102BF0008091BB00F0E0E356FC4F80833DC0803BFA
:102C000039F0E0F4803A09F485C0883A09F09BCFA6
:102C100084E08093EA031092BE031092BD03E0911A
:102C2000E503F091E60309958091BD0381110FC082
:102C300081E08093BD031092BF0309C0803C09F47A
:102C400082C0883C09F47FC0883B09F07CCFE091CA
:102C5000BE0381E08E0F8093BE03F0E0E154FC4F91
:102C600080818093BB009091BE038091BD0331C0F1
:102C70008091E9038093BB0085EC8093BC0063CF17
:102C80009091E0038091DF039817B8F58091E103FC
:102C90009091E203E091E00321E02E0F2093E00306
:102CA000E80FF92FF11D8081E5CF2091E1033091EC
:102CB000E203E091E00381E08E0F8093E0038091D6
:102CC000BB00E20FF32FF11D80839091E003809110
:102CD000DF03981788F285E8D0CF2091E103309187
:102CE000E203E091E00381E08E0F8093E0038091A6
:102CF000BB00E20FF32FF11D80838091E803811167
:102D000050CF81E08093E70384EA8093BC00109267
:102D1000EA0319CF0E94761580919C03803230F42B
:102D2000E0919C03F0E0E356FC4F108260919C031D
:102D300070E0E091E303F091E4038DE993E00995FD
:102D400010929C0300CF85ECE0CF10929B0329CF1B
:102D5000FC01608308950F93062F22E044E06BE1AD
:102D6000FC0180810E94C8120F9108950F93062FD5
:102D700022E044E06CE1FC0180810E94C8120F91C6
:102D800008954F925F926F927F928F929F92AF922F
:102D9000BF92CF92DF92EF92FF920F931F93CF9348
:102DA000DF93EC013B014A01590128010091100118
:102DB000109111019C012F5F3F4F4EE06BE3888122
:102DC0000E94E91189819A81982789279827F30120
:102DD000918380838B819C81982789279827F40190
:102DE000918380838D819E81982789279827F5017B
:102DF0009183808389859A85982789279827F2016E
:102E0000918380838B859C85982789279827F70154
:102E1000918380838D859E85982789279827F60141
:102E200091838083DF91CF911F910F91FF90EF905D
:102E3000DF90CF90BF90AF909F908F907F906F90DA
:102E40005F904F900895262F46E06BE6FC0180814D
:102E50000C9498120F93062F23E042E06BE6FC01DE
:102E600080810E94C8120F910895CF93DF93EC01E7
:102E700061E00E942A1760E0CE010E94AB1660E07C
:102E8000CE010E94B61660E0CE01DF91CF910C9486
:102E900023171F920F920FB60F9211242F933F9377
:102EA0008F939F93AF93BF938091F0039091F10321
:102EB000A091F203B091F3033091EF0323E0230FCD
:102EC0002D3768F126E8230F0296A11DB11D20932E
:102ED000EF038093F0039093F103A093F203B09378
:102EE000F3038091EB039091EC03A091ED03B0917B
:102EF000EE030196A11DB11D8093EB039093EC03AB
:102F0000A093ED03B093EE03BF91AF919F918F918A
:102F10003F912F910F900FBE0F901F901895019623
:102F2000A11DB11DD4CF2FB7F8946091F00370911B
:102F3000F1038091F2039091F3032FBF08953FB7FF
:102F4000F8948091EB039091EC03A091ED03B09184
:102F5000EE0326B5A89B05C02F3F19F00196A11DD1
:102F6000B11D3FBFBA2FA92F982F8827BC01CD01D3
:102F7000620F711D811D911D42E0660F771F881F32
:102F8000991F4A95D1F70895789484B5836084BDDC
:102F900085B5836085BDEEE6F0E080818160808349
:102FA000E1E8F0E082E08083808181608083E0E876
:102FB000F0E0808181608083E1EBF0E080818460DB
:102FC0008083E0EBF0E080818160808387E88093FC
:102FD0007A001092C1000895883020F08D3008F4F6
:102FE0008DE08E502091120190E4299F90011124D0
:102FF0008770822B80937C0080917A00806480931C
:103000007A0080917A0086FDFCCF809178009091C3
:1030100079000895843081F028F48230E9F083301B
:10302000F9F00895883071F0893091F08530B9F465
:10303000809180008F7D03C0809180008F77809386
:10304000800008958091B0008F778093B00008953C
:103050008091B0008F7DF9CF84B58F7784BD0895BE
:1030600084B58F7DFBCFCF93DF9390E0FC01E158D7
:10307000FF4F24918A569F4FFC0184918823C9F009
:1030800090E0880F991FFC01EF53FF4FA591B49179
:10309000FC01E954FF4FC591D49161110DC09FB758
:1030A000F8948C91209582238C93888128232883FF
:1030B0009FBFDF91CF910895623051F49FB7F8948C
:1030C0003C91822F809583238C93E8812E2BEFCF28
:1030D0008FB7F894EC912E2B2C938FBFEACF1F93D0
:1030E000CF93DF93282F30E0F901E859FF4F849107
:1030F000F901E158FF4FD491F901EA56FF4FC4910D
:10310000CC23A9F0162F81110E940A18EC2FF0E0B1
:10311000EE0FFF1FE954FF4FA591B4918FB7F894BC
:10312000EC91111108C0D095DE23DC938FBFDF91A5
:10313000CF911F910895DE2BF8CFCF93DF93282FE7
:1031400030E0F901E859FF4F8491F901E158FF4F50
:10315000D491F901EA56FF4FC491CC23A1F081111B
:103160000E940A18EC2FF0E0EE0FFF1FE355FF4F0F
:10317000A591B491EC91ED2381E090E009F480E019
:10318000DF91CF91089580E090E0FACFFC01918D1E
:10319000228D892F90E0805C9F4F821B91098F7355
:1031A00099270895FC01918D828D981731F0828DB9
:1031B000E80FF11D858D90E008958FEF9FEF089542
:1031C000FC01918D828D981761F0A28DAE0FBF2FFB
:1031D000B11D5D968C91928D9F5F9F73928F90E051
:1031E00008958FEF9FEF0895FC01538D448D252F97
:1031F00030E0842F90E0821B930B541710F0CF9691
:1032000008950197089588EF99E1892B49F080E0AE
:1032100090E0892B29F00E94F81981110C9400008C
:103220000895FC01A48DA80FB92FB11DA35ABF4F5B
:103230002C91848D90E001968F739927848FA689B5
:10324000B7892C93A089B1898C91837080648C9309
:10325000938D848D981306C00288F389E02D8081B8
:103260008F7D80830895CF93DF93EC01888D882331
:10327000B9F0AA89BB89E889F9898C9185FD03C0D9
:10328000808186FD0DC00FB607FCF7CF8C9185FFBE
:10329000F2CF808185FFEDCFCE010E941119E9CFD9
:1032A000DF91CF910895EF92FF920F931F93CF93E9
:1032B000DF93EC0181E0888F9B8D8C8D98131AC071
:1032C000E889F989808185FF15C09FB7F894EE8958
:1032D000FF896083E889F9898081837080648083B5
:1032E0009FBF81E090E0DF91CF911F910F91FF9000
:1032F000EF900895F62E0B8D10E00F5F1F4F0F73A8
:103300001127E02E8C8D8E110CC00FB607FCFACF62
:10331000E889F989808185FFF5CFCE010E941119D6
:10332000F1CFEB8DEC0FFD2FF11DE35AFF4FF08233
:103330009FB7F8940B8FEA89FB8980818062CFCF99
:103340001F920F920FB60F9211242F938F939F937A
:10335000EF93FF93E0910404F09105048081E091E4
:103360000A04F0910B0482FD1BC0908180910D0432
:103370008F5F8F7320910E04821741F0E0910D044E
:10338000F0E0EC50FC4F958F80930D04FF91EF918E
:103390009F918F912F910F900FBE0F901F901895B6
:1033A0008081F4CF1F920F920FB60F9211242F93AA
:1033B0003F934F935F936F937F938F939F93AF93BD
:1033C000BF93EF93FF9384EF93E00E941119FF9155
:1033D000EF91BF91AF919F918F917F916F915F918D
:1033E0004F913F912F910F900FBE0F901F90189506
:1033F00084EF93E00E94C61821E0892B09F420E0B5
:10340000822F0895E4EFF3E01382128288EE93E0B6
:10341000A0E0B0E084839583A683B78387EF91E033
:103420009183808385EC90E09587848784EC90E09D
:103430009787868780EC90E0918B808B81EC90E081
:10344000938B828B82EC90E0958B848B86EC90E062
:10345000978B868B118E128E138E148E0895AF92D9
:10346000BF92CF92DF92EF92FF920F931F93CF9371
:10347000DF936C017B018B01040F151FEB015E01D3
:10348000AE18BF08C017D10759F06991D601ED9168
:10349000FC910190F081E02DC6010995892B79F707
:1034A000C501DF91CF911F910F91FF90EF90DF90B9
:1034B000CF90BF90AF900895FB0101900020E9F7F5
:1034C0003197AF01461B570BDC01ED91FC91028057
:1034D000F381E02D09946115710511F00C945C1ACB
:1034E00090E080E00895DC01ED91FC910190F08185
:1034F000E02D099465E072E00C945C1A0F931F9321
:10350000CF93DF938C01D0E0C0E06115710519F015
:103510000E945C1AEC01C8010E947A1A8C0F9D1F50
:10352000DF91CF911F910F9108958F929F92AF924B
:10353000BF92EF92FF920F931F93CF93DF93CDB77C
:10354000DEB7A1970FB6F894DEBF0FBECDBF7C01EA
:10355000FA01CB0119A2223008F42AE08E010F5D96
:103560001F4F822E912CB12CA12CBF01A5019401DB
:103570000E944C1FF901CA016A300CF5605DD80148
:103580006E938D01232B242B252B79F790E080E07F
:10359000109721F0BD01C7010E945C1AA1960FB6D9
:1035A000F894DEBF0FBECDBFDF91CF911F910F9179
:1035B000FF90EF90BF90AF909F908F900895695CBF
:1035C000DECFCF92DF92EF92FF920F931F93CF93B4
:1035D000DF932115310581F4DC01ED91FC9101901F
:1035E000F081E02D642FDF91CF911F910F91FF901B
:1035F000EF90DF90CF9009942A30310501F52AE051
:1036000077FF1DC06A017B01EC016DE20E94731A15
:103610008C0144275527BA014C195D096E097F09B1
:103620002AE0CE010E94951A800F911FDF91CF9161
:103630001F910F91FF90EF90DF90CF900895DF9151
:10364000CF911F910F91FF90EF90DF90CF900C944E
:10365000951A9A01AB01770F660B770B0C94E11A60
:103660000F931F93CF93DF93EC010E94291B8C01D2
:10367000CE010E947A1A800F911FDF91CF911F9186
:103680000F9108952115310541F4DC01ED91FC9174
:103690000190F081E02D642F09940C94951A9A0101
:1036A000AB0170E060E00C94421B2F923F924F926E
:1036B0005F926F927F928F929F92AF92BF92CF92C2
:1036C000DF92EF92FF921F93CF93DF93EC016A0199
:1036D0007B01722EAB019601CB01B6010E94161F31
:1036E00068E072E0811126C046015701E894B7F8FE
:1036F0002FEF3FEF4FE75FE7C501B4010E94161FB0
:1037000081110CC02FEF3FEF4FE75FE7C501B40118
:103710000E94FF1C6CE072E0181664F02FEF3FEF80
:103720004FE75FE4C701B6010E945E1E1816B4F4AD
:1037300060E172E0CE01DF91CF911F91FF90EF9099
:10374000DF90CF90BF90AF909F908F907F906F90C1
:103750005F904F903F902F900C945C1A2FEF3FEFAB
:103760004FE75FECC701B6010E94FF1C87FDE0CF69
:1037700020E030E0A901C701B6010E94FF1C312CF6
:10378000212C87FF09C06DE2CE010E94731A1C0133
:10379000F7FAF094F7F8F09410E060E070E080E061
:1037A0009FE3711641F020E030E040E251E40E94D6
:1037B000041D1F5FF6CFA70196010E94931C2B01E9
:1037C0003C010E947D1D4B015C012AE0BC01A4016B
:1037D000CE010E94951A7C01E20CF31C1123B1F179
:1037E000C501B4010E94AC1D9B01AC01C301B20133
:1037F0000E94921C4B015C016EE2CE010E94731A82
:10380000E80EF91E115010F120E030E040E251E4E2
:10381000C501B4010E94631E2B013C010E947D1D65
:103820004B014AE050E0CE010E944F1BE80EF91E0A
:10383000B40190E080E00E94AC1D9B01AC01C3018B
:10384000B2010E94921C4B015C01DCCFC701DF91E9
:10385000CF911F91FF90EF90DF90CF90BF90AF90EE
:103860009F908F907F906F905F904F903F902F90A0
:1038700008950C94551B4F925F926F927F92AF9276
:10388000BF92CF92DF92EF92FF920F931F93CF934D
:10389000DF93CDB7DEB729013A019B01AC012419B2
:1038A00035094609570989899A89AB89BC89BC01C0
:1038B000CD016A197B098C099D090E94301FA8015E
:1038C000970124193509460957090E946E1FCA013C
:1038D000B9016A0D7B1D8C1D9D1DDF91CF911F913C
:1038E0000F91FF90EF90DF90CF90BF90AF907F90BF
:1038F0006F905F904F90089508950E94C4170E94A2
:103900007C1C0E94D002C3E0D9E10E943C042097B5
:10391000E1F30E940319F9CF009711F481E090E0E0
:103920000C94AD1F5058BB27AA270E94AA1C0C94C8
:10393000241E0E94161E38F00E941D1E20F039F42D
:103940009F3F19F426F40C94131E0EF4E095E7FB48
:103950000C940D1EE92F0E94351E58F3BA1762070A
:1039600073078407950720F079F4A6F50C94571E89
:103970000EF4E0950B2EBA2FA02D0B01B90190018A
:103980000C01CA01A0011124FF27591B99F0593FCE
:1039900050F4503E68F11A16F040A22F232F342F16
:1039A0004427585FF3CF469537952795A795F04064
:1039B0005395C9F77EF41F16BA0B620B730B840B79
:1039C000BAF09150A1F0FF0FBB1F661F771F881F31
:1039D000C2F70EC0BA0F621F731F841F48F4879589
:1039E00077956795B795F7959E3F08F0B0CF93957B
:1039F000880F08F09927EE0F9795879508950E94F4
:103A0000E91D08F481E008950E94181D0C94241EFD
:103A10000E941D1E58F00E94161E40F029F45F3FC0
:103A200029F00C940D1E51110C94581E0C94131E69
:103A30000E94351E68F39923B1F3552391F3951B2A
:103A4000550BBB27AA2762177307840738F09F5FBF
:103A50005F4F220F331F441FAA1FA9F335D00E2E2C
:103A60003AF0E0E832D091505040E695001CCAF799
:103A70002BD0FE2F29D0660F771F881FBB1F26175C
:103A800037074807AB07B0E809F0BB0B802DBF0133
:103A9000FF2793585F4F3AF09E3F510578F00C9402
:103AA0000D1E0C94581E5F3FE4F3983ED4F38695A8
:103AB00077956795B795F7959F5FC9F7880F911D23
:103AC0009695879597F90895E1E0660F771F881F0F
:103AD000BB1F621773078407BA0720F0621B730BC2
:103AE000840BBA0BEE1F88F7E09508950E947D1DA8
:103AF0006894B1110C94581E08950E943D1E88F0E0
:103B00009F5798F0B92F9927B751B0F0E1F0660FA1
:103B1000771F881F991F1AF0BA95C9F714C0B130E2
:103B200091F00E94571EB1E008950C94571E672F24
:103B3000782F8827B85F39F0B93FCCF38695779511
:103B40006795B395D9F73EF49095809570956195FA
:103B50007F4F8F4F9F4F0895E89409C097FB3EF425
:103B600090958095709561957F4F8F4F9F4F9923CA
:103B7000A9F0F92F96E9BB279395F6958795779548
:103B80006795B795F111F8CFFAF4BB0F11F460FF08
:103B90001BC06F5F7F4F8F4F9F4F16C0882311F060
:103BA00096E911C0772321F09EE8872F762F05C074
:103BB000662371F096E8862F70E060E02AF09A950F
:103BC000660F771F881FDAF7880F9695879597F904
:103BD0000895990F0008550FAA0BE0E8FEEF16169E
:103BE0001706E807F907C0F012161306E407F507F1
:103BF00098F0621B730B840B950B39F40A2661F065
:103C0000232B242B252B21F408950A2609F4A14007
:103C1000A6958FEF811D811D089597F99F6780E814
:103C200070E060E008959FEF80EC089500240A940E
:103C30001616170618060906089500240A94121687
:103C40001306140605060895092E0394000C11F4BA
:103C5000882352F0BB0F40F4BF2B11F460FF04C067
:103C60006F5F7F4F8F4F9F4F089557FD9058440FC0
:103C7000551F59F05F3F71F04795880F97FB991FCB
:103C800061F09F3F79F08795089512161306140688
:103C9000551FF2CF4695F1DF08C016161706180615
:103CA000991FF1CF86957105610508940895E894F0
:103CB000BB2766277727CB0197F908950E94E91D56
:103CC00008F48FEF08950E94761E0C94241E0E9423
:103CD000161E38F00E941D1E20F0952311F00C9442
:103CE0000D1E0C94131E11240C94581E0E94351E98
:103CF00070F3959FC1F3950F50E0551F629FF0013F
:103D0000729FBB27F00DB11D639FAA27F00DB11D57
:103D1000AA1F649F6627B00DA11D661F829F2227E0
:103D2000B00DA11D621F739FB00DA11D621F839F67
:103D3000A00D611D221F749F3327A00D611D231F3D
:103D4000849F600D211D822F762F6A2F11249F578B
:103D500050409AF0F1F088234AF0EE0FFF1FBB1F8E
:103D6000661F771F881F91505040A9F79E3F51054D
:103D700080F00C940D1E0C94581E5F3FE4F3983EA7
:103D8000D4F3869577956795B795F795E7959F5FF7
:103D9000C1F7FE2B880F911D9695879597F9089589
:103DA00019F416F40C94131E0C941B1F0E943D1E54
:103DB000B8F39923C9F3B6F39F57550B87FF0E94B9
:103DC000291F0024A0E640EA900180585695979557
:103DD00028F4805C660F771F881F20F026173707AE
:103DE000480730F4621B730B840B202931294A2BBE
:103DF000A69517940794202531254A2758F7660F72
:103E0000771F881F20F026173707480730F4620B0A
:103E1000730B840B200D311D411DA09581F7B90155
:103E2000842F9158880F9695879508950E94E91DD3
:103E3000880B990B08959F3F31F0915020F487959E
:103E400077956795B795880F911D9695879597F902
:103E5000089591505040660F771F881FD2F708953C
:103E6000DB018F939F930E948D1FBF91AF91A29F03
:103E7000800D911DA39F900DB29F900D1124089568
:103E8000991B79E004C0991F961708F0961B881FAC
:103E90007A95C9F780950895A1E21A2EAA1BBB1B3B
:103EA000FD010DC0AA1FBB1FEE1FFF1FA217B30706
:103EB000E407F50720F0A21BB30BE40BF50B661F1C
:103EC000771F881F991F1A9469F7609570958095E0
:103ED00090959B01AC01BD01CF010895052E97FB84
:103EE0001EF400940E94851F57FD07D00E944C1FAE
:103EF00007FC03D04EF40C94851F509540953095E7
:103F000021953F4F4F4F5F4F089590958095709545
:103F100061957F4F8F4F9F4F08950E949E1FA59FD1
:103F2000900DB49F900DA49F800D911D11240895B4
:103F3000EE0FFF1F0590F491E02D0994A29FB001B0
:103F4000B39FC001A39F700D811D1124911DB29FCD
:103F5000700D811D1124911D08950F931F93CF9310
:103F6000DF938230910510F482E090E0E0919304B9
:103F7000F091940430E020E0B0E0A0E0309799F4B4
:103F80002115310509F44AC0281B390B24303105AD
:103F9000D8F58A819B816115710589F1FB019383B5
:103FA0008283FE0111C04081518102811381481733
:103FB0005907E0F04817590799F4109761F01296E5
:103FC0000C93129713961C933296CF01DF91CF91E9
:103FD0001F910F9108950093930410939404F4CFCC
:103FE0002115310551F04217530738F0A901DB01C3
:103FF0009A01BD01DF01F801C1CFEF01F9CF909324
:10400000940480939304CDCFFE01E20FF31F8193BC
:1040100091932250310939832883D7CF209191047D
:1040200030919204232B41F420910201309103013D
:10403000309392042093910420910001309101016A
:104040002115310541F42DB73EB74091040150913F
:104050000501241B350BE0919104F0919204E217C5
:10406000F307A0F42E1B3F0B2817390778F0AC019B
:104070004E5F5F4F2417350748F04E0F5F1F509378
:10408000920440939104819391939FCFF0E0E0E0FC
:104090009CCFCF93DF930097E9F0FC013297138216
:1040A0001282A0919304B0919404ED0130E020E0DD
:1040B0001097A1F420813181820F931F20919104E8
:1040C000309192042817390709F061C0F0939204E7
:1040D000E0939104DF91CF910895EA01CE17DF07B5
:1040E000E8F54A815B819E0141155105B1F7E9016F
:1040F000FB83EA8349915991C40FD51FEC17FD0743
:1041000061F4808191810296840F951FE901998362
:104110008883828193819B838A83F0E0E0E012961A
:104120008D919C9113970097B9F52D913C91119722
:10413000CD010296820F931F209191043091920439
:104140002817390739F6309751F5109294041092D8
:104150009304B0939204A0939104BCCFD383C28301
:1041600040815181840F951FC817D90761F44E5FB4
:104170005F4F88819981480F591F518340838A81FD
:104180009B81938382832115310509F0B0CFF09391
:104190009404E09393049ECFFD01DC01C0CF138211
:1041A0001282D7CFF999FECF92BD81BDF89A992797
:1041B00080B50895262FF999FECF1FBA92BD81BD13
:1041C00020BD0FB6F894FA9AF99A0FBE0196089599
:0441D000F894FFCF91
:1041D4000000950480003200CDCC4C3E000000402D
:1041E400E80301435241574C4552204649524D572A
:1041F40041524520312E3236205552414C205241F5
:1042040044494F2056455253494F4E00434F4E4E5A
:104214004543542050494E203720544F20412052CA
:104224004144494F20524543454956455220414E49
:1042340044204B45455020495420504F5745524542
:104244004420414E4420434F4E4E45435445442060
:10425400544F2041205452414E534D4954544552D9
:104264002100534554555020444F4E45006F666617
:1042740073657420006D756C74200062616C20009D
:104284007370656564200064616D7020004672611E
:104294006E676520005272616E67652000464C703F
:1042A4006F732000524C706F7320000803FE02F4F9
:1042B40002000000007113A0130E133A1311131817
:1042C400132B130000000053192F1AF4183319C6C6
:1042D40018E018D2180D0A006E616E00696E66004F
:0442E4006F7666008B
:00000001FF
