:100000000C946A000C9492000C9492000C94E600FC
:100010000C9413010C9440010C9492000C949200E7
:100020000C9492000C94CA0F0C9492000C940D0C3A
:100030000C9492000C9492000C9492000C949200F8
:100040000C949C150C9492000C94EC170C941E18B4
:100050000C9492000C9492000C9492000C949200D8
:100060000C94DB130C9492000000000900030200C2
:10007000000405080000000000000000000000016E
:10008000020408102040800102040810200102042C
:100090000810204080400404040404040404020204
:1000A000020202020303030303030202030000002F
:1000B0000023002600290000000000250028002B56
:1000C0000000000000240027002A0000900BF00F21
:1000D000B9124E1811241FBECFEFD8E0DEBFCDBF3E
:1000E00012E0A0E0B1E0E6E1FCE302C005900D9271
:1000F000A430B107D9F724E0A4E0B2E001C01D921A
:10010000A939B207E1F710E0CAE6D0E004C02197B0
:10011000FE010E94DE1DC636D107C9F70E94C91A2A
:100120000C94091E0C940000FF920F931F93CF9321
:10013000DF938C01D80117968C9117972091FE02BE
:1001400015969C9115973091FE0216964C91169734
:10015000C091FE02C095C4239323C92B8227FC2E95
:10016000F8228091FE0217968C9317971896CD91DE
:10017000DC912097B1F08B81982F9F2171F09091A5
:10018000FE02892391E009F490E09093FC028C81B7
:100190008093FD02E881F98109950D80DE81C02DF3
:1001A000E8CF9BB3F8018481982351F09BB3892B4E
:1001B0008BBB0190F081E02D80818093FE02BACF4D
:1001C000DF91CF911F910F91FF9008951F920F9291
:1001D0000FB60F9211242F933F934F935F936F931A
:1001E0007F938F939F93AF93BF93EF93FF93E09190
:1001F000F202F091F30280818093FE0282EF92E09E
:100200000E949400FF91EF91BF91AF919F918F91C8
:100210007F916F915F914F913F912F910F900FBE02
:100220000F901F9018951F920F920FB60F921124E6
:100230002F933F934F935F936F937F938F939F93EE
:10024000AF93BF93EF93FF93E091E802F091E9023F
:1002500080818093FE0288EE92E00E949400FF91DC
:10026000EF91BF91AF919F918F917F916F915F912E
:100270004F913F912F910F900FBE0F901F901895A7
:100280001F920F920FB60F9211242F933F934F930B
:100290005F936F937F938F939F93AF93BF93EF93EE
:1002A000FF93E091DE02F091DF0280818093FE02F5
:1002B0008EED92E00E949400FF91EF91BF91AF917B
:1002C0009F918F917F916F915F914F913F912F916E
:1002D0000F900FBE0F901F901895AF92BF92CF92C4
:1002E000DF92EF92FF920F931F9385E293E00E94BB
:1002F000740F6DE071E08CEF93E00E94CA1861E327
:1003000071E08CEF93E00E94CA1862E08CE00E94DA
:10031000861660E080E10E94861660E081E10E941E
:10032000861660E082E10E94861660E087E00E9407
:10033000861681E090E00E94F31D813009F01CC117
:10034000809304028CE00E94F016892B61F4809166
:100350000402882309F413C160E081E090E00E9468
:10036000FB1D109204028FE293E00E941D1240E8F0
:100370005AE166E070E08FE293E00E942F1262E0A3
:1003800087E00E94861685E293E00E94910F969581
:100390008795779567956093AF027093B0028093CD
:1003A000B1029093B2028FEB92E00E9488158EE02A
:1003B0000E943F1690931C0280931B02BC01990F70
:1003C000880B990B1F921F921F921F9238E2A32E47
:1003D000B12CC12CD12CE12CF12C87012FEF33E073
:1003E00040E050E00E94871A0E94F41B20E030E0B9
:1003F00040E251E40E944A1B6093020170930301A2
:1004000080930401909305018FE00E943F16909322
:100410001E0280931D02BC01990F880B990B1F923D
:100420001F921F922CE82F93A12CB12C65012FEF66
:1004300033E040E050E00E94871A0E94F41B20E065
:1004400030E040E251E40E944A1B60930601709341
:1004500007018093080190930901E12CF12C870199
:1004600020E030E040E050E461E070E089E592E0B7
:100470000E942D0E4DEC5CEC6CE47EE389E592E08D
:100480000E94990D26E636E646E65FE36091060196
:100490007091070180910801909109010E94A91CA7
:1004A0009B01AC0161E070E08CE392E00E942D0EB4
:1004B0004091020150910301609104017091050186
:1004C0008CE392E00E94990D209106013091070182
:1004D000409108015091090161E070E08FE192E0E4
:1004E0000E942D0E40910201509103016091040180
:1004F000709105018FE192E00E94990D24EC39E0A2
:1005000040E951E069E070E080E992E00E94E30C8C
:1005100024EC39E040E951E066E070E08DE892E0DB
:100520000E94E30C24EC39E040E951E065E070E022
:100530008AE892E00E94E30C24EC39E040E951E0C3
:1005400063E070E087E892E00E94E30C8DB79EB70D
:1005500008960FB6F8949EBF0FBE8DBF67E871E096
:100560008CEF93E01F910F91FF90EF90DF90CF9071
:10057000BF90AF900C94CA1810920402E3CE61E0D1
:1005800081E090E00E94FB1D81E080930402EBCEAD
:100590002F923F924F925F926F927F928F929F9293
:1005A000AF92BF92CF92DF92EF92FF920F931F9381
:1005B000CF93DF93CDB7DEB768970FB6F894DEBF61
:1005C0000FBECDBF8CE00E94F01690931202809374
:1005D00011028FE00E943F1690931E0280931D022D
:1005E0008EE00E943F1690931C0280931B0286E0CF
:1005F0000E943F16893E23E0920714F088EE93E0B4
:100600008431910514F484E190E090931A02809370
:10061000190287E00E943F16893E33E0930714F0E9
:1006200088EE93E08431910514F484E190E0909396
:1006300018028093170280E10E943F16893EA3E0D2
:100640009A0714F088EE93E08431910514F484E164
:1006500090E0909316028093150281E10E943F166C
:10066000893EB3E09B0714F088EE93E08431910556
:1006700014F484E190E0909314028093130260914B
:100680001D0270911E02072E000C880B990B1F9201
:100690001F921F922CE82F93A12CB12C6501E12C05
:1006A000F12C87012FEF33E040E050E00E94871AE1
:1006B0000E94F41B6B017C010F900F900F900F9024
:1006C00020E030E040E251E40E94451B87FDD9C79D
:1006D00020E030E040E752E4C701B6010E94A41CCC
:1006E000181634F4C12CD12CA0E7EA2EA2E4FA2E7D
:1006F00020E030E040E251E4C701B6010E944A1B0D
:10070000609306017093070180930801909309019B
:1007100060911B0270911C02072E000C880B990B34
:100720001F921F921F921F92E8E2AE2EB12CC12C95
:10073000D12CE12CF12C87012FEF33E040E050E089
:100740000E94871A0E94F41B6B017C010F900F908E
:100750000F900F9020E030E040E050E40E94451BF5
:1007600087FD96C720E030E040E252E4C701B601C1
:100770000E94A41C181634F4C12CD12C60E2E62E81
:1007800062E4F62E20E030E040E251E4C701B60119
:100790000E944A1B6093020170930301809304013D
:1007A000909305016091190270911A02072E000CB6
:1007B000880B990B1F921F921F921F9210E5A12E7A
:1007C000B12CC12CD12C18EEE12E13E0F12E00E05B
:1007D00010E024E130E040E050E00E94871A0E94DF
:1007E000F41B20E030E040E251E40E944A1B609399
:1007F00080027093810280938202909383026091C1
:10080000170270911802072E000C880B990B2FEF1E
:100810002F932F932F932CE92F9334E6A32EB12CF3
:10082000C12CD12C24E130E040E050E00E94871A36
:100830002AE0269FA001279F500D112450937F028C
:1008400040937E026091130270911402072E000CF7
:10085000880B990B1F921F921F9224E62F93A12CB5
:10086000B12C650114E1E12EF12C00E010E028EE3E
:1008700033E040E050E00E94871A0FB6F894DEBFE4
:100880000FBECDBF6135710514F060E570E06431D5
:10089000710514F464E170E070930101609300014C
:1008A0006091150270911602072E000C880B990BAF
:1008B0001F921F921F9224E62F93A12CB12C650149
:1008C00014E1E12EF12C00E010E028EE33E040E0EE
:1008D00050E00E94871A0F900F900F900F9065368E
:1008E000710514F064E670E06A30710514F46AE092
:1008F00070E02AE0269FC001279F900D112490935D
:10090000770280937602F3EBCF2EF2E0DF2EA5EB99
:10091000EA2EA2E0FA2E07EB12E029EB32E04BEBD5
:1009200052E06DEB72E08FEB92E00E941415409163
:1009300002015091030160910401709105018CE363
:1009400092E00E94990D26E636E646E65FE3609166
:1009500006017091070180910801909109010E94A0
:10096000A91CAB01BC018CE392E00E94D00D409128
:1009700002015091030160910401709105018FE122
:1009800092E00E94990D40910601509107016091FB
:100990000801709109018FE192E00E94D00D6091F1
:1009A000AB027091AC028091AD029091AE020E94B8
:1009B000F41BAB01BC0189E592E00E94640E89E55D
:1009C00092E00E946E0F0E94BC1B7093DD02609348
:1009D000DC0280910402811161C66091B7027091BE
:1009E000B802072E000C880B990B0E94F41BAB0178
:1009F000BC018CE392E00E94640E8CE392E00E94C2
:100A00006E0F0E94BC1B7093D1026093D002609164
:100A1000B5027091B602072E000C880B990B0E944C
:100A2000F41BAB01BC018FE192E00E94640E8FE1E8
:100A300092E00E946E0F0E94BC1B7093D3026093E1
:100A4000D2026091D2027091D302072E000C880B63
:100A5000990B1F921F9237E03F93A0EDAF93A12C0B
:100A6000B12C650110EDE12E1AE8F12E0FEF1FEF0A
:100A700020E335E740E050E00E94871A0E94F41B13
:100A800060939702709398028093990290939A02D0
:100A90006091D0027091D102072E000C880B990B47
:100AA0001F921F92B7E0BF9320ED2F9310E4E12E29
:100AB0001BE2F12E0EEF1FEF20EC34ED41E050E091
:100AC0000E94871A0E94F41B609393027093940211
:100AD00080939502909396020E94E6150FB6F894C3
:100AE000DEBF0FBECDBF6838734181059105E8F1C7
:100AF0006091DC027091DD02673628E0720714F025
:100B000066E678E06B3633E0730714F46BE673E067
:100B10007093DD026093DC02072E000C880B990BAA
:100B20001F921F9223E02F9328EE2F9338E1A32EDC
:100B30003CEFB32ECC24CA94DC2C16E6E12E18E050
:100B4000F12E00E010E02BE633E040E050E00E94A0
:100B5000871A8091AB029091AC029093CF02809360
:100B6000CE020F900F900F900F9010927B02109278
:100B70007A02109279021092780210927D021092FD
:100B80007C02C0909302D0909402E0909502F09085
:100B90009602A7019601C701B6010E94A91C6D8BA0
:100BA0007E8B8F8B988F8091970290919802A09165
:100BB0009902B0919A0289839A83AB83BC839C018A
:100BC000AD0160E070E08AEF94E40E94D81A9B01C6
:100BD000AC010E94A91C698B7A8B8B8B9C8B2D8915
:100BE0003E894F89588D0E94D91A0E941C1D4B01C5
:100BF0005C018091800290918102A0918202B0916B
:100C000083028D839E83AF83B88720E030E040EC81
:100C10005FE3BC01CD010E94A91C69877A878B879D
:100C20009C8760917E0270917F02072E000C880BDA
:100C3000990B0E94F41B2B013C0128EB36EC40EB96
:100C400054E4C501B4010E94D81A29853A854B8520
:100C50005C850E94A91C28EB36EC40EB54E40E9412
:100C6000D91AA30192010E94D91A20E030E0A9010B
:100C70000E94D91A20E030E0A9010E94D91A4B0144
:100C80005C0120E030E0A9010E94451B87FD28C5DA
:100C900020E030EC40E355E4C501B4010E94A41CFF
:100CA00018163CF4812C20EC922E20E3A22E25E491
:100CB000B22E8092A7029092A802A092A902B092AE
:100CC000AA02A701960160E070E08AEF94E40E9416
:100CD000D81A9B01AC010E94A91C6D877E878F8763
:100CE000988B29893A894B895C890E94D91A0E947C
:100CF0001C1D28EB36EC40EB54E40E94D81A2985E1
:100D00003A854B855C850E94A91C28EB36EC40EBAC
:100D100054E40E94D91AA30192010E94D91A20E03A
:100D200030E0A9010E94D91A6B017C0120E030E07B
:100D3000A9010E94451B87FDD7C420E030EC40E3A9
:100D400055E4C701B6010E94A41C18163CF4C12C3E
:100D500090ECD92E90E3E92E95E4F92EC092A302EF
:100D6000D092A402E092A502F092A60229813A81D3
:100D70004B815C81CA01B9010E94A91C69837A83F5
:100D80008B839C832D893E894F89588D0E94D91A67
:100D90000E941C1D28EB36EC40EB54E40E94D81A4C
:100DA0002D813E814F8158850E94A91C20E030E0B2
:100DB00040E45FE30E94A91C28EB36EC40EB54E4CE
:100DC0000E94D91AA30192010E94D91A20E030E0B2
:100DD000A9010E94D91A20E030E0A9010E94D91A85
:100DE0006B017C0120E030E0A9010E94451B87FDDA
:100DF0007FC420E030EC40E355E4C701B6010E9417
:100E0000A41C18163CF4C12C80ECD82E80E3E82EEC
:100E100085E4F82EC0929F02D092A002E092A10237
:100E2000F092A2022D853E854F85588969817A818D
:100E30008B819C810E94D91A0E941C1D28EB36ECE4
:100E400040EB54E40E94D81A2D813E814F81588591
:100E50000E94A91C20E030E040E45FE30E94A91C4E
:100E600028EB36EC40EB54E40E94D91AA30192011E
:100E70000E94D91A20E030E0A9010E94D91A6B0122
:100E80007C0120E030E0A9010E94451B87FD34C4AD
:100E900020E030EC40E355E4C701B6010E94A41CF9
:100EA00018163CF4C12C00ECD02E00E3E02E05E433
:100EB000F02EC0929B02D0929C02E0929D02F09292
:100EC0009E02809100019091010164E670E0681B30
:100ED000790B072E000C880B990B0E94F41B20E065
:100EE00030E048EC52E40E944A1B2B013C01609127
:100EF000760270917702660F771F072E000C880B21
:100F0000990B0E94F41B69837A838B839C83A301D2
:100F100092010E94A91C6B017C0120E030E0A90134
:100F20000E94451B87FDECC320E030E04AE754E413
:100F3000C701B6010E94A41C181634F4C12CD12C90
:100F4000BAE7EB2EB4E4FB2EC701B6010E94BC1B2E
:100F50007093100260930F02A301920160E070E0B1
:100F600080E89FE30E94D81A29813A814B815C81F5
:100F70000E94A91C6B017C0120E030E0A9010E94C5
:100F8000451B87FDC1C320E030E04AE754E4C701B8
:100F9000B6010E94A41C181634F4C12CD12CAAE767
:100FA000EA2EA4E4FA2EC701B6010E94BC1B70937E
:100FB0000E0260930D0284EF91E09093DB02809328
:100FC000DA0224EC39E03093D9022093D80230932E
:100FD000D7022093D6029093D5028093D402C50104
:100FE000B4010E94BC1B1F921F9229E02F9324EC96
:100FF0002F9334EFA32EBB24B394C12CD12C1CE02F
:10100000E12E1BE0F12E00E010E020E030E0A9012D
:101010000E94871A0E94F41B6093A7027093A80293
:101020008093A9029093AA02A090D802B090D9020E
:101030000B2C000CCC08DD086091A3027091A40277
:101040008091A5029091A6020E94BC1B2091DA0219
:101050003091DB028901330F220B330B3F932F9327
:101060001F930F931CE0E12E1BE0F12E00E010E037
:1010700020E030E0A9010E94871A0E94F41B6093CF
:10108000A3027093A4028093A5029093A602A0905D
:10109000D602B090D7020B2C000CCC08DD08609172
:1010A0009F027091A0028091A1029091A2020E94E1
:1010B000BC1B2091D4023091D5028901330F220B41
:1010C000330B3F932F931F930F931CE0E12E1BE0F4
:1010D000F12E00E010E020E030E0A9010E94871A24
:1010E0000E94F41B60939F027093A0028093A10260
:1010F0009093A202A090D402B090D5020B2C000CC9
:10110000CC08DD0860919B0270919C0280919D0249
:1011100090919E020E94BC1B2091D6023091D70272
:101120008901330F220B330B3F932F931F930F93A0
:101130001CE0E12E1BE0F12E00E010E020E030E0AA
:10114000A9010E94871A0E94F41B3B014C012090C8
:10115000A7023090A8024090A9025090AA02809164
:101160000F02909110025C01A4E2AA1AAAEFBA0A37
:101170006CED75E0681B790B072E000C880B990B42
:101180000E94F41B6B017C010FB6F894DEBF0FBE0A
:10119000CDBF9101A2010E94A41C18160CF4B8C284
:1011A000B5010B2C000C880B990B0E94F41B8B01D2
:1011B0008D8399839101A2010E94451B87FD03C085
:1011C00081014D825982C801AD81B9818093A70206
:1011D0009093A802A093A902B093AA020091A3023F
:1011E0001091A4023091A5023D838091A6028983CB
:1011F00098014D81582FB601C7010E94A41C1816F2
:1012000094F0B501BB0C880B990B0E94F41B6B0189
:101210007C0198014D8159810E94451B87FD03C0C7
:101220006801ED80F980C601D7018093A3029093F5
:10123000A402A093A502B093A60220909F02309032
:10124000A0020091A1021091A20280910D02909142
:101250000E025C01A4E2AA1AAAEFBA0A6CED75E0CC
:10126000681B790B072E000C880B990B0E94F41B4E
:101270006B017C019101A8010E94A41C18160CF4BA
:101280004BC2B5010B2C000C880B990B0E94F41B70
:101290006D8379832C019101A8010E94451B87FD74
:1012A00003C02D82398228018D819981D2018093DA
:1012B0009F029093A002A093A102B093A202960174
:1012C000A701B301C4010E94451B87FD12C0B501EF
:1012D000BB0C880B990B0E94F41B6B017C019B01DA
:1012E000AC01B301C4010E94A41C181614F06301E0
:1012F0007401C601D70180939B0290939C02A09336
:101300009D02B0939E0288E391E00E94F31D8D3E02
:1013100009F081C00E94E6150091090210910A02AD
:1013200020910B0230910C02601B710B820B930B0E
:10133000653171058105910508F442C06091A702ED
:101340007091A8028091A9029091AA020E94BC1BF0
:1013500080E992E00E94620D6091A3027091A40264
:101360008091A5029091A6020E94BC1B8DE892E09C
:101370000E94620D60919F027091A0028091A10273
:101380009091A2020E94BC1B8AE892E00E94620D2A
:1013900060919B0270919C0280919D0290919E02AF
:1013A0000E94BC1B87E892E00E94620D0E94E61535
:1013B0006093090270930A0280930B0290930C02CF
:1013C0000E94E61500910502109106022091070285
:1013D00030910802601B710B820B930B693C710505
:1013E00081059105C0F060919B0270919C028091F3
:1013F0009D0290919E020E94BC1B84E892E00E9494
:10140000620D0E94E61560930502709306028093B8
:101410000702909308028CE00E94F016892BC1F419
:101420006CED75E080E992E00E94620D6CED75E074
:101430008DE892E00E94620D6CED75E08AE892E022
:101440000E94620D6CED75E087E892E00E94620DEB
:1014500062E971E08CEF93E00E94B71860917E0220
:1014600070917F024AE050E08CEF93E00E94751982
:101470006AEA71E08CEF93E00E94B7186AE971E0C4
:101480008CEF93E00E94B718409180025091810246
:10149000609182027091830222E030E08CEF93E051
:1014A0000E94851A6AEA71E08CEF93E00E94B718F7
:1014B00060EA71E08CEF93E00E94B7186091000140
:1014C000709101014AE050E08CEF93E00E947519A1
:1014D0006AEA71E08CEF93E00E94B71863EB71E069
:1014E0008CEF93E00E94B7186091760270917702BA
:1014F000660F771F660F771F4AE050E08CEF93E08E
:101500000E9475196AEA71E08CEF93E00E94B718A7
:1015100065EA71E08CEF93E00E94B71840910601F4
:1015200050910701609108017091090122E030E0BB
:101530008CEF93E00E94851A6AEA71E08CEF93E0E9
:101540000E94B7186CEA71E08CEF93E00E94B71824
:1015500040910201509103016091040170910501D5
:1015600022E030E08CEF93E00E94851A6AEA71E095
:101570008CEF93E00E94B71862EB71E08CEF93E080
:101580000E94B71860910F0270911002660F771FCA
:101590004AE050E08CEF93E00E9475196AEA71E02E
:1015A0008CEF93E00E94B7186AEB71E08CEF93E048
:1015B0000E94B71860910D0270910E02660F771F9E
:1015C0004AE050E08CEF93E00E9475196AEA71E0FE
:1015D0008CEF93E00E94B71862EC71E08CEF93E01F
:1015E0000E94B7184091A7025091A8026091A902E9
:1015F0007091AA0222E030E08CEF93E00E94851AFD
:101600006AEA71E08CEF93E00E94B71869EC71E030
:101610008CEF93E00E94B71840919F025091A00276
:101620006091A1027091A20222E030E08CEF93E081
:101630000E94851A6AEA71E08CEF93E00E94B71865
:101640006091040270E04AE050E08CEF93E068960D
:101650000FB6F894DEBF0FBECDBFDF91CF911F91C3
:101660000F91FF90EF90DF90CF90BF90AF909F9041
:101670008F907F906F905F904F903F902F900C9441
:101680007C19C12CD12CF0E2EF2EF1E4FF2E30C8F2
:10169000C12CD12CE12C50E4F52E74C86091B50218
:1016A0007091B602072E000C880B990B0E94F41B58
:1016B000AB01BC018CE392E00E94640E8CE392E0EB
:1016C0000E946E0F0E94BC1B7093D1026093D002E7
:1016D0006091B7027091B8027195619571099BC9CB
:1016E000812C912C5401E5CAC12CD12C760136CB2A
:1016F000C12CD12C76018ECBC12CD12C7601D9CB2B
:10170000C12CD12C760120CCC12CD12C76014BCC14
:101710008601ED82F98257CDCD82D9822701C4CDD1
:10172000CF92DF92EF92FF920F931F93E1EBF0E0E5
:1017300085919491E2EFF2E0918380838BE690E0D3
:101740009383828381E084831582168211861086BA
:10175000E3EBF0E085919491E8EEF2E091838083F1
:101760008CE690E09383828382E0848315821682E4
:1017700011861086E5EBF0E085919491EEEDF2E0B4
:10178000918380838DE690E09383828384E08483D9
:10179000158216821186108668E68FEB92E00E9411
:1017A000FB1480E992E00E94C80C8DE892E00E9450
:1017B000C80C8AE892E00E94C80C87E892E00E9478
:1017C000C80C84E892E00E94C80CC12CD12C760190
:1017D00000E010E020E83FE3B901A80189E592E0CC
:1017E0000E94F90D00E010E020E83FE3B901A801F4
:1017F0008CE392E00E94F90D00E010E020E83FE366
:10180000B901A8018FE192E00E94F90D1F910F919B
:10181000FF90EF90DF90CF9008951F920F920FB638
:101820000F9211242F933F934F935F936F937F9366
:101830008F939F93AF93BF93EF93FF938091000398
:1018400087FF27C0109285001092840080910003CA
:101850008F5F8093000380910003082E000C990B8A
:101860002091FF022817190629F024F08091000327
:101870008C30DCF180918400909185000496803456
:101880009C4908F47BC08091840090918500049667
:1018900077C080910003082E000C990B2091FF0265
:1018A0002817190699F294F2E09100038E2FEE0F9B
:1018B000990BFC01EE0FFF1FE80FF91FEF5FFC4FC4
:1018C000808186FFC3CFE09100038E2FEE0F990B2E
:1018D000FC01EE0FFF1FE80FF91FEF5FFC4F808147
:1018E00060E08F730E94C216B1CF209184003091C6
:1018F0008500E09100038E2FEE0F990BFC01EE0F97
:10190000FF1FE80FF91FEF5FFC4F81819281820F6B
:10191000931F9093890080938800E09100038E2F9D
:10192000EE0F990BFC01EE0FFF1FE80FF91FEF5FA1
:10193000FC4F808186FF11C0E09100038E2FEE0FD7
:10194000990BFC01EE0FFF1FE80FF91FEF5FFC4F33
:10195000808161E08F730E94C216FF91EF91BF9169
:10196000AF919F918F917F916F915F914F913F9137
:101970002F910F900FBE0F901F90189580E49CE957
:1019800090938900809388008FEF80930003E5CFC8
:10199000FC019091FF029C3098F481E0890F8093C4
:1019A000FF029083892F90E0FC01EE0FFF1FE80FEC
:1019B000F91FEF5FFC4F88EB9BE0928381830895D2
:1019C0008FEF80830895DF92EF92FF920F931F9322
:1019D000CF93DF93EC01D62E7A01890188818C3078
:1019E00008F067C061E08D2D0E9486168881282F3F
:1019F00030E0F901EE0FFF1FE20FF31FEF5FFC4F26
:101A00009D2D9F736081607C692B608320E232E0B2
:101A10002E193F0937FF02C02D5F3F4F359527959F
:101A200035952795298320E639E0201B310B37FFB8
:101A300002C02D5F3F4F35952795359527952A8311
:101A40002CE0622F0E94861D829FB001112430E09D
:101A500020E0AB01420F531FFA01EE0FFF1FE40F0E
:101A6000F51FEF5FFC4F908196FD16C02F5F3F4F33
:101A70002C30310571F781110FC01092800082E087
:101A8000809381001092850010928400B19A809119
:101A90006F00826080936F00E8818E2F90E0FC01E0
:101AA000EE0FFF1FE80FF91FEF5FFC4F808180648E
:101AB00080838881DF91CF911F910F91FF90EF90EC
:101AC000DF900895DC01EC91EC3090F511968C914B
:101AD000119728E830E0281B310987FD3395220F44
:101AE000331F220F331F6217730784F012968C91F5
:101AF00028E532E0281B310987FD3395220F331F7B
:101B0000220F331F621773070CF49B012250310917
:101B1000220F331F4FB7F8948E2F90E0FC01EE0F89
:101B2000FF1FE80FF91FEF5FFC4F328321834FBF88
:101B30000895CF92DF92EF92FF92CF93DF93EC0163
:101B40006A017B012FE632E143E85AE3CB01B6019B
:101B50000E94451B87FD11C020E030E04AE754E4B5
:101B6000C701B6010E94A41C18167CF4C12CD12C0C
:101B70008AE7E82E84E4F82E08C09FE6C92E92E199
:101B8000D92E93E8E92E9AE3F92EC88AD98AEA8AEF
:101B9000FB8ADF91CF91FF90EF90DF90CF90089577
:101BA000CF92DF92EF92FF92CF93DF93EC016A0125
:101BB0007B0120E030E0A901CB01B6010E94A41C0A
:101BC000181624F0F7FAF094F7F8F0942BED3FE0B4
:101BD00049EC50E4C701B6010E94A91C6C8B7D8BB7
:101BE0008E8B9F8BDF91CF91FF90EF90DF90CF9006
:101BF00008958F929F92AF92BF92CF92DF92EF9211
:101C0000FF920F931F93CF93DF93EC014A015B0187
:101C1000B901A801C882D982EA82FB821C821D8296
:101C20001E821F82188E0E94990DB501A401CE015B
:101C30000E94D00D0E94F215698F7A8F8B8F9C8F36
:101C4000DF91CF911F910F91FF90EF90DF90CF9098
:101C5000BF90AF909F908F900895EF92FF920F9357
:101C60001F93CF93DF93EC01FB01CA01B901188EDA
:101C7000E882F9820A831B833097D1F42AE037ED9A
:101C800043EA5FE30E94A91CAB01BC01CE010E94A4
:101C9000D00D8DE790EDA3E1BFE3888B998BAA8BE4
:101CA000BB8BDF91CF911F910F91FF90EF90089523
:101CB0003197B9F7A901BC01CE010E94D00D81E88E
:101CC00094E0A5E3BFE3E9CF2F923F924F925F925A
:101CD0006F927F928F929F92AF92BF92CF92DF923C
:101CE000EF92FF920F931F93CF93DF93CDB7DEB7A1
:101CF0002A970FB6F894DEBF0FBECDBF9A878987AB
:101D00002A013B01DC011C964D925D926D927C9202
:101D10001F970E94F2156B017C01E985FA85818D80
:101D2000928DA38DB48DA7019601281B390B4A0B08
:101D30005B0BCA01B9010E94F41B2DEB37E346E8A7
:101D400055E30E94A91C4B015C01A985BA855996EF
:101D5000CD92DD92ED92FC925C975496CD90DD9001
:101D6000ED90FC90579720E030E0A9010E94451BC0
:101D700087FDAFC0A701960160E070E080E89FE3B7
:101D80000E944A1B162F072F382E292E262F372F59
:101D9000482F592FB401C5010E94A41C181624F025
:101DA000182D092D3A2C2B2CA7019601C701B6013D
:101DB0000E94A91C6D837E838F839887E985FA85AD
:101DC00084809580A680B7802081318142815381B3
:101DD00029833A834B835C839B01AC01C301B2012D
:101DE0000E94A91C2B013C01E985FA8520893189D3
:101DF00042895389C701B6010E944A1BA50194017B
:101E00000E94A91C9B01AC01C301B2010E94D81A17
:101E10006B017C012D813E814F81588569817A81DA
:101E20008B819C810E94A91C9B01AC01C701B6015A
:101E30000E94D81A212F302F432D522D0E94A91C09
:101E4000A50194010E94D91A6B017C01AC019B0190
:101E5000C501B4010E94D91A20E030E040E05FE300
:101E60000E94A91CA985BA8518966D937D938D93C0
:101E70009C931B97212F302F432D522D0E94A91C7C
:101E800029813A814B815C810E94D91AE985FA85C2
:101E90006083718382839383C482D582E682F782D2
:101EA0002A960FB6F894DEBF0FBECDBFDF91CF915B
:101EB0001F910F91FF90EF90DF90CF90BF90AF9068
:101EC0009F908F907F906F905F904F903F902F905A
:101ED000089510E000E0312C212C66CFFC016081D8
:101EE0007181828193810895CF93DF93A0EBB0E05D
:101EF0002C91EC012887E1EBF0E02081298780819B
:101F0000887F82608083C0E7D0E088818160888399
:101F10008C918C7F8C938081877F8083DF91CF91A0
:101F20000895FC013FB7F8942091B200B89B0EC011
:101F30002091B20080819181A281B3810196A11D7F
:101F4000B11D80839183A283B383B89A80819181EC
:101F5000A281B381BA2FA92F982F8827820F911DB4
:101F6000A11DB11D84839583A683B7833FBF648180
:101F70007581868197810895FC014081518162813C
:101F800073814F5F5F4F6F4F7F4F408351836283F9
:101F9000738308951F920F920FB60F9211242F93FF
:101FA0003F934F935F936F937F938F939F93AF93E1
:101FB000BF93EF93FF9385E293E00E94BC0FFF91E4
:101FC000EF91BF91AF919F918F917F916F915F91B1
:101FD0004F913F912F910F900FBE0F901F9018952A
:101FE000E5E2F3E0108211821282138214821582DC
:101FF000168217820895FF920F931F93CF93DF935A
:10200000C62F042FF22E132F682F8FE293E00E9429
:1020100033126C2F8FE293E00E94C111CF2DD12F8C
:102020000C0F1D2F111DC017D10731F069918FE2E0
:1020300093E00E94C111F7CF8FE293E00E94B612A5
:1020400091E0811190E0892FDF91CF911F910F9145
:10205000FF900895CF93DF931F92CDB7DEB74983EA
:102060009E012F5F3F4F41E00E94FB0F0F90DF91D9
:10207000CF9108952F923F924F925F926F927F92ED
:102080008F929F92AF92BF92CF92DF92EF92FF9288
:102090000F931F93CF93DF9300D000D0CDB7DEB75F
:1020A0008C83D62E4B833A8329830E94E6154B01FD
:1020B0005C018B81E82EF12C282E813210F080E219
:1020C000282E312CC12C2801712C612C8B813816C3
:1020D00008F043C06C818FE293E00E9433126D2DB3
:1020E0008FE293E00E94C1118FE293E00E94B6124A
:1020F0006C818FE293E00E943312A70143195109CA
:102100004032510514F040E250E06C818FE293E0E0
:102110000E94B3128FE293E00E946111892BD9F0E3
:102120000115110569F48FE293E00E946811E981BD
:10213000FA81EC0DF11DC7FCFA958083C394EACFB8
:102140000E94E615681979098A099B0964157505C5
:102150008605970540F3320CB9CF01151105B1F092
:102160000E94E615681979098A099B0930E020E088
:10217000601771078207930748F08C2D0C2C000C18
:10218000990B8E159F0514F4CC24CA948C2D0F90B6
:102190000F900F900F90DF91CF911F910F91FF90B3
:1021A000EF90DF90CF90BF90AF909F908F907F90F7
:1021B0006F905F904F903F902F9008950F931F93D3
:1021C00089019A0141E00E943A101F910F910895F0
:1021D000EF92FF920F931F93CF93DF931F92CDB790
:1021E000DEB7182F062FE42EF22E20910A0130912F
:1021F0000B01AE014F5F5F4F0E94DE1081E090E067
:1022000001C0880FEA94EAF74981FF2071F0482B5A
:102210004983602F812F0E942A100F90DF91CF9168
:102220001F910F91FF90EF90089580954823F0CF74
:10223000DF92EF92FF920F931F93CF93DF931F9242
:10224000CDB7DEB7F82EE62E142FD22E20910A013C
:1022500030910B01AE014F5F5F4F0E94DE1088236B
:1022600059F1812F8D19990BAC014F5F5F4F81E0C0
:1022700090E002C0880F991FDA94E2F70197042ECC
:1022800001C0880F0A94EAF701C0000F4A95EAF7E7
:10229000482F4095998149238023482B49836E2DEF
:1022A0008F2D0E942A100F90DF91CF911F910F91D7
:1022B000FF90EF90DF90089580E0F5CF90E080E010
:1022C00008958091630390916403891B990B08958D
:1022D00090916403809163032FEF3FEF981748F4C8
:1022E000E92FF0E0EB59FC4F208130E09F5F9093A5
:1022F0006403C9010895E091640380916303E817C2
:1023000030F4F0E0EB59FC4F808190E008958FEFBE
:102310009FEF08950895CF93DF93EC01E0913B0385
:10232000F0913C033097F1F0909164038091630346
:102330009817C0F090E0292F30E02617370754F4A3
:10234000DE01A20FB31F4C912B593C4FD9014C9386
:102350009F5FF1CF1092640360936303CB01DF9121
:10236000CF910994DF91CF910895E0913D03F091D1
:102370003E03309729F010924103109240030994D4
:102380000895CF93DF931F92CDB7DEB76983209175
:102390003F032223F9F020914003203258F021E03E
:1023A00030E0FC013383228390E080E00F90DF91E6
:1023B000CF91089580914103E82FF0E0EE5BFC4F50
:1023C000998190838F5F809341038093400381E0E4
:1023D00090E0ECCF61E0CE0101960E949A13F7CF16
:1023E000CF92DF92EF92FF920F931F93CF93DF93E1
:1023F0007C01CB018A0120913F03222389F0EB016C
:102400006B01C40ED51ECC15DD0569F06991D701AD
:10241000ED91FC910190F081E02DC7010995F3CF7A
:10242000642F0E949A13C801DF91CF911F910F91E1
:10243000FF90EF90DF90CF90089510926403109278
:10244000630310924103109240030E94CA1285EB6D
:1024500091E10E94C6138BE891E10C94C113CB016A
:10246000BA010C94E81281E080933F036093620309
:10247000109241031092400308950F93062F21E01C
:102480004091400362E473E0809162030E94431331
:10249000109241031092400310923F030F91089550
:1024A0004F925F926F927F92AF92BF92CF92EF92D4
:1024B000FF920F931F93CF93DF935C01F62ED42FDF
:1024C00028013901EE2019F10E943312CE2DC430BB
:1024D00008F0C3E0C150B8F028E0C29FC001112449
:1024E000A301920104C056954795379527958A9583
:1024F000D2F7B901D501ED91FC910190F081E02D69
:10250000C5010995E7CF60E0C5010E943D124D2F3E
:10251000D13208F040E22C2D65E673E08F2D0E9449
:10252000FB121092640380936303DF91CF911F919C
:102530000F91FF90EF90CF90BF90AF907F906F90F2
:102540005F904F900895CF92EF920F931F93C22EFA
:10255000E12C00E010E098010E9450121F910F91B1
:10256000EF90CF90089521E00C94A31261E00C94B9
:102570003D12EFE2F3E01382128288EE93E0A0E0D6
:10258000B0E084839583A683B78384ED91E0918343
:10259000808308951092F20381E08093F0031092FB
:1025A000EF0361E082E10E94C21661E083E10E94D4
:1025B000C216E9EBF0E080818E7F808380818D7F81
:1025C000808388E48093B80085E48093BC000895FC
:1025D0009B01AC0160E074E284EF90E00E94921DE8
:1025E000205131094109510956954795379527954D
:1025F0002093B8000895413208F043C09091F2034F
:102600009111FCCF91E09093F2032093F0032FEF10
:10261000209385031092CA03240F2093C90390933B
:10262000F1039091F103880F892B8093F10380913E
:10263000EF03813009F51092EF038091F10380934D
:10264000BB008091BC0083FDF8CF85EC8093BC007B
:102650008091F2038130E1F38091CA03841710F472
:102660004091CA03ABECB3E0962FFB018E2F891B80
:10267000841720F0842F089585EEE8CF8D91819303
:10268000F5CF40E0F7CF0F93413208F04BC0909167
:10269000F2039111FCCF92E09093F2030093F003C8
:1026A0009FEF909385031092CA034093C903362F7E
:1026B000ABECB3E0FB019E2F931B941770F11092CB
:1026C000F1039091F103880F892B8093F10380919E
:1026D000EF03813029F51092EF038091F10380938D
:1026E000BB008091BC0083FDF8CF85EC8093BC00DB
:1026F000222321F08091F2038230D1F3809185036F
:102700008F3F91F080918503803281F08091850325
:10271000803371F084E00F91089591919D93CBCF18
:1027200085EEE4CF81E0F7CF80E0F5CF82E0F3CF14
:1027300083E0F1CF2091A703260F3327331F2132E7
:102740003105ECF42091F203FC0190E080E02430AC
:1027500069F082E00895A091A7032191AC0147554B
:102760005C4FA40FB52FB11D2C930196861798F3DB
:102770008091A703680F6093A70380E0089581E02C
:1027800008959093EC038093EB0308959093EE03E8
:102790008093ED03089585ED8093BC008091BC008B
:1027A00084FDFCCF1092F203089585EC8093BC0069
:1027B0001092F20308951F920F920FB60F921124F8
:1027C0002F933F934F935F936F937F938F939F9339
:1027D000AF93BF93EF93FF938091B900887F8036CA
:1027E00009F44CC008F03FC0883209F4A8C018F5BD
:1027F000803109F49CC0B8F4882309F4F9C088300A
:1028000009F495C0FF91EF91BF91AF919F918F9186
:102810007F916F915F914F913F912F910F900FBEDC
:102820000F901F901895883109F489C0803251F7B4
:102830008093850315C0803409F49EC048F480332A
:10284000B9F38833F9F6809385030E94D513DACF64
:10285000803509F485C0883509F496C0883491F62E
:102860000E94CB13CFCF883909F48CC038F5883754
:1028700029F050F4883611F0803721F683E08093F8
:10288000F2031092860357C0883809F47BC0803960
:1028900019F0803809F0B6CF80918603803208F0B5
:1028A00071C0E091860381E08E0F80938603809152
:1028B000BB00F0E0E957FC4F80833DC0803B39F01E
:1028C000E0F4803A09F479C0883A09F09BCF84E0BB
:1028D0008093F2031092A8031092A703E091ED03F6
:1028E000F091EE0309958091A70381110FC081E05B
:1028F0008093A7031092A90309C0803C09F476C015
:10290000883C09F473C0883B09F07CCFE091A803B0
:1029100081E08E0F8093A803F0E0E755FC4F8081A3
:102920008093BB009091A8038091A70329C0809158
:10293000F1038093BB0085EC8093BC0063CF909142
:10294000CA038091C903981758F5E091CA0381E042
:102950008E0F8093CA03F0E0E553FC4F8081E9CFEE
:10296000E091CA0381E08E0F8093CA038091BB007F
:10297000F0E0E553FC4F80839091CA038091C90336
:102980009817C8F285E8D8CFE091CA0381E08E0F8E
:102990008093CA038091BB00F0E0E553FC4F808335
:1029A0008091F00381115CCF81E08093EF0384EA92
:1029B0008093BC001092F20325CF0E94D513809122
:1029C0008603803230F4E0918603F0E0E957FC4F53
:1029D00010826091860370E0E091EB03F091EC03CC
:1029E00087E893E00995109286030CCF85ECE0CF41
:1029F0001092850335CFFC01608308950F93062F55
:102A000022E044E06BE1FC0180810E9418110F91EB
:102A100008950F93062F22E044E06CE1FC018081D1
:102A20000E9418110F9108954F925F926F927F92BA
:102A30008F929F92AF92BF92CF92DF92EF92FF92CE
:102A40000F931F93CF93DF93EC013B014A01590190
:102A5000280100910A0110910B019C012F5F3F4F4B
:102A60004EE06BE388810E943A1089819A81982711
:102A700089279827F301918380838B819C819827F4
:102A800089279827F401918380838D819E819827DF
:102A900089279827F5019183808389859A859827CE
:102AA00089279827F201918380838B859C859827BD
:102AB00089279827F701918380838D859E859827A4
:102AC00089279827F60191838083DF91CF911F9109
:102AD0000F91FF90EF90DF90CF90BF90AF909F90BD
:102AE0008F907F906F905F904F900895262F46E0D3
:102AF0006BE6FC0180810C94E8100F93062F23E015
:102B000042E06BE6FC0180810E9418110F9108954C
:102B1000CF93DF93EC0161E00E947D1560E0CE0170
:102B20000E94FE1460E0CE010E94091560E0CE0113
:102B3000DF91CF910C9476151F920F920FB60F92E2
:102B400011242F933F938F939F93AF93BF938091C3
:102B5000F8039091F903A091FA03B091FB0330912F
:102B6000F70323E0230F2D3768F126E8230F0296A1
:102B7000A11DB11D2093F7038093F8039093F903EF
:102B8000A093FA03B093FB038091F3039091F403B5
:102B9000A091F503B091F6030196A11DB11D80939C
:102BA000F3039093F403A093F503B093F603BF915E
:102BB000AF919F918F913F912F910F900FBE0F90EA
:102BC0001F9018950196A11DB11DD4CF2FB7F89471
:102BD0006091F8037091F9038091FA039091FB03DF
:102BE0002FBF08953FB7F8948091F3039091F403B9
:102BF000A091F503B091F60326B5A89B05C02F3F21
:102C000019F00196A11DB11D3FBFBA2FA92F982F12
:102C10008827BC01CD01620F711D811D911D42E00D
:102C2000660F771F881F991F4A95D1F708957894EA
:102C300084B5836084BD85B5836085BDEEE6F0E034
:102C4000808181608083E1E8F0E082E080838081A0
:102C500081608083E0E8F0E0808181608083E1EB47
:102C6000F0E0808184608083E0EBF0E0808181602F
:102C7000808387E880937A001092C100089588309D
:102C800020F08D3008F48DE08E5020910C0190E4FE
:102C9000299F900111248770822B80937C00809162
:102CA0007A00806480937A0080917A0086FDFCCF60
:102CB00080917800909179000895843081F028F413
:102CC0008230E9F08330F9F00895883071F089306E
:102CD00091F08530B9F4809180008F7D03C08091A0
:102CE00080008F778093800008958091B0008F7767
:102CF0008093B00008958091B0008F7DF9CF84B5A6
:102D00008F7784BD089584B58F7DFBCFCF93DF93FC
:102D100090E0FC01E158FF4F24918A569F4FFC013F
:102D200084918823C9F090E0880F991FFC01EF532C
:102D3000FF4FA591B491FC01E954FF4FC591D49187
:102D400061110DC09FB7F8948C91209582238C93CC
:102D50008881282328839FBFDF91CF910895623017
:102D600051F49FB7F8943C91822F809583238C93E4
:102D7000E8812E2BEFCF8FB7F894EC912E2B2C936C
:102D80008FBFEACF1F93CF93DF93282F30E0F90155
:102D9000E859FF4F8491F901E158FF4FD491F901AF
:102DA000EA56FF4FC491CC23A9F0162F81110E943F
:102DB0005D16EC2FF0E0EE0FFF1FE954FF4FA591D9
:102DC000B4918FB7F894EC91111108C0D095DE231F
:102DD000DC938FBFDF91CF911F910895DE2BF8CF49
:102DE000CF93DF93282F30E0F901E859FF4F84910A
:102DF000F901E158FF4FD491F901EA56FF4FC49110
:102E0000CC23A1F081110E945D16EC2FF0E0EE0FB3
:102E1000FF1FE355FF4FA591B491EC91ED2381E0A5
:102E200090E009F480E0DF91CF91089580E090E098
:102E3000FACFFC01918D228D892F90E0805C9F4F0D
:102E4000821B91098F7399270895FC01918D828DC2
:102E5000981731F0828DE80FF11D858D90E008956F
:102E60008FEF9FEF0895FC01918D828D981761F08F
:102E7000A28DAE0FBF2FB11D5D968C91928D9F5F7D
:102E80009F73928F90E008958FEF9FEF0895FC015C
:102E9000538D448D252F30E0842F90E0821B930BBF
:102EA000541710F0CF9608950197089584E498E19F
:102EB000892B49F080E090E0892B29F00E9444188A
:102EC00081110C9400000895FC01A48DA80FB92F66
:102ED000B11DA35ABF4F2C91848D90E001968F7342
:102EE0009927848FA689B7892C93A089B1898C9161
:102EF00080648C93938D848D981306C00288F38927
:102F0000E02D80818F7D80830895CF93DF93EC0146
:102F1000888D8823B9F0AA89BB89E889F9898C91C1
:102F200085FD03C0808186FD0DC00FB607FCF7CF7D
:102F30008C9185FFF2CF808185FFEDCFCE010E947D
:102F40006417E9CFDF91CF910895EF92FF920F932D
:102F50001F93CF93DF93EC0181E0888F9B8D8C8D45
:102F6000981316C0E889F989808185FF11C0EE8920
:102F7000FF896083E889F98980818064808381E0AA
:102F800090E0DF91CF911F910F91FF90EF90089506
:102F9000F62E0B8D10E00F5F1F4F0F731127E02EE1
:102FA0008C8D8E110CC00FB607FCFACFE889F98919
:102FB000808185FFF5CFCE010E946417F1CFEB8DA4
:102FC000EC0FFD2FF11DE35AFF4FF0820B8FEA89C2
:102FD000FB8980818062D2CF1F920F920FB60F9231
:102FE00011242F938F939F93EF93FF93E0910C0401
:102FF000F0910D048081E0911204F091130482FDA0
:103000001BC09081809115048F5F8F7320911604EF
:10301000821741F0E0911504F0E0E450FC4F958FE9
:1030200080931504FF91EF919F918F912F910F90B5
:103030000FBE0F901F9018958081F4CF1F920F92B2
:103040000FB60F9211242F933F934F935F936F937B
:103050007F938F939F93AF93BF93EF93FF938CEFE7
:1030600093E00E946417FF91EF91BF91AF919F9100
:103070008F917F916F915F914F913F912F910F9021
:103080000FBE0F901F9018958CEF93E00E941917B8
:1030900021E0892B09F420E0822F0895ECEFF3E082
:1030A0001382128288EE93E0A0E0B0E084839583DF
:1030B000A683B78386EE91E09183808385EC90E0D0
:1030C0009587848784EC90E09787868780EC90E0F2
:1030D000918B808B81EC90E0938B828B82EC90E0E3
:1030E000958B848B86EC90E0978B868B118E128E5D
:1030F000138E148E0895AF92BF92CF92DF92EF920B
:10310000FF920F931F93CF93DF936C017B018B0191
:10311000040F151FEB015E01AE18BF08C017D107E1
:1031200059F06991D601ED91FC910190F081E02D6B
:10313000C6010995892B79F7C501DF91CF911F91C0
:103140000F91FF90EF90DF90CF90BF90AF900895D8
:10315000FB0101900020E9F73197AF01461B570BA7
:10316000DC01ED91FC910280F381E02D0994611561
:10317000710511F00C94A81890E080E00895DC012E
:10318000ED91FC910190F081E02D099464EF71E0E4
:103190000C94A8180F931F93CF93DF938C01D0E06A
:1031A000C0E06115710519F00E94A818EC01C80172
:1031B0000E94C6188C0F9D1FDF91CF911F910F9118
:1031C00008958F929F92AF92BF92EF92FF920F93CA
:1031D0001F93CF93DF93CDB7DEB7A1970FB6F894C7
:1031E000DEBF0FBECDBF7C01FA01CB0119A2223098
:1031F00008F42AE08E010F5D1F4F822E912CB12C16
:10320000A12CBF01A50194010E94921DF901CA01E0
:103210006A300CF5605DD8016E938D01232B242B51
:10322000252B79F790E080E0109721F0BD01C701D0
:103230000E94A818A1960FB6F894DEBF0FBECDBFAE
:10324000DF91CF911F910F91FF90EF90BF90AF90C2
:103250009F908F900895695CDECFCF92DF92EF92BE
:10326000FF920F931F93CF93DF932115310581F4C4
:10327000DC01ED91FC910190F081E02D642FDF9154
:10328000CF911F910F91FF90EF90DF90CF90099415
:103290002A30310501F52AE077FF1DC06A017B0164
:1032A000EC016DE20E94BF188C0144275527BA013A
:1032B0004C195D096E097F092AE0CE010E94E118D0
:1032C000800F911FDF91CF911F910F91FF90EF9091
:1032D000DF90CF900895DF91CF911F910F91FF90D4
:1032E000EF90DF90CF900C94E1189A01AB01770F2B
:1032F000660B770B0C942D190F931F93CF93DF93CD
:10330000EC010E9475198C01CE010E94C618800F35
:10331000911FDF91CF911F910F91089521153105D4
:1033200041F4DC01ED91FC910190F081E02D642FDE
:1033300009940C94E1189A01AB0170E060E00C94E0
:103340008E192F923F924F925F926F927F928F923F
:103350009F92AF92BF92CF92DF92EF92FF921F9314
:10336000CF93DF93EC016A017B01722EAB019601D2
:10337000CB01B6010E945C1D67EF71E0811126C090
:1033800046015701E894B7F82FEF3FEF4FE75FE7AB
:10339000C501B4010E945C1D81110CC02FEF3FEFED
:1033A0004FE75FE7C501B4010E94451B6BEF71E079
:1033B000181664F02FEF3FEF4FE75FE4C701B60147
:1033C0000E94A41C1816B4F46FEF71E0CE01DF91D7
:1033D000CF911F91FF90EF90DF90CF90BF90AF9073
:1033E0009F908F907F906F905F904F903F902F9025
:1033F0000C94A8182FEF3FEF4FE75FECC701B60121
:103400000E94451B87FDE0CF20E030E0A901C70105
:10341000B6010E94451B312C212C87FF09C06DE2AB
:10342000CE010E94BF181C01F7FAF094F7F8F0944F
:1034300010E060E070E080E09FE3711641F020E072
:1034400030E040E251E40E944A1B1F5FF6CFA70123
:1034500096010E94D91A2B013C010E94C31B4B010B
:103460005C012AE0BC01A401CE010E94E1187C01AC
:10347000E20CF31C1123B1F1C501B4010E94F21B4F
:103480009B01AC01C301B2010E94D81A4B015C013F
:103490006EE2CE010E94BF18E80EF91E115010F125
:1034A00020E030E040E251E4C501B4010E94A91CD3
:1034B0002B013C010E94C31B4B014AE050E0CE01AE
:1034C0000E949B19E80EF91EB40190E080E00E9472
:1034D000F21B9B01AC01C301B2010E94D81A4B013F
:1034E0005C01DCCFC701DF91CF911F91FF90EF907E
:1034F000DF90CF90BF90AF909F908F907F906F9014
:103500005F904F903F902F9008950C94A1194F9287
:103510005F926F927F92AF92BF92CF92DF92EF92C3
:10352000FF920F931F93CF93DF93CDB7DEB729019F
:103530003A019B01AC0124193509460957098989CB
:103540009A89AB89BC89BC01CD016A197B098C09B8
:103550009D090E94761DA801970124193509460985
:1035600057090E94B41DCA01B9016A0D7B1D8C1D4B
:103570009D1DDF91CF911F910F91FF90EF90DF90F4
:10358000CF90BF90AF907F906F905F904F900895D5
:1035900008950E9417160E94C81A0E946D01C6E580
:1035A000D7E10E94C8022097E1F30E945617F9CF95
:1035B0005058BB27AA270E94F01A0C946A1C0E943C
:1035C0005C1C38F00E94631C20F039F49F3F19F412
:1035D00026F40C94591C0EF4E095E7FB0C94531C54
:1035E000E92F0E947B1C58F3BA1762077307840700
:1035F000950720F079F4A6F50C949D1C0EF4E09547
:103600000B2EBA2FA02D0B01B90190010C01CA019C
:10361000A0011124FF27591B99F0593F50F4503E47
:1036200068F11A16F040A22F232F342F4427585F39
:10363000F3CF469537952795A795F0405395C9F751
:103640007EF41F16BA0B620B730B840BBAF0915009
:10365000A1F0FF0FBB1F661F771F881FC2F70EC0A8
:10366000BA0F621F731F841F48F48795779567957B
:10367000B795F7959E3F08F0B0CF9395880F08F067
:103680009927EE0F9795879508950E942F1C08F4AF
:1036900081E008950E945E1B0C946A1C0E94631CCA
:1036A00058F00E945C1C40F029F45F3F29F00C9414
:1036B000531C51110C949E1C0C94591C0E947B1C91
:1036C00068F39923B1F3552391F3951B550BBB2751
:1036D000AA2762177307840738F09F5F5F4F220F96
:1036E000331F441FAA1FA9F335D00E2E3AF0E0E88D
:1036F00032D091505040E695001CCAF72BD0FE2FD7
:1037000029D0660F771F881FBB1F2617370748076A
:10371000AB07B0E809F0BB0B802DBF01FF27935822
:103720005F4F3AF09E3F510578F00C94531C0C9477
:103730009E1C5F3FE4F3983ED4F38695779567959A
:10374000B795F7959F5FC9F7880F911D9695879557
:1037500097F90895E1E0660F771F881FBB1F621776
:1037600073078407BA0720F0621B730B840BBA0B34
:10377000EE1F88F7E09508950E94C31B6894B1116D
:103780000C949E1C08950E94831C88F09F5798F00B
:10379000B92F9927B751B0F0E1F0660F771F881F56
:1037A000991F1AF0BA95C9F714C0B13091F00E9470
:1037B0009D1CB1E008950C949D1C672F782F8827DD
:1037C000B85F39F0B93FCCF3869577956795B39597
:1037D000D9F73EF490958095709561957F4F8F4F06
:1037E0009F4F0895E89409C097FB3EF4909580950B
:1037F000709561957F4F8F4F9F4F9923A9F0F92FB7
:1038000096E9BB279395F695879577956795B79534
:10381000F111F8CFFAF4BB0F11F460FF1BC06F5F1A
:103820007F4F8F4F9F4F16C0882311F096E911C02C
:10383000772321F09EE8872F762F05C0662371F04D
:1038400096E8862F70E060E02AF09A95660F771F61
:10385000881FDAF7880F9695879597F90895990F3D
:103860000008550FAA0BE0E8FEEF16161706E8074A
:10387000F907C0F012161306E407F50798F0621B6B
:10388000730B840B950B39F40A2661F0232B242B40
:10389000252B21F408950A2609F4A140A6958FEF5F
:1038A000811D811D089597F99F6780E870E060E0B1
:1038B00008959FEF80EC089500240A9416161706C9
:1038C00018060906089500240A9412161306140611
:1038D00005060895092E0394000C11F4882352F074
:1038E000BB0F40F4BF2B11F460FF04C06F5F7F4F2C
:1038F0008F4F9F4F089557FD9058440F551F59F013
:103900005F3F71F04795880F97FB991F61F09F3FCC
:1039100079F087950895121613061406551FF2CFF5
:103920004695F1DF08C0161617061806991FF1CF45
:1039300086957105610508940895E894BB2766276C
:103940007727CB0197F908950E942F1C08F48FEF79
:1039500008950E94BC1C0C946A1C0E945C1C38F0E8
:103960000E94631C20F0952311F00C94531C0C94BE
:10397000591C11240C949E1C0E947B1C70F3959F73
:10398000C1F3950F50E0551F629FF001729FBB2756
:10399000F00DB11D639FAA27F00DB11DAA1F649FF2
:1039A0006627B00DA11D661F829F2227B00DA11DA5
:1039B000621F739FB00DA11D621F839FA00D611D2B
:1039C000221F749F3327A00D611D231F849F600D4C
:1039D000211D822F762F6A2F11249F5750409AF075
:1039E000F1F088234AF0EE0FFF1FBB1F661F771F01
:1039F000881F91505040A9F79E3F510580F00C94CC
:103A0000531C0C949E1C5F3FE4F3983ED4F38695C0
:103A100077956795B795F795E7959F5FC1F7FE2B6B
:103A2000880F911D9695879597F9089519F416F4C6
:103A30000C94591C0C94611D0E94831CB8F39923AB
:103A4000C9F3B6F39F57550B87FF0E946F1D0024E3
:103A5000A0E640EA900180585695979528F4805C3E
:103A6000660F771F881F20F026173707480730F4A6
:103A7000621B730B840B202931294A2BA6951794BE
:103A80000794202531254A2758F7660F771F881F8E
:103A900020F026173707480730F4620B730B840BAE
:103AA000200D311D411DA09581F7B901842F91583A
:103AB000880F9695879508950E942F1C880B990B67
:103AC00008959F3F31F0915020F487957795679541
:103AD000B795880F911D9695879597F90895915000
:103AE0005040660F771F881FD2F70895DB018F9330
:103AF0009F930E94D31DBF91AF91A29F800D911DF6
:103B0000A39F900DB29F900D11240895991B79E009
:103B100004C0991F961708F0961B881F7A95C9F75D
:103B200080950895A1E21A2EAA1BBB1BFD010DC0B2
:103B3000AA1FBB1FEE1FFF1FA217B307E407F5075D
:103B400020F0A21BB30BE40BF50B661F771F881F39
:103B5000991F1A9469F760957095809590959B01CF
:103B6000AC01BD01CF010895052E97FB1EF4009412
:103B70000E94CB1D57FD07D00E94921D07FC03D069
:103B80004EF40C94CB1D50954095309521953F4FA8
:103B90004F4F5F4F089590958095709561957F4F39
:103BA0008F4F9F4F08950E94E41DA59F900DB49FD5
:103BB000900DA49F800D911D11240895EE0FFF1FFD
:103BC0000590F491E02D0994A29FB001B39FC0012C
:103BD000A39F700D811D1124911DB29F700D811D39
:103BE0001124911D0895F999FECF92BD81BDF89AD7
:103BF000992780B50895262FF999FECF1FBA92BD57
:103C000081BD20BD0FB6F894FA9AF99A0FBE0196BD
:063C10000895F894FFCFB7
:103C16003200CDCC4C3E00000040E8030143524147
:103C2600574C4552204649524D5741524520312E58
:103C3600323520524144494F2056455253494F4E42
:103C460000434F4E4E4543542050494E2037205492
:103C56004F204120524144494F2052454345495641
:103C6600455220414E44204B454550204954205052
:103C76004F574552454420414E4420434F4E4E45F2
:103C86004354454420544F2041205452414E534DF5
:103C960049545445522100534554555020444F4EE3
:103CA60045006F666673657420006D756C74200040
:103CB60062616C20007370656564200064616D70DC
:103CC60020004672616E676520005272616E6765FC
:103CD6002000464C706F732000524C706F732000AA
:103CE60000000000C111F0115E118A116111681106
:103CF6007B1100000000A5177B18471785171917B9
:103D0600331725170D0A006E616E00696E66006F27
:043D160076660000CD
:00000001FF
