:100000000C9445040C94BF230C94E6230C9408082C
:100010000C9435080C9462080C946D040C946D04D7
:100020000C946D040C946D230C946D040C947E134D
:100030000C946D040C946D040C946D040C946D047C
:100040000C940D240C946D040C94F5260C94272725
:100050000C946D040C946D040C946D040C946D045C
:100060000C943B200C946D04084AD73B3BCE016EA8
:1000700084BCBFFDC12F3D6C74319ABD56833DDAFF
:100080003D00C77F11BED9E4BB4C3E916BAAAABE0E
:10009000000000803F00FB00003E000B0036000126
:1000A00000020003000000650054FFEF0000FA802A
:1000B000000B12820001000200000000000000009E
:1000C00000000000000000280000FFFF4581FFFF46
:1000D000FA7200000000000003E8000000010001C7
:1000E0007FFFFFFE8001001B0000000000000000F9
:1000F000000000000000004000004000000002CBB3
:1001000047A2200000002000000000000000400086
:1001100000006000000041FF000000000B2A00000A
:10012000165500002182FD872650FD800000001F2B
:100130000000000580000000000000010000000237
:10014000000000030000400000000000046F0002F7
:10015000653200005EC040000000000000000000AA
:10016000000000000000FB8C6F5DFD5D08D9007C85
:10017000733B006C12CC3200139D3200D0D632009B
:100180000800400001F4FFE6807902000000000052
:10019000D0D600002710FB00000040000000000047
:1001A000000000000000000000010000000000004E
:1001B0000100010000000000FA36FFBC308E00058F
:1001C000FBF0FFD95BC8FFD09ABE000010A9FFF476
:1001D0001EB200CEBBF700000001000000040002C8
:1001E00000020200000CFFC280000001800000CF6E
:1001F000800040000000000000000000000000003F
:1002000006000000001400000000000000000000D4
:1002100000000000000000000000000000000000DE
:100220000000000000000923A135000000000000CC
:1002300000000000000000000000033F68B67935B0
:1002400028BCC67ED16C8000FFFF4000000000008B
:10025000B26A000000000000000000000000000082
:100260003FF000000030000000000000000000002F
:10027000000000000000000000000000000000007E
:100280000000000040000000254D002F706D0000B0
:1002900005AE000C02D00000000000650054FFEF26
:1002A0000000000000000000010000440001000503
:1002B0008BC1000001000000000000650000005438
:1002C0000000FFEF00000000000000000000000040
:1002D000000000000000000000000000000000001E
:1002E000000000000000000000000000000000000E
:1002F00000000000000000000001000000020000FB
:1003000000000000000000000000000000000000ED
:1003100000000000000000000000000000000000DD
:10032000000000000000001B0000000000000000B2
:1003300000000000000000000000000000000000BD
:1003400000000000000000000000000000000000AD
:10035000000000000000001B000000000000000082
:10036000000000000000000000000000000000008D
:10037000000000000000000000000000000000007D
:10038000000000000000000000000000000000006D
:10039000000000000000D8DCBAA2F1DEB2B8B4A8B8
:1003A0008191F74A907F916AF3F9DBA8F9B0BAA07E
:1003B00080F2CE81F3C2F1C1F2C3F3CCA2B280F1DC
:1003C000C6D880BAA7DFDFDFF2A7C3CBC5B6F087F8
:1003D000A2942448703C95406834589B78A2F183DD
:1003E000922D557DD8B1B4B8A1D09180F270F37040
:1003F000F27C80A8F101B09887D943D886C988BA21
:10040000A1F20EB89780F1A9DFDFDFAADFDFDFF20C
:10041000AA4CCD6CA90CC92C97979797F1A989265E
:100420004666B0B4BA80ACDEF2CAF1B28C02A9B6AC
:100430009800890E161EB8A9B4992C547CB08AA8CD
:1004400096365676F1B9AFB4B083C0B8A89711B15B
:100450008F98B9AFF0240844106418F1A329557D92
:10046000AF83B593AFF0002850F1A3869F61A6DA61
:10047000DEDFD9FAA38696DB31A6D9F8DFBAA68FDC
:10048000C2C5C7B28CC1B8A2DFDFDFA3DFDFDFD810
:10049000D8F1B8A8B286B4980D355DB8AA98B087DF
:1004A0002D353DB2B6BAAF8C96198F9FA70E161E8A
:1004B000B49AB8AA872C547CB9A3DEDFDFA3B1803D
:1004C000F2C4CDC9F1B8A9B499830D355D89B9A33A
:1004D0002D557DB593A30E161EA92C547CB8B4B02F
:1004E000F19783A81184A50998A383F0DA2408441E
:1004F000106418D8F1A529557DA58595021A2E3AC4
:10050000565A4048F9F3A3D9F8F0988324084410C8
:1005100064189782A8F111F098A224084410641876
:10052000DAF3DED883A59401D9A302F1A2C3C5C72B
:10053000D8F18492A24DDA2AD84869D92AD86855C8
:10054000DA32D85071D932D8705DDA3AD85879D9C0
:100550003AD87893A34DDA2AD84869D92AD8685569
:10056000DA32D85071D932D8705DDA3AD85879D9A0
:100570003AD878A88A9AF02850789EF38818F19F84
:100580001D98A8D908D8C89F129EF315A8DA121092
:10059000D8F1AFC8978734B5B994A421F3D922D83C
:1005A000F22DF3D92AD8F235F3D932D881A460607C
:1005B00061D961D86C6869D969D8747071D971D8FA
:1005C000B1A384193D5DA3831A3E5E931030811060
:1005D00011B8B0AF8F94F2DA3ED8B49AA88729DA6E
:1005E000F8D8879A35DAF8D8879A3DDAF8D8B1B9C9
:1005F000A49885022E56A581000C14A397B08AF109
:100600002DD928D84DD948D86DD968D8B1840DDAFC
:100610000ED8A32983DA2C0ED8A3844983DA2C4C74
:100620000ED8B8B0A88A9AF520AADADFD8A840AACE
:10063000D0DADED8A860AADAD0DFD8F19786A83160
:100640009B069907AB9728889BF00C201440B8B004
:10065000B4A88C9CF0042851791D301438B282ABB8
:10066000D0982C505078789BF11AB0F08A9CA82929
:1006700051798B2951798A2470598B2058718A4479
:1006800069388B3940688A6448318B304960A58865
:10069000200971584468113964493019F1AC002CB3
:1006A000547CF08CA804285078F1889726A8599893
:1006B000AC8C02264666F0899CA829517924705991
:1006C000446938644831A98809205970AB11384011
:1006D00069A8193148608CA83C415C207C00F187F6
:1006E000981986A86E767EA999882D557D9EB9A306
:1006F0008A228A6E8A568A5E9FB183062646660ED5
:100700002E4E6E9DB8AD002C547CF2B18CB499B9CC
:10071000A32D557D8191AC38AD3AB58391AC2DD9DF
:1007200028D84DD948D86DD968D88C9DAE29D90420
:10073000AED851D904AED879D904D881F39DAD0093
:100740008DAE1981ADD901D8F2AEDA26D88E9129B5
:1007500083A7D9ADADADADF32AD8D8F1B0AC8991AE
:100760003E5E76F3AC2E2EF1B18C5A9CAC2C282830
:10077000289CAC3018A8988128343C9724A72834AA
:100780003C9C24F2B089AC912C4C6C8A9B2DD9D81E
:10079000D851D9D8D879D9D8D8F19E88A331DAD808
:1007A000D8912DD928D84DD948D86DD968D8B183DA
:1007B00093353D8025DAD8D88569DAD8D8B49381C5
:1007C000A328343CF3AB8BF8A391B609B4D9ABDEC4
:1007D000FAB0879CB9A3DDF1202830389AF128308F
:1007E000389DF1A3A3A3A3F2A3B49080F2A3A3A383
:1007F000A3A3A3A3A3A3A3B2A3A3A3A3A3A3B087C9
:10080000B599F128303898F1A3A3A3A397A3A3A384
:10081000A3F39BA330DCB9A7F1262626FED8FF0060
:1008200000000900030200000405080000000000A9
:1008300000000000000001020408102040800102B6
:100840000408102001020408102040804004040421
:100850000404040404020202020202030303030369
:10086000030202030000000023002600290000000C
:100870000000250028002B000000000024002700B5
:100880002A00D912281F9323572711241FBECFEF08
:10089000D8E0DEBFCDBF12E0A0E0B1E0ECE7FBE5C1
:1008A00002C005900D92AE35B107D9F725E0AEE54F
:1008B000B2E001C01D92AB32B207E1F714E0C5E42B
:1008C000D4E004C02197FE010E946E2CC134D107F0
:1008D000C9F70E94A9280C94BC2D0C94000081E05B
:1008E0008093A4020895AF92BF92CF92EF920F939C
:1008F000CF93DF9300D0CDB7DEB75C010E94961591
:100900006EE170E080E090E00E94882460E0C50124
:100910000E949D1521E041E060E1C5010E94711631
:1009200066E0C5010E947C16C5010E94821640E166
:1009300050E0682F8AE894E00E94432820E040E0DD
:1009400060E0C5010E9471164FE760E0C5010E949A
:10095000571560E0C5010E94811548E660E0C501B9
:100960000E945715C5010E948F1564E170E080E078
:1009700090E00E94882463E0C5010E94A41562E112
:10098000C5010E94621564E0C5010E940D1561E079
:10099000C5010E94131563E0C5010E941E1563E0A6
:1009A000C5010E942915EE24E39400E020E049E807
:1009B00057E066E970E0C5010E947817882309F4C2
:1009C0004BC0198284E08A83C12C06E122E042E018
:1009D00050E0BE016F5F7F4FC5010E94941663E037
:1009E000C5010E94831760E0C5010E94891760E07D
:1009F000C5010E940E1662E0C5010E943F156CE918
:100A0000C5010E944B1560E5C5010E94451560E0D7
:100A1000C5010E94511561E0C5010E947A15C5010A
:100A20000E946A1660E0C5010E9463168AE290E0A7
:100A3000F501928B818BC5010E948815C5010E942A
:100A4000681580E00F900F90DF91CF910F91EF909C
:100A5000CF90BF90AF90089581E0F4CFCF93DF9314
:100A6000DB01FA01309719F4EC01EF85F889848DE8
:100A7000958D98278927982711969C938E9380A10E
:100A800091A198278927982713969C938E93129764
:100A900084A195A198278927982715969C938E93D2
:100AA000149780E0DF91CF910895CF93DF93DB011E
:100AB000FA01309719F4EC01EF85F8898081918172
:100AC00098278927982711969C938E9384819581E6
:100AD00098278927982713969C938E931297808541
:100AE000918598278927982715969C938E9314971C
:100AF0008485958598278927982717969C938E93A8
:100B0000169780E0DF91CF910895FF920F931F9386
:100B1000CF93DF93CDB7DEB728970FB6F894DEBF3B
:100B20000FBECDBF8B01BE016F5F7F4F0E94550589
:100B3000F82E81114CC069817A81072E000C880B38
:100B4000990B0E94472A20E030E040E858E30E94D9
:100B50002B2BF80160837183828393836B817C816B
:100B6000072E000C880B990B0E94472A20E030E0EA
:100B700040E858E30E942B2BF80164837583868339
:100B800097836D817E81072E000C880B990B0E9444
:100B9000472A20E030E040E858E30E942B2BF80180
:100BA00060877187828793876F817885072E000C15
:100BB000880B990B0E94472A20E030E040E858E378
:100BC0000E942B2BF80164877587868797878F2D66
:100BD00028960FB6F894DEBF0FBECDBFDF91CF9140
:100BE0001F910F91FF9008954F925F926F927F92A5
:100BF0008F929F92AF92BF92CF92DF92EF92FF922D
:100C0000CF93DF93CDB7DEB72A970FB6F894DEBF48
:100C10000FBECDBF7A876987FA01C480D580E68090
:100C2000F780448455846684778480809180A28094
:100C3000B38080859185A285B38589839A83AB83B0
:100C4000BC83A3019201C701B6010E942B2B6D83C7
:100C50007E838F83988729813A814B815C81C5018E
:100C6000B4010E942B2B9B01AC016D817E818F8191
:100C700098850E94B9289B01AC010E94BA28A985D9
:100C8000BA856D937D938D939C931397A5019401E1
:100C9000C701B6010E942B2B6D837E838F839887BB
:100CA00029813A814B815C81C301B2010E942B2BC7
:100CB0009B01AC016D817E818F8198850E94BA284D
:100CC0009B01AC010E94BA28E985FA85648375838B
:100CD00086839783A5019401C501B4010E942B2B43
:100CE0004B015C01A7019601C701B6010E942B2BA5
:100CF0009B01AC01C501B4010E94B9286B017C01C4
:100D000029813A814B815C81CA01B9010E942B2B58
:100D10009B01AC01C701B6010E94B9286B017C019F
:100D2000A3019201C301B2010E942B2B9B01AC01D4
:100D3000C701B6010E94BA28A985BA8518966D9395
:100D40007D938D939C931B9780E02A960FB6F89421
:100D5000DEBF0FBECDBFDF91CF91FF90EF90DF9050
:100D6000CF90BF90AF909F908F907F906F905F904B
:100D70004F9008952F923F924F925F926F927F9281
:100D80008F929F92AF92BF92CF92DF92EF92FF929B
:100D90000F931F93CF93DF9300D000D000D0CDB737
:100DA000DEB78B011A013E832D83FA01C080D1800A
:100DB000E280F380A7019601C701B6010E94BA281C
:100DC00069837A838B839C83F10184809580A680DC
:100DD000B780A5019401C501B4010E94BA282B0176
:100DE0003C0129813A814B815C81C701B6010E9497
:100DF0002B2B6B017C01A3019201C501B4010E9460
:100E00002B2B9B01AC01C701B6010E94BA2820E040
:100E100030E040E85FE30E94B9286B017C01F101FA
:100E20002085318542855385C301B2010E942B2B59
:100E30002B013C01F1012485358546855785698163
:100E40007A818B819C810E942B2B9B01AC01C30179
:100E5000B2010E94B928A70196010E943929F80120
:100E60006083718382839383ED81FE8164817581C8
:100E700086819781C084D184E284F3849B01AC0194
:100E80000E942B2B4B015C01A7019601C701B60103
:100E90000E942B2B9B01AC01C501B4010E94BA2812
:100EA0000E949E2B9B01AC01ED81FE8160817181CE
:100EB000828193810E9439296B017C01F801C482EF
:100EC000D582E682F782ED81FE81208531854285DB
:100ED000538564817581868197810E943929F80143
:100EE000608771878287938720E030E0A901ED81D8
:100EF000FE8160857185828593850E94982987FF90
:100F000016C020E030E0A901C701B6010E941E2BE7
:100F1000A701960118162CF56BED7FE089E490E4AB
:100F20000E94B928F801648375838683978380E0E3
:100F300026960FB6F894DEBF0FBECDBFDF91CF91DE
:100F40001F910F91FF90EF90DF90CF90BF90AF90E7
:100F50009F908F907F906F905F904F903F902F90D9
:100F600008956BED7FE089E490ECDACFFF920F9368
:100F70001F93CF93DF938C01D80117968C9117970D
:100F80002091AA0315969C9115973091AA03169665
:100F90004C911697C091AA03C095C4239323C92BE3
:100FA0008227FC2EF8228091AA0317968C9317971C
:100FB0001896CD91DC912097B1F08B81982F9F21CD
:100FC00071F09091AA03892391E009F490E0909345
:100FD000A8038C818093A903E881F98109950D808C
:100FE000DE81C02DE8CF9BB3F8018481982351F0B6
:100FF0009BB3892B8BBB0190F081E02D8081809386
:10100000AA03BACFDF91CF911F910F91FF9008955E
:101010001F920F920FB60F9211242F933F934F936D
:101020005F936F937F938F939F93AF93BF93EF9350
:10103000FF93E0919E03F0919F0380818093AA0328
:101040008EE993E00E94B607FF91EF91BF91AF91B7
:101050009F918F917F916F915F914F913F912F91D0
:101060000F900FBE0F901F9018951F920F920FB602
:101070000F9211242F933F934F935F936F937F931E
:101080008F939F93AF93BF93EF93FF93E09194035C
:10109000F091950380818093AA0384E993E00E94F4
:1010A000B607FF91EF91BF91AF919F918F917F9183
:1010B0006F915F914F913F912F910F900FBE0F90C5
:1010C0001F9018951F920F920FB60F9211242F9315
:1010D0003F934F935F936F937F938F939F93AF93C0
:1010E000BF93EF93FF93E0918A03F0918B0380818C
:1010F0008093AA038AE893E00E94B607FF91EF91DC
:10110000BF91AF919F918F917F916F915F914F911F
:101110003F912F910F900FBE0F901F901895AF9297
:10112000BF92CF92DF92EF92FF920F931F9387E7C8
:1011300094E00E94422362E08CE00E94302560E04F
:1011400080E10E94302560E081E10E94302560E06E
:1011500082E10E94302560E087E00E94302561E056
:1011600084E00E94302560E082E00E94302526E085
:1011700040E052EC61E070E08AE894E00E949D2635
:101180008091C1008F778093C10088E391E00E9435
:10119000A62D8D3E61F080E593ECA0E0B0E0809359
:1011A000100190931101A0931201B09313016BE110
:1011B00071E08AE894E00E94C027409110015091AC
:1011C000110160911201709113012AE030E08AE868
:1011D00094E00E9455288AE894E00E94C82765E4BC
:1011E00071E08AE894E00E94C0276BE571E08AE82C
:1011F00094E00E94CC2764E671E08AE894E00E94C3
:10120000C0276BE571E08AE894E00E94CC276DE787
:1012100071E08AE894E00E94C0276BE571E08AE8FB
:1012200094E00E94CC276CE971E08AE894E00E9487
:10123000C0276BE571E08AE894E00E94CC2768EB58
:1012400071E08AE894E00E94C0276BE571E08AE8CB
:1012500094E00E94CC278AE894E00E94C82763EEBD
:1012600071E08AE894E00E94CC278AE894E00E942A
:10127000C82760E272E08AE894E00E94CC278AE8FE
:1012800094E00E94C82787E793E00E94AF1587E7A4
:1012900093E00E947304809317036AEB7FEF87E764
:1012A00093E00E9451166DE970E087E793E00E9499
:1012B00057166CE170E087E793E00E945D1664E7E3
:1012C0007CEF87E793E00E94151668E97FEF87E7D8
:1012D00093E00E94291662E175E087E793E00E949F
:1012E0003D1680911703811127C066E087E793E0E0
:1012F0000E94A01A66E087E793E00E94341A61E03A
:1013000087E793E00E94631643E050E06FE674E0E5
:1013100080E00E949F2387E793E00E9468158093F6
:10132000180381E0809319038091880390918903C9
:10133000909316038093150381ED93E00E948C1E19
:1013400040E85AE166E070E081ED93E00E949E1E65
:1013500081E090E00E94A62D813009F0F5C08093D5
:1013600054038CE00E949A25892B61F480915403E8
:10137000882309F4ECC060E081E090E00E94AE2D8B
:10138000109254038FE00E94E92490932D038093E0
:101390002C038EE00E94E92490932B0380932A0370
:1013A00060912C0370912D03072E000C880B990B74
:1013B0001F921F921F9228E22F9328E0A22EB12C99
:1013C000C12CD12CE12CF12C87012FEF33E040E030
:1013D00050E00E9467280E94472A20E030E040E267
:1013E00051E40E949D2960930C0170930D0180933C
:1013F0000E0190930F0160912A0370912B03072E29
:10140000000C880B990B1F921F921F922EE12F93B5
:1014100032E0A32EB12CC12CD12C2FEF33E040E0D1
:1014200050E00E9467280E94472A20E030E040E216
:1014300051E40E949D2960930801709309018093F3
:101440000A0190930B0120910C0130910D01409104
:101450000E0150910F01E12CF12C870161E070E049
:101460008BE792E00E94FB21409108015091090115
:1014700060910A0170910B018BE792E00E94672155
:1014800020910C0130910D0140910E0150910F01FE
:1014900061E070E08EE592E00E94FB21409108013E
:1014A0005091090160910A0170910B018EE592E063
:1014B0000E94672124EC39E040E951E069E070E0E6
:1014C00081EA92E00E94541424EC39E040E951E0B2
:1014D00066E070E08EE992E00E94541424EC39E05A
:1014E00040E951E065E070E08BE992E00E9454141D
:1014F00024EC39E040E951E063E070E088E992E0F3
:101500000E9454148AE894E00E94C8276BE272E0BB
:101510008AE894E00E94CC2761E08DE00E943025AB
:101520008DB79EB708960FB6F8949EBF0FBE8DBFBD
:1015300061E08DE01F910F91FF90EF90DF90CF90D1
:10154000BF90AF900C946C25109254030ACF61E0C9
:1015500081E090E00E94AE2D81E08093540312CF91
:10156000CF92DF92EF92FF920F931F930E9463241A
:10157000009156031091570320915803309159035D
:101580006B017C01C01AD10AE20AF30A0091100132
:10159000109111012091120130911301C016D10652
:1015A000E206F306B8F060935603709357038093F6
:1015B0005803909359036091550381E06827609325
:1015C00055038DE01F910F91FF90EF90DF90CF902A
:1015D0000C946C251F910F91FF90EF90DF90CF90AE
:1015E00008952F923F924F925F926F927F928F92C7
:1015F0009F92AF92BF92CF92DF92EF92FF920F93A2
:101600001F93CF93DF93CDB7DEB76C970FB6F894E7
:10161000DEBF0FBECDBF0E94B00A809119038823A0
:1016200009F4AEC738E2832E4EE1742E5CE9652ED4
:101630006AE0962E8091A40281114FC1209113037C
:1016400030911403809115039091160328173907E0
:1016500008F043C18091A402882341F087E793E01A
:101660000E94C31590931403809313038CE00E948F
:101670009A2590932103809320038FE00E94E92410
:1016800090932D0380932C03BC01990F880B990B29
:101690001F921F921F928F9218E0A12EB12CC12C85
:1016A000D12CE12CF12C87012FEF33E040E050E00A
:1016B0000E9467280E94472A20E030E040E251E47F
:1016C0000E949D2960930C0170930D0180930E017F
:1016D00090930F018EE00E94E92490932B03809356
:1016E0002A03BC01990F880B990B1F921F921F921E
:1016F0007F9222E0A22EB12CC12CD12C2FEF33E00F
:1017000040E050E00E9467280E94472A20E030E035
:1017100040E251E40E949D29609308017093090101
:1017200080930A0190930B0186E00E94E9240FB692
:10173000F894DEBF0FBECDBF893E33E0930714F0AF
:1017400088EE93E08431910514F484E190E0909365
:10175000290380932803BC01990F880B990B1F92D2
:101760001F921F921F92AEE1AA2EB12CC12CD12C38
:1017700018EEE12E13E0F12E00E010E024E130E05D
:1017800040E050E00E946728709333036093320377
:1017900087E00E94E9240F900F900F900F90893EF0
:1017A000A3E09A0714F088EE93E08431910514F4D5
:1017B00084E190E09093270380932603BC01990F66
:1017C000880B990BBFEFBF93BF93BF936F92E4E673
:1017D000AE2EB12CC12CD12C18EEE12E13E0F12E3F
:1017E00000E010E024E130E040E050E00E94672893
:1017F000969E9001979E300D1124309331032093D3
:10180000300380E10E94E9240F900F900F900F9019
:10181000893E23E0920714F088EE93E0843191052D
:1018200014F484E190E09093250380932403BC0199
:10183000990F880B990B1F921F921F9234E63F93CA
:10184000A12CB12C650114E1E12EF12C00E010E097
:1018500028EE33E040E050E00E946728969E900119
:10186000979E300D112430932F0320932E0381E196
:101870000E94E9240F900F900F900F90893EA3E0F3
:101880009A0714F088EE93E08431910514F484E112
:1018900090E09093230380932203BC01990F880B5F
:1018A000990B1F921F921F92B4E6BF93A12CB12CEB
:1018B000650114E1E12EF12C00E010E028EE33E0A8
:1018C00040E050E00E946728709307016093060192
:1018D0000F900F900F900F90ADCE1092A40287E75B
:1018E00093E00E9468158093180387E793E00E94B5
:1018F000C315909314038093130320911503309123
:1019000016038217930760F02091180324FD04C08A
:101910008115944008F495C587E793E00E948815E7
:10192000409108015091090160910A0170910B01E9
:101930008BE792E00E94672140910C0150910D01CC
:1019400060910E0170910F018BE792E00E949E2141
:10195000409108015091090160910A0170910B01B9
:101960008EE592E00E94672140910C0150910D019B
:1019700060910E0170910F018EE592E00E949E2110
:101980006091BF027091C002072E000C880B990B6A
:101990000E94472AAB01BC018BE792E00E943222F1
:1019A0008BE792E00E943C230E940F2A072E000C36
:1019B000880B990B0E94472A6B017C0120E030E0E4
:1019C00044E353E46091AD027091AE028091AF02A6
:1019D0009091B0020E942B2B2BED3FE049E450E4A4
:1019E0000E949D2920E030E04CE053E40E942B2B24
:1019F0009B01AC01C701B6010E94B9280E940F2AC1
:101A00007093C0026093BF026091BD027091BE02EC
:101A1000072E000C880B990B0E94472AAB01BC01D2
:101A20008EE592E00E9432228EE592E00E943C23F5
:101A30000E940F2A072E000C880B990B0E94472A40
:101A40006B017C0120E030E044E353E46091A902A3
:101A50007091AA028091AB029091AC020E942B2B54
:101A60002BED3FE049E450E40E949D2920E030E066
:101A70004CE053E40E942B2B9B01AC01C701B60143
:101A80000E94B9280E940F2A7093BE026093BD0283
:101A90002091540321111AC5072E000C880B990BB5
:101AA0001F921F92A7E0AF93B0EDBF93A12CB12C72
:101AB0006501E12C10E4F12E00E010E020E030ECB4
:101AC0004FEF5FEF0E9467280E94472A6093400310
:101AD0007093410380934203909343036091BF024C
:101AE0007091C002072E000C880B990B1F921F9259
:101AF00027E02F9330ED3F9320E030EC4FEF5FEF86
:101B00000E9467280E94472A60933C0370933D031C
:101B100080933E0390933F030FB6F894DEBF0FBE51
:101B2000CDBF60913C0370913D0380913E03909145
:101B30003F039B01AC010E94BA289B01AC0160E00D
:101B400070E88BE395E40E94B92869837A838B83DC
:101B50009C8360933C0370933D0380933E0390937A
:101B60003F03809106019091070164E670E0681BD5
:101B7000790B072E000C880B990B0E94472A20E056
:101B800030E048EC52E40E949D294B015C016091D9
:101B90002E0370912F03660F771F072E000C880B02
:101BA000990B0E94472A2B013C01A50194010E9438
:101BB0002B2B6B017C0120E030E0A9010E949829C9
:101BC00087FDAFC420E030E04AE754E4C701B60126
:101BD0000E941E2B181634F4C12CD12C8AE7E82E53
:101BE00084E4F82EC701B6010E940F2A70931F03E8
:101BF00060931E03A501940160E070E080E89FE31C
:101C00000E94B928698F7A8F8B8F9C8F9B01AC01C2
:101C1000C301B2010E942B2B6B017C0120E030E05C
:101C2000A9010E94982987FD80C420E030E04AE79E
:101C300054E4C701B6010E941E2B181634F4C12CBF
:101C4000D12C0AE7E02E04E4F02EC701B6010E9471
:101C50000F2A70931D0360931C0329813A814B81E5
:101C60005C81CA01B9010E942B2B698B7A8B8B8B0B
:101C70009C8B8091400390914103A0914203B091CD
:101C800043038D839E83AF83B8879C01AD0160E0E1
:101C900070E08AEF94E40E94B9289B01AC010E9495
:101CA0002B2B6B017C0129893A894B895C890E9425
:101CB000BA280E949E2B2B013C0160913203709147
:101CC0003303072E000C880B990B0E94472A6D8B5B
:101CD0007E8B8F8B988FA50194010E942B2B4B013B
:101CE0005C016091300370913103072E000C880B6A
:101CF000990B0E94472A69877A878B879C87609116
:101D00001A0370911B03072E000C880B990B0E947D
:101D1000472A6D877E878F87988B28EB36EC40EBC0
:101D200054E4C301B2010E94B928A50194010E94A4
:101D30002B2B28EB36EC40EB54E40E94BA28298583
:101D40003A854B855C850E94BA282D853E854F8556
:101D500058890E94BA282B013C0120E030E0A901FB
:101D60000E94982987FDE5C320E030EC40E355E46C
:101D7000C301B2010E941E2B18163CF4412C10EC3A
:101D8000512E10E3612E15E4712E409250035092B3
:101D90005103609252037092530329813A814B811F
:101DA0005C8160E070E08AEF94E40E94B9289B01B6
:101DB000AC010E942B2B69837A838B839C839B01CC
:101DC000AC01C701B6010E94BA280E949E2B28EBE5
:101DD00036EC40EB54E40E94B928A50194010E941E
:101DE0002B2B28EB36EC40EB54E40E94BA282985D3
:101DF0003A854B855C850E94BA282D853E854F85A6
:101E000058890E94BA286B017C0120E030E0A901CA
:101E10000E94982987FD91C320E030EC40E355E40F
:101E2000C701B6010E941E2B18163CF4C12CB0EC61
:101E3000DB2EB0E3EB2EB5E4FB2EC0924C03D09228
:101E40004D03E0924E03F0924F032D813E814F816E
:101E50005885CA01B9010E942B2B6D837E838F8325
:101E600098879B01AC0169897A898B899C890E943A
:101E7000BA280E949E2B6B017C0126E636E646EAD4
:101E80005FE3698D7A8D8B8D9C8D0E942B2B2D8924
:101E90003E894F89588D0E942B2B4B015C0128EB0A
:101EA00036EC40EB54E4C701B6010E94B928A50105
:101EB00094010E942B2B28EB36EC40EB54E40E945B
:101EC000BA2829853A854B855C850E94BA282D85DC
:101ED0003E854F8558890E94BA286B017C0120E01D
:101EE00030E0A9010E94982987FD2BC320E030EC47
:101EF00040E355E4C701B6010E941E2B18163CF4BE
:101F0000C12CA0ECDA2EA0E3EA2EA5E4FA2EC092B2
:101F10004803D0924903E0924A03F0924B032D818B
:101F20003E814F81588569817A818B819C810E9495
:101F3000BA280E949E2B28EB36EC40EB54E40E941A
:101F4000B928A50194010E942B2B28EB36EC40EB1D
:101F500054E40E94BA2829853A854B855C850E9405
:101F6000BA282D853E854F8558890E94BA286B0175
:101F70007C0120E030E0A9010E94982987FDE5C29C
:101F800020E030EC40E355E4C701B6010E941E2B6F
:101F900018163CF4C12CF0ECDF2EF0E3EF2EF5E444
:101FA000FF2EC0924403D0924503E0924603F09284
:101FB000470324EF31E030933B0320933A0384EC52
:101FC00099E090933903809338033093370320933B
:101FD00036039093350380933403C301B2010E940A
:101FE0000F2A1F921F9221E02F9324EF2F9324ECAE
:101FF000A22E29E0B22EC12CD12C1CE0E12E1BE038
:10200000F12E00E010E020E030E0A9010E946728F6
:102010000E94472A609350037093510380935203A8
:1020200090935303A0903A03B0903B030B2C000C09
:10203000CC08DD0860914C0370914D0380914E03F4
:1020400090914F030E940F2A209138033091390359
:102050008901330F220B330B3F932F931F930F9361
:102060001CE0E12E1BE0F12E00E010E020E030E06B
:10207000A9010E9467280E94472A60934C0370932D
:102080004D0380934E0390934F03A0903603B0907E
:1020900037030B2C000CCC08DD08609148037091CD
:1020A000490380914A0390914B030E940F2A20918B
:1020B0003403309135038901330F220B330B3F93E7
:1020C0002F931F930F931CE0E12E1BE0F12E00E0F5
:1020D00010E020E030E0A9010E9467280E94472A12
:1020E000609348037093490380934A0390934B0392
:1020F000A0903403B09035030B2C000CCC08DD0805
:102100006091440370914503809146039091470389
:102110000E940F2A20913603309137038901330F33
:10212000220B330B3F932F931F930F931CE0E12E51
:102130001BE0F12E00E010E020E030E0A9010E9459
:1021400067280E94472A762E872E982EC92E8091C6
:102150001E0390911F037C01A4E2EA1AAAEFFA0A77
:102160000091500310915103B0915203BD8B209107
:102170005303298B6CED75E0681B790B072E000C5F
:10218000880B990B0E94472A1B012C010FB6F8946B
:10219000DEBF0FBECDBF9B01AC01B8018D8999890F
:1021A0000E94982987FDD5C1B7010F2C000C880B20
:1021B000990B0E94472A662EA72EB82ED92E262FBD
:1021C000372F482F592FB8018D8999890E941E2BCE
:1021D000181624F4062D1A2DBD8AD98AC801AD8996
:1021E000B9898093500390935103A0935203B09305
:1021F000530360904C03A0904D03B0904E03D090D9
:102200004F039101A201662D7A2D8B2D9D2D0E94E9
:10221000982987FDA2C1B701FF0C880B990B0E947A
:10222000472A2B017C019B01AC01662D7A2D8B2D59
:102230009D2D0E941E2B181624F4642CA52CBE2C58
:10224000DF2C862D9A2DAB2DBD2D80934C039093C2
:102250004D03A0934E03B0934F0380911C039091C4
:102260001D035C01A4E2AA1AAAEFBA0A609048030F
:10227000D0904903E0904A03F0904B036CED75E079
:10228000681B790B072E000C880B990B0E94472ABC
:102290001B012C01262D3D2DA7010E941E2B181677
:1022A0000CF460C1B5010B2C000C880B990B0E943B
:1022B000472A698379878D879D83262D3D2DA70128
:1022C0000E94982987FF04C06980D984ED84FD802D
:1022D000862D9D2DD7018093480390934903A093A9
:1022E0004A03B0934B039101A201672D782D892DEC
:1022F0009C2D0E94982987FD16C0B501BB0C880B48
:10230000990B0E94472A1B012C019B01AC01672DF0
:10231000782D892D9C2D0E941E2B181624F0272C19
:10232000382C492C5C2CC101D2018093440390933A
:102330004503A0934603B093470388E391E00E94CE
:10234000A62D8D3E99F5B8018D8999890E940F2A95
:1023500081EA92E00E94D31460914C0370914D0386
:1023600080914E0390914F030E940F2A8EE992E0D4
:102370000E94D314609148037091490380914A03ED
:1023800090914B030E940F2A8BE992E00E94D31494
:1023900060914403709145038091460390914703F7
:1023A0000E940F2A88E992E00E94D314809154037E
:1023B0008111DCC08091BD029091BE02893E9340A4
:1023C0000CF4DCC061E084E00E946C258091200365
:1023D00090912103892B09F0D3C061E084E00E9431
:1023E0006C2564EA76E081EA92E00E94D31464EA04
:1023F00076E08EE992E00E94D31464EA76E08BE9FD
:1024000092E00E94D31464EA76E088E992E06C9648
:102410000FB6F894DEBF0FBECDBFDF91CF911F91F5
:102420000F91FF90EF90DF90CF90BF90AF909F9073
:102430008F907F906F905F904F903F902F900C9473
:10244000D31421FF6DCA409115035091160380915A
:102450001303909114038417950708F461CA63ED80
:1024600072E087E793E00E94DE158091130390915C
:1024700014032091150330911603821B930B909344
:1024800014038093130343ED52E06DEB72E087E792
:1024900093E00E942E0543ED52E063EC72E087E783
:1024A00093E00E94850543EC52E061EB72E087E720
:1024B00093E00E94F40521EB32E043EC52E065EA40
:1024C00072E087E793E00E94BA06BDCF6091BF0239
:1024D0007091C002072E000C880B990B1F921F925F
:1024E000A7E0AF93B0EDBF93A12CB12C6501E12C17
:1024F00010E4F12E00E010E020E030EC4FEF5FEF51
:102500000E9467280E94472A60934003709341030A
:1025100080934203909343036091BD027091BE0289
:10252000E1CAC12CD12C76015DCBC12CD12C760116
:102530008CCB412C512C320128CCC12CD12C7601D2
:102540007CCCC12CD12C7601E2CCC12CD12C7601D3
:1025500028CD81014D8A598A41CE622CA32CB42CFE
:10256000D52C6FCE622CD32C7201B2CE8091BF02DB
:102570009091C002893E93400CF024CF60E023CFBD
:102580006C960FB6F894DEBF0FBECDBFDF91CF9132
:102590001F910F91FF90EF90DF90CF90BF90AF9081
:1025A0009F908F907F906F905F904F903F902F9073
:1025B0000895CF92DF92EF92FF920F931F93E8E678
:1025C000F8E085919491EEE9F3E0918380838BE6C6
:1025D00090E09383828381E0848315821682118642
:1025E0001086EAE6F8E085919491E4E9F3E09183BE
:1025F00080838CE690E09383828382E084831582DB
:10260000168211861086ECE6F8E085919491EAE84E
:10261000F3E0918380838DE690E09383828384E06E
:102620008483158216821186108668E687E793E018
:102630000E940A15C12CD12C760100E010E020E8A0
:102640003FE3B901A8018AE593E00E94C721E3ECCA
:10265000F2E080E090E0A0E8BFE380839183A28372
:10266000B383C482D582E682F782C086D186E286B1
:10267000F386C486D586E686F786EDEBF2E0118216
:1026800010821382128215821482E1EBF2E0C08282
:10269000D182E282F382C482D582E682F782C0864A
:1026A000D186E286F38681EA92E00E9439148EE9AF
:1026B00092E00E9439148BE992E00E94391488E973
:1026C00092E00E94391400E010E020E83FE3B901F5
:1026D000A8018BE792E00E94C72100E010E020E80B
:1026E0003FE3B901A8018EE592E00E94C7211F9146
:1026F0000F91FF90EF90DF90CF9008951F920F926F
:102700000FB60F9211242F933F934F935F936F93C4
:102710007F938F939F93AF93BF93EF93FF9380919A
:10272000AC0387FF27C0109285001092840080912F
:10273000AC038F5F8093AC038091AC03082E000C38
:10274000990B2091AB032817190629F024F08091EA
:10275000AC038C30DCF1809184009091850004966C
:1027600080349C4908F47BC080918400909185005E
:10277000049677C08091AC03082E000C990B209131
:10278000AB032817190699F294F2E091AC038E2F4F
:10279000EE0F990BFC01EE0FFF1FE80FF91FE35539
:1027A000FC4F808186FFC3CFE091AC038E2FEE0FEC
:1027B000990BFC01EE0FFF1FE80FF91FE355FC4FCB
:1027C000808160E08F730E946C25B1CF20918400DE
:1027D00030918500E091AC038E2FEE0F990BFC0138
:1027E000EE0FFF1FE80FF91FE355FC4F8181928127
:1027F000820F931F9093890080938800E091AC032F
:102800008E2FEE0F990BFC01EE0FFF1FE80FF91F43
:10281000E355FC4F808186FF11C0E091AC038E2F01
:10282000EE0F990BFC01EE0FFF1FE80FF91FE355A8
:10283000FC4F808161E08F730E946C25FF91EF91C6
:10284000BF91AF919F918F917F916F915F914F91C8
:102850003F912F910F900FBE0F901F90189580E41D
:102860009CE990938900809388008FEF8093AC035C
:10287000E5CFFC019091AB039C3098F481E0890F87
:102880008093AB039083892F90E0FC01EE0FFF1F34
:10289000E80FF91FE355FC4F88EB9BE0928381839F
:1028A00008958FEF80830895DF92EF92FF920F9348
:1028B0001F93CF93DF93EC01D62E7A018901888193
:1028C0008C3008F067C061E08D2D0E943025888132
:1028D000282F30E0F901EE0FFF1FE20FF31FE35541
:1028E000FC4F9D2D9F736081607C692B608320E28B
:1028F00032E02E193F0937FF02C02D5F3F4F35955B
:10290000279535952795298320E639E0201B310B43
:1029100037FF02C02D5F3F4F359527953595279599
:102920002A832CE0622F0E94072C829FB001112481
:1029300030E020E0AB01420F531FFA01EE0FFF1F02
:10294000E40FF51FE355FC4F908196FD16C02F5FF5
:102950003F4F2C30310571F781110FC0109280006C
:1029600082E0809381001092850010928400B19AD9
:1029700080916F00826080936F00E8818E2F90E0DD
:10298000FC01EE0FFF1FE80FF91FE355FC4F80819C
:10299000806480838881DF91CF911F910F91FF9098
:1029A000EF90DF900895DC01EC91EC3090F51196FA
:1029B0008C91119728E830E0281B310987FD339569
:1029C000220F331F220F331F6217730784F01296F2
:1029D0008C9128E532E0281B310987FD3395220FC1
:1029E000331F220F331F621773070CF49B01225011
:1029F0003109220F331F4FB7F8948E2F90E0FC015E
:102A0000EE0FFF1FE80FF91FE355FC4F32832183C0
:102A10004FBF0895FC0160830895462F69E1FC01D2
:102A200080810C943B1B0F93062F23E045E06AE165
:102A3000FC0180810E94AF1C0F9108950F93062F17
:102A400023E042E06AE1FC0180810E94AF1C0F910B
:102A500008950F93062F22E044E06BE1FC01808192
:102A60000E94AF1C0F9108950F93062F22E044E0BF
:102A70006CE1FC0180810E94AF1C0F910895462FEC
:102A80006FE1FC0180810C943B1B462F60E2FC014E
:102A900080810C943B1B462F61E2FC0180810C94E9
:102AA0003B1B462F62E2FC0180810C943B1BFC0126
:102AB000962F643030F4660F690F6B5D80810C9443
:102AC0003B1B0895462F68E3FC0180810C943B1B5F
:102AD000CF93DF93EC012091140130911501AC01EB
:102AE0004F5F5F4F6AE388810E94371C8981DF91C5
:102AF000CF910895262F46E06AE6FC0180810C9470
:102B00007F1C262F45E06AE6FC0180810C947F1C27
:102B100021E042E06AE6FC0180810C947F1C21E008
:102B200041E06AE6FC0180810C947F1C21E047E0D3
:102B30006BE6FC0180810C947F1C262F46E06BE63F
:102B4000FC0180810C947F1C0F93062F23E042E050
:102B50006BE6FC0180810E94AF1C0F910895CF931A
:102B6000DF93EC0161E00E94A41560E0CE010E94B9
:102B7000291560E0CE010E94341560E0CE01DF919E
:102B8000CF910C949D150F931F93CF93DF93EC017E
:102B900000911401109115019C012F5F3F4F42E0FD
:102BA00062E788810E94921B89819A8198278927F0
:102BB0009827DF91CF911F910F9108950F931F9345
:102BC000442369F09B01FC0100911401109115014F
:102BD00064E780810E94921B1F910F910895FB0171
:102BE0001082FACFEF92FF920F931F93CF93DF9350
:102BF000EC01E0901401F09015018C010F5F1F4F64
:102C000026E046E065E788810E94411C8981DF91CA
:102C1000CF911F910F91FF90EF900895262F40E0E4
:102C200060E0FC0180810C947F1C0F931F93CF9375
:102C3000DF93EC018B010E94F21567E7883308F4FB
:102C400066E0A8018881DF91CF911F910F910C94CC
:102C5000801B0F931F93CF93DF93EC018B010E9496
:102C6000F2156AE7883308F468E0A8018881DF91EB
:102C7000CF911F910F910C94801B0F931F93CF93B3
:102C8000DF93EC018B010E94F2156DE7883308F4A5
:102C90006AE0A8018881DF91CF911F910F910C9478
:102CA000801BAB0163E1FC0180810C94801BAB01B4
:102CB00065E1FC0180810C94801BAB0167E1FC01A4
:102CC00080810C94801B262F47E06AE6FC018081FE
:102CD0000C947F1C21E043E06AE6FC0180810C94A7
:102CE0007F1C6F712111606241116064462F6DE697
:102CF000FC0180810C943B1B462F6EE6FC01808119
:102D00000C943B1BCF93DF93EC0120911401309185
:102D10001501AC014F5F5F4F6FE688810E94371C41
:102D20008981DF91CF9108952F923F924F925F92C8
:102D30006F927F928F929F92AF92BF92CF92DF92CB
:102D4000EF92FF920F931F93CF93DF9300D000D0A9
:102D50001F92CDB7DEB79D838C837B836A832A0164
:102D6000222ED02EE98220E040E0622D0E947116D2
:102D7000602F8C819D810E947C16E980912C812C92
:102D8000EE2029F080E190E00E94742C4C01B12CDF
:102D9000A12CCC2029F080E190E00E94742C5C01F1
:102DA000F12CE12CE414F50408F093C0C70140961F
:102DB000342C3E184816590610F080E1382E80E079
:102DC00091E08D1991093816190619F014F03D2C6F
:102DD0003194CC2081F0D50190E080E02A813B81C4
:102DE0002E0D3F1D831558F4F901E80FF91FE491EA
:102DF000ED930196F7CFAA80BB80AE0CBF1C950166
:102E0000432D6FE6EC81FD8180810E940C1B632CB9
:102E1000712CF981FF2309F445C08114910409F450
:102E200041C020E040E0622D8C819D810E9471169E
:102E30006D2D8C819D810E947C1600911401109152
:102E400015019401432D6FE6EC81FD8180810E9484
:102E5000921BA301B401C5010E94992D892B11F188
:102E6000C4010E94102DCC2021F0C5010E94102D1C
:102E7000C12C8C2D0F900F900F900F900F90DF9121
:102E8000CF911F910F91FF90EF90DF90CF90BF9067
:102E9000AF909F908F907F906F905F904F903F90FA
:102EA0002F900895E60CF71CD30CE414F50408F0F9
:102EB00079CFD11001C0239420E040E0622D8C81B5
:102EC0009D810E9471166D2D8C819D810E947C16C2
:102ED00069CFF981FF2319F0C4010E94102DCC2085
:102EE00021F0C5010E94102DC4CFCC24C394C1CFC2
:102EF000CF92EF920F93CC24C3940E9494160F911B
:102F0000EF90CF900895462F60E7FC0180810C94EC
:102F10003B1B462F61E7FC0180810C943B1B2F92E9
:102F20003F924F925F926F927F928F929F92AF9259
:102F3000BF92CF92DF92EF92FF920F931F93CF93A6
:102F4000DF93CDB7DEB7E7970FB6F894DEBF0FBEBD
:102F5000CDBF998F888F69A32AA73BA74CA75DA7F0
:102F6000EEA6FFA608AB19AB6B3309F0E8C10E94CF
:102F7000F215883308F4E8C127E72F8B33E03C8F44
:102F80006EE38AE894E00E945026FE013D96FE8B97
:102F9000ED8B9E012F5F3F4F3B8F2A8F7F01DF8894
:102FA00000911401109115019E012D5E3F4F41E0EB
:102FB0006D2DA88DB98D8C910E94F51CAB88BC88B5
:102FC000B5010B2C000C880B990B0E94472ABF8976
:102FD000B33109F4BEC1E1E0AE22BB24D701AD920A
:102FE000BC9220E030E040E051E40E942B2BEA8DBF
:102FF000FB8D6083718382839383BC8DDB0EE2E063
:10300000EE0EF11C2A8D3B8D2C5F3F4F3B8F2A8F9C
:103010008D899E898217930719F699A19B3309F030
:10302000A6C18DEC9CECACE4BDE38AAB9BABACAB36
:10303000BDAB1DA21CA2AC2DB0E0BFABAEABEEA9E8
:10304000FFA92CA13DA12E173F070CF0ECC1312C9C
:10305000212C1BA21AA2CE0101969E8F8D8FDE011C
:103060001D96BFA3AEA3BF89B8A7E9A1E9A718A27F
:103070001F8E812C912C5401009114011091150187
:103080009E012D5E3F4F41E069A5A88DB98D8C91C1
:103090000E94F51C6B897C89072E000C880B990B0C
:1030A0000E94472A6B017C01B9A1BB3361F4EF8D0B
:1030B000F8A1329741F420E030E040E856E40E9465
:1030C000B9286B017C012601370177FA709477F8F3
:1030D000709420E030E0A901C701B6010E941E2BC8
:1030E000181614F073016201C501B4010E94452A4B
:1030F000A70196010E94BA280E94162A4B015C0182
:103100002FE632E143E85AE3C301B2010E942B2BC0
:103110002EA53FA548A959A90E942B2BAD8DBE8D88
:103120002D913D914D915C910E94BA286B017C01DB
:10313000ED8DFE8DC082D182E282F382A3019201E5
:103140006AA57BA58CA59DA50E942B2BA7019601A6
:103150000E94BA28FF89F33109F413C120E030E05E
:1031600040E05EE30E942B2B6B017C0120E030E00D
:10317000A9010E941E2B20E030E040E05FE387FDC4
:10318000FBC0C701B6010E94BA280E940F2A6E7FB9
:10319000AEA1BFA18D919C91682B792B7C8B6B8B01
:1031A0009E012D5E3F4F41E068A5E88DF98D80813D
:1031B0000E944B1B2F8D38A12F5F3F4F38A32F8FBD
:1031C00039A53E5F39A788A59C8D890F88A7AEA138
:1031D000BFA11296BFA3AEA3ED8DFE8D3496FE8FD8
:1031E000ED8F2F8D38A12330310509F045CF33E61F
:1031F0002316310471F489EE881683E09806A10441
:10320000B10438F06AE28AE894E00E945026312C3A
:10321000212CC501B4010E94452A2AA93BA94CA929
:103220005DA90E942B2B20E030E040EA50E40E9490
:10323000982987FF05C0AAA1BBA11196BBA3AAA389
:10324000B4E68B169104A104B10408F0B9C0EBE018
:103250002E1631040CF4B4C02AA13BA12A3031054A
:103260000CF4AEC06EE28AE894E00E94502620E0A2
:1032700030E040E45FE36AA57BA58CA59DA50E9494
:103280002B2B6AA77BA78CA79DA720E030E040E40A
:103290005FE36EA57FA588A999A90E942B2B6EA735
:1032A0007FA788AB99ABCE010D966C01FF88DE013C
:1032B00011963D01D3016D917D918D919D913D01BF
:1032C000BF89B33109F490C020E030E040E05EE314
:1032D0000E942B2B4B015C0120E030E0A9010E94F1
:1032E0001E2B20E030E040E05FE387FD78C0C501A1
:1032F000B4010E94BA280E940F2A6E7FF6018081D5
:103300009181682B792B7C8B6B8B9E012D5E3F4FBF
:1033100041E06F2DA88DB98D8C910E944B1BBC8D07
:10332000FB0EE2E0CE0ED11C2A8D3B8D2615370513
:1033300009F68CA19DA101969DA38CA380CE83E16B
:103340008F8B92E09C8F1CCEA6E0AF8BB2E0BC8F3F
:1033500017CE20E030E040E850E40E942B2BAA8DED
:10336000BB8D6D937D938D939C93139746CE80E098
:1033700090E0A0E8BFE359CEC701B6010E94B9288A
:1033800004CF20E030E040E85EE30E942B2B6B018D
:103390007C0120E030E0A9010E941E2B20E030E0FB
:1033A00040E05FE387FD07C0C701B6010E94BA286D
:1033B0000E940F2AF3CEC701B6010E94B928F8CFA8
:1033C00061E070E080E090E00E948824BFEF2B1A5B
:1033D0003B0AE4E62E16310409F03DCE43CFC50189
:1033E000B4010E94B92887CF20E030E040E85EE3D6
:1033F0000E942B2B4B015C0120E030E0A9010E94D0
:103400001E2B20E030E040E05FE387FD07C0C501F0
:10341000B4010E94BA280E940F2A75CFC501B401D9
:103420000E94B928F8CF888D998D0E948815888DC3
:10343000998D0E946A16E7960FB6F894DEBF0FBE0C
:10344000CDBFDF91CF911F910F91FF90EF90DF9053
:10345000CF90BF90AF909F908F907F906F905F9034
:103460004F903F902F9008954F925F926F927F926E
:103470009F92AF92BF92CF92DF92EF92FF920F9303
:103480001F93CF93DF93EC01962E70E090E080E0E5
:103490001F921F921F921F9224E1A22EB12CC12CC9
:1034A000D12C15E0E12EF12C00E010E021E030E01D
:1034B00040E050E00E94672844E6C42ED12CE12C65
:1034C000F12CA7019601261B370B480B590BCA019B
:1034D000B9010E94472A2AE037ED43E25CE30E94EB
:1034E0002B2B6B017C0120E030E044EB52E40E9486
:1034F0002B2B2B013C012AE939E949E95EE3C7019D
:10350000B6010E942B2B9B01AC01C92C83017201D7
:1035100063E4CE010E948F170F900F900F900F90D1
:10352000DF91CF911F910F91FF90EF90DF90CF909F
:10353000BF90AF909F907F906F905F904F90089555
:103540004F925F926F927F929F92AF92BF92CF9273
:10355000DF92EF92FF920F931F93CF93DF93EC01D3
:10356000962E70E090E080E01F921F921F921F92B3
:1035700024E1A22EB12CC12CD12C15E0E12EF12C8E
:1035800000E010E021E030E040E050E00E946728D9
:1035900044E6C42ED12CE12CF12CA7019601261B68
:1035A000370B480B590BCA01B9010E94472A2AE080
:1035B00037ED43E25CE30E942B2B6B017C0120E0A2
:1035C00030E040EA51E40E942B2B2B013C012AE918
:1035D00039E949E95EE3C701B6010E942B2B9B0143
:1035E000AC01C92C830172016BE3CE010E948F17DD
:1035F0000F900F900F900F90DF91CF911F910F912F
:10360000FF90EF90DF90CF90BF90AF909F907F9012
:103610006F905F904F900895FF920F931F93CF93F9
:10362000DF93C62F042FF22E132F682F81ED93E026
:103630000E94A21E6C2F81ED93E00E94301ECF2DC0
:10364000D12F0C0F1D2F111DC017D10731F069911B
:1036500081ED93E00E94301EF7CF81ED93E00E9450
:10366000251F91E0811190E0892FDF91CF911F916B
:103670000F91FF900895CF93DF931F92CDB7DEB7E0
:1036800049839E012F5F3F4F41E00E940C1B0F902A
:10369000DF91CF910895FF920F931F93CF93DF9304
:1036A000C62F042FF22E132F682F81ED93E00E9476
:1036B000A21E6C2F81ED93E00E94301ECF2DD12FE2
:1036C00010E0101779F06981229681ED93E00E9455
:1036D000301EFE013297608181ED93E00E94301E22
:1036E0001F5FEFCF81ED93E00E94251F91E08111D4
:1036F00090E0892FDF91CF911F910F91FF90089556
:10370000CF93DF9300D0CDB7DEB75A8349839E01B4
:103710002F5F3F4F41E00E944B1B0F900F90DF91B6
:10372000CF9108953F924F925F926F927F928F92C6
:103730009F92AF92BF92CF92DF92EF92FF920F9340
:103740001F93CF93DF9300D000D0CDB7DEB78C832B
:10375000D62E4B833A8329830E9457244B015C0168
:10376000312CC12C2B81E22EF12C2801712C612CE3
:103770008B81381608F049C06C8181ED93E00E947E
:10378000A21E6D2D81ED93E00E94301E81ED93E02D
:103790000E94251F6C8181ED93E00E94A21EA7016B
:1037A000431951094132510514F040E250E06C8157
:1037B00081ED93E00E94221F81ED93E00E94D01DD5
:1037C000892BD9F00115110569F481ED93E00E9470
:1037D000D71DE981FA81EC0DF11DC7FCFA958083B4
:1037E000C394EACF0E945724681979098A099B0972
:1037F000641575058605970540F38E2D91E2E9164F
:10380000F1040CF080E2380EB3CF01151105C1F0C0
:103810000E945724681979098A099B0930E020E041
:10382000601771078207930758F08C2D0C2C000C41
:10383000990B2B812817190619F014F0CC24CA947F
:103840008C2D0F900F900F900F90DF91CF911F91C3
:103850000F91FF90EF90DF90CF90BF90AF909F902F
:103860008F907F906F905F904F903F9008950F934F
:103870001F9389019A0141E00E94921B1F910F91B1
:103880000895CF92DF92EF92FF920F931F93CF9301
:10389000DF931F92CDB7DEB7D42EC22E9701AE01B3
:1038A0004F5F5F4F0E94371C8823F9F02D2D2C1994
:1038B000330BA9014F5F5F4F21E030E002C0220FC0
:1038C000331FCA94E2F721503109B901042E01C017
:1038D000660F0A94EAF72981262330E002C0359565
:1038E00027954A95E2F7F80120830F90DF91CF9159
:1038F0001F910F91FF90EF90DF90CF900895EF927E
:10390000FF920F931F93CF93DF931F92CDB7DEB734
:10391000182F062FE42EF22E20911401309115015C
:10392000AE014F5F5F4F0E94371C81E090E001C005
:10393000880FEA94EAF74981FF2071F0482B498308
:10394000602F812F0E943B1B0F90DF91CF911F9121
:103950000F91FF90EF90089580954823F0CFDF926C
:10396000EF92FF920F931F93CF93DF931F92CDB7E8
:10397000DEB7F82EE62E142FD22E209114013091AE
:103980001501AE014F5F5F4F0E94371C882359F12C
:10399000812F8D19990BAC014F5F5F4F81E090E053
:1039A00002C0880F991FDA94E2F70197042E01C034
:1039B000880F0A94EAF701C0000F4A95EAF7482FEA
:1039C0004095998149238023482B49836E2D8F2D63
:1039D0000E943B1B0F90DF91CF911F910F91FF90A1
:1039E000EF90DF90089580E0F5CF2F923F924F92B5
:1039F0005F926F927F928F929F92AF92BF92CF927F
:103A0000DF92EF92FF920F931F93CF93DF93CDB787
:103A1000DEB729970FB6F894DEBF0FBECDBFC82E14
:103A20006D8349833F832E830E9457244B015C01A1
:103A30002981E22EF12C1701220C331C220F2B833B
:103A4000822D31E2231631040CF080E28C8319823E
:103A5000D12C2801712C612C8981821513040CF062
:103A600069C06C2D81ED93E00E94A21E6D8181EDF5
:103A700093E00E94301E81ED93E00E94251F6C2D83
:103A800081ED93E00E94A21E4B816C2D81ED93E0AD
:103A90000E94221F91E09A8381ED93E00E94D01D45
:103AA000892B91F1ED2D0D2C000CFF0BF987E88788
:103AB000EE15FF054CF501151105D9F4288539855A
:103AC000220F331F8E819F81280F391F3987288746
:103AD0009A81911122C081ED93E00E94D71DE88563
:103AE000F98520813181822B932B91838083D3941C
:103AF0001CC00E945724681979098A099B0964151A
:103B0000750586059705D0F281ED93E00E94251F8B
:103B1000E981FC81EF0FE9839FCF81ED93E00E9463
:103B2000D71DE885F98510828183FA8121E0F2278B
:103B3000FA83B2CF01151105B1F00E94572468191C
:103B400079098A099B0930E020E060177107820734
:103B5000930748F08D2D0D2C000C990B8E159F05A9
:103B600014F4DD24DA948D2D29960FB6F894DEBF77
:103B70000FBECDBFDF91CF911F910F91FF90EF90BE
:103B8000DF90CF90BF90AF909F908F907F906F907D
:103B90005F904F903F902F90089590E080E00895BF
:103BA0008091050490910604891B990B08959091CA
:103BB0000604809105042FEF3FEF981748F4E92F92
:103BC000F0E0E95FFB4F208130E09F5F90930604B7
:103BD000C9010895E091060480910504E81730F4C6
:103BE000F0E0E95FFB4F808190E008958FEF9FEF59
:103BF00008950895CF93DF93EC01E091DD03F091F8
:103C0000DE033097F1F09091060480910504981737
:103C1000C0F090E0292F30E02617370754F4DE017A
:103C2000A20FB31F4C91295F3B4FD9014C939F5F6B
:103C3000F1CF1092060460930504CB01DF91CF9180
:103C40000994DF91CF910895E091DF03F091E003B3
:103C5000309729F01092E3031092E203099408953B
:103C6000CF93DF931F92CDB7DEB769832091E10335
:103C70002223F9F02091E203203258F021E030E0D5
:103C8000FC013383228390E080E00F90DF91CF919D
:103C900008958091E303E82FF0E0EC51FC4F998107
:103CA00090838F5F8093E3038093E20381E090E051
:103CB000ECCF61E0CE0101960E94FA1FF7CFCF92C0
:103CC000DF92EF92FF920F931F93CF93DF937C01CC
:103CD000CB018A012091E103222389F0EB016B01E2
:103CE000C40ED51ECC15DD0569F06991D701ED91A3
:103CF000FC910190F081E02DC7010995F3CF642F6D
:103D00000E94FA1FC801DF91CF911F910F91FF9080
:103D1000EF90DF90CF900895109206041092050462
:103D20001092E3031092E2030E94391F84E29EE1A5
:103D30000E9426208AEF9DE10C942120CB01BA013C
:103D40000C94571F81E08093E10360930404109268
:103D5000E3031092E20308950F93062F21E04091B0
:103D6000E20364EE73E0809104040E94AA1F1092A3
:103D7000E3031092E2031092E1030F9108954F9232
:103D80005F926F927F92AF92BF92CF92EF92FF922B
:103D90000F931F93CF93DF935C01F62ED42F28014E
:103DA0003901EE2019F10E94A21ECE2DC43008F078
:103DB000C3E0C150B8F028E0C29FC0011124A301A4
:103DC000920104C056954795379527958A95D2F765
:103DD000B901D501ED91FC910190F081E02DC50173
:103DE0000995E7CF60E0C5010E94AC1E4D2FD1328E
:103DF00008F040E22C2D67E074E08F2D0E946A1FCE
:103E00001092060480930504DF91CF911F910F91CA
:103E1000FF90EF90CF90BF90AF907F906F905F90AA
:103E20004F900895CF92EF920F931F93C22EE12CE3
:103E300000E010E098010E94BF1E1F910F91EF90CB
:103E4000CF90089521E00C94121F61E00C94AC1EF9
:103E5000E1EDF3E01382128288EE93E0A0E0B0E09F
:103E600084839583A683B7838BE392E091838083D9
:103E700008951092760481E0809374041092730484
:103E800061E082E10E946C2561E083E10E946C2583
:103E9000E9EBF0E080818E7F808380818D7F80835D
:103EA00088E48093B80085E48093BC0008959B016A
:103EB000AC0160E074E284EF90E00E94132C20518A
:103EC0003109410951095695479537952795209312
:103ED000B80008954132E0F5909176049111FCCF3D
:103EE00091E090937604209374042FEF209327049D
:103EF00070936E0460936D0410926C04240F2093F1
:103F00006B049093750490917504880F892B8093AE
:103F10007504809173048130C9F410927304809108
:103F200075048093BB008091BC0083FDF8CF85ECC5
:103F30008093BC00809176048130E1F380916C0421
:103F4000841710F440916C04842F089585EEF0CF0F
:103F500040E0FACF0F93413208F044C090917604CC
:103F60009111FCCF92E090937604009374049FEF3C
:103F70009093270470936E0460936D0410926C0408
:103F800040936B041092750490917504880F892BEF
:103F90008093750480917304813011F5109273043D
:103FA000809175048093BB008091BC0083FDF8CFA5
:103FB00085EC8093BC00222321F08091760482302E
:103FC000D1F3809127048F3F79F0809127048032CC
:103FD00069F080912704803359F084E00F910895AF
:103FE00085EEE7CF81E0FACF80E0F8CF82E0F6CF30
:103FF00083E0F4CF20914904260F3327331F213269
:104000003105ECF420917604FC0190E080E024304E
:1040100069F082E00895A09149042191AC01455BCB
:104020005B4FA40FB52FB11D2C930196861798F303
:1040300080914904680F6093490480E0089581E00D
:1040400008959093700480936F0408959093720480
:1040500080937104089585ED8093BC008091BC002D
:1040600084FDFCCF10927604089585EC8093BC000B
:104070001092760408951F920F920FB60F9211249A
:104080002F933F934F935F936F937F938F939F9360
:10409000AF93BF93EF93FF938091B900887F8036F1
:1040A00009F44CC008F03FC0883209F4A8C018F5E4
:1040B000803109F49CC0B8F4882309F405C1883024
:1040C00009F495C0FF91EF91BF91AF919F918F91AE
:1040D0007F916F915F914F913F912F910F900FBE04
:1040E0000F901F901895883109F489C0803251F7DC
:1040F0008093270415C0803409F4A6C048F48033A7
:10410000B9F38833F9F6809327040E943520DACF7B
:10411000803509F489C0883509F49EC0883491F649
:104120000E942B20CFCF883909F494C038F5883706
:1041300029F050F4883611F0803721F683E080931F
:1041400076041092280457C0883809F483C0803957
:1041500019F0803809F0B6CF80912804803208F039
:1041600079C0E091280481E08E0F8093280480912B
:10417000BB00F0E0E75DFB4F80833DC0803B39F042
:10418000E0F4803A09F485C0883A09F09BCF84E0D6
:104190008093760410924A0410924904E0917104CD
:1041A000F091720409958091490481110FC081E05A
:1041B0008093490410924B0409C0803C09F482C0EA
:1041C000883C09F47FC0883B09F07CCFE0914A0429
:1041D00081E08E0F80934A04F0E0E55BFB4F808125
:1041E0008093BB0090914A048091490431C0809132
:1041F00075048093BB0085EC8093BC0063CF9091E5
:104200006C0480916B049817B8F580916D049091BF
:104210006E04E0916C0421E02E0F20936C04E80FF3
:10422000F92FF11D8081E5CF20916D0430916E044E
:10423000E0916C0481E08E0F80936C048091BB0050
:10424000E20FF32FF11D808390916C0480916B0439
:10425000981788F285E8D0CF20916D0430916E04D4
:10426000E0916C0481E08E0F80936C048091BB0020
:10427000E20FF32FF11D808380917404811150CFE0
:1042800081E08093730484EA8093BC0010927604EA
:1042900019CF0E94352080912804803230F4E091BB
:1042A0002804F0E0E75DFB4F10826091280470E085
:1042B000E0916F04F091700489E294E00995109206
:1042C000280400CF85ECE0CF1092270429CFCF92AD
:1042D000DF92EF92FF92CF93DF93EC016A017B01B3
:1042E0002FE632E143E85AE3CB01B6010E94982958
:1042F00087FD11C020E030E04AE754E4C701B60171
:104300000E941E2B18167CF4C12CD12C8AE7E82EB3
:1043100084E4F82E08C09FE6C92E92E1D92E93E8D6
:10432000E92E9AE3F92EC88AD98AEA8AFB8ADF91B4
:10433000CF91FF90EF90DF90CF900895CF92DF92D2
:10434000EF92FF92CF93DF93EC016A017B0120E0B3
:1043500030E0A901CB01B6010E941E2B181624F0F3
:10436000F7FAF094F7F8F0942BED3FE049EC50E4C5
:10437000C701B6010E942B2B6C8B7D8B8E8B9F8B84
:10438000DF91CF91FF90EF90DF90CF9008958F92C3
:104390009F92AF92BF92CF92DF92EF92FF920F93D4
:1043A0001F93CF93DF93EC014A015B01B901A80190
:1043B000C882D982EA82FB821C821D821E821F82F1
:1043C000188E0E946721B501A401CE010E949E2192
:1043D0000E946324698F7A8F8B8F9C8FDF91CF919E
:1043E0001F910F91FF90EF90DF90CF90BF90AF9013
:1043F0009F908F900895EF92FF920F931F93CF930A
:10440000DF93EC01FB01CA01B901188EE882F98241
:104410000A831B833097D1F42AE037ED43EA5FE348
:104420000E942B2BAB01BC01CE010E949E218DE787
:1044300090EDA3E1BFE3888B998BAA8BBB8BDF91B7
:10444000CF911F910F91FF90EF9008953197B9F799
:10445000A901BC01CE010E949E2181E894E0A5E360
:10446000BFE3E9CF2F923F924F925F926F927F927C
:104470008F929F92AF92BF92CF92DF92EF92FF9274
:104480000F931F93CF93DF93CDB7DEB72A970FB665
:10449000F894DEBF0FBECDBF9A8789872A013B0102
:1044A000DC011C964D925D926D927C921F970E944A
:1044B00063246B017C01E985FA85818D928DA38D42
:1044C000B48DA7019601281B390B4A0B5B0BCA015F
:1044D000B9010E94472A2DEB37E346E855E30E94D5
:1044E0002B2B4B015C01A985BA855996CD92DD92A3
:1044F000ED92FC925C975496CD90DD90ED90FC90FF
:10450000579720E030E0A9010E94982987FDAFC0AD
:10451000A701960160E070E080E89FE30E949D297A
:10452000162F072F382E292E262F372F482F592F99
:10453000B401C5010E941E2B181624F0182D092D58
:104540003A2C2B2CA7019601C701B6010E942B2BF8
:104550006D837E838F839887E985FA858480958033
:10456000A680B780208131814281538129833A839B
:104570004B835C839B01AC01C301B2010E942B2BD6
:104580002B013C01E985FA852089318942895389CB
:10459000C701B6010E949D29A50194010E942B2B01
:1045A0009B01AC01C301B2010E94B9286B017C01DF
:1045B0002D813E814F81588569817A818B819C81D3
:1045C0000E942B2B9B01AC01C701B6010E94B928A8
:1045D000212F302F432D522D0E942B2BA50194010A
:1045E0000E94BA286B017C01AC019B01C501B4019A
:1045F0000E94BA2820E030E040E05FE30E942B2BCD
:10460000A985BA8518966D937D938D939C931B977E
:10461000212F302F432D522D0E942B2B29813A819F
:104620004B815C810E94BA28E985FA856083718399
:1046300082839383C482D582E682F7822A960FB65C
:10464000F894DEBF0FBECDBFDF91CF911F910F91C8
:10465000FF90EF90DF90CF90BF90AF909F908F90A2
:104660007F906F905F904F903F902F90089510E053
:1046700000E0312C212C66CFFC01608171818281A8
:1046800093810895CF93DF93A0EBB0E02C91EC01E0
:104690002887E1EBF0E0208129878081887F826094
:1046A0008083C0E7D0E08881816088838C918C7F93
:1046B0008C938081877F8083DF91CF910895FC0167
:1046C00040815181628173814F5F5F4F6F4F7F4F98
:1046D000408351836283738308951F920F920FB6B4
:1046E0000F9211242F933F934F935F936F937F9378
:1046F0008F939F93AF93BF93EF93FF9387E794E0DC
:104700000E945F23FF91EF91BF91AF919F918F9195
:104710007F916F915F914F913F912F910F900FBEBD
:104720000F901F901895E7E7F4E010821182128233
:10473000138214821582168217820895089582309A
:10474000E8F4E82FF0E0EE0FFF1FEA5EFE4F718302
:104750006083813041F0809169008C7F482B4093C9
:104760006900E89A089580916900837F440F551F7E
:10477000440F551F482B40936900E99A08951F92F2
:104780000F920FB60F9211242F933F934F935F9385
:104790006F937F938F939F93AF93BF93EF93FF9309
:1047A000E0911601F09117010995FF91EF91BF91EA
:1047B000AF919F918F917F916F915F914F913F91B9
:1047C0002F910F900FBE0F901F9018951F920F9270
:1047D0000FB60F9211242F933F934F935F936F93D4
:1047E0007F938F939F93AF93BF93EF93FF93E0914A
:1047F0001801F09119010995FF91EF91BF91AF91C7
:104800009F918F917F916F915F914F913F912F91E8
:104810000F900FBE0F901F9018951F920F920FB61A
:104820000F9211242F933F938F939F93AF93BF9336
:104830008091860490918704A0918804B0918904A6
:104840003091850423E0230F2D3768F126E8230FEC
:104850000296A11DB11D2093850480938604909338
:104860008704A0938804B093890480918104909177
:104870008204A0918304B09184040196A11DB11D0E
:104880008093810490938204A0938304B093840462
:10489000BF91AF919F918F913F912F910F900FBE3C
:1048A0000F901F9018950196A11DB11DD4CF2FB761
:1048B000F8946091860470918704809188049091A7
:1048C00089042FBF08953FB7F89480918104909197
:1048D0008204A0918304B091840426B5A89B05C0EE
:1048E0002F3F19F00196A11DB11D3FBFBA2FA92F6F
:1048F000982F8827BC01CD01620F711D811D911D6C
:1049000042E0660F771F881F991F4A95D1F70895D7
:104910008F929F92AF92BF92CF92DF92EF92FF92CF
:104920006B017C010E9463244B015C01C114D10422
:10493000E104F104E9F00E94B8280E946324681998
:1049400079098A099B09683E73408105910570F3D6
:1049500021E0C21AD108E108F10888EE880E83E050
:10496000981EA11CB11CC114D104E104F10429F763
:10497000FF90EF90DF90CF90BF90AF909F908F907F
:104980000895789484B5836084BD85B5836085BDC2
:10499000EEE6F0E0808181608083E1E8F0E082E093
:1049A0008083808181608083E0E8F0E080818160A5
:1049B0008083E1EBF0E0808184608083E0EBF0E0D5
:1049C00080818160808387E880937A001092C100A3
:1049D0000895883020F08D3008F48DE08E502091BD
:1049E0001A0190E4299F900111248770822B8093F3
:1049F0007C0080917A00806480937A0080917A00B4
:104A000086FDFCCF809178009091790008958430E4
:104A100081F028F48230E9F08330F9F0089588308D
:104A200071F0893091F08530B9F4809180008F7DEC
:104A300003C0809180008F778093800008958091DB
:104A4000B0008F778093B00008958091B0008F7D83
:104A5000F9CF84B58F7784BD089584B58F7DFBCF62
:104A6000CF93DF9390E0FC01EA5CF74F2491835BE6
:104A7000974FFC0184918823C9F090E0880F991F1B
:104A8000FC01E858F74FA591B491FC01E259F74FAA
:104A9000C591D49161110DC09FB7F8948C91209568
:104AA00082238C938881282328839FBFDF91CF9115
:104AB0000895623051F49FB7F8943C91822F80950D
:104AC00083238C93E8812E2BEFCF8FB7F894EC9152
:104AD0002E2B2C938FBFEACF1F93CF93DF93282FDA
:104AE00030E0F901E15EF74F8491F901EA5CF74F9C
:104AF000D491F901E35BF74FC491CC23A9F0162FB1
:104B000081110E940725EC2FF0E0EE0FFF1FE25904
:104B1000F74FA591B4918FB7F894EC91111108C09B
:104B2000D095DE23DC938FBFDF91CF911F91089545
:104B3000DE2BF8CFCF93DF93282F30E0F901E15E31
:104B4000F74F8491F901EA5CF74FD491F901E35BE7
:104B5000F74FC491CC23A1F081110E940725EC2FBF
:104B6000F0E0EE0FFF1FEC59F74FA591B491EC91D7
:104B7000ED2381E090E009F480E0DF91CF9108958A
:104B800080E090E0FACFFC01918D228D892F90E09A
:104B9000805C9F4F821B91098F7399270895FC01B8
:104BA000918D828D981731F0828DE80FF11D858DE2
:104BB00090E008958FEF9FEF0895FC01918D828D15
:104BC000981761F0A28DAE0FBF2FB11D5D968C912D
:104BD000928D9F5F9F73928F90E008958FEF9FEF6C
:104BE0000895FC01538D448D252F30E0842F90E0F3
:104BF000821B930B541710F0CF96089501970895D8
:104C00008DE497E2892B49F080E090E0892B29F030
:104C10000E944D2781110C9400000895FC01A48D81
:104C2000A80FB92FB11DA35ABF4F2C91848D90E0CE
:104C300001968F739927848FA689B7892C93A089B1
:104C4000B1898C91837080648C93938D848D98133B
:104C500006C00288F389E02D80818F7D80830895CE
:104C6000CF93DF93EC01888D8823B9F0AA89BB89A3
:104C7000E889F9898C9185FD03C0808186FD0DC08E
:104C80000FB607FCF7CF8C9185FFF2CF808185FFAF
:104C9000EDCFCE010E940E26E9CFDF91CF9108958E
:104CA000EF92FF920F931F93CF93DF93EC0181E07C
:104CB000888F9B8D8C8D98131AC0E889F989808123
:104CC00085FF15C09FB7F894EE89FF896083E88956
:104CD000F98980818370806480839FBF81E090E048
:104CE000DF91CF911F910F91FF90EF900895F62ED5
:104CF0000B8D10E00F5F1F4F0F731127E02E8C8D6F
:104D00008E110CC00FB607FCFACFE889F9898081B3
:104D100085FFF5CFCE010E940E26F1CFEB8DEC0F73
:104D2000FD2FF11DE35AFF4FF0829FB7F8940B8FD0
:104D3000EA89FB8980818062CFCFCF92DF92EF92A8
:104D4000FF921F93CF93DF93EC016A017B01122F37
:104D5000E889F98982E08083C11481EED806E104F4
:104D6000F104A1F060E079E08DE390E0A701960105
:104D70000E94132C2150310941095109569547953C
:104D800037952795211580E1380798F0E889F9894A
:104D9000108260E874E88EE190E0A70196010E941D
:104DA000132C2150310941095109569547953795E2
:104DB0002795EC85FD853083EE85FF852083188E51
:104DC000EC89FD891083EA89FB8980818869808369
:104DD000EA89FB8980818F7D8083DF91CF911F914C
:104DE000FF90EF90DF90CF9008951F920F920FB633
:104DF0000F9211242F938F939F93EF93FF93E09142
:104E00009A04F0919B048081E091A004F091A104A8
:104E100082FD1BC090818091A3048F5F8F732091CE
:104E2000A404821741F0E091A304F0E0E657FB4FA1
:104E3000958F8093A304FF91EF919F918F912F9174
:104E40000F900FBE0F901F9018958081F4CF1F9286
:104E50000F920FB60F9211242F933F934F935F93AE
:104E60006F937F938F939F93AF93BF93EF93FF9332
:104E70008AE894E00E940E26FF91EF91BF91AF91D6
:104E80009F918F917F916F915F914F913F912F9162
:104E90000F900FBE0F901F9018958AE894E00E9423
:104EA000C32521E0892B09F420E0822F0895EAE848
:104EB000F4E01382128288EE93E0A0E0B0E08483F5
:104EC0009583A683B7838DE492E09183808385ECFC
:104ED00090E09587848784EC90E09787868780ECC4
:104EE00090E0918B808B81EC90E0938B828B82ECB5
:104EF00090E0958B848B86EC90E0978B868B118E5F
:104F0000128E138E148E0895AF92BF92CF92DF92BD
:104F1000EF92FF920F931F93CF93DF936C017B016E
:104F20008B01040F151FEB015E01AE18BF08C017FF
:104F3000D10759F06991D601ED91FC910190F08172
:104F4000E02DC6010995892B79F7C501DF91CF9135
:104F50001F910F91FF90EF90DF90CF90BF90AF9097
:104F60000895FB0101900020E9F73197AF01461B3E
:104F7000570BDC01ED91FC910280F381E02D099447
:104F80006115710511F00C94B12790E080E008954F
:104F90006BE572E00C94B1270F931F93CF93DF93CF
:104FA0008C01D0E0C0E06115710519F00E94B127B5
:104FB000EC01C8010E94C8278C0F9D1FDF91CF9183
:104FC0001F910F9108958F929F92AF92BF92EF928F
:104FD000FF920F931F93CF93DF93CDB7DEB7A197C7
:104FE0000FB6F894DEBF0FBECDBF7C01FA01CB0136
:104FF00019A2223008F42AE08E010F5D1F4F822E85
:10500000912CB12CA12CBF01A50194010E94132C5D
:10501000F901CA016A300CF5605DD8016E938D010B
:10502000232B242B252B79F790E080E0109721F09B
:10503000BD01C7010E94B127A1960FB6F894DEBF4B
:105040000FBECDBFDF91CF911F910F91FF90EF90D9
:10505000BF90AF909F908F900895695CDECF21152F
:10506000310541F4DC01ED91FC910190F081E02DDE
:10507000642F09940C94E3279A01462F50E070E0C6
:1050800060E00C942F280F931F93CF93DF93EC01D4
:105090000E943C288C01CE010E94C827800F911FDE
:1050A000DF91CF911F910F9108950F931F93CF938D
:1050B000DF93EC010E942F288C01CE010E94C827AB
:1050C000800F911FDF91CF911F910F9108954F9203
:1050D0005F926F927F92AF92BF92CF92DF92EF92E8
:1050E000FF920F931F93CF93DF93CDB7DEB72901C4
:1050F0003A019B01AC0124193509460957098989F0
:105100009A89AB89BC89BC01CD016A197B098C09DC
:105110009D090E94F72BA80197012419350946091A
:1051200057090E94352CCA01B9016A0D7B1D8C1DDF
:105130009D1DDF91CF911F910F91FF90EF90DF9018
:10514000CF90BF90AF907F906F905F904F900895F9
:1051500008950E94C1240E94A8280E948F08C0E0E0
:10516000D6E20E94F10A2097E1F30E940026F9CFCF
:1051700008955058BB27AA270E94D1280C94E42AEE
:105180000E94D62A38F00E94DD2A20F039F49F3F91
:1051900019F426F40C94AC2A0EF4E095E7FB0C9479
:1051A000A62AE92F0E94F52A58F3BA176207730757
:1051B0008407950720F079F4A6F50C94172B0EF4CC
:1051C000E0950B2EBA2FA02D0B01B90190010C0117
:1051D000CA01A0011124FF27591B99F0593F50F42F
:1051E000503E68F11A16F040A22F232F342F442787
:1051F000585FF3CF469537952795A795F04053957F
:10520000C9F77EF41F16BA0B620B730B840BBAF04E
:105210009150A1F0FF0FBB1F661F771F881FC2F7B9
:105220000EC0BA0F621F731F841F48F487957795CD
:105230006795B795F7959E3F08F0B0CF9395880F87
:1052400008F09927EE0F9795879508950E94D62A22
:1052500060F080E891E009F49EEF0E94DD2A28F0DA
:1052600040E851E071F45EEF0CC00C94AC2A0C9451
:10527000172BE92FE0780E94F52A40F3092E052A22
:10528000B1F3261737074807590738F00E2E07F8ED
:10529000E02569F0E025E0640AC0EF6307F80094B8
:1052A00007FADB01B9019D01DC01CA01AD01EF93F1
:1052B0000E94B4290E94E42A0E9469295F91552323
:1052C00039F02BED3FE049E450FD49EC0C94BA284D
:1052D0000895DF93DD27B92FBF7740E85FE3161607
:1052E000170648075B0718F4D92F0E94232B9F93BA
:1052F0008F937F936F930E94DE2BE8E6F0E00E948D
:10530000AF2A0E94E42A2F913F914F915F910E9412
:105310003E2BDD2351F09058A2EA2AED3FE049EC04
:105320005FE3D0785D270E94D128DF910C94E42AB6
:105330000E94822A08F481E008950E94B1290C9409
:10534000E42A0E94DD2A58F00E94D62A40F029F46F
:105350005F3F29F00C94A62A51110C94182B0C9441
:10536000AC2A0E94F52A68F39923B1F3552391F3EF
:10537000951B550BBB27AA2762177307840738F0C4
:105380009F5F5F4F220F331F441FAA1FA9F335D021
:105390000E2E3AF0E0E832D091505040E695001CD5
:1053A000CAF72BD0FE2F29D0660F771F881FBB1F8F
:1053B000261737074807AB07B0E809F0BB0B802D6D
:1053C000BF01FF2793585F4F3AF09E3F510578F099
:1053D0000C94A62A0C94182B5F3FE4F3983ED4F368
:1053E000869577956795B795F7959F5FC9F7880F6D
:1053F000911D9695879597F90895E1E0660F771FBF
:10540000881FBB1F621773078407BA0720F0621B4F
:10541000730B840BBA0BEE1F88F7E09508950E947A
:10542000162A6894B1110C94182B08950E94FD2A35
:1054300088F09F5798F0B92F9927B751B0F0E1F055
:10544000660F771F881F991F1AF0BA95C9F714C005
:10545000B13091F00E94172BB1E008950C94172BF6
:10546000672F782F8827B85F39F0B93FCCF386953E
:1054700077956795B395D9F73EF49095809570959B
:1054800061957F4F8F4F9F4F0895E89409C097FB18
:105490003EF490958095709561957F4F8F4F9F4F0B
:1054A0009923A9F0F92F96E9BB279395F69587954F
:1054B00077956795B795F111F8CFFAF4BB0F11F412
:1054C00060FF1BC06F5F7F4F8F4F9F4F16C08823B9
:1054D00011F096E911C0772321F09EE8872F762FEF
:1054E00005C0662371F096E8862F70E060E02AF030
:1054F0009A95660F771F881FDAF7880F969587951C
:1055000097F90895990F0008550FAA0BE0E8FEEFF0
:1055100016161706E807F907C0F012161306E40777
:10552000F50798F0621B730B840B950B39F40A2670
:1055300061F0232B242B252B21F408950A2609F44E
:10554000A140A6958FEF811D811D089597F99F6752
:1055500080E870E060E008959FEF80EC0895DF93AD
:10556000CF931F930F93FF92EF92DF927B018C01F9
:10557000689406C0DA2EEF010E943E2BFE01E894EB
:10558000A5912591359145915591A6F3EF010E9482
:10559000D128FE019701A801DA9469F7DF90EF9016
:1055A000FF900F911F91CF91DF91089500240A94ED
:1055B0001616170618060906089500240A941216EE
:1055C0001306140605060895092E0394000C11F421
:1055D000882352F0BB0F40F4BF2B11F460FF04C0CE
:1055E0006F5F7F4F8F4F9F4F089557FD9058440F27
:1055F000551F59F05F3F71F04795880F97FB991F32
:1056000061F09F3F79F087950895121613061406EE
:10561000551FF2CF4695F1DF08C01616170618067B
:10562000991FF1CF86957105610508940895E89456
:10563000BB2766277727CB0197F908950E94822A16
:1056400008F48FEF08959B01AC0160E070E080E802
:105650009FE30C949D290E943E2B0C94E42A0E9407
:10566000D62A38F00E94DD2A20F0952311F00C9400
:10567000A62A0C94AC2A11240C94182B0E94F52A0B
:1056800070F3959FC1F3950F50E0551F629FF00195
:10569000729FBB27F00DB11D639FAA27F00DB11DAE
:1056A000AA1F649F6627B00DA11D661F829F222737
:1056B000B00DA11D621F739FB00DA11D621F839FBE
:1056C000A00D611D221F749F3327A00D611D231F94
:1056D000849F600D211D822F762F6A2F11249F57E2
:1056E00050409AF0F1F088234AF0EE0FFF1FBB1FE5
:1056F000661F771F881F91505040A9F79E3F5105A4
:1057000080F00C94A62A0C94182B5F3FE4F3983E8B
:10571000D4F3869577956795B795F795E7959F5F4D
:10572000C1F7FE2B880F911D9695879597F90895DF
:1057300019F416F40C94AC2A0C94E22B0E94FD2A66
:10574000B8F39923C9F3B6F39F57550B87FF0E940F
:10575000F02B0024A0E640EA9001805856959795DA
:1057600028F4805C660F771F881F20F02617370704
:10577000480730F4621B730B840B202931294A2B14
:10578000A69517940794202531254A2758F7660FC8
:10579000771F881F20F026173707480730F4620B61
:1057A000730B840B200D311D411DA09581F7B901AC
:1057B000842F9158880F9695879508959B01AC0189
:1057C0000C942B2B9F3F31F0915020F487957795C7
:1057D0006795B795880F911D9695879597F90895C8
:1057E00091505040660F771F881FD2F70895DB0154
:1057F0008F939F930E94632CBF91AF91A29F800DC6
:10580000911DA39F900DB29F900D11240895991B97
:1058100079E004C0991F961708F0961B881F7A95A7
:10582000C9F780950895A1E21A2EAA1BBB1BFD01A2
:105830000DC0AA1FBB1FEE1FFF1FA217B307E4076F
:10584000F50720F0A21BB30BE40BF50B661F771FC7
:10585000881F991F1A9469F76095709580959095A7
:105860009B01AC01BD01CF010895052E97FB1EF4ED
:1058700000940E944C2C57FD07D00E94132C07FC6B
:1058800003D04EF40C944C2C5095409530952195B6
:105890003F4F4F4F5F4F089590958095709561955C
:1058A0007F4F8F4F9F4F0895A29FB001B39FC001BC
:1058B000A39F700D811D1124911DB29F700D811D3C
:1058C0001124911D08950E94542CA59F900DB49F02
:1058D000900DA49F800D911D11240895EE0FFF1FC0
:1058E0000590F491E02D09940F931F93CF93DF93CC
:1058F0008230910510F482E090E0E0912905F0916A
:105900002A0530E020E0B0E0A0E0309799F42115BE
:10591000310509F44AC0281B390B24303105D8F56C
:105920008A819B816115710589F1FB0193838283D3
:10593000FE0111C04081518102811381481759072E
:10594000E0F04817590799F4109761F012960C93FC
:10595000129713961C933296CF01DF91CF911F912E
:105960000F9108950093290510932A05F4CF21156E
:10597000310551F04217530738F0A901DB019A01B4
:10598000BD01DF01F801C1CFEF01F9CF90932A05E6
:1059900080932905CDCFFE01E20FF31F81939193F0
:1059A0002250310939832883D7CF209127053091A0
:1059B0002805232B41F420910201309103013093FB
:1059C0002805209327052091000130910101211520
:1059D000310541F42DB73EB74091040150910501C6
:1059E000241B350BE0912705F0912805E217F307FA
:1059F000A0F42E1B3F0B2817390778F0AC014E5F3F
:105A00005F4F2417350748F04E0F5F1F509328054E
:105A100040932705819391939FCFF0E0E0E09CCFE6
:105A2000CF93DF930097E9F0FC0132971382128243
:105A3000A0912905B0912A05ED0130E020E01097F2
:105A4000A1F420813181820F931F2091270530918D
:105A500028052817390709F061C0F0932805E0935D
:105A60002705DF91CF910895EA01CE17DF07E8F50A
:105A70004A815B819E0141155105B1F7E901FB8324
:105A8000EA8349915991C40FD51FEC17FD0761F4C2
:105A9000808191810296840F951FE9019983888303
:105AA000828193819B838A83F0E0E0E012968D915E
:105AB0009C9113970097B9F52D913C911197CD01C9
:105AC0000296820F931F20912705309128052817F1
:105AD000390739F6309751F510922A0510922905A9
