:100000000C94D0040C942F2C0C94562C0C94F809BE
:100010000C94250A0C94520A0C94F8040C94F804DD
:100020000C94F8040C94DD2B0C94F8040C94BB1B7A
:100030000C94F8040C94F8040C94F8040C94F80450
:100040000C947D2C0C94F8040C94652F0C94972F31
:100050000C94F8040C94F8040C94F8040C94F80430
:100060000C9480280C94F804084AD73B3BCE016ED0
:1000700084BCBFFDC12F3D6C74319ABD56833DDAFF
:100080003D00C77F11BED9E4BB4C3E916BAAAABE0E
:10009000000000803F004649464F206F766572663B
:1000A0006C6F7721002900444D5020496E697469B6
:1000B000616C697A6174696F6E206661696C6564F0
:1000C0002028636F64652000444D50207265616490
:1000D00079212057616974696E6720666F722066A6
:1000E0006972737420696E746572727570742E2EE5
:1000F0002E00292E2E2E00456E61626C696E6720DF
:10010000696E746572727570742064657465637469
:10011000696F6E202841726475696E6F206578740E
:1001200065726E616C20696E746572727570742090
:1001300000456E61626C696E6720444D502E2E2E14
:1001400000496E697469616C697A696E6720444D13
:10015000502E2E2E004D50553630353020636F6EA8
:100160006E656374696F6E206661696C6564004DCD
:1001700050553630353020636F6E6E656374696F2D
:100180006E207375636365737366756C0054657375
:1001900074696E672064657669636520636F6E6E4F
:1001A000656374696F6E732E2E2E00FB00003E0097
:1001B0000B0036000100020003000000650054FF40
:1001C000EF0000FA80000B12820001000200000024
:1001D000000000000000000000000000280000FFF8
:1001E000FF4581FFFFFA7200000000000003E800F5
:1001F00000000100017FFFFFFE8001001B000000E6
:10020000000000000000000000000000400000406E
:1002100000000002CB47A2200000002000000000E8
:10022000000000400000006000000041FF000000EE
:10023000000B2A0000165500002182FD872650FD84
:10024000800000001F00000005800000000000008A
:100250000100000002000000030000400000000058
:1002600000046F0002653200005EC0400000000024
:100270000000000000000000000000FB8C6F5DFD2E
:100280005D08D9007C733B006C12CC3200139D32A8
:1002900000D0D632000800400001F4FFE680790269
:1002A0000000000000D0D600002710FB0000004036
:1002B000000000000000000000000000000001003D
:1002C00000000000000100010000000000FA36FFFD
:1002D000BC308E0005FBF0FFD95BC8FFD09ABE0092
:1002E0000010A9FFF41EB200CEBBF7000000010011
:1002F000000004000200020200000CFFC2800000A7
:1003000001800000CF8000400000000000000000DD
:1003100000000000000600000000140000000000C3
:1003200000000000000000000000000000000000CD
:1003300000000000000000000000000923A13500BB
:1003400000000000000000000000000000000003AA
:100350003F68B6793528BCC67ED16C8000FFFF406F
:100360000000000000B26A00000000000000000071
:1003700000000000003FF00000003000000000001E
:10038000000000000000000000000000000000006D
:1003900000000000000000000040000000254D00AB
:1003A0002F706D000005AE000C02D00000000000B0
:1003B000650054FFEF000000000000000001000095
:1003C00044000100058BC100000100000000000096
:1003D00065000000540000FFEF0000000000000076
:1003E000000000000000000000000000000000000D
:1003F00000000000000000000000000000000000FD
:1004000000000000000000000000000000000100EB
:1004100000000200000000000000000000000000DA
:1004200000000000000000000000000000000000CC
:100430000000000000000000000000001B000000A1
:1004400000000000000000000000000000000000AC
:10045000000000000000000000000000000000009C
:100460000000000000000000000000001B00000071
:10047000000000000000000000000000000000007C
:10048000000000000000000000000000000000006C
:10049000000000000000000000000000000000005C
:1004A0000000000000000000000000D8DCBAA2F14B
:1004B000DEB2B8B4A88191F74A907F916AF3F9DB74
:1004C000A8F9B0BAA080F2CE81F3C2F1C1F2C3F3B1
:1004D000CCA2B280F1C6D880BAA7DFDFDFF2A7C313
:1004E000CBC5B6F087A2942448703C954068345838
:1004F0009B78A2F183922D557DD8B1B4B8A1D0914B
:1005000080F270F370F27C80A8F101B09887D94333
:10051000D886C988BAA1F20EB89780F1A9DFDFDFCB
:10052000AADFDFDFF2AA4CCD6CA90CC92C979797F4
:1005300097F1A989264666B0B4BA80ACDEF2CAF15A
:10054000B28C02A9B69800890E161EB8A9B4992CCF
:10055000547CB08AA896365676F1B9AFB4B083C051
:10056000B8A89711B18F98B9AFF024084410641857
:10057000F1A329557DAF83B593AFF0002850F1A3C7
:10058000869F61A6DADEDFD9FAA38696DB31A6D98B
:10059000F8DFBAA68FC2C5C7B28CC1B8A2DFDFDF51
:1005A000A3DFDFDFD8D8F1B8A8B286B4980D355DE7
:1005B000B8AA98B0872D353DB2B6BAAF8C96198FD0
:1005C0009FA70E161EB49AB8AA872C547CB9A3DE36
:1005D000DFDFA3B180F2C4CDC9F1B8A9B499830D0E
:1005E000355D89B9A32D557DB593A30E161EA92C93
:1005F000547CB8B4B0F19783A81184A50998A3835B
:10060000F0DA240844106418D8F1A529557DA58591
:1006100095021A2E3A565A4048F9F3A3D9F8F098A1
:10062000832408441064189782A8F111F098A2243A
:100630000844106418DAF3DED883A59401D9A30224
:10064000F1A2C3C5C7D8F18492A24DDA2AD848696D
:10065000D92AD86855DA32D85071D932D8705DDAD3
:100660003AD85879D93AD87893A34DDA2AD8486934
:10067000D92AD86855DA32D85071D932D8705DDAB3
:100680003AD85879D93AD878A88A9AF02850789EDA
:10069000F38818F19F1D98A8D908D8C89F129EF317
:1006A00015A8DA1210D8F1AFC8978734B5B994A459
:1006B00021F3D922D8F22DF3D92AD8F235F3D93241
:1006C000D881A4606061D961D86C6869D969D8742F
:1006D0007071D971D8B1A384193D5DA3831A3E5EB0
:1006E000931030811011B8B0AF8F94F2DA3ED8B4C5
:1006F0009AA88729DAF8D8879A35DAF8D8879A3D00
:10070000DAF8D8B1B9A49885022E56A581000C1448
:10071000A397B08AF12DD928D84DD948D86DD9687A
:10072000D8B1840DDA0ED8A32983DA2C0ED8A3848D
:100730004983DA2C4C0ED8B8B0A88A9AF520AADAE8
:10074000DFD8A840AAD0DADED8A860AADAD0DFD8ED
:10075000F19786A8319B069907AB9728889BF00CE8
:10076000201440B8B0B4A88C9CF0042851791D30F6
:100770001438B282ABD0982C505078789BF11AB0D4
:10078000F08A9CA82951798B2951798A2470598B38
:100790002058718A4469388B3940688A6448318BA3
:1007A000304960A58820097158446811396449307E
:1007B00019F1AC002C547CF08CA804285078F188F6
:1007C0009726A85998AC8C02264666F0899CA829E1
:1007D0005179247059446938644831A988092059ED
:1007E00070AB11384069A8193148608CA83C415C55
:1007F000207C00F187981986A86E767EA999882DAD
:10080000557D9EB9A38A228A6E8A568A5E9FB183DD
:10081000062646660E2E4E6E9DB8AD002C547CF218
:10082000B18CB499B9A32D557D8191AC38AD3AB551
:100830008391AC2DD928D84DD948D86DD968D88C9A
:100840009DAE29D904AED851D904AED879D904D8EF
:1008500081F39DAD008DAE1981ADD901D8F2AEDA2C
:1008600026D88E912983A7D9ADADADADF32AD8D8BE
:10087000F1B0AC89913E5E76F3AC2E2EF1B18C5A7C
:100880009CAC2C2828289CAC3018A8988128343C93
:100890009724A728343C9C24F2B089AC912C4C6C52
:1008A0008A9B2DD9D8D851D9D8D879D9D8D8F19E02
:1008B00088A331DAD8D8912DD928D84DD948D86D08
:1008C000D968D8B18393353D8025DAD8D88569DADF
:1008D000D8D8B49381A328343CF3AB8BF8A391B65A
:1008E00009B4D9ABDEFAB0879CB9A3DDF12028307A
:1008F000389AF12830389DF1A3A3A3A3F2A3B490B2
:1009000080F2A3A3A3A3A3A3A3A3A3A3B2A3A3A37C
:10091000A3A3A3B087B599F128303898F1A3A3A376
:10092000A397A3A3A3A3F39BA330DCB9A7F1262627
:1009300026FED8FF0000000900030200000405089D
:100940000000000000000000000000010204081088
:1009500020408001020408102001020408102040F9
:10096000804004040404040404040202020202029B
:100970000303030303030202030000000023002615
:1009800000290000000000250028002B00000000C6
:1009900000240027002A00006B166D27032CC72FA8
:1009A00011241FBECFEFD8E0DEBFCDBF14E0A0E022
:1009B000B1E0EAEEF7E702C005900D92A635B10767
:1009C000D9F727E0A6E5B4E001C01D92A633B2072F
:1009D000E1F714E0C0EDD4E004C02197FE010E94CD
:1009E0003739CC3CD107C9F70E9467350C94F33BEB
:1009F0000C94000081E08093B90408950C94A63B08
:100A0000AF92BF92CF92EF920F93CF93DF9300D02C
:100A1000CDB7DEB75C010E94D31D6EE170E080E0CF
:100A200090E00E94F82C60E0C5010E94DA1D21E0F0
:100A300041E060E1C5010E94B61E66E0C5010E946A
:100A4000C11EC5010E94C71E40E150E0682F85E924
:100A500096E00E94633120E040E060E0C5010E9422
:100A6000B61E4FE760E0C5010E94941D60E0C5011D
:100A70000E94BE1D48E660E0C5010E94941DC501AC
:100A80000E94CC1D64E170E080E090E00E94F82CB0
:100A900063E0C5010E94E11D62E1C5010E949F1D46
:100AA00064E0C5010E944A1D61E0C5010E94501D1D
:100AB00063E0C5010E945B1D63E0C5010E94661DE5
:100AC000EE24E39400E020E049E857E06BEA71E0AF
:100AD000C5010E94BD1F882309F44BC0198284E020
:100AE0008A83C12C06E122E042E050E0BE016F5F44
:100AF0007F4FC5010E94D91E63E0C5010E94C81F37
:100B000060E0C5010E94CE1F60E0C5010E94531E37
:100B100062E0C5010E947C1D6CE9C5010E94881D30
:100B200060E5C5010E94821D60E0C5010E948E1D26
:100B300061E0C5010E94B71DC5010E94AF1E60E0C3
:100B4000C5010E94A81E8AE290E0F501928B818B7C
:100B5000C5010E94C51DC5010E94A51D80E00F9022
:100B60000F90DF91CF910F91EF90CF90BF90AF900A
:100B7000089581E0F4CFCF93DF93DB01FA01309742
:100B800019F4EC01EF85F889848D958D98278927D4
:100B9000982711969C938E9380A191A198278927DD
:100BA000982713969C938E93129784A195A19827CA
:100BB0008927982715969C938E93149780E0DF9150
:100BC000CF910895CF93DF93DB01FA01309719F4A9
:100BD000EC01EF85F88980819181982789279827F2
:100BE00011969C938E9384819581982789279827C5
:100BF00013969C938E9312978085918598278927C9
:100C0000982715969C938E9314978485958598279D
:100C10008927982717969C938E93169780E0DF91EB
:100C2000CF910895FF920F931F93CF93DF93CDB78A
:100C3000DEB728970FB6F894DEBF0FBECDBF8B018D
:100C4000BE016F5F7F4F0E94E205F82E81114CC0FC
:100C500069817A81072E000C880B990B0E940B3753
:100C600020E030E040E858E30E94EF37F80160836D
:100C70007183828393836B817C81072E000C880BA8
:100C8000990B0E940B3720E030E040E858E30E94C7
:100C9000EF37F80164837583868397836D817E8146
:100CA000072E000C880B990B0E940B3720E030E0D8
:100CB00040E858E30E94EF37F80160877187828728
:100CC00093876F817885072E000C880B990B0E9403
:100CD0000B3720E030E040E858E30E94EF37F8019E
:100CE00064877587868797878F2D28960FB6F89427
:100CF000DEBF0FBECDBFDF91CF911F910F91FF904F
:100D000008954F925F926F927F928F929F92AF92CF
:100D1000BF92CF92DF92EF92FF92CF93DF93CDB746
:100D2000DEB72A970FB6F894DEBF0FBECDBF7A8725
:100D30006987FA01C480D580E680F78044845584B1
:100D40006684778480809180A280B380808591853D
:100D5000A285B38589839A83AB83BC83A301920167
:100D6000C701B6010E94EF376D837E838F8398871A
:100D700029813A814B815C81C501B4010E94EF3722
:100D80009B01AC016D817E818F8198850E947D35AC
:100D90009B01AC010E947E35A985BA856D937D9338
:100DA0008D939C931397A5019401C701B6010E94EE
:100DB000EF376D837E838F83988729813A814B81BA
:100DC0005C81C301B2010E94EF379B01AC016D81D0
:100DD0007E818F8198850E947E359B01AC010E94A7
:100DE0007E35E985FA856483758386839783A501BB
:100DF0009401C501B4010E94EF374B015C01A701CA
:100E00009601C701B6010E94EF379B01AC01C501F5
:100E1000B4010E947D356B017C0129813A814B81AF
:100E20005C81CA01B9010E94EF379B01AC01C70187
:100E3000B6010E947D356B017C01A3019201C301C3
:100E4000B2010E94EF379B01AC01C701B6010E94BD
:100E50007E35A985BA8518966D937D938D939C9365
:100E60001B9780E02A960FB6F894DEBF0FBECDBF69
:100E7000DF91CF91FF90EF90DF90CF90BF90AF9038
:100E80009F908F907F906F905F904F9008952F92DA
:100E90003F924F925F926F927F928F929F92AF920A
:100EA000BF92CF92DF92EF92FF920F931F93CF9357
:100EB000DF9300D000D000D0CDB7DEB78B011A0190
:100EC0003E832D83FA01C080D180E280F380A701A8
:100ED0009601C701B6010E947E3569837A838B83B0
:100EE0009C83F10184809580A680B780A501940140
:100EF000C501B4010E947E352B013C0129813A8154
:100F00004B815C81C701B6010E94EF376B017C0108
:100F1000A3019201C501B4010E94EF379B01AC010E
:100F2000C701B6010E947E3520E030E040E85FE373
:100F30000E947D356B017C01F10120853185428560
:100F40005385C301B2010E94EF372B013C01F1012F
:100F5000248535854685578569817A818B819C8179
:100F60000E94EF379B01AC01C301B2010E947D35A5
:100F7000A70196010E94FD35F80160837183828389
:100F80009383ED81FE816481758186819781C08420
:100F9000D184E284F3849B01AC010E94EF374B01C2
:100FA0005C01A7019601C701B6010E94EF379B01C2
:100FB000AC01C501B4010E947E350E9462389B01DC
:100FC000AC01ED81FE8160817181828193810E94FB
:100FD000FD356B017C01F801C482D582E682F7827F
:100FE000ED81FE812085318542855385648175813F
:100FF000868197810E94FD35F8016087718782871D
:10100000938720E030E0A901ED81FE816085718544
:10101000828593850E945C3687FF16C020E030E011
:10102000A901C701B6010E94E237A701960118166F
:101030002CF56BED7FE089E490E40E947D35F801AA
:10104000648375838683978380E026960FB6F89431
:10105000DEBF0FBECDBFDF91CF911F910F91FF90EB
:10106000EF90DF90CF90BF90AF909F908F907F9048
:101070006F905F904F903F902F9008956BED7FE0C1
:1010800089E490ECDACFCF93DF93FC01DB01129679
:101090002C93129711965C934E93C281D3818881D1
:1010A00013969C911397892B888312968C91129793
:1010B000982F9D7F913031F4958113962C91139741
:1010C000922B95838150823028F4868113969C91CF
:1010D000892B8683809168009481892B8093680096
:1010E000DF91CF910895CF92DF92EF92FF920F930D
:1010F0001F93CF93DF938C01D62E7A01C22EFC0171
:10110000C085D1852097A1F587E090E00E947635D3
:10111000DC0111961C921E9212961C9212978FEF70
:10112000109781F11496DC9214971296CC92129734
:1011300016961C921E921597ED2DF0E0E55BF64F8A
:10114000E4911396EC931397F80180859185892B90
:1011500011F5B187A0872C2DA701BD01C8010E9400
:10116000430881E00FC08D819E81009769F2EC01F8
:101170008C818D11F8CF2C2DA701BE01C8010E94D2
:10118000430880E0DF91CF911F910F91FF90EF9086
:10119000DF90CF900895BE83AD83DDCF242FE82F5D
:1011A000F0E0EE59F64FE491EE23D9F061157105A8
:1011B000C1F0E250FF0BE330F10580F4EE0FFF1FAA
:1011C000E45EFB4F0190F081E02DA081B1819C9104
:1011D0009783AB01682FCF010C947308F0E0E0E037
:1011E000F4CF8FEF0895CF93DF9390E0FC01EE5999
:1011F000F64FE491EE2309F444C0E250FF0BB0E057
:10120000A0E0E330F10530F4EE0FFF1FE45EFB4F8A
:10121000A081B181855B964FFC0184911896CD9198
:10122000DC911997209769F19B8198132DC02FB7F6
:10123000F8941296ED91FC911397908180958923F3
:1012400080831296ED91FC9113978081811109C0E2
:101250009091680014968C911497809589238093BF
:10126000680015969C9115978B818095982315960B
:101270009C93159716969C911697892316968C9396
:101280002FBFDF91CF9108950D80DE81C02DCACF91
:10129000CF93DF938091B40590E0909360058093A5
:1012A0005F0582E896E00E94A42B96958795779536
:1012B000679560933305709334058093350590935B
:1012C0003605CFE5D5E088810E94F30842E050E082
:1012D0006FE679E08881DF91CF910C94CE080F936F
:1012E0001F93CF93DF938091B40590E090936005B6
:1012F00080935F0582E896E00E94A42B96958795DF
:101300007795679500913305109134052091350547
:1013100030913605601B710B820B930B6093370580
:10132000709338058093390590933A05CFE5D5E061
:1013300088810E94F30843E050E068E479E0888106
:10134000DF91CF911F910F910C94CE08FF920F93D4
:101350001F93CF93DF938C01D80117968C91179729
:101360002091B50515969C9115973091B505169667
:101370004C911697C091B505C095C4239323C92BF2
:101380008227FC2EF8228091B50517968C9317972B
:101390001896CD91DC912097B1F08B81982F9F21E9
:1013A00071F09091B505892391E009F490E0909354
:1013B000B3058C818093B405E881F98109950D808E
:1013C000DE81C02DE8CF9BB3F8018481982351F0D2
:1013D0009BB3892B8BBB0190F081E02D80818093A2
:1013E000B505BACFDF91CF911F910F91FF9008956E
:1013F0001F920F920FB60F9211242F933F934F938A
:101400005F936F937F938F939F93AF93BF93EF936C
:10141000FF93E091A905F091AA0580818093B5051D
:1014200089EA95E00E94A609FF91EF91BF91AF91E3
:101430009F918F917F916F915F914F913F912F91EC
:101440000F900FBE0F901F9018951F920F920FB61E
:101450000F9211242F933F934F935F936F937F933A
:101460008F939F93AF93BF93EF93FF93E0919F056B
:10147000F091A00580818093B5058FE995E00E94E9
:10148000A609FF91EF91BF91AF919F918F917F91AD
:101490006F915F914F913F912F910F900FBE0F90E1
:1014A0001F9018951F920F920FB60F9211242F9331
:1014B0003F934F935F936F937F938F939F93AF93DC
:1014C000BF93EF93FF93E0919505F091960580818E
:1014D0008093B50585E995E00E94A609FF91EF91FB
:1014E000BF91AF919F918F917F916F915F914F913C
:1014F0003F912F910F900FBE0F901F901895CF9294
:10150000DF92EF92FF920F931F930E94D32C0091D2
:101510007E0510917F0520918005309181056B013A
:101520007C01C01AD10AE20AF30A0091100110915D
:1015300011012091120130911301C016D106E2066B
:10154000F306B8F060937E0570937F058093800565
:101550009093810560917D0581E0682760937D050A
:101560008DE01F910F91FF90EF90DF90CF900C9442
:10157000DC2D1F910F91FF90EF90DF90CF90089599
:101580002F923F924F925F926F927F928F929F9293
:10159000AF92BF92CF92DF92EF92FF920F931F9381
:1015A000CF93DF93CDB7DEB768970FB6F894DEBF61
:1015B0000FBECDBF0E947F0A80912E05882311F4B3
:1015C0000C94521618E2812E0EE1702E8CE9682ED2
:1015D0009AE0992E8091B90481114FC1209128057C
:1015E0003091290580912A0590912B0528173907FC
:1015F00008F043C18091B904882341F082E895E066
:101600000E94001E90932905809328058CE00E947B
:101610000A2E90934405809343058FE00E94592D34
:101620009093500580934F05BC01990F880B990B3F
:101630001F921F921F928F92A8E0AA2EB12CC12C4C
:10164000D12CE12CF12C87012FEF33E040E050E06A
:101650000E94E1320E940B3720E030E040E251E48A
:101660000E94613660930C0170930D0180930E010E
:1016700090930F018EE00E94592D90934E05809318
:101680004D05BC01990F880B990B1F921F921F9259
:101690007F92B2E0AB2EB12CC12CD12C2FEF33E0D6
:1016A00040E050E00E94E1320E940B3720E030E041
:1016B00040E251E40E946136609308017093090191
:1016C00080930A0190930B0186E00E94592D0FB67A
:1016D000F894DEBF0FBECDBF893E33E0930714F010
:1016E00088EE93E08431910514F484E190E09093C6
:1016F0004C0580934B05BC01990F880B990B1F92E9
:101700001F921F921F92EEE1AE2EB12CC12CD12C54
:1017100018EEE12E13E0F12E00E010E024E130E0BD
:1017200040E050E00E94E132709356056093550509
:1017300087E00E94592D0F900F900F900F90893ED7
:10174000A3E09A0714F088EE93E08431910514F435
:1017500084E190E090934A0580934905BC01990F7C
:10176000880B990BBFEFBF93BF93BF936F9244E673
:10177000A42EB12CC12CD12C18EEE12E13E0F12EA9
:1017800000E010E024E130E040E050E00E94E1326F
:10179000969E9001979E300D11243093540520930E
:1017A000530580E10E94592D0F900F900F900F90DC
:1017B000893E23E0920714F088EE93E0843191058E
:1017C00014F484E190E09093480580934705BC01B0
:1017D000990F880B990B1F921F921F9234E63F932B
:1017E000A12CB12C650114E1E12EF12C00E010E0F8
:1017F00028EE33E040E050E00E94E132969E9001F6
:10180000979E300D1124309352052093510581E1AC
:101810000E94592D0F900F900F900F90893EA3E0DA
:101820009A0714F088EE93E08431910514F484E172
:1018300090E09093460580934505BC01990F880B75
:10184000990B1F921F921F92B4E6BF93A12CB12C4B
:10185000650114E1E12EF12C00E010E028EE33E008
:1018600040E050E00E94E13270930701609306016E
:101870000F900F900F900F90ADCE1092B90482E8A8
:1018800095E00E94A51D80932D0582E895E00E94B9
:10189000001E909329058093280520912A053091F8
:1018A0002B0582179307C0F020912D0524FD04C05D
:1018B0008115944008F40DC182E895E00E94C51D91
:1018C00086E090E00E94FE04882331F066E970E033
:1018D00085E996E00E946730409108015091090126
:1018E00060910A0170910B0180E994E00E94AC299B
:1018F00040910C0150910D0160910E0170910F010A
:1019000080E994E00E94E329409108015091090187
:1019100060910A0170910B0183E794E00E94AC2969
:1019200040910C0150910D0160910E0170910F01D9
:1019300083E794E00E94E32985E090E00E94FE04A2
:101940008823D1F060913705709138058091390571
:1019500090913A050E940B37AB01BC0186E594E0FB
:101960000E94772A86E594E00E94812B0E94D3365C
:1019700070933C0560933B056091D4047091D5044D
:10198000072E000C880B990B0E940B376B017C0112
:1019900020E030E044E353E46091C2047091C3045A
:1019A0008091C4049091C5040E94EF372BED3FE075
:1019B00049E450E40E94613620E030E04CE053E41A
:1019C0000E94EF379B01AC01C701B6010E947D3533
:1019D0000E94D3366B017093D5046093D404609158
:1019E000D2047091D304072E000C880B990B0E942F
:1019F0000B374B015C0120E030E044E353E460919D
:101A0000BE047091BF048091C0049091C1040E94F3
:101A1000EF372BED3FE049E450E40E94613620E0CF
:101A200030E04CE053E40E94EF379B01AC01C5016C
:101A3000B4010E947D350E94D3364B017093D304CC
:101A40006093D20489E090E00E94FE04823009F4A1
:101A50002EC108F083C0813009F4C9C0B601DD0C85
:101A6000880B990B0E940B37AB01BC0180E994E015
:101A70000E94772A80E994E00E94812B6093690597
:101A800070936A0580936B0590936C056091D20406
:101A90007091D304072E000C880B990B0E940B3712
:101AA000AB01BC0183E794E00E94772A83E794E0CE
:101AB0000E94812B6093650570936605809367058E
:101AC000909368056BE171E085E996E00E947930BA
:101AD00022C121FF01CF40912A0550912B05809111
:101AE0002805909129058417950708F4F5CE68EE2E
:101AF00074E082E895E00E941B1E80912805909179
:101B0000290520912A0530912B05821B930B909378
:101B100029058093280548EE54E062ED74E082E8E0
:101B200095E00E94BB0548EE54E068ED74E082E861
:101B300095E00E94120648ED54E066EC74E082E8FD
:101B400095E00E94810626EC34E048ED54E06AEB13
:101B500074E082E895E00E944707BDCF833009F426
:101B6000EEC7843009F07ACF66277727681979099C
:101B7000072E000C880B990B0E940B37AB01BC01A0
:101B800080E994E00E94772A80E994E00E94812B0A
:101B90006B017C0120E030E044E353E46091BE043B
:101BA0007091BF048091C0049091C1040E94EF37EE
:101BB0002BED3FE049E450E40E94613620E030E044
:101BC0004CE053E40E94EF379B01AC01C701B60122
:101BD0000E947D356093690570936A0580936B055B
:101BE00090936C056091D4047091D50441C0B40108
:101BF000990C880B990B0E940B37AB01BC0180E953
:101C000094E00E94772A80E994E00E94812B6B0186
:101C10007C0120E030E044E353E46091BE04709125
:101C2000BF048091C0049091C1040E94EF372BED56
:101C30003FE049E450E40E94613620E030E04CE0AF
:101C400053E40E94EF379B01AC01C701B6010E942B
:101C50007D356093690570936A0580936B05909359
:101C60006C056091D4047091D504719561957109EA
:101C7000072E000C880B990B0E940B37AB01BC019F
:101C800083E794E00E94772A83E794E00E94812B07
:101C90006B017C0120E030E044E353E46091C20436
:101CA0007091C3048091C4049091C504ABC7B60180
:101CB000DD0C880B990B0E940B37AB01BC0180E94E
:101CC00094E00E94772A80E994E00E94812B60933F
:101CD000690570936A0580936B0590936C0560911C
:101CE000D2047091D304072E000C880B990B0E942C
:101CF0000B37AB01BC0183E794E00E94772A83E7AE
:101D000094E00E94812B6093650570936605809333
:101D10006705909368056091690570916A058091E7
:101D20006B0590916C050E94D3361F921F92A7E01D
:101D3000AF93B0EDBF93A12CB12C6501E12C10E461
:101D4000F12E00E010E020E030EC4FEF5FEF0E945A
:101D5000E1320E940B376093690570936A058093A6
:101D60006B0590936C058EE090E00E94FE04682F56
:101D700070E090E080E01F921F9210E8912E9F92F9
:101D80001F92E12CF12C87012FEF30E040E050E072
:101D90000E94E1326D837E838F8398878EE090E08E
:101DA0000E94FE04682F70E090E080E01F921F9276
:101DB0009F921F922FEF30E040E050E00E94E1320E
:101DC000442455243201461A570A680A790A609158
:101DD00065057091660580916705909168050E9480
:101DE000D3361F921F9227E02F9330ED3F93ED8063
:101DF000FE800F811885A30192010E94E1320E94AA
:101E00000B379B01AC010E947E359B01AC0160E069
:101E100070E88BE395E40E947D35609365057093CF
:101E200066058093670590936805809106019091FF
:101E3000070164E670E0681B790B072E000C880B25
:101E4000990B0E940B3720E030E048EC52E40E94EE
:101E5000613669837A838B839C836091510570918D
:101E60005205660F771F072E000C880B990B0E94F6
:101E70000B376B017C0129813A814B815C810E9487
:101E8000EF374B015C010FB6F894DEBF0FBECDBF3C
:101E900020E030E0A9010E945C3687FDC8C620E042
:101EA00030E04AE754E4C501B4010E94E237181655
:101EB00034F4812C912CAAE7AA2EA4E4BA2EC501F1
:101EC000B4010E94D3367093420560934105298185
:101ED0003A814B815C8160E070E080E89FE30E9482
:101EE0007D352B013C01AC019B01C701B6010E946D
:101EF000EF376B017C0120E030E0A9010E945C36E5
:101F000087FD99C620E030E04AE754E4C701B601F6
:101F10000E94E237181634F4C12CD12CFAE7EF2EC8
:101F2000F4E4FF2EC701B6010E94D336709340053A
:101F300060933F0585E090E00E94FE04882309F449
:101F400041C00E94C72C603D77408105910508F48F
:101F500076C660913B0570913C05613DB7E07B071B
:101F600014F060ED77E0643823E0720714F464E85D
:101F700073E070933C0560933B05072E000C880BC3
:101F8000990B1F921F9223E02F9324E82F935CE775
:101F9000A52E5CEFB52ECC24CA94DC2C10EDE12EDE
:101FA00017E0F12E00E010E024E833E040E050E0DC
:101FB0000E94E13270933E0560933D050F900F90B3
:101FC0000F900F908091650590916605A09167052F
:101FD000B09168058D839E83AF83B8879C01AD0166
:101FE00060E070E08AEF94E40E947D359B01AC01D3
:101FF0000E94EF376D877E878F87988B8090690569
:1020000090906A05A0906B05B0906C05A5019401B5
:1020100060E070E08AEF94E40E947D359B01AC01A2
:102020000E94EF3769877A878B879C872D853E854D
:102030004F8558890E947E350E9462386B017C0171
:102040006091550570915605072E000C880B990B71
:102050000E940B3729813A814B815C810E94EF37C6
:1020600069837A838B839C836091530570915405B7
:10207000072E000C880B990B0E940B37698B7A8B0B
:102080008B8B9C8B60913D0570913E05072E000C5B
:10209000880B990B0E940B376D8B7E8B8F8B988FE3
:1020A00028EB36EC40EB54E4C701B6010E947D35C5
:1020B00029813A814B815C810E94EF3728EB36EC15
:1020C00040EB54E40E947E3529893A894B895C892A
:1020D0000E947E352D893E894F89588D0E947E351C
:1020E0006B017C0120E030E0A9010E945C3687FD95
:1020F000ABC520E030EC40E355E4C701B6010E94D7
:10210000E23718163CF4C12C40ECD42E40E3E42E08
:1021100045E4F42EC0927905D0927A05E0927B05D1
:10212000F0927C052D813E814F815885CA01B9010D
:102130000E94EF3729853A854B855C850E947E3564
:102140000E94623828EB36EC40EB54E40E947D3567
:1021500029813A814B815C810E94EF3728EB36EC74
:1021600040EB54E40E947E3529893A894B895C8989
:102170000E947E352D893E894F89588D0E947E357B
:102180006B017C0120E030E0A9010E945C3687FDF4
:102190005FC520E030EC40E355E4C701B6010E9482
:1021A000E23718163CF4C12C30ECD32E30E3E32E8A
:1021B00035E4F32EC0927505D0927605E09277054E
:1021C000F0927805A5019401C501B4010E94EF3792
:1021D0002D853E854F8558890E947E350E94623844
:1021E00060937105709372058093730590937405E5
:1021F0008AE090E00E94FE04682F70E090E080E0AA
:102200001F921F921F9224E12F93A12CB12C6501E4
:10221000E12CF12C8701EA9420E030E0A9010E9432
:10222000E1320E940B3720E030E040E251E40E94AE
:102230006136A30192010E94EF376B017C0160912E
:10224000550570915605072E000C880B990B0E94BE
:102250000B379B01AC01C701B6010E94EF376B0140
:102260007C0128EB36EC40EB54E4609171057091F1
:10227000720580917305909174050E947D359B01D4
:10228000AC01C701B6010E94EF3728EB36EC40EBFA
:1022900054E40E947E356B017C016091530570917E
:1022A0005405072E000C880B990B0E940B379B01DD
:1022B000AC01C701B6010E947E356B017C016091C3
:1022C0003D0570913E05072E000C880B990B0E946E
:1022D0000B379B01AC01C701B6010E947E356B0133
:1022E0007C010F900F900F900F9020E030E0A9013B
:1022F0000E945C3687FDB0C420E030EC40E355E43A
:10230000C701B6010E94E23718163CF4C12CB0ECAC
:10231000DB2EB0E3EB2EB5E4FB2EC0927105D0921C
:102320007205E0927305F0927405C0906505D09037
:102330006605E0906705F090680560916905709109
:102340006A0580916B0590916C059B01AC010E9420
:10235000EF374B015C01A7019601C701B6010E944E
:10236000EF379B01AC01C501B4010E947E350E948C
:10237000623860936D0570936E0580936F0590933E
:1023800070058AE090E00E94FE04682F70E090E003
:1023900080E01F921F921F9224E12F93A12CB12C59
:1023A0006501E12CF12C8701EA9420E030E0A901DD
:1023B0000E94E1320E940B3720E030E040E251E41D
:1023C0000E946136A30192010E94EF376B017C01EC
:1023D0006091550570915605072E000C880B990BDE
:1023E0000E940B379B01AC01C701B6010E94EF3779
:1023F0006B017C0128EB36EC40EB54E460916D05F9
:1024000070916E0580916F05909170050E947D35E9
:102410009B01AC01C701B6010E94EF3728EB36ECF7
:1024200040EB54E40E947E356B017C0160915305C2
:1024300070915405072E000C880B990B0E940B37E6
:102440009B01AC01C701B6010E947E356B017C0186
:1024500060913D0570913E05072E000C880B990B8D
:102460000E940B379B01AC01C701B6010E947E356B
:102470006B017C010F900F900F900F9020E030E0E7
:10248000A9010E945C3687FDEBC320E030EC40E3FD
:1024900055E4C701B6010E94E23718163CF4C12C7E
:1024A000F0ECDF2EF0E3EF2EF5E4FF2EC0926D0589
:1024B000D0926E05E0926F05F092700587E090E093
:1024C0000E94FE04882309F4CFC384EC99E0909322
:1024D0005E0580935D0584EF91E090935C058093A9
:1024E0005B0588E090E00E94FE04882309F4C5C3E0
:1024F00084EF91E090935A058093590584EC99E01C
:102500009093580580935705A0905B05B0905C05AB
:102510000B2C000CCC08DD086091790570917A05D0
:1025200080917B0590917C050E94D33620915D05BA
:1025300030915E058901330F220B330B3F932F93AC
:102540001F930F931CE0E12E1BE0F12E00E010E042
:1025500020E030E0A9010E94E1320E940B37609335
:10256000790570937A0580937B0590937C05A09004
:102570005D05B0905E050B2C000CCC08DD08609169
:1025800075057091760580917705909178050E9488
:10259000D33620915B0530915C058901330F220B06
:1025A000330B3F932F931F930F931CE0E12E1BE0FF
:1025B000F12E00E010E020E030E0A9010E94E132BD
:1025C0000E940B37609375057093760580937705AD
:1025D00090937805A0905905B0905A050B2C000CEB
:1025E000CC08DD08609171057091720580917305CA
:1025F000909174050E94D33620915705309158056B
:102600008901330F220B330B3F932F931F930F93AB
:102610001CE0E12E1BE0F12E00E010E020E030E0B5
:10262000A9010E94E1320E940B37609371057093FB
:1026300072058093730590937405A0905705B09030
:1026400058050B2C000CCC08DD0860916D057091CD
:102650006E0580916F05909170050E94D336209190
:10266000590530915A058901330F220B330B3F93E3
:102670002F931F930F931CE0E12E1BE0F12E00E03F
:1026800010E020E030E0A9010E94E1320E940B3707
:102690004B015C0180914105909142057C01A4E2CF
:1026A000EA1AAAEFFA0A0091790510917A05B09119
:1026B0007B05BD8320917C0529836CED75E0681B4B
:1026C000790B072E000C880B990B0E940B373B01EE
:1026D0006C010FB6F894DEBF0FBECDBF9B01AC01FD
:1026E000B8018D8199810E945C3687FDCFC2B70108
:1026F0000F2C000C880B990B0E940B371B012C012F
:102700009B01AC01B8018D8199810E94E2371816B6
:102710001CF481014D825982C801AD81B981809339
:10272000790590937A05A0937B05B0937C05009181
:10273000750510917605909177059D83A091780598
:10274000A9839301A601B801892F9A2F0E945C36B4
:1027500087FDA0C2B701FF0C880B990B0E940B37B5
:102760006B017C019B01AC01B8018D8199810E94B4
:10277000E23718161CF48601ED82F982C801AD819A
:10278000B9818093750590937605A0937705B093F2
:10279000780580913F05909140056C01B4E2CB1A19
:1027A000BAEFDB0A40907105509072056090730596
:1027B000709074056CED75E0681B790B072E000CAA
:1027C000880B990B0E940B377B018D8399839B01AA
:1027D000AC01B201C3010E945C3687FD5FC2B60145
:1027E0000D2C000C880B990B0E940B371B018C01E0
:1027F0009B01AC01B201C3010E94E237181614F428
:1028000021013801C201D3018093710590937205B3
:10281000A0937305B093740597014D815981B4015C
:10282000C5010E945C3687FD14C0B601DD0C880B23
:10283000990B0E940B377B018D8399839B01AC011F
:10284000B401C5010E94E23718161CF07401AD8274
:10285000B982C701AD81B98180936D0590936E05F2
:10286000A0936F05B093700588E391E00E94FE0489
:102870008D3E09F05BC00E94C72C0E940937209151
:1028800061053091620540916305509164050E9495
:102890007D3520E030E040EA50E40E94E23718162F
:1028A0000CF044C06091790570917A0580917B05A8
:1028B00090917C050E94D33686EB94E00E94101D17
:1028C00060917505709176058091770590917805F6
:1028D0000E94D33683EB94E00E94101D6091710535
:1028E0007091720580917305909174050E94D336A2
:1028F00080EB94E00E94101D60916D0570916E0553
:1029000080916F05909170050E94D3368DEA94E016
:102910000E94101D0E94C72C0E9409376093610518
:1029200070936205809363059093640580914305DD
:1029300090914405892BE1F461E084E00E94DC2D54
:1029400064EA76E086EB94E00E94101D64EA76E08B
:1029500083EB94E00E94101D64EA76E080EB94E043
:102960000E94101D64EA76E08DEA94E00E94101D3A
:1029700086E090E00E94FE04882309F493C168E396
:1029800071E085E996E00E945430609153057091A2
:1029900054054AE050E085E996E00E94243161E464
:1029A00071E085E996E00E94543060915505709180
:1029B00056054AE050E085E996E00E94243168E43B
:1029C00071E085E996E00E945430609106017091B3
:1029D00007014AE050E085E996E00E9424316EE468
:1029E00071E085E996E00E94543060915105709144
:1029F0005205660F771F660F771F4AE050E085E9A2
:102A000096E00E94243166E571E085E996E00E9437
:102A1000543040910C0150910D0160910E01709164
:102A20000F0122E030E085E996E00E9471326EE508
:102A300071E085E996E00E94543040910801509180
:102A4000090160910A0170910B0122E030E085E9F3
:102A500096E00E94713265E671E085E996E00E9499
:102A600054306091410570914205660F771F4AE02E
:102A700050E085E996E00E9424316EE671E085E938
:102A800096E00E94543060913F0570914005660FBA
:102A9000771F4AE050E085E996E00E94243167E71D
:102AA00071E085E996E00E945430409169055091AB
:102AB0006A0560916B0570916C0522E030E085E954
:102AC00096E00E9471326BE771E085E996E00E9422
:102AD000543040916505509166056091670570918D
:102AE000680522E030E085E996E00E9471326FE7E8
:102AF00071E085E996E00E94543060913D05709147
:102B00003E054AE050E085E996E068960FB6F894F5
:102B1000DEBF0FBECDBFDF91CF911F910F91FF9010
:102B2000EF90DF90CF90BF90AF909F908F907F906D
:102B30006F905F904F903F902F900C942B316627B1
:102B400077276C197D09072E000C880B990B0E94C2
:102B50000B37AB01BC0180E994E00E94772A80E941
:102B600094E00E94812B6B017C0120E030E044E383
:102B700053E46091C2047091C3048091C4049091A5
:102B8000C5040E94EF372BED3FE049E450E40E947A
:102B9000613620E030E04CE053E40E94EF379B01C7
:102BA000AC01C701B6010E947D3560936905709341
:102BB0006A0580936B0590936C056091D2047091C7
:102BC000D304719561957109072E000C880B990B40
:102BD0000E940B37AB01BC0183E794E00E94772A87
:102BE00083E794E00E94812B6B017C0120E030E0C0
:102BF00044E353E46091BE047091BF048091C0042B
:102C00009091C1040E94EF372BED3FE049E450E47E
:102C10000E94613620E030E04CE053E40E94EF3740
:102C20009B01AC01C701B6010E947D356CC8812CA7
:102C3000912C540144C9C12CD12C760173C9109236
:102C40003E0510923D05BEC9C12CD12C760162CA49
:102C5000C12CD12C7601AECAC12CD12C76015DCB12
:102C6000C12CD12C760122CC84EF91E090935E05AB
:102C700080935D0584EC99E030CC84EC99E09093EE
:102C80005A058093590584EF91E03ACC8301CD82B7
:102C9000D98242CD8301CD82D98270CD27016D804A
:102CA0007980B0CD68960FB6F894DEBF0FBECDBF69
:102CB000DF91CF911F910F91FF90EF90DF90CF9018
:102CC000BF90AF909F908F907F906F905F904F904C
:102CD0003F902F900895CF92DF92EF92FF920F9343
:102CE0001F93EDE7F9E085919491E9EAF5E091838E
:102CF00080838BE690E09383828381E084831582D6
:102D0000168211861086EFE7F9E085919491EFE93C
:102D1000F5E0918380838CE690E09383828382E068
:102D200084831582168211861086E1E8F9E0859188
:102D30009491E5E9F5E0918380838DE690E09383BB
:102D4000828384E08483158216821186108668E669
:102D500082E895E00E94471DE8EDF4E080E090E015
:102D6000A0E8BFE380839183A283B383148215829A
:102D7000168217821086118612861386148615868F
:102D800016861786E2EDF4E0118210821382128219
:102D900015821482E6ECF4E0108211821282138212
:102DA0001482158216821782108611861286138667
:102DB00086EB94E00E94761C83EB94E00E94761CE4
:102DC00080EB94E00E94761C8DEA94E00E94761CD1
:102DD000C12CD12C760100E010E020E83FE3B901DE
:102DE000A80180E994E00E940C2A00E010E020E8AD
:102DF0003FE3B901A80183E794E00E940C2A00E0B8
:102E000010E020E83FE3B901A80186E594E00E94C4
:102E10000C2A1F910F91FF90EF90DF90CF900895B3
:102E20008F929F92AF92BF92CF92DF92EF92FF92DA
:102E30000F931F93CF93DF93CDB7DEB72C970FB6C9
:102E4000F894DEBF0FBECDBF82E896E00E94872BCC
:102E500062E08CE00E94A02D60E080E10E94A02D45
:102E600060E081E10E94A02D60E082E10E94A02D3F
:102E700060E087E00E94A02D61E084E00E94A02D28
:102E800060E082E00E94A02D26E040E052EC61E08C
:102E900070E085E996E00E940D2F8CED95E00E9490
:102EA000D12640E85AE166E070E08CED95E00E94A2
:102EB000E32648EB5BE060E070E08CED95E00E947B
:102EC000B3320E94C72C6B017C010E94C72C6C1985
:102ED0007D098E099F09683E73408105910508F0C0
:102EE0008FC085E996E00E94332E892B71F34AE06A
:102EF00065E976E0CE0107960E94B932CE010796C9
:102F00000E94FE3468E871E0CE0101960E9495337C
:102F1000BE016F5F7F4FCE0107960E948D34182F40
:102F2000CE0101960E942333112309F412C12B858F
:102F30003C8547E050E0BE01695F7F4FCE010196BE
:102F40000E94B834BE016F5F7F4FCE0107960E948A
:102F5000F133CE0101960E942333F12CE12C8B85B5
:102F60009C85E816F90608F041C0A7016DE3CE0183
:102F700007960E949C348C01AC016CE2CE0107964E
:102F80000E949C346C01019611F4CB84DC8498017E
:102F9000A701BE01695F7F4FCE0101960E94B83440
:102FA000CE0101960E945B354B01CE0101960E9435
:102FB0002333A8014F5F5F4F9601BE01695F7F4FCA
:102FC000CE0101960E94B834CE0101960E945B3575
:102FD000162FCE0101960E942333612FC4010E9457
:102FE000AE3B76018FEFE81AF80AB9CF60E971E0DD
:102FF00085E996E00E947930CE0107960E9423333E
:1030000088E391E00E94FE048D3E61F080E593EC40
:10301000A0E0B0E08093100190931101A093120101
:10302000B093130165ED71E085E996E00E9454309C
:1030300022E030E04EEA57E461E070E485E996E092
:103040000E94713261E672E085E996E00E94543098
:103050004091100150911101609112017091130182
:103060002AE030E085E996E00E947B3185E996E030
:103070000E94633064EF71E085E996E00E94793048
:1030800067E072E085E996E00E94543085E090E0C8
:103090000E94FE0460E272E0811102C068E272E008
:1030A00085E996E00E94793061E372E085E996E077
:1030B0000E94543086E090E00E94FE0460E272E0DC
:1030C000811102C068E272E085E996E00E947930E1
:1030D00067E472E085E996E00E94543087E090E072
:1030E0000E94FE0460E272E0811102C068E272E0B8
:1030F00085E996E00E94793066E672E085E996E01F
:103100000E94543088E090E00E94FE0460E272E089
:10311000811102C068E272E085E996E00E94793090
:1031200062E872E085E996E00E94543089E090E020
:103130000E94FE046EEB72E0823009F49FC008F03A
:1031400094C066EB72E0813009F498C06BE171E0E5
:1031500095C06FE971E0CE0107960E944B34882339
:1031600009F47EC06BEA71E085E996E00E94543074
:1031700068EB71E085E996E00E94543085E090E0CC
:103180000E94FE044AE050E0682F85E996E00E9424
:103190005C316BEB71E085E996E00E94543086E08B
:1031A00090E00E94FE044AE050E0682F85E996E036
:1031B0000E945C316FEB71E085E996E00E9454302B
:1031C00087E090E00E94FE044AE050E0682F85E925
:1031D00096E00E945C3163EC71E085E996E00E9424
:1031E000543088E090E00E94FE044AE050E0682FEE
:1031F00085E996E00E945C3167EC71E085E996E034
:103200000E94543089E090E00E94FE044AE050E0C1
:10321000682F85E996E00E945C316BEC71E085E9EE
:1032200096E00E9454308AE090E00E94FE044AE05A
:1032300050E0682F85E996E00E945C3160ED71E016
:1032400085E996E00E9454308EE090E00E94FE04F2
:103250004AE050E0682F85E996E00E946331CCCEC9
:10326000CE0107960E94233330CE64EC72E08330A7
:1032700029F069EC72E0843009F068CF85E996E0C6
:103280000E9479306EEC72E085E996E00E9454303D
:103290008EE090E00E94FE04682F70E090E080E0F5
:1032A0001F921F9220E82F931F92A12CB12C650131
:1032B000E12CF12C87012FEF30E040E050E00E943C
:1032C000E132AB01BC012AE030E085E996E00E94E2
:1032D0003D3167EE72E085E996E00E9454308AE065
:1032E00090E00E94FE04682F70E090E080E01F9262
:1032F0001F921F9224E12F93E12CF12C8701EA9475
:1033000020E030E0A9010E94E1320E940B3720E06A
:1033100030E040E251E40E946136AB01BC0122E0A2
:1033200030E085E996E00E94733285E090E00E94EB
:10333000FE040FB6F894DEBF0FBECDBF882381F028
:1033400085E996E00E9463306AE073E085E996E0E3
:103350000E94793064E673E085E996E00E94793056
:1033600085E996E00E94633063EA73E085E996E0C0
:103370000E94793085E996E00E94633063ED73E046
:1033800085E996E00E94793085E996E00E946330F5
:1033900082E895E00E94EC1D86E090E00E94FE0429
:1033A000882331F06DE871E085E996E00E9467308E
:1033B00086E090E00E94FE04882371F082E895E0A8
:1033C0000E944B1E65E571E0882311F06FE671E005
:1033D00085E996E00E94673086E090E00E94FE0456
:1033E000882331F061E471E085E996E00E9467305E
:1033F00082E895E00E94000580932C056AEB7FEF40
:1034000082E895E00E94961E6DE970E082E895E002
:103410000E949C1E6CE170E082E895E00E94A21E72
:1034200064E77CEF82E895E00E945A1E68E97FEF2E
:1034300082E895E00E946E1E62E175E082E895E008
:103440000E94821E80912C05811179C166E082E87C
:1034500095E00E94E52266E082E895E00E947922EC
:1034600086E090E00E94FE04882331F061E371E081
:1034700085E996E00E94673061E082E895E00E946D
:10348000A81E86E090E00E94FE048823A1F067EF6A
:1034900070E085E996E00E9430304AE050E070E04C
:1034A00060E085E996E00E94243162EF70E085E9F2
:1034B00096E00E94673043E050E06AEF74E080E0FD
:1034C0000E940F2C82E895E00E94A51D80932D0597
:1034D00086E090E00E94FE04882331F068EC70E002
:1034E00085E996E00E94673081E080932E05809107
:1034F00093059091940590932B0580932A0585E080
:1035000090E00E94FE04882359F062E087E00E9468
:10351000A02D43E050E068E479E087E00E94CE0807
:1035200082E896E00E94A42B9695879577956795FB
:1035300060932F0570933005809331059093320589
:103540008FE00E94592D9093500580934F05BC0148
:10355000990F880B990B1F921F921F9228E22F93AD
:1035600038E0A32EB12CC12CD12CE12CF12C8701F9
:103570002FEF33E040E050E00E94E1320E940B3731
:1035800020E030E040E251E40E94613660930C019B
:1035900070930D0180930E0190930F018EE00E94B5
:1035A000592D90934E0580934D05BC01990F880BC2
:1035B000990B1F921F921F922EE12F9342E0A42E8F
:1035C000B12CC12CD12C2FEF33E040E050E00E9411
:1035D000E1320E940B3720E030E040E251E40E94EB
:1035E0006136609308017093090180930A019093FA
:1035F0000B0120910C0130910D0140910E01509171
:103600000F01E12CF12C870161E070E080E994E08A
:103610000E94402A409108015091090160910A01DD
:1036200070910B0180E994E00E94AC2920910C017B
:1036300030910D0140910E0150910F0161E070E059
:1036400083E794E00E94402A4091080150910901CB
:1036500060910A0170910B0183E794E00E94AC290C
:1036600085E090E00E94FE040FB6F894DEBF0FBE26
:10367000CDBF882391F020E030E040E050E461E0ED
:1036800070E086E594E00E94402A4DEC5CEC6CE42E
:103690007EE386E594E00E94AC2924EC39E040E921
:1036A00051E069E070E086EB94E00E94911C24EC0C
:1036B00039E040E951E066E070E083EB94E00E947D
:1036C000911C24EC39E040E951E065E070E080EBCA
:1036D00094E00E94911C24EC39E040E951E063E061
:1036E00070E08DEA94E00E94911C85E996E00E94CA
:1036F000633060E174E085E996E00E947930809162
:10370000C1008F778093C10061E08DE00E94A02D01
:1037100061E08DE00E94DC2D2C960FB6F894DEBFA0
:103720000FBECDBFDF91CF911F910F91FF90EF9012
:10373000DF90CF90BF90AF909F908F90089586E0DC
:1037400090E00E94FE04882309F4D9CE67EA70E075
:1037500085E996E00E9430304AE050E060912C0507
:1037600085E996E00E945C3165EA70E085E996E0C3
:103770000E946730C4CE1F920F920FB60F92112491
:103780002F933F934F935F936F937F938F939F9369
:10379000AF93BF93EF93FF938091B70587FF27C047
:1037A00010928500109284008091B7058F5F8093FE
:1037B000B7058091B705082E000C990B2091B6052E
:1037C0002817190629F024F08091B7058C30DCF118
:1037D0008091840090918500049680349C4908F47F
:1037E0007BC08091840090918500049677C0809181
:1037F000B705082E000C990B2091B605281719065D
:1038000099F294F2E091B7058E2FEE0F990BFC011F
:10381000EE0FFF1FE80FF91FE854FA4F808186FF73
:10382000C3CFE091B7058E2FEE0F990BFC01EE0F81
:10383000FF1FE80FF91FE854FA4F808160E08F7393
:103840000E94DC2DB1CF2091840030918500E09161
:10385000B7058E2FEE0F990BFC01EE0FFF1FE80F3F
:10386000F91FE854FA4F81819281820F931F909340
:10387000890080938800E091B7058E2FEE0F990B99
:10388000FC01EE0FFF1FE80FF91FE854FA4F80818B
:1038900086FF11C0E091B7058E2FEE0F990BFC014A
:1038A000EE0FFF1FE80FF91FE854FA4F808161E027
:1038B0008F730E94DC2DFF91EF91BF91AF919F918B
:1038C0008F917F916F915F914F913F912F910F90C9
:1038D0000FBE0F901F90189580E49CE9909389008B
:1038E000809388008FEF8093B705E5CFFC0190911E
:1038F000B6059C3098F481E0890F8093B6059083DB
:10390000892F90E0FC01EE0FFF1FE80FF91FE8542C
:10391000FA4F88EB9BE09283818308958FEF808339
:103920000895DF92EF92FF920F931F93CF93DF934F
:10393000EC01D62E7A01890188818C3008F067C0AD
:1039400061E08D2D0E94A02D8881282F30E0F901A3
:10395000EE0FFF1FE20FF31FE854FA4F9D2D9F73E8
:103960006081607C692B608320E232E02E193F0980
:1039700037FF02C02D5F3F4F359527953595279529
:10398000298320E639E0201B310B37FF02C02D5F71
:103990003F4F35952795359527952A832CE0622F43
:1039A0000E94D038829FB001112430E020E0AB01AA
:1039B000420F531FFA01EE0FFF1FE40FF51FE854EB
:1039C000FA4F908196FD16C02F5F3F4F2C30310586
:1039D00071F781110FC01092800082E08093810006
:1039E0001092850010928400B19A80916F008260DD
:1039F00080936F00E8818E2F90E0FC01EE0FFF1F97
:103A0000E80FF91FE854FA4F808180648083888131
:103A1000DF91CF911F910F91FF90EF90DF9008956C
:103A2000DC01EC91EC3090F511968C91119728E81F
:103A300030E0281B310987FD3395220F331F220FF9
:103A4000331F6217730784F012968C9128E532E0D9
:103A5000281B310987FD3395220F331F220F331F97
:103A6000621773070CF49B0122503109220F331F98
:103A70004FB7F8948E2F90E0FC01EE0FFF1FE80F78
:103A8000F91FE854FA4F328321834FBF0895FC0198
:103A900060830895462F69E1FC0180810C948023A6
:103AA0000F93062F23E045E06AE1FC0180810E942C
:103AB000F4240F9108950F93062F23E042E06AE16A
:103AC000FC0180810E94F4240F9108950F93062F2A
:103AD00022E044E06BE1FC0180810E94F4240F911C
:103AE00008950F93062F22E044E06CE1FC018081F1
:103AF0000E94F4240F910895462F6FE1FC0180810C
:103B00000C948023462F60E2FC0180810C9480237A
:103B1000462F61E2FC0180810C948023462F62E2F3
:103B2000FC0180810C948023FC01962F643030F4DA
:103B3000660F690F6B5D80810C9480230895462F7A
:103B400068E3FC0180810C948023CF93DF93EC0128
:103B50002091140130911501AC014F5F5F4F6AE372
:103B600088810E947C248981DF91CF910895262F3E
:103B700046E06AE6FC0180810C94C424262F45E0CF
:103B80006AE6FC0180810C94C42421E042E06AE6EC
:103B9000FC0180810C94C42421E041E06AE6FC0130
:103BA00080810C94C42421E047E06BE6FC01808115
:103BB0000C94C424262F46E06BE6FC0180810C9413
:103BC000C4240F93062F23E042E06BE6FC018081C2
:103BD0000E94F4240F910895CF93DF93EC0161E0EC
:103BE0000E94E11D60E0CE010E94661D60E0CE01F2
:103BF0000E94711D60E0CE01DF91CF910C94DA1D1F
:103C00000F931F93CF93DF93EC0100911401109158
:103C100015019C012F5F3F4F42E062E788810E94BF
:103C2000D72389819A81982789279827DF91CF9177
:103C30001F910F9108950F931F93442369F09B01E7
:103C4000FC01009114011091150164E780810E942C
:103C5000D7231F910F910895FB011082FACFEF92A5
:103C6000FF920F931F93CF93DF93EC01E090140129
:103C7000F09015018C010F5F1F4F26E046E065E7CD
:103C800088810E9486248981DF91CF911F910F91B5
:103C9000FF90EF9008950E942F1E91E0843309F069
:103CA00090E0892F0895262F40E060E0FC0180819C
:103CB0000C94C4240F931F93CF93DF93EC018B01DB
:103CC0000E942F1E67E7883308F466E0A801888108
:103CD000DF91CF911F910F910C94C5230F931F93E8
:103CE000CF93DF93EC018B010E942F1E6AE788338C
:103CF00008F468E0A8018881DF91CF911F910F91AE
:103D00000C94C5230F931F93CF93DF93EC018B018A
:103D10000E942F1E6DE7883308F46AE0A8018881AD
:103D2000DF91CF911F910F910C94C523AB0163E1FB
:103D3000FC0180810C94C523AB0165E1FC0180810D
:103D40000C94C523AB0167E1FC0180810C94C52371
:103D5000262F47E06AE6FC0180810C94C42421E010
:103D600043E06AE6FC0180810C94C4246F71211148
:103D7000606241116064462F6DE6FC0180810C9405
:103D80008023462F6EE6FC0180810C948023CF9324
:103D9000DF93EC012091140130911501AC014F5FCC
:103DA0005F4F6FE688810E947C248981DF91CF91EB
:103DB00008952F923F924F925F926F927F928F92CF
:103DC0009F92AF92BF92CF92DF92EF92FF920F93AA
:103DD0001F93CF93DF9300D000D01F92CDB7DEB7F3
:103DE0009D838C837B836A832A01222ED02EE982D5
:103DF00020E040E0622D0E94B61E602F8C819D81E4
:103E00000E94C11EE980912C812CEE2029F080E1D6
:103E100090E00E943D394C01B12CA12CCC2029F01E
:103E200080E190E00E943D395C01F12CE12CE4142A
:103E3000F50408F093C0C7014096342C3E1848168C
:103E4000590610F080E1382E80E091E08D1991093B
:103E50003816190619F014F03D2C3194CC2081F05D
:103E6000D50190E080E02A813B812E0D3F1D831516
:103E700058F4F901E80FF91FE491ED930196F7CF9B
:103E8000AA80BB80AE0CBF1C9501432D6FE6EC8170
:103E9000FD8180810E945123632C712CF981FF23C5
:103EA00009F445C08114910409F441C020E040E0C8
:103EB000622D8C819D810E94B61E6D2D8C819D810D
:103EC0000E94C11E00911401109115019401432D0F
:103ED0006FE6EC81FD8180810E94D723A301B401AC
:103EE000C5010E944F3B892B11F1C4010E94D939B1
:103EF000CC2021F0C5010E94D939C12C8C2D0F9006
:103F00000F900F900F900F90DF91CF911F910F9115
:103F1000FF90EF90DF90CF90BF90AF909F908F90E9
:103F20007F906F905F904F903F902F900895E60C98
:103F3000F71CD30CE414F50408F079CFD11001C0BC
:103F4000239420E040E0622D8C819D810E94B61E6A
:103F50006D2D8C819D810E94C11E69CFF981FF2347
:103F600019F0C4010E94D939CC2021F0C5010E946A
:103F7000D939C4CFCC24C394C1CFCF92EF920F9341
:103F8000CC24C3940E94D91E0F91EF90CF90089536
:103F9000462F60E7FC0180810C948023462F61E767
:103FA000FC0180810C9480232F923F924F925F926C
:103FB0006F927F928F929F92AF92BF92CF92DF9239
:103FC000EF92FF920F931F93CF93DF93CDB7DEB79E
:103FD000E7970FB6F894DEBF0FBECDBF998F888FDD
:103FE00069A32AA73BA74CA75DA7EEA6FFA608AB2F
:103FF00019AB6B3309F0E8C10E942F1E883308F417
:10400000E8C127E72F8B33E03C8F6EE385E996E02C
:104010000E94C02EFE013D96FE8BED8B9E012F5F10
:104020003F4F3B8F2A8F7F01DF8800911401109151
:1040300015019E012D5E3F4F41E06D2DA88DB98D7C
:104040008C910E943A25AB88BC88B5010B2C000CE2
:10405000880B990B0E940B37BF89B33109F4BEC19D
:10406000E1E0AE22BB24D701AD92BC9220E030E06B
:1040700040E051E40E94EF37EA8DFB8D608371834D
:1040800082839383BC8DDB0EE2E0EE0EF11C2A8D61
:104090003B8D2C5F3F4F3B8F2A8F8D899E898217E6
:1040A000930719F699A19B3309F0A6C18DEC9CECFE
:1040B000ACE4BDE38AAB9BABACABBDAB1DA21CA219
:1040C000AC2DB0E0BFABAEABEEA9FFA92CA13DA1DA
:1040D0002E173F070CF0ECC1312C212C1BA21AA289
:1040E000CE0101969E8F8D8FDE011D96BFA3AEA3DC
:1040F000BF89B8A7E9A1E9A718A21F8E812C912C2E
:10410000540100911401109115019E012D5E3F4F45
:1041100041E069A5A88DB98D8C910E943A256B89E3
:104120007C89072E000C880B990B0E940B376B01C2
:104130007C01B9A1BB3361F4EF8DF8A1329741F452
:1041400020E030E040E856E40E947D356B017C01C0
:104150002601370177FA709477F8709420E030E008
:10416000A901C701B6010E94E237181614F07301C5
:104170006201C501B4010E940937A70196010E949E
:104180007E350E94DA364B015C012FE632E143E8CE
:104190005AE3C301B2010E94EF372EA53FA548A9FB
:1041A00059A90E94EF37AD8DBE8D2D913D914D9156
:1041B0005C910E947E356B017C01ED8DFE8DC0828D
:1041C000D182E282F382A30192016AA57BA58CA52C
:1041D0009DA50E94EF37A70196010E947E35FF89B9
:1041E000F33109F413C120E030E040E05EE30E94C7
:1041F000EF376B017C0120E030E0A9010E94E2373B
:1042000020E030E040E05FE387FDFBC0C701B6017E
:104210000E947E350E94D3366E7FAEA1BFA18D91E4
:104220009C91682B792B7C8B6B8B9E012D5E3F4F75
:1042300041E068A5E88DF98D80810E9490232F8D43
:1042400038A12F5F3F4F38A32F8F39A53E5F39A785
:1042500088A59C8D890F88A7AEA1BFA11296BFA388
:10426000AEA3ED8DFE8D3496FE8FED8F2F8D38A190
:104270002330310509F045CF33E62316310471F4BC
:1042800089EE881683E09806A104B10438F06AE24A
:1042900085E996E00E94C02E312C212CC501B40185
:1042A0000E9409372AA93BA94CA95DA90E94EF37B2
:1042B00020E030E040EA50E40E945C3687FF05C011
:1042C000AAA1BBA11196BBA3AAA3B4E68B16910425
:1042D000A104B10408F0B9C0EBE02E1631040CF4CF
:1042E000B4C02AA13BA12A3031050CF4AEC06EE265
:1042F00085E996E00E94C02E20E030E040E45FE3D4
:104300006AA57BA58CA59DA50E94EF376AA77BA710
:104310008CA79DA720E030E040E45FE36EA57FA579
:1043200088A999A90E94EF376EA77FA788AB99ABA0
:10433000CE010D966C01FF88DE0111963D01D3017F
:104340006D917D918D919D913D01BF89B33109F4AE
:1043500090C020E030E040E05EE30E94EF374B0188
:104360005C0120E030E0A9010E94E23720E030E06B
:1043700040E05FE387FD78C0C501B4010E947E354F
:104380000E94D3366E7FF60180819181682B792B54
:104390007C8B6B8B9E012D5E3F4F41E06F2DA88D76
:1043A000B98D8C910E949023BC8DFB0EE2E0CE0E65
:1043B000D11C2A8D3B8D2615370509F68CA19DA1B0
:1043C00001969DA38CA380CE83E18F8B92E09C8F7E
:1043D0001CCEA6E0AF8BB2E0BC8F17CE20E030E061
:1043E00040E850E40E94EF37AA8DBB8D6D937D931A
:1043F0008D939C93139746CE80E090E0A0E8BFE3B6
:1044000059CEC701B6010E947D3504CF20E030E0CF
:1044100040E85EE30E94EF376B017C0120E030E072
:10442000A9010E94E23720E030E040E05FE387FD31
:1044300007C0C701B6010E947E350E94D336F3CE75
:10444000C701B6010E947D35F8CF61E070E080E0E1
:1044500090E00E94F82CBFEF2B1A3B0AE4E62E16E0
:10446000310409F03DCE43CFC501B4010E947D3532
:1044700087CF20E030E040E85EE30E94EF374B0159
:104480005C0120E030E0A9010E94E23720E030E04A
:1044900040E05FE387FD07C0C501B4010E947E359F
:1044A0000E94D33675CFC501B4010E947D35F8CF87
:1044B000888D998D0E94C51D888D998D0E94AF1E93
:1044C000E7960FB6F894DEBF0FBECDBFDF91CF9158
:1044D0001F910F91FF90EF90DF90CF90BF90AF9022
:1044E0009F908F907F906F905F904F903F902F9014
:1044F00008954F925F926F927F929F92AF92BF9278
:10450000CF92DF92EF92FF920F931F93CF93DF939F
:10451000EC01962E70E090E080E01F921F921F92B7
:104520001F9224E1A22EB12CC12CD12C15E0E12E3A
:10453000F12C00E010E021E030E040E050E00E948B
:10454000E13244E6C42ED12CE12CF12CA7019601D6
:10455000261B370B480B590BCA01B9010E940B37B8
:104560002AE037ED43E25CE30E94EF376B017C0108
:1045700020E030E044EB52E40E94EF372B013C0195
:104580002AE939E949E95EE3C701B6010E94EF373C
:104590009B01AC01C92C8301720163E4CE010E942E
:1045A000D41F0F900F900F900F90DF91CF911F911C
:1045B0000F91FF90EF90DF90CF90BF90AF909F90C2
:1045C0007F906F905F904F9008954F925F926F929F
:1045D0007F929F92AF92BF92CF92DF92EF92FF9223
:1045E0000F931F93CF93DF93EC01962E70E090E032
:1045F00080E01F921F921F921F9224E1A22EB12CE5
:10460000C12CD12C15E0E12EF12C00E010E021E0CE
:1046100030E040E050E00E94E13244E6C42ED12C6C
:10462000E12CF12CA7019601261B370B480B590BE7
:10463000CA01B9010E940B372AE037ED43E25CE37F
:104640000E94EF376B017C0120E030E040EA51E44A
:104650000E94EF372B013C012AE939E949E95EE381
:10466000C701B6010E94EF379B01AC01C92C830141
:1046700072016BE3CE010E94D41F0F900F900F9038
:104680000F90DF91CF911F910F91FF90EF90DF90EE
:10469000CF90BF90AF909F907F906F905F904F9022
:1046A0000895FF920F931F93CF93DF93C62F042F8C
:1046B000F22E132F682F8CED95E00E94E7266C2FC9
:1046C0008CED95E00E947526CF2DD12F0C0F1D2F5C
:1046D000111DC017D10731F069918CED95E00E9452
:1046E0007526F7CF8CED95E00E946A2791E0811145
:1046F00090E0892FDF91CF911F910F91FF90089546
:10470000CF93DF931F92CDB7DEB749839E012F5F12
:104710003F4F41E00E9451230F90DF91CF910895C8
:10472000FF920F931F93CF93DF93C62F042FF22E88
:10473000132F682F8CED95E00E94E7266C2F8CEDEF
:1047400095E00E947526CF2DD12F10E0101779F03B
:10475000698122968CED95E00E947526FE013297C4
:1047600060818CED95E00E9475261F5FEFCF8CED88
:1047700095E00E946A2791E0811190E0892FDF91F6
:10478000CF911F910F91FF900895CF93DF9300D0A9
:10479000CDB7DEB75A8349839E012F5F3F4F41E07B
:1047A0000E9490230F900F90DF91CF9108953F9238
:1047B0004F925F926F927F928F929F92AF92BF9231
:1047C000CF92DF92EF92FF920F931F93CF93DF93DD
:1047D00000D000D0CDB7DEB78C83D62E4B833A8382
:1047E00029830E94C72C4B015C01312CC12C2B81E9
:1047F000E22EF12C2801712C612C8B81381608F0E7
:1048000049C06C818CED95E00E94E7266D2D8CED02
:1048100095E00E9475268CED95E00E946A276C81D8
:104820008CED95E00E94E726A7014319510941321A
:10483000510514F040E250E06C818CED95E00E944F
:1048400067278CED95E00E941526892BD9F001157C
:10485000110569F48CED95E00E941C26E981FA812E
:10486000EC0DF11DC7FCFA958083C394EACF0E943A
:10487000C72C681979098A099B096415750586058D
:10488000970540F38E2D91E2E916F1040CF080E2D9
:10489000380EB3CF01151105C1F00E94C72C68195D
:1048A00079098A099B0930E020E0601771078207C7
:1048B000930758F08C2D0C2C000C990B2B8128178A
:1048C000190619F014F0CC24CA948C2D0F900F9077
:1048D0000F900F90DF91CF911F910F91FF90EF906C
:1048E000DF90CF90BF90AF909F908F907F906F9010
:1048F0005F904F903F9008950F931F9389019A0105
:1049000041E00E94D7231F910F910895CF92DF922B
:10491000EF92FF920F931F93CF93DF931F92CDB728
:10492000DEB7D42EC22E9701AE014F5F5F4F0E94BB
:104930007C248823F9F02D2D2C19330BA9014F5F0E
:104940005F4F21E030E002C0220F331FCA94E2F72C
:1049500021503109B901042E01C0660F0A94EAF70B
:104960002981262330E002C0359527954A95E2F744
:10497000F80120830F90DF91CF911F910F91FF904D
:10498000EF90DF90CF900895EF92FF920F931F93D7
:10499000CF93DF931F92CDB7DEB7182F062FE42EEB
:1049A000F22E2091140130911501AE014F5F5F4F3F
:1049B0000E947C2481E090E001C0880FEA94EAF72D
:1049C0004981FF2071F0482B4983602F812F0E947D
:1049D00080230F90DF91CF911F910F91FF90EF9067
:1049E000089580954823F0CFDF92EF92FF920F93C6
:1049F0001F93CF93DF931F92CDB7DEB7F82EE62E2D
:104A0000142FD22E2091140130911501AE014F5F69
:104A10005F4F0E947C24882359F1812F8D19990BB7
:104A2000AC014F5F5F4F81E090E002C0880F991F9B
:104A3000DA94E2F70197042E01C0880F0A94EAF78E
:104A400001C0000F4A95EAF7482F40959981492304
:104A50008023482B49836E2D8F2D0E9480230F9039
:104A6000DF91CF911F910F91FF90EF90DF9008950C
:104A700080E0F5CF2F923F924F925F926F927F929C
:104A80008F929F92AF92BF92CF92DF92EF92FF925E
:104A90000F931F93CF93DF93CDB7DEB729970FB650
:104AA000F894DEBF0FBECDBFC82E6D8349833F8310
:104AB0002E830E94C72C4B015C012981E22EF12C30
:104AC0001701220C331C220F2B83822D31E2231677
:104AD00031040CF080E28C831982D12C2801712CD6
:104AE000612C8981821513040CF069C06C2D8CED4A
:104AF00095E00E94E7266D818CED95E00E94752679
:104B00008CED95E00E946A276C2D8CED95E00E945B
:104B1000E7264B816C2D8CED95E00E94672791E094
:104B20009A838CED95E00E941526892B91F1ED2D4D
:104B30000D2C000CFF0BF987E887EE15FF054CF5EF
:104B400001151105D9F428853985220F331F8E816F
:104B50009F81280F391F398728879A81911122C098
:104B60008CED95E00E941C26E885F9852081318135
:104B7000822B932B91838083D3941CC00E94C72CDB
:104B8000681979098A099B096415750586059705D1
:104B9000D0F28CED95E00E946A27E981FC81EF0F4D
:104BA000E9839FCF8CED95E00E941C26E885F9856E
:104BB00010828183FA8121E0F227FA83B2CF0115B6
:104BC0001105B1F00E94C72C681979098A099B095F
:104BD00030E020E0601771078207930748F08D2DC1
:104BE0000D2C000C990B8E159F0514F4DD24DA941E
:104BF0008D2D29960FB6F894DEBF0FBECDBFDF9185
:104C0000CF911F910F91FF90EF90DF90CF90BF90C9
:104C1000AF909F908F907F906F905F904F903F905C
:104C20002F90089590E080E0089580911006909173
:104C30001106891B990B0895909111068091100619
:104C40002FEF3FEF981748F4E92FF0E0EE5EF94FB1
:104C5000208130E09F5F90931106C9010895E09193
:104C6000110680911006E81730F4F0E0EE5EF94F7F
:104C7000808190E008958FEF9FEF08950895CF937E
:104C8000DF93EC01E091E805F091E9053097F1F050
:104C900090911106809110069817C0F090E0292F8E
:104CA00030E02617370754F4DE01A20FB31F4C91F2
:104CB0002E5E394FD9014C939F5FF1CF10921106B0
:104CC00060931006CB01DF91CF910994DF91CF91D2
:104CD0000895E091EA05F091EB05309729F01092E4
:104CE000EE051092ED0509940895CF93DF931F927E
:104CF000CDB7DEB769832091EC052223F9F020912E
:104D0000ED05203258F021E030E0FC0133832283AE
:104D100090E080E00F90DF91CF9108958091EE05B3
:104D2000E82FF0E0E151FA4F998190838F5F8093F3
:104D3000EE058093ED0581E090E0ECCF61E0CE01DF
:104D400001960E943F28F7CFCF92DF92EF92FF9219
:104D50000F931F93CF93DF937C01CB018A012091A6
:104D6000EC05222389F0EB016B01C40ED51ECC1596
:104D7000DD0569F06991D701ED91FC910190F08119
:104D8000E02DC7010995F3CF642F0E943F28C80189
:104D9000DF91CF911F910F91FF90EF90DF90CF9017
:104DA000089510921106109210061092EE051092BE
:104DB000ED050E947E2789E696E20E946B288FE32C
:104DC00096E20C946628CB01BA010C949C2781E0F2
:104DD0008093EC0560930F061092EE051092ED059E
:104DE00008950F93062F21E04091ED056FEE75E0D9
:104DF00080910F060E94EF271092EE051092ED05AC
:104E00001092EC050F9108954F925F926F927F92EE
:104E1000AF92BF92CF92EF92FF920F931F93CF93D7
:104E2000DF935C01F62ED42F28013901EE2019F111
:104E30000E94E726CE2DC43008F0C3E0C150B8F080
:104E400028E0C29FC0011124A301920104C056951D
:104E50004795379527958A95D2F7B901D501ED91F8
:104E6000FC910190F081E02DC5010995E7CF60E04C
:104E7000C5010E94F1264D2FD13208F040E22C2DC1
:104E800062E176E08F2D0E94AF2710921106809389
:104E90001006DF91CF911F910F91FF90EF90CF906F
:104EA000BF90AF907F906F905F904F900895CF929A
:104EB000EF920F931F93C22EE12C00E010E09801B7
:104EC0000E9404271F910F91EF90CF90089521E049
:104ED0000C94572761E00C94F126ECEDF5E0138279
:104EE000128288EE93E0A0E0B0E084839583A683ED
:104EF000B78386E294E091838083089510928106BF
:104F000081E080937F0610927E0661E082E10E943C
:104F1000DC2D61E083E10E94DC2DE9EBF0E0808193
:104F20008E7F808380818D7F808388E48093B8002A
:104F300085E48093BC0008959B01AC0160E074E2BD
:104F400084EF90E00E94DC38205131094109510979
:104F500056954795379527952093B8000895413287
:104F6000E0F5909181069111FCCF91E0909381063C
:104F700020937F062FEF209332067093790660937B
:104F8000780610927706240F209376069093800679
:104F900090918006880F892B8093800680917E06F1
:104FA0008130C9F410927E06809180068093BB0008
:104FB0008091BC0083FDF8CF85EC8093BC0080918C
:104FC00081068130E1F380917706841710F44091D7
:104FD0007706842F089585EEF0CF40E0FACF0F9347
:104FE000413208F044C0909181069111FCCF92E0CB
:104FF0009093810600937F069FEF90933206709303
:1050000079066093780610927706409376061092A0
:10501000800690918006880F892B8093800680916E
:105020007E06813011F510927E0680918006809375
:10503000BB008091BC0083FDF8CF85EC8093BC0061
:10504000222321F0809181068230D1F380913206B3
:105050008F3F79F080913206803269F0809132067C
:10506000803359F084E00F91089585EEE7CF81E019
:10507000FACF80E0F8CF82E0F6CF83E0F4CF209142
:105080005406260F3327331F21323105ECF42091CB
:105090008106FC0190E080E0243069F082E0089510
:1050A000A09154062191AC014A5A594FA40FB52F33
:1050B000B11D2C930196861798F380915406680FC2
:1050C0006093540680E0089581E0089590937B06F4
:1050D00080937A06089590937D0680937C060895C8
:1050E00085ED8093BC008091BC0084FDFCCF1092C4
:1050F0008106089585EC8093BC0010928106089586
:105100001F920F920FB60F9211242F933F934F933C
:105110005F936F937F938F939F93AF93BF93EF931F
:10512000FF938091B900887F803609F44CC008F065
:105130003FC0883209F4A8C018F5803109F49CC03A
:10514000B8F4882309F405C1883009F495C0FF91AB
:10515000EF91BF91AF919F918F917F916F915F91EF
:105160004F913F912F910F900FBE0F901F90189568
:10517000883109F489C0803251F78093320615C016
:10518000803409F4A6C048F48033B9F38833F9F6C3
:10519000809332060E947A28DACF803509F489C0DC
:1051A000883509F49EC0883491F60E947028CFCFCC
:1051B000883909F494C038F5883729F050F48836D6
:1051C00011F0803721F683E0809381061092330638
:1051D00057C0883809F483C0803919F0803809F045
:1051E000B6CF80913306803208F079C0E091330663
:1051F00081E08E0F809333068091BB00F0E0EC5C81
:10520000F94F80833DC0803B39F0E0F4803A09F4E7
:1052100085C0883A09F09BCF84E080938106109284
:10522000550610925406E0917C06F0917D06099592
:105230008091540681110FC081E080935406109232
:10524000560609C0803C09F482C0883C09F47FC03E
:10525000883B09F07CCFE091550681E08E0F80936A
:105260005506F0E0EA5AF94F80818093BB00909197
:1052700055068091540631C0809180068093BB0012
:1052800085EC8093BC0063CF909177068091760681
:105290009817B8F58091780690917906E091770695
:1052A00021E02E0F20937706E80FF92FF11D808162
:1052B000E5CF2091780630917906E091770681E07C
:1052C0008E0F809377068091BB00E20FF32FF11DC4
:1052D00080839091770680917606981788F285E80A
:1052E000D0CF2091780630917906E091770681E061
:1052F0008E0F809377068091BB00E20FF32FF11D94
:10530000808380917F06811150CF81E080937E065B
:1053100084EA8093BC001092810619CF0E947A28FB
:1053200080913306803230F4E0913306F0E0EC5C9B
:10533000F94F10826091330670E0E0917A06F091A7
:105340007B0684E396E009951092330600CF85EC46
:10535000E0CF1092320629CFCF92DF92EF92FF92E8
:10536000CF93DF93EC016A017B012FE632E143E842
:105370005AE3CB01B6010E945C3687FD11C020E0E4
:1053800030E04AE754E4C701B6010E94E23718163C
:105390007CF4C12CD12C8AE7E82E84E4F82E08C0D6
:1053A0009FE6C92E92E1D92E93E8E92E9AE3F92ED1
:1053B000C88AD98AEA8AFB8ADF91CF91FF90EF9061
:1053C000DF90CF900895CF92DF92EF92FF92CF932C
:1053D000DF93EC016A017B0120E030E0A901CB0101
:1053E000B6010E94E237181624F0F7FAF094F7F8A5
:1053F000F0942BED3FE049EC50E4C701B6010E9468
:10540000EF376C8B7D8B8E8B9F8BDF91CF91FF90D5
:10541000EF90DF90CF9008958F929F92AF92BF92BE
:10542000CF92DF92EF92FF920F931F93CF93DF9370
:10543000EC014A015B01B901A801C882D982EA8264
:10544000FB821C821D821E821F82188E0E94AC2944
:10545000B501A401CE010E94E3290E94D32C698FDB
:105460007A8F8B8F9C8FDF91CF911F910F91FF903F
:10547000EF90DF90CF90BF90AF909F908F90089566
:10548000EF92FF920F931F93CF93DF93EC01FB01F9
:10549000CA01B901188EE882F9820A831B8330970A
:1054A000D1F42AE037ED43EA5FE30E94EF37AB0126
:1054B000BC01CE010E94E3298DE790EDA3E1BFE39B
:1054C000888B998BAA8BBB8BDF91CF911F910F910A
:1054D000FF90EF9008953197B9F7A901BC01CE0173
:1054E0000E94E32981E894E0A5E3BFE3E9CF2F928E
:1054F0003F924F925F926F927F928F929F92AF9264
:10550000BF92CF92DF92EF92FF920F931F93CF93B0
:10551000DF93CDB7DEB72A970FB6F894DEBF0FBE84
:10552000CDBF9A8789872A013B01DC011C964D92E9
:105530005D926D927C921F970E94D32C6B017C012F
:10554000E985FA85818D928DA38DB48DA701960191
:10555000281B390B4A0B5B0BCA01B9010E940B37A0
:105560002DEB37E346E855E30E94EF374B015C0132
:10557000A985BA855996CD92DD92ED92FC925C9701
:105580005496CD90DD90ED90FC90579720E030E060
:10559000A9010E945C3687FDAFC0A701960160E0BB
:1055A00070E080E89FE30E946136162F072F382EA7
:1055B000292E262F372F482F592FB401C5010E94BD
:1055C000E237181624F0182D092D3A2C2B2CA701A0
:1055D0009601C701B6010E94EF376D837E838F83EA
:1055E0009887E985FA8584809580A680B780208198
:1055F00031814281538129833A834B835C839B01B0
:10560000AC01C301B2010E94EF372B013C01E985D7
:10561000FA852089318942895389C701B6010E94E0
:105620006136A50194010E94EF379B01AC01C301D3
:10563000B2010E947D356B017C012D813E814F813D
:10564000588569817A818B819C810E94EF379B010B
:10565000AC01C701B6010E947D35212F302F432DAB
:10566000522D0E94EF37A50194010E947E356B01F7
:105670007C01AC019B01C501B4010E947E3520E094
:1056800030E040E05FE30E94EF37A985BA851896C5
:105690006D937D938D939C931B97212F302F432DDA
:1056A000522D0E94EF3729813A814B815C810E9403
:1056B0007E35E985FA856083718382839383C48212
:1056C000D582E682F7822A960FB6F894DEBF0FBE27
:1056D000CDBFDF91CF911F910F91FF90EF90DF90A1
:1056E000CF90BF90AF909F908F907F906F905F9082
:1056F0004F903F902F90089510E000E0312C212C26
:1057000066CFFC0160817181828193810895CF937E
:10571000DF93A0EBB0E02C91EC012887E1EBF0E007
:10572000208129878081887F82608083C0E7D0E0E4
:105730008881816088838C918C7F8C938081877F26
:105740008083DF91CF910895FC013FB7F8942091B9
:10575000B200B89B0EC02091B20080819181A281DD
:10576000B3810196A11DB11D80839183A283B38370
:10577000B89A80819181A281B381BA2FA92F982FE5
:105780008827820F911DA11DB11D84839583A68357
:10579000B7833FBF64817581868197810895FC013D
:1057A00040815181628173814F5F5F4F6F4F7F4FA7
:1057B000408351836283738308951F920F920FB6C3
:1057C0000F9211242F933F934F935F936F937F9387
:1057D0008F939F93AF93BF93EF93FF9382E896E0ED
:1057E0000E94CF2BFF91EF91BF91AF919F918F912D
:1057F0007F916F915F914F913F912F910F900FBECD
:105800000F901F901895E2E8F6E010821182128244
:1058100013821482158216821782089508958230A9
:10582000E8F4E82FF0E0EE0FFF1FEA5EFE4F718311
:105830006083813041F0809169008C7F482B4093D8
:105840006900E89A089580916900837F440F551F8D
:10585000440F551F482B40936900E99A08951F9201
:105860000F920FB60F9211242F933F934F935F9394
:105870006F937F938F939F93AF93BF93EF93FF9318
:10588000E0911601F09117010995FF91EF91BF91F9
:10589000AF919F918F917F916F915F914F913F91C8
:1058A0002F910F900FBE0F901F9018951F920F927F
:1058B0000FB60F9211242F933F934F935F936F93E3
:1058C0007F938F939F93AF93BF93EF93FF93E09159
:1058D0001801F09119010995FF91EF91BF91AF91D6
:1058E0009F918F917F916F915F914F913F912F91F8
:1058F0000F900FBE0F901F9018951F920F920FB62A
:105900000F9211242F933F938F939F93AF93BF9345
:105910008091910690919206A0919306B091940681
:105920003091900623E0230F2D3768F126E8230FEE
:105930000296A11DB11D209390068093910690932D
:105940009206A0939306B093940680918C06909152
:105950008D06A0918E06B0918F060196A11DB11DF6
:1059600080938C0690938D06A0938E06B0938F063D
:10597000BF91AF919F918F913F912F910F900FBE4B
:105980000F901F9018950196A11DB11DD4CF2FB770
:10599000F89460919106709192068091930690918F
:1059A00094062FBF08953FB7F89480918C0690918C
:1059B0008D06A0918E06B0918F0626B5A89B05C0D6
:1059C0002F3F19F00196A11DB11D3FBFBA2FA92F7E
:1059D000982F8827BC01CD01620F711D811D911D7B
:1059E00042E0660F771F881F991F4A95D1F70895E7
:1059F0008F929F92AF92BF92CF92DF92EF92FF92DF
:105A00006B017C010E94D32C4B015C01C114D104B9
:105A1000E104F104E9F00E947C350E94D32C68195E
:105A200079098A099B09683E73408105910570F3E5
:105A300021E0C21AD108E108F10888EE880E83E05F
:105A4000981EA11CB11CC114D104E104F10429F772
:105A5000FF90EF90DF90CF90BF90AF909F908F908E
:105A60000895789484B5836084BD85B5836085BDD1
:105A7000EEE6F0E0808181608083E1E8F0E082E0A2
:105A80008083808181608083E0E8F0E080818160B4
:105A90008083E1EBF0E0808184608083E0EBF0E0E4
:105AA00080818160808387E880937A001092C100B2
:105AB0000895883020F08D3008F48DE08E502091CC
:105AC0001A0190E4299F900111248770822B809302
:105AD0007C0080917A00806480937A0080917A00C3
