:100000000C946A000C9492000C9492000C944B0295
:100010000C9478020C94A5020C9492000C9492001B
:100020000C9492000C940F150C9492000C945211A5
:100030000C9492000C9492000C9492000C949200F8
:100040000C94DF1A0C9492000C948E1D0C94C01D1D
:100050000C9492000C9492000C9492000C949200D8
:100060000C9412190C949200000000090003020085
:10007000000405080000000000000000000000016E
:10008000020408102040800102040810200102042C
:100090000810204080400404040404040404020204
:1000A000020202020303030303030202030000002F
:1000B0000023002600290000000000250028002B56
:1000C0000000000000240027002A00004A0D35151A
:1000D000FF17F01D11241FBECFEFD8E0DEBFCDBF4C
:1000E00013E0A0E0B1E0EAE3F2E502C005900D9272
:1000F000AA3EB107D9F726E0AAEEB3E001C01D92EF
:10010000A236B207E1F710E0CAE6D0E004C02197BA
:10011000FE010E945D26C636D107C9F70E94422320
:100120000C941B290C9400000C94CE28CF93DF93E1
:10013000FC01DB0112962C93129711965C934E935F
:10014000C281D381888113969C911397892B8883D0
:1001500012968C911297982F9D7F913031F4958152
:1001600013962C911397922B95838150823028F40B
:10017000868113969C91892B868380916800948157
:10018000892B80936800DF91CF910895CF92DF9201
:10019000EF92FF920F931F93CF93DF938C01D62E94
:1001A0007A01C22EFC01C085D1852097A1F587E098
:1001B00090E00E945123DC0111961C921E9212962F
:1001C0001C9212978FEF109781F11496DC9214977E
:1001D0001296CC92129716961C921E921597ED2DA0
:1001E000F0E0E158FF4FE4911396EC931397F80178
:1001F00080859185892B11F5B187A0872C2DA701CA
:10020000BD01C8010E94960081E00FC08D819E81D2
:10021000009769F2EC018C818D11F8CF2C2DA7018C
:10022000BE01C8010E94960080E0DF91CF911F912E
:100230000F91FF90EF90DF90CF900895BE83AD8334
:10024000DDCF242FE82FF0E0EA56FF4FE491EE23B4
:10025000D9F061157105C1F0E250FF0BE330F105F3
:1002600080F4EE0FFF1FEF54FC4F0190F081E02D62
:10027000A081B1819C919783AB01682FCF010C9431
:10028000C600F0E0E0E0F4CF8FEF0895CF93DF9366
:1002900090E0FC01EA56FF4FE491EE2309F444C0DC
:1002A000E250FF0BB0E0A0E0E330F10530F4EE0FD8
:1002B000FF1FEF54FC4FA081B18181589F4FFC017B
:1002C00084911896CD91DC911997209769F19B81C3
:1002D00098132DC02FB7F8941296ED91FC911397B7
:1002E00090818095892380831296ED91FC911397DC
:1002F0008081811109C09091680014968C911497A7
:10030000809589238093680015969C9115978B8121
:100310008095982315969C93159716969C91169701
:10032000892316968C932FBFDF91CF9108950D806E
:10033000DE81C02DCACFCF93DF938091E00490E09F
:100340009093B2048093B10488E095E00E94D614A3
:10035000969587957795679560936104709362048D
:100360008093630490936404C1EBD4E088810E947D
:10037000460142E050E062EC71E08881DF91CF916C
:100380000C9421010F931F93CF93DF938091E0048E
:1003900090E09093B2048093B10488E095E00E94CD
:1003A000D61496958795779567950091610410917D
:1003B00062042091630430916404601B710B820B12
:1003C000930B609365047093660480936704909325
:1003D0006804C1EBD4E088810E94460143E050E00C
:1003E0006BE971E08881DF91CF911F910F910C949F
:1003F0002101FF920F931F93CF93DF938C01D801BC
:1004000017968C9117972091E10415969C9115975A
:100410003091E10416964C911697C091E104C09575
:10042000C4239323C92B8227FC2EF8228091E10458
:1004300017968C9317971896CD91DC912097B1F071
:100440008B81982F9F2171F09091E104892391E095
:1004500009F490E09093DF048C818093E004E881BC
:10046000F98109950D80DE81C02DE8CF9BB3F8019D
:100470008481982351F09BB3892B8BBB0190F08131
:10048000E02D80818093E104BACFDF91CF911F915D
:100490000F91FF9008951F920F920FB60F921124A3
:1004A0002F933F934F935F936F937F938F939F937C
:1004B000AF93BF93EF93FF93E091D504F091D604EF
:1004C00080818093E10485ED94E00E94F901FF9121
:1004D000EF91BF91AF919F918F917F916F915F91BC
:1004E0004F913F912F910F900FBE0F901F90189535
:1004F0001F920F920FB60F9211242F933F934F9399
:100500005F936F937F938F939F93AF93BF93EF937B
:10051000FF93E091CB04F091CC0480818093E104BF
:100520008BEC94E00E94F901FF91EF91BF91AF91A4
:100530009F918F917F916F915F914F913F912F91FB
:100540000F900FBE0F901F9018951F920F920FB62D
:100550000F9211242F933F934F935F936F937F9349
:100560008F939F93AF93BF93EF93FF93E091C10459
:10057000F091C20480818093E10481EC94E00E94B8
:10058000F901FF91EF91BF91AF919F918F917F9171
:100590006F915F914F913F912F910F900FBE0F90F0
:1005A0001F901895CF92DF92EF92FF920F931F93B7
:1005B0000E94351B00915D0410915E0420915F0440
:1005C000309160046B017C01C01AD10AE20AF30A7F
:1005D0000091060110910701209108013091090155
:1005E000C016D106E206F306B8F060935D0470937E
:1005F0005E0480935F049093600460915C0481E0EA
:10060000682760935C048DE01F910F91FF90EF903D
:10061000DF90CF900C94051C1F910F91FF90EF90ED
:10062000DF90CF9008952F923F924F925F926F92FA
:100630007F928F929F92AF92BF92CF92DF92EF9272
:10064000FF920F931F93CF93DF93CDB7DEB76497DD
:100650000FB6F894DEBF0FBECDBF0E94D2028CE071
:100660000E94331C90939E0480939D048FE00E940F
:10067000821B9093AA048093A904BC01990F880B54
:10068000990B1F921F921F922CE82F93A12CB12C33
:100690006501E12CF12C87012FEF33E040E050E0C1
:1006A0000E94BC200E9473246B017C010F900F906C
:1006B0000F900F9020E030E040E251E40E94C4230C
:1006C00087FDE0C120E030E040E752E4C701B60119
:1006D0000E942325181634F4C12CD12C80E7E82E73
:1006E00082E4F82E20E030E040E251E4C701B60198
:1006F0000E94C92360930E0170930F018093100133
:10070000909311018EE00E94821B9093A804809325
:10071000A704BC01990F880B990B1F921F921F927F
:100720001F9218E2A12EB12CC12CD12CE12CF12C5E
:1007300087012FEF33E040E050E00E94BC200E9490
:1007400073246B017C010F900F900F900F9020E0AD
:1007500030E040E050E40E94C42387FD9AC120E0CD
:1007600030E040E252E4C701B6010E94232518168A
:1007700034F4C12CD12CB0E2EB2EB2E4FB2E20E0FD
:1007800030E040E251E4C701B6010E94C923609302
:100790000A0170930B0180930C0190930D0186E088
:1007A0000E94821B893E23E0920714F088EE93E0BA
:1007B0008431910514F484E190E09093A604809331
:1007C000A504BC01990F880B990B1F921F921F92D1
:1007D0001F92E8E7AE2EB12CC12CD12C18EEE12EE1
:1007E00013E0F12E00E010E024E130E040E050E0C2
:1007F0000E94BC200E94732420E030E040E251E4DB
:100800000E94C923609371047093720480937304EF
:100810009093740487E00E94821B0F900F900F90BA
:100820000F90893E33E0930714F088EE93E0843113
:10083000910514F484E190E09093A4048093A304C0
:10084000BC01990F880B990B2FEF2F932F932F93A8
:100850002CE92F9344E6A42EB12CC12CD12C18EEF8
:10086000E12E13E0F12E00E010E024E130E040E062
:1008700050E00E94BC202AE0269FA001279F500D37
:1008800011245093B0044093AF0480E10E94821B76
:100890000F900F900F900F90893EA3E09A0714F0ED
:1008A00088EE93E08431910514F484E190E0909314
:1008B000A2048093A104BC01990F880B990B1F928D
:1008C0001F921F9224E62F93A12CB12C650114E1F5
:1008D000E12EF12C00E010E028EE33E040E050E0A3
:1008E0000E94BC200F900F900F900F9065367105FD
:1008F00014F064E670E06A30710514F46AE070E0A8
:100900002AE0269FC001279F900D11249093AC04EC
:100910008093AB0481E10E94821B893EB3E09B0778
:1009200014F088EE93E08431910514F484E190E0B2
:100930009093A00480939F04BC01990F880B990B9E
:100940001F921F921F9224E62F93A12CB12C6501B8
:1009500014E1E12EF12C00E010E028EE33E040E05D
:1009600050E00E94BC200F900F900F900F906135C7
:10097000710514F060E570E06431710514F464E110
:1009800070E070931301609312010DE8C02E04E033
:10099000D02E8FE8E82E84E0F82E01E914E023E958
:1009A00034E045E954E067E974E08DE494E00E94A6
:1009B000571A40910A0150910B0160910C017091FE
:1009C0000D0187E094E00E94DE1226E636E646E658
:1009D0005FE360910E0170910F0180911001909181
:1009E00011010E942825AB01BC0187E094E00E9420
:1009F000151340910A0150910B0160910C01709107
:100A00000D018AEE93E00E94DE1240910E0150919A
:100A10000F0160911001709111018AEE93E00E9424
:100A2000151385E090E00E9494008823D1F0609136
:100A300065047091660480916704909168040E9437
:100A40007324AB01BC0184E294E00E94A91384E208
:100A500094E00E94B3140E943B247093B804609306
:100A6000B70489E090E00E949400823009F41AC72C
:100A7000B0F48130F1F167E171E081EC95E00E9422
:100A80006C1E6BC0C12CD12C00E2E02E01E4F02ED4
:100A900029CEC12CD12CE12CA0E4FA2E70CE8330CB
:100AA00009F437C7843039F760919104709192044A
:100AB000719561957109072E000C880B990B0E94A6
:100AC0007324AB01BC0187E094E00E94A91387E086
:100AD00094E00E94B3140E943B247093B40460938A
:100AE000B30460918F0470919004719561957109C0
:100AF0001EC06091910470919204072E000C880B27
:100B0000990B0E947324AB01BC0187E094E00E9422
:100B1000A91387E094E00E94B3140E943B247093D1
:100B2000B4046093B30460918F0470919004072E15
:100B3000000C880B990B0E947324AB01BC018AEE58
:100B400093E00E94A9138AEE93E00E94B3140E94DE
:100B50003B247093B6046093B5046091B504709122
:100B6000B604072E000C880B990B1F921F92E7E02A
:100B7000EF9320ED2F93A12CB12C650110EDE12E08
:100B80001AE8F12E0FEF1FEF20E335E740E050E0C9
:100B90000E94BC200E9473246093790470937A04AD
:100BA00080937B0490937C048EE090E00E949400FC
:100BB000682F70E090E080E01F92B2E08B2E8F9261
:100BC00011E7912E9F921F92E12CF12C87012FEFBC
:100BD00030E040E050E00E94BC202B013C018EE060
:100BE00090E00E949400682F70E090E080E01F92F7
:100BF0008F929F921F922FEF30E040E050E00E94D2
:100C0000BC209B01AC01EE24FF248701E418F50809
:100C1000060917096091B3047091B404072E000C03
:100C2000880B990B1F921F92A7E0AF93B0EDBF9373
:100C30000E94BC200E947324609375047093760414
:100C400080937704909378040E94291B0FB6F89440
:100C5000DEBF0FBECDBF603D77408105910508F036
:100C600090C61092AE041092AD0485E090E00E9410
:100C70009400811104C01092AE041092AD048090D3
:100C8000750490907604A0907704B0907804A50144
:100C90009401C501B4010E9428256D837E838F8352
:100CA00098874090790450907A0460907B0470900B
:100CB0007C04A301920160E070E08AEF94E40E945A
:100CC00057239B01AC010E94282569837A838B837B
:100CD0009C832D813E814F8158850E9458230E941C
:100CE0009B256B017C018091710490917204A0910D
:100CF0007304B091740489879A87AB87BC8760912D
:100D0000AF047091B004072E000C880B990B0E9461
:100D100073246D877E878F87988B6091AD04709167
:100D2000AE04072E000C880B990B0E947324698B6C
:100D30007A8B8B8B9C8B28EB36EC40EB54E4C70111
:100D4000B6010E94572329853A854B855C850E9410
:100D5000282528EB36EC40EB54E40E9458232D85DF
:100D60003E854F8558890E94582329893A894B89A5
:100D70005C890E9458236B017C0120E030E0A901CE
:100D80000E94C42387FD37C620E030EC40E355E4E1
:100D9000C701B6010E94232518163CF4C12C60EC53
:100DA000D62E60E3E62E65E4F62EC0928904D0923A
:100DB0008A04E0928B04F0928C04A501940160E017
:100DC00070E08AEF94E40E9457239B01AC010E94DB
:100DD000282529813A814B815C810E9458230E94F9
:100DE0009B2528EB36EC40EB54E40E9457232985E1
:100DF0003A854B855C850E94282528EB36EC40EB34
:100E000054E40E9458232D853E854F8558890E94C1
:100E1000582329893A894B895C890E9458236B01A0
:100E20007C0120E030E0A9010E94C42387FDE7C5D2
:100E300020E030EC40E355E4C701B6010E942325D1
:100E400018163CF4C12C50ECD52E50E3E52E55E499
:100E5000F52EC0928504D0928604E0928704F09229
:100E60008804A3019201C301B2010E9428252D81AB
:100E70003E814F8158850E9458230E949B25609394
:100E800081047093820480938304909384048AE0A5
:100E900090E00E949400682F70E090E080E01F9244
:100EA0001F921F9224E12F93A12CB12C6501E12CFC
:100EB000F12C8701EA9420E030E0A9010E94BC20D7
:100EC0000E94732420E030E040E251E40E94C923F4
:100ED0002091710430917204409173045091740414
:100EE0000E9428256B017C0128EB36EC40EB54E492
:100EF00060918104709182048091830490918404B4
:100F00000E9457239B01AC01C701B6010E9428250E
:100F100028EB36EC40EB54E40E9458236B017C0133
:100F20006091AF047091B004072E000C880B990BF0
:100F30000E9473249B01AC01C701B6010E94582393
:100F40006B017C016091AD047091AE04072E000C22
:100F5000880B990B0E9473249B01AC01C701B60159
:100F60000E9458236B017C010F900F900F900F90FF
:100F700020E030E0A9010E94C42387FD44C520E0A1
:100F800030EC40E355E4C701B6010E942325181652
:100F90003CF4C12C30ECD32E30E3E32E35E4F32EB9
:100FA000C0928104D0928204E0928304F09284047F
:100FB0002091750430917604409177045091780423
:100FC00060E070E08AEF94E40E945723C0907904B7
:100FD000D0907A04E0907B04F0907C049B01AC01FB
:100FE0000E9428254B015C01A7019601C701B601AB
:100FF0000E9428259B01AC01C501B4010E94582321
:101000000E949B2560937D0470937E0480937F04EF
:10101000909380048AE090E00E949400682F70E032
:1010200090E080E01F921F921F9224E12F93A12C49
:10103000B12C6501E12CF12C8701EA9420E030E02D
:10104000A9010E94BC200E94732420E030E040E20D
:1010500051E40E94C923209171043091720440919F
:101060007304509174040E9428256B017C0128EBC5
:1010700036EC40EB54E460917D0470917E048091E5
:101080007F04909180040E9457239B01AC01C7010B
:10109000B6010E94282528EB36EC40EB54E40E9470
:1010A00058236B017C016091AF047091B004072E4E
:1010B000000C880B990B0E9473249B01AC01C701A3
:1010C000B6010E9458236B017C016091AD047091C0
:1010D000AE04072E000C880B990B0E9473249B0111
:1010E000AC01C701B6010E9458236B017C010F902F
:1010F0000F900F900F9020E030E0A9010E94C423D0
:1011000087FD85C420E030EC40E355E4C701B6011B
:101110000E94232518163CF4C12C10ECD12E10E3AC
:10112000E12E15E4F12EC0927D04D0927E04E0926F
:101130007F04F0928004809112019091130164E683
:1011400070E0681B790B072E000C880B990B0E942E
:10115000732420E030E048EC52E40E94C9234B01A4
:101160005C016091AB047091AC04660F771F072E91
:10117000000C880B990B0E9473242B013C01A501E4
:1011800094010E9428256B017C0120E030E0A90138
:101190000E94C42387FD3FC420E030E04AE754E4C6
:1011A000C701B6010E942325181634F4C12CD12C96
:1011B000AAE7EA2EA4E4FA2EC701B6010E943B2456
:1011C00070939C0460939B04A501940160E070E01F
:1011D00080E89FE30E945723A30192010E942825E3
:1011E0006B017C0120E030E0A9010E94C42387FD4F
:1011F00016C420E030E04AE754E4C701B6010E947B
:101200002325181634F4C12CD12CFAE7EF2EF4E480
:10121000FF2EC701B6010E943B2470939A0460938D
:10122000990487E090E00E949400882309F4FBC3AE
:1012300084EC99E09093C0048093BF0484EF91E024
:101240009093BE048093BD0488E090E00E949400D7
:10125000882309F4F1C384EC99E09093BC04809353
:10126000BB0484EF91E09093BA048093B904A090FA
:10127000BF04B090C0040B2C000CCC08DD086091BA
:10128000890470918A0480918B0490918C040E944F
:101290003B242091BD043091BE048901330F220B01
:1012A000330B3F932F931F930F931CE0E12E1BE012
:1012B000F12E00E010E020E030E0A9010E94BC2007
:1012C0000E9473246093890470938A0480938B0432
:1012D00090938C04A090BD04B090BE040B2C000C25
:1012E000CC08DD08609185047091860480918704A4
:1012F000909188040E943B242091BF043091C00447
:101300008901330F220B330B3F932F931F930F93BE
:101310001CE0E12E1BE0F12E00E010E020E030E0C8
:10132000A9010E94BC200E947324609385047093DD
:1013300086048093870490938804A090BB04B090A7
:10134000BC040B2C000CCC08DD086091810470916A
:10135000820480918304909184040E943B24209114
:10136000B9043091BA048901330F220B330B3F9338
:101370002F931F930F931CE0E12E1BE0F12E00E052
:1013800010E020E030E0A9010E94BC200E947324FC
:101390006093810470938204809383049093840407
:1013A000A090B904B090BA040B2C000CCC08DD0856
:1013B00060917D0470917E0480917F0490918004FF
:1013C0000E943B242091BB043091BC048901330F5F
:1013D000220B330B3F932F931F930F931CE0E12EAF
:1013E0001BE0F12E00E010E020E030E0A9010E94B7
:1013F000BC200E9473243B014C0180919B0490917E
:101400009C047C01A4E2EA1AAAEFFA0A009189047A
:1014100010918A04B0918B04BD83E0918C04E98320
:101420006CED75E0681B790B072E000C880B990B8F
:101430000E9473245B016C010FB6F894DEBF0FBEEF
:10144000CDBF9B01AC01B8018D8199810E94C4235D
:1014500087FDFBC2B7010F2C000C880B990B0E9473
:1014600073241B012C019B01AC01B8018D81998172
:101470000E94232518161CF481014D825982C8014F
:10148000AD81B9818093890490938A04A0938B04E1
:10149000B0938C04009185041091860430918704E8
:1014A0003D838091880489839501A601B8018D81CF
:1014B00099810E94C42387FDCCC2B701FF0C880B21
:1014C000990B0E9473246B017C019B01AC01B80154
:1014D0008D8199810E94232518161CF48601ED82C6
:1014E000F982C801AD81B981809385049093860407
:1014F000A0938704B09388048091990490919A04F2
:101500005C01A4E2AA1AAAEFBA0AB0918104BD83D1
:10151000E0918204E98340908304509084046CED50
:1015200075E0681B790B072E000C880B990B0E9445
:1015300073246B017C019B01AC016D817981C20137
:101540000E94C42387FD89C2B5010B2C000C880BB7
:10155000990B0E9473241B018C019B01AC016D81CE
:101560007981C2010E94232518161CF42D8239822C
:1015700028018D819981D201809381049093820406
:10158000A0938304B09384049601A701B301C4011E
:101590000E94C42387FD12C0B501BB0C880B990BB8
:1015A0000E9473246B017C019B01AC01B301C40157
:1015B0000E942325181614F063017401C601D70197
:1015C00080937D0490937E04A0937F04B093800465
:1015D00088E391E00E9494008D3E09F05BC00E9478
:1015E000291B0E94712420916D0430916E0440915A
:1015F0006F04509170040E94572320E030E040EACD
:1016000050E40E94232518160CF044C06091890410
:1016100070918A0480918B0490918C040E943B24E9
:101620008AE494E00E94A712609185047091860478
:1016300080918704909188040E943B2487E494E081
:101640000E94A712609181047091820480918304AA
:10165000909184040E943B2484E494E00E94A712A9
:1016600060917D0470917E0480917F04909180044C
:101670000E943B2481E494E00E94A7120E94291B4F
:101680000E94712460936D0470936E0480936F04C4
:10169000909370048CE00E94331C892BC1F464EA9F
:1016A00076E08AE494E00E94A71264EA76E087E498
:1016B00094E00E94A71264EA76E084E494E00E9439
:1016C000A71264EA76E081E494E00E94A71286E023
:1016D00090E00E949400882309F4C3C16FE171E097
:1016E00081EC95E00E94591E6091AF047091B004A6
:1016F0004AE050E081EC95E00E94171F68E271E03B
:1017000081EC95E00E94591E409171045091720441
:10171000609173047091740422E030E081EC95E0F4
:101720000E9464206FE271E081EC95E00E94591EF6
:1017300060911201709113014AE050E081EC95E054
:101740000E94171F65E371E081EC95E00E94591E2D
:101750006091AB047091AC04660F771F660F771F22
:101760004AE050E081EC95E00E94171F6DE371E0C4
:1017700081EC95E00E94591E40910E0150910F019D
:10178000609110017091110122E030E081EC95E050
:101790000E94642065E471E081EC95E00E94591E8E
:1017A00040910A0150910B0160910C0170910D0163
:1017B00022E030E081EC95E00E9464206CE471E06E
:1017C00081EC95E00E94591E60919B0470919C04ED
:1017D000660F771F4AE050E081EC95E00E94171FEA
:1017E00065E571E081EC95E00E94591E60919904D5
:1017F00070919A04660F771F4AE050E081EC95E003
:101800000E94171F6EE571E081EC95E00E94591E61
:101810004091790450917A0460917B0470917C042A
:1018200022E030E081EC95E00E94642062E671E005
:1018300081EC95E00E94591E409175045091760408
:10184000609177047091780422E030E081EC95E0BB
:101850000E94642066E671E081EC95E00E94591ECA
:101860006091AD047091AE044AE050E081EC95E0E7
:1018700064960FB6F894DEBF0FBECDBFDF91CF9157
:101880001F910F91FF90EF90DF90CF90BF90AF909E
:101890009F908F907F906F905F904F903F902F9090
:1018A0000C941E1F60918F0470919004072E000C01
:1018B000880B990B0E947324AB01BC0187E094E074
:1018C0000E94A91387E094E00E94B3140E943B2475
:1018D0007093B4046093B304609191047091920486
:1018E000719561957109072E000C880B990B0E9468
:1018F0007324AB01BC018AEE93E00E94A9138AEE27
:1019000093E00E94B3140E943B247093B60460934A
:10191000B50460918F04709190047195619571097F
:10192000072E000C880B990B0E947324AB01BC019D
:1019300087E094E00E94A91387E094E00E94B3142A
:101940000E943B247093B4046093B30460919104AB
:1019500070919204072E000C880B990B0E9473243F
:10196000AB01BC018AEE93E00E94A9138AEE93E0DA
:101970000E94B3140E943B247093B6046093B50494
:1019800093C86091B7047091B804613D87E078070F
:1019900014F060ED77E0643893E0790714F464E8BC
:1019A00073E07093B8046093B704072E000C880BA3
:1019B000990B1F921F9223E02F9324E82F93ECE7BB
:1019C000AE2EECEFBE2ECC24CA94DC2C10EDE12E12
:1019D00017E0F12E00E010E024E833E040E050E0B2
:1019E0000E94BC207093AE046093AD040F900F90E2
:1019F0000F900F903AC9C12CD12C7601D6C9C12CB9
:101A0000D12C760126CAC12CD12C7601C9CAC12C91
:101A1000D12C760188CBC12CD12C7601CDCBC12C19
:101A2000D12C7601F6CB84EF91E09093C0048093A3
:101A3000BF0484EC99E004CC84EF91E09093BC0463
:101A40008093BB0484EC99E00ECC8501CD82D982D1
:101A500016CD8501CD82D98244CDCD82D982270190
:101A600088CD64960FB6F894DEBF0FBECDBFDF9170
:101A7000CF911F910F91FF90EF90DF90CF90BF908B
:101A8000AF909F908F907F906F905F904F903F901E
:101A90002F900895CF92DF92EF92FF920F931F93B2
:101AA000E1EBF0E085919491E5EDF4E091838083A2
:101AB0008BE690E09383828381E084831582168293
:101AC00011861086E3EBF0E085919491EBECF4E065
:101AD000918380838CE690E09383828382E0848389
:101AE0001582168211861086E5EBF0E085919491BF
:101AF000E1ECF4E0918380838DE690E09383828330
:101B000084E08483158216821186108668E68DE44F
:101B100094E00E943E1A8AE494E00E940D1287E449
:101B200094E00E940D1284E494E00E940D1281E47E
:101B300094E00E940D12C12CD12C760100E010E03F
:101B400020E83FE3B901A80184E294E00E943E133B
:101B500000E010E020E83FE3B901A80187E094E04D
:101B60000E943E1300E010E020E83FE3B901A80125
:101B70008AEE93E00E943E131F910F91FF90EF9029
:101B8000DF90CF9008958F929F92AF92BF92CF92A5
:101B9000DF92EF92FF920F931F93CF93DF93CDB716
:101BA000DEB72C970FB6F894DEBF0FBECDBF88E02E
:101BB00095E00E94B91462E08CE00E94C91B60E0CD
:101BC00080E10E94C91B60E081E10E94C91B60E0C6
:101BD00082E10E94C91B60E087E00E94C91B26E0E9
:101BE00040E052EC61E070E081EC95E00E94361D2F
:101BF0000E94291B6B017C010E94291B6C197D0925
:101C00008E099F09683E73408105910508F08FC0D9
:101C100081EC95E00E945C1C892B71F34AE061EC39
:101C200075E0CE0107960E949420CE0107960E948F
:101C3000D9226FE671E0CE0101960E947021BE01AB
:101C40006F5F7F4FCE0107960E946822182FCE014A
:101C500001960E94FE20112309F412C12B853C85B8
:101C600047E050E0BE01695F7F4FCE0101960E94C0
:101C70009322BE016F5F7F4FCE0107960E94CC2159
:101C8000CE0101960E94FE20F12CE12C8B859C85D3
:101C9000E816F90608F041C0A7016DE3CE010796EA
:101CA0000E9477228C01AC016CE2CE0107960E9463
:101CB00077226C01019611F4CB84DC849801A70192
:101CC000BE01695F7F4FCE0101960E949322CE0133
:101CD00001960E9436234B01CE0101960E94FE2000
:101CE000A8014F5F5F4F9601BE01695F7F4FCE0134
:101CF00001960E949322CE0101960E943623162F50
:101D0000CE0101960E94FE20612FC4010E94D628B8
:101D100076018FEFE81AF80AB9CF67E771E081EC36
:101D200095E00E946C1ECE0107960E94FE2088E37B
:101D300091E00E9494008D3E61F080E593ECA0E07C
:101D4000B0E08093060190930701A0930801B0933F
:101D500009016CEB71E081EC95E00E94591E22E0D4
:101D600030E047ED53EA60E070E481EC95E00E94DA
:101D700064206AE472E081EC95E00E94591E409173
:101D800006015091070160910801709109012AE054
:101D900030E081EC95E00E946E1F81EC95E00E949E
:101DA000681E6DED71E081EC95E00E946C1E60EFA5
:101DB00071E081EC95E00E94591E85E090E00E9460
:101DC000940069E072E0811102C061E172E081EC8F
:101DD00095E00E946C1E6AE172E081EC95E00E9441
:101DE000591E86E090E00E94940069E072E0811143
:101DF00002C061E172E081EC95E00E946C1E60E33C
:101E000072E081EC95E00E94591E87E090E00E940C
:101E1000940069E072E0811102C061E172E081EC3E
:101E200095E00E946C1E6FE472E081EC95E00E94E8
:101E3000591E88E090E00E94940069E072E08111F0
:101E400002C061E172E081EC95E00E946C1E6BE6DD
:101E500072E081EC95E00E94591E89E090E00E94BA
:101E6000940067EA72E0823009F49FC008F094C0E1
:101E70006FE972E0813009F498C067E171E095C0C4
:101E800066E871E0CE0107960E942622882309F4B5
:101E90007EC062E971E081EC95E00E94591E6FE915
:101EA00071E081EC95E00E94591E85E090E00E946F
:101EB00094004AE050E0682F81EC95E00E944F1FAB
:101EC00062EA71E081EC95E00E94591E86E090E0A4
:101ED0000E9494004AE050E0682F81EC95E00E9457
:101EE0004F1F66EA71E081EC95E00E94591E87E081
:101EF00090E00E9494004AE050E0682F81EC95E069
:101F00000E944F1F6AEA71E081EC95E00E94591E21
:101F100088E090E00E9494004AE050E0682F81EC55
:101F200095E00E944F1F6EEA71E081EC95E00E94FF
:101F3000591E89E090E00E9494004AE050E0682F2A
:101F400081EC95E00E944F1F62EB71E081EC95E01F
:101F50000E94591E8AE090E00E9494004AE050E0FE
:101F6000682F81EC95E00E944F1F67EB71E081ECD8
:101F700095E00E94591E8EE090E00E9494004AE095
:101F800050E0682F81EC95E00E94561FCCCECE0128
:101F900007960E94FE2030CE6DEA72E0833029F071
:101FA00062EB72E0843009F068CF81EC95E00E942A
:101FB0006C1E67EB72E081EC95E00E94591E8EE08A
:101FC00090E00E949400682F70E090E080E01F9203
:101FD00022E02F9321E72F931F92A12CB12C6501B2
:101FE000E12CF12C87012FEF30E040E050E00E941F
:101FF000BC20AB01BC012AE030E081EC95E00E94FE
:10200000301F85E090E00E9494000F900F900F9099
:102010000F90882381F081EC95E00E94681E60EDAE
:1020200072E081EC95E00E946C1E6AE273E081EC44
:1020300095E00E946C1E81EC95E00E94681E69E6A6
:1020400073E081EC95E00E946C1E81EC95E00E94AB
:10205000681E82E195E00E94631740E85AE166E05D
:1020600070E082E195E00E94751785E090E00E94A3
:102070009400882359F062E087E00E94C91B43E086
:1020800050E06BE971E087E00E94210188E095E073
:102090000E94D61496958795779567956093690405
:1020A00070936A0480936B0490936C048DE494E0C5
:1020B0000E94CB1A8EE00E94821B9093A80480930A
:1020C000A704BC01990F880B990B1F921F921F92B6
:1020D0001F9238E2A32EB12CC12CD12CE12CF12C73
:1020E00087012FEF33E040E050E00E94BC200E94C7
:1020F000732420E030E040E251E40E94C923609361
:102100000A0170930B0180930C0190930D018FE0F5
:102110000E94821B9093AA048093A904BC01990F8A
:10212000880B990B1F921F921F922CE82F93A12CC2
:10213000B12C65012FEF33E040E050E00E94BC205D
:102140000E94732420E030E040E251E40E94C92361
:1021500060930E0170930F01809310019093110111
:1021600026E636E646E65FE30E9428259B01AC01A1
:10217000E12CF12C870161E070E087E094E00E949F
:10218000721340910A0150910B0160910C01709102
:102190000D0187E094E00E94DE1220910E01309143
:1021A0000F01409110015091110161E070E08AEE41
:1021B00093E00E94721340910A0150910B016091CB
:1021C0000C0170910D018AEE93E00E94DE1285E011
:1021D00090E00E9494000FB6F894DEBF0FBECDBF12
:1021E000882391F020E030E040E050E461E070E0CE
:1021F00084E294E00E9472134DEC5CEC6CE47EE3AC
:1022000084E294E00E94DE1224EC39E040E951E0DF
:1022100069E070E08AE494E00E94281224EC39E03E
:1022200040E951E066E070E087E494E00E94281203
:1022300024EC39E040E951E065E070E084E494E0AA
:102240000E94281224EC39E040E951E063E070E09C
:1022500081E494E00E94281266EA73E081EC95E044
:102260000E946C1E61E08DE00E94C91B61E08DE060
:102270000E94051C8091C1008F778093C1002C962D
:102280000FB6F894DEBF0FBECDBFDF91CF911F9187
:102290000F91FF90EF90DF90CF90BF90AF909F9005
:1022A0008F9008951F920F920FB60F9211242F93C3
:1022B0003F934F935F936F937F938F939F93AF93CE
:1022C000BF93EF93FF938091E30487FF27C01092A1
:1022D0008500109284008091E3048F5F8093E30473
:1022E0008091E304082E000C990B2091E20428173A
:1022F000190629F024F08091E3048C30DCF1809100
:10230000840090918500049680349C4908F47BC039
:102310008091840090918500049677C08091E304B9
:10232000082E000C990B2091E2042817190699F247
:1023300094F2E091E3048E2FEE0F990BFC01EE0F67
:10234000FF1FE80FF91FEC51FB4F808186FFC3CFC1
:10235000E091E3048E2FEE0F990BFC01EE0FFF1FAF
:10236000E80FF91FEC51FB4F808160E08F730E94F2
:10237000051CB1CF2091840030918500E091E304E9
:102380008E2FEE0F990BFC01EE0FFF1FE80FF91FC8
:10239000EC51FB4F81819281820F931F90938900B2
:1023A00080938800E091E3048E2FEE0F990BFC01DF
:1023B000EE0FFF1FE80FF91FEC51FB4F808186FFE6
:1023C00011C0E091E3048E2FEE0F990BFC01EE0F8C
:1023D000FF1FE80FF91FEC51FB4F808161E08F7305
:1023E0000E94051CFF91EF91BF91AF919F918F913A
:1023F0007F916F915F914F913F912F910F900FBE01
:102400000F901F90189580E49CE990938900809329
:1024100088008FEF8093E304E5CFFC019091E20404
:102420009C3098F481E0890F8093E2049083892F97
:1024300090E0FC01EE0FFF1FE80FF91FEC51FB4F7E
:1024400088EB9BE09283818308958FEF80830895CA
:10245000DF92EF92FF920F931F93CF93DF93EC01E4
:10246000D62E7A01890188818C3008F067C061E03E
:102470008D2D0E94C91B8881282F30E0F901EE0FB5
:10248000FF1FE20FF31FEC51FB4F9D2D9F736081E7
:10249000607C692B608320E232E02E193F0937FF10
:1024A00002C02D5F3F4F3595279535952795298398
:1024B00020E639E0201B310B37FF02C02D5F3F4F74
:1024C00035952795359527952A832CE0622F0E9414
:1024D0000526829FB001112430E020E0AB01420FBD
:1024E000531FFA01EE0FFF1FE40FF51FEC51FB4FD6
:1024F000908196FD16C02F5F3F4F2C30310571F74C
:1025000081110FC01092800082E0809381001092B0
:10251000850010928400B19A80916F008260809350
:102520006F00E8818E2F90E0FC01EE0FFF1FE80F97
:10253000F91FEC51FB4F8081806480838881DF919B
:10254000CF911F910F91FF90EF90DF900895DC01E4
:10255000EC91EC3090F511968C91119728E830E0D1
:10256000281B310987FD3395220F331F220F331F9C
:102570006217730784F012968C9128E532E0281BCD
:10258000310987FD3395220F331F220F331F621746
:1025900073070CF49B0122503109220F331F4FB7F0
:1025A000F8948E2F90E0FC01EE0FFF1FE80FF91F4B
:1025B000EC51FB4F328321834FBF0895CF92DF92BE
:1025C000EF92FF92CF93DF93EC016A017B012FE63C
:1025D00032E143E85AE3CB01B6010E94C42387FDF0
:1025E00011C020E030E04AE754E4C701B6010E9480
:1025F000232518167CF4C12CD12C8AE7E82E84E41C
:10260000F82E08C09FE6C92E92E1D92E93E8E92E54
:102610009AE3F92EC88AD98AEA8AFB8ADF91CF9198
:10262000FF90EF90DF90CF900895CF92DF92EF92DE
:10263000FF92CF93DF93EC016A017B0120E030E051
:10264000A901CB01B6010E942325181624F0F7FA40
:10265000F094F7F8F0942BED3FE049EC50E4C7011B
:10266000B6010E9428256C8B7D8B8E8B9F8BDF9112
:10267000CF91FF90EF90DF90CF9008958F929F922F
:10268000AF92BF92CF92DF92EF92FF920F931F9380
:10269000CF93DF93EC014A015B01B901A801C88225
:1026A000D982EA82FB821C821D821E821F82188EC2
:1026B0000E94DE12B501A401CE010E9415130E94F2
:1026C000351B698F7A8F8B8F9C8FDF91CF911F91F4
:1026D0000F91FF90EF90DF90CF90BF90AF909F90C1
:1026E0008F900895EF92FF920F931F93CF93DF93F4
:1026F000EC01FB01CA01B901188EE882F9820A8354
:102700001B833097D1F42AE037ED43EA5FE30E9460
:102710002825AB01BC01CE010E9415138DE790ED79
:10272000A3E1BFE3888B998BAA8BBB8BDF91CF9101
:102730001F910F91FF90EF9008953197B9F7A9017C
:10274000BC01CE010E94151381E894E0A5E3BFE32C
:10275000E9CF2F923F924F925F926F927F928F922A
:102760009F92AF92BF92CF92DF92EF92FF920F9320
:102770001F93CF93DF93CDB7DEB72A970FB6F894A8
:10278000DEBF0FBECDBF9A8789872A013B01DC01DE
:102790001C964D925D926D927C921F970E94351B04
:1027A0006B017C01E985FA85818D928DA38DB48DB5
:1027B000A7019601281B390B4A0B5B0BCA01B90113
:1027C0000E9473242DEB37E346E855E30E94282549
:1027D0004B015C01A985BA855996CD92DD92ED92A7
:1027E000FC925C975496CD90DD90ED90FC905797BD
:1027F00020E030E0A9010E94C42387FDAFC0A701FB
:10280000960160E070E080E89FE30E94C923162FE4
:10281000072F382E292E262F372F482F592FB40156
:10282000C5010E942325181624F0182D092D3A2CD5
:102830002B2CA7019601C701B6010E9428256D83A4
:102840007E838F839887E985FA8584809580A6802A
:10285000B780208131814281538129833A834B8320
:102860005C839B01AC01C301B2010E9428252B01AE
:102870003C01E985FA852089318942895389C7015C
:10288000B6010E94C923A50194010E9428259B013D
:10289000AC01C301B2010E9457236B017C012D8161
:1028A0003E814F81588569817A818B819C810E940C
:1028B00028259B01AC01C701B6010E945723212F97
:1028C000302F432D522D0E942825A50194010E94EE
:1028D00058236B017C01AC019B01C501B4010E942E
:1028E000582320E030E040E05FE30E942825A985DE
:1028F000BA8518966D937D938D939C931B97212F8A
:10290000302F432D522D0E94282529813A814B8159
:102910005C810E945823E985FA85608371838283F4
:102920009383C482D582E682F7822A960FB6F89402
:10293000DEBF0FBECDBFDF91CF911F910F91FF90F2
:10294000EF90DF90CF90BF90AF909F908F907F904F
:102950006F905F904F903F902F90089510E000E0AF
:10296000312C212C66CFFC016081718182819381A1
:102970000895CF93DF93A0EBB0E02C91EC01288772
:10298000E1EBF0E0208129878081887F826080836D
:10299000C0E7D0E08881816088838C918C7F8C93A4
:1029A0008081877F8083DF91CF910895FC013FB7BD
:1029B000F8942091B200B89B0EC02091B2008081A3
:1029C0009181A281B3810196A11DB11D8083918364
:1029D000A283B383B89A80819181A281B381BA2FF7
:1029E000A92F982F8827820F911DA11DB11D8483C7
:1029F0009583A683B7833FBF648175818681978164
:102A00000895FC0140815181628173814F5F5F4F66
:102A10006F4F7F4F408351836283738308951F926A
:102A20000F920FB60F9211242F933F934F935F9302
:102A30006F937F938F939F93AF93BF93EF93FF9386
:102A400088E095E00E940115FF91EF91BF91AF9151
:102A50009F918F917F916F915F914F913F912F91B6
:102A60000F900FBE0F901F901895E8E0F5E01082D0
:102A7000118212821382148215821682178208959F
:102A8000FF920F931F93CF93DF93C62F042FF22E45
:102A9000132F682F82E195E00E9479176C2F82E155
:102AA00095E00E940717CF2DD12F0C0F1D2F111D60
:102AB000C017D10731F0699182E195E00E940717B4
:102AC000F7CF82E195E00E94FC1791E0811190E040
:102AD000892FDF91CF911F910F91FF900895CF9390
:102AE000DF931F92CDB7DEB749839E012F5F3F4F23
:102AF00041E00E9440150F90DF91CF9108953F92E1
:102B00004F925F926F927F928F929F92AF92BF92FD
:102B1000CF92DF92EF92FF920F931F93CF93DF93A9
:102B200000D000D0CDB7DEB78C83D62E4B833A834E
:102B300029830E94291B4B015C01312CC12C2B8164
:102B4000E22EF12C2801712C612C8B81381608F0B3
:102B500049C06C8182E195E00E9479176D2D82E178
:102B600095E00E94071782E195E00E94FC176C81B6
:102B700082E195E00E947917A7014319510941327A
:102B8000510514F040E250E06C8182E195E00E9432
:102B9000F91782E195E00E94A716892BD9F001155B
:102BA000110569F482E195E00E94AE16E981FA818F
:102BB000EC0DF11DC7FCFA958083C394EACF0E9407
:102BC000291B681979098A099B0964157505860509
:102BD000970540F38E2D91E2E916F1040CF080E2A6
:102BE000380EB3CF01151105C1F00E94291B6819D9
:102BF00079098A099B0930E020E060177107820794
:102C0000930758F08C2D0C2C000C990B2B81281756
:102C1000190619F014F0CC24CA948C2D0F900F9043
:102C20000F900F90DF91CF911F910F91FF90EF9038
:102C3000DF90CF90BF90AF909F908F907F906F90DC
:102C40005F904F903F9008950F931F9389019A01D1
:102C500041E00E947F151F910F910895EF92FF921E
:102C60000F931F93CF93DF931F92CDB7DEB7182F2B
:102C7000062FE42EF22E2091140130911501AE01A1
:102C80004F5F5F4F0E94241681E090E001C0880FE3
:102C9000EA94EAF74981FF2071F0482B4983602FBD
:102CA000812F0E946F150F90DF91CF911F910F918F
:102CB000FF90EF90089580954823F0CFDF92EF9238
:102CC000FF920F931F93CF93DF931F92CDB7DEB781
:102CD000F82EE62E142FD22E2091140130911501DA
:102CE000AE014F5F5F4F0E942416882359F1812F58
:102CF0008D19990BAC014F5F5F4F81E090E002C0EE
:102D0000880F991FDA94E2F70197042E01C0880F0B
:102D10000A94EAF701C0000F4A95EAF7482F409558
:102D2000998149238023482B49836E2D8F2D0E9442
:102D30006F150F90DF91CF911F910F91FF90EF9042
:102D4000DF90089580E0F5CF90E080E008958091D5
:102D5000460590914705891B990B08959091470569
:102D6000809146052FEF3FEF981748F4E92FF0E0E8
:102D7000E85BFA4F208130E09F5F90934705C901DF
:102D80000895E091470580914605E81730F4F0E09A
:102D9000E85BFA4F808190E008958FEF9FEF0895F0
:102DA0000895CF93DF93EC01E0911E05F0911F058C
:102DB0003097F1F090914705809146059817C0F043
:102DC00090E0292F30E02617370754F4DE01A20FD8
:102DD000B31F4C91285B3A4FD9014C939F5FF1CFC1
:102DE0001092470560934605CB01DF91CF9109947E
:102DF000DF91CF910895E0912005F0912105309762
:102E000029F0109224051092230509940895CF9378
:102E1000DF931F92CDB7DEB769832091220522236D
:102E2000F9F020912305203258F021E030E0FC0138
:102E30003383228390E080E00F90DF91CF9108955B
:102E400080912405E82FF0E0EB5DFA4F99819083A3
:102E50008F5F809324058093230581E090E0ECCF81
:102E600061E0CE0101960E94D118F7CFCF92DF9298
:102E7000EF92FF920F931F93CF93DF937C01CB01CF
:102E80008A0120912205222389F0EB016B01C40EF7
:102E9000D51ECC15DD0569F06991D701ED91FC9146
:102EA0000190F081E02DC7010995F3CF642F0E94B6
:102EB000D118C801DF91CF911F910F91FF90EF9032
:102EC000DF90CF900895109247051092460510921A
:102ED0002405109223050E9410188BEF96E10E94A2
:102EE000FD1881ED96E10C94F818CB01BA010C9411
:102EF0002E1881E0809322056093450510922405E9
:102F00001092230508950F93062F21E04091230589
:102F100065E275E0809145050E94811810922405B4
:102F200010922305109222050F9108954F925F92FF
:102F30006F927F92AF92BF92CF92EF92FF920F93D8
:102F40001F93CF93DF935C01F62ED42F2801390114
:102F5000EE2019F10E947917CE2DC43008F0C3E09D
:102F6000C150B8F028E0C29FC0011124A301920112
:102F700004C056954795379527958A95D2F7B9019C
:102F8000D501ED91FC910190F081E02DC5010995ED
:102F9000E7CF60E0C5010E9483174D2FD13208F0C2
:102FA00040E22C2D68E475E08F2D0E9441181092AC
:102FB000470580934605DF91CF911F910F91FF90B8
:102FC000EF90CF90BF90AF907F906F905F904F90B9
:102FD0000895CF92EF920F931F93C22EE12C00E041
:102FE00010E098010E9496171F910F91EF90CF90DB
:102FF000089521E00C94E91761E00C948317E2E155
:10300000F5E01382128288EE93E0A0E0B0E08483C2
:103010009583A683B7838BEB93E091838083089598
:103020001092B70581E08093B5051092B40561E078
:1030300082E10E94051C61E083E10E94051CE9EB2E
:10304000F0E080818E7F808380818D7F808388E423
:103050008093B80085E48093BC0008959B01AC0187
:1030600060E074E284EF90E00E9411262051310963
:103070004109510956954795379527952093B800F2
:1030800008954132E0F59091B7059111FCCF91E0A0
:103090009093B7052093B5052FEF209368057093A3
:1030A000AF056093AE051092AD05240F2093AC05DB
:1030B0009093B6059091B605880F892B8093B6053D
:1030C0008091B4058130C9F41092B4058091B605A1
:1030D0008093BB008091BC0083FDF8CF85EC80938A
:1030E000BC008091B7058130E1F38091AD05841774
:1030F00010F44091AD05842F089585EEF0CF40E0A7
:10310000FACF0F93413208F044C09091B705911166
:10311000FCCF92E09093B7050093B5059FEF909395
:1031200068057093AF056093AE051092AD054093AE
:10313000AC051092B6059091B605880F892B809347
:10314000B6058091B405813011F51092B4058091D7
:10315000B6058093BB008091BC0083FDF8CF85EC61
:103160008093BC00222321F08091B7058230D1F3F7
:10317000809168058F3F79F080916805803269F011
:1031800080916805803359F084E00F91089585EEB1
:10319000E7CF81E0FACF80E0F8CF82E0F6CF83E09E
:1031A000F4CF20918A05260F3327331F21323105B2
:1031B000ECF42091B705FC0190E080E0243069F048
:1031C00082E00895A0918A052191AC0144575A4F9D
:1031D000A40FB52FB11D2C930196861798F38091FB
:1031E0008A05680F60938A0580E0089581E008955C
:1031F0009093B1058093B00508959093B3058093A3
:10320000B205089585ED8093BC008091BC0084FDDB
:10321000FCCF1092B705089585EC8093BC00109206
:10322000B70508951F920F920FB60F9211242F9396
:103230003F934F935F936F937F938F939F93AF933E
:10324000BF93EF93FF938091B900887F803609F494
:103250004CC008F03FC0883209F4A8C018F580318E
:1032600009F49CC0B8F4882309F405C1883009F436
:1032700095C0FF91EF91BF91AF919F918F917F91F9
:103280006F915F914F913F912F910F900FBE0F90D3
:103290001F901895883109F489C0803251F78093C6
:1032A000680515C0803409F4A6C048F48033B9F32A
:1032B0008833F9F6809368050E940C19DACF8035BF
:1032C00009F489C0883509F49EC0883491F60E94BB
:1032D0000219CFCF883909F494C038F5883729F01E
:1032E00050F4883611F0803721F683E08093B705DB
:1032F0001092690557C0883809F483C0803919F0E5
:10330000803809F0B6CF80916905803208F079C025
:10331000E091690581E08E0F809369058091BB0083
:10332000F0E0E659FA4F80833DC0803B39F0E0F48D
:10333000803A09F485C0883A09F09BCF84E08093F5
:10334000B70510928B0510928A05E091B205F091B5
:10335000B305099580918A0581110FC081E08093A2
:103360008A0510928C0509C0803C09F482C0883C13
:1033700009F47FC0883B09F07CCFE0918B0581E0A8
:103380008E0F80938B05F0E0E457FA4F8081809395
:10339000BB0090918B0580918A0531C08091B60564
:1033A0008093BB0085EC8093BC0063CF9091AD050A
:1033B0008091AC059817B8F58091AE059091AF0556
:1033C000E091AD0521E02E0F2093AD05E80FF92F18
:1033D000F11D8081E5CF2091AE053091AF05E091E0
:1033E000AD0581E08E0F8093AD058091BB00E20FAB
:1033F000F32FF11D80839091AD058091AC05981756
:1034000088F285E8D0CF2091AE053091AF05E091EC
:10341000AD0581E08E0F8093AD058091BB00E20F7A
:10342000F32FF11D80838091B505811150CF81E08C
:103430008093B40584EA8093BC001092B70519CF3D
:103440000E940C1980916905803230F4E091690581
:10345000F0E0E659FA4F10826091690570E0E09162
:10346000B005F091B1058AE695E0099510926905DD
:1034700000CF85ECE0CF1092680529CFFC01608376
:1034800008950F93062F22E044E06BE1FC01808158
:103490000E945E160F9108950F93062F22E044E0DC
:1034A0006CE1FC0180810E945E160F9108954F929D
:1034B0005F926F927F928F929F92AF92BF92CF92C4
:1034C000DF92EF92FF920F931F93CF93DF93EC0164
:1034D0003B014A0159012801009114011091150185
:1034E0009C012F5F3F4F4EE06BE388810E947F1568
:1034F00089819A81982789279827F301918380836E
:103500008B819C81982789279827F4019183808358
:103510008D819E81982789279827F5019183808343
:1035200089859A85982789279827F2019183808336
:103530008B859C85982789279827F701918380831D
:103540008D859E85982789279827F601918380830A
:10355000DF91CF911F910F91FF90EF90DF90CF906F
:10356000BF90AF909F908F907F906F905F904F90A3
:103570000895262F46E06BE6FC0180810C942E1600
:103580000F93062F23E042E06BE6FC0180810E944E
:103590005E160F910895CF93DF93EC0161E00E94D6
:1035A000C01A60E0CE010E94411A60E0CE010E9484
:1035B0004C1A60E0CE01DF91CF910C94B91A1F92A2
:1035C0000F920FB60F9211242F933F938F939F93D7
:1035D000AF93BF938091BD059091BE05A091BF05AB
:1035E000B091C0053091BC0523E0230F2D3768F161
:1035F00026E8230F0296A11DB11D2093BC058093E0
:10360000BD059093BE05A093BF05B093C005809102
:10361000B8059091B905A091BA05B091BB05019686
:10362000A11DB11D8093B8059093B905A093BA056B
:10363000B093BB05BF91AF919F918F913F912F9117
:103640000F900FBE0F901F9018950196A11DB11DF0
:10365000D4CF2FB7F8946091BD057091BE058091CD
:10366000BF059091C0052FBF08953FB7F894809192
:10367000B8059091B905A091BA05B091BB0526B5E2
:10368000A89B05C02F3F19F00196A11DB11D3FBF9A
:10369000BA2FA92F982F8827BC01CD01620F711D69
:1036A000811D911D42E0660F771F881F991F4A9563
:1036B000D1F70895789484B5836084BD85B583601F
:1036C00085BDEEE6F0E0808181608083E1E8F0E096
:1036D00082E08083808181608083E0E8F0E0808107
:1036E00081608083E1EBF0E0808184608083E0EBA7
:1036F000F0E080818160808387E880937A00109277
:10370000C1000895883020F08D3008F48DE08E508F
:103710002091160190E4299F900111248770822B3B
:1037200080937C0080917A00806480937A008091FD
:103730007A0086FDFCCF8091780090917900089501
:10374000843081F028F48230E9F08330F9F0089574
:10375000883071F0893091F08530B9F48091800023
:103760008F7D03C0809180008F77809380000895C3
:103770008091B0008F778093B00008958091B00061
:103780008F7DF9CF84B58F7784BD089584B58F7D03
:10379000FBCFCF93DF9390E0FC01E158FF4F2491E2
:1037A0008A569F4FFC0184918823C9F090E0880FCE
:1037B000991FFC01EF53FF4FA591B491FC01E9540F
:1037C000FF4FC591D49161110DC09FB7F8948C91B2
:1037D000209582238C938881282328839FBFDF91A3
:1037E000CF910895623051F49FB7F8943C91822FA5
:1037F000809583238C93E8812E2BEFCF8FB7F8949D
:10380000EC912E2B2C938FBFEACF1F93CF93DF9396
:10381000282F30E0F901E859FF4F8491F901E15870
:10382000FF4FD491F901EA56FF4FC491CC23A9F080
:10383000162F81110E94A01BEC2FF0E0EE0FFF1F4E
:10384000E954FF4FA591B4918FB7F894EC91111101
:1038500008C0D095DE23DC938FBFDF91CF911F91FD
:103860000895DE2BF8CFCF93DF93282F30E0F901B6
:10387000E859FF4F8491F901E158FF4FD491F901C4
:10388000EA56FF4FC491CC23A1F081110E94A01BE6
:10389000EC2FF0E0EE0FFF1FE355FF4FA591B49121
:1038A000EC91ED2381E090E009F480E0DF91CF918D
:1038B000089580E090E0FACFFC01918D228D892F50
:1038C00090E0805C9F4F821B91098F739927089528
:1038D000FC01918D828D981731F0828DE80FF11DDA
:1038E000858D90E008958FEF9FEF0895FC01918DF5
:1038F000828D981761F0A28DAE0FBF2FB11D5D961E
:103900008C91928D9F5F9F73928F90E008958FEFBF
:103910009FEF0895FC01538D448D252F30E0842FB7
:1039200090E0821B930B541710F0CF9608950197E7
:10393000089586EE9DE1892B49F080E090E0892B87
:1039400029F00E94E61D81110C9400000895FC01ED
:10395000A48DA80FB92FB11DA35ABF4F2C91848DF0
:1039600090E001968F739927848FA689B7892C934D
:10397000A089B1898C91837080648C93938D848DA0
:10398000981306C00288F389E02D80818F7D8083A3
:103990000895CF93DF93EC01888D8823B9F0AA892D
:1039A000BB89E889F9898C9185FD03C0808186FDFA
:1039B0000DC00FB607FCF7CF8C9185FFF2CF808149
:1039C00085FFEDCFCE010E94A71CE9CFDF91CF91FB
:1039D0000895EF92FF920F931F93CF93DF93EC0123
:1039E00081E0888F9B8D8C8D98131AC0E889F989A6
:1039F000808185FF15C09FB7F894EE89FF896083A9
:103A0000E889F98980818370806480839FBF81E029
:103A100090E0DF91CF911F910F91FF90EF9008956B
:103A2000F62E0B8D10E00F5F1F4F0F731127E02E46
:103A30008C8D8E110CC00FB607FCFACFE889F9897E
:103A4000808185FFF5CFCE010E94A71CF1CFEB8DC1
:103A5000EC0FFD2FF11DE35AFF4FF0829FB7F89452
:103A60000B8FEA89FB8980818062CFCFCF92DF9272
:103A7000EF92FF921F93CF93DF93EC016A017B01DA
:103A8000122FE889F98982E08083C11481EED8067B
:103A9000E104F104A1F060E079E08DE390E0A7019A
:103AA00096010E941126215031094109510956956C
:103AB000479537952795211580E1380798F0E889D3
:103AC000F989108260E874E88EE190E0A701960120
:103AD0000E941126215031094109510956954795F7
:103AE00037952795EC85FD853083EE85FF8520830E
:103AF000188EEC89FD891083EA89FB8980818869A9
:103B00008083EA89FB8980818F7D8083DF91CF91DB
:103B10001F91FF90EF90DF90CF9008951F920F922A
:103B20000FB60F9211242F938F939F93EF93FF93D0
:103B3000E091D105F091D2058081E091D705F09117
:103B4000D80582FD1BC090818091DA058F5F8F734D
:103B50002091DB05821741F0E091DA05F0E0EF53A8
:103B6000FA4F958F8093DA05FF91EF919F918F9196
:103B70002F910F900FBE0F901F9018958081F4CF5A
:103B80001F920F920FB60F9211242F933F934F93D2
:103B90005F936F937F938F939F93AF93BF93EF93B5
:103BA000FF9381EC95E00E94A71CFF91EF91BF91DC
:103BB000AF919F918F917F916F915F914F913F91C5
:103BC0002F910F900FBE0F901F90189581EC95E0EC
:103BD0000E945C1C21E0892B09F420E0822F0895CB
:103BE000E1ECF5E01382128288EE93E0A0E0B0E011
:103BF00084839583A683B7838DEC93E09183808340
:103C000085EC90E09587848784EC90E097878687A1
:103C100080EC90E0918B808B81EC90E0938B828B99
:103C200082EC90E0958B848B86EC90E0978B868B72
:103C3000118E128E138E148E0895AF92BF92CF9272
:103C4000DF92EF92FF920F931F93CF93DF936C015C
:103C50007B018B01040F151FEB015E01AE18BF083D
:103C6000C017D10759F06991D601ED91FC910190EF
:103C7000F081E02DC6010995892B79F7C501DF9107
:103C8000CF911F910F91FF90EF90DF90CF90BF9059
:103C9000AF900895FB0101900020E9F73197AF0143
:103CA000461B570BDC01ED91FC910280F381E02D66
:103CB00009946115710511F00C944A1E90E080E0A2
:103CC0000895DC01ED91FC910190F081E02D0994C3
:103CD0006BED73E00C944A1E0F931F93CF93DF9309
:103CE0008C01D0E0C0E06115710519F00E944A1EF8
:103CF000EC01C8010E94681E8C0F9D1FDF91CF91BF
:103D00001F910F9108958F929F92AF92BF92EF9261
:103D1000FF920F931F93CF93DF93CDB7DEB7A19799
:103D20000FB6F894DEBF0FBECDBF7C01FA01CB0108
:103D300019A2223008F42AE08E010F5D1F4F822E57
:103D4000912CB12CA12CBF01A50194010E94112638
:103D5000F901CA016A300CF5605DD8016E938D01DE
:103D6000232B242B252B79F790E080E0109721F06E
:103D7000BD01C7010E944A1EA1960FB6F894DEBF8E
:103D80000FBECDBFDF91CF911F910F91FF90EF90AC
:103D9000BF90AF909F908F900895695CDECFCF92D7
:103DA000DF92EF92FF920F931F93CF93DF93211532
:103DB000310581F4DC01ED91FC910190F081E02D61
:103DC000642FDF91CF911F910F91FF90EF90DF90C3
:103DD000CF9009942A30310501F52AE077FF1DC004
:103DE0006A017B01EC016DE20E94611E8C01442797
:103DF0005527BA014C195D096E097F092AE0CE01E9
:103E00000E94831E800F911FDF91CF911F910F9110
:103E1000FF90EF90DF90CF900895DF91CF911F91A9
:103E20000F91FF90EF90DF90CF900C94831E9A013A
:103E3000AB01770F660B770B0C94CF1E0F931F937C
:103E4000CF93DF93EC010E94171F8C01CE010E94DB
:103E5000681E800F911FDF91CF911F910F910895E0
:103E60000F931F93CF93DF93EC010E94CF1E8C0121
:103E7000CE010E94681E800F911FDF91CF911F918C
:103E80000F9108952115310541F4DC01ED91FC916C
:103E90000190F081E02D642F09940C94831E9A0107
:103EA000462F50E070E060E00C94421F0F931F9388
:103EB000CF93DF93EC010E944F1F8C01CE010E9433
:103EC000681E800F911FDF91CF911F910F91089570
:103ED0009A01AB0170E060E00C94421F0F931F93B6
:103EE000CF93DF93EC010E94421F8C01CE010E9410
:103EF000681E800F911FDF91CF911F910F91089540
:103F00002F923F924F925F926F927F928F929F92E9
:103F1000AF92BF92CF92DF92EF92FF921F93CF9317
:103F2000DF93EC016A017B01722EAB019601CB019C
:103F3000B6010E94DB256EED73E0811126C04601BB
:103F40005701E894B7F82FEF3FEF4FE75FE7C50160
:103F5000B4010E94DB2581110CC02FEF3FEF4FE72A
:103F60005FE7C501B4010E94C42362EE73E0181636
:103F700064F02FEF3FEF4FE75FE4C701B6010E9407
:103F800023251816B4F466EE73E0CE01DF91CF91CD
:103F90001F91FF90EF90DF90CF90BF90AF909F90D8
:103FA0008F907F906F905F904F903F902F900C94E8
:103FB0004A1E2FEF3FEF4FE75FECC701B6010E94AB
:103FC000C42387FDE0CF20E030E0A901C701B6019E
:103FD0000E94C423312C212C87FF09C06DE2CE0141
:103FE0000E94611E1C01F7FAF094F7F8F09410E0BB
:103FF00060E070E080E09FE3711641F020E030E087
:1040000040E251E40E94C9231F5FF6CFA701960149
:104010000E9458232B013C010E9442244B015C0169
:104020002AE0BC01A401CE010E94831E7C01E20CA7
:10403000F31C1123B1F1C501B4010E9471249B014D
:10404000AC01C301B2010E9457234B015C016EE237
:10405000CE010E94611EE80EF91E115010F120E001
:1040600030E040E251E4C501B4010E9428252B0153
:104070003C010E9442244B014AE050E0CE010E94E4
:10408000681FE80EF91EB40190E080E00E947124E0
:104090009B01AC01C301B2010E9457234B015C019B
:1040A000DCCFC701DF91CF911F91FF90EF90DF90A0
:1040B000CF90BF90AF909F908F907F906F905F90C8
:1040C0004F903F902F9008950C94801F0F931F9353
:1040D000CF93DF93EC010E94291B688779878A8739
:1040E0009B87E881F9810284F385E02DCE01099553
:1040F00097FF15C00E94291B088519852A853B85D5
:10410000601B710B820B930B0C811D812E813F81F3
:10411000601771078207930720F38FEF9FEFDF91FE
:10412000CF911F910F910895EF92FF920F931F93DC
:10413000CF93DF93EC017B01042F6DED73E00E94C0
:104140007021C7010E946620002E000C110B97FD04
:104150000BC00817190741F0682FCE010E941322E7
:10416000C7010E946620F3CFCE01DF91CF911F914E
:104170000F91FF90EF9008954F925F926F927F9210
:10418000AF92BF92CF92DF92EF92FF920F931F9365
:10419000CF93DF93CDB7DEB729013A019B01AC0184
:1041A000241935094609570989899A89AB89BC8937
:1041B000BC01CD016A197B098C099D090E94F52576
:1041C000A801970124193509460957090E94332689
:1041D000CA01B9016A0D7B1D8C1D9D1DDF91CF9118
:1041E0001F910F91FF90EF90DF90CF90BF90AF9015
:1041F0007F906F905F904F9008950895FC018081AB
:104200009181009711F00C940E270895CF93DF93BE
:10421000EC0188819981009711F00E940E27198284
:1042200018821D821C821B821A82DF91CF91089511
:104230000F931F93CF93DF93EC018B016F5F7F4F41
:10424000888199810E949727009751F099838883EC
:104250001B830A8381E0DF91CF911F910F91089515
:1042600080E0F9CFCF93DF93EC0188819981892B8E
:1042700049F08A819B818617970720F081E0DF91C2
:10428000CF910895CE010E9418218823C1F38C811B
:104290009D81892B99F7E881F9811082EFCFEF9208
:1042A000FF920F931F93CF93DF93EC017B018A0161
:1042B000BA010E94322181110BC0CE010E94062159
:1042C000CE01DF91CF911F910F91FF90EF90089554
:1042D0001D830C83B701888199810E94A128F0CFAA
:1042E000FC011182108213821282158214826115E0
:1042F000710551F0FB0101900020E9F73197AF0102
:10430000461B570B0C944F210895FB010190002090
:10431000E9F73197AF01461B570B0C944F210F93D0
:104320001F93CF93DF938C01EB01FC01808191817E
:10433000009701F16881798161157105C9F02DEF50
:1043400030E2232BA9F0428153812C813D81421719
:10435000530770F00E94A1288C819D81F8019583FC
:1043600084831D821C82DF91CF911F910F9108954C
:104370000E940E2788819981F801918380838A8128
:104380009B81938382838C819D8195838483198211
:1043900018821B821A82E5CFCF93DF93EC01861738
:1043A000970711F00E948F21CE01DF91CF910895E0
:1043B000CF93DF93EC016115710531F00E948521E7
:1043C000CE01DF91CF9108950E940621F9CFEF929F
:1043D000FF920F931F93CF93DF936115710541F403
:1043E00080E0DF91CF911F910F91FF90EF900895A2
:1043F00041155105B1F07B01EC010C811D81040FC9
:10440000151FB8010E943221882351F32881398178
:104410008C819D81B701820F931F0E94A1281D836B
:104420000C8381E0DECFCF93DF9300D0CDB7DEB732
:1044300069831A8241E050E0BE016F5F7F4F0E94A6
:10444000E7210F900F90DF91CF910895FC01248117
:104450003581232B31F421E0FB01672B49F4822FB6
:104460000895808191816115710539F421E0FC0185
:1044700080818823A1F320E0F2CF0E94982821E0D8
:10448000892B69F3F8CFDB011496ED91FC91DC01E7
:1044900014962D913C9115972E1B3F0B2417350731
:1044A000A0F02D913C912115310579F0DB016D9142
:1044B0007C916115710549F0CA01AF01820F931F0C
:1044C0000E94A82821E0892B09F020E0822F08957E
:1044D000FC0144815581FB0124813581421753073A
:1044E00020F050E040E00C94432280E00895CF9308
:1044F000DF93FC01248135814217530788F4C08182
:10450000D181062E000C770BCE01840F951F0E94DF
:104510008D28009729F08C1B9D0BDF91CF9108957A
:104520008FEF9FEFFACFAF92BF92CF92DF92EF92D1
:10453000FF920F931F93CF93DF935C016B017A017E
:1045400089012417350720F48F2D7901042F182FA6
:104550006DED73E0C5010E947021D6011496CD91D6
:10456000DC91EC16FD06C8F40C171D0708F4E801F1
:10457000D601ED91FC911197EC0FFD1F1081108277
:104580006D917C916E0D7F1DC5010E94D821F601B1
:1045900080819181C80FD91F1883C501DF91CF9108
:1045A0001F910F91FF90EF90DF90CF90BF90AF9051
:1045B0000895AF92BF92CF92DF92EF92FF920F9346
:1045C0001F93CF93DF93DC01CD90DC901197C11442
:1045D000D10439F01496CD91DC918C0176012097AD
:1045E00061F4DF91CF911F910F91FF90EF90DF90D9
:1045F000CF90BF90AF90089575015701BFEFAB1AF0
:10460000BB0AF7018081082E000C990B0E947B28C1
:10461000892B91F72197CC0DDD1D8881082E000C88
:10462000990B0E947B28892B29F0CE15DF0510F00D
:104630002197F3CFAE014F5F5F4F4E195F09D8014D
:1046400015965C934E931497CE14DF0420F4B701B3
:10465000C6010E948428D801ED91FC91119714960F
:104660008D919C91E80FF91F1082BBCFFC018081D6
:104670009181009711F00C94542860E070E0CB0118
:10468000089508950E945A1B0E9441230E94C30D61
:10469000C9E9DCE10E9413032097E1F30E94991C11
:1046A000F9CF009711F481E090E00C9472265058F5
:1046B000BB27AA270E946F230C94E9240E94DB24C5
:1046C00038F00E94E22420F039F49F3F19F426F4D8
:1046D0000C94D8240EF4E095E7FB0C94D224E92F37
:1046E0000E94FA2458F3BA176207730784079507E4
:1046F00020F079F4A6F50C941C250EF4E0950B2E11
:10470000BA2FA02D0B01B90190010C01CA01A00123
:104710001124FF27591B99F0593F50F4503E68F17E
:104720001A16F040A22F232F342F4427585FF3CFBF
:10473000469537952795A795F0405395C9F77EF490
:104740001F16BA0B620B730B840BBAF09150A1F0D9
:10475000FF0FBB1F661F771F881FC2F70EC0BA0F5F
:10476000621F731F841F48F4879577956795B795E7
:10477000F7959E3F08F0B0CF9395880F08F09927E2
:10478000EE0F9795879508950E94AE2408F481E076
:1047900008950E94DD230C94E9240E94E22458F03D
:1047A0000E94DB2440F029F45F3F29F00C94D224CE
:1047B00051110C941D250C94D8240E94FA2468F3FE
:1047C0009923B1F3552391F3951B550BBB27AA27CA
:1047D00062177307840738F09F5F5F4F220F331F04
:1047E000441FAA1FA9F335D00E2E3AF0E0E832D0CC
:1047F00091505040E695001CCAF72BD0FE2F29D0CF
:10480000660F771F881FBB1F261737074807AB07A0
:10481000B0E809F0BB0B802DBF01FF2793585F4F15
:104820003AF09E3F510578F00C94D2240C941D254B
:104830005F3FE4F3983ED4F3869577956795B795F7
:10484000F7959F5FC9F7880F911D9695879597F902
:104850000895E1E0660F771F881FBB1F621773077B
:104860008407BA0720F0621B730B840BBA0BEE1F90
:1048700088F7E09508950E9442246894B1110C9441
:104880001D2508950E94022588F09F5798F0B92FA2
:104890009927B751B0F0E1F0660F771F881F991F75
:1048A0001AF0BA95C9F714C0B13091F00E941C25D6
:1048B000B1E008950C941C25672F782F8827B85FE6
:1048C00039F0B93FCCF3869577956795B395D9F7CD
:1048D0003EF490958095709561957F4F8F4F9F4FD7
:1048E0000895E89409C097FB3EF4909580957095E3
:1048F00061957F4F8F4F9F4F9923A9F0F92F96E92C
:10490000BB279395F695879577956795B795F111A0
:10491000F8CFFAF4BB0F11F460FF1BC06F5F7F4F3D
:104920008F4F9F4F16C0882311F096E911C077234F
:1049300021F09EE8872F762F05C0662371F096E858
:10494000862F70E060E02AF09A95660F771F881F27
:10495000DAF7880F9695879597F90895990F0008CB
:10496000550FAA0BE0E8FEEF16161706E807F90741
:10497000C0F012161306E407F50798F0621B730BDC
:10498000840B950B39F40A2661F0232B242B252B5D
:1049900021F408950A2609F4A140A6958FEF811D00
:1049A000811D089597F99F6780E870E060E00895A1
:1049B0009FEF80EC089500240A9416161706180637
:1049C0000906089500240A94121613061406050613
:1049D0000895092E0394000C11F4882352F0BB0FA4
:1049E00040F4BF2B11F460FF04C06F5F7F4F8F4F07
:1049F0009F4F089557FD9058440F551F59F05F3F42
:104A000071F04795880F97FB991F61F09F3F79F0F0
:104A100087950895121613061406551FF2CF469572
:104A2000F1DF08C0161617061806991FF1CF8695F4
:104A30007105610508940895E894BB2766277727D8
:104A4000CB0197F908950E94AE2408F48FEF0895E2
:104A50000E943B250C94E9240E94DB2438F00E943C
:104A6000E22420F0952311F00C94D2240C94D82445
:104A700011240C941D250E94FA2470F3959FC1F314
:104A8000950F50E0551F629FF001729FBB27F00DFC
:104A9000B11D639FAA27F00DB11DAA1F649F662751
:104AA000B00DA11D661F829F2227B00DA11D621FA0
:104AB000739FB00DA11D621F839FA00D611D221F5A
:104AC000749F3327A00D611D231F849F600D211D3E
:104AD000822F762F6A2F11249F5750409AF0F1F0C1
:104AE00088234AF0EE0FFF1FBB1F661F771F881F2A
:104AF00091505040A9F79E3F510580F00C94D2246C
:104B00000C941D255F3FE4F3983ED4F3869577958A
:104B10006795B795F795E7959F5FC1F7FE2B880FCF
:104B2000911D9695879597F9089519F416F40C94AC
:104B3000D8240C94E0250E940225B8F39923C9F3E8
:104B4000B6F39F57550B87FF0E94EE250024A0E681
:104B500040EA900180585695979528F4805C660F3E
:104B6000771F881F20F026173707480730F4621B8D
:104B7000730B840B202931294A2BA695179407948F
:104B8000202531254A2758F7660F771F881F20F008
:104B900026173707480730F4620B730B840B200D80
:104BA000311D411DA09581F7B901842F9158880FBF
:104BB0009695879508950E94AE24880B990B0895C9
:104BC0009F3F31F0915020F4879577956795B79581
:104BD000880F911D9695879597F9089591505040AB
:104BE000660F771F881FD2F70895DB018F939F937D
:104BF0000E945226BF91AF91A29F800D911DA39F4D
:104C0000900DB29F900D11240895991B79E004C076
:104C1000991F961708F0961B881F7A95C9F78095FB
:104C20000895A1E21A2EAA1BBB1BFD010DC0AA1FED
:104C3000BB1FEE1FFF1FA217B307E407F50720F005
:104C4000A21BB30BE40BF50B661F771F881F991F80
:104C50001A9469F760957095809590959B01AC01C9
:104C6000BD01CF010895052E97FB1EF400940E940C
:104C70004A2657FD07D00E94112607FC03D04EF4A8
:104C80000C944A2650954095309521953F4F4F4FB3
:104C90005F4F089590958095709561957F4F8F4FE8
:104CA0009F4F08950E946326A59F900DB49F900D7D
:104CB000A49F800D911D11240895EE0FFF1F0590F4
:104CC000F491E02D0994A29FB001B39FC001A39F6E
:104CD000700D811D1124911DB29F700D811D112435
:104CE000911D08950F931F93CF93DF938230910509
:104CF00010F482E090E0E0916006F091610630E00F
:104D000020E0B0E0A0E0309799F42115310509F4D6
:104D10004AC0281B390B24303105D8F58A819B8184
:104D20006115710589F1FB0193838283FE0111C036
:104D3000408151810281138148175907E0F04817DB
:104D4000590799F4109761F012960C9312971396E5
:104D50001C933296CF01DF91CF911F910F9108954F
:104D60000093600610936106F4CF2115310551F0D0
:104D70004217530738F0A901DB019A01BD01DF0199
:104D8000F801C1CFEF01F9CF9093610680936006DF
:104D9000CDCFFE01E20FF31F819391932250310991
:104DA00039832883D7CF20915E0630915F06232B6D
:104DB00041F4209102013091030130935F0620936A
:104DC0005E0620910001309101012115310541F469
:104DD0002DB73EB74091040150910501241B350BBE
:104DE000E0915E06F0915F06E217F307A0F42E1B38
:104DF0003F0B2817390778F0AC014E5F5F4F24173F
:104E0000350748F04E0F5F1F50935F0640935E06D4
:104E1000819391939FCFF0E0E0E09CCFCF93DF931D
:104E20000097E9F0FC01329713821282A09160068C
:104E3000B0916106ED0130E020E01097A1F42081EF
:104E40003181820F931F20915E0630915F062817F3
:104E5000390709F061C0F0935F06E0935E06DF91C9
:104E6000CF910895EA01CE17DF07E8F54A815B810B
:104E70009E0141155105B1F7E901FB83EA83499190
:104E80005991C40FD51FEC17FD0761F48081918102
:104E90000296840F951FE90199838883828193810B
:104EA0009B838A83F0E0E0E012968D919C911397AA
:104EB0000097B9F52D913C911197CD010296820F83
:104EC000931F20915E0630915F062817390739F647
:104ED000309751F51092610610926006B0935F060C
:104EE000A0935E06BCCFD383C28340815181840FDF
:104EF000951FC817D90761F44E5F5F4F888199816C
:104F0000480F591F518340838A819B8193838283F9
:104F10002115310509F0B0CFF0936106E0936006EA
:104F20009ECFFD01DC01C0CF13821282D7CFB0E04B
:104F3000A0E0EDE9F7E20C94E6288C01009751F42B
:104F4000CB010E9472268C01C801CDB7DEB7E0E12B
:104F50000C940229FC01E60FF71F9C012250310935
:104F6000E217F30708F49DC0D901CD91DC911197A8
:104F7000C617D70798F0C530D10530F3CE01049796
:104F80008617970708F3C61BD70B2297C193D193B7
:104F90006D937C93CF010E940E27D6CF5B01AC1A94
:104FA000BD0A4C018C0E9D1EA0916006B091610659
:104FB000512C412CF12CE12C109731F580915E069B
:104FC00090915F068815990509F05CC04616570652
:104FD00008F058C08091000190910101009741F4C0
:104FE0008DB79EB74091040150910501841B950B2C
:104FF000E817F90708F055C0F0935F06E0935E06E6
:10500000F90171836083A0CF8D919C9111971296C5
:105010006C90129713967C901397A815B90559F5C3
:105020006C0142E0C40ED11CCA14DB0420F1AC01B7
:105030004A195B09DA011296159780F06282738231
:1050400051834083D9016D937C93E114F10471F095
:10505000D7011396FC93EE93129776CF22968C0F7E
:105060009D1FF90191838083F301EFCFF0936106D7
:10507000E093600669CF4816590608F42C017D01BB
:10508000D3019ACFCB010E9472267C01009749F090
:10509000AE01B8010E948428C8010E940E27870132
:1050A00053CF10E000E050CF1F93FC0199278827D1
:1050B000BC01E89411911032E9F3193010F01E3060
:1050C000C8F31B3251F01D3249F4689406C00E94A7
:1050D000B628610F711D811D911D119110531A3059
:1050E000B0F33EF490958095709561957F4F8F4F0A
:1050F0009F4F1F91089591110C94CB28803219F085
:1051000089508550C8F70895FB01DC0102C0019069
:105110000D9241505040D8F70895FC0181918617B7
:1051200021F08823D9F7992708953197CF01089561
:10513000FB01DC018D91019080190110D9F3990BCD
:105140000895FB01DC0101900D920020E1F7089524
:10515000FB01DC014150504030F08D9101908019ED
:1051600019F40020B9F7881B990B0895592F482F7F
:10517000372F262F660F771F881F991F660F771FFF
:10518000881F991F620F731F841F951F660F771F5B
:10519000881F991F0895992788270895F999FECFA8
:1051A00092BD81BDF89A992780B50895262FF99967
:1051B000FECF1FBA92BD81BD20BD0FB6F894FA9AFA
:1051C000F99A0FBE019608952F923F924F925F92E7
:1051D0006F927F928F929F92AF92BF92CF92DF9207
:1051E000EF92FF920F931F93CF93DF93CDB7DEB76C
:1051F000CA1BDB0B0FB6F894DEBF0FBECDBF099400
:105200002A88398848885F846E847D848C849B8456
:10521000AA84B984C884DF80EE80FD800C811B8164
:10522000AA81B981CE0FD11D0FB6F894DEBF0FBE93
:0A523000CDBFED010895F894FFCF03
:10523A0000006206800040420F00CDCC4C3E0000C8
:10524A0000403200E803016E6F7420736574002019
:10525A004F66667365742000204D756C74200020BB
:10526A0042616C20002052616E67652000205370F5
:10527A0065656420002044616D70200020467261DB
:10528A006E67652000205272616E676520002059A2
:10529A00200020582000204865696768742000456E
:1052AA004550524F4D3A00454550524F4D5F575267
:1052BA00495454454E00524541445F454550524F6A
:1052CA004D00454550524F4D5F444154413A0035D7
:1052DA003D002C363D002C373D002C383D002C3942
:1052EA003D002C31303D002C31343D0053555045A2
:1052FA00525343414C453230323020435241574C8D
:10530A004552204649524D57415245200041445684
:10531A00414E4345442053455454494E47533A005D
:10532A0048656967687420636F6E74726F6C206970
:10533A00732020202020202000656E61626C656445
:10534A000064697361626C65640053657269616CBB
:10535A00206F7574707574206973202020202000D6
:10536A0046726F6E7420736572766F7320726576FB
:10537A006572736520697320202020202020005246
:10538A0065617220736572766F73207265766572D5
:10539A007365206973202020202000537973746577
:1053AA006D2069732073657420746F2062652070A4
:1053BA006C616365642077697468206172726F77C3
:1053CA0020706F696E74696E672020202020004665
:1053DA006F7277617264005269676874004C65661F
:1053EA0074004261636B0053696477617973207357
:1053FA007761792073657420746F20202020200043
:10540A004D616B65207375726520746F20636F6ED2
:10541A006E6563742070696E203130206F6E20745F
:10542A006865204A535420636F6E6E6563746F72A9
:10543A0020746F20746865207369676E616C2070D0
:10544A00696E206F6E206120726563696576657288
:10545A00206368616E6E656C2000616E64207069FD
:10546A006E204720746F207468652067726F756EAE
:10547A00642070696E206F6E20746865207265639F
:10548A00656976657220666F7220686569676874F7
:10549A0020636F6E74726F6C005072657373207440
:1054AA006865205320627574746F6E20746F20745F
:1054BA006573742074686520736572766F732061F2
:1054CA006E64206272616B65206C69676874206F14
:1054DA00757470757400534554555020444F4E45A9
:1054EA0000D504CB04C1040000000007173617A436
:1054FA0016D016A716AE16C11600000000E91C1D2C
:10550A001E8A1CC91C5C1C761C681C0D0A006E6174
:0A551A006E00696E66006F76660091
:00000001FF
