:100000000C946A000C9492000C9492000C94E600FC
:100010000C9413010C9440010C9492000C949200E7
:100020000C9492000C94AF0E0C9492000C94F20A73
:100030000C9492000C9492000C9492000C949200F8
:100040000C947F140C9492000C94D6160C94081700
:100050000C9492000C9492000C9492000C949200D8
:100060000C94B2120C9492000000000900030200EC
:10007000000405080000000000000000000000016E
:10008000020408102040800102040810200102042C
:100090000810204080400404040404040404020204
:1000A000020202020303030303030202030000002F
:1000B0000023002600290000000000250028002B56
:1000C0000000000000240027002A0000750AD50E59
:1000D0009F11381711241FBECFEFD8E0DEBFCDBF70
:1000E00011E0A0E0B1E0E8E3F9E302C005900D9271
:1000F000A63CB107D9F724E0A6ECB1E001C01D92FF
:10010000A733B207E1F710E0CAE6D0E004C02197B8
:10011000FE010E946F1CC636D107C9F70E945A190A
:100120000C949A1C0C940000FF920F931F93CF9392
:10013000DF938C01D80117968C9117972091BA0202
:1001400015969C9115973091BA0216964C91169778
:10015000C091BA02C095C4239323C92B8227FC2ED9
:10016000F8228091BA0217968C9317971896CD9122
:10017000DC912097B1F08B81982F9F2171F09091A5
:10018000BA02892391E009F490E09093B8028C813F
:100190008093B902E881F98109950D80DE81C02D37
:1001A000E8CF9BB3F8018481982351F09BB3892B4E
:1001B0008BBB0190F081E02D80818093BA02BACF91
:1001C000DF91CF911F910F91FF9008951F920F9291
:1001D0000FB60F9211242F933F934F935F936F931A
:1001E0007F938F939F93AF93BF93EF93FF93E09190
:1001F000AE02F091AF0280818093BA028EEA92E063
:100200000E949400FF91EF91BF91AF919F918F91C8
:100210007F916F915F914F913F912F910F900FBE02
:100220000F901F9018951F920F920FB60F921124E6
:100230002F933F934F935F936F937F938F939F93EE
:10024000AF93BF93EF93FF93E091A402F091A502C7
:1002500080818093BA0284EA92E00E949400FF9128
:10026000EF91BF91AF919F918F917F916F915F912E
:100270004F913F912F910F900FBE0F901F901895A7
:100280001F920F920FB60F9211242F933F934F930B
:100290005F936F937F938F939F93AF93BF93EF93EE
:1002A000FF93E0919A02F0919B0280818093BA02C1
:1002B0008AE992E00E949400FF91EF91BF91AF9183
:1002C0009F918F917F916F915F914F913F912F916E
:1002D0000F900FBE0F901F901895AF92BF92CF92C4
:1002E000DF92EF92FF920F931F9381EE92E00E94B4
:1002F000590E6DE071E08AE993E00E94AC1761E36A
:1003000071E08AE993E00E94AC1762E08CE00E9401
:10031000691560E080E10E94691560E081E10E945A
:10032000691560E082E10E94691560E087E00E9443
:10033000691581E090E00E94841C813009F01CC1A5
:100340008093C6018CE00E94D315892B61F48091C3
:10035000C601882309F413C160E081E090E00E94A7
:100360008C1C1092C6018BEE92E00E94031140E8B3
:100370005AE166E070E08BEE92E00E94151162E0B7
:1003800087E00E94691581EE92E00E94760E9695B4
:1003900087957795679560936D0270936E02809351
:1003A0006F02909370028DE792E00E946B148EE0D2
:1003B0000E9422159093DA018093D901BC01990F14
:1003C000880B990B1F921F921F921F9238E2A32E47
:1003D000B12CC12CD12CE12CF12C87012FEF33E073
:1003E00040E050E00E9418190E94851A20E030E099
:1003F00040E251E40E94DB19609302017093030113
:1004000080930401909305018FE00E942215909340
:10041000DC018093DB01BC01990F880B990B1F92C3
:100420001F921F922CE82F93A12CB12C65012FEF66
:1004300033E040E050E00E9418190E94851A20E045
:1004400030E040E251E40E94DB19609306017093B2
:1004500007018093080190930901E12CF12C870199
:1004600020E030E040E050E461E070E087E192E0BD
:100470000E94120D4DEC5CEC6CE47EE387E192E0AF
:100480000E947E0C26E636E646E65FE360910601B2
:100490007091070180910801909109010E943A1B17
:1004A0009B01AC0161E070E08AEF91E00E94120DC7
:1004B0004091020150910301609104017091050186
:1004C0008AEF91E00E947E0C209106013091070195
:1004D000409108015091090161E070E08DED91E0DB
:1004E0000E94120D4091020150910301609104019C
:1004F000709105018DED91E00E947E0C24EC39E0B5
:1005000040E951E069E070E08EE492E00E94C80B9F
:1005100024EC39E040E951E066E070E08BE492E0E1
:100520000E94C80B24EC39E040E951E065E070E03E
:1005300088E492E00E94C80B24EC39E040E951E0E5
:1005400063E070E085E492E00E94C80B8DB79EB72F
:1005500008960FB6F8949EBF0FBE8DBF67E871E096
:100560008AE993E01F910F91FF90EF90DF90CF9079
:10057000BF90AF900C94AC171092C601E3CE61E02F
:1005800081E090E00E948C1C81E08093C601EBCE5C
:100590002F923F924F925F926F927F928F929F9293
:1005A000AF92BF92CF92DF92EF92FF920F931F9381
:1005B000CF93DF93CDB7DEB764970FB6F894DEBF65
:1005C0000FBECDBF8CE00E94D3159093D0018093D5
:1005D000CF018FE00E9422159093DC018093DB0114
:1005E0008EE00E9422159093DA018093D90186E073
:1005F0000E942215893E23E0920714F088EE93E0D2
:100600008431910514F484E190E09093D8018093B3
:10061000D70187E00E942215893E33E0930714F04A
:1006200088EE93E08431910514F484E190E0909396
:10063000D6018093D50180E10E942215893EA3E076
:100640009A0714F088EE93E08431910514F484E164
:1006500090E09093D4018093D30181E10E94221510
:10066000893EB3E09B0714F088EE93E08431910556
:1006700014F484E190E09093D2018093D1016091D1
:10068000DB017091DC01072E000C880B990B1F9287
:100690001F921F922CE82F93A12CB12C6501E12C05
:1006A000F12C87012FEF33E040E050E00E94181951
:1006B0000E94851A6B017C010F900F900F900F9094
:1006C00020E030E040E251E40E94D61987FDBAC62E
:1006D00020E030E040E752E4C701B6010E94351B3C
:1006E000181634F4C12CD12C70E7E72E72E4F72EE3
:1006F00020E030E040E251E4C701B6010E94DB197E
:10070000609306017093070180930801909309019B
:100710006091D9017091DA01072E000C880B990BBA
:100720001F921F921F921F9258E2A52EB12CC12C2E
:10073000D12CE12CF12C87012FEF33E040E050E089
:100740000E9418190E94851A6B017C010F900F906E
:100750000F900F9020E030E040E050E40E94D61966
:1007600087FD77C620E030E040E252E4C701B601E1
:100770000E94351B181634F4C12CD12C40E2E42E13
:1007800042E4F42E20E030E040E251E4C701B6013B
:100790000E94DB19609302017093030180930401AE
:1007A000909305016091D7017091D801072E000C3C
:1007B000880B990B1F921F921F921F92F8E7AF2E82
:1007C000B12CC12CD12C18EEE12E13E0F12E00E05B
:1007D00010E024E130E040E050E00E9418190E944F
:1007E000851A20E030E040E251E40E94DB1960937A
:1007F0003E0270933F0280934002909341026091C9
:10080000D5017091D601072E000C880B990B2FEFA4
:100810002F932F932F932CE92F93B4E6AB2EB12C6B
:10082000C12CD12C24E130E040E050E00E941819A6
:100830002AE0269FA001279F500D112450933D02CE
:1008400040933C026091D1017091D201072E000CBF
:10085000880B990B1F921F921F9224E62F93A12CB5
:10086000B12C650114E1E12EF12C00E010E028EE3E
:1008700033E040E050E00E9418190FB6F894DEBF54
:100880000FBECDBF6135710514F060E570E06431D5
:10089000710514F464E170E070930101609300014C
:1008A0006091D3017091D401072E000C880B990B35
:1008B0001F921F921F9224E62F93A12CB12C650149
:1008C00014E1E12EF12C00E010E028EE33E040E0EE
:1008D00050E00E9418190F900F900F900F906536FE
:1008E000710514F064E670E06A30710514F46AE092
:1008F00070E02AE0269FC001279F900D112490935D
:1009000035028093340261E7C62E62E0D62E73E78B
:10091000E72E72E0F72E05E712E027E732E049E71D
:1009200052E06BE772E08DE792E00E94F71340918E
:1009300002015091030160910401709105018AEF59
:1009400091E00E947E0C26E636E646E65FE3609183
:1009500006017091070180910801909109010E94A0
:100960003A1BAB01BC018AEF91E00E94B50C4091AB
:1009700002015091030160910401709105018DED18
:1009800091E00E947E0C4091060150910701609118
:100990000801709109018DED91E00E94B50C609104
:1009A000690270916A0280916B0290916C020E94C0
:1009B000851AAB01BC0187E192E00E94490D87E1F5
:1009C00092E00E94530E0E944D1A70939902609318
:1009D00098028091C601811142C5609175027091A3
:1009E0007602072E000C880B990B0E94851AAB012A
:1009F000BC018AEF91E00E94490D8AEF91E00E94CC
:100A0000530E0E944D1A70938D0260938C02609178
:100A1000730270917402072E000C880B990B0E94D0
:100A2000851AAB01BC018DED91E00E94490D8DED61
:100A300091E00E94530E0E944D1A70938F026093B2
:100A40008E0260918E0270918F02072E000C880B2F
:100A5000990B1F921F9237E03F93A0EDAF93A12C0B
:100A6000B12C650110EDE12E1AE8F12E0FEF1FEF0A
:100A700020E335E740E050E00E9418190E94851AF3
:100A800060935502709356028093570290935802D8
:100A900060918C0270918D02072E000C880B990BCF
:100AA0001F921F92B7E0BF9320ED2F9310E4E12E29
:100AB0001BE2F12E0EEF1FEF20EC34ED41E050E091
:100AC0000E9418190E94851A609351027093520275
:100AD00080935302909354020E94C9140FB6F89465
:100AE000DEBF0FBECDBF6838734181059105A8F107
:100AF0006091980270919902613D27E0720714F0AD
:100B000060ED77E0643833E0730714F464E873E071
:100B10007093990260939802072E000C880B990B32
:100B20001F921F9223E02F9324E82F932CE7A22EED
:100B30002CEFB22ECC24CA94DC2C10EDE12E17E061
:100B4000F12E00E010E024E833E040E050E00E94A5
:100B500018190F900F900F900F9010923902109269
:100B60003802109237021092360210923B02109215
:100B70003A028090510290905202A0905302B0909D
:100B80005402A5019401C501B4010E943A1B6D876E
:100B90007E878F87988B8091550290915602A09105
:100BA0005702B091580289879A87AB87BC879C010E
:100BB000AD0160E070E08AEF94E40E9469199B0146
:100BC000AC010E943A1B6B017C012D853E854F854F
:100BD00058890E946A190E94AD1B2B013C0180912B
:100BE0003E0290913F02A0914002B0914102898360
:100BF0009A83AB83BC8360913C0270913D02072EC7
:100C0000000C880B990B0E94851A6D837E838F835D
:100C1000988728EB36EC40EB54E4C301B2010E9404
:100C2000691929813A814B815C810E943A1B28EB2A
:100C300036EC40EB54E40E946A192D813E814F81CD
:100C400058850E946A1920E030E0A9010E946A19C3
:100C500020E030E0A9010E946A1920E030E0A901FB
:100C60000E946A192B013C0120E030E0A9010E949A
:100C7000D61987FD16C420E030EC40E355E4C301EB
:100C8000B2010E94351B18163CF4412C90EC592EF1
:100C900090E3692E95E4792E4092650250926602A7
:100CA0006092670270926802A501940160E070E0B2
:100CB0008AEF94E40E9469199B01AC010E943A1BDF
:100CC000698B7A8B8B8B9C8B9B01AC01C701B60126
:100CD0000E946A190E94AD1B28EB36EC40EB54E4ED
:100CE0000E94691929813A814B815C810E943A1BDB
:100CF00028EB36EC40EB54E40E946A192D813E81CA
:100D00004F8158850E946A1920E030E0A9010E94B5
:100D10006A1920E030E0A9010E946A196B017C0188
:100D200020E030E0A9010E94D61987FDBEC320E073
:100D300030EC40E355E4C701B6010E94351B18169C
:100D40003CF4C12C80ECD82E80E3E82E85E4F82E0C
:100D5000C0926102D0926202E0926302F092640259
:100D600029853A854B855C85CA01B9010E943A1BE9
:100D70004B015C012D853E854F8558890E946A197B
:100D80000E94AD1B28EB36EC40EB54E40E9469193D
:100D900029813A814B815C810E943A1B28EB36EC19
:100DA00040EB54E40E946A192D813E814F815885A1
:100DB0000E946A1920E030E0A9010E946A1920E02F
:100DC00030E0A9010E946A196B017C0120E030E04B
:100DD000A9010E94D61987FD6CC320E030EC40E3E6
:100DE00055E4C701B6010E94351B18163CF4C12C0E
:100DF00000ECD02E00E3E02E05E4F02EC0925D0260
:100E0000D0925E02E0925F02F092600229893A89F4
:100E10004B895C89C501B4010E946A190E94AD1B0F
:100E200028EB36EC40EB54E40E94691929813A81A1
:100E30004B815C810E943A1B28EB36EC40EB54E47A
:100E40000E946A192D813E814F8158850E946A193E
:100E500020E030E0A9010E946A196B017C0120E0CA
:100E600030E0A9010E94D61987FD27C320E030ECAD
:100E700040E355E4C701B6010E94351B18163CF447
:100E8000C12C10ECD12E10E3E12E15E4F12EC0920E
:100E90005902D0925A02E0925B02F0925C02809179
:100EA00000019091010164E670E0681B790B072E48
:100EB000000C880B990B0E94851A20E030E048EC6A
:100EC00052E40E94DB1969837A838B839C8360914F
:100ED000340270913502660F771F072E000C880BC5
:100EE000990B0E94851A4B015C0129813A814B8143
:100EF0005C810E943A1B6B017C0120E030E0A9017B
:100F00000E94D61987FDDDC220E030E04AE754E4B4
:100F1000C701B6010E94351B181634F4C12CD12C20
:100F2000AAE7EA2EA4E4FA2EC701B6010E944D1AE0
:100F30007093CE016093CD0129813A814B815C8110
:100F400060E070E080E89FE30E946919A5019401C8
:100F50000E943A1B6B017C0120E030E0A9010E9455
:100F6000D61987FDB2C220E030E04AE754E4C70159
:100F7000B6010E94351B181634F4C12CD12CFAE7A7
:100F8000EF2EF4E4FF2EC701B6010E944D1A7093B4
:100F9000CC016093CB0124EC39E03093970220938D
:100FA000960284EF91E0909395028093940230939F
:100FB0009302209392029093910280939002C30136
:100FC000B2010E944D1A1F921F9221E02F9324EF2D
:100FD0002F9324ECA22E29E0B22EC12CD12C1CE0A0
:100FE000E12E1BE0F12E00E010E020E030E0A9014E
:100FF0000E9418190E94851A609365027093660218
:101000008093670290936802A0909402B09095023A
:101010000B2C000CCC08DD0860916102709162021B
:1010200080916302909164020E944D1A2091960271
:10103000309197028901330F220B330B3F932F938B
:101040001F930F931CE0E12E1BE0F12E00E010E057
:1010500020E030E0A9010E9418190E94851A6093CF
:101060006102709362028093630290936402A09085
:101070009202B09093020B2C000CCC08DD0860911A
:101080005D0270915E0280915F02909160020E9409
:101090004D1A20919002309191028901330F220B59
:1010A000330B3F932F931F930F931CE0E12E1BE014
:1010B000F12E00E010E020E030E0A9010E941819B4
:1010C0000E94851A60935D0270935E0280935F02B6
:1010D00090936002A0909002B09091020B2C000CB3
:1010E000CC08DD086091590270915A0280915B0230
:1010F00090915C020E944D1A2091920230919302CD
:101100008901330F220B330B3F932F931F930F93C0
:101110001CE0E12E1BE0F12E00E010E020E030E0CA
:10112000A9010E9418190E94851A3B014C01809167
:10113000CD019091CE017C01A4E2EA1AAAEFFA0A4D
:101140000091650210916602B0916702BD83209103
:10115000680229836CED75E0681B790B072E000C83
:10116000880B990B0E94851A5B016C010FB6F894ED
:10117000DEBF0FBECDBF9B01AC01B8018D8199814F
:101180000E94D61987FDA5C1B7010F2C000C880B52
:10119000990B0E94851A1B012C019B01AC01B8011F
:1011A0008D8199810E94351B18161CF481014D8296
:1011B0005982C801AD81B98180936502909366021E
:1011C000A0936702B09368020091610210916202DD
:1011D000909163029D83A0916402A9839501A60169
:1011E000B801892F9A2F0E94D61987FD76C1B701C1
:1011F000FF0C880B990B0E94851A6B017C019B01E7
:10120000AC01B8018D8199810E94351B18161CF420
:101210008601ED82F982C801AD81B98180936102B6
:1012200090936202A0936302B09364028091CB0119
:101230009091CC015C01B4E2AB1ABAEFBB0A2091E9
:101240005D022D8330915E02398340905F025090A1
:1012500060026CED75E0681B790B072E000C880BA3
:10126000990B0E94851A6B017C019B01AC016D8179
:101270007981C2010E94D61987FD33C1B5010B2CBB
:10128000000C880B990B0E94851A1B018C019B0195
:10129000AC016D817981C2010E94351B18161CF4C6
:1012A0002D82398228018D819981D20180935D023E
:1012B00090935E02A0935F02B09360029601A70133
:1012C000B301C4010E94D61987FD12C0B501BB0C41
:1012D000880B990B0E94851A6B017C019B01AC0164
:1012E000B301C4010E94351B181614F06301740188
:1012F000C601D7018093590290935A02A0935B02D2
:10130000B0935C0288E391E00E94841C8D3E09F05A
:1013100056C00E94C9140091C7011091C8012091C4
:10132000C9013091CA01601B710B820B930B6531AF
:1013300071058105910508F442C0609165027091C4
:10134000660280916702909168020E944D1A8EE4B5
:1013500092E00E94470C609161027091620280915C
:101360006302909164020E944D1A8BE492E00E9405
:10137000470C60915D0270915E0280915F029091D6
:1013800060020E944D1A88E492E00E94470C60912E
:10139000590270915A0280915B0290915C020E9406
:1013A0004D1A85E492E00E94470C0E94C914609394
:1013B000C7017093C8018093C9019093CA018CE062
:1013C0000E94D315892BC1F46CED75E08EE492E098
:1013D0000E94470C6CED75E08BE492E00E94470C94
:1013E0006CED75E088E492E00E94470C6CED75E0CE
:1013F00085E492E00E94470C40916502509166029C
:10140000609167027091680222E030E08AE993E01F
:1014100064960FB6F894DEBF0FBECDBFDF91CF91BB
:101420001F910F91FF90EF90DF90CF90BF90AF9002
:101430009F908F907F906F905F904F903F902F90F4
:101440000C940619C12CD12C60E2E62E61E4F62E34
:101450004FC9C12CD12CE12C30E4F32E93C96091FB
:10146000730270917402072E000C880B990B0E9476
:10147000851AAB01BC018AEF91E00E94490D8AEF09
:1014800091E00E94530E0E944D1A70938D0260935A
:101490008C02609175027091760271956195710967
:1014A000BACA412C512C3201F7CBC12CD12C760178
:1014B0004FCCC12CD12C7601A1CCC12CD12C7601E2
:1014C000E6CCC12CD12C76012FCDC12CD12C7601AC
:1014D0005ACD8501CD82D9826CCE8501CD82D9824B
:1014E0009ACECD82D9822701DECECF92DF92EF92C3
:1014F000FF920F931F93E1EBF0E085919491EEEA58
:10150000F2E0918380838BE690E09383828381E095
:1015100084831582168211861086E3EBF0E08591B4
:101520009491E4EAF2E0918380838CE690E09383E7
:10153000828382E084831582168211861086E5EB11
:10154000F0E085919491EAE9F2E0918380838DE661
:1015500090E09383828384E08483158216821186CF
:10156000108668E68DE792E00E94DE138EE492E03A
:101570000E94AD0B8BE492E00E94AD0B88E492E0F8
:101580000E94AD0B85E492E00E94AD0B82E492E0F4
:101590000E94AD0BC12CD12C760100E010E020E8B8
:1015A0003FE3B901A80187E192E00E94DE0C00E070
:1015B00010E020E83FE3B901A8018AEF91E00E9422
:1015C000DE0C00E010E020E83FE3B901A8018DED5A
:1015D00091E00E94DE0C1F910F91FF90EF90DF9041
:1015E000CF9008951F920F920FB60F9211242F9350
:1015F0003F934F935F936F937F938F939F93AF939B
:10160000BF93EF93FF938091BC0287FF27C0109296
:101610008500109284008091BC028F5F8093BC0291
:101620008091BC02082E000C990B2091BB02281758
:10163000190629F024F08091BC028C30DCF18091F5
:10164000840090918500049680349C4908F47BC006
:101650008091840090918500049677C08091BC02AF
:10166000082E000C990B2091BB022817190699F23D
:1016700094F2E091BC028E2FEE0F990BFC01EE0F5D
:10168000FF1FE80FF91FE354FD4F808186FFC3CF92
:10169000E091BC028E2FEE0F990BFC01EE0FFF1FA5
:1016A000E80FF91FE354FD4F808160E08F730E94C3
:1016B000A515B1CF2091840030918500E091BC0246
:1016C0008E2FEE0F990BFC01EE0FFF1FE80FF91F95
:1016D000E354FD4F81819281820F931F9093890083
:1016E00080938800E091BC028E2FEE0F990BFC01D5
:1016F000EE0FFF1FE80FF91FE354FD4F808186FFB7
:1017000011C0E091BC028E2FEE0F990BFC01EE0F81
:10171000FF1FE80FF91FE354FD4F808161E08F73D5
:101720000E94A515FF91EF91BF91AF919F918F916D
:101730007F916F915F914F913F912F910F900FBECD
:101740000F901F90189580E49CE9909389008093F6
:1017500088008FEF8093BC02E5CFFC019091BB0223
:101760009C3098F481E0890F8093BB029083892F8D
:1017700090E0FC01EE0FFF1FE80FF91FE354FD4F4F
:1017800088EB9BE09283818308958FEF8083089597
:10179000DF92EF92FF920F931F93CF93DF93EC01B1
:1017A000D62E7A01890188818C3008F067C061E00B
:1017B0008D2D0E9469158881282F30E0F901EE0FE8
:1017C000FF1FE20FF31FE354FD4F9D2D9F736081B8
:1017D000607C692B608320E232E02E193F0937FFDD
:1017E00002C02D5F3F4F3595279535952795298365
:1017F00020E639E0201B310B37FF02C02D5F3F4F41
:1018000035952795359527952A832CE0622F0E94E0
:10181000171C829FB001112430E020E0AB01420F81
:10182000531FFA01EE0FFF1FE40FF51FE354FD4FA6
:10183000908196FD16C02F5F3F4F2C30310571F718
:1018400081110FC01092800082E08093810010927D
:10185000850010928400B19A80916F00826080931D
:101860006F00E8818E2F90E0FC01EE0FFF1FE80F64
:10187000F91FE354FD4F8081806480838881DF916C
:10188000CF911F910F91FF90EF90DF900895DC01B1
:10189000EC91EC3090F511968C91119728E830E09E
:1018A000281B310987FD3395220F331F220F331F69
:1018B0006217730784F012968C9128E532E0281B9A
:1018C000310987FD3395220F331F220F331F621713
:1018D00073070CF49B0122503109220F331F4FB7BD
:1018E000F8948E2F90E0FC01EE0FFF1FE80FF91F18
:1018F000E354FD4F328321834FBF0895CF92DF928F
:10190000EF92FF92CF93DF93EC016A017B012FE608
:1019100032E143E85AE3CB01B6010E94D61987FDB4
:1019200011C020E030E04AE754E4C701B6010E944C
:10193000351B18167CF4C12CD12C8AE7E82E84E4E0
:10194000F82E08C09FE6C92E92E1D92E93E8E92E21
:101950009AE3F92EC88AD98AEA8AFB8ADF91CF9165
:10196000FF90EF90DF90CF900895CF92DF92EF92AB
:10197000FF92CF93DF93EC016A017B0120E030E01E
:10198000A901CB01B6010E94351B181624F0F7FA05
:10199000F094F7F8F0942BED3FE049EC50E4C701E8
:1019A000B6010E943A1B6C8B7D8B8E8B9F8BDF91D7
:1019B000CF91FF90EF90DF90CF9008958F929F92FC
:1019C000AF92BF92CF92DF92EF92FF920F931F934D
:1019D000CF93DF93EC014A015B01B901A801C882F2
:1019E000D982EA82FB821C821D821E821F82188E8F
:1019F0000E947E0CB501A401CE010E94B50C0E948C
:101A0000D514698F7A8F8B8F9C8FDF91CF911F9127
:101A10000F91FF90EF90DF90CF90BF90AF909F908D
:101A20008F900895EF92FF920F931F93CF93DF93C0
:101A3000EC01FB01CA01B901188EE882F9820A8320
:101A40001B833097D1F42AE037ED43EA5FE30E942D
:101A50003A1BAB01BC01CE010E94B50C8DE790EDA5
:101A6000A3E1BFE3888B998BAA8BBB8BDF91CF91CE
:101A70001F910F91FF90EF9008953197B9F7A90149
:101A8000BC01CE010E94B50C81E894E0A5E3BFE360
:101A9000E9CF2F923F924F925F926F927F928F92F7
:101AA0009F92AF92BF92CF92DF92EF92FF920F93ED
:101AB0001F93CF93DF93CDB7DEB72A970FB6F89475
:101AC000DEBF0FBECDBF9A8789872A013B01DC01AB
:101AD0001C964D925D926D927C921F970E94D51438
:101AE0006B017C01E985FA85818D928DA38DB48D82
:101AF000A7019601281B390B4A0B5B0BCA01B901E0
:101B00000E94851A2DEB37E346E855E30E943A1B05
:101B10004B015C01A985BA855996CD92DD92ED9273
:101B2000FC925C975496CD90DD90ED90FC90579789
:101B300020E030E0A9010E94D61987FDAFC0A701BF
:101B4000960160E070E080E89FE30E94DB19162FA9
:101B5000072F382E292E262F372F482F592FB40123
:101B6000C5010E94351B181624F0182D092D3A2C9A
:101B70002B2CA7019601C701B6010E943A1B6D8369
:101B80007E838F839887E985FA8584809580A680F7
:101B9000B780208131814281538129833A834B83ED
:101BA0005C839B01AC01C301B2010E943A1B2B0173
:101BB0003C01E985FA852089318942895389C70129
:101BC000B6010E94DB19A50194010E943A1B9B01FA
:101BD000AC01C301B2010E9469196B017C012D8126
:101BE0003E814F81588569817A818B819C810E94D9
:101BF0003A1B9B01AC01C701B6010E946919212F54
:101C0000302F432D522D0E943A1BA50194010E94B2
:101C10006A196B017C01AC019B01C501B4010E94F2
:101C20006A1920E030E040E05FE30E943A1BA9859A
:101C3000BA8518966D937D938D939C931B97212F56
:101C4000302F432D522D0E943A1B29813A814B811E
:101C50005C810E946A19E985FA85608371838283B9
:101C60009383C482D582E682F7822A960FB6F894CF
:101C7000DEBF0FBECDBFDF91CF911F910F91FF90BF
:101C8000EF90DF90CF90BF90AF909F908F907F901C
:101C90006F905F904F903F902F90089510E000E07C
:101CA000312C212C66CFFC0160817181828193816E
:101CB0000895CF93DF93A0EBB0E02C91EC0128873F
:101CC000E1EBF0E0208129878081887F826080833A
:101CD000C0E7D0E08881816088838C918C7F8C9371
:101CE0008081877F8083DF91CF910895FC013FB78A
:101CF000F8942091B200B89B0EC02091B200808170
:101D00009181A281B3810196A11DB11D8083918330
:101D1000A283B383B89A80819181A281B381BA2FC3
:101D2000A92F982F8827820F911DA11DB11D848393
:101D30009583A683B7833FBF648175818681978130
:101D40000895FC0140815181628173814F5F5F4F33
:101D50006F4F7F4F408351836283738308951F9237
:101D60000F920FB60F9211242F933F934F935F93CF
:101D70006F937F938F939F93AF93BF93EF93FF9353
:101D800081EE92E00E94A10EFF91EF91BF91AF9181
:101D90009F918F917F916F915F914F913F912F9183
:101DA0000F900FBE0F901F901895E1EEF2E0108299
:101DB000118212821382148215821682178208956C
:101DC000FF920F931F93CF93DF93C62F042FF22E12
:101DD000132F682F8BEE92E00E9419116C2F8BEE5F
:101DE00092E00E94A710CF2DD12F0C0F1D2F111D97
:101DF000C017D10731F069918BEE92E00E94A710D5
:101E0000F7CF8BEE92E00E949C1191E0811190E05F
:101E1000892FDF91CF911F910F91FF900895CF935C
:101E2000DF931F92CDB7DEB749839E012F5F3F4FEF
:101E300041E00E94E00E0F90DF91CF9108953F9214
:101E40004F925F926F927F928F929F92AF92BF92CA
:101E5000CF92DF92EF92FF920F931F93CF93DF9376
:101E600000D000D0CDB7DEB78C83D62E4B833A831B
:101E700029830E94C9144B015C01312CC12C2B8198
:101E8000E22EF12C2801712C612C8B81381608F080
:101E900049C06C818BEE92E00E9419116D2D8BEE82
:101EA00092E00E94A7108BEE92E00E949C116C8140
:101EB0008BEE92E00E941911A7014319510941329A
:101EC000510514F040E250E06C818BEE92E00E94EC
:101ED00099118BEE92E00E944710892BD9F00115E1
:101EE000110569F48BEE92E00E944E10E981FA81AF
:101EF000EC0DF11DC7FCFA958083C394EACF0E94D4
:101F0000C914681979098A099B096415750586053C
:101F1000970540F38E2D91E2E916F1040CF080E272
:101F2000380EB3CF01151105C1F00E94C91468190C
:101F300079098A099B0930E020E060177107820760
:101F4000930758F08C2D0C2C000C990B2B81281723
:101F5000190619F014F0CC24CA948C2D0F900F9010
:101F60000F900F90DF91CF911F910F91FF90EF9005
:101F7000DF90CF90BF90AF909F908F907F906F90A9
:101F80005F904F903F9008950F931F9389019A019E
:101F900041E00E941F0F1F910F910895EF92FF9251
:101FA0000F931F93CF93DF931F92CDB7DEB7182FF8
:101FB000062FE42EF22E20910A0130910B01AE0182
:101FC0004F5F5F4F0E94C40F81E090E001C0880F17
:101FD000EA94EAF74981FF2071F0482B4983602F8A
:101FE000812F0E940F0F0F90DF91CF911F910F91C2
:101FF000FF90EF90089580954823F0CFDF92EF9205
:10200000FF920F931F93CF93DF931F92CDB7DEB74D
:10201000F82EE62E142FD22E20910A0130910B01BA
:10202000AE014F5F5F4F0E94C40F882359F1812F8B
:102030008D19990BAC014F5F5F4F81E090E002C0BA
:10204000880F991FDA94E2F70197042E01C0880FD8
:102050000A94EAF701C0000F4A95EAF7482F409525
:10206000998149238023482B49836E2D8F2D0E940F
:102070000F0F0F90DF91CF911F910F91FF90EF9075
:10208000DF90089580E0F5CF90E080E008958091A2
:102090001F0390912003891B990B089590912003B1
:1020A00080911F032FEF3FEF981748F4E92FF0E0DE
:1020B000EF5DFC4F208130E09F5F90932003C901CA
:1020C0000895E091200380911F03E81730F4F0E0B9
:1020D000EF5DFC4F808190E008958FEF9FEF0895B2
:1020E0000895CF93DF93EC01E091F702F091F802AD
:1020F0003097F1F09091200380911F039817C0F062
:1021000090E0292F30E02617370754F4DE01A20FA4
:10211000B31F4C912F5D3C4FD9014C939F5FF1CF82
:102120001092200360931F03CB01DF91CF9109949C
:10213000DF91CF910895E091F902F091FA02309782
:1021400029F01092FD021092FC0209940895CF9399
:10215000DF931F92CDB7DEB769832091FB02222364
:10216000F9F02091FC02203258F021E030E0FC012F
:102170003383228390E080E00F90DF91CF91089528
:102180008091FD02E82FF0E0E250FD4F99819083AD
:102190008F5F8093FD028093FC0281E090E0ECCFA2
:1021A00061E0CE0101960E947112F7CFCF92DF92CB
:1021B000EF92FF920F931F93CF93DF937C01CB019C
:1021C0008A012091FB02222389F0EB016B01C40EEE
:1021D000D51ECC15DD0569F06991D701ED91FC9113
:1021E0000190F081E02DC7010995F3CF642F0E9483
:1021F0007112C801DF91CF911F910F91FF90EF9065
:10220000DF90CF9008951092200310921F03109238
:10221000FD021092FC020E94B0118BE990E10E9435
:102220009D1281E790E10C949812CB01BA010C94B5
:10223000CE1181E08093FB0260931E031092FD0299
:102240001092FC0208950F93062F21E04091FC02AA
:102250006EEF72E080911E030E9421121092FD0227
:102260001092FC021092FB020F9108954F925F9220
:102270006F927F92AF92BF92CF92EF92FF920F93A5
:102280001F93CF93DF935C01F62ED42F28013901E1
:10229000EE2019F10E941911CE2DC43008F0C3E0D0
:1022A000C150B8F028E0C29FC0011124A3019201DF
:1022B00004C056954795379527958A95D2F7B90169
:1022C000D501ED91FC910190F081E02DC5010995BA
:1022D000E7CF60E0C5010E9423114D2FD13208F0F5
:1022E00040E22C2D61E273E08F2D0E94E1111092EB
:1022F000200380931F03DF91CF911F910F91FF90D7
:10230000EF90CF90BF90AF907F906F905F904F9085
:102310000895CF92EF920F931F93C22EE12C00E00D
:1023200010E098010E9436111F910F91EF90CF900D
:10233000089521E00C94891161E00C942311EBEED7
:10234000F2E01382128288EE93E0A0E0B0E0848392
:102350009583A683B78386E991E09183808308956E
:102360001092900381E080938E0310928D0361E0C0
:1023700082E10E94A51561E083E10E94A515E9EBC9
:10238000F0E080818E7F808380818D7F808388E4F0
:102390008093B80085E48093BC0008959B01AC0154
:1023A00060E074E284EF90E00E94231C2051310928
:1023B0004109510956954795379527952093B800BF
:1023C00008954132E0F5909190039111FCCF91E096
:1023D0009093900320938E032FEF209341037093EB
:1023E00088036093870310928603240F209385034C
:1023F00090938F0390918F03880F892B80938F0385
:1024000080918D038130C9F410928D0380918F03E8
:102410008093BB008091BC0083FDF8CF85EC809356
:10242000BC00809190038130E1F380918603841792
:1024300010F440918603842F089585EEF0CF40E09C
:10244000FACF0F93413208F044C09091900391115C
:10245000FCCF92E09093900300938E039FEF9093B4
:10246000410370938803609387031092860340931F
:10247000850310928F0390918F03880F892B80938F
:102480008F0380918D03813011F510928D0380911F
:102490008F038093BB008091BC0083FDF8CF85EC57
:1024A0008093BC00222321F0809190038230D1F3ED
:1024B000809141038F3F79F080914103803269F030
:1024C00080914103803359F084E00F91089585EEA7
:1024D000E7CF81E0FACF80E0F8CF82E0F6CF83E06B
:1024E000F4CF20916303260F3327331F21323105A8
:1024F000ECF420919003FC0190E080E0243069F03E
:1025000082E00895A09163032191AC014B595C4F87
:10251000A40FB52FB11D2C930196861798F38091C7
:102520006303680F6093630380E0089581E008957A
:1025300090938A0380938903089590938C038093EA
:102540008B03089585ED8093BC008091BC0084FDD1
:10255000FCCF10929003089585EC8093BC001092FC
:10256000900308951F920F920FB60F9211242F938C
:102570003F934F935F936F937F938F939F93AF930B
:10258000BF93EF93FF938091B900887F803609F461
:102590004CC008F03FC0883209F4A8C018F580315B
:1025A00009F49CC0B8F4882309F405C1883009F403
:1025B00095C0FF91EF91BF91AF919F918F917F91C6
:1025C0006F915F914F913F912F910F900FBE0F90A0
:1025D0001F901895883109F489C0803251F7809393
:1025E000410315C0803409F4A6C048F48033B9F320
:1025F0008833F9F6809341030E94AC12DACF80351C
:1026000009F489C0883509F49EC0883491F60E9487
:10261000A212CFCF883909F494C038F5883729F051
:1026200050F4883611F0803721F683E080939003D0
:102630001092420357C0883809F483C0803919F0DA
:10264000803809F0B6CF80914203803208F079C01B
:10265000E091420381E08E0F809342038091BB00A2
:10266000F0E0ED5BFC4F80833DC0803B39F0E0F44F
:10267000803A09F485C0883A09F09BCF84E08093C2
:1026800090031092640310926303E0918B03F09126
:102690008C0309958091630381110FC081E08093C1
:1026A00063031092650309C0803C09F482C0883C32
:1026B00009F47FC0883B09F07CCFE091640381E09E
:1026C0008E0F80936403F0E0EB59FC4F8081809380
:1026D000BB00909164038091630331C080918F03AC
:1026E0008093BB0085EC8093BC0063CF9091860300
:1026F000809185039817B8F580918703909188039E
:10270000E091860321E02E0F20938603E80FF92F36
:10271000F11D8081E5CF2091870330918803E091FE
:10272000860381E08E0F809386038091BB00E20FC9
:10273000F32FF11D80839091860380918503981774
:1027400088F285E8D0CF2091870330918803E0910B
:10275000860381E08E0F809386038091BB00E20F99
:10276000F32FF11D808380918E03811150CF81E082
:1027700080938D0384EA8093BC001092900319CF5C
:102780000E94AC1280914203803230F4E091420307
:10279000F0E0ED5BFC4F10826091420370E0E0914D
:1027A0008903F0918A0383E493E009951092420330
:1027B00000CF85ECE0CF1092410329CFFC0160836C
:1027C00008950F93062F22E044E06BE1FC01808125
:1027D0000E94FE0F0F9108950F93062F22E044E010
:1027E0006CE1FC0180810E94FE0F0F9108954F92D1
:1027F0005F926F927F928F929F92AF92BF92CF9291
:10280000DF92EF92FF920F931F93CF93DF93EC0130
:102810003B014A015901280100910A0110910B0165
:102820009C012F5F3F4F4EE06BE388810E941F0F9A
:1028300089819A81982789279827F301918380833A
:102840008B819C81982789279827F4019183808325
:102850008D819E81982789279827F5019183808310
:1028600089859A85982789279827F2019183808303
:102870008B859C85982789279827F70191838083EA
:102880008D859E85982789279827F60191838083D7
:10289000DF91CF911F910F91FF90EF90DF90CF903C
:1028A000BF90AF909F908F907F906F905F904F9070
:1028B0000895262F46E06BE6FC0180810C94CE0F34
:1028C0000F93062F23E042E06BE6FC0180810E941B
:1028D000FE0F0F910895CF93DF93EC0161E00E940A
:1028E000601460E0CE010E94E11360E0CE010E941E
:1028F000EC1360E0CE01DF91CF910C9459141F923C
:102900000F920FB60F9211242F933F938F939F93A3
:10291000AF93BF938091960390919703A0919803F2
:10292000B09199033091950323E0230F2D3768F17F
:1029300026E8230F0296A11DB11D209395038093D5
:10294000960390939703A0939803B0939903809173
:10295000910390919203A0919303B09194030196F7
:10296000A11DB11D8093910390939203A0939303B3
:10297000B0939403BF91AF919F918F913F912F910D
:102980000F900FBE0F901F9018950196A11DB11DBD
:10299000D4CF2FB7F89460919603709197038091EC
:1029A0009803909199032FBF08953FB7F8948091B1
:1029B000910390919203A0919303B091940326B553
:1029C000A89B05C02F3F19F00196A11DB11D3FBF67
:1029D000BA2FA92F982F8827BC01CD01620F711D36
:1029E000811D911D42E0660F771F881F991F4A9530
:1029F000D1F70895789484B5836084BD85B58360EC
:102A000085BDEEE6F0E0808181608083E1E8F0E062
:102A100082E08083808181608083E0E8F0E08081D3
:102A200081608083E1EBF0E0808184608083E0EB73
:102A3000F0E080818160808387E880937A00109243
:102A4000C1000895883020F08D3008F48DE08E505C
:102A500020910C0190E4299F900111248770822B12
:102A600080937C0080917A00806480937A008091CA
:102A70007A0086FDFCCF80917800909179000895CE
:102A8000843081F028F48230E9F08330F9F0089541
:102A9000883071F0893091F08530B9F480918000F0
:102AA0008F7D03C0809180008F7780938000089590
:102AB0008091B0008F778093B00008958091B0002E
:102AC0008F7DF9CF84B58F7784BD089584B58F7DD0
:102AD000FBCFCF93DF9390E0FC01E158FF4F2491AF
:102AE0008A569F4FFC0184918823C9F090E0880F9B
:102AF000991FFC01EF53FF4FA591B491FC01E954DC
:102B0000FF4FC591D49161110DC09FB7F8948C917E
:102B1000209582238C938881282328839FBFDF916F
:102B2000CF910895623051F49FB7F8943C91822F71
:102B3000809583238C93E8812E2BEFCF8FB7F89469
:102B4000EC912E2B2C938FBFEACF1F93CF93DF9363
:102B5000282F30E0F901E859FF4F8491F901E1583D
:102B6000FF4FD491F901EA56FF4FC491CC23A9F04D
:102B7000162F81110E944015EC2FF0E0EE0FFF1F81
:102B8000E954FF4FA591B4918FB7F894EC911111CE
:102B900008C0D095DE23DC938FBFDF91CF911F91CA
:102BA0000895DE2BF8CFCF93DF93282F30E0F90183
:102BB000E859FF4F8491F901E158FF4FD491F90191
:102BC000EA56FF4FC491CC23A1F081110E94401519
:102BD000EC2FF0E0EE0FFF1FE355FF4FA591B491EE
:102BE000EC91ED2381E090E009F480E0DF91CF915A
:102BF000089580E090E0FACFFC01918D228D892F1D
:102C000090E0805C9F4F821B91098F7399270895F4
:102C1000FC01918D828D981731F0828DE80FF11DA6
:102C2000858D90E008958FEF9FEF0895FC01918DC1
:102C3000828D981761F0A28DAE0FBF2FB11D5D96EA
:102C40008C91928D9F5F9F73928F90E008958FEF8C
:102C50009FEF0895FC01538D448D252F30E0842F84
:102C600090E0821B930B541710F0CF9608950197B4
:102C700008958EE297E1892B49F080E090E0892B5E
:102C800029F00E942E1781110C9400000895FC0178
:102C9000A48DA80FB92FB11DA35ABF4F2C91848DBD
:102CA00090E001968F739927848FA689B7892C931A
:102CB000A089B1898C91837080648C93938D848D6D
:102CC000981306C00288F389E02D80818F7D808370
:102CD0000895CF93DF93EC01888D8823B9F0AA89FA
:102CE000BB89E889F9898C9185FD03C0808186FDC7
:102CF0000DC00FB607FCF7CF8C9185FFF2CF808116
:102D000085FFEDCFCE010E944716E9CFDF91CF912D
:102D10000895EF92FF920F931F93CF93DF93EC01EF
:102D200081E0888F9B8D8C8D98131AC0E889F98972
:102D3000808185FF15C09FB7F894EE89FF89608375
:102D4000E889F98980818370806480839FBF81E0F6
:102D500090E0DF91CF911F910F91FF90EF90089538
:102D6000F62E0B8D10E00F5F1F4F0F731127E02E13
:102D70008C8D8E110CC00FB607FCFACFE889F9894B
:102D8000808185FFF5CFCE010E944716F1CFEB8DF4
:102D9000EC0FFD2FF11DE35AFF4FF0829FB7F8941F
:102DA0000B8FEA89FB8980818062CFCF1F920F92BF
:102DB0000FB60F9211242F938F939F93EF93FF934E
:102DC000E091AA03F091AB038081E091B003F09110
:102DD000B10382FD1BC090818091B3038F5F8F731D
:102DE0002091B403821741F0E091B303F0E0E6567E
:102DF000FC4F958F8093B303FF91EF919F918F913B
:102E00002F910F900FBE0F901F9018958081F4CFD7
:102E10001F920F920FB60F9211242F933F934F934F
:102E20005F936F937F938F939F93AF93BF93EF9332
:102E3000FF938AE993E00E944716FF91EF91BF91BB
:102E4000AF919F918F917F916F915F914F913F9142
:102E50002F910F900FBE0F901F9018958AE993E065
:102E60000E94FC1521E0892B09F420E0822F0895AF
:102E7000EAE9F3E01382128288EE93E0A0E0B0E08A
:102E800084839583A683B78388EA91E091838083C6
:102E900085EC90E09587848784EC90E0978786871F
:102EA00080EC90E0918B808B81EC90E0938B828B17
:102EB00082EC90E0958B848B86EC90E0978B868BF0
:102EC000118E128E138E148E0895AF92BF92CF92F0
:102ED000DF92EF92FF920F931F93CF93DF936C01DA
:102EE0007B018B01040F151FEB015E01AE18BF08BB
:102EF000C017D10759F06991D601ED91FC9101906D
:102F0000F081E02DC6010995892B79F7C501DF9184
:102F1000CF911F910F91FF90EF90DF90CF90BF90D6
:102F2000AF900895FB0101900020E9F73197AF01C0
:102F3000461B570BDC01ED91FC910280F381E02DE3
:102F40000994DC01ED91FC910190F081E02D099450
:102F500066EB71E00C9492170F931F93CF93DF935E
:102F60008C01D0E0C0E06115710519F00E94921744
:102F7000EC01C8010E94A8178C0F9D1FDF91CF9113
:102F80001F910F9108958F929F92AF92BF92EF92EF
:102F9000FF920F931F93CF93DF93CDB7DEB7A19727
:102FA0000FB6F894DEBF0FBECDBF7C01FA01CB0196
:102FB00019A2223008F42AE08E010F5D1F4F822EE5
:102FC000912CB12CA12CBF01A50194010E94231CBE
:102FD000F901CA016A300CF5605DD8016E938D016C
:102FE000232B242B252B79F790E080E0109721F0FC
:102FF000BD01C7010E949217A1960FB6F894DEBFDB
:103000000FBECDBFDF91CF911F910F91FF90EF9039
:10301000BF90AF909F908F900895695CDECF21158F
:10302000310541F4DC01ED91FC910190F081E02D3E
:10303000642F09940C94C3179A01AB0170E060E00F
:103040000C940F182F923F924F925F926F927F9243
:103050008F929F92AF92BF92CF92DF92EF92FF92A8
:103060001F93CF93DF93EC016A017B01722EAB01BA
:103070009601CB01B6010E94ED1B69EB71E0811155
:1030800026C046015701E894B7F82FEF3FEF4FE70E
:103090005FE7C501B4010E94ED1B81110CC02FEF49
:1030A0003FEF4FE75FE7C501B4010E94D6196DEB12
:1030B00071E0181664F02FEF3FEF4FE75FE4C701B0
:1030C000B6010E94351B1816B4F461EC71E0CE0114
:1030D000DF91CF911F91FF90EF90DF90CF90BF9045
:1030E000AF909F908F907F906F905F904F903F90A8
:1030F0002F900C9492172FEF3FEF4FE75FECC70133
:10310000B6010E94D61987FDE0CF20E030E0A9018A
:10311000C701B6010E94D619312C212C87FF09C0A6
:103120006DE2CE010E94A1171C01F7FAF094F7F8A6
:10313000F09410E060E070E080E09FE3711641F0F1
:1031400020E030E040E251E40E94DB191F5FF6CF3F
:10315000A70196010E946A192B013C010E94541A92
:103160004B015C012AE0BC01A401CE010E94C317FF
:103170007C01E20CF31C1123B1F1C501B4010E94E2
:10318000831A9B01AC01C301B2010E9469194B0172
:103190005C016EE2CE010E94A117E80EF91E1150EB
:1031A00010F120E030E040E251E4C501B4010E949A
:1031B0003A1B2B013C010E94541A4B014AE050E09B
:1031C000CE010E941C18E80EF91EB40190E080E0C8
:1031D0000E94831A9B01AC01C301B2010E946919CC
:1031E0004B015C01DCCFC701DF91CF911F91FF90B4
:1031F000EF90DF90CF90BF90AF909F908F907F9097
:103200006F905F904F903F902F9008950F931F9372
:10321000CF93DF93EC010E9422188C01CE010E9413
:10322000A817800F911FDF91CF911F910F910895E3
:103230004F925F926F927F92AF92BF92CF92DF9246
:10324000EF92FF920F931F93CF93DF93CDB7DEB72B
:1032500029013A019B01AC01241935094609570996
:1032600089899A89AB89BC89BC01CD016A197B091E
:103270008C099D090E94071CA80197012419350992
:10328000460957090E94451CCA01B9016A0D7B1DF8
:103290008C1D9D1DDF91CF911F910F91FF90EF909D
:1032A000DF90CF90BF90AF907F906F905F904F90E6
:1032B000089508950E94FA140E9459190E946D0100
:1032C000C9E3D6E10E94C8022097E1F30E943916B3
:1032D000F9CF5058BB27AA270E9481190C94FB1ADA
:1032E0000E94ED1A38F00E94F41A20F039F49F3F42
:1032F00019F426F40C94EA1A0EF4E095E7FB0C940A
:10330000E41AE92F0E940C1B58F3BA1762077307DF
:103310008407950720F079F4A6F50C942E1B0EF483
:10332000E0950B2EBA2FA02D0B01B90190010C01D5
:10333000CA01A0011124FF27591B99F0593F50F4ED
:10334000503E68F11A16F040A22F232F342F442745
:10335000585FF3CF469537952795A795F04053953D
:10336000C9F77EF41F16BA0B620B730B840BBAF00D
:103370009150A1F0FF0FBB1F661F771F881FC2F778
:103380000EC0BA0F621F731F841F48F4879577958C
:103390006795B795F7959E3F08F0B0CF9395880F46
:1033A00008F09927EE0F9795879508950E94C01A07
:1033B00008F481E008950E94EF190C94FB1A0E9412
:1033C000F41A58F00E94ED1A40F029F45F3F29F0FA
:1033D0000C94E41A51110C942F1B0C94EA1A0E94BD
:1033E0000C1B68F39923B1F3552391F3951B550BEF
:1033F000BB27AA2762177307840738F09F5F5F4FC8
:10340000220F331F441FAA1FA9F335D00E2E3AF006
:10341000E0E832D091505040E695001CCAF72BD01E
:10342000FE2F29D0660F771F881FBB1F261737076F
:103430004807AB07B0E809F0BB0B802DBF01FF27A1
:1034400093585F4F3AF09E3F510578F00C94E41A80
:103450000C942F1B5F3FE4F3983ED4F38695779549
:103460006795B795F7959F5FC9F7880F911D96955A
:10347000879597F90895E1E0660F771F881FBB1FB6
:10348000621773078407BA0720F0621B730B840B63
:10349000BA0BEE1F88F7E09508950E94541A6894BD
:1034A000B1110C942F1B08950E94141B88F09F5794
:1034B00098F0B92F9927B751B0F0E1F0660F771F58
:1034C000881F991F1AF0BA95C9F714C0B13091F04E
:1034D0000E942E1BB1E008950C942E1B672F782FAD
:1034E0008827B85F39F0B93FCCF386957795679513
:1034F000B395D9F73EF490958095709561957F4F7F
:103500008F4F9F4F0895E89409C097FB3EF4909524
:103510008095709561957F4F8F4F9F4F9923A9F0AC
:10352000F92F96E9BB279395F6958795779567953B
:10353000B795F111F8CFFAF4BB0F11F460FF1BC07F
:103540006F5F7F4F8F4F9F4F16C0882311F096E912
:1035500011C0772321F09EE8872F762F05C06623C0
:1035600071F096E8862F70E060E02AF09A95660F79
:10357000771F881FDAF7880F9695879597F9089532
:10358000990F0008550FAA0BE0E8FEEF1616170674
:10359000E807F907C0F012161306E407F50798F0DC
:1035A000621B730B840B950B39F40A2661F0232BF5
:1035B000242B252B21F408950A2609F4A140A69571
:1035C0008FEF811D811D089597F99F6780E870E056
:1035D00060E008959FEF80EC089500240A94161689
:1035E000170618060906089500240A9412161306F1
:1035F000140605060895092E0394000C11F488237F
:1036000052F0BB0F40F4BF2B11F460FF04C06F5F9A
:103610007F4F8F4F9F4F089557FD9058440F551F70
:1036200059F05F3F71F04795880F97FB991F61F044
:103630009F3F79F087950895121613061406551FBB
:10364000F2CF4695F1DF08C0161617061806991F27
:10365000F1CF86957105610508940895E894BB271C
:1036600066277727CB0197F908950E94C01A08F4BE
:103670008FEF08950E944D1B0C94FB1A0E94ED1AC7
:1036800038F00E94F41A20F0952311F00C94E41AFB
:103690000C94EA1A11240C942F1B0E940C1B70F33B
:1036A000959FC1F3950F50E0551F629FF001729FE7
:1036B000BB27F00DB11D639FAA27F00DB11DAA1FF6
:1036C000649F6627B00DA11D661F829F2227B00D43
:1036D000A11D621F739FB00DA11D621F839FA00DCE
:1036E000611D221F749F3327A00D611D231F849F1E
:1036F000600D211D822F762F6A2F11249F57504075
:103700009AF0F1F088234AF0EE0FFF1FBB1F661FEF
:10371000771F881F91505040A9F79E3F510580F0B8
:103720000C94E41A0C942F1B5F3FE4F3983ED4F3FF
:10373000869577956795B795F795E7959F5FC1F75C
:10374000FE2B880F911D9695879597F9089519F48A
:1037500016F40C94EA1A0C94F21B0E94141BB8F392
:103760009923C9F3B6F39F57550B87FF0E94001C9E
:103770000024A0E640EA900180585695979528F4D9
:10378000805C660F771F881F20F0261737074807D1
:1037900030F4621B730B840B202931294A2BA69528
:1037A00017940794202531254A2758F7660F771F6D
:1037B000881F20F026173707480730F4620B730B79
:1037C000840B200D311D411DA09581F7B901842F77
:1037D0009158880F9695879508950E94C01A880B76
:1037E000990B08959F3F31F0915020F4879577957C
:1037F0006795B795880F911D9695879597F90895C8
:1038000091505040660F771F881FD2F70895DB0153
:103810008F939F930E94641CBF91AF91A29F800DD4
:10382000911DA39F900DB29F900D11240895991B97
:1038300079E004C0991F961708F0961B881F7A95A7
:10384000C9F780950895A1E21A2EAA1BBB1BFD01A2
:103850000DC0AA1FBB1FEE1FFF1FA217B307E4076F
:10386000F50720F0A21BB30BE40BF50B661F771FC7
:10387000881F991F1A9469F76095709580959095A7
:103880009B01AC01BD01CF010895052E97FB1EF4ED
:1038900000940E945C1C57FD07D00E94231C07FC6B
:1038A00003D04EF40C945C1C5095409530952195B6
:1038B0003F4F4F4F5F4F089590958095709561955C
:1038C0007F4F8F4F9F4F08950E94751CA59F900DAD
:1038D000B49F900DA49F800D911D11240895EE0FAB
:1038E000FF1F0590F491E02D0994A29FB001B39FB2
:1038F000C001A39F700D811D1124911DB29F700DF9
:10390000811D1124911D0895F999FECF92BD81BDAD
:10391000F89A992780B50895262FF999FECF1FBAF6
:1039200092BD81BD20BD0FB6F894FA9AF99A0FBEE8
:0839300001960895F894FFCF01
:103938003200CDCC4C3E00000040E8030143524128
:10394800574C4552204649524D5741524520312E39
:10395800323620524144494F2056455253494F4E22
:1039680000434F4E4E4543542050494E2037205473
:103978004F204120524144494F2052454345495622
:10398800455220414E44204B454550204954205033
:103998004F574552454420414E4420434F4E4E45D3
:1039A8004354454420544F2041205452414E534DD6
:1039B80049545445522100534554555020444F4EC4
:1039C800450000000000A710D610441070104710E2
:1039D8004E10611000000000891665172A16691636
:1039E800FC15161608160D0A006E616E00696E66E3
:0639F800006F766600007E
:00000001FF
