:100000000C94B8050C94EA290C94112A0C94360B24
:100010000C94630B0C94900B0C94E0050C94E0058D
:100020000C94E0050C94E0050C94E0050C94611828
:100030000C94E0050C94E0050C94E0050C94E005AC
:100040000C94382A0C94E0050C94192D0C944B2D2B
:100050000C94E0050C94E0050C94E0050C94E0058C
:100060000C94CE260C94E005084AD73B3BCE016E9B
:1000700084BCBFFDC12F3D6C74319ABD56833DDAFF
:100080003D00C77F11BED9E4BB4C3E916BAAAABE0E
:10009000000000803F0000407A10F35A00A0724E2A
:1000A00018090010A5D4E80000E87648170000E41D
:1000B0000B54020000CA9A3B000000E1F505000065
:1000C00080969800000040420F000000A0860100CA
:1000D0000000102700000000E8030000000064009A
:1000E000000000000A000000000001000000000005
:1000F0002C76D888DC674F0823DFC1DFAE59E1B129
:10010000B796E5E3E453C63AE651997696E8E6C237
:100110008426EB898C9B62ED407C6FFCEFBC9C9F3E
:1001200040F2BAA56FA5F490055A2AF75C936B6C60
:10013000F9676DC11BFCE0E40D47FEF520E6B50054
:10014000D0ED902E0300943577050080841E0800C2
:1001500000204E0A000000C80C333333330F986E72
:1001600012831141EF8D2114893BE65516CFFEE62F
:10017000DB18D1844B381BF77C1D901DA4BBE424F5
:10018000203284725E228100C9F124ECA1E53D2772
:100190004649464F206F766572666C6F772100295D
:1001A00000444D5020496E697469616C697A6174CC
:1001B000696F6E206661696C65642028636F646591
:1001C0002000444D50207265616479212057616997
:1001D00074696E6720666F72206669727374206935
:1001E0006E746572727570742E2E2E00292E2E2E4E
:1001F00000456E61626C696E6720696E746572722B
:1002000075707420646574656374696F6E2028412D
:10021000726475696E6F2065787465726E616C20AA
:10022000696E746572727570742000456E61626CDF
:10023000696E6720444D502E2E2E00496E697469F8
:10024000616C697A696E6720444D502E2E2E004DE8
:1002500050553630353020636F6E6E656374696F4C
:100260006E206661696C6564004D505536303530DE
:1002700020636F6E6E656374696F6E207375636360
:1002800065737366756C0054657374696E6720647A
:10029000657669636520636F6E6E656374696F6E02
:1002A000732E2E2E00526573657474696E67206D0F
:1002B000656D6F72792062616E6B2073656C65632A
:1002C00074696F6E20746F20302E2E2E005265766A
:1002D0006973696F6E204020757365725B31365D9E
:1002E0005B365D203D2000436865636B696E672067
:1002F0006861726477617265207265766973696F8F
:100300006E2E2E2E00FB00003E000B00360001007A
:10031000020003000000650054FFEF0000FA8000B7
:100320000B1282000100020000000000000000002B
:10033000000000000000280000FFFF4581FFFFFAD9
:100340007200000000000003E80000000100017FCF
:10035000FFFFFE8001001B00000000000000000005
:100360000000000000004000004000000002CB47F9
:10037000A22000000020000000000000004000005B
:10038000006000000041FF000000000B2A00001682
:100390005500002182FD872650FD800000001F00CF
:1003A00000000580000000000000010000000200C5
:1003B0000000030000400000000000046F00026520
:1003C0003200005EC040000000000000000000009D
:1003D0000000000000FB8C6F5DFD5D08D9007C73A0
:1003E0003B006C12CC3200139D3200D0D632000894
:1003F00000400001F4FFE68079020000000000D018
:10040000D600002710FB00000040000000000000A4
:1004100000000000000000000100000000000001DA
:1004200000010000000000FA36FFBC308E0005FB22
:10043000F0FFD95BC8FFD09ABE000010A9FFF41EE0
:10044000B200CEBBF7000000010000000400020073
:10045000020200000CFFC280000001800000CF807B
:100460000040000000000000000000000000000646
:100470000000000014000000000000000000000068
:10048000000000000000000000000000000000006C
:1004900000000000000923A135000000000000005A
:1004A000000000000000000000033F68B679352816
:1004B000BCC67ED16C8000FFFF400000000000B28F
:1004C0006A00000000000000000000000000003F83
:1004D000F0000000300000000000000000000000FC
:1004E000000000000000000000000000000000000C
:1004F00000000040000000254D002F706D00000539
:10050000AE000C02D00000000000650054FFEF00B8
:100510000000000000000001000044000100058B05
:10052000C100000100000000000065000000540050
:1005300000FFEF00000000000000000000000000CD
:1005400000000000000000000000000000000000AB
:10055000000000000000000000000000000000009B
:100560000000000000000000010000000200000088
:10057000000000000000000000000000000000007B
:10058000000000000000000000000000000000006B
:100590000000000000001B00000000000000000040
:1005A000000000000000000000000000000000004B
:1005B000000000000000000000000000000000003B
:1005C0000000000000001B00000000000000000010
:1005D000000000000000000000000000000000001B
:1005E000000000000000000000000000000000000B
:1005F00000000000000000000000000000000000FB
:100600000000000000D8DCBAA2F1DEB2B8B4A881C4
:1006100091F74A907F916AF3F9DBA8F9B0BAA0800C
:10062000F2CE81F3C2F1C1F2C3F3CCA2B280F1C623
:10063000D880BAA7DFDFDFF2A7C3CBC5B6F087A2A9
:10064000942448703C95406834589B78A2F183927A
:100650002D557DD8B1B4B8A1D09180F270F370F26D
:100660007C80A8F101B09887D943D886C988BAA1FF
:10067000F20EB89780F1A9DFDFDFAADFDFDFF2AA91
:100680004CCD6CA90CC92C97979797F1A989264650
:1006900066B0B4BA80ACDEF2CAF1B28C02A9B698E8
:1006A00000890E161EB8A9B4992C547CB08AA8965D
:1006B000365676F1B9AFB4B083C0B8A89711B18FF0
:1006C00098B9AFF0240844106418F1A329557DAF00
:1006D00083B593AFF0002850F1A3869F61A6DADEC0
:1006E000DFD9FAA38696DB31A6D9F8DFBAA68FC286
:1006F000C5C7B28CC1B8A2DFDFDFA3DFDFDFD8D888
:10070000F1B8A8B286B4980D355DB8AA98B0872D17
:10071000353DB2B6BAAF8C96198F9FA70E161EB490
:100720009AB8AA872C547CB9A3DEDFDFA3B180F28C
:10073000C4CDC9F1B8A9B499830D355D89B9A32D8C
:10074000557DB593A30E161EA92C547CB8B4B0F1F8
:100750009783A81184A50998A383F0DA240844108C
:100760006418D8F1A529557DA58595021A2E3A560B
:100770005A4048F9F3A3D9F8F09883240844106448
:10078000189782A8F111F098A2240844106418DA8E
:10079000F3DED883A59401D9A302F1A2C3C5C7D8BB
:1007A000F18492A24DDA2AD84869D92AD86855DA54
:1007B00032D85071D932D8705DDA3AD85879D93AEE
:1007C000D87893A34DDA2AD84869D92AD86855DA57
:1007D00032D85071D932D8705DDA3AD85879D93ACE
:1007E000D878A88A9AF02850789EF38818F19F1D2F
:1007F00098A8D908D8C89F129EF315A8DA1210D865
:10080000F1AFC8978734B5B994A421F3D922D8F2AF
:100810002DF3D92AD8F235F3D932D881A46060619A
:10082000D961D86C6869D969D8747071D971D8B137
:10083000A384193D5DA3831A3E5E9310308110118D
:10084000B8B0AF8F94F2DA3ED8B49AA88729DAF814
:10085000D8879A35DAF8D8879A3DDAF8D8B1B9A4AA
:100860009885022E56A581000C14A397B08AF12D0D
:10087000D928D84DD948D86DD968D8B1840DDA0EA9
:10088000D8A32983DA2C0ED8A3844983DA2C4C0E02
:10089000D8B8B0A88A9AF520AADADFD8A840AAD09A
:1008A000DADED8A860AADAD0DFD8F19786A8319B23
:1008B000069907AB9728889BF00C201440B8B0B479
:1008C000A88C9CF0042851791D301438B282ABD02A
:1008D000982C505078789BF11AB0F08A9CA8295136
:1008E000798B2951798A2470598B2058718A4469EF
:1008F000388B3940688A6448318B304960A588203C
:100900000971584468113964493019F1AC002C540C
:100910007CF08CA804285078F1889726A85998ACC8
:100920008C02264666F0899CA82951792470594486
:100930006938644831A98809205970AB1138406979
:10094000A8193148608CA83C415C207C00F1879854
:100950001986A86E767EA999882D557D9EB9A38AA1
:10096000228A6E8A568A5E9FB183062646660E2EBE
:100970004E6E9DB8AD002C547CF2B18CB499B9A3E5
:100980002D557D8191AC38AD3AB58391AC2DD928E8
:10099000D84DD948D86DD968D88C9DAE29D904AE28
:1009A000D851D904AED879D904D881F39DAD008D42
:1009B000AE1981ADD901D8F2AEDA26D88E9129834D
:1009C000A7D9ADADADADF32AD8D8F1B0AC89913E81
:1009D0005E76F3AC2E2EF1B18C5A9CAC2C282828D4
:1009E0009CAC3018A8988128343C9724A728343C24
:1009F0009C24F2B089AC912C4C6C8A9B2DD9D8D810
:100A000051D9D8D879D9D8D8F19E88A331DAD8D895
:100A1000912DD928D84DD948D86DD968D8B18393AC
:100A2000353D8025DAD8D88569DAD8D8B49381A342
:100A300028343CF3AB8BF8A391B609B4D9ABDEFAFA
:100A4000B0879CB9A3DDF1202830389AF1283038DE
:100A50009DF1A3A3A3A3F2A3B49080F2A3A3A3A3A5
:100A6000A3A3A3A3A3A3B2A3A3A3A3A3A3B087B544
:100A700099F128303898F1A3A3A3A397A3A3A3A324
:100A8000F39BA330DCB9A7F1262626FED8FF0A0087
:100A90002000002C2020002000002C20200020001E
:100AA000002C2020002000002C2020002000002C02
:100AB0002020002000000A2F2F202020202020208E
:100AC000202020205820416363656C20205920415C
:100AD0006363656C20205A20416363656C2020208D
:100AE00058204779726F20202059204779726F2053
:100AF00020205A204779726F0A2F2F4F46465345C0
:100B000054532020200000000009000302000004CC
:100B100005080000000000000000000000010204C1
:100B2000081020408001020408102001020408106F
:100B3000204080400404040404040404020202026D
:100B40000202030303030303020203000000002365
:100B5000002600290000000000250028002B0000CE
:100B6000000000240027002A0000C217AC257B2DBE
:100B700011241FBECFEFD8E0DEBFCDBF11E0A0E053
:100B8000B1E0E6E8F1E702C005900D92A03BB107A5
:100B9000D9F724E0A0EBB1E001C01D92A539B2075E
:100BA000E1F715E0C8EBD5E004C02197FE010E94F3
:100BB0004934C53BD107C9F70E947D300C94C13838
:100BC0000C94000081E0809357020895AF92BF9289
:100BD000CF92EF920F93CF93DF9300D0CDB7DEB7D4
:100BE0005C010E94D41A6EE170E080E090E00E9407
:100BF000B32A60E0C5010E94DB1A21E041E060E118
:100C0000C5010E94B71B66E0C5010E94C21B67EECA
:100C100072E084EF93E00E941B2E6DEC72E084EF93
:100C200093E00E94E42DC5010E94C81B40E150E002
:100C3000682F84EF93E00E94052F65EA72E084EF4D
:100C400093E00E941B2E20E040E060E0C5010E947E
:100C5000B71B4FE760E0C5010E94951A60E0C5012F
:100C60000E94BF1A48E660E0C5010E94951AC501BE
:100C70000E94CD1A64E170E080E090E00E94B32A07
:100C800063E0C5010E94E21A62E1C5010E94A01A58
:100C900064E0C5010E944B1A61E0C5010E94511A2F
:100CA00063E0C5010E945C1A63E0C5010E94671AF7
:100CB000EE24E39400E020E049E857E065E073E0CB
:100CC000C5010E94BE1C882309F44BC0198284E030
:100CD0008A83C12C06E122E042E050E0BE016F5F52
:100CE0007F4FC5010E94DA1B63E0C5010E94C91C49
:100CF00060E0C5010E94CF1C60E0C5010E94541B4A
:100D000062E0C5010E947D1A6CE9C5010E94891A42
:100D100060E5C5010E94831A60E0C5010E948F1A38
:100D200061E0C5010E94B81AC5010E94B01B60E0D5
:100D3000C5010E94A91B8AE290E0F501928B818B8C
:100D4000C5010E94C61AC5010E94A61A80E00F9034
:100D50000F90DF91CF910F91EF90CF90BF90AF9018
:100D6000089581E0F4CFCF93DF93DB01FA01309750
:100D700019F4EC01EF85F889848D958D98278927E2
:100D8000982711969C938E9380A191A198278927EB
:100D9000982713969C938E93129784A195A19827D8
:100DA0008927982715969C938E93149780E0DF915E
:100DB000CF910895CF93DF93DB01FA01309719F4B7
:100DC000EC01EF85F8898081918198278927982700
:100DD00011969C938E9384819581982789279827D3
:100DE00013969C938E9312978085918598278927D7
:100DF000982715969C938E931497848595859827AC
:100E00008927982717969C938E93169780E0DF91F9
:100E1000CF910895FF920F931F93CF93DF93CDB798
:100E2000DEB728970FB6F894DEBF0FBECDBF8B019B
:100E3000BE016F5F7F4F0E94DA06F82E81114CC011
:100E400069817A81072E000C880B990B0E941D3254
:100E500020E030E040E858E30E940133F80160836D
:100E60007183828393836B817C81072E000C880BB6
:100E7000990B0E941D3220E030E040E858E30E94C8
:100E80000133F80164837583868397836D817E8146
:100E9000072E000C880B990B0E941D3220E030E0D9
:100EA00040E858E30E940133F80160877187828728
:100EB00093876F817885072E000C880B990B0E9411
:100EC0001D3220E030E040E858E30E940133F80191
:100ED00064877587868797878F2D28960FB6F89435
:100EE000DEBF0FBECDBFDF91CF911F910F91FF905D
:100EF00008954F925F926F927F928F929F92AF92DE
:100F0000BF92CF92DF92EF92FF92CF93DF93CDB754
:100F1000DEB72A970FB6F894DEBF0FBECDBF7A8733
:100F20006987FA01C480D580E680F78044845584BF
:100F30006684778480809180A280B380808591854B
:100F4000A285B38589839A83AB83BC83A301920175
:100F5000C701B6010E9401336D837E838F8398871A
:100F600029813A814B815C81C501B4010E94013322
:100F70009B01AC016D817E818F8198850E948F30AD
:100F80009B01AC010E949030A985BA856D937D9339
:100F90008D939C931397A5019401C701B6010E94FC
:100FA00001336D837E838F83988729813A814B81BA
:100FB0005C81C301B2010E9401339B01AC016D81D0
:100FC0007E818F8198850E9490309B01AC010E94A8
:100FD0009030E985FA856483758386839783A501BC
:100FE0009401C501B4010E9401334B015C01A701CA
:100FF0009601C701B6010E9401339B01AC01C501F6
:10100000B4010E948F306B017C0129813A814B81B0
:101010005C81CA01B9010E9401339B01AC01C70187
:10102000B6010E948F306B017C01A3019201C301C4
:10103000B2010E9401339B01AC01C701B6010E94BD
:101040009030A985BA8518966D937D938D939C9366
:101050001B9780E02A960FB6F894DEBF0FBECDBF77
:10106000DF91CF91FF90EF90DF90CF90BF90AF9046
:101070009F908F907F906F905F904F9008952F92E8
:101080003F924F925F926F927F928F929F92AF9218
:10109000BF92CF92DF92EF92FF920F931F93CF9365
:1010A000DF9300D000D000D0CDB7DEB78B011A019E
:1010B0003E832D83FA01C080D180E280F380A701B6
:1010C0009601C701B6010E94903069837A838B83B1
:1010D0009C83F10184809580A680B780A50194014E
:1010E000C501B4010E9490302B013C0129813A8155
:1010F0004B815C81C701B6010E9401336B017C0109
:10110000A3019201C501B4010E9401339B01AC010E
:10111000C701B6010E94903020E030E040E85FE374
:101120000E948F306B017C01F10120853185428561
:101130005385C301B2010E9401332B013C01F1012F
:10114000248535854685578569817A818B819C8187
:101150000E9401339B01AC01C301B2010E948F3098
:10116000A70196010E940F31F80160837183828389
:101170009383ED81FE816481758186819781C0842E
:10118000D184E284F3849B01AC010E9401334B01C2
:101190005C01A7019601C701B6010E9401339B01C2
:1011A000AC01C501B4010E9490300E9474339B01D0
:1011B000AC01ED81FE8160817181828193810E9409
:1011C0000F316B017C01F801C482D582E682F7827F
:1011D000ED81FE812085318542855385648175814D
:1011E000868197810E940F31F8016087718782871D
:1011F000938720E030E0A901ED81FE816085718553
:10120000828593850E946E3187FF16C020E030E012
:10121000A901C701B6010E94F432A7019601181670
:101220002CF56BED7FE089E490E40E948F30F801AB
:10123000648375838683978380E026960FB6F8943F
:10124000DEBF0FBECDBFDF91CF911F910F91FF90F9
:10125000EF90DF90CF90BF90AF909F908F907F9056
:101260006F905F904F903F902F9008956BED7FE0CF
:1012700089E490ECDACFCF93DF93FC01DB01129687
:101280002C93129711965C934E93C281D3818881DF
:1012900013969C911397892B888312968C911297A1
:1012A000982F9D7F913031F4958113962C9113974F
:1012B000922B95838150823028F4868113969C91DD
:1012C000892B8683809168009481892B80936800A4
:1012D000DF91CF910895CF92DF92EF92FF920F931B
:1012E0001F93CF93DF938C01D62E7A01C22EFC017F
:1012F000C085D1852097A1F587E090E00E948C30D1
:10130000DC0111961C921E9212961C9212978FEF7E
:10131000109781F11496DC9214971296CC92129742
:1013200016961C921E921597ED2DF0E0E35EF44F99
:10133000E4911396EC931397F80180859185892B9E
:1013400011F5B187A0872C2DA701BD01C8010E940E
:101350003B0981E00FC08D819E81009769F2EC010D
:101360008C818D11F8CF2C2DA701BE01C8010E94E0
:101370003B0980E0DF91CF911F910F91FF90EF909B
:10138000DF90CF900895BE83AD83DDCF242FE82F6B
:10139000F0E0EC5CF44FE491EE23D9F061157105B7
:1013A000C1F0E250FF0BE330F10580F4EE0FFF1FB8
:1013B000E958FE4F0190F081E02DA081B1819C9110
:1013C0009783AB01682FCF010C946B09F0E0E0E04C
:1013D000F4CF8FEF0895CF93DF9390E0FC01EC5CA6
:1013E000F44FE491EE2309F444C0E250FF0BB0E067
:1013F000A0E0E330F10530F4EE0FFF1FE958FE4F97
:10140000A081B181835E944FFC0184911896CD91A7
:10141000DC911997209769F19B8198132DC02FB704
:10142000F8941296ED91FC91139790818095892301
:1014300080831296ED91FC9113978081811109C0F0
:101440009091680014968C911497809589238093CD
:10145000680015969C9115978B8180959823159619
:101460009C93159716969C911697892316968C93A4
:101470002FBFDF91CF9108950D80DE81C02DCACF9F
:10148000CF93DF938091FF0290E090935602809378
:1014900055020E948E2A60933D0270933E02809313
:1014A0003F0290934002C5E5D2E088810E94EB099B
:1014B00042E050E061E67AE08881DF91CF910C94C0
:1014C000C6090F931F93CF93DF938091FF0290E0A3
:1014D00090935602809355020E948E2A00913D02FD
:1014E00010913E0220913F0230914002601B710B2F
:1014F000820B930B609345027093460280934702E0
:1015000090934802C5E5D2E088810E94EB0943E050
:1015100050E060E47AE08881DF91CF911F910F91D4
:101520000C94C609CF93DF938091FF0290E09093D3
:101530005602809355020E948E2A6093390270935E
:101540003A0280933B0290933C02C5E5D2E0888149
:101550000E94EB0942E050E063EB7AE08881DF9182
:10156000CF910C94C6090F931F93CF93DF93809173
:10157000FF0290E090935602809355020E948E2ABB
:101580000091390210913A0220913B0230913C02C5
:10159000601B710B820B930B6093410270934202AC
:1015A0008093430290934402C5E5D2E088810E9473
:1015B000EB0943E050E062E97AE08881DF91CF9166
:1015C0001F910F910C94C609FF920F931F93CF9315
:1015D000DF938C01D80117968C9117972091000307
:1015E00015969C9115973091000316964C9116977D
:1015F000C0910003C095C4239323C92B8227FC2EDE
:10160000F8228091000317968C9317971896CD9126
:10161000DC912097B1F08B81982F9F2171F09091F0
:101620000003892391E009F490E09093FE028C81FD
:101630008093FF02E881F98109950D80DE81C02D3C
:10164000E8CF9BB3F8018481982351F09BB3892B99
:101650008BBB0190F081E02D808180930003BACF95
:10166000DF91CF911F910F91FF9008951F920F92DC
:101670000FB60F9211242F933F934F935F936F9365
:101680007F938F939F93AF93BF93EF93FF93E091DB
:10169000F402F091F50280818093000384EF92E0E0
:1016A0000E94E40AFF91EF91BF91AF919F918F91BA
:1016B0007F916F915F914F913F912F910F900FBE4E
:1016C0000F901F9018951F920F920FB60F92112432
:1016D0002F933F934F935F936F937F938F939F933A
:1016E000AF93BF93EF93FF93E091EA02F091EB0287
:1016F0008081809300038AEE92E00E94E40AFF91C9
:10170000EF91BF91AF919F918F917F916F915F9179
:101710004F913F912F910F900FBE0F901F901895F2
:101720001F920F920FB60F9211242F933F934F9356
:101730005F936F937F938F939F93AF93BF93EF9339
:10174000FF93E091E002F091E10280818093000339
:1017500080EE92E00E94E40AFF91EF91BF91AF9179
:101760009F918F917F916F915F914F913F912F91B9
:101770000F900FBE0F901F901895AF92BF92CF920F
:10178000DF92EF92FF920F931F9326E040E052EC1E
:1017900061E070E084EF93E00E94C12C62E08CE095
:1017A0000E945B2B60E080E10E945B2B60E081E1A6
:1017B0000E945B2B60E082E10E945B2B60E087E08F
:1017C0000E945B2B61E084E00E945B2B61E088E07B
:1017D0000E945B2B61E087E00E945B2B8FE00E9400
:1017E000142B9093D1018093D0018EE00E94142B92
:1017F0009093CF018093CE016091D0017091D1017F
:10180000072E000C880B990B1F921F921F9228E243
:101810002F9328E0A22EB12CC12CD12CE12CF12C3D
:1018200087012FEF33E040E050E00E943B300E9400
:101830001D3220E030E040E251E40E9473316093B9
:1018400022017093230180932401909325016091DC
:10185000CE017091CF01072E000C880B990B1F92BF
:101860001F921F922EE12F9332E0A32EB12CC12C98
:10187000D12C2FEF33E040E050E00E943B300E943B
:101880001D3220E030E040E251E40E947331609369
:101890001E0170931F01809320019093210187E224
:1018A00093E00E94102540E85AE166E070E087E28C
:1018B00093E00E94222562E08AE00E945B2B43E0D5
:1018C00050E060E47AE08AE00E94C6090E948E2A15
:1018D00060934D0270934E0280934F02909350029A
:1018E00062E08DE00E945B2B43E050E062E97AE029
:1018F0008DE00E94C6090E948E2A6093490270936F
:101900004A0280934B0290934C028DEC92E00E942D
:10191000ED1A60E082E00E945B2B67E872E084EFE2
:1019200093E00E941B2E8DEC92E00E944C1B2DB781
:101930003EB7285F3F4F0FB6F8943EBF0FBE2DBF96
:101940006FE472E0882311F069E672E084EF93E0BF
:101950000E941B2E6BE372E084EF93E00E941B2E2B
:101960008DEC92E00E94E6058093CA026AEB7FEF5D
:101970008DEC92E00E94971B6DE970E08DEC92E097
:101980000E949D1B6CE170E08DEC92E00E94A31B15
:1019900064E77CEF8DEC92E00E945B1B68E97FEFCF
:1019A0008DEC92E00E946F1B62E175E08DEC92E09D
:1019B0000E94831B8091CA028111BCC066E08DEC3D
:1019C00092E00E94252166E08DEC92E00E94B92011
:1019D0008DEC92E00E94D51C6BE272E084EF93E004
:1019E0000E941B2E61E08DEC92E00E94A91B61EF2A
:1019F00071E084EF93E00E94E42D4AE050E070E053
:101A000060E084EF93E00E94D82E6CEE71E084EFEA
:101A100093E00E941B2E43E050E062EE75E080E010
:101A20000E94CA298DEC92E00E94A61A8093CB02F4
:101A300062EC71E084EF93E00E941B2E81E08093C2
:101A4000CC028091DE029091DF029093C9028093D4
:101A5000C80220912201309123014091240150912C
:101A60002501E12CF12C870161E070E08FEE91E01F
:101A70000E94822840911E0150911F016091200117
:101A8000709121018FEE91E00E94EE2720912201BA
:101A900030912301409124015091250161E070E0D3
:101AA00082ED91E00E94822840911E0150911F0119
:101AB000609120017091210182ED91E00E94EE275A
:101AC00024EC39E040E951E069E070E08EE192E019
:101AD0000E94371924EC39E040E951E066E070E0FB
:101AE0008BE192E00E94371924EC39E040E951E0A3
:101AF00065E070E088E192E00E94371924EC39E05B
:101B000040E951E063E070E085E192E00E9437191E
:101B10002CED35E044EF51E06BE070E082E192E0C3
:101B20001F910F91FF90EF90DF90CF90BF90AF90FB
:101B30000C94371961EA71E084EF93E00E94E42D80
:101B40004AE050E06091CA0284EF93E00E94FE2ECA
:101B50006FE971E084EF93E00E941B2E7ACF2F9201
:101B60003F924F925F926F927F928F929F92AF922D
:101B7000BF92CF92DF92EF92FF920F931F93CF937A
:101B8000DF93CDB7DEB765970FB6F894DEBF0FBE13
:101B9000CDBF0E948E2A00914D0210914E022091DD
:101BA0004F0230915002601B710B820B930B6093BC
:101BB00051027093520280935302909354020E94F8
:101BC0008E2A60934D0270934E0280934F02909341
:101BD00050028091CC02882311F40C94321748E211
:101BE000642E5EE1752E6CE9862E74E6972E809148
:101BF0005702811149C12091C6023091C7028091DC
:101C0000C8029091C9022817390708F03DC1809198
:101C10005702882341F08DEC92E00E94011B9093C3
:101C2000C7028093C6028CE00E94C52B9093C50129
:101C30008093C4018FE00E94142B9093D101809374
:101C4000D0018EE00E94142B9093CF018093CE019F
:101C500086E00E94142B893E23E0920714F088EE60
:101C600093E08431910514F484E190E09093CD01E8
:101C70008093CC0187E00E94142B893E33E09307C8
:101C800014F088EE93E08431910514F484E190E03F
:101C90009093CB018093CA0180E10E94142B893E6E
:101CA00043E0940714F088EE93E08431910514F436
:101CB00084E190E09093C9018093C80181E10E9482
:101CC000142B893EA3E09A0714F088EE93E0843148
:101CD000910514F484E190E09093C7018093C601CC
:101CE0006091D0017091D101072E000C880B990BE7
:101CF0001F921F921F926F92E8E0AE2EB12CC12C62
:101D0000D12CE12CF12C87012FEF33E040E050E0A3
:101D10000E943B300E941D3220E030E040E251E45E
:101D20000E947331609322017093230180932401F8
:101D3000909325016091CE017091CF01072E000C88
:101D4000880B990B1F921F921F927F92F2E0AF2E89
:101D5000B12CC12CD12C2FEF33E040E050E00E9499
:101D60003B300E941D3220E030E040E251E40E940E
:101D7000733160931E0170931F0180932001909333
:101D800021016091CC017091CD01072E000C880BD0
:101D9000990B1F921F921F921F92AEE1AA2EB12C97
:101DA000C12CD12C18EEE12E13E0F12E00E010E052
:101DB00024E130E040E050E00E943B30709311029B
:101DC000609310026091CA017091CB01072E000C44
:101DD000880B990BBFEFBF93BF93BF938F9224E6FD
:101DE000A22EB12CC12CD12C24E130E040E050E0F7
:101DF0000E943B304AE0469F9001479F300D1124DE
:101E000030930F0220930E026091C6017091C701BA
:101E1000072E000C880B990B1F921F921F929F9206
:101E2000A12CB12C650114E1E12EF12C00E010E0B1
:101E300028EE33E040E050E00E943B3070931D01FB
:101E400060931C016091C8017091C901072E000CBC
:101E5000880B990B1F921F921F929F9228EE33E0DE
:101E600040E050E00E943B30AAE0A69F9001A79F6F
:101E7000300D112430930D0220930C020FB6F8940C
:101E8000DEBF0FBECDBFB3CE109257028DEC92E0F5
:101E90000E94A61A8093CB028DEC92E00E94011B57
:101EA0009093C7028093C6022091C8023091C90264
:101EB0008217930790F02091CB0224FD04C0811576
:101EC000944008F4A6C58DEC92E00E94C61A60E921
:101ED00071E084EF93E00E941B2E6091720270917A
:101EE0007302072E000C880B990B0E941D32AB0168
:101EF000BC018FEE91E00E94B9288FEE91E00E9424
:101F0000C3290E94E531709373026093720260915D
:101F1000700270917102072E000C880B990B0E94C1
:101F20001D32AB01BC0182ED91E00E94B92882ED27
:101F300091E00E94C3296B017C0160917202709153
:101F40007302072E000C880B990B0E941D324B0167
:101F50005C0120E030E044E353E460916002709162
:101F6000610280916202909163020E9401332BED25
:101F70003FE049E450E40E94733120E030E04CE05F
:101F800053E40E9401339B01AC01C501B4010E94DE
:101F90008F300E94E5317093730260937202C70123
:101FA000B6010E94E531072E000C880B990B0E94A8
:101FB0001D326B017C0120E030E044E353E460918A
:101FC0005C0270915D0280915E0290915F020E94BE
:101FD00001332BED3FE049E450E40E94733120E0EF
:101FE00030E04CE053E40E9401339B01AC01C70197
:101FF000B6010E948F300E94E53169837A838B831A
:102000009C8389819A819093710280937002609180
:1020100045027091460280914702909148020E94C9
:102020001D322B013C01C0900E01D0900F01E090B9
:102030001001F0901101A70196010E948F302DEC44
:102040003CEC4CE45DE30E940133A70196010E9441
:1020500090306B017C01C0920E01D0920F01E09292
:102060001001F092110180900A0190900B01A09054
:102070000C01B0900D01A5019401C301B2010E94B1
:102080008F302DEC3CEC4CEC5DE30E940133A5015C
:1020900094010E94903060930A0170930B01809329
:1020A0000C0190930D01A70196010E948F306B01E6
:1020B0007C0120E030E0A9010E946E3187FDEEC472
:1020C00020E030E04AEF54E4C701B6010E94F43248
:1020D000181634F4C12CD12C6AEFE62E64E4F62EE7
:1020E000C092B001D092B101E092B201F092B3017E
:1020F000A981BA81BD01BB0F880B990B1F921F925A
:1021000027E02F9320ED2F93A12CB12C6501E12C1A
:1021100010E4F12E00E010E020E030EC4FEF5FEF34
:102120000E943B300E941D3260932502709326026C
:10213000809327029093280260917202709173023B
:10214000072E000C880B990B1F921F921F921F9253
:1021500050EDA52E57E0B52EC12CD12C20E030EC4F
:102160004FEF5FEF0E943B300E941D322B013C017C
:102170004092210250922202609223027092240225
:10218000AC019B010E940133698B7A8B8B8B9C8BFA
:102190008091250290912602A0912702B0912802F9
:1021A0008D839E83AF83B8879C01AD0160E070E0B2
:1021B0008AEF94E40E948F309B01AC010E940133AE
:1021C0006D877E878F87988B29893A894B895C89AF
:1021D0000E9490300E9474336B017C016091100268
:1021E00070911102072E000C880B990B0E941D3272
:1021F0004B015C0160910E0270910F02072E000CE2
:10220000880B990B0E941D3269837A838B839C8390
:1022100028EB36EC40EB54E4C701B6010E948F3046
:10222000A50194010E94013328EB36EC40EB54E405
:102230000E94903029813A814B815C810E949030CC
:102240006B017C010FB6F894DEBF0FBECDBF20E05E
:1022500030E0A9010E946E3187FD24C420E030ECFB
:1022600040E355E4C701B6010E94F43218163CF46D
:10227000C12C30ECD32E30E3E32E35E4F32EC092A4
:102280003502D0923602E0923702F0923802A30172
:10229000920160E070E08AEF94E40E948F309B012D
:1022A000AC010E94013369877A878B879C872D85D3
:1022B0003E854F8558890E9490300E94743328EBE8
:1022C00036EC40EB54E40E948F30A50194010E944B
:1022D000013328EB36EC40EB54E40E949030298126
:1022E0003A814B815C810E9490306B017C0120E03F
:1022F00030E0A9010E946E3187FDD8C320E030ECA8
:1023000040E355E4C701B6010E94F43218163CF4CC
:10231000C12C20ECD22E20E3E22E25E4F22EC09236
:102320003102D0923202E0923302F09234022D81D7
:102330003E814F815885CA01B9010E9401332B01AA
:102340003C0129893A894B895C890E9490300E941E
:1023500074336B017C012DE33AE047E15FE3C50193
:10236000B4010E9401334B015C0128EB36EC40EBD9
:1023700054E4C701B6010E948F30A50194010E9468
:10238000013328EB36EC40EB54E40E949030298175
:102390003A814B815C810E9490306B017C0120E08E
:1023A00030E0A9010E946E3187FD84C320E030EC4B
:1023B00040E355E4C701B6010E94F43218163CF41C
:1023C000C12C90ECD92E90E3E92E95E4F92EC09221
:1023D0002D02D0922E02E0922F02F0923002298537
:1023E0003A854B855C85C301B2010E9490300E9402
:1023F000743328EB36EC40EB54E40E948F30A50197
:1024000094010E94013328EB36EC40EB54E40E9427
:10241000903029813A814B815C810E9490306B0120
:102420007C0120E030E0A9010E946E3187FD46C3A7
:1024300020E030EC40E355E4C701B6010E94F432DD
:1024400018163CF4C12C80ECD82E80E3E82E85E4ED
:10245000F82EC0922902D0922A02E0922B02F0922A
:102460002C028091C2019091C301892B71F480915B
:10247000410290914202A0914302B0914402813BFB
:102480009440A105B1050CF44EC0C090B001D090AD
:10249000B101E090B201F090B30120E030E040E201
:1024A00050E4C701B6010E94013320E030E048E467
:1024B00054E40E9490304B015C018092350290926E
:1024C0003602A0923702B0923802A7019601C701E6
:1024D000B6010E9490309B01AC0160E070E088E49E
:1024E00094E40E948F3060933102709332028093A3
:1024F00033029093340280922D0290922E02A09289
:102500002F02B0923002A701960160E070E088E4EB
:1025100094E40E948F306093290270932A02809382
:102520002B0290932C0280911C0190911D0164E676
:1025300070E0681B790B072E000C880B990B0E942A
:102540001D3220E030E048EC52E40E9473314B0130
:102550005C0160910C0270910D02660F771F072ECF
:10256000000C880B990B0E941D322B013C01A50128
:1025700094010E9401336B017C0120E030E0A9014D
:102580000E946E3187FD9EC220E030E04AE754E4AD
:10259000C701B6010E94F432181634F4C12CD12CB4
:1025A0001AE7E12E14E4F12EC701B6010E94E531CD
:1025B0007093C1016093C001A501940160E070E0D7
:1025C00080E89FE30E948F30A30192010E940133B3
:1025D0006B017C0120E030E0A9010E946E3187FD93
:1025E00075C220E030E04AE754E4C701B6010E941A
:1025F000F432181634F4C12CD12CBAE7EB2EB4E423
:10260000FB2EC701B6010E94E5317093BF016093B4
:10261000BE0160913502709136028091370290912F
:1026200038020E94E5311F921F9231E03F9344EF40
:102630004F9334ECA32E39E0B32EC12CD12C1CE0E7
:10264000E12E1BE0F12E00E010E020E030E0A901D7
:102650000E943B300E941D32609335027093360217
:102660008093370290933802609131027091320268
:1026700080913302909134020E94E5311F921F92A3
:1026800059E0852E8F92E4EC9E2E9F92F4EFAF2EB0
:10269000BB24B394C12CD12C20E030E0A9010E94CE
:1026A0003B300E941D32609331027093320280935E
:1026B00033029093340260912D0270912E0280912A
:1026C0002F02909130020E94E5311F921F928F924B
:1026D0009F9220E030E0A9010E943B300E941D3211
:1026E00060932D0270932E0280932F0290933002FC
:1026F0006091290270912A0280912B0290912C0204
:102700000E94E5311F921F92A1E0AF93B4EFBF93F7
:10271000A4ECAA2EA9E0BA2EC12CD12C20E030E0E6
:10272000A9010E943B300E941D328B018D8B998B39
:102730002090350230903602409037025090380297
:102740008091C0019091C1017C0124E2E21A2AEF3C
:10275000F20A6CED75E0681B790B072E000C880BF4
:10276000990B0E941D323B016C010FB6F894DEBF3D
:102770000FBECDBF9101A2010E94F4324301560168
:1027800018168CF0B7010F2C000C880B990B0E94C7
:102790001D324B015C019101A2010E946E3187FD47
:1027A00002C041015201C401D501809335029093CA
:1027B0003602A0933702B093380220903102309055
:1027C000320240903302509034029101A201B301D1
:1027D000C6010E94F432181684F0B701FF0C880B72
:1027E000990B0E941D323B016C019101A2010E94D4
:1027F0006E3187FD02C031016201C301D6018093B1
:10280000310290933202A0933302B093340290913C
:102810002D029983A0912E02AD83B0912F02B9872A
:10282000209130022D878091BE019091BF013C0123
:1028300034E2631A3AEF730A6CED75E0681B790BAA
:10284000072E000C880B990B0E941D326B017C0136
:1028500029813D8149855D850E94F4321601270159
:102860001816ACF0B301072C000C880B990B0E94D2
:102870001D321B012C0129813D8149855D850E9406
:102880006E3187FD04C029803D8049845D84C1018B
:10289000D20180932D0290932E02A0932F02B09329
:1028A00030029601A701B8018D8999890E946E3185
:1028B00087FD14C0B301770C880B990B0E941D3261
:1028C0006B017C019B01AC01B8018D8999890E9443
:1028D000F43218161CF06801ED88F988C601D7019A
:1028E0008093290290932A02A0932B02B0932C028A
:1028F00088E391E00E947A388D3E91F5B401C501DC
:102900000E94E5318EE192E00E94B6196091310299
:102910007091320280913302909134020E94E5312D
:102920008BE192E00E94B61960912D0270912E0207
:1029300080912F02909130020E94E53188E192E06F
:102940000E94B6196091290270912A0280912B028F
:1029500090912C020E94E53185E192E00E94B61927
:102960008091700290917102893E934074F480913D
:10297000450290914602A0914702B091480260E062
:1029800088379540A105B1050CF461E084E00E9410
:10299000972B8091450290914602A0914702B091F9
:1029A0004802873D36E09307A105B1050CF492C0BB
:1029B000C090B401D090B501E090B601F090B7019D
:1029C00020E030E048EC52E4C701B6010E946E31CD
:1029D00087FF10C020E030E040E85FE3C701B601A8
:1029E0000E9490306093B4017093B5018093B6015A
:1029F0009093B70160E088E00E94972B60E087E049
:102A00000E94972B70E060E082E192E00E94ED1955
:102A1000DCC021FF62CA4091C8025091C902809176
:102A2000C6029091C7028417950708F456CA66E853
:102A300072E08DEC92E00E941C1B8091C602909186
:102A4000C7022091C8023091C902821B930B909358
:102A5000C7028093C60246E852E060E772E08DEC60
:102A600092E00E94B30646E852E066E772E08DEC21
:102A700092E00E940A0746E752E064E672E08DECBD
:102A800092E00E94790724E632E046E752E068E5EA
:102A900072E08DEC92E00E943F08BDCFC12CD12C9A
:102AA00076011ECBC12CD12C7601E9CBC12CD12CC7
:102AB000760135CCC12CD12C760189CCC12CD12CFE
:102AC0007601C7CCC12CD12C76016ECDC12CD12C76
:102AD000760197CD8E309640A105B1050CF08ACFD6
:102AE000C090B401D090B501E090B601F090B7016C
:102AF00020E030E040E85FE3C701B6010E94F43215
:102B000018160CF077CF20E030E040E050E4C70129
:102B1000B6010E948F306093B4017093B501809329
:102B2000B6019093B70120E030E040EA51E40E9402
:102B3000F432181634F46AE570E082E192E00E9403
:102B4000ED198091B901811111C020E030E040EA17
:102B500051E46091B4017091B5018091B6019091FA
:102B6000B7010E94F43218160CF0AAC18091160128
:102B700090911701181619060CF08DC101979093CA
:102B80001701809316018091B801811111C020E0D6
:102B900030E040EA51E46091B4017091B501809158
:102BA000B6019091B7010E94F43218160CF0C0C122
:102BB0008091120190911301181619060CF0A3C10F
:102BC000019790931301809312016DE271E084EFFD
:102BD00093E00E94082E60910E0270910F024AE06D
:102BE00050E084EF93E00E94D82E65E471E084EF1A
:102BF00093E00E94082E65E371E084EF93E00E9469
:102C0000082E60911002709111024AE050E084EFAA
:102C100093E00E94D82E65E471E084EF93E00E9477
:102C2000082E6BE371E084EF93E00E94082E609120
:102C30001C0170911D014AE050E084EF93E00E9476
:102C4000D82E65E471E084EF93E00E94082E6EE4D4
:102C500071E084EF93E00E94082E60910C02709165
:102C60000D02660F771F660F771F4AE050E084EF72
:102C700093E00E94D82E65E471E084EF93E00E9417
:102C8000082E60E471E084EF93E00E94082E4091EA
:102C9000220150912301609124017091250122E0CD
:102CA00030E084EF93E00E94013065E471E084EF4E
:102CB00093E00E94082E67E471E084EF93E00E94A5
:102CC000082E40911E0150911F01609120017091CA
:102CD000210122E030E084EF93E00E94013065E4BE
:102CE00071E084EF93E00E94082E6DE471E084EFC0
:102CF00093E00E94082E6091C0017091C101660F9F
:102D0000771F4AE050E084EF93E00E94D82E65E4FC
:102D100071E084EF93E00E94082E65E571E084EF96
:102D200093E00E94082E6091BE017091BF01660F72
:102D3000771F4AE050E084EF93E00E94D82E65E4CC
:102D400071E084EF93E00E94082E6DE571E084EF5E
:102D500093E00E94082E4091350250913602609116
:102D600037027091380222E030E084EF93E00E9455
:102D7000013065E471E084EF93E00E94082E64E680
:102D800071E084EF93E00E94082E40912D02509153
:102D90002E0260912F027091300222E030E084EF29
:102DA00093E00E94013065E471E084EF93E00E94BB
:102DB000082E40914102509142026091430270916D
:102DC00044022AE030E084EF93E00E94DF2E8091FD
:102DD000C4019091C5019A8389830197D9F58091A7
:102DE0001A0190911B01892BA9F50E94822A00915A
:102DF000BA011091BB012091BC013091BD01601B53
:102E0000710B820B930B693C71058105910510F1E3
:102E10000E94822A6938734181059105D8F080911A
:102E2000C2019091C301019709F0A5C01092C3019E
:102E30001092C2016BE671E084EF93E00E942D2EA8
:102E40000E94822A6093BA017093BB018093BC01F7
:102E50009093BD018091C4019091C50190931B0195
:102E600080931A0165960FB6F894DEBF0FBECDBFF2
:102E7000DF91CF911F910F91FF90EF90DF90CF9056
:102E8000BF90AF909F908F907F906F905F904F908A
:102E90003F902F9008951092B90160E088E00E9461
:102EA000972B28E030E040E050E062E070E080E006
:102EB00090E00E941D30709317016093160163CE5D
:102EC00080911801909119011816190634F4019790
:102ED000909319018093180156CE81E08093B90137
:102EE00061E088E00E94972B2FE030E040E050E066
:102EF00066E070E080E090E00E941D307093190160
:102F00006093180140CE1092B80160E087E00E9403
:102F1000972B28E030E040E050E062E070E080E095
:102F200090E00E941D3070931301609312014DCE0A
:102F300080911401909115011816190634F4019727
:102F4000909315018093140140CE81E08093B801E5
:102F500061E087E00E94972B2FE030E040E050E0F6
:102F600066E070E080E090E00E941D3070931501F3
:102F7000609314012ACE29813A813093C3012093B2
:102F8000C20158CFCF92DF92EF92FF920F931F931F
:102F9000EFE4FBE085919491E4EFF2E0918380838C
:102FA0008BE690E09383828381E08483158216828E
:102FB00011861086E1E5FBE085919491EAEEF2E05E
:102FC000918380838CE690E09383828382E0848384
:102FD0001582168211861086E3E5FBE085919491B7
:102FE000E0EEF2E0918380838DE690E0938382832C
:102FF00084E08483158216821186108668E68DEC43
:1030000092E00E94481AE6E7F2E080E090E0A0E853
:10301000BFE380839183A283B383148215821682D7
:1030200017821086118612861386148615861686D8
:103030001786E0E7F2E01182108213821282158275
:103040001482E4E6F2E0108211821282138214826A
:1030500015821682178210861186128613868EE1DB
:1030600092E00E941C198BE192E00E941C1988E1F9
:1030700092E00E941C1985E192E00E941C1982E1F5
:1030800092E00E941C19C12CD12C760100E010E0C6
:1030900020E83FE3B901A8018FEE91E00E944E289D
:1030A00000E010E020E83FE3B901A80182ED91E0E3
:1030B0000E944E281F910F91FF90EF90DF90CF90CC
:1030C00008951F920F920FB60F9211242F933F93E2
:1030D0004F935F936F937F938F939F93AF93BF9320
:1030E000EF93FF938091020387FF27C01092850022
:1030F00010928400809102038F5F8093020380917D
:103100000203082E000C990B2091010328171906C1
:1031100029F024F0809102038C30DCF1809184004E
:1031200090918500049680349C4908F47BC080917E
:10313000840090918500049677C080910203082E48
:10314000000C990B209101032817190699F294F2AB
:10315000E09102038E2FEE0F990BFC01EE0FFF1F83
:10316000E80FF91FED5FFC4F808186FFC3CFE09130
:1031700002038E2FEE0F990BFC01EE0FFF1FE80FDD
:10318000F91FED5FFC4F808160E08F730E94972BE9
:10319000B1CF2091840030918500E09102038E2F01
:1031A000EE0F990BFC01EE0FFF1FE80FF91FED5F0B
:1031B000FC4F81819281820F931F909389008093AD
:1031C0008800E09102038E2FEE0F990BFC01EE0FA9
:1031D000FF1FE80FF91FED5FFC4F808186FF11C0D4
:1031E000E09102038E2FEE0F990BFC01EE0FFF1FF3
:1031F000E80FF91FED5FFC4F808161E08F730E9443
:10320000972BFF91EF91BF91AF919F918F917F91FC
:103210006F915F914F913F912F910F900FBE0F9043
:103220001F90189580E49CE9909389008093880012
:103230008FEF80930203E5CFFC01909101039C3056
:1032400098F481E0890F809301039083892F90E0A7
:10325000FC01EE0FFF1FE80FF91FED5FFC4F88EB3D
:103260009BE09283818308958FEF80830895DF929E
:10327000EF92FF920F931F93CF93DF93EC01D62E23
:103280007A01890188818C3008F067C061E08D2D5A
:103290000E945B2B8881282F30E0F901EE0FFF1F81
:1032A000E20FF31FED5FFC4F9D2D9F736081607CEB
:1032B000692B608320E232E02E193F0937FF02C0FC
:1032C0002D5F3F4F3595279535952795298320E626
:1032D00039E0201B310B37FF02C02D5F3F4F359582
:1032E0002795359527952A832CE0622F0E94E2339B
:1032F000829FB001112430E020E0AB01420F531F48
:10330000FA01EE0FFF1FE40FF51FED5FFC4F9081F8
:1033100096FD16C02F5F3F4F2C30310571F781119C
:103320000FC01092800082E080938100109285008F
:1033300010928400B19A80916F00826080936F0038
:10334000E8818E2F90E0FC01EE0FFF1FE80FF91FC0
:10335000ED5FFC4F8081806480838881DF91CF9115
:103360001F910F91FF90EF90DF900895DC01EC9199
:10337000EC3090F511968C91119728E830E0281BDD
:10338000310987FD3395220F331F220F331F621738
:10339000730784F012968C9128E532E0281B3109DE
:1033A00087FD3395220F331F220F331F62177307D8
:1033B0000CF49B0122503109220F331F4FB7F894B0
:1033C0008E2F90E0FC01EE0FFF1FE80FF91FED5F5D
:1033D000FC4F328321834FBF0895AF92BF92CF92AB
:1033E000DF92EF92FF920F931F93CF93DF93EC0145
:1033F000603282E078070CF03EC0653B710514F046
:1034000064EB70E0898148E8A42EB12CA81AB108B9
:1034100087FDB394AA0CBB1CAA0CBB1C0B2C000C84
:10342000CC08DD0877FF02C070E060E0072E000CDA
:10343000880B990B2A8108E512E0021B110927FD70
:103440001395000F111F000F111F012E000C220BEE
:10345000330B3F932F931F930F9314EBE12EF12C1B
:1034600000E010E020E030E0A9010E943B300F9026
:103470000F900F900F90CE01DF91CF911F910F9180
:10348000FF90EF90DF90CF90BF90AF900C94B61963
:10349000FC0160830895462F69E1FC0180810C9452
:1034A000C0210F93062F23E045E06AE1FC018081F3
:1034B0000E9433230F9108950F93062F23E042E0DB
:1034C0006AE1FC0180810E9433230F9108950F93DC
:1034D000062F22E044E06BE1FC0180810E9433234F
:1034E0000F9108950F93062F22E044E06CE1FC0158
:1034F00080810E9433230F910895462F6FE1FC01D4
:1035000080810C94C021462F60E2FC0180810C94E4
:10351000C021462F61E2FC0180810C94C021462F1E
:1035200062E2FC0180810C94C021FC01962F643082
:1035300030F4660F690F6B5D80810C94C021089593
:10354000462F68E3FC0180810C94C021CF93DF9368
:10355000EC012091260130912701AC014F5F5F4FB4
:103560006AE388810E94BB228981DF91CF9108950F
:10357000262F46E06AE6FC0180810C940323262F67
:1035800045E06AE6FC0180810C94032321E042E0DF
:103590006AE6FC0180810C94032321E041E06AE6A5
:1035A000FC0180810C94032321E047E06BE6FC01E1
:1035B00080810C940323262F46E06BE6FC0180817A
:1035C0000C9403230F93062F23E042E06BE6FC01EB
:1035D00080810E9433230F910895CF93DF93EC01F4
:1035E00061E00E94E21A60E0CE010E94671A60E08A
:1035F000CE010E94721A60E0CE01DF91CF910C944F
:10360000DB1A0F931F93CF93DF93EC0100912601F8
:10361000109127019C012F5F3F4F42E062E78881B4
:103620000E94172289819A81982789279827DF91FC
:10363000CF911F910F9108950F931F93442369F029
:103640009B01FC01009126011091270164E7808114
:103650000E9417221F910F910895FB011082FACF4B
:10366000EF92FF920F931F93CF93DF93EC01E090C3
:103670002601F09027018C010F5F1F4F26E046E0E6
:1036800065E788810E94C5228981DF91CF911F91D2
:103690000F91FF90EF9008950E94301B91E08433CA
:1036A00009F090E0892F0895262F40E060E0FC01AA
:1036B00080810C9403230F931F93CF93DF93EC012E
:1036C0008B010E94301B67E7883308F466E0A8018D
:1036D0008881DF91CF911F910F910C9405220F9358
:1036E0001F93CF93DF93EC018B010E94301B6AE79D
:1036F000883308F468E0A8018881DF91CF911F9199
:103700000F910C9405220F931F93CF93DF93EC013D
:103710008B010E94301B6DE7883308F46AE0A80132
:103720008881DF91CF911F910F910C940522AB01FD
:1037300063E1FC0180810C940522AB0165E1FC0191
:1037400080810C940522AB0167E1FC0180810C941F
:103750000522262F47E06AE6FC0180810C940323B2
:1037600021E043E06AE6FC0180810C9403236F7141
:103770002111606241116064462F6DE6FC01808179
:103780000C94C021462F6EE6FC0180810C94C02170
:10379000CF93DF93EC012091260130912701AC01FA
:1037A0004F5F5F4F6FE688810E94BB228981DF9166
:1037B000CF9108952F923F924F925F926F927F9296
:1037C0008F929F92AF92BF92CF92DF92EF92FF9231
:1037D0000F931F93CF93DF9300D000D01F92CDB7EC
:1037E000DEB79D838C837B836A832A01222ED02EB1
:1037F000E98220E040E0622D0E94B71B602F8C819F
:103800009D810E94C21BE980912C812CEE2029F021
:1038100080E190E00E946D344C01B12CA12CCC20B1
:1038200029F080E190E00E946D345C01F12CE12CE4
:10383000E414F50408F093C0C7014096342C3E18F8
:103840004816590610F080E1382E80E091E08D197D
:1038500091093816190619F014F03D2C3194CC203A
:1038600081F0D50190E080E02A813B812E0D3F1D43
:10387000831558F4F901E80FF91FE491ED930196CF
:10388000F7CFAA80BB80AE0CBF1C9501432D6FE61D
:10389000EC81FD8180810E949121632C712CF98142
:1038A000FF2309F445C08114910409F441C020E0CC
:1038B00040E0622D8C819D810E94B71B6D2D8C8113
:1038C0009D810E94C21B0091260110912701940145
:1038D000432D6FE6EC81FD8180810E941722A301B8
:1038E000B401C5010E943636892B11F1C4010E9432
:1038F0000935CC2021F0C5010E940935C12C8C2D41
:103900000F900F900F900F900F90DF91CF911F911C
:103910000F91FF90EF90DF90CF90BF90AF909F906E
:103920008F907F906F905F904F903F902F90089571
:10393000E60CF71CD30CE414F50408F079CFD11091
:1039400001C0239420E040E0622D8C819D810E9483
:10395000B71B6D2D8C819D810E94C21B69CFF9819F
:10396000FF2319F0C4010E940935CC2021F0C501C4
:103970000E940935C4CFCC24C394C1CFCF92EF921B
:103980000F93CC24C3940E94DA1B0F91EF90CF9039
:103990000895462F60E7FC0180810C94C021462FDA
:1039A00061E7FC0180810C94C021CF92DF92FF92ED
:1039B0000F931F93CF93DF93CDB7DEB72E970FB63C
:1039C000F894DEBF0FBECDBF6C010E94301B97E79D
:1039D000F92E883310F486E0F82E66EB7AE084EF57
:1039E00093E00E94E42D009126011091270186E0CA
:1039F0009E01275F3F4F43E066E0F816F1F041E09B
:103A00006F2DF60180810E9479230091260110918B
:103A1000270163E06F0D9E01255F3F4F41E0F601F6
:103A200080810E947923009126011091270166E090
:103A30006F0D9E01235F3F4F41E0F60180810E94A0
:103A4000792365EB7AE084EF93E00E94E42D63EB49
:103A50007AE084EF93E00E94E42D69857A85072E51
:103A6000000C880B990B0E941D328E010F5F1F4FB7
:103A700020E045E00E944F34BC0184EF93E00E94B7
:103A8000082E6FEA7AE084EF93E00E94E42D6EEA5C
:103A90007AE084EF93E00E94E42D6CEA7AE084EF10
:103AA00093E00E94E42D6B857C85072E000C880B2B
:103AB000990B0E941D3220E045E00E944F34BC016A
:103AC00084EF93E00E94082E68EA7AE084EF93E0A6
:103AD0000E94E42D67EA7AE084EF93E00E94E42DEF
:103AE00065EA7AE084EF93E00E94E42D6D857E859F
:103AF000072E000C880B990B0E941D3220E045E038
:103B00000E944F34BC0184EF93E00E94082E61EACA
:103B10007AE084EF93E00E94E42D00912601109159
:103B200027019E01275F3F4F43E063E1F60180815B
:103B30000E94792360EA7AE084EF93E00E94E42D0A
:103B40006EE97AE084EF93E00E94E42D69857A853E
:103B5000072E000C880B990B0E941D328E010F5FFF
:103B60001F4F20E045E00E944F34BC0184EF93E0FA
:103B70000E94082E6AE97AE084EF93E00E94E42D27
:103B800069E97AE084EF93E00E94E42D67E97AE046
:103B900084EF93E00E94E42D6B857C85072E000C5A
:103BA000880B990B0E941D3220E045E00E944F34A3
:103BB000BC0184EF93E00E94082E63E97AE084EF71
:103BC00093E00E94E42D62E97AE084EF93E00E94A2
:103BD000E42D60E97AE084EF93E00E94E42D6D85A6
:103BE0007E85072E000C880B990B0E941D3220E069
:103BF00045E00E944F34BC0184EF93E00E94082E00
:103C00006EE87AE084EF93E00E94E42D2E960FB6E2
:103C1000F894DEBF0FBECDBFDF91CF911F910F9102
:103C2000FF90DF90CF9008952F923F924F925F9236
:103C30006F927F928F929F92AF92BF92CF92DF92BC
:103C4000EF92FF920F931F93CF93DF93CDB7DEB721
:103C5000E7970FB6F894DEBF0FBECDBF998F888F60
:103C600069A32AA73BA74CA75DA7EEA6FFA608ABB2
:103C700019AB6B3309F0E8C10E94301B883308F49C
:103C8000E8C127E72F8B33E03C8F6EE384EF93E0AE
:103C90000E947A2CFE013D96FE8BED8B9E012F5FDC
:103CA0003F4F3B8F2A8F7F01DF88009126011091C3
:103CB00027019E012D5E3F4F41E06D2DA88DB98DEE
:103CC0008C910E947923AB88BC88B5010B2C000C29
:103CD000880B990B0E941D32BF89B33109F4BEC114
:103CE000E1E0AE22BB24D701AD92BC9220E030E0EF
:103CF00040E051E40E940133EA8DFB8D60837183C3
:103D000082839383BC8DDB0EE2E0EE0EF11C2A8DE4
:103D10003B8D2C5F3F4F3B8F2A8F8D899E892817C3
:103D2000390719F699A19B3309F0A6C18DEC9CECDB
:103D3000ACE4BDE38AAB9BABACABBDAB1DA21CA29C
:103D4000AC2DB0E0BFABAEABEEA9FFA92CA13DA15D
:103D50002E173F070CF0ECC1312C212C1BA21AA20C
:103D6000CE0101969E8F8D8FDE011D96BFA3AEA35F
:103D7000BF89B8A7E9A1E9A718A21F8E812C912CB1
:103D8000540100912601109127019E012D5E3F4FA5
:103D900041E069A5A88DB98D8C910E9479236B892A
:103DA0007C89072E000C880B990B0E941D326B0139
:103DB0007C01B9A1BB3361F4EF8DF8A1329741F4D6
:103DC00020E030E040E856E40E948F306B017C0137
:103DD0002601370177FA709477F8709420E030E08C
:103DE000A901C701B6010E94F432181614F073013C
:103DF0006201C501B4010E941B32A70196010E9415
:103E000090300E94EC314B015C012FE632E143E837
:103E10005AE3C301B2010E9401332EA53FA548A970
:103E200059A90E940133AD8DBE8D2D913D914D91CB
:103E30005C910E9490306B017C01ED8DFE8DC08203
:103E4000D182E282F382A30192016AA57BA58CA5AF
:103E50009DA50E940133A70196010E949030FF8921
:103E6000F33109F413C120E030E040E05EE30E944A
:103E700001336B017C0120E030E0A9010E94F432A3
:103E800020E030E040E05FE387FDFBC0C701B60102
:103E90000E9490300E94E5316E7FAEA1BFA18D914E
:103EA0009C91682B792B7C8B6B8B9E012D5E3F4FF9
:103EB00041E068A5E88DF98D80810E94D0212F8D89
:103EC00038A12F5F3F4F38A32F8F39A53E5F39A709
:103ED00088A59C8D890F88A7AEA1BFA11296BFA30C
:103EE000AEA3ED8DFE8D3496FE8FED8F2F8D38A114
:103EF0002330310509F045CF33E62316310471F440
:103F000089EE881683E09806A104B10438F06AE2CD
:103F100084EF93E00E947A2C312C212CC501B4014E
:103F20000E941B322AA93BA94CA95DA90E9401331A
:103F300020E030E040EA50E40E946E3187FF05C087
:103F4000AAA1BBA11196BBA3AAA3B4E68B169104A8
:103F5000A104B10408F0B9C0EBE02E1631040CF452
:103F6000B4C02AA13BA12A3031050CF4AEC06EE2E8
:103F700084EF93E00E947A2C20E030E040E45FE39D
:103F80006AA57BA58CA59DA50E9401336AA77BA786
:103F90008CA79DA720E030E040E45FE36EA57FA5FD
:103FA00088A999A90E9401336EA77FA788AB99AB16
:103FB000CE010D966C01FF88DE0111963D01D30103
:103FC0006D917D918D919D913D01BF89B33109F432
:103FD00090C020E030E040E05EE30E9401334B01FE
:103FE0005C0120E030E0A9010E94F43220E030E0E2
:103FF00040E05FE387FD78C0C501B4010E949030C6
:104000000E94E5316E7FF60180819181682B792BCA
:104010007C8B6B8B9E012D5E3F4F41E06F2DA88DF9
:10402000B98D8C910E94D021BC8DFB0EE2E0CE0EAA
:10403000D11C2A8D3B8D2615370509F68CA19DA133
:1040400001969DA38CA380CE83E18F8B92E09C8F01
:104050001CCEA6E0AF8BB2E0BC8F17CE20E030E0E4
:1040600040E850E40E940133AA8DBB8D6D937D938F
:104070008D939C93139746CE80E090E0A0E8BFE339
:1040800059CEC701B6010E948F3004CF20E030E046
:1040900040E85EE30E9401336B017C0120E030E0E8
:1040A000A9010E94F43220E030E040E05FE387FDA8
:1040B00007C0C701B6010E9490300E94E531F3CEDF
:1040C000C701B6010E948F30F8CF61E070E080E058
:1040D00090E00E94B32ABFEF2B1A3B0AE4E62E16AB
:1040E000310409F03DCE43CFC501B4010E948F30A9
:1040F00087CF20E030E040E85EE30E9401334B01CF
:104100005C0120E030E0A9010E94F43220E030E0C0
:1041100040E05FE387FD07C0C501B4010E94903015
:104120000E94E53175CFC501B4010E948F30F8CFF0
:10413000888D998D0E94C61A888D998D0E94B01B1A
:10414000E7960FB6F894DEBF0FBECDBFDF91CF91DB
:104150001F910F91FF90EF90DF90CF90BF90AF90A5
:104160009F908F907F906F905F904F903F902F9097
:1041700008954F925F926F927F929F92AF92BF92FB
:10418000CF92DF92EF92FF920F931F93CF93DF9323
:10419000EC01962E70E090E080E01F921F921F923B
:1041A0001F9224E1A22EB12CC12CD12C15E0E12EBE
:1041B000F12C00E010E021E030E040E050E00E940F
:1041C0003B3044E6C42ED12CE12CF12CA701960102
:1041D000261B370B480B590BCA01B9010E941D322F
:1041E0002AE037ED43E25CE30E9401336B017C017E
:1041F00020E030E044EB52E40E9401332B013C010B
:104200002AE939E949E95EE3C701B6010E940133B1
:104210009B01AC01C92C8301720163E4CE010E94B1
:10422000141E0F900F900F900F90DF91CF911F9160
:104230000F91FF90EF90DF90CF90BF90AF909F9045
:104240007F906F905F904F9008954F925F926F9222
:104250007F929F92AF92BF92CF92DF92EF92FF92A6
:104260000F931F93CF93DF93EC01962E70E090E0B5
:1042700080E01F921F921F921F9224E1A22EB12C68
:10428000C12CD12C15E0E12EF12C00E010E021E052
:1042900030E040E050E00E943B3044E6C42ED12C98
:1042A000E12CF12CA7019601261B370B480B590B6B
:1042B000CA01B9010E941D322AE037ED43E25CE3F6
:1042C0000E9401336B017C0120E030E040EA51E4C0
:1042D0000E9401332B013C012AE939E949E95EE3F7
:1042E000C701B6010E9401339B01AC01C92C8301B7
:1042F00072016BE3CE010E94141E0F900F900F907D
:104300000F90DF91CF911F910F91FF90EF90DF9071
:10431000CF90BF90AF909F907F906F905F904F90A5
:104320000895FF920F931F93CF93DF93C62F042F0F
:10433000F22E132F682F87E293E00E9426256C2F20
:1043400087E293E00E94B424CF2DD12F0C0F1D2FB4
:10435000111DC017D10731F0699187E293E00E94E7
:10436000B424F7CF87E293E00E94A92591E0811160
:1043700090E0892FDF91CF911F910F91FF900895C9
:10438000CF93DF931F92CDB7DEB749839E012F5F96
:104390003F4F41E00E9491210F90DF91CF9108950E
:1043A000FF920F931F93CF93DF93C62F042FF22E0C
:1043B000132F682F87E293E00E9426256C2F87E257
:1043C00093E00E94B424CF2DD12F10E0101779F084
:1043D0006981229687E293E00E94B424FE0132971D
:1043E000608187E293E00E94B4241F5FEFCF87E2F1
:1043F00093E00E94A92591E0811190E0892FDF913F
:10440000CF911F910F91FF900895CF93DF9300D02C
:10441000CDB7DEB75A8349839E012F5F3F4F41E0FE
:104420000E94D0210F900F90DF91CF9108952F928D
:104430003F924F925F926F927F928F929F92AF9234
:10444000BF92CF92DF92EF92FF920F931F93CF9381
:10445000DF9300D000D0CDB7DEB78C83D62E4B8350
:104460003A8329830E94822A4B015C018B81E82ECA
:10447000F12C282E813210F080E2282E312CC12C14
:104480002801712C612C8B81381608F043C06C8197
:1044900087E293E00E9426256D2D87E293E00E943B
:1044A000B42487E293E00E94A9256C8187E293E01F
:1044B0000E942625A701431951094032510514F0E5
:1044C00040E250E06C8187E293E00E94A62587E2FB
:1044D00093E00E945424892BD9F00115110569F449
:1044E00087E293E00E945B24E981FA81EC0DF11DE3
:1044F000C7FCFA958083C394EACF0E94822A681988
:1045000079098A099B09641575058605970540F3A5
:10451000320CB9CF01151105B1F00E94822A681939
:1045200079098A099B0930E020E06017710782074A
:10453000930748F08C2D0C2C000C990B8E159F05C1
:1045400014F4CC24CA948C2D0F900F900F900F90E0
:10455000DF91CF911F910F91FF90EF90DF90CF905F
:10456000BF90AF909F908F907F906F905F904F9093
:104570003F902F9008950F931F9389019A0141E076
:104580000E9417221F910F910895CF92DF92EF9210
:10459000FF920F931F93CF93DF931F92CDB7DEB798
:1045A000D42EC22E9701AE014F5F5F4F0E94BB22F7
:1045B0008823F9F02D2D2C19330BA9014F5F5F4F84
:1045C00021E030E002C0220F331FCA94E2F72150ED
:1045D0003109B901042E01C0660F0A94EAF7298156
:1045E000262330E002C0359527954A95E2F7F80179
:1045F00020830F90DF91CF911F910F91FF90EF904B
:10460000DF90CF900895EF92FF920F931F93CF9377
:10461000DF931F92CDB7DEB7182F062FE42EF22EB0
:104620002091260130912701AE014F5F5F4F0E941C
:10463000BB2281E090E001C0880FEA94EAF749814B
:10464000FF2071F0482B4983602F812F0E94C021E9
:104650000F90DF91CF911F910F91FF90EF900895F0
:1046600080954823F0CFDF92EF92FF920F931F9334
:10467000CF93DF931F92CDB7DEB7F82EE62E142F1F
:10468000D22E2091260130912701AE014F5F5F4F5E
:104690000E94BB22882359F1812F8D19990BAC01FF
:1046A0004F5F5F4F81E090E002C0880F991FDA945E
:1046B000E2F70197042E01C0880F0A94EAF701C0BF
:1046C000000F4A95EAF7482F4095998149238023A6
:1046D000482B49836E2D8F2D0E94C0210F90DF91B2
:1046E000CF911F910F91FF90EF90DF90089580E0A0
:1046F000F5CF2F923F924F925F926F927F928F925F
:104700009F92AF92BF92CF92DF92EF92FF920F9360
:104710001F93CF93DF93CDB7DEB729970FB6F894E9
:10472000DEBF0FBECDBFC82E6D8349833F832E836E
:104730000E94822A4B015C012981E22EF12C170193
:10474000220C331C220F2B83822D31E223163104DD
:104750000CF080E28C831982D12C2801712C612C01
:104760008981821513040CF069C06C2D87E293E0F7
:104770000E9426256D8187E293E00E94B42487E29F
:1047800093E00E94A9256C2D87E293E00E942625E4
:104790004B816C2D87E293E00E94A62591E09A83DD
:1047A00087E293E00E945424892B91F1ED2D0D2C8A
:1047B000000CFF0BF987E887EE15FF054CF5011596
:1047C0001105D9F428853985220F331F8E819F81E9
:1047D000280F391F398728879A81911122C087E2D3
:1047E00093E00E945B24E885F98520813181822B4A
:1047F000932B91838083D3941CC00E94822A6819D2
:1048000079098A099B096415750586059705D0F213
:1048100087E293E00E94A925E981FC81EF0FE983FB
:104820009FCF87E293E00E945B24E885F9851082A0
:104830008183FA8121E0F227FA83B2CF01151105B5
:10484000B1F00E94822A681979098A099B0930E02F
:1048500020E0601771078207930748F08D2D0D2C1B
:10486000000C990B8E159F0514F4DD24DA948D2D20
:1048700029960FB6F894DEBF0FBECDBFDF91CF9162
:104880001F910F91FF90EF90DF90CF90BF90AF906E
:104890009F908F907F906F905F904F903F902F9060
:1048A000089590E080E0089580915B0390915C030F
:1048B000891B990B089590915C0380915B032FEF06
:1048C0003FEF981748F4E92FF0E0E35AFC4F2081BE
:1048D00030E09F5F90935C03C9010895E0915C0311
:1048E00080915B03E81730F4F0E0E35AFC4F8081DD
:1048F00090E008958FEF9FEF08950895CF93DF9391
:10490000EC01E0913303F09134033097F1F0909192
:104910005C0380915B039817C0F090E0292F30E092
:104920002617370754F4DE01A20FB31F4C91235A08
:104930003C4FD9014C939F5FF1CF10925C03609381
:104940005B03CB01DF91CF910994DF91CF91089563
:10495000E0913503F0913603309729F01092390336
:104960001092380309940895CF93DF931F92CDB727
:10497000DEB76983209137032223F9F020913803B1
:10498000203258F021E030E0FC013383228390E0B4
:1049900080E00F90DF91CF91089580913903E82F47
:1049A000F0E0E65CFC4F998190838F5F8093390340
:1049B0008093380381E090E0ECCF61E0CE01019676
:1049C0000E948D26F7CFCF92DF92EF92FF920F9346
:1049D0001F93CF93DF937C01CB018A012091370392
:1049E000222389F0EB016B01C40ED51ECC15DD0529
:1049F00069F06991D701ED91FC910190F081E02D72
:104A0000C7010995F3CF642F0E948D26C801DF915D
:104A1000CF911F910F91FF90EF90DF90CF9008956D
:104A200010925C0310925B031092390310923803CA
:104A30000E94BD2588EA94E20E94B9268EE794E29E
:104A40000C94B426CB01BA010C94DB2581E0809351
:104A5000370360935A031092390310923803089574
:104A60000F93062F21E0409138036AE373E08091B1
:104A70005A030E943626109239031092380310927E
:104A800037030F9108954F925F926F927F92AF928A
:104A9000BF92CF92EF92FF920F931F93CF93DF932A
:104AA0005C01F62ED42F28013901EE2019F10E9465
:104AB0002625CE2DC43008F0C3E0C150B8F028E060
:104AC000C29FC0011124A301920104C056954795CD
:104AD000379527958A95D2F7B901D501ED91FC91CB
:104AE0000190F081E02DC5010995E7CF60E0C50197
:104AF0000E9430254D2FD13208F040E22C2D6DE57B
:104B000073E08F2D0E94EE2510925C0380935B036F
:104B1000DF91CF911F910F91FF90EF90CF90BF90B9
:104B2000AF907F906F905F904F900895CF92EF92EB
:104B30000F931F93C22EE12C00E010E098010E9419
:104B400043251F910F91EF90CF90089521E00C9491
:104B5000962561E00C943025E7E2F3E0138212829F
:104B600088EE93E0A0E0B0E084839583A683B783CA
:104B700081E891E09183808308951092EA0381E0B7
:104B80008093E8031092E70361E082E10E94972B93
:104B900061E083E10E94972BE9EBF0E080818E7F5A
:104BA000808380818D7F808388E48093B80085E452
:104BB0008093BC0008959B01AC0160E074E284EF37
:104BC00090E00E94EE332051310941095109569578
:104BD0004795379527952093B8000895413208F0FE
:104BE00043C09091EA039111FCCF91E09093EA03C6
:104BF0002093E8032FEF20937D031092C203240F2C
:104C00002093C1039093E9039091E903880F892BC6
:104C10008093E9038091E703813009F51092E7035F
:104C20008091E9038093BB008091BC0083FDF8CFA5
:104C300085EC8093BC008091EA038130E1F38091A0
:104C4000C203841710F44091C203A3ECB3E0962F83
:104C5000FB018E2F891B841720F0842F089585EE89
:104C6000E8CF8D918193F5CF40E0F7CF0F9341329C
:104C700008F04BC09091EA039111FCCF92E0909321
:104C8000EA030093E8039FEF90937D031092C20321
:104C90004093C103362FA3ECB3E0FB019E2F931B7F
:104CA000941770F11092E9039091E903880F892B12
:104CB0008093E9038091E703813029F51092E7039F
:104CC0008091E9038093BB008091BC0083FDF8CF05
:104CD00085EC8093BC00222321F08091EA0382308E
:104CE000D1F380917D038F3F91F080917D038032DD
:104CF00081F080917D03803371F084E00F910895FD
:104D000091919D93CBCF85EEE4CF81E0F7CF80E00A
:104D1000F5CF82E0F3CF83E0F1CF20919F03260F00
:104D20003327331F21323105ECF42091EA03FC01D3
:104D300090E080E0243069F082E00895A0919F0324
:104D40002191AC014F555C4FA40FB52FB11D2C9391
:104D50000196861798F380919F03680F60939F03D5
:104D600080E0089581E008959093E4038093E30345
:104D700008959093E6038093E503089585ED80936D
:104D8000BC008091BC0084FDFCCF1092EA03089522
:104D900085EC8093BC001092EA0308951F920F9255
:104DA0000FB60F9211242F933F934F935F936F93FE
:104DB0007F938F939F93AF93BF93EF93FF938091D4
:104DC000B900887F803609F44CC008F03FC08832B3
:104DD00009F4A8C018F5803109F49CC0B8F4882300
:104DE00009F4F9C0883009F495C0FF91EF91BF91A3
:104DF000AF919F918F917F916F915F914F913F9173
:104E00002F910F900FBE0F901F901895883109F4C5
:104E100089C0803251F780937D0315C0803409F436
:104E20009EC048F48033B9F38833F9F680937D034C
:104E30000E94C826DACF803509F485C0883509F488
:104E400096C0883491F60E94BE26CFCF883909F4E7
:104E50008CC038F5883729F050F4883611F0803747
:104E600021F683E08093EA0310927E0357C08838CE
:104E700009F47BC0803919F0803809F0B6CF8091F1
:104E80007E03803208F071C0E0917E0381E08E0FD6
:104E900080937E038091BB00F0E0E158FC4F80835B
:104EA0003DC0803B39F0E0F4803A09F479C0883A9B
:104EB00009F09BCF84E08093EA031092A003109244
:104EC0009F03E091E503F091E603099580919F032C
:104ED00081110FC081E080939F031092A10309C04C
:104EE000803C09F476C0883C09F473C0883B09F023
:104EF0007CCFE091A00381E08E0F8093A003F0E0CF
:104F0000EF55FC4F80818093BB009091A00380916E
:104F10009F0329C08091E9038093BB0085EC8093B7
:104F2000BC0063CF9091C2038091C103981758F5DC
:104F3000E091C20381E08E0F8093C203F0E0ED5355
:104F4000FC4F8081E9CFE091C20381E08E0F809316
:104F5000C2038091BB00F0E0ED53FC4F8083909141
:104F6000C2038091C1039817C8F285E8D8CFE091B9
:104F7000C20381E08E0F8093C2038091BB00F0E0FA
:104F8000ED53FC4F80838091E80381115CCF81E079
:104F90008093E70384EA8093BC001092EA0325CF54
:104FA0000E94C82680917E03803230F4E0917E0317
:104FB000F0E0E158FC4F108260917E0370E0E091D8
:104FC000E303F091E4038FE793E0099510927E03E9
:104FD0000CCF85ECE0CF10927D0335CFCF92DF92DE
:104FE000EF92FF92CF93DF93EC016A017B012FE6F2
:104FF00032E143E85AE3CB01B6010E946E3187FDEE
:1050000011C020E030E04AE754E4C701B6010E9435
:10501000F43218167CF4C12CD12C8AE7E82E84E4F3
:10502000F82E08C09FE6C92E92E1D92E93E8E92E0A
:105030009AE3F92EC88AD98AEA8AFB8ADF91CF914E
:10504000FF90EF90DF90CF900895CF92DF92EF9294
:10505000FF92CF93DF93EC016A017B0120E030E007
:10506000A901CB01B6010E94F432181624F0F7FA18
:10507000F094F7F8F0942BED3FE049EC50E4C701D1
:10508000B6010E9401336C8B7D8B8E8B9F8BDF91E1
:10509000CF91FF90EF90DF90CF9008958F929F92E5
:1050A000AF92BF92CF92DF92EF92FF920F931F9336
:1050B000CF93DF93EC014A015B01B901A801C882DB
:1050C000D982EA82FB821C821D821E821F82188E78
:1050D0000E94EE27B501A401CE010E9425280E945E
:1050E0008E2A698F7A8F8B8F9C8FDF91CF911F9142
:1050F0000F91FF90EF90DF90CF90BF90AF909F9077
:105100008F900895EF92FF920F931F93CF93DF93A9
:10511000EC01FB01CA01B901188EE882F9820A8309
:105120001B833097D1F42AE037ED43EA5FE30E9416
:105130000133AB01BC01CE010E9425288DE790ED23
:10514000A3E1BFE3888B998BAA8BBB8BDF91CF91B7
:105150001F910F91FF90EF9008953197B9F7A90132
:10516000BC01CE010E94252881E894E0A5E3BFE3BD
:10517000E9CF2F923F924F925F926F927F928F92E0
:105180009F92AF92BF92CF92DF92EF92FF920F93D6
:105190001F93CF93DF93CDB7DEB72A970FB6F8945E
:1051A000DEBF0FBECDBF9A8789872A013B01DC0194
:1051B0001C964D925D926D927C921F970E948E2A52
:1051C0006B017C01E985FA85818D928DA38DB48D6B
:1051D000A7019601281B390B4A0B5B0BCA01B901C9
:1051E0000E941D322DEB37E346E855E30E94013360
:1051F0004B015C01A985BA855996CD92DD92ED925D
:10520000FC925C975496CD90DD90ED90FC90579772
:1052100020E030E0A9010E946E3187FDAFC0A701F8
:10522000960160E070E080E89FE30E947331162FE2
:10523000072F382E292E262F372F482F592FB4010C
:10524000C5010E94F432181624F0182D092D3A2CAD
:105250002B2CA7019601C701B6010E9401336D8373
:105260007E838F839887E985FA8584809580A680E0
:10527000B780208131814281538129833A834B83D6
:105280005C839B01AC01C301B2010E9401332B017D
:105290003C01E985FA852089318942895389C70112
:1052A000B6010E947331A50194010E9401339B0154
:1052B000AC01C301B2010E948F306B017C012D81D2
:1052C0003E814F81588569817A818B819C810E94C2
:1052D00001339B01AC01C701B6010E948F30212F21
:1052E000302F432D522D0E940133A50194010E94BD
:1052F00090306B017C01AC019B01C501B4010E949F
:10530000903020E030E040E05FE30E940133A98567
:10531000BA8518966D937D938D939C931B97212F3F
:10532000302F432D522D0E94013329813A814B8128
:105330005C810E949030E985FA8560837183828365
:105340009383C482D582E682F7822A960FB6F894B8
:10535000DEBF0FBECDBFDF91CF911F910F91FF90A8
:10536000EF90DF90CF90BF90AF909F908F907F9005
:105370006F905F904F903F902F90089510E000E065
:10538000312C212C66CFFC01608171818281938157
:10539000089508958230E8F4E82FF0E0EE0FFF1F43
:1053A000E85DFE4F71836083813041F08091690038
:1053B0008C7F482B40936900E89A0895809169009A
:1053C000837F440F551F440F551F482B409369009E
:1053D000E99A08951F920F920FB60F9211242F93FE
:1053E0003F934F935F936F937F938F939F93AF936D
:1053F000BF93EF93FF93E0912801F0912901099564
:10540000FF91EF91BF91AF919F918F917F916F919C
:105410005F914F913F912F910F900FBE0F901F9072
:1054200018951F920F920FB60F9211242F933F934E
:105430004F935F936F937F938F939F93AF93BF939C
:10544000EF93FF93E0912A01F0912B010995FF91D1
:10545000EF91BF91AF919F918F917F916F915F91EC
:105460004F913F912F910F900FBE0F901F90189565
:105470001F920F920FB60F9211242F933F938F9389
:105480009F93AF93BF938091F0039091F103A0910C
:10549000F203B091F3033091EF0323E0230F2D3794
:1054A00068F126E8230F0296A11DB11D2093EF039A
:1054B0008093F0039093F103A093F203B093F3036E
:1054C0008091EB039091EC03A091ED03B091EE037A
:1054D0000196A11DB11D8093EB039093EC03A09363
:1054E000ED03B093EE03BF91AF919F918F913F91E8
:1054F0002F910F900FBE0F901F9018950196A11D30
:10550000B11DD4CF2FB7F8946091F0037091F103DF
:105510008091F2039091F3032FBF08953FB7F89461
:105520008091EB039091EC03A091ED03B091EE0319
:1055300026B5A89B05C02F3F19F00196A11DB11DEE
:105540003FBFBA2FA92F982F8827BC01CD01620F2A
:10555000711D811D911D42E0660F771F881F991FE5
:105560004A95D1F708958F929F92AF92BF92CF92B2
:10557000DF92EF92FF926B017C010E948E2A4B0119
:105580005C01C114D104E104F104E9F00E948E3001
:105590000E948E2A681979098A099B09683E73401E
:1055A0008105910570F321E0C21AD108E108F108E4
:1055B00088EE880E83E0981EA11CB11CC114D10492
:1055C000E104F10429F7FF90EF90DF90CF90BF90B6
:1055D000AF909F908F900895789484B5836084BD38
:1055E00085B5836085BDEEE6F0E0808181608083D3
:1055F000E1E8F0E082E08083808181608083E0E800
:10560000F0E0808181608083E1EBF0E08081846064
:105610008083E0EBF0E080818160808387E8809385
:105620007A001092C1000895883020F08D3008F47F
:105630008DE08E5020912C0190E4299F900111243F
:105640008770822B80937C0080917A0080648093A5
:105650007A0080917A0086FDFCCF8091780090914D
:1056600079000895843081F028F48230E9F08330A5
:10567000F9F00895883071F0893091F08530B9F4EF
:10568000809180008F7D03C0809180008F77809310
:10569000800008958091B0008F778093B0000895C6
:1056A0008091B0008F7DF9CF84B58F7784BD089548
:1056B00084B58F7DFBCFCF93DF9390E0FC01E35E59
:1056C000F44F24918C5C944FFC0184918823C9F0A1
:1056D00090E0880F991FFC01E15AF44FA591B49115
:1056E000FC01EB5AF44FC591D49161110DC09FB7E5
:1056F000F8948C91209582238C9388812823288389
:105700009FBFDF91CF910895623051F49FB7F89415
:105710003C91822F809583238C93E8812E2BEFCFB1
:105720008FB7F894EC912E2B2C938FBFEACF1F9359
:10573000CF93DF93282F30E0F901EA5FF44F849193
:10574000F901E35EF44FD491F901EC5CF44FC4919C
:10575000CC23A9F0162F81110E94322BEC2FF0E000
:10576000EE0FFF1FEB5AF44FA591B4918FB7F89449
:10577000EC91111108C0D095DE23DC938FBFDF912F
:10578000CF911F910895DE2BF8CFCF93DF93282F71
:1057900030E0F901EA5FF44F8491F901E35EF44FE0
:1057A000D491F901EC5CF44FC491CC23A1F08111A8
:1057B0000E94322BEC2FF0E0EE0FFF1FE55BF44F61
:1057C000A591B491EC91ED2381E090E009F480E0A3
:1057D000DF91CF91089580E090E0FACFFC01918DA8
:1057E000228D892F90E0805C9F4F821B91098F73DF
:1057F00099270895FC01918D828D981731F0828D43
:10580000E80FF11D858D90E008958FEF9FEF0895CB
:10581000FC01918D828D981761F0A28DAE0FBF2F84
:10582000B11D5D968C91928D9F5F9F73928F90E0DA
:1058300008958FEF9FEF0895FC01538D448D252F20
:1058400030E0842F90E0821B930B541710F0CF961A
:1058500008950197089581E79DE2892B49F080E042
:1058600090E0892B29F00E94712D81110C94000089
:105870000895FC01A48DA80FB92FB11DA35ABF4FE5
:105880002C91848D90E001968F739927848FA6893F
:10589000B7892C93A089B1898C9180648C93938D66
:1058A000848D981306C00288F389E02D80818F7D56
:1058B00080830895CF93DF93EC01888D8823B9F01E
:1058C000AA89BB89E889F9898C9185FD03C080810B
:1058D00086FD0DC00FB607FCF7CF8C9185FFF2CF88
:1058E000808185FFEDCFCE010E94392CE9CFDF9179
:1058F000CF910895EF92FF920F931F93CF93DF9371
:10590000EC0181E0888F9B8D8C8D981316C0E889FF
:10591000F989808185FF11C0EE89FF896083E8895C
:10592000F98980818064808381E090E0DF91CF916C
:105930001F910F91FF90EF900895F62E0B8D10E0C0
:105940000F5F1F4F0F731127E02E8C8D8E110CC02F
:105950000FB607FCFACFE889F989808185FFF5CF7A
:10596000CE010E94392CF1CFEB8DEC0FFD2FF11DF4
:10597000E35AFF4FF0820B8FEA89FB8980818062B6
:10598000D2CFCF92DF92EF92FF921F93CF93DF930C
:10599000EC016A017B01122FE889F98982E080839A
:1059A000C11481EED806E104F104A1F060E079E0D1
:1059B0008DE390E0A70196010E94EE33215031095A
:1059C000410951095695479537952795211580E14D
:1059D000380798F0E889F989108260E874E88EE168
:1059E00090E0A70196010E94EE3321503109410950
:1059F00051095695479537952795EC85FD85308358
:105A0000EE85FF852083188EEC89FD891083EA8955
:105A1000FB89808188698083EA89FB8980818F7D09
:105A20008083DF91CF911F91FF90EF90DF90CF9017
:105A300008951F920F920FB60F9211242F938F93F8
:105A40009F93EF93FF93E0910404F091050480810C
:105A5000E0910A04F0910B0482FD1BC090818091BB
:105A60000D048F5F8F7320910E04821741F0E09137
:105A70000D04F0E0EC50FC4F958F80930D04FF91E6
:105A8000EF919F918F912F910F900FBE0F901F90CC
:105A900018958081F4CF1F920F920FB60F921124A8
:105AA0002F933F934F935F936F937F938F939F9326
:105AB000AF93BF93EF93FF9384EF93E00E94392C51
:105AC000FF91EF91BF91AF919F918F917F916F91D6
:105AD0005F914F913F912F910F900FBE0F901F90AC
