:100000000C94B8050C9440260C9467260C948D092A
:100010000C94BA090C94E7090C94E0050C94E005E3
:100020000C94E0050C94E0050C94E0050C94141578
:100030000C94E0050C94E0050C94E0050C94E005AC
:100040000C948E260C94E0050C941E290C945029D7
:100050000C94E0050C94E0050C94E0050C94E0058C
:100060000C9418230C94E005084AD73B3BCE016E54
:1000700084BCBFFDC12F3D6C74319ABD56833DDAFF
:100080003D00C77F11BED9E4BB4C3E916BAAAABE0E
:10009000000000803F0000407A10F35A00A0724E2A
:1000A00018090010A5D4E80000E87648170000E41D
:1000B0000B54020000CA9A3B000000E1F505000065
:1000C00080969800000040420F000000A0860100CA
:1000D0000000102700000000E8030000000064009A
:1000E000000000000A000000000001000000000005
:1000F0002C76D888DC674F0823DFC1DFAE59E1B129
:10010000B796E5E3E453C63AE651997696E8E6C237
:100110008426EB898C9B62ED407C6FFCEFBC9C9F3E
:1001200040F2BAA56FA5F490055A2AF75C936B6C60
:10013000F9676DC11BFCE0E40D47FEF520E6B50054
:10014000D0ED902E0300943577050080841E0800C2
:1001500000204E0A000000C80C333333330F986E72
:1001600012831141EF8D2114893BE65516CFFEE62F
:10017000DB18D1844B381BF77C1D901DA4BBE424F5
:10018000203284725E228100C9F124ECA1E53D2772
:100190004649464F206F766572666C6F772100295D
:1001A00000444D5020496E697469616C697A6174CC
:1001B000696F6E206661696C65642028636F646591
:1001C0002000444D50207265616479212057616997
:1001D00074696E6720666F72206669727374206935
:1001E0006E746572727570742E2E2E00292E2E2E4E
:1001F00000456E61626C696E6720696E746572722B
:1002000075707420646574656374696F6E2028412D
:10021000726475696E6F2065787465726E616C20AA
:10022000696E746572727570742000456E61626CDF
:10023000696E6720444D502E2E2E00496E697469F8
:10024000616C697A696E6720444D502E2E2E004DE8
:1002500050553630353020636F6E6E656374696F4C
:100260006E206661696C6564004D505536303530DE
:1002700020636F6E6E656374696F6E207375636360
:1002800065737366756C0054657374696E6720647A
:10029000657669636520636F6E6E656374696F6E02
:1002A000732E2E2E00526573657474696E67206D0F
:1002B000656D6F72792062616E6B2073656C65632A
:1002C00074696F6E20746F20302E2E2E005265766A
:1002D0006973696F6E204020757365725B31365D9E
:1002E0005B365D203D2000436865636B696E672067
:1002F0006861726477617265207265766973696F8F
:100300006E2E2E2E00FB00003E000B00360001007A
:10031000020003000000650054FFEF0000FA8000B7
:100320000B1282000100020000000000000000002B
:10033000000000000000280000FFFF4581FFFFFAD9
:100340007200000000000003E80000000100017FCF
:10035000FFFFFE8001001B00000000000000000005
:100360000000000000004000004000000002CB47F9
:10037000A22000000020000000000000004000005B
:10038000006000000041FF000000000B2A00001682
:100390005500002182FD872650FD800000001F00CF
:1003A00000000580000000000000010000000200C5
:1003B0000000030000400000000000046F00026520
:1003C0003200005EC040000000000000000000009D
:1003D0000000000000FB8C6F5DFD5D08D9007C73A0
:1003E0003B006C12CC3200139D3200D0D632000894
:1003F00000400001F4FFE68079020000000000D018
:10040000D600002710FB00000040000000000000A4
:1004100000000000000000000100000000000001DA
:1004200000010000000000FA36FFBC308E0005FB22
:10043000F0FFD95BC8FFD09ABE000010A9FFF41EE0
:10044000B200CEBBF7000000010000000400020073
:10045000020200000CFFC280000001800000CF807B
:100460000040000000000000000000000000000646
:100470000000000014000000000000000000000068
:10048000000000000000000000000000000000006C
:1004900000000000000923A135000000000000005A
:1004A000000000000000000000033F68B679352816
:1004B000BCC67ED16C8000FFFF400000000000B28F
:1004C0006A00000000000000000000000000003F83
:1004D000F0000000300000000000000000000000FC
:1004E000000000000000000000000000000000000C
:1004F00000000040000000254D002F706D00000539
:10050000AE000C02D00000000000650054FFEF00B8
:100510000000000000000001000044000100058B05
:10052000C100000100000000000065000000540050
:1005300000FFEF00000000000000000000000000CD
:1005400000000000000000000000000000000000AB
:10055000000000000000000000000000000000009B
:100560000000000000000000010000000200000088
:10057000000000000000000000000000000000007B
:10058000000000000000000000000000000000006B
:100590000000000000001B00000000000000000040
:1005A000000000000000000000000000000000004B
:1005B000000000000000000000000000000000003B
:1005C0000000000000001B00000000000000000010
:1005D000000000000000000000000000000000001B
:1005E000000000000000000000000000000000000B
:1005F00000000000000000000000000000000000FB
:100600000000000000D8DCBAA2F1DEB2B8B4A881C4
:1006100091F74A907F916AF3F9DBA8F9B0BAA0800C
:10062000F2CE81F3C2F1C1F2C3F3CCA2B280F1C623
:10063000D880BAA7DFDFDFF2A7C3CBC5B6F087A2A9
:10064000942448703C95406834589B78A2F183927A
:100650002D557DD8B1B4B8A1D09180F270F370F26D
:100660007C80A8F101B09887D943D886C988BAA1FF
:10067000F20EB89780F1A9DFDFDFAADFDFDFF2AA91
:100680004CCD6CA90CC92C97979797F1A989264650
:1006900066B0B4BA80ACDEF2CAF1B28C02A9B698E8
:1006A00000890E161EB8A9B4992C547CB08AA8965D
:1006B000365676F1B9AFB4B083C0B8A89711B18FF0
:1006C00098B9AFF0240844106418F1A329557DAF00
:1006D00083B593AFF0002850F1A3869F61A6DADEC0
:1006E000DFD9FAA38696DB31A6D9F8DFBAA68FC286
:1006F000C5C7B28CC1B8A2DFDFDFA3DFDFDFD8D888
:10070000F1B8A8B286B4980D355DB8AA98B0872D17
:10071000353DB2B6BAAF8C96198F9FA70E161EB490
:100720009AB8AA872C547CB9A3DEDFDFA3B180F28C
:10073000C4CDC9F1B8A9B499830D355D89B9A32D8C
:10074000557DB593A30E161EA92C547CB8B4B0F1F8
:100750009783A81184A50998A383F0DA240844108C
:100760006418D8F1A529557DA58595021A2E3A560B
:100770005A4048F9F3A3D9F8F09883240844106448
:10078000189782A8F111F098A2240844106418DA8E
:10079000F3DED883A59401D9A302F1A2C3C5C7D8BB
:1007A000F18492A24DDA2AD84869D92AD86855DA54
:1007B00032D85071D932D8705DDA3AD85879D93AEE
:1007C000D87893A34DDA2AD84869D92AD86855DA57
:1007D00032D85071D932D8705DDA3AD85879D93ACE
:1007E000D878A88A9AF02850789EF38818F19F1D2F
:1007F00098A8D908D8C89F129EF315A8DA1210D865
:10080000F1AFC8978734B5B994A421F3D922D8F2AF
:100810002DF3D92AD8F235F3D932D881A46060619A
:10082000D961D86C6869D969D8747071D971D8B137
:10083000A384193D5DA3831A3E5E9310308110118D
:10084000B8B0AF8F94F2DA3ED8B49AA88729DAF814
:10085000D8879A35DAF8D8879A3DDAF8D8B1B9A4AA
:100860009885022E56A581000C14A397B08AF12D0D
:10087000D928D84DD948D86DD968D8B1840DDA0EA9
:10088000D8A32983DA2C0ED8A3844983DA2C4C0E02
:10089000D8B8B0A88A9AF520AADADFD8A840AAD09A
:1008A000DADED8A860AADAD0DFD8F19786A8319B23
:1008B000069907AB9728889BF00C201440B8B0B479
:1008C000A88C9CF0042851791D301438B282ABD02A
:1008D000982C505078789BF11AB0F08A9CA8295136
:1008E000798B2951798A2470598B2058718A4469EF
:1008F000388B3940688A6448318B304960A588203C
:100900000971584468113964493019F1AC002C540C
:100910007CF08CA804285078F1889726A85998ACC8
:100920008C02264666F0899CA82951792470594486
:100930006938644831A98809205970AB1138406979
:10094000A8193148608CA83C415C207C00F1879854
:100950001986A86E767EA999882D557D9EB9A38AA1
:10096000228A6E8A568A5E9FB183062646660E2EBE
:100970004E6E9DB8AD002C547CF2B18CB499B9A3E5
:100980002D557D8191AC38AD3AB58391AC2DD928E8
:10099000D84DD948D86DD968D88C9DAE29D904AE28
:1009A000D851D904AED879D904D881F39DAD008D42
:1009B000AE1981ADD901D8F2AEDA26D88E9129834D
:1009C000A7D9ADADADADF32AD8D8F1B0AC89913E81
:1009D0005E76F3AC2E2EF1B18C5A9CAC2C282828D4
:1009E0009CAC3018A8988128343C9724A728343C24
:1009F0009C24F2B089AC912C4C6C8A9B2DD9D8D810
:100A000051D9D8D879D9D8D8F19E88A331DAD8D895
:100A1000912DD928D84DD948D86DD968D8B18393AC
:100A2000353D8025DAD8D88569DAD8D8B49381A342
:100A300028343CF3AB8BF8A391B609B4D9ABDEFAFA
:100A4000B0879CB9A3DDF1202830389AF1283038DE
:100A50009DF1A3A3A3A3F2A3B49080F2A3A3A3A3A5
:100A6000A3A3A3A3A3A3B2A3A3A3A3A3A3B087B544
:100A700099F128303898F1A3A3A3A397A3A3A3A324
:100A8000F39BA330DCB9A7F1262626FED8FF0A0087
:100A90002000002C2020002000002C20200020001E
:100AA000002C2020002000002C2020002000002C02
:100AB0002020002000000A2F2F202020202020208E
:100AC000202020205820416363656C20205920415C
:100AD0006363656C20205A20416363656C2020208D
:100AE00058204779726F20202059204779726F2053
:100AF00020205A204779726F0A2F2F4F46465345C0
:100B000054532020200000000009000302000004CC
:100B100005080000000000000000000000010204C1
:100B2000081020408001020408102001020408106F
:100B3000204080400404040404040404020202026D
:100B40000202030303030303020203000000002365
:100B5000002600290000000000250028002B0000CE
:100B6000000000240027002A0000751405228029B7
:100B700011241FBECFEFD8E0DEBFCDBF11E0A0E053
:100B8000B1E0EAEDF5E602C005900D92A636B10798
:100B9000D9F724E0A6E6B1E001C01D92A131B20769
:100BA000E1F715E0C8EBD5E004C02197FE010E94F3
:100BB000112FC53BD107C9F70E944C2B0C94EB3287
:100BC0000C94000081E08093EC010895AF92BF92F5
:100BD000CF92EF920F93CF93DF9300D0CDB7DEB7D4
:100BE0005C010E942C176EE170E080E090E00E94B2
:100BF000092760E0C5010E94331721E041E060E170
:100C0000C5010E940F1866E0C5010E941A1867EE20
:100C100072E080E793E00E94202A6DEC72E080E7AA
:100C200093E00E94E929C5010E94201840E150E0AC
:100C3000682F80E793E00E94F82A65EA72E080E777
:100C400093E00E94202A20E040E060E0C5010E947D
:100C50000F184FE760E0C5010E94ED1660E0C50186
:100C60000E94171748E660E0C5010E94ED16C50115
:100C70000E94251764E170E080E090E00E9409275F
:100C800063E0C5010E943A1762E1C5010E94F816AF
:100C900064E0C5010E94A31661E0C5010E94A91687
:100CA00063E0C5010E94B41663E0C5010E94BF164F
:100CB000EE24E39400E020E049E857E065E073E0CB
:100CC000C5010E941619882309F44BC0198284E0DB
:100CD0008A83C12C06E122E042E050E0BE016F5F52
:100CE0007F4FC5010E94321863E0C5010E9421199F
:100CF00060E0C5010E94271960E0C5010E94AC17A1
:100D000062E0C5010E94D5166CE9C5010E94E1169A
:100D100060E5C5010E94DB1660E0C5010E94E71690
:100D200061E0C5010E941017C5010E94081860E02B
:100D3000C5010E9401188AE290E0F501928B818B37
:100D4000C5010E941E17C5010E94FE1680E00F908B
:100D50000F90DF91CF910F91EF90CF90BF90AF9018
:100D6000089581E0F4CFCF93DF93DB01FA01309750
:100D700019F4EC01EF85F889848D958D98278927E2
:100D8000982711969C938E9380A191A198278927EB
:100D9000982713969C938E93129784A195A19827D8
:100DA0008927982715969C938E93149780E0DF915E
:100DB000CF910895CF93DF93DB01FA01309719F4B7
:100DC000EC01EF85F8898081918198278927982700
:100DD00011969C938E9384819581982789279827D3
:100DE00013969C938E9312978085918598278927D7
:100DF000982715969C938E931497848595859827AC
:100E00008927982717969C938E93169780E0DF91F9
:100E1000CF910895FF920F931F93CF93DF93CDB798
:100E2000DEB728970FB6F894DEBF0FBECDBF8B019B
:100E3000BE016F5F7F4F0E94DA06F82E81114CC011
:100E400069817A81072E000C880B990B0E94EA2C8D
:100E500020E030E040E858E30E94CE2DF8016083A6
:100E60007183828393836B817C81072E000C880BB6
:100E7000990B0E94EA2C20E030E040E858E30E9401
:100E8000CE2DF80164837583868397836D817E817F
:100E9000072E000C880B990B0E94EA2C20E030E012
:100EA00040E858E30E94CE2DF80160877187828761
:100EB00093876F817885072E000C880B990B0E9411
:100EC000EA2C20E030E040E858E30E94CE2DF80103
:100ED00064877587868797878F2D28960FB6F89435
:100EE000DEBF0FBECDBFDF91CF911F910F91FF905D
:100EF00008954F925F926F927F928F929F92AF92DE
:100F0000BF92CF92DF92EF92FF92CF93DF93CDB754
:100F1000DEB72A970FB6F894DEBF0FBECDBF7A8733
:100F20006987FA01C480D580E680F78044845584BF
:100F30006684778480809180A280B380808591854B
:100F4000A285B38589839A83AB83BC83A301920175
:100F5000C701B6010E94CE2D6D837E838F83988753
:100F600029813A814B815C81C501B4010E94CE2D5B
:100F70009B01AC016D817E818F8198850E945C2BE5
:100F80009B01AC010E945D2BA985BA856D937D9371
:100F90008D939C931397A5019401C701B6010E94FC
:100FA000CE2D6D837E838F83988729813A814B81F3
:100FB0005C81C301B2010E94CE2D9B01AC016D8109
:100FC0007E818F8198850E945D2B9B01AC010E94E0
:100FD0005D2BE985FA856483758386839783A501F4
:100FE0009401C501B4010E94CE2D4B015C01A70103
:100FF0009601C701B6010E94CE2D9B01AC01C5012F
:10100000B4010E945C2B6B017C0129813A814B81E8
:101010005C81CA01B9010E94CE2D9B01AC01C701C0
:10102000B6010E945C2B6B017C01A3019201C301FC
:10103000B2010E94CE2D9B01AC01C701B6010E94F6
:101040005D2BA985BA8518966D937D938D939C939E
:101050001B9780E02A960FB6F894DEBF0FBECDBF77
:10106000DF91CF91FF90EF90DF90CF90BF90AF9046
:101070009F908F907F906F905F904F9008952F92E8
:101080003F924F925F926F927F928F929F92AF9218
:10109000BF92CF92DF92EF92FF920F931F93CF9365
:1010A000DF9300D000D000D0CDB7DEB78B011A019E
:1010B0003E832D83FA01C080D180E280F380A701B6
:1010C0009601C701B6010E945D2B69837A838B83E9
:1010D0009C83F10184809580A680B780A50194014E
:1010E000C501B4010E945D2B2B013C0129813A818D
:1010F0004B815C81C701B6010E94CE2D6B017C0142
:10110000A3019201C501B4010E94CE2D9B01AC0147
:10111000C701B6010E945D2B20E030E040E85FE3AC
:101120000E945C2B6B017C01F10120853185428599
:101130005385C301B2010E94CE2D2B013C01F10168
:10114000248535854685578569817A818B819C8187
:101150000E94CE2D9B01AC01C301B2010E945C2B09
:10116000A70196010E94DC2BF801608371838283C2
:101170009383ED81FE816481758186819781C0842E
:10118000D184E284F3849B01AC010E94CE2D4B01FB
:101190005C01A7019601C701B6010E94CE2D9B01FB
:1011A000AC01C501B4010E945D2B0E94412E9B0140
:1011B000AC01ED81FE8160817181828193810E9409
:1011C000DC2B6B017C01F801C482D582E682F782B8
:1011D000ED81FE812085318542855385648175814D
:1011E000868197810E94DC2BF80160877187828756
:1011F000938720E030E0A901ED81FE816085718553
:10120000828593850E943B2C87FF16C020E030E04A
:10121000A901C701B6010E94C12DA70196011816A8
:101220002CF56BED7FE089E490E40E945C2BF801E3
:10123000648375838683978380E026960FB6F8943F
:10124000DEBF0FBECDBFDF91CF911F910F91FF90F9
:10125000EF90DF90CF90BF90AF909F908F907F9056
:101260006F905F904F903F902F9008956BED7FE0CF
:1012700089E490ECDACFFF920F931F93CF93DF9323
:101280008C01D80117968C91179720919A02159688
:101290009C91159730919A0216964C911697C09191
:1012A0009A02C095C4239323C92B8227FC2EF822CF
:1012B00080919A0217968C9317971896CD91DC918E
:1012C0002097B1F08B81982F9F2171F090919A0215
:1012D000892391E009F490E0909398028C818093A7
:1012E0009902E881F98109950D80DE81C02DE8CF52
:1012F0009BB3F8018481982351F09BB3892B8BBB5E
:101300000190F081E02D808180939A02BACFDF9125
:10131000CF911F910F91FF9008951F920F920FB6DA
:101320000F9211242F933F934F935F936F937F936B
:101330008F939F93AF93BF93EF93FF93E0918E02B0
:10134000F0918F02808180939A028EE892E00E9451
:101350003B09FF91EF91BF91AF919F918F917F9149
:101360006F915F914F913F912F910F900FBE0F9012
:101370001F9018951F920F920FB60F9211242F9362
:101380003F934F935F936F937F938F939F93AF930D
:10139000BF93EF93FF93E0918402F09185028081E7
:1013A00080939A0284E892E00E943B09FF91EF91BA
:1013B000BF91AF919F918F917F916F915F914F916D
:1013C0003F912F910F900FBE0F901F9018951F9275
:1013D0000F920FB60F9211242F933F934F935F9369
:1013E0006F937F938F939F93AF93BF93EF93FF93ED
:1013F000E0917A02F0917B02808180939A028AE7E1
:1014000092E00E943B09FF91EF91BF91AF919F91B4
:101410008F917F916F915F914F913F912F910F909D
:101420000FBE0F901F901895AF92BF92CF92DF9290
:10143000EF92FF920F931F9361E08DE00E94B1271E
:1014400088E391E00E949E328D3E61F080E593EC4E
:10145000A0E0B0E08093100190931101A0931201DD
:10146000B09313016BE171E080E793E00E94322AB0
:10147000409110015091110160911201709113017E
:101480002AE030E080E793E00E94E42A62E08CE00A
:101490000E94B12760E080E10E94B12760E081E115
:1014A0000E94B12760E082E10E94B12760E087E0FE
:1014B0000E94B12761E084E00E94B12761E088E0EA
:1014C0000E94B12761E087E00E94B12761E08DE0D2
:1014D0000E94B12781E090E00E949E32813009F0A5
:1014E00095C1809366018CE00E941B28892B61F4D2
:1014F00080916601882309F48CC160E081E090E06E
:101500000E94A632109266018FE00E946A27909393
:101510007801809377018EE00E946A27909376018C
:10152000809375016091770170917801072E000C0E
:10153000880B990B1F921F921F9228E22F9328E08D
:10154000A22EB12CC12CD12CE12CF12C87012FEF34
:1015500033E040E050E00E940A2B0E94EA2C20E099
:1015600030E040E251E40E94402C60930C01709303
:101570000D0180930E0190930F01609175017091A0
:101580007601072E000C880B990B1F921F921F9259
:101590002EE12F9332E0A32EB12CC12CD12C2FEFB2
:1015A00033E040E050E00E940A2B0E94EA2C20E049
:1015B00030E040E251E40E94402C609308017093B7
:1015C000090180930A0190930B0181EC92E00E9443
:1015D000692140E85AE166E070E081EC92E00E9407
:1015E0007B2187E692E00E94451760E082E00E943E
:1015F000B12767E872E080E793E00E94202A87E63F
:1016000092E00E94A4172DB73EB7285F3F4F0FB658
:10161000F8943EBF0FBE2DBF6FE472E0882311F037
:1016200069E672E080E793E00E94202A6BE372E0B3
:1016300080E793E00E94202A87E692E00E94E60578
:1016400080935F026AEB7FEF87E692E00E94EF17DC
:101650006DE970E087E692E00E94F5176CE170E0BA
:1016600087E692E00E94FB1764E77CEF87E692E052
:101670000E94B31768E97FEF87E692E00E94C717E0
:1016800062E175E087E692E00E94DB1780915F02DD
:101690008111C8C066E087E692E00E947D1D66E089
:1016A00087E692E00E94111D87E692E00E942D19C4
:1016B0006BE272E080E793E00E94202A61E087E617
:1016C00092E00E94011861EF71E080E793E00E94D0
:1016D000E9294AE050E070E060E080E793E00E9492
:1016E000DD2A6CEE71E080E793E00E94202A43E05F
:1016F00050E062EE75E080E00E94202687E692E0EE
:101700000E94FE168093600262EC71E080E793E035
:101710000E94202A81E0809361028091780290915A
:10172000790290935E0280935D0220910C013091CA
:101730000D0140910E0150910F01E12CF12C870118
:1017400061E070E086E991E00E94D82440910801B0
:101750005091090160910A0170910B0186E991E0B5
:101760000E94442420910C0130910D0140910E0102
:1017700050910F0161E070E089E791E00E94D82468
:10178000409108015091090160910A0170910B018B
:1017900089E791E00E94442424EC39E040E951E0DB
:1017A00069E070E085EC91E00E94EA1524EC39E0F4
:1017B00040E951E066E070E082EC91E00E94EA15B9
:1017C00024EC39E040E951E065E070E08FEB91E016
:1017D0000E94EA1524EC39E040E951E063E070E052
:1017E0008CEB91E00E94EA152CED35E044EF51E0DE
:1017F0006BE070E089EB91E01F910F91FF90EF900B
:10180000DF90CF90BF90AF900C94EA1510926601D4
:101810006ACE61E081E090E00E94A63281E0809390
:10182000660172CE61EA71E080E793E00E94E929E7
:101830004AE050E060915F0280E793E00E94F12A65
:101840006FE971E080E793E00E94202A6ECFCF928B
:10185000DF92EF92FF920F931F930E94E426009174
:1018600062021091630220916402309165026B0163
:101870007C01C01AD10AE20AF30A0091100110910A
:1018800011012091120130911301C016D106E20618
:10189000F306B8F06093620270936302809364026F
:1018A000909365026091660281E06827609366020A
:1018B0008DE01F910F91FF90EF90DF90CF900C94EF
:1018C000ED271F910F91FF90EF90DF90CF9008953B
:1018D0002F923F924F925F926F927F928F929F9240
:1018E000AF92BF92CF92DF92EF92FF920F931F932E
:1018F000CF93DF93CDB7DEB768970FB6F894DEBF0E
:101900000FBECDBF0E94270C80916102882309F48D
:10191000D3C758E2652E6EE1762E7CE9872EE4E689
:101920009E2E8091EC01811149C120915B02309182
:101930005C0280915D0290915E022817390708F0E1
:101940003DC18091EC01882341F087E692E00E943E
:10195000591790935C0280935B028CE00E941B28D5
:1019600090936C0180936B018FE00E946A279093A3
:101970007801809377018EE00E946A279093760128
:101980008093750186E00E946A27893E23E09207D2
:1019900014F088EE93E08431910514F484E190E032
:1019A000909374018093730187E00E946A27893EB7
:1019B00033E0930714F088EE93E08431910514F43A
:1019C00084E190E0909372018093710180E10E9424
:1019D0006A27893E43E0940714F088EE93E084314F
:1019E000910514F484E190E09093700180936F016D
:1019F00081E10E946A27893EA3E09A0714F088EEED
:101A000093E08431910514F484E190E090936E01A9
:101A100080936D016091770170917801072E000C21
:101A2000880B990B1F921F921F926F92F8E0AF2EB6
:101A3000B12CC12CD12CE12CF12C87012FEF33E0FC
:101A400040E050E00E940A2B0E94EA2C20E030E0A7
:101A500040E251E40E94402C60930C0170930D0110
:101A600080930E0190930F01609175017091760142
:101A7000072E000C880B990B1F921F921F927F92CA
:101A8000A2E0AA2EB12CC12CD12C2FEF33E040E0E4
:101A900050E00E940A2B0E94EA2C20E030E040E255
:101AA00051E40E94402C60930801709309018093D7
:101AB0000A0190930B016091730170917401072EDC
:101AC000000C880B990B1F921F921F921F92BEE170
:101AD000AB2EB12CC12CD12C18EEE12E13E0F12E3F
:101AE00000E010E024E130E040E050E00E940A2BEA
:101AF0007093B8016093B7016091710170917201A8
:101B0000072E000C880B990BBFEFBF93BF93BF93B9
:101B10008F9234E6A32EB12CC12CD12C24E130E0DD
:101B200040E050E00E940A2B4AE0469F9001479F08
:101B3000300D11243093B6012093B50160916D01F1
:101B400070916E01072E000C880B990B1F921F924B
:101B50001F929F92A12CB12C650114E1E12EF12C72
:101B600000E010E028EE33E040E050E00E940A2B55
:101B7000709307016093060160916F01709170018D
:101B8000072E000C880B990B1F921F921F929F9299
:101B900028EE33E040E050E00E940A2BAAE0A69F26
:101BA0009001A79F300D11243093B4012093B3010D
:101BB0000FB6F894DEBF0FBECDBFB3CE1092EC01CE
:101BC00087E692E00E94FE168093600287E692E02C
:101BD0000E94591790935C0280935B0220915D02F2
:101BE00030915E028217930790F02091600224FDED
:101BF00004C08115944008F4BAC587E692E00E94BB
:101C00001E1760E971E080E793E00E94202A40916E
:101C100008015091090160910A0170910B0186E958
:101C200091E00E94442440910C0150910D0160917B
:101C30000E0170910F0186E991E00E947B24409192
:101C400008015091090160910A0170910B0189E727
:101C500091E00E94442440910C0150910D0160914B
:101C60000E0170910F0189E791E00E947B24609141
:101C7000070270910802072E000C880B990B0E9436
:101C8000EA2CAB01BC014093E8015093E901609359
:101C9000EA017093EB0186E991E00E940F2586E945
:101CA00091E00E9419260E94B22C70930802609362
:101CB00007026091050270910602072E000C880B46
:101CC000990B0E94EA2CAB01BC0189E791E00E94CC
:101CD0000F2589E791E00E9419264B015C01609174
:101CE000070270910802072E000C880B990B0E94C6
:101CF000EA2C6B017C0120E030E044E353E4609186
:101D0000F5017091F6018091F7019091F8010E9420
:101D1000CE2D2BED3FE049E450E40E94402C20E022
:101D200030E04CE053E40E94CE2D9B01AC01C70192
:101D3000B6010E945C2B0E94B22C6B0170930802CA
:101D400060930702C501B4010E94B22C072E000C5B
:101D5000880B990B0E94EA2C4B015C0120E030E0DB
:101D600044E353E46091F1017091F2018091F30139
:101D70009091F4010E94CE2D2BED3FE049E450E418
:101D80000E94402C20E030E04CE053E40E94CE2D35
:101D90009B01AC01C501B4010E945C2B0E94B22CD6
:101DA000709306026093050220916601211124C5FB
:101DB000072E000C880B990B1F921F9247E04F9340
:101DC000A0EDAF93A12CB12C6501E12C10E4F12E14
:101DD00000E010E020E030EC4FEF5FEF0E940A2BB4
:101DE0000E94EA2C6093CC017093CD018093CE01C8
:101DF0009093CF016091070270910802072E000CAA
:101E0000880B990B1F921F92B7E0BF9320ED2F9381
:101E100020E030EC4FEF5FEF0E940A2B0E94EA2C8B
:101E20006093C8017093C9018093CA019093CB015C
:101E30000FB6F894DEBF0FBECDBF60910502709162
:101E40000602072E000C880B990B1F921F921F92FF
:101E50001F9220EDA22E27E0B22EC12CD12CE12C16
:101E600010E4F12E00E010E020E030EC4FEF5FEFE7
:101E70000E940A2B0E94EA2C6093CC017093CD0142
:101E80008093CE019093CF01609107027091080278
:101E9000072E000C880B990B1F921F921F921F9206
:101EA00020E030EC4FEF5FEF0E940A2B0E94EA2CFB
:101EB0009B01AC0160E070E08AEF94E40E945C2B2F
:101EC0006B017C0120E030E04AE754E40E945C2B87
:101ED000A70196010E945D2B69837A838B839C8383
:101EE0006093C8017093C9018093CA019093CB019C
:101EF000809106019091070164E670E0681B790B00
:101F0000072E000C880B990B0E94EA2C20E030E091
:101F100048EC52E40E94402C4B015C016091B301FB
:101F20007091B401660F771F072E000C880B990B78
:101F30000E94EA2C2B013C01A50194010E94CE2DA8
:101F40006B017C010FB6F894DEBF0FBECDBF20E061
:101F500030E0A9010E943B2C87FD7FC420E030E0E7
:101F60004AE754E4C701B6010E94C12D181634F4A3
:101F7000C12CD12C8AE7E82E84E4F82EC701B601E3
:101F80000E94B22C70936A0160936901A5019401CB
:101F900060E070E080E89FE30E945C2B6D8B7E8B9D
:101FA0008F8B988F9B01AC01C301B2010E94CE2D93
:101FB0006B017C0120E030E0A9010E943B2C87FDF1
:101FC00050C420E030E04AE754E4C701B6010E9463
:101FD000C12D181634F4C12CD12C0AE7E02E04E4EC
:101FE000F02EC701B6010E94B22C70936801609375
:101FF000670129813A814B815C81CA01B9010E9444
:10200000CE2D6D877E878F87988B8091CC019091A4
:10201000CD01A091CE01B091CF018D839E83AF837E
:10202000B8879C01AD0160E070E08AEF94E40E9403
:102030005C2B9B01AC010E94CE2D6B017C012D8598
:102040003E854F8558890E945D2B0E94412E2B01B1
:102050003C016091B7017091B801072E000C880B0C
:10206000990B0E94EA2C698B7A8B8B8B9C8BA50138
:1020700094010E94CE2D4B015C016091B5017091DD
:10208000B601072E000C880B990B0E94EA2C698779
:102090007A878B879C8728EB36EC40EB54E4C301AE
:1020A000B2010E945C2BA50194010E94CE2D28EB69
:1020B00036EC40EB54E40E945D2B29853A854B8534
:1020C0005C850E945D2B2B013C0120E030E0A901E2
:1020D0000E943B2C87FDC9C320E030EC40E355E46F
:1020E000C301B2010E94C12D18163CF4412C10EC22
:1020F000512E10E3612E15E4712E4092DC015092B6
:10210000DD016092DE017092DF0129813A814B810D
:102110005C8160E070E08AEF94E40E945C2B9B019C
:10212000AC010E94CE2D69837A838B839C839B01B3
:10213000AC01C701B6010E945D2B0E94412E28EB25
:1021400036EC40EB54E40E945C2BA50194010E9404
:10215000CE2D28EB36EC40EB54E40E945D2B298514
:102160003A854B855C850E945D2B6B017C0120E0EC
:1021700030E0A9010E943B2C87FD7BC320E030ECBE
:1021800040E355E4C701B6010E94C12D18163CF486
:10219000C12CB0ECDB2EB0E3EB2EB5E4FB2EC092ED
:1021A000D801D092D901E092DA01F092DB012D81C1
:1021B0003E814F815885CA01B9010E94CE2D6D83A1
:1021C0007E838F8398879B01AC016D857E858F858B
:1021D00098890E945D2B0E94412E6B017C0126E6AE
:1021E00036E646EA5FE36D897E898F89988D0E9485
:1021F000CE2D29893A894B895C890E94CE2D4B01CD
:102200005C0128EB36EC40EB54E4C701B6010E94B8
:102210005C2BA50194010E94CE2D28EB36EC40EBFF
:1022200054E40E945D2B29853A854B855C850E948C
:102230005D2B6B017C0120E030E0A9010E943B2C6A
:1022400087FD1BC320E030EC40E355E4C701B60135
:102250000E94C12D18163CF4C12CA0ECDA2EA0E38C
:10226000EA2EA5E4FA2EC092D401D092D501E092D4
:10227000D601F092D7012D813E814F815885698129
:102280007A818B819C810E945D2B0E94412E28EBDC
:1022900036EC40EB54E40E945C2BA50194010E94B3
:1022A000CE2D28EB36EC40EB54E40E945D2B2985C3
:1022B0003A854B855C850E945D2B6B017C0120E09B
:1022C00030E0A9010E943B2C87FDDBC220E030EC0E
:1022D00040E355E4C701B6010E94C12D18163CF435
:1022E000C12CF0ECDF2EF0E3EF2EF5E4FF2EC092D0
:1022F000D001D092D101E092D201F092D30184ECCE
:1023000099E09093E7018093E60124EF31E0309368
:10231000E5012093E4013093E3012093E2019093DF
:10232000E1018093E001C301B2010E94B22C1F922F
:102330001F9229E02F9324EC2F9324EFA22EBB248D
:10234000B394C12CD12C1CE0E12E1BE0F12E00E057
:1023500010E020E030E0A9010E940A2B0E94EA2C44
:102360006093DC017093DD018093DE019093DF01C7
:10237000A090E601B090E7010B2C000CCC08DD0822
:102380006091D8017091D9018091DA019091DB01BF
:102390000E94B22C2091E4013091E5018901330FB4
:1023A000220B330B3F932F931F930F931CE0E12ECF
:1023B0001BE0F12E00E010E020E030E0A9010E94D7
:1023C0000A2B0E94EA2C6093D8017093D901809364
:1023D000DA019093DB01A090E201B090E3010B2CB5
:1023E000000CCC08DD086091D4017091D50180917A
:1023F000D6019091D7010E94B22C2091E00130913A
:10240000E1018901330F220B330B3F932F931F936D
:102410000F931CE0E12E1BE0F12E00E010E020E025
:1024200030E0A9010E940A2B0E94EA2C6093D4019B
:102430007093D5018093D6019093D701A090E001CD
:10244000B090E1010B2C000CCC08DD086091D001AC
:102450007091D1018091D2019091D3010E94B22C50
:102460002091E2013091E3018901330F220B330BFC
:102470003F932F931F930F931CE0E12E1BE0F12E4F
:1024800000E010E020E030E0A9010E940A2B0E9449
:10249000EA2C762E872E982EC92E80916901909174
:1024A0006A017C01A4E2EA1AAAEFFA0A0091DC01AF
:1024B0001091DD01B091DE01BD8B2091DF01298BF0
:1024C0006CED75E0681B790B072E000C880B990BDF
:1024D0000E94EA2C1B012C010FB6F894DEBF0FBE40
:1024E000CDBF9B01AC01B8018D8999890E943B2C1D
:1024F00087FDCBC1B7010F2C000C880B990B0E94F4
:10250000EA2C662EA72EB82ED92E262F372F482F2D
:10251000592FB8018D8999890E94C12D181624F46C
:10252000062D1A2DBD8AD98AC801AD89B989809333
:10253000DC019093DD01A093DE01B093DF01609098
:10254000D801A090D901B090DA01D090DB019101BF
:10255000A201662D7A2D8B2D9D2D0E943B2C87FD8F
:1025600098C1B701FF0C880B990B0E94EA2C2B0134
:102570007C019B01AC01662D7A2D8B2D9D2D0E9437
:10258000C12D181624F4642CA52CBE2CDF2C862D0E
:102590009A2DAB2DBD2D8093D8019093D901A09396
:1025A000DA01B093DB0180916701909168015C01D1
:1025B000A4E2AA1AAAEFBA0A6090D401D090D50179
:1025C000E090D601F090D7016CED75E0681B790BB7
:1025D000072E000C880B990B0E94EA2C1B012C0182
:1025E000262D3D2DA7010E94C12D18160CF456C1B1
:1025F000B5010B2C000C880B990B0E94EA2C698307
:1026000079878D839D87262D3D2DA7010E943B2C28
:1026100087FF04C06980D984ED80FD84862D9D2DBF
:10262000D7018093D4019093D501A093D601B093A4
:10263000D7019101A201672D782D892D9C2D0E9433
:102640003B2C87FD16C0B501BB0C880B990B0E9473
:10265000EA2C1B012C019B01AC01672D782D892DE3
:102660009C2D0E94C12D181624F0272C382C492CA3
:102670005C2CC101D2018093D0019093D101A09331
:10268000D201B093D30188E391E00E949E328D3E47
:1026900099F5B8018D8999890E94B22C85EC91E059
:1026A0000E9469166091D8017091D9018091DA0178
:1026B0009091DB010E94B22C82EC91E00E9469169D
:1026C0006091D4017091D5018091D6019091D7018C
:1026D0000E94B22C8FEB91E00E9469166091D001AC
:1026E0007091D1018091D2019091D3010E94B22CBE
:1026F0008CEB91E00E946916809166018111D2C035
:102700008091050290910602893E93400CF4D2C05C
:1027100061E084E00E94ED2761E087E00E94ED2700
:1027200080916B0190916C01892B09F0C5C061E02B
:1027300088E00E94ED2761E084E068960FB6F89487
:10274000DEBF0FBECDBFDF91CF911F910F91FF90E4
:10275000EF90DF90CF90BF90AF909F908F907F9041
:102760006F905F904F903F902F900C94ED2721FF3A
:102770004ECA40915D0250915E0280915B02909141
:102780005C028417950708F442CA6BE172E087E6A1
:1027900092E00E94741780915B0290915C022091FC
:1027A0005D0230915E02821B930B90935C028093DA
:1027B0005B024BE152E065E072E087E692E00E9446
:1027C000B3064BE152E06BE072E087E692E00E94D4
:1027D0000A074BE052E069EF71E087E692E00E9461
:1027E000790729EF31E04BE052E06DEE71E087E6CA
:1027F00092E00E943F08BDCFB601DD0C880B990B1B
:102800001F921F92A7E0AF93B0EDBF93A12CB12C04
:102810006501E12C10E4F12E00E010E020E030EC46
:102820004FEF5FEF0E940A2B0E94EA2C6093CC01CD
:102830007093CD018093CE019093CF0160910502FA
:1028400070910602072E000C880B990B1F921F92A5
:1028500027E02F9330ED3F93DBCAC12CD12C7601BA
:102860008DCBC12CD12C7601BCCB412C512C32010B
:1028700044CCC12CD12C760192CCC12CD12C760128
:10288000F2CCC12CD12C760132CD81014D8A598AEE
:102890004BCE622CA32CB42CD52C79CE622CD32C0D
:1028A0007201BCCE8091070290910802893E93404C
:1028B0000CF02ECF60E02DCF68960FB6F894DEBFF7
:1028C0000FBECDBFDF91CF911F910F91FF90EF9081
:1028D000DF90CF90BF90AF909F908F907F906F9040
:1028E0005F904F903F902F900895CF92DF92EF929C
:1028F000FF920F931F93EFE4FBE085919491EEE834
:10290000F2E0918380838BE690E09383828381E081
:1029100084831582168211861086E1E5FBE085919D
:102920009491E4E8F2E0918380838CE690E09383D5
:10293000828382E084831582168211861086E3E505
:10294000FBE085919491EAE7F2E0918380838DE644
:1029500090E09383828384E08483158216821186BB
:10296000108668E687E692E00E94A016EBE0F2E0AF
:1029700080E090E0A0E8BFE380839183A283B383EB
:10298000148215821682178210861186128613868B
:102990001486158616861786E5E0F2E0118210820D
:1029A0001382128215821482E9EFF1E01082118203
:1029B0001282138214821582168217821086118663
:1029C0001286138685EC91E00E94CF1582EC91E08F
:1029D0000E94CF158FEB91E00E94CF158CEB91E018
:1029E0000E94CF1589EB91E00E94CF15C12CD12C0C
:1029F000760100E010E020E83FE3B901A80186E994
:102A000091E00E94A42400E010E020E83FE3B90137
:102A1000A80189E791E00E94A4241F910F91FF90E3
:102A2000EF90DF90CF9008951F920F920FB60F9204
:102A300011242F933F934F935F936F937F938F93C3
:102A40009F93AF93BF93EF93FF9380919C0287FF77
:102A500027C0109285001092840080919C028F5FA5
:102A600080939C0280919C02082E000C990B20916F
:102A70009B022817190629F024F080919C028C30C3
:102A8000DCF18091840090918500049680349C490B
:102A900008F47BC08091840090918500049677C0F3
:102AA00080919C02082E000C990B20919B02281704
:102AB000190699F294F2E0919C028E2FEE0F990B79
:102AC000FC01EE0FFF1FE80FF91FE356FD4F808159
:102AD00086FFC3CFE0919C028E2FEE0F990BFC0175
:102AE000EE0FFF1FE80FF91FE356FD4F808160E0F6
:102AF0008F730E94ED27B1CF209184003091850023
:102B0000E0919C028E2FEE0F990BFC01EE0FFF1F40
:102B1000E80FF91FE356FD4F81819281820F931FC9
:102B20009093890080938800E0919C028E2FEE0F95
:102B3000990BFC01EE0FFF1FE80FF91FE356FD4F45
:102B4000808186FF11C0E0919C028E2FEE0F990BC1
:102B5000FC01EE0FFF1FE80FF91FE356FD4F8081C8
:102B600061E08F730E94ED27FF91EF91BF91AF91CC
:102B70009F918F917F916F915F914F913F912F9195
:102B80000F900FBE0F901F90189580E49CE99093D2
:102B90008900809388008FEF80939C02E5CFFC0131
:102BA00090919B029C3098F481E0890F80939B0266
:102BB0009083892F90E0FC01EE0FFF1FE80FF91FB3
:102BC000E356FD4F88EB9BE09283818308958FEF5E
:102BD00080830895DF92EF92FF920F931F93CF931C
:102BE000DF93EC01D62E7A01890188818C3008F0C0
:102BF00067C061E08D2D0E94B1278881282F30E0C9
:102C0000F901EE0FFF1FE20FF31FE356FD4F9D2D5D
:102C10009F736081607C692B608320E232E02E1913
:102C20003F0937FF02C02D5F3F4F359527953595FA
:102C30002795298320E639E0201B310B37FF02C09E
:102C40002D5F3F4F35952795359527952A832CE0A5
:102C5000622F0E94AA2E829FB001112430E020E052
:102C6000AB01420F531FFA01EE0FFF1FE40FF51FD8
:102C7000E356FD4F908196FD16C02F5F3F4F2C30DD
:102C8000310571F781110FC01092800082E08093AE
:102C900081001092850010928400B19A80916F009B
:102CA000826080936F00E8818E2F90E0FC01EE0F30
:102CB000FF1FE80FF91FE356FD4F8081806480837A
:102CC0008881DF91CF911F910F91FF90EF90DF905E
:102CD0000895DC01EC91EC3090F511968C911197F0
:102CE00028E830E0281B310987FD3395220F331F78
:102CF000220F331F6217730784F012968C9128E518
:102D000032E0281B310987FD3395220F331F220F34
:102D1000331F621773070CF49B0122503109220FF5
:102D2000331F4FB7F8948E2F90E0FC01EE0FFF1F7A
:102D3000E80FF91FE356FD4F328321834FBF0895FB
:102D4000FC0160830895462F69E1FC0180810C94A9
:102D5000181E0F93062F23E045E06AE1FC018081F5
:102D60000E948C1F0F9108950F93062F23E042E0DD
:102D70006AE1FC0180810E948C1F0F9108950F93DE
:102D8000062F22E044E06BE1FC0180810E948C1F51
:102D90000F9108950F93062F22E044E06CE1FC01AF
:102DA00080810E948C1F0F910895462F6FE1FC01D6
:102DB00080810C94181E462F60E2FC0180810C94E7
:102DC000181E462F61E2FC0180810C94181E462FCC
:102DD00062E2FC0180810C94181EFC01962F643085
:102DE00030F4660F690F6B5D80810C94181E089596
:102DF000462F68E3FC0180810C94181ECF93DF936B
:102E0000EC012091140130911501AC014F5F5F4F2F
:102E10006AE388810E94141F8981DF91CF91089510
:102E2000262F46E06AE6FC0180810C945C1F262F69
:102E300045E06AE6FC0180810C945C1F21E042E0E1
:102E40006AE6FC0180810C945C1F21E041E06AE6A7
:102E5000FC0180810C945C1F21E047E06BE6FC01E3
:102E600080810C945C1F262F46E06BE6FC0180817C
:102E70000C945C1F0F93062F23E042E06BE6FC01ED
:102E800080810E948C1F0F910895CF93DF93EC01F6
:102E900061E00E943A1760E0CE010E94BF1660E038
:102EA000CE010E94CA1660E0CE01DF91CF910C9452
:102EB00033170F931F93CF93DF93EC01009114010D
:102EC000109115019C012F5F3F4F42E062E788811E
:102ED0000E946F1E89819A81982789279827DF9100
:102EE000CF911F910F9108950F931F93442369F081
:102EF0009B01FC01009114011091150164E7808190
:102F00000E946F1E1F910F910895FB011082FACF4E
:102F1000EF92FF920F931F93CF93DF93EC01E0901A
:102F20001401F09015018C010F5F1F4F26E046E061
:102F300065E788810E941E1F8981DF91CF911F91D3
:102F40000F91FF90EF9008950E94881791E08433CD
:102F500009F090E0892F0895262F40E060E0FC0101
:102F600080810C945C1F0F931F93CF93DF93EC0130
:102F70008B010E94881767E7883308F466E0A80190
:102F80008881DF91CF911F910F910C945D1E0F935B
:102F90001F93CF93DF93EC018B010E9488176AE7A0
:102FA000883308F468E0A8018881DF91CF911F91F0
:102FB0000F910C945D1E0F931F93CF93DF93EC0141
:102FC0008B010E9488176DE7883308F46AE0A80136
:102FD0008881DF91CF911F910F910C945D1EAB0101
:102FE00063E1FC0180810C945D1EAB0165E1FC0195
:102FF00080810C945D1EAB0167E1FC0180810C9423
:103000005D1E262F47E06AE6FC0180810C945C1F60
:1030100021E043E06AE6FC0180810C945C1F6F7143
:103020002111606241116064462F6DE6FC018081D0
:103030000C94181E462F6EE6FC0180810C94181E1D
:10304000CF93DF93EC012091140130911501AC0175
:103050004F5F5F4F6FE688810E94141F8981DF9167
:10306000CF9108952F923F924F925F926F927F92ED
:103070008F929F92AF92BF92CF92DF92EF92FF9288
:103080000F931F93CF93DF9300D000D01F92CDB743
:10309000DEB79D838C837B836A832A01222ED02E08
:1030A000E98220E040E0622D0E940F18602F8C81A1
:1030B0009D810E941A18E980912C812CEE2029F024
:1030C00080E190E00E94352F4C01B12CA12CCC2046
:1030D00029F080E190E00E94352F5C01F12CE12C79
:1030E000E414F50408F093C0C7014096342C3E1850
:1030F0004816590610F080E1382E80E091E08D19D5
:1031000091093816190619F014F03D2C3194CC2091
:1031100081F0D50190E080E02A813B812E0D3F1D9A
:10312000831558F4F901E80FF91FE491ED93019626
:10313000F7CFAA80BB80AE0CBF1C9501432D6FE674
:10314000EC81FD8180810E94E91D632C712CF98145
:10315000FF2309F445C08114910409F441C020E023
:1031600040E0622D8C819D810E940F186D2D8C8115
:103170009D810E941A18009114011091150194016B
:10318000432D6FE6EC81FD8180810E946F1EA301BB
:10319000B401C5010E945A30892B11F1C4010E946B
:1031A000D12FCC2021F0C5010E94D12FC12C8C2D14
:1031B0000F900F900F900F900F90DF91CF911F9174
:1031C0000F91FF90EF90DF90CF90BF90AF909F90C6
:1031D0008F907F906F905F904F903F902F900895C9
:1031E000E60CF71CD30CE414F50408F079CFD110E9
:1031F00001C0239420E040E0622D8C819D810E94DB
:103200000F186D2D8C819D810E941A1869CFF9814C
:10321000FF2319F0C4010E94D12FCC2021F0C50159
:103220000E94D12FC4CFCC24C394C1CFCF92EF92B0
:103230000F93CC24C3940E9432180F91EF90CF903B
:103240000895462F60E7FC0180810C94181E462FDC
:1032500061E7FC0180810C94181ECF92DF92FF92EF
:103260000F931F93CF93DF93CDB7DEB72E970FB693
:10327000F894DEBF0FBECDBF6C010E94881797E7A0
:10328000F92E883310F486E0F82E66EB7AE080E7BA
:1032900093E00E94E929009114011091150186E044
:1032A0009E01275F3F4F43E066E0F816F1F041E0F2
:1032B0006F2DF60180810E94D21F009114011091A0
:1032C000150163E06F0D9E01255F3F4F41E0F60160
:1032D00080810E94D21F009114011091150166E0B7
:1032E0006F0D9E01235F3F4F41E0F60180810E94F8
:1032F000D21F65EB7AE080E793E00E94E92963EB57
:103300007AE080E793E00E94E92969857A85072EB3
:10331000000C880B990B0E94EA2C8E010F5F1F4F47
:1033200020E045E00E94172FBC0180E793E00E9457
:103330000D2A6FEA7AE080E793E00E94E9296EEABD
:103340007AE080E793E00E94E9296CEA7AE080E77E
:1033500093E00E94E9296B857C85072E000C880B81
:10336000990B0E94EA2C20E045E00E94172FBC0137
:1033700080E793E00E940D2A68EA7AE080E793E014
:103380000E94E92967EA7AE080E793E00E94E92950
:1033900065EA7AE080E793E00E94E9296D857E8501
:1033A000072E000C880B990B0E94EA2C20E045E0C8
:1033B0000E94172FBC0180E793E00E940D2A61EA6A
:1033C0007AE080E793E00E94E929009114011091CE
:1033D00015019E01275F3F4F43E063E1F6018081C5
:1033E0000E94D21F60EA7AE080E793E00E94E92918
:1033F0006EE97AE080E793E00E94E92969857A85A1
:10340000072E000C880B990B0E94EA2C8E010F5F8F
:103410001F4F20E045E00E94172FBC0180E793E09A
:103420000E940D2A6AE97AE080E793E00E94E92988
:1034300069E97AE080E793E00E94E92967E97AE0A8
:1034400080E793E00E94E9296B857C85072E000CBC
:10345000880B990B0E94EA2C20E045E00E94172F70
:10346000BC0180E793E00E940D2A63E97AE080E7DF
:1034700093E00E94E92962E97AE080E793E00E9404
:10348000E92960E97AE080E793E00E94E9296D8507
:103490007E85072E000C880B990B0E94EA2C20E0F9
:1034A00045E00E94172FBC0180E793E00E940D2A9F
:1034B0006EE87AE080E793E00E94E9292E960FB645
:1034C000F894DEBF0FBECDBFDF91CF911F910F915A
:1034D000FF90DF90CF9008952F923F924F925F928E
:1034E0006F927F928F929F92AF92BF92CF92DF9214
:1034F000EF92FF920F931F93CF93DF93CDB7DEB779
:10350000E7970FB6F894DEBF0FBECDBF998F888FB7
:1035100069A32AA73BA74CA75DA7EEA6FFA608AB09
:1035200019AB6B3309F0E8C10E948817883308F49F
:10353000E8C127E72F8B33E03C8F6EE380E793E011
:103540000E94D128FE013D96FE8BED8B9E012F5FE0
:103550003F4F3B8F2A8F7F01DF880091140110912C
:1035600015019E012D5E3F4F41E06D2DA88DB98D57
:103570008C910E94D21FAB88BC88B5010B2C000C2B
:10358000880B990B0E94EA2CBF89B33109F4BEC1A4
:10359000E1E0AE22BB24D701AD92BC9220E030E046
:1035A00040E051E40E94CE2DEA8DFB8D6083718353
:1035B00082839383BC8DDB0EE2E0EE0EF11C2A8D3C
:1035C0003B8D2C5F3F4F3B8F2A8F8D899E898217C1
:1035D000930719F699A19B3309F0A6C18DEC9CECD9
:1035E000ACE4BDE38AAB9BABACABBDAB1DA21CA2F4
:1035F000AC2DB0E0BFABAEABEEA9FFA92CA13DA1B5
:103600002E173F070CF0ECC1312C212C1BA21AA263
:10361000CE0101969E8F8D8FDE011D96BFA3AEA3B6
:10362000BF89B8A7E9A1E9A718A21F8E812C912C08
:10363000540100911401109115019E012D5E3F4F20
:1036400041E069A5A88DB98D8C910E94D21F6B892C
:103650007C89072E000C880B990B0E94EA2C6B01C9
:103660007C01B9A1BB3361F4EF8DF8A1329741F42D
:1036700020E030E040E856E40E945C2B6B017C01C6
:103680002601370177FA709477F8709420E030E0E3
:10369000A901C701B6010E94C12D181614F07301CB
:1036A0006201C501B4010E94E82CA70196010E94A5
:1036B0005D2B0E94B92C4B015C012FE632E143E8FF
:1036C0005AE3C301B2010E94CE2D2EA53FA548A901
:1036D00059A90E94CE2DAD8DBE8D2D913D914D915C
:1036E0005C910E945D2B6B017C01ED8DFE8DC08293
:1036F000D182E282F382A30192016AA57BA58CA507
:103700009DA50E94CE2DA70196010E945D2BFF89E9
:10371000F33109F413C120E030E040E05EE30E94A1
:10372000CE2D6B017C0120E030E0A9010E94C12D6B
:1037300020E030E040E05FE387FDFBC0C701B60159
:103740000E945D2B0E94B22C6E7FAEA1BFA18D9115
:103750009C91682B792B7C8B6B8B9E012D5E3F4F50
:1037600041E068A5E88DF98D80810E94281E2F8D8B
:1037700038A12F5F3F4F38A32F8F39A53E5F39A760
:1037800088A59C8D890F88A7AEA1BFA11296BFA363
:10379000AEA3ED8DFE8D3496FE8FED8F2F8D38A16B
:1037A0002330310509F045CF33E62316310471F497
:1037B00089EE881683E09806A104B10438F06AE225
:1037C00080E793E00E94D128312C212CC501B4015F
:1037D0000E94E82C2AA93BA94CA95DA90E94CE2DE4
:1037E00020E030E040EA50E40E943B2C87FF05C017
:1037F000AAA1BBA11196BBA3AAA3B4E68B16910400
:10380000A104B10408F0B9C0EBE02E1631040CF4A9
:10381000B4C02AA13BA12A3031050CF4AEC06EE23F
:1038200080E793E00E94D12820E030E040E45FE3AD
:103830006AA57BA58CA59DA50E94CE2D6AA77BA716
:103840008CA79DA720E030E040E45FE36EA57FA554
:1038500088A999A90E94CE2D6EA77FA788AB99ABA6
:10386000CE010D966C01FF88DE0111963D01D3015A
:103870006D917D918D919D913D01BF89B33109F489
:1038800090C020E030E040E05EE30E94CE2D4B018E
:103890005C0120E030E0A9010E94C12D20E030E071
:1038A00040E05FE387FD78C0C501B4010E945D2B55
:1038B0000E94B22C6E7FF60180819181682B792B5A
:1038C0007C8B6B8B9E012D5E3F4F41E06F2DA88D51
:1038D000B98D8C910E94281EBC8DFB0EE2E0CE0EAD
:1038E000D11C2A8D3B8D2615370509F68CA19DA18B
:1038F00001969DA38CA380CE83E18F8B92E09C8F59
:103900001CCEA6E0AF8BB2E0BC8F17CE20E030E03B
:1039100040E850E40E94CE2DAA8DBB8D6D937D931F
:103920008D939C93139746CE80E090E0A0E8BFE390
:1039300059CEC701B6010E945C2B04CF20E030E0D5
:1039400040E85EE30E94CE2D6B017C0120E030E078
:10395000A9010E94C12D20E030E040E05FE387FD37
:1039600007C0C701B6010E945D2B0E94B22CF3CEA6
:10397000C701B6010E945C2BF8CF61E070E080E0E7
:1039800090E00E940927BFEF2B1A3B0AE4E62E16AF
:10399000310409F03DCE43CFC501B4010E945C2B38
:1039A00087CF20E030E040E85EE30E94CE2D4B015F
:1039B0005C0120E030E0A9010E94C12D20E030E050
:1039C00040E05FE387FD07C0C501B4010E945D2BA5
:1039D0000E94B22C75CFC501B4010E945C2BF8CFB8
:1039E000888D998D0E941E17888D998D0E940818C8
:1039F000E7960FB6F894DEBF0FBECDBFDF91CF9133
:103A00001F910F91FF90EF90DF90CF90BF90AF90FC
:103A10009F908F907F906F905F904F903F902F90EE
:103A200008954F925F926F927F929F92AF92BF9252
:103A3000CF92DF92EF92FF920F931F93CF93DF937A
:103A4000EC01962E70E090E080E01F921F921F9292
:103A50001F9224E1A22EB12CC12CD12C15E0E12E15
:103A6000F12C00E010E021E030E040E050E00E9466
:103A70000A2B44E6C42ED12CE12CF12CA70196018F
:103A8000261B370B480B590BCA01B9010E94EA2CBF
:103A90002AE037ED43E25CE30E94CE2D6B017C010E
:103AA00020E030E044EB52E40E94CE2D2B013C019B
:103AB0002AE939E949E95EE3C701B6010E94CE2D42
:103AC0009B01AC01C92C8301720163E4CE010E9409
:103AD0006C1A0F900F900F900F90DF91CF911F9164
:103AE0000F91FF90EF90DF90CF90BF90AF909F909D
:103AF0007F906F905F904F9008954F925F926F927A
:103B00007F929F92AF92BF92CF92DF92EF92FF92FD
:103B10000F931F93CF93DF93EC01962E70E090E00C
:103B200080E01F921F921F921F9224E1A22EB12CBF
:103B3000C12CD12C15E0E12EF12C00E010E021E0A9
:103B400030E040E050E00E940A2B44E6C42ED12C25
:103B5000E12CF12CA7019601261B370B480B590BC2
:103B6000CA01B9010E94EA2C2AE037ED43E25CE386
:103B70000E94CE2D6B017C0120E030E040EA51E450
:103B80000E94CE2D2B013C012AE939E949E95EE387
:103B9000C701B6010E94CE2D9B01AC01C92C830147
:103BA00072016BE3CE010E946C1A0F900F900F9080
:103BB0000F90DF91CF911F910F91FF90EF90DF90C9
:103BC000CF90BF90AF909F907F906F905F904F90FD
:103BD0000895FF920F931F93CF93DF93C62F042F67
:103BE000F22E132F682F81EC92E00E947F216C2F20
:103BF00081EC92E00E940D21CF2DD12F0C0F1D2FB3
:103C0000111DC017D10731F0699181EC92E00E943B
:103C10000D21F7CF81EC92E00E94022291E0811108
:103C200090E0892FDF91CF911F910F91FF90089520
:103C3000CF93DF931F92CDB7DEB749839E012F5FED
:103C40003F4F41E00E94E91D0F90DF91CF91089511
:103C5000FF920F931F93CF93DF93C62F042FF22E63
:103C6000132F682F81EC92E00E947F216C2F81EC52
:103C700092E00E940D21CF2DD12F10E0101779F086
:103C80006981229681EC92E00E940D21FE0132971B
:103C9000608181EC92E00E940D211F5FEFCF81ECEB
:103CA00092E00E94022291E0811190E0892FDF9141
:103CB000CF911F910F91FF900895CF93DF9300D084
:103CC000CDB7DEB75A8349839E012F5F3F4F41E056
:103CD0000E94281E0F900F90DF91CF9108953F9280
:103CE0004F925F926F927F928F929F92AF92BF920C
:103CF000CF92DF92EF92FF920F931F93CF93DF93B8
:103D000000D000D0CDB7DEB78C83D62E4B833A835C
:103D100029830E94D8264B015C01312CC12C2B81B8
:103D2000E22EF12C2801712C612C8B81381608F0C1
:103D300049C06C8181EC92E00E947F216D2D81EC65
:103D400092E00E940D2181EC92E00E9402226C819F
:103D500081EC92E00E947F21A70143195109413271
:103D6000510514F040E250E06C8181EC92E00E9439
:103D7000FF2181EC92E00E94AD20892BD9F0011542
:103D8000110569F481EC92E00E94B420E981FA8186
:103D9000EC0DF11DC7FCFA958083C394EACF0E9415
:103DA000D826681979098A099B096415750586055D
:103DB000970540F38E2D91E2E916F1040CF080E2B4
:103DC000380EB3CF01151105C1F00E94D82668192D
:103DD00079098A099B0930E020E0601771078207A2
:103DE000930758F08C2D0C2C000C990B2B81281765
:103DF000190619F014F0CC24CA948C2D0F900F9052
:103E00000F900F90DF91CF911F910F91FF90EF9046
:103E1000DF90CF90BF90AF909F908F907F906F90EA
:103E20005F904F903F9008950F931F9389019A01DF
:103E300041E00E946F1E1F910F910895CF92DF9273
:103E4000EF92FF920F931F93CF93DF931F92CDB703
:103E5000DEB7D42EC22E9701AE014F5F5F4F0E9496
:103E6000141F8823F9F02D2D2C19330BA9014F5F56
:103E70005F4F21E030E002C0220F331FCA94E2F707
:103E800021503109B901042E01C0660F0A94EAF7E6
:103E90002981262330E002C0359527954A95E2F71F
:103EA000F80120830F90DF91CF911F910F91FF9028
:103EB000EF90DF90CF900895EF92FF920F931F93B2
:103EC000CF93DF931F92CDB7DEB7182F062FE42EC6
:103ED000F22E2091140130911501AE014F5F5F4F1A
:103EE0000E94141F81E090E001C0880FEA94EAF775
:103EF0004981FF2071F0482B4983602F812F0E9458
:103F0000181E0F90DF91CF911F910F91FF90EF90AE
:103F1000089580954823F0CFDF92EF92FF920F93A0
:103F20001F93CF93DF931F92CDB7DEB7F82EE62E07
:103F3000142FD22E2091140130911501AE014F5F44
:103F40005F4F0E94141F882359F1812F8D19990BFF
:103F5000AC014F5F5F4F81E090E002C0880F991F76
:103F6000DA94E2F70197042E01C0880F0A94EAF769
:103F700001C0000F4A95EAF7482F409599814923DF
:103F80008023482B49836E2D8F2D0E94181E0F9081
:103F9000DF91CF911F910F91FF90EF90DF900895E7
:103FA00080E0F5CF2F923F924F925F926F927F9277
:103FB0008F929F92AF92BF92CF92DF92EF92FF9239
:103FC0000F931F93CF93DF93CDB7DEB729970FB62B
:103FD000F894DEBF0FBECDBFC82E6D8349833F83EB
:103FE0002E830E94D8264B015C012981E22EF12C00
:103FF0001701220C331C220F2B83822D31E2231652
:1040000031040CF080E28C831982D12C2801712CB0
:10401000612C8981821513040CF069C06C2D81EC30
:1040200092E00E947F216D8181EC92E00E940D213F
:1040300081EC92E00E9402226C2D81EC92E00E94C1
:104040007F214B816C2D81EC92E00E94FF2191E059
:104050009A8381EC92E00E94AD20892B91F1ED2DA5
:104060000D2C000CFF0BF987E887EE15FF054CF5CA
:1040700001151105D9F428853985220F331F8E814A
:104080009F81280F391F398728879A81911122C073
:1040900081EC92E00E94B420E885F985208131818D
:1040A000822B932B91838083D3941CC00E94D826AB
:1040B000681979098A099B096415750586059705AC
:1040C000D0F281EC92E00E940222E981FC81EF0FA4
:1040D000E9839FCF81EC92E00E94B420E885F985C6
:1040E00010828183FA8121E0F227FA83B2CF011591
:1040F0001105B1F00E94D826681979098A099B092F
:1041000030E020E0601771078207930748F08D2D9B
:104110000D2C000C990B8E159F0514F4DD24DA94F8
:104120008D2D29960FB6F894DEBF0FBECDBFDF915F
:10413000CF911F910F91FF90EF90DF90CF90BF90A4
:10414000AF909F908F907F906F905F904F903F9037
:104150002F90089590E080E008958091F50290916D
:10416000F602891B990B08959091F6028091F50251
:104170002FEF3FEF981748F4E92FF0E0E950FD4F9B
:10418000208130E09F5F9093F602C9010895E0918D
:10419000F6028091F502E81730F4F0E0E950FD4FA7
:1041A000808190E008958FEF9FEF08950895CF9359
:1041B000DF93EC01E091CD02F091CE023097F1F067
:1041C0009091F6028091F5029817C0F090E0292FA7
:1041D00030E02617370754F4DE01A20FB31F4C91CD
:1041E00029503D4FD9014C939F5FF1CF1092F602B9
:1041F0006093F502CB01DF91CF910994DF91CF91CC
:104200000895E091CF02F091D002309729F01092FA
:10421000D3021092D20209940895CF93DF931F9294
:10422000CDB7DEB769832091D1022223F9F0209126
:10423000D202203258F021E030E0FC0133832283A7
:1042400090E080E00F90DF91CF9108958091D302AC
:10425000E82FF0E0EC52FD4F998190838F5F8093BF
:10426000D3028093D20281E090E0ECCF61E0CE01F6
:1042700001960E94D722F7CFCF92DF92EF92FF9262
:104280000F931F93CF93DF937C01CB018A01209181
:10429000D102222389F0EB016B01C40ED51ECC158F
:1042A000DD0569F06991D701ED91FC910190F081F4
:1042B000E02DC7010995F3CF642F0E94D722C801D2
:1042C000DF91CF911F910F91FF90EF90DF90CF90F2
:1042D00008951092F6021092F5021092D3021092F5
:1042E000D2020E94162281E091E20E94032387ED10
:1042F00090E20C94FE22CB01BA010C94342281E0AE
:104300008093D1026093F4021092D3021092D202F1
:1043100008950F93062F21E04091D20264ED72E0E0
:104320008091F4020E9487221092D3021092D2024E
:104330001092D1020F9108954F925F926F927F92E7
:10434000AF92BF92CF92EF92FF920F931F93CF93B2
:10435000DF935C01F62ED42F28013901EE2019F1EC
:104360000E947F21CE2DC43008F0C3E0C150B8F0C8
:1043700028E0C29FC0011124A301920104C05695F8
:104380004795379527958A95D2F7B901D501ED91D3
:10439000FC910190F081E02DC5010995E7CF60E027
:1043A000C5010E9489214D2FD13208F040E22C2D09
:1043B00067EF72E08F2D0E9447221092F6028093E1
:1043C000F502DF91CF911F910F91FF90EF90CF9069
:1043D000BF90AF907F906F905F904F900895CF9275
:1043E000EF920F931F93C22EE12C00E010E0980192
:1043F0000E949C211F910F91EF90CF90089521E092
:104400000C94EF2161E00C948921E1ECF2E013823D
:10441000128288EE93E0A0E0B0E084839583A683C7
:10442000B78383E491E091838083089510926603BB
:1044300081E0809364031092630361E082E10E9453
:10444000ED2761E083E10E94ED27E9EBF0E0808158
:104450008E7F808380818D7F808388E48093B80005
:1044600085E48093BC0008959B01AC0160E074E298
:1044700084EF90E00E94B62E205131094109510984
:1044800056954795379527952093B8000895413262
:10449000E0F5909166039111FCCF91E09093660353
:1044A000209364032FEF2093170370935E036093B0
:1044B0005D0310925C03240F20935B0390936503CC
:1044C00090916503880F892B809365038091630326
:1044D0008130C9F410926303809165038093BB001F
:1044E0008091BC0083FDF8CF85EC8093BC00809167
:1044F00066038130E1F380915C03841710F44091EE
:104500005C03842F089585EEF0CF40E0FACF0F933F
:10451000413208F044C0909166039111FCCF92E0C3
:1045200090936603009364039FEF90931703709337
:104530005E0360935D0310925C0340935B031092F3
:10454000650390916503880F892B809365038091A3
:104550006303813011F510926303809165038093AA
:10456000BB008091BC0083FDF8CF85EC8093BC003C
:10457000222321F0809166038230D1F380911703CA
:104580008F3F79F080911703803269F08091170393
:10459000803359F084E00F91089585EEE7CF81E0F4
:1045A000FACF80E0F8CF82E0F6CF83E0F4CF20911D
:1045B0003903260F3327331F21323105ECF42091C4
:1045C0006603FC0190E080E0243069F082E0089509
:1045D000A09139032191AC01455C5C4FA40FB52F2C
:1045E000B11D2C930196861798F380913903680FBB
:1045F0006093390380E0089581E00895909360030B
:1046000080935F03089590936203809361030895FC
:1046100085ED8093BC008091BC0084FDFCCF10929E
:104620006603089585EC8093BC001092660308959C
:104630001F920F920FB60F9211242F933F934F9317
:104640005F936F937F938F939F93AF93BF93EF93FA
:10465000FF938091B900887F803609F44CC008F040
:104660003FC0883209F4A8C018F5803109F49CC015
:10467000B8F4882309F405C1883009F495C0FF9186
:10468000EF91BF91AF919F918F917F916F915F91CA
:104690004F913F912F910F900FBE0F901F90189543
:1046A000883109F489C0803251F78093170315C00F
:1046B000803409F4A6C048F48033B9F38833F9F69E
:1046C000809317030E941223DACF803509F489C042
:1046D000883509F49EC0883491F60E940823CFCF14
:1046E000883909F494C038F5883729F050F48836B1
:1046F00011F0803721F683E080936603109218034F
:1047000057C0883809F483C0803919F0803809F01F
:10471000B6CF80911803803208F079C0E091180379
:1047200081E08E0F809318038091BB00F0E0E75E7C
:10473000FC4F80833DC0803B39F0E0F4803A09F4BF
:1047400085C0883A09F09BCF84E08093660310927D
:104750003A0310923903E0916103F09162030995E5
:104760008091390381110FC081E080933903109249
:104770003B0309C0803C09F482C0883C09F47FC037
:10478000883B09F07CCFE0913A0381E08E0F809363
:104790003A03F0E0E55CFC4F80818093BB00909190
:1047A0003A038091390331C0809165038093BB0047
:1047B00085EC8093BC0063CF90915C0380915B0398
:1047C0009817B8F580915D0390915E03E0915C03CA
:1047D00021E02E0F20935C03E80FF92FF11D80815B
:1047E000E5CF20915D0330915E03E0915C0381E0B1
:1047F0008E0F80935C038091BB00E20FF32FF11DBD
:10480000808390915C0380915B03981788F285E820
:10481000D0CF20915D0330915E03E0915C0381E095
:104820008E0F80935C038091BB00E20FF32FF11D8C
:10483000808380916403811150CF81E08093630372
:1048400084EA8093BC001092660319CF0E94122361
:1048500080911803803230F4E0911803F0E0E75EB5
:10486000FC4F10826091180370E0E0915F03F091BB
:10487000600389E193E009951092180300CF85EC5D
:10488000E0CF1092170329CFCF92DF92EF92FF92E1
:10489000CF93DF93EC016A017B012FE632E143E81D
:1048A0005AE3CB01B6010E943B2C87FD11C020E0EA
:1048B00030E04AE754E4C701B6010E94C12D181642
:1048C0007CF4C12CD12C8AE7E82E84E4F82E08C0B1
:1048D0009FE6C92E92E1D92E93E8E92E9AE3F92EAC
:1048E000C88AD98AEA8AFB8ADF91CF91FF90EF903C
:1048F000DF90CF900895CF92DF92EF92FF92CF9307
:10490000DF93EC016A017B0120E030E0A901CB01DB
:10491000B6010E94C12D181624F0F7FAF094F7F8AA
:10492000F0942BED3FE049EC50E4C701B6010E9442
:10493000CE2D6C8B7D8B8E8B9F8BDF91CF91FF90DB
:10494000EF90DF90CF9008958F929F92AF92BF9299
:10495000CF92DF92EF92FF920F931F93CF93DF934B
:10496000EC014A015B01B901A801C882D982EA823F
:10497000FB821C821D821E821F82188E0E9444248C
:10498000B501A401CE010E947B240E94E426698F18
:104990007A8F8B8F9C8FDF91CF911F910F91FF901A
:1049A000EF90DF90CF90BF90AF909F908F90089541
:1049B000EF92FF920F931F93CF93DF93EC01FB01D4
:1049C000CA01B901188EE882F9820A831B833097E5
:1049D000D1F42AE037ED43EA5FE30E94CE2DAB012C
:1049E000BC01CE010E947B248DE790EDA3E1BFE3E3
:1049F000888B998BAA8BBB8BDF91CF911F910F91E5
:104A0000FF90EF9008953197B9F7A901BC01CE014D
:104A10000E947B2481E894E0A5E3BFE3E9CF2F92D5
:104A20003F924F925F926F927F928F929F92AF923E
:104A3000BF92CF92DF92EF92FF920F931F93CF938B
:104A4000DF93CDB7DEB72A970FB6F894DEBF0FBE5F
:104A5000CDBF9A8789872A013B01DC011C964D92C4
:104A60005D926D927C921F970E94E4266B017C01FF
:104A7000E985FA85818D928DA38DB48DA70196016C
:104A8000281B390B4A0B5B0BCA01B9010E94EA2CA7
:104A90002DEB37E346E855E30E94CE2D4B015C0138
:104AA000A985BA855996CD92DD92ED92FC925C97DC
:104AB0005496CD90DD90ED90FC90579720E030E03B
:104AC000A9010E943B2C87FDAFC0A701960160E0C1
:104AD00070E080E89FE30E94402C162F072F382EAD
:104AE000292E262F372F482F592FB401C5010E9498
:104AF000C12D181624F0182D092D3A2C2B2CA701A6
:104B00009601C701B6010E94CE2D6D837E838F83EF
:104B10009887E985FA8584809580A680B780208172
:104B200031814281538129833A834B835C839B018A
:104B3000AC01C301B2010E94CE2D2B013C01E985DD
:104B4000FA852089318942895389C701B6010E94BB
:104B5000402CA50194010E94CE2D9B01AC01C30104
:104B6000B2010E945C2B6B017C012D813E814F8143
:104B7000588569817A818B819C810E94CE2D9B0111
:104B8000AC01C701B6010E945C2B212F302F432DB1
:104B9000522D0E94CE2DA50194010E945D2B6B0128
:104BA0007C01AC019B01C501B4010E945D2B20E09A
:104BB00030E040E05FE30E94CE2DA985BA851896CB
:104BC0006D937D938D939C931B97212F302F432DB5
:104BD000522D0E94CE2D29813A814B815C810E9409
:104BE0005D2BE985FA856083718382839383C48218
:104BF000D582E682F7822A960FB6F894DEBF0FBE02
:104C0000CDBFDF91CF911F910F91FF90EF90DF907B
:104C1000CF90BF90AF909F908F907F906F905F905C
:104C20004F903F902F90089510E000E0312C212C00
:104C300066CFFC016081718182819381089508951E
:104C40008230E8F4E82FF0E0EE0FFF1FEA5EFE4F3F
:104C500071836083813041F0809169008C7F482BA3
:104C600040936900E89A089580916900837F440F1A
:104C7000551F440F551F482B40936900E99A08952A
:104C80001F920F920FB60F9211242F933F934F93C1
:104C90005F936F937F938F939F93AF93BF93EF93A4
:104CA000FF93E0911601F09117010995FF91EF91A3
:104CB000BF91AF919F918F917F916F915F914F9134
:104CC0003F912F910F900FBE0F901F9018951F923C
:104CD0000F920FB60F9211242F933F934F935F9330
:104CE0006F937F938F939F93AF93BF93EF93FF93B4
:104CF000E0911801F09119010995FF91EF91BF9191
:104D0000AF919F918F917F916F915F914F913F9163
:104D10002F910F900FBE0F901F9018951F920F921A
:104D20000FB60F9211242F933F938F939F93AF93BE
:104D3000BF9380916C0390916D03A0916E03B0912D
:104D40006F0330916B0323E0230F2D3768F126E8C2
:104D5000230F0296A11DB11D20936B0380936C035A
:104D600090936D03A0936E03B0936F0380916703DC
:104D700090916803A0916903B0916A030196A11D07
:104D8000B11D8093670390936803A0936903B09368
:104D90006A03BF91AF919F918F913F912F910F9097
:104DA0000FBE0F901F9018950196A11DB11DD4CF75
:104DB0002FB7F89460916C0370916D0380916E032E
:104DC00090916F032FBF08953FB7F89480916703C8
:104DD00090916803A0916903B0916A0326B5A89BDE
:104DE00005C02F3F19F00196A11DB11D3FBFBA2F7D
:104DF000A92F982F8827BC01CD01620F711D811D3D
:104E0000911D42E0660F771F881F991F4A95D1F7C1
:104E100008958F929F92AF92BF92CF92DF92EF92BE
:104E2000FF926B017C010E94E4264B015C01C114DE
:104E3000D104E104F104E9F00E945B2B0E94E42616
:104E4000681979098A099B09683E734081059105B3
:104E500070F321E0C21AD108E108F10888EE880E4B
:104E600083E0981EA11CB11CC114D104E104F1041B
:104E700029F7FF90EF90DF90CF90BF90AF909F9079
:104E80008F900895789484B5836084BD85B58360E0
:104E900085BDEEE6F0E0808181608083E1E8F0E0AE
:104EA00082E08083808181608083E0E8F0E080811F
:104EB00081608083E1EBF0E0808184608083E0EBBF
:104EC000F0E080818160808387E880937A0010928F
:104ED000C1000895883020F08D3008F48DE08E50A8
:104EE00020911A0190E4299F900111248770822B50
:104EF00080937C0080917A00806480937A00809116
:104F00007A0086FDFCCF8091780090917900089519
:104F1000843081F028F48230E9F08330F9F008958C
:104F2000883071F0893091F08530B9F4809180003B
:104F30008F7D03C0809180008F77809380000895DB
:104F40008091B0008F778093B00008958091B00079
:104F50008F7DF9CF84B58F7784BD089584B58F7D1B
:104F6000FBCFCF93DF9390E0FC01E35EF44F2491FD
:104F70008C5C944FFC0184918823C9F090E0880FE9
:104F8000991FFC01E15AF44FA591B491FC01EB5A31
:104F9000F44FC591D49161110DC09FB7F8948C91D5
:104FA000209582238C938881282328839FBFDF91BB
:104FB000CF910895623051F49FB7F8943C91822FBD
:104FC000809583238C93E8812E2BEFCF8FB7F894B5
:104FD000EC912E2B2C938FBFEACF1F93CF93DF93AF
:104FE000282F30E0F901EA5FF44F8491F901E35E84
:104FF000F44FD491F901EC5CF44FC491CC23A9F0A7
:10500000162F81110E948827EC2FF0E0EE0FFF1F72
:10501000EB5AF44FA591B4918FB7F894EC9111111C
:1050200008C0D095DE23DC938FBFDF91CF911F9115
:105030000895DE2BF8CFCF93DF93282F30E0F901CE
:10504000EA5FF44F8491F901E35EF44FD491F901E2
:10505000EC5CF44FC491CC23A1F081110E9488270D
:10506000EC2FF0E0EE0FFF1FE55BF44FA591B4913C
:10507000EC91ED2381E090E009F480E0DF91CF91A5
:10508000089580E090E0FACFFC01918D228D892F68
:1050900090E0805C9F4F821B91098F739927089540
:1050A000FC01918D828D981731F0828DE80FF11DF2
:1050B000858D90E008958FEF9FEF0895FC01918D0D
:1050C000828D981761F0A28DAE0FBF2FB11D5D9636
:1050D0008C91928D9F5F9F73928F90E008958FEFD8
:1050E0009FEF0895FC01538D448D252F30E0842FD0
:1050F00090E0821B930B541710F0CF960895019700
:10510000089586E799E2892B49F080E090E0892BA9
:1051100029F00E94762981110C9400000895FC0169
:10512000A48DA80FB92FB11DA35ABF4F2C91848D08
:1051300090E001968F739927848FA689B7892C9365
:10514000A089B1898C91837080648C93938D848DB8
:10515000981306C00288F389E02D80818F7D8083BB
:105160000895CF93DF93EC01888D8823B9F0AA8945
:10517000BB89E889F9898C9185FD03C0808186FD12
:105180000DC00FB607FCF7CF8C9185FFF2CF808161
:1051900085FFEDCFCE010E948F28E9CFDF91CF911F
:1051A0000895EF92FF920F931F93CF93DF93EC013B
:1051B00081E0888F9B8D8C8D98131AC0E889F989BE
:1051C000808185FF15C09FB7F894EE89FF896083C1
:1051D000E889F98980818370806480839FBF81E042
:1051E00090E0DF91CF911F910F91FF90EF90089584
:1051F000F62E0B8D10E00F5F1F4F0F731127E02E5F
:105200008C8D8E110CC00FB607FCFACFE889F98996
:10521000808185FFF5CFCE010E948F28F1CFEB8DE5
:10522000EC0FFD2FF11DE35AFF4FF0829FB7F8946A
:105230000B8FEA89FB8980818062CFCF1F920F920A
:105240000FB60F9211242F938F939F93EF93FF9399
:10525000E0918003F09181038081E0918603F091D9
:10526000870382FD1BC09081809189038F5F8F73BC
:1052700020918A03821741F0E0918903F0E0E05920
:10528000FC4F958F80938903FF91EF919F918F91B0
:105290002F910F900FBE0F901F9018958081F4CF23
:1052A0001F920F920FB60F9211242F933F934F939B
:1052B0005F936F937F938F939F93AF93BF93EF937E
:1052C000FF9380E793E00E948F28FF91EF91BF91B9
:1052D000AF919F918F917F916F915F914F913F918E
:1052E0002F910F900FBE0F901F90189580E793E0BD
:1052F0000E94442821E0892B09F420E0822F0895A0
:10530000E0E7F3E01382128288EE93E0A0E0B0E0E1
:1053100084839583A683B78385E591E09183808319
:1053200085EC90E09587848784EC90E0978786876A
:1053300080EC90E0918B808B81EC90E0938B828B62
:1053400082EC90E0958B848B86EC90E0978B868B3B
:10535000118E128E138E148E0895AF92BF92CF923B
:10536000DF92EF92FF920F931F93CF93DF936C0125
:105370007B018B01040F151FEB015E01AE18BF0806
:10538000C017D10759F06991D601ED91FC910190B8
:10539000F081E02DC6010995892B79F7C501DF91D0
:1053A000CF911F910F91FF90EF90DF90CF90BF9022
:1053B000AF900895FB0101900020E9F73197AF010C
:1053C000461B570BDC01ED91FC910280F381E02D2F
:1053D0000994EF92FF920F931F93CF93DF938C0169
:1053E0007B01D0E0C0E0F701EC0FFD1F6491662364
:1053F00061F0D801ED91FC910190F081E02DC801A0
:105400000995892B11F02196EECFCE01DF91CF9136
:105410001F910F91FF90EF9008956115710511F0A4
:105420000C94DA2990E080E00895DC01ED91FC9184
:105430000190F081E02D099463E671E00C94DA2983
:105440000F931F93CF93DF93EC010E94E9298C0106
:10545000CE010E941C2A800F911FDF91CF911F91D6
:105460000F9108950F931F93CF93DF938C01D0E09A
:10547000C0E06115710519F00E94DA29EC01C8013C
:105480000E941C2A8C0F9D1FDF91CF911F910F91BD
:1054900008958F929F92AF92BF92EF92FF920F93D7
:1054A0001F93CF93DF93CDB7DEB7A1970FB6F894D4
:1054B000DEBF0FBECDBF7C01FA01CB0119A22230A5
:1054C00008F42AE08E010F5D1F4F822E912CB12C23
:1054D000A12CBF01A50194010E94B62EF901CA01B9
:1054E0006A300CF5605DD8016E938D01232B242B5F
:1054F000252B79F790E080E0109721F0BD01C701DE
:105500000E94DA29A1960FB6F894DEBF0FBECDBF78
:10551000DF91CF911F910F91FF90EF90BF90AF90CF
:105520009F908F900895695CDECFCF92DF92EF92CB
:10553000FF920F931F93CF93DF932115310581F4D1
:10554000DC01ED91FC910190F081E02D642FDF9161
:10555000CF911F910F91FF90EF90DF90CF90099422
:105560002A30310501F52AE077FF1DC06A017B0171
:10557000EC016DE20E94152A8C0144275527BA01DF
:105580004C195D096E097F092AE0CE010E94492A63
:10559000800F911FDF91CF911F910F91FF90EF909E
:1055A000DF90CF900895DF91CF911F910F91FF90E1
:1055B000EF90DF90CF900C94492A9A01AB01770FBE
:1055C000660B770B0C94952A2115310541F4DC010B
:1055D000ED91FC910190F081E02D642F09940C94E1
:1055E000492A9A01462F50E070E060E00C94E42ACA
:1055F0000F931F93CF93DF93EC010E94F12A8C014C
:10560000CE010E941C2A800F911FDF91CF911F9124
:105610000F9108954F925F926F927F92AF92BF92D7
:10562000CF92DF92EF92FF920F931F93CF93DF936E
:10563000CDB7DEB729013A019B01AC012419350928
:105640004609570989899A89AB89BC89BC01CD0172
:105650006A197B098C099D090E949A2EA80197015D
:1056600024193509460957090E94D82ECA01B901E3
:105670006A0D7B1D8C1D9D1DDF91CF911F910F9198
:10568000FF90EF90DF90CF90BF90AF907F906F90A2
:105690005F904F90089508950E9442270E944B2BDF
:1056A0000E94140AC1E8D8E20E94680C2097E1F336
:1056B0000E948128F9CF08955058BB27AA270E943D
:1056C000742B0C94872D0E94792D38F00E94802D28
:1056D00020F039F49F3F19F426F40C944F2D0EF46A
:1056E000E095E7FB0C94492DE92F0E94982D58F383
:1056F000BA17620773078407950720F079F4A6F5B7
:105700000C94BA2D0EF4E0950B2EBA2FA02D0B01A0
:10571000B90190010C01CA01A0011124FF27591BF6
:1057200099F0593F50F4503E68F11A16F040A22FFC
:10573000232F342F4427585FF3CF4695379527956D
:10574000A795F0405395C9F77EF41F16BA0B620B6C
:10575000730B840BBAF09150A1F0FF0FBB1F661FB3
:10576000771F881FC2F70EC0BA0F621F731F841FF6
:1057700048F4879577956795B795F7959E3F08F01C
:10578000B0CF9395880F08F09927EE0F97958795DE
:1057900008950E94792D60F080E891E009F49EEF71
:1057A0000E94802D28F040E851E071F45EEF0CC0BB
:1057B0000C944F2D0C94BA2DE92FE0780E94982D6F
:1057C00040F3092E052AB1F3261737074807590772
:1057D00038F00E2E07F8E02569F0E025E0640AC0F5
:1057E000EF6307F8009407FADB01B9019D01DC01C2
:1057F000CA01AD01EF930E94572C0E94872D0E9491
:105800000C2C5F91552339F02BED3FE049E450FD1E
:1058100049EC0C945D2B0895DF93DD27B92FBF77FA
:1058200040E85FE31616170648075B0718F4D92F00
:105830000E94C62D9F938F937F936F930E94812E1A
:10584000E8E6F0E00E94522D0E94872D2F913F91B3
:105850004F915F910E94E12DDD2351F09058A2EA13
:105860002AED3FE049EC5FE3D0785D270E94742B7E
:10587000DF910C94872D0E94252D08F481E0089576
:105880000E94542C0C94872D0E94802D58F00E9469
:10589000792D40F029F45F3F29F00C94492D5111E6
:1058A0000C94BB2D0C944F2D0E94982D68F39923D6
:1058B000B1F3552391F3951B550BBB27AA2762170C
:1058C0007307840738F09F5F5F4F220F331F441F19
:1058D000AA1FA9F335D00E2E3AF0E0E832D091504D
:1058E0005040E695001CCAF72BD0FE2F29D0660F3A
:1058F000771F881FBB1F261737074807AB07B0E87D
:1059000009F0BB0B802DBF01FF2793585F4F3AF082
:105910009E3F510578F00C94492D0C94BB2D5F3FB0
:10592000E4F3983ED4F3869577956795B795F79508
:105930009F5FC9F7880F911D9695879597F90895F0
:10594000E1E0660F771F881FBB1F6217730784078C
:10595000BA0720F0621B730B840BBA0BEE1F88F79B
:10596000E09508950E94B92C6894B1110C94BB2D58
:1059700008950E94A02D88F09F5798F0B92F99277D
:10598000B751B0F0E1F0660F771F881F991F1AF02A
:10599000BA95C9F714C0B13091F00E94BA2DB1E0A8
:1059A00008950C94BA2D672F782F8827B85F39F0A7
:1059B000B93FCCF3869577956795B395D9F73EF4C3
:1059C00090958095709561957F4F8F4F9F4F08956B
:1059D000E89409C097FB3EF4909580957095619589
:1059E0007F4F8F4F9F4F9923A9F0F92F96E9BB273F
:1059F0009395F695879577956795B795F111F8CFBB
:105A0000FAF4BB0F11F460FF1BC06F5F7F4F8F4F25
:105A10009F4F16C0882311F096E911C0772321F01B
:105A20009EE8872F762F05C0662371F096E8862FB3
:105A300070E060E02AF09A95660F771F881FDAF70A
:105A4000880F9695879597F90895990F0008550F37
:105A5000AA0BE0E8FEEF16161706E807F907C0F0F4
:105A600012161306E407F50798F0621B730B840BFC
:105A7000950B39F40A2661F0232B242B252B21F4D6
:105A800008950A2609F4A140A6958FEF811D811D76
:105A9000089597F99F6780E870E060E008959FEFB0
:105AA00080EC0895DF93CF931F930F93FF92EF92B3
:105AB000DF927B018C01689406C0DA2EEF010E9410
:105AC000E12DFE01E894A5912591359145915591DF
:105AD000A6F3EF010E94742BFE019701A801DA944E
